{
	"data": {
		"bytecode": {
			"linkReferences": {},
			"object": "60c06040523480156200001157600080fd5b50604051620030ac380380620030ac83398101604081905262000034916200004b565b6001600160a01b0390911660805260a05262000087565b600080604083850312156200005f57600080fd5b82516001600160a01b03811681146200007757600080fd5b6020939093015192949293505050565b60805160a051612fb9620000f360003960008181611fa60152612227015260008181610a6001528181610b5801528181610bd80152818161171d015281816118ac0152818161192c01528181611b8b01528181611c2101528181611d730152611e090152612fb96000f3fe608060405234801561001057600080fd5b50600436106101735760003560e01c80636c6595ca116100de578063c7eae5a211610097578063d4ee973411610071578063d4ee97341461038a578063f18858ab1461039d578063f698da25146103bd578063ffa1ad74146103c557600080fd5b8063c7eae5a21461033d578063c86ec2bf14610364578063c90db4471461037757600080fd5b80636c6595ca146102a25780639b890b70146102b5578063a3f4df7e146102c8578063b00c57c514610304578063b1f85f6914610317578063c026e7ee1461032a57600080fd5b8063315a7af311610130578063315a7af3146102205780633408e4701461023357806337d82c36146102395780634f9a28b91461025c57806357cfebbc1461027c5780635f19df081461028f57600080fd5b8063064e2d0e146101785780630728e1e71461018d5780631a0487a0146101a05780631db61b54146101b35780631e01c4f0146101ed5780632d0335ab1461020d575b600080fd5b61018b610186366004612645565b6103e9565b005b61018b61019b3660046127b8565b6105df565b61018b6101ae366004612934565b6109bf565b6101da7f8b73c3c69bb8fe3d512ecc4cf759cc79239f7b179b0ffacaa9a75d522b39400f81565b6040519081526020015b60405180910390f35b6102006101fb366004612985565b610c8b565b6040516101e49190612a3b565b6101da61021b366004612a4e565b610d7f565b61018b61022e366004612a4e565b610d9a565b466101da565b61024c610247366004612a6b565b611599565b60405190151581526020016101e4565b61026f61026a366004612a4e565b6115f1565b6040516101e49190612b1b565b61018b61028a366004612b65565b6116ce565b6101da61029d366004612985565b61177e565b6101da6102b0366004612b91565b61179f565b61018b6102c3366004612bec565b61185c565b6102006040518060400160405280601c81526020017f4b61696a7520536f6369616c205265636f76657279204d6f64756c650000000081525081565b61018b610312366004612c2d565b6119dd565b61018b610325366004612b91565b611a90565b6101da610338366004612a4e565b611b69565b6101da7f124b64921a7c7e677c6cc3b132eaaa57130bc6fc05ab157f35fe5264a7c198d581565b6101da610372366004612a4e565b611bff565b61018b610385366004612a4e565b611c52565b61024c610398366004612c98565b611d49565b6103b06103ab366004612a4e565b611de7565b6040516101e49190612cd1565b6101da611e7a565b61020060405180604001604052806005815260200164302e302e3160d81b81525081565b6103f38533611d49565b6104445760405162461bcd60e51b815260206004820152601b60248201527f4b534d30352073656e646572206e6f74206120677561726469616e000000000060448201526064015b60405180910390fd5b826104915760405162461bcd60e51b815260206004820152601c60248201527f4b534d3036206f776e6572732063616e6e6f7420626520656d70747900000000604482015260640161043b565b6000821180156104a15750818310155b6104ed5760405162461bcd60e51b815260206004820152601b60248201527f4b534d303720696e76616c6964206e6577207468726573686f6c640000000000604482015260640161043b565b60006104f886610d7f565b905060006105098787878786610c8b565b8051602091820120600081815260028352604080822033835290935291909120805460ff191660011790559050826105425750506105d8565b600061054d88611bff565b9050600061055d8989898961179f565b9050818110156105c65760405162461bcd60e51b815260206004820152602e60248201527f4b534d303820636f6e6669726d6564207369676e617475726573206c6573732060448201526d1d1a185b881d1a1c995cda1bdb1960921b606482015260840161043b565b6105d38989898985611f87565b505050505b5050505050565b8361062c5760405162461bcd60e51b815260206004820152601c60248201527f4b534d3039206f776e6572732063616e6e6f7420626520656d70747900000000604482015260640161043b565b60008311801561063c5750828410155b6106885760405162461bcd60e51b815260206004820152601b60248201527f4b534d313020696e76616c6964206e6577207468726573686f6c640000000000604482015260640161043b565b60008251116106d25760405162461bcd60e51b81526020600482015260166024820152754b534d313120656d707479207369676e61747572657360501b604482015260640161043b565b60006106dd87611bff565b9050600081116107275760405162461bcd60e51b81526020600482015260156024820152744b534d313220656d70747920677561726469616e7360581b604482015260640161043b565b600061073288610d7f565b905060006107438989898986610c8b565b8051906020012090506000805b865181101561091e57600087828151811061076d5761076d612ce4565b6020026020010151905080602001515160000361085e5761078e8c33611d49565b6107da5760405162461bcd60e51b815260206004820152601b60248201527f4b534d31332073656e646572206e6f74206120677561726469616e0000000000604482015260640161043b565b80516001600160a01b031633146108595760405162461bcd60e51b815260206004820152603960248201527f4b534d3134206e756c6c207369676e61747572652073686f756c64206861766560448201527f20746865207369676e6572206173207468652073656e64657200000000000000606482015260840161043b565b610872565b6108728c85836000015184602001516119dd565b80516001600160a01b038085169116116108df5760405162461bcd60e51b815260206004820152602860248201527f4b534d3135206475706c6963617465207369676e6572732f696e76616c6964206044820152676f72646572696e6760c01b606482015260840161043b565b6109098460009081526002602090815260408083203384529091529020805460ff19166001179055565b5191508061091681612d10565b915050610750565b508461092d57505050506109b7565b600061093b8b8b8b8b61179f565b9050848110156109a45760405162461bcd60e51b815260206004820152602e60248201527f4b534d313620636f6e6669726d6564207369676e617475726573206c6573732060448201526d1d1a185b881d1a1c995cda1bdb1960921b606482015260840161043b565b6109b18b8b8b8b85611f87565b50505050505b505050505050565b83336001600160a01b038216146109e85760405162461bcd60e51b815260040161043b90612d29565b6109f28584611d49565b610a3e5760405162461bcd60e51b815260206004820152601f60248201527f4b534d3236206d757374206265206578697374696e6720677561726469616e00604482015260640161043b565b60405163601373f760e11b81526001600160a01b0386811660048301526000917f00000000000000000000000000000000000000000000000000000000000000009091169063c026e7ee90602401602060405180830381865afa158015610aa9573d6000803e3d6000fd5b505050506040513d601f19601f82011682018060405250810190610acd9190612d55565b905082610adb600183612d6e565b1015610b295760405162461bcd60e51b815260206004820152601760248201527f4b534d323720696e76616c6964207468726573686f6c64000000000000000000604482015260640161043b565b6040516337993b9960e21b81526001600160a01b038781166004830152868116602483015285811660448301527f0000000000000000000000000000000000000000000000000000000000000000169063de64ee6490606401600060405180830381600087803b158015610b9c57600080fd5b505af1158015610bb0573d6000803e3d6000fd5b50506040516315f3faef60e21b81526001600160a01b038981166004830152602482018790527f00000000000000000000000000000000000000000000000000000000000000001692506357cfebbc9150604401600060405180830381600087803b158015610c1e57600080fd5b505af1158015610c32573d6000803e3d6000fd5b50505050836001600160a01b0316866001600160a01b03167f27467b5307d3e9459421094efd94d076b4c6f8d00b78d5a12a3cecef307f0c4f85604051610c7b91815260200190565b60405180910390a3505050505050565b606060007f124b64921a7c7e677c6cc3b132eaaa57130bc6fc05ab157f35fe5264a7c198d560001b878787604051602001610cc7929190612d81565b60408051808303601f190181528282528051602091820120818401959095526001600160a01b03939093168282015260608201939093526080810187905260a08082018790528351808303909101815260c090910190925281519101209050601960f81b600160f81b610d38611e7a565b6040516001600160f81b0319938416602082015292909116602183015260228201526042810182905260620160405160208183030381529060405291505095945050505050565b6001600160a01b031660009081526020819052604090205490565b6001600160a01b03811660009081526001602052604090206002015481906001600160401b0316610e095760405162461bcd60e51b81526020600482015260196024820152784b534d3032206e6f206f6e676f696e67207265636f7665727960381b604482015260640161043b565b6000610e14836115f1565b905080604001516001600160401b0316426001600160401b03161015610e885760405162461bcd60e51b815260206004820152602360248201527f4b534d3230207265636f7665727920706572696f64207374696c6c2070656e64604482015262696e6760e81b606482015260840161043b565b60608101516020820151610e9b85612055565b60008590506000816001600160a01b031663a0e67e2b6040518163ffffffff1660e01b8152600401600060405180830381865afa158015610ee0573d6000803e3d6000fd5b505050506040513d6000823e601f3d908101601f19168201604052610f089190810190612dc3565b9050600060018251610f1a9190612d6e565b90505b801561108c5760006001600160a01b03841663468721a78a8386610f42600188612d6e565b81518110610f5257610f52612ce4565b6020026020010151878781518110610f6c57610f6c612ce4565b60209081029190910101516040516001600160a01b039283166024820152911660448201526001606482015260840160408051601f198184030181529181526020820180516001600160e01b031663f8dc5dd960e01b179052516001600160e01b031960e086901b168152610fe993929190600090600401612e72565b6020604051808303816000875af1158015611008573d6000803e3d6000fd5b505050506040513d601f19601f8201168201806040525081019061102c9190612ec8565b90508061107b5760405162461bcd60e51b815260206004820152601a60248201527f4b534d3231206f776e65722072656d6f76616c206661696c6564000000000000604482015260640161043b565b5061108581612ee5565b9050610f1d565b5060005b845181101561140d576110bc888683815181106110af576110af612ce4565b6020026020010151611d49565b156111145760405162461bcd60e51b815260206004820152602260248201527f4b534d3232206e6577206f776e65722063616e6e6f742062652067756172646960448201526130b760f11b606482015260840161043b565b6000816000036112cd5782828151811061113057611130612ce4565b60200260200101516001600160a01b031686838151811061115357611153612ce4565b60200260200101516001600160a01b03160361116f57506113fb565b836001600160a01b031663468721a78a6000600187878151811061119557611195612ce4565b60200260200101518b88815181106111af576111af612ce4565b60200260200101516040516024016111e7939291906001600160a01b0393841681529183166020830152909116604082015260600190565b60408051601f198184030181529181526020820180516001600160e01b031663e318b52b60e01b179052516001600160e01b031960e086901b16815261123593929190600090600401612e72565b6020604051808303816000875af1158015611254573d6000803e3d6000fd5b505050506040513d601f19601f820116820180604052508101906112789190612ec8565b9050806112c75760405162461bcd60e51b815260206004820152601e60248201527f4b534d3233206f776e6572207265706c6163656d656e74206661696c65640000604482015260640161043b565b506113fb565b836001600160a01b031663468721a78a60008986815181106112f1576112f1612ce4565b60209081029190910101516040516001600160a01b0390911660248201526001604482015260640160408051601f198184030181529181526020820180516001600160e01b0316630d582f1360e01b179052516001600160e01b031960e086901b16815261136793929190600090600401612e72565b6020604051808303816000875af1158015611386573d6000803e3d6000fd5b505050506040513d601f19601f820116820180604052508101906113aa9190612ec8565b9050806113f95760405162461bcd60e51b815260206004820152601b60248201527f4b534d3234206f776e6572206164646974696f6e206661696c65640000000000604482015260640161043b565b505b8061140581612d10565b915050611090565b506001831115611520576000826001600160a01b031663468721a78960008760405160240161143e91815260200190565b60408051601f198184030181529181526020820180516001600160e01b031663694e80c360e01b179052516001600160e01b031960e086901b16815261148c93929190600090600401612e72565b6020604051808303816000875af11580156114ab573d6000803e3d6000fd5b505050506040513d601f19601f820116820180604052508101906114cf9190612ec8565b90508061151e5760405162461bcd60e51b815260206004820152601d60248201527f4b534d3235206368616e6765207468726573686f6c64206661696c6564000000604482015260640161043b565b505b8360405161152e9190612efc565b6040518091039020876001600160a01b03167f8f02bbdd0d302f6cdd4a448157ae4156c07384b648beae077292ba804d60ad5a85600161156d8c610d7f565b6115779190612d6e565b604080519283526020830191909152015b60405180910390a350505050505050565b6000806115a587610d7f565b905060006115b68887878786610c8b565b805160209182012060009081526002825260408082206001600160a01b039a909a16825298909152969096205460ff16979650505050505050565b6116256040518060800160405280600081526020016000815260200160006001600160401b03168152602001606081525090565b6001600160a01b038216600090815260016020818152604092839020835160808101855281548152928101548383015260028101546001600160401b0316838501526003810180548551818502810185019096528086529394919360608601938301828280156116be57602002820191906000526020600020905b81546001600160a01b031681526001909101906020018083116116a0575b5050505050815250509050919050565b81336001600160a01b038216146116f75760405162461bcd60e51b815260040161043b90612d29565b6040516315f3faef60e21b81526001600160a01b038481166004830152602482018490527f000000000000000000000000000000000000000000000000000000000000000016906357cfebbc90604401600060405180830381600087803b15801561176157600080fd5b505af1158015611775573d6000803e3d6000fd5b50505050505050565b600061178d8686868686610c8b565b80519060200120905095945050505050565b6000806117ab86610d7f565b905060006117bc8787878786610c8b565b80519060200120905060006117d088611de7565b90506000935060005b81518110156118505761182b838383815181106117f8576117f8612ce4565b602002602001015160009182526002602090815260408084206001600160a01b0393909316845291905290205460ff1690565b1561183e578461183a81612d10565b9550505b8061184881612d10565b9150506117d9565b50505050949350505050565b82336001600160a01b038216146118855760405162461bcd60e51b815260040161043b90612d29565b604051630c68452160e41b81526001600160a01b03858116600483015284811660248301527f0000000000000000000000000000000000000000000000000000000000000000169063c684521090604401600060405180830381600087803b1580156118f057600080fd5b505af1158015611904573d6000803e3d6000fd5b50506040516315f3faef60e21b81526001600160a01b038781166004830152602482018690527f00000000000000000000000000000000000000000000000000000000000000001692506357cfebbc9150604401600060405180830381600087803b15801561197257600080fd5b505af1158015611986573d6000803e3d6000fd5b50505050826001600160a01b0316846001600160a01b03167f6d0391926fd0fcb9e582cc3f9b1d2302bfd0866212cc067d5b137352a23a41bc846040516119cf91815260200190565b60405180910390a350505050565b6119e78483611d49565b611a335760405162461bcd60e51b815260206004820152601b60248201527f4b534d3034205369676e6572206e6f74206120677561726469616e0000000000604482015260640161043b565b611a3e82848361209e565b611a8a5760405162461bcd60e51b815260206004820181905260248201527f4b534d303420496e76616c696420677561726469616e207369676e6174757265604482015260640161043b565b50505050565b6000611a9b85611bff565b905060008111611ae55760405162461bcd60e51b81526020600482015260156024820152744b534d313720656d70747920677561726469616e7360581b604482015260640161043b565b6000611af38686868661179f565b905081811015611b5c5760405162461bcd60e51b815260206004820152602e60248201527f4b534d313820636f6e6669726d6564207369676e617475726573206c6573732060448201526d1d1a185b881d1a1c995cda1bdb1960921b606482015260840161043b565b6109b78686868685611f87565b60405163601373f760e11b81526001600160a01b0382811660048301526000917f00000000000000000000000000000000000000000000000000000000000000009091169063c026e7ee906024015b602060405180830381865afa158015611bd5573d6000803e3d6000fd5b505050506040513d601f19601f82011682018060405250810190611bf99190612d55565b92915050565b60405163c86ec2bf60e01b81526001600160a01b0382811660048301526000917f00000000000000000000000000000000000000000000000000000000000000009091169063c86ec2bf90602401611bb8565b80336001600160a01b03821614611c7b5760405162461bcd60e51b815260040161043b90612d29565b6001600160a01b03821660009081526001602052604090206002015482906001600160401b0316611cea5760405162461bcd60e51b81526020600482015260196024820152784b534d3032206e6f206f6e676f696e67207265636f7665727960381b604482015260640161043b565b611cf383612055565b826001600160a01b03167f81da66c7aac3ee4365918a5d70f73e846a59e8a8af01ef155e865181904905196001611d2986610d7f565b611d339190612d6e565b60405190815260200160405180910390a2505050565b60405163353ba5cd60e21b81526001600160a01b03838116600483015282811660248301526000917f00000000000000000000000000000000000000000000000000000000000000009091169063d4ee973490604401602060405180830381865afa158015611dbc573d6000803e3d6000fd5b505050506040513d601f19601f82011682018060405250810190611de09190612ec8565b9392505050565b60405163f18858ab60e01b81526001600160a01b0382811660048301526060917f00000000000000000000000000000000000000000000000000000000000000009091169063f18858ab90602401600060405180830381865afa158015611e52573d6000803e3d6000fd5b505050506040513d6000823e601f3d908101601f19168201604052611bf99190810190612dc3565b60007f8b73c3c69bb8fe3d512ecc4cf759cc79239f7b179b0ffacaa9a75d522b39400f60001b6040518060400160405280601c81526020017f4b61696a7520536f6369616c205265636f76657279204d6f64756c6500000000815250604051602001611ee69190612f3b565b6040516020818303038152906040528051906020012060405180604001604052806005815260200164302e302e3160d81b815250604051602001611f2a9190612f3b565b60405160208183030381529060405280519060200120611f474690565b604080516020810195909552840192909252606083015260808201523060a082015260c00160405160208183030381529060405280519060200120905090565b6000611f9286610d7f565b9050611f9f8683836120ff565b6000611fcb7f000000000000000000000000000000000000000000000000000000000000000042612f57565b9050611fda8787878787612220565b611fe387612312565b8585604051611ff3929190612d81565b60408051918290038220868352602083018590526001600160401b0384169183019190915260608201859052906001600160a01b038916907f1fa74635dcccfa96011b50295a26dd08b8c3c6ca7d66ede450288192674ebf0190608001611588565b6001600160a01b0381166000908152600160208190526040822082815590810182905560028101805467ffffffffffffffff19169055906120996003830182612533565b505050565b60008060006120ad858561233e565b909250905060008160048111156120c6576120c6612e5c565b1480156120e45750856001600160a01b0316826001600160a01b0316145b806120f557506120f5868686612383565b9695505050505050565b6001600160a01b038316600090815260016020526040902060028101546001600160401b031615611a8a578054831161218d5760405162461bcd60e51b815260206004820152602a60248201527f4b534d3139206e6f7420656e6f75676820617070726f76616c7320666f722072604482015269195c1b1858d95b595b9d60b21b606482015260840161043b565b6001600160a01b0384166000908152600160208190526040822082815590810182905560028101805467ffffffffffffffff19169055906121d16003830182612533565b50506001600160a01b0384167f81da66c7aac3ee4365918a5d70f73e846a59e8a8af01ef155e86518190490519612209600185612d6e565b60405190815260200160405180910390a250505050565b600061224c7f000000000000000000000000000000000000000000000000000000000000000042612f57565b90506040518060800160405280838152602001848152602001826001600160401b0316815260200186868080602002602001604051908101604052809392919081815260200183836020028082843760009201829052509390945250506001600160a01b0389168152600160208181526040928390208551815585820151928101929092559184015160028201805467ffffffffffffffff19166001600160401b03909216919091179055606084015180519193506105d3926003850192910190612554565b6001600160a01b038116600090815260208190526040812080549161233683612d10565b919050555050565b60008082516041036123745760208301516040840151606085015160001a6123688782858561246f565b9450945050505061237c565b506000905060025b9250929050565b6000806000856001600160a01b0316631626ba7e60e01b86866040516024016123ad929190612f6a565b60408051601f198184030181529181526020820180516001600160e01b03166001600160e01b03199094169390931790925290516123eb9190612f3b565b600060405180830381855afa9150503d8060008114612426576040519150601f19603f3d011682016040523d82523d6000602084013e61242b565b606091505b509150915081801561243f57506020815110155b80156120f557508051630b135d3f60e11b906124649083016020908101908401612d55565b149695505050505050565b6000807f7fffffffffffffffffffffffffffffff5d576e7357a4501ddfe92f46681b20a08311156124a6575060009050600361252a565b6040805160008082526020820180845289905260ff881692820192909252606081018690526080810185905260019060a0016020604051602081039080840390855afa1580156124fa573d6000803e3d6000fd5b5050604051601f1901519150506001600160a01b0381166125235760006001925092505061252a565b9150600090505b94509492505050565b508054600082559060005260206000209081019061255191906125b9565b50565b8280548282559060005260206000209081019282156125a9579160200282015b828111156125a957825182546001600160a01b0319166001600160a01b03909116178255602090920191600190910190612574565b506125b59291506125b9565b5090565b5b808211156125b557600081556001016125ba565b6001600160a01b038116811461255157600080fd5b60008083601f8401126125f557600080fd5b5081356001600160401b0381111561260c57600080fd5b6020830191508360208260051b850101111561237c57600080fd5b801515811461255157600080fd5b803561264081612627565b919050565b60008060008060006080868803121561265d57600080fd5b8535612668816125ce565b945060208601356001600160401b0381111561268357600080fd5b61268f888289016125e3565b9095509350506040860135915060608601356126aa81612627565b809150509295509295909350565b634e487b7160e01b600052604160045260246000fd5b604080519081016001600160401b03811182821017156126f0576126f06126b8565b60405290565b604051601f8201601f191681016001600160401b038111828210171561271e5761271e6126b8565b604052919050565b60006001600160401b0382111561273f5761273f6126b8565b5060051b60200190565b600082601f83011261275a57600080fd5b81356001600160401b03811115612773576127736126b8565b612786601f8201601f19166020016126f6565b81815284602083860101111561279b57600080fd5b816020850160208301376000918101602001919091529392505050565b60008060008060008060a087890312156127d157600080fd5b6127db87356125ce565b863595506001600160401b03602088013511156127f757600080fd5b61280788602089013589016125e3565b9095509350604087013592506001600160401b036060880135111561282b57600080fd5b6060870135870188601f82011261284157600080fd5b61285361284e8235612726565b6126f6565b81358082526020808301929160051b8401018b101561287157600080fd5b602083015b6020843560051b850101811015612916576001600160401b038135111561289c57600080fd5b803584016040818e03601f190112156128b457600080fd5b6128bc6126ce565b6128c960208301356125ce565b602082013581526001600160401b03604083013511156128e857600080fd5b6128fb8e60206040850135850101612749565b60208201528085525050602083019250602081019050612876565b50935061292891505060808801612635565b90509295509295509295565b6000806000806080858703121561294a57600080fd5b8435612955816125ce565b93506020850135612965816125ce565b92506040850135612975816125ce565b9396929550929360600135925050565b60008060008060006080868803121561299d57600080fd5b85356129a8816125ce565b945060208601356001600160401b038111156129c357600080fd5b6129cf888289016125e3565b9699909850959660408101359660609091013595509350505050565b60005b83811015612a065781810151838201526020016129ee565b50506000910152565b60008151808452612a278160208601602086016129eb565b601f01601f19169290920160200192915050565b602081526000611de06020830184612a0f565b600060208284031215612a6057600080fd5b8135611de0816125ce565b600080600080600060808688031215612a8357600080fd5b8535612a8e816125ce565b94506020860135612a9e816125ce565b935060408601356001600160401b03811115612ab957600080fd5b612ac5888289016125e3565b96999598509660600135949350505050565b600081518084526020808501945080840160005b83811015612b105781516001600160a01b031687529582019590820190600101612aeb565b509495945050505050565b6020815281516020820152602082015160408201526001600160401b03604083015116606082015260006060830151608080840152612b5d60a0840182612ad7565b949350505050565b60008060408385031215612b7857600080fd5b8235612b83816125ce565b946020939093013593505050565b60008060008060608587031215612ba757600080fd5b8435612bb2816125ce565b935060208501356001600160401b03811115612bcd57600080fd5b612bd9878288016125e3565b9598909750949560400135949350505050565b600080600060608486031215612c0157600080fd5b8335612c0c816125ce565b92506020840135612c1c816125ce565b929592945050506040919091013590565b60008060008060808587031215612c4357600080fd5b8435612c4e816125ce565b9350602085013592506040850135612c65816125ce565b915060608501356001600160401b03811115612c8057600080fd5b612c8c87828801612749565b91505092959194509250565b60008060408385031215612cab57600080fd5b8235612cb6816125ce565b91506020830135612cc6816125ce565b809150509250929050565b602081526000611de06020830184612ad7565b634e487b7160e01b600052603260045260246000fd5b634e487b7160e01b600052601160045260246000fd5b600060018201612d2257612d22612cfa565b5060010190565b60208082526012908201527112d4d34c0c481d5b985d5d1a1bdc9a5e995960721b604082015260600190565b600060208284031215612d6757600080fd5b5051919050565b81810381811115611bf957611bf9612cfa565b60008184825b85811015612db8578135612d9a816125ce565b6001600160a01b031683526020928301929190910190600101612d87565b509095945050505050565b60006020808385031215612dd657600080fd5b82516001600160401b03811115612dec57600080fd5b8301601f81018513612dfd57600080fd5b8051612e0b61284e82612726565b81815260059190911b82018301908381019087831115612e2a57600080fd5b928401925b82841015612e51578351612e42816125ce565b82529284019290840190612e2f565b979650505050505050565b634e487b7160e01b600052602160045260246000fd5b60018060a01b0385168152836020820152608060408201526000612e996080830185612a0f565b905060028310612eb957634e487b7160e01b600052602160045260246000fd5b82606083015295945050505050565b600060208284031215612eda57600080fd5b8151611de081612627565b600081612ef457612ef4612cfa565b506000190190565b815160009082906020808601845b83811015612f2f5781516001600160a01b031685529382019390820190600101612f0a565b50929695505050505050565b60008251612f4d8184602087016129eb565b9190910192915050565b80820180821115611bf957611bf9612cfa565b828152604060208201526000612b5d6040830184612a0f56fea26469706673582212206310de186add2f7a97be39e4972a64544b5f35efdce0a29719fc54e187bfb1c864736f6c63430008120033",
			"opcodes": "PUSH1 0xC0 PUSH1 0x40 MSTORE CALLVALUE DUP1 ISZERO PUSH3 0x11 JUMPI PUSH1 0x0 DUP1 REVERT JUMPDEST POP PUSH1 0x40 MLOAD PUSH3 0x30AC CODESIZE SUB DUP1 PUSH3 0x30AC DUP4 CODECOPY DUP2 ADD PUSH1 0x40 DUP2 SWAP1 MSTORE PUSH3 0x34 SWAP2 PUSH3 0x4B JUMP JUMPDEST PUSH1 0x1 PUSH1 0x1 PUSH1 0xA0 SHL SUB SWAP1 SWAP2 AND PUSH1 0x80 MSTORE PUSH1 0xA0 MSTORE PUSH3 0x87 JUMP JUMPDEST PUSH1 0x0 DUP1 PUSH1 0x40 DUP4 DUP6 SUB SLT ISZERO PUSH3 0x5F JUMPI PUSH1 0x0 DUP1 REVERT JUMPDEST DUP3 MLOAD PUSH1 0x1 PUSH1 0x1 PUSH1 0xA0 SHL SUB DUP2 AND DUP2 EQ PUSH3 0x77 JUMPI PUSH1 0x0 DUP1 REVERT JUMPDEST PUSH1 0x20 SWAP4 SWAP1 SWAP4 ADD MLOAD SWAP3 SWAP5 SWAP3 SWAP4 POP POP POP JUMP JUMPDEST PUSH1 0x80 MLOAD PUSH1 0xA0 MLOAD PUSH2 0x2FB9 PUSH3 0xF3 PUSH1 0x0 CODECOPY PUSH1 0x0 DUP2 DUP2 PUSH2 0x1FA6 ADD MSTORE PUSH2 0x2227 ADD MSTORE PUSH1 0x0 DUP2 DUP2 PUSH2 0xA60 ADD MSTORE DUP2 DUP2 PUSH2 0xB58 ADD MSTORE DUP2 DUP2 PUSH2 0xBD8 ADD MSTORE DUP2 DUP2 PUSH2 0x171D ADD MSTORE DUP2 DUP2 PUSH2 0x18AC ADD MSTORE DUP2 DUP2 PUSH2 0x192C ADD MSTORE DUP2 DUP2 PUSH2 0x1B8B ADD MSTORE DUP2 DUP2 PUSH2 0x1C21 ADD MSTORE DUP2 DUP2 PUSH2 0x1D73 ADD MSTORE PUSH2 0x1E09 ADD MSTORE PUSH2 0x2FB9 PUSH1 0x0 RETURN INVALID PUSH1 0x80 PUSH1 0x40 MSTORE CALLVALUE DUP1 ISZERO PUSH2 0x10 JUMPI PUSH1 0x0 DUP1 REVERT JUMPDEST POP PUSH1 0x4 CALLDATASIZE LT PUSH2 0x173 JUMPI PUSH1 0x0 CALLDATALOAD PUSH1 0xE0 SHR DUP1 PUSH4 0x6C6595CA GT PUSH2 0xDE JUMPI DUP1 PUSH4 0xC7EAE5A2 GT PUSH2 0x97 JUMPI DUP1 PUSH4 0xD4EE9734 GT PUSH2 0x71 JUMPI DUP1 PUSH4 0xD4EE9734 EQ PUSH2 0x38A JUMPI DUP1 PUSH4 0xF18858AB EQ PUSH2 0x39D JUMPI DUP1 PUSH4 0xF698DA25 EQ PUSH2 0x3BD JUMPI DUP1 PUSH4 0xFFA1AD74 EQ PUSH2 0x3C5 JUMPI PUSH1 0x0 DUP1 REVERT JUMPDEST DUP1 PUSH4 0xC7EAE5A2 EQ PUSH2 0x33D JUMPI DUP1 PUSH4 0xC86EC2BF EQ PUSH2 0x364 JUMPI DUP1 PUSH4 0xC90DB447 EQ PUSH2 0x377 JUMPI PUSH1 0x0 DUP1 REVERT JUMPDEST DUP1 PUSH4 0x6C6595CA EQ PUSH2 0x2A2 JUMPI DUP1 PUSH4 0x9B890B70 EQ PUSH2 0x2B5 JUMPI DUP1 PUSH4 0xA3F4DF7E EQ PUSH2 0x2C8 JUMPI DUP1 PUSH4 0xB00C57C5 EQ PUSH2 0x304 JUMPI DUP1 PUSH4 0xB1F85F69 EQ PUSH2 0x317 JUMPI DUP1 PUSH4 0xC026E7EE EQ PUSH2 0x32A JUMPI PUSH1 0x0 DUP1 REVERT JUMPDEST DUP1 PUSH4 0x315A7AF3 GT PUSH2 0x130 JUMPI DUP1 PUSH4 0x315A7AF3 EQ PUSH2 0x220 JUMPI DUP1 PUSH4 0x3408E470 EQ PUSH2 0x233 JUMPI DUP1 PUSH4 0x37D82C36 EQ PUSH2 0x239 JUMPI DUP1 PUSH4 0x4F9A28B9 EQ PUSH2 0x25C JUMPI DUP1 PUSH4 0x57CFEBBC EQ PUSH2 0x27C JUMPI DUP1 PUSH4 0x5F19DF08 EQ PUSH2 0x28F JUMPI PUSH1 0x0 DUP1 REVERT JUMPDEST DUP1 PUSH4 0x64E2D0E EQ PUSH2 0x178 JUMPI DUP1 PUSH4 0x728E1E7 EQ PUSH2 0x18D JUMPI DUP1 PUSH4 0x1A0487A0 EQ PUSH2 0x1A0 JUMPI DUP1 PUSH4 0x1DB61B54 EQ PUSH2 0x1B3 JUMPI DUP1 PUSH4 0x1E01C4F0 EQ PUSH2 0x1ED JUMPI DUP1 PUSH4 0x2D0335AB EQ PUSH2 0x20D JUMPI JUMPDEST PUSH1 0x0 DUP1 REVERT JUMPDEST PUSH2 0x18B PUSH2 0x186 CALLDATASIZE PUSH1 0x4 PUSH2 0x2645 JUMP JUMPDEST PUSH2 0x3E9 JUMP JUMPDEST STOP JUMPDEST PUSH2 0x18B PUSH2 0x19B CALLDATASIZE PUSH1 0x4 PUSH2 0x27B8 JUMP JUMPDEST PUSH2 0x5DF JUMP JUMPDEST PUSH2 0x18B PUSH2 0x1AE CALLDATASIZE PUSH1 0x4 PUSH2 0x2934 JUMP JUMPDEST PUSH2 0x9BF JUMP JUMPDEST PUSH2 0x1DA PUSH32 0x8B73C3C69BB8FE3D512ECC4CF759CC79239F7B179B0FFACAA9A75D522B39400F DUP2 JUMP JUMPDEST PUSH1 0x40 MLOAD SWAP1 DUP2 MSTORE PUSH1 0x20 ADD JUMPDEST PUSH1 0x40 MLOAD DUP1 SWAP2 SUB SWAP1 RETURN JUMPDEST PUSH2 0x200 PUSH2 0x1FB CALLDATASIZE PUSH1 0x4 PUSH2 0x2985 JUMP JUMPDEST PUSH2 0xC8B JUMP JUMPDEST PUSH1 0x40 MLOAD PUSH2 0x1E4 SWAP2 SWAP1 PUSH2 0x2A3B JUMP JUMPDEST PUSH2 0x1DA PUSH2 0x21B CALLDATASIZE PUSH1 0x4 PUSH2 0x2A4E JUMP JUMPDEST PUSH2 0xD7F JUMP JUMPDEST PUSH2 0x18B PUSH2 0x22E CALLDATASIZE PUSH1 0x4 PUSH2 0x2A4E JUMP JUMPDEST PUSH2 0xD9A JUMP JUMPDEST CHAINID PUSH2 0x1DA JUMP JUMPDEST PUSH2 0x24C PUSH2 0x247 CALLDATASIZE PUSH1 0x4 PUSH2 0x2A6B JUMP JUMPDEST PUSH2 0x1599 JUMP JUMPDEST PUSH1 0x40 MLOAD SWAP1 ISZERO ISZERO DUP2 MSTORE PUSH1 0x20 ADD PUSH2 0x1E4 JUMP JUMPDEST PUSH2 0x26F PUSH2 0x26A CALLDATASIZE PUSH1 0x4 PUSH2 0x2A4E JUMP JUMPDEST PUSH2 0x15F1 JUMP JUMPDEST PUSH1 0x40 MLOAD PUSH2 0x1E4 SWAP2 SWAP1 PUSH2 0x2B1B JUMP JUMPDEST PUSH2 0x18B PUSH2 0x28A CALLDATASIZE PUSH1 0x4 PUSH2 0x2B65 JUMP JUMPDEST PUSH2 0x16CE JUMP JUMPDEST PUSH2 0x1DA PUSH2 0x29D CALLDATASIZE PUSH1 0x4 PUSH2 0x2985 JUMP JUMPDEST PUSH2 0x177E JUMP JUMPDEST PUSH2 0x1DA PUSH2 0x2B0 CALLDATASIZE PUSH1 0x4 PUSH2 0x2B91 JUMP JUMPDEST PUSH2 0x179F JUMP JUMPDEST PUSH2 0x18B PUSH2 0x2C3 CALLDATASIZE PUSH1 0x4 PUSH2 0x2BEC JUMP JUMPDEST PUSH2 0x185C JUMP JUMPDEST PUSH2 0x200 PUSH1 0x40 MLOAD DUP1 PUSH1 0x40 ADD PUSH1 0x40 MSTORE DUP1 PUSH1 0x1C DUP2 MSTORE PUSH1 0x20 ADD PUSH32 0x4B61696A7520536F6369616C205265636F76657279204D6F64756C6500000000 DUP2 MSTORE POP DUP2 JUMP JUMPDEST PUSH2 0x18B PUSH2 0x312 CALLDATASIZE PUSH1 0x4 PUSH2 0x2C2D JUMP JUMPDEST PUSH2 0x19DD JUMP JUMPDEST PUSH2 0x18B PUSH2 0x325 CALLDATASIZE PUSH1 0x4 PUSH2 0x2B91 JUMP JUMPDEST PUSH2 0x1A90 JUMP JUMPDEST PUSH2 0x1DA PUSH2 0x338 CALLDATASIZE PUSH1 0x4 PUSH2 0x2A4E JUMP JUMPDEST PUSH2 0x1B69 JUMP JUMPDEST PUSH2 0x1DA PUSH32 0x124B64921A7C7E677C6CC3B132EAAA57130BC6FC05AB157F35FE5264A7C198D5 DUP2 JUMP JUMPDEST PUSH2 0x1DA PUSH2 0x372 CALLDATASIZE PUSH1 0x4 PUSH2 0x2A4E JUMP JUMPDEST PUSH2 0x1BFF JUMP JUMPDEST PUSH2 0x18B PUSH2 0x385 CALLDATASIZE PUSH1 0x4 PUSH2 0x2A4E JUMP JUMPDEST PUSH2 0x1C52 JUMP JUMPDEST PUSH2 0x24C PUSH2 0x398 CALLDATASIZE PUSH1 0x4 PUSH2 0x2C98 JUMP JUMPDEST PUSH2 0x1D49 JUMP JUMPDEST PUSH2 0x3B0 PUSH2 0x3AB CALLDATASIZE PUSH1 0x4 PUSH2 0x2A4E JUMP JUMPDEST PUSH2 0x1DE7 JUMP JUMPDEST PUSH1 0x40 MLOAD PUSH2 0x1E4 SWAP2 SWAP1 PUSH2 0x2CD1 JUMP JUMPDEST PUSH2 0x1DA PUSH2 0x1E7A JUMP JUMPDEST PUSH2 0x200 PUSH1 0x40 MLOAD DUP1 PUSH1 0x40 ADD PUSH1 0x40 MSTORE DUP1 PUSH1 0x5 DUP2 MSTORE PUSH1 0x20 ADD PUSH5 0x302E302E31 PUSH1 0xD8 SHL DUP2 MSTORE POP DUP2 JUMP JUMPDEST PUSH2 0x3F3 DUP6 CALLER PUSH2 0x1D49 JUMP JUMPDEST PUSH2 0x444 JUMPI PUSH1 0x40 MLOAD PUSH3 0x461BCD PUSH1 0xE5 SHL DUP2 MSTORE PUSH1 0x20 PUSH1 0x4 DUP3 ADD MSTORE PUSH1 0x1B PUSH1 0x24 DUP3 ADD MSTORE PUSH32 0x4B534D30352073656E646572206E6F74206120677561726469616E0000000000 PUSH1 0x44 DUP3 ADD MSTORE PUSH1 0x64 ADD JUMPDEST PUSH1 0x40 MLOAD DUP1 SWAP2 SUB SWAP1 REVERT JUMPDEST DUP3 PUSH2 0x491 JUMPI PUSH1 0x40 MLOAD PUSH3 0x461BCD PUSH1 0xE5 SHL DUP2 MSTORE PUSH1 0x20 PUSH1 0x4 DUP3 ADD MSTORE PUSH1 0x1C PUSH1 0x24 DUP3 ADD MSTORE PUSH32 0x4B534D3036206F776E6572732063616E6E6F7420626520656D70747900000000 PUSH1 0x44 DUP3 ADD MSTORE PUSH1 0x64 ADD PUSH2 0x43B JUMP JUMPDEST PUSH1 0x0 DUP3 GT DUP1 ISZERO PUSH2 0x4A1 JUMPI POP DUP2 DUP4 LT ISZERO JUMPDEST PUSH2 0x4ED JUMPI PUSH1 0x40 MLOAD PUSH3 0x461BCD PUSH1 0xE5 SHL DUP2 MSTORE PUSH1 0x20 PUSH1 0x4 DUP3 ADD MSTORE PUSH1 0x1B PUSH1 0x24 DUP3 ADD MSTORE PUSH32 0x4B534D303720696E76616C6964206E6577207468726573686F6C640000000000 PUSH1 0x44 DUP3 ADD MSTORE PUSH1 0x64 ADD PUSH2 0x43B JUMP JUMPDEST PUSH1 0x0 PUSH2 0x4F8 DUP7 PUSH2 0xD7F JUMP JUMPDEST SWAP1 POP PUSH1 0x0 PUSH2 0x509 DUP8 DUP8 DUP8 DUP8 DUP7 PUSH2 0xC8B JUMP JUMPDEST DUP1 MLOAD PUSH1 0x20 SWAP2 DUP3 ADD KECCAK256 PUSH1 0x0 DUP2 DUP2 MSTORE PUSH1 0x2 DUP4 MSTORE PUSH1 0x40 DUP1 DUP3 KECCAK256 CALLER DUP4 MSTORE SWAP1 SWAP4 MSTORE SWAP2 SWAP1 SWAP2 KECCAK256 DUP1 SLOAD PUSH1 0xFF NOT AND PUSH1 0x1 OR SWAP1 SSTORE SWAP1 POP DUP3 PUSH2 0x542 JUMPI POP POP PUSH2 0x5D8 JUMP JUMPDEST PUSH1 0x0 PUSH2 0x54D DUP9 PUSH2 0x1BFF JUMP JUMPDEST SWAP1 POP PUSH1 0x0 PUSH2 0x55D DUP10 DUP10 DUP10 DUP10 PUSH2 0x179F JUMP JUMPDEST SWAP1 POP DUP2 DUP2 LT ISZERO PUSH2 0x5C6 JUMPI PUSH1 0x40 MLOAD PUSH3 0x461BCD PUSH1 0xE5 SHL DUP2 MSTORE PUSH1 0x20 PUSH1 0x4 DUP3 ADD MSTORE PUSH1 0x2E PUSH1 0x24 DUP3 ADD MSTORE PUSH32 0x4B534D303820636F6E6669726D6564207369676E617475726573206C65737320 PUSH1 0x44 DUP3 ADD MSTORE PUSH14 0x1D1A185B881D1A1C995CDA1BDB19 PUSH1 0x92 SHL PUSH1 0x64 DUP3 ADD MSTORE PUSH1 0x84 ADD PUSH2 0x43B JUMP JUMPDEST PUSH2 0x5D3 DUP10 DUP10 DUP10 DUP10 DUP6 PUSH2 0x1F87 JUMP JUMPDEST POP POP POP POP JUMPDEST POP POP POP POP POP JUMP JUMPDEST DUP4 PUSH2 0x62C JUMPI PUSH1 0x40 MLOAD PUSH3 0x461BCD PUSH1 0xE5 SHL DUP2 MSTORE PUSH1 0x20 PUSH1 0x4 DUP3 ADD MSTORE PUSH1 0x1C PUSH1 0x24 DUP3 ADD MSTORE PUSH32 0x4B534D3039206F776E6572732063616E6E6F7420626520656D70747900000000 PUSH1 0x44 DUP3 ADD MSTORE PUSH1 0x64 ADD PUSH2 0x43B JUMP JUMPDEST PUSH1 0x0 DUP4 GT DUP1 ISZERO PUSH2 0x63C JUMPI POP DUP3 DUP5 LT ISZERO JUMPDEST PUSH2 0x688 JUMPI PUSH1 0x40 MLOAD PUSH3 0x461BCD PUSH1 0xE5 SHL DUP2 MSTORE PUSH1 0x20 PUSH1 0x4 DUP3 ADD MSTORE PUSH1 0x1B PUSH1 0x24 DUP3 ADD MSTORE PUSH32 0x4B534D313020696E76616C6964206E6577207468726573686F6C640000000000 PUSH1 0x44 DUP3 ADD MSTORE PUSH1 0x64 ADD PUSH2 0x43B JUMP JUMPDEST PUSH1 0x0 DUP3 MLOAD GT PUSH2 0x6D2 JUMPI PUSH1 0x40 MLOAD PUSH3 0x461BCD PUSH1 0xE5 SHL DUP2 MSTORE PUSH1 0x20 PUSH1 0x4 DUP3 ADD MSTORE PUSH1 0x16 PUSH1 0x24 DUP3 ADD MSTORE PUSH22 0x4B534D313120656D707479207369676E617475726573 PUSH1 0x50 SHL PUSH1 0x44 DUP3 ADD MSTORE PUSH1 0x64 ADD PUSH2 0x43B JUMP JUMPDEST PUSH1 0x0 PUSH2 0x6DD DUP8 PUSH2 0x1BFF JUMP JUMPDEST SWAP1 POP PUSH1 0x0 DUP2 GT PUSH2 0x727 JUMPI PUSH1 0x40 MLOAD PUSH3 0x461BCD PUSH1 0xE5 SHL DUP2 MSTORE PUSH1 0x20 PUSH1 0x4 DUP3 ADD MSTORE PUSH1 0x15 PUSH1 0x24 DUP3 ADD MSTORE PUSH21 0x4B534D313220656D70747920677561726469616E73 PUSH1 0x58 SHL PUSH1 0x44 DUP3 ADD MSTORE PUSH1 0x64 ADD PUSH2 0x43B JUMP JUMPDEST PUSH1 0x0 PUSH2 0x732 DUP9 PUSH2 0xD7F JUMP JUMPDEST SWAP1 POP PUSH1 0x0 PUSH2 0x743 DUP10 DUP10 DUP10 DUP10 DUP7 PUSH2 0xC8B JUMP JUMPDEST DUP1 MLOAD SWAP1 PUSH1 0x20 ADD KECCAK256 SWAP1 POP PUSH1 0x0 DUP1 JUMPDEST DUP7 MLOAD DUP2 LT ISZERO PUSH2 0x91E JUMPI PUSH1 0x0 DUP8 DUP3 DUP2 MLOAD DUP2 LT PUSH2 0x76D JUMPI PUSH2 0x76D PUSH2 0x2CE4 JUMP JUMPDEST PUSH1 0x20 MUL PUSH1 0x20 ADD ADD MLOAD SWAP1 POP DUP1 PUSH1 0x20 ADD MLOAD MLOAD PUSH1 0x0 SUB PUSH2 0x85E JUMPI PUSH2 0x78E DUP13 CALLER PUSH2 0x1D49 JUMP JUMPDEST PUSH2 0x7DA JUMPI PUSH1 0x40 MLOAD PUSH3 0x461BCD PUSH1 0xE5 SHL DUP2 MSTORE PUSH1 0x20 PUSH1 0x4 DUP3 ADD MSTORE PUSH1 0x1B PUSH1 0x24 DUP3 ADD MSTORE PUSH32 0x4B534D31332073656E646572206E6F74206120677561726469616E0000000000 PUSH1 0x44 DUP3 ADD MSTORE PUSH1 0x64 ADD PUSH2 0x43B JUMP JUMPDEST DUP1 MLOAD PUSH1 0x1 PUSH1 0x1 PUSH1 0xA0 SHL SUB AND CALLER EQ PUSH2 0x859 JUMPI PUSH1 0x40 MLOAD PUSH3 0x461BCD PUSH1 0xE5 SHL DUP2 MSTORE PUSH1 0x20 PUSH1 0x4 DUP3 ADD MSTORE PUSH1 0x39 PUSH1 0x24 DUP3 ADD MSTORE PUSH32 0x4B534D3134206E756C6C207369676E61747572652073686F756C642068617665 PUSH1 0x44 DUP3 ADD MSTORE PUSH32 0x20746865207369676E6572206173207468652073656E64657200000000000000 PUSH1 0x64 DUP3 ADD MSTORE PUSH1 0x84 ADD PUSH2 0x43B JUMP JUMPDEST PUSH2 0x872 JUMP JUMPDEST PUSH2 0x872 DUP13 DUP6 DUP4 PUSH1 0x0 ADD MLOAD DUP5 PUSH1 0x20 ADD MLOAD PUSH2 0x19DD JUMP JUMPDEST DUP1 MLOAD PUSH1 0x1 PUSH1 0x1 PUSH1 0xA0 SHL SUB DUP1 DUP6 AND SWAP2 AND GT PUSH2 0x8DF JUMPI PUSH1 0x40 MLOAD PUSH3 0x461BCD PUSH1 0xE5 SHL DUP2 MSTORE PUSH1 0x20 PUSH1 0x4 DUP3 ADD MSTORE PUSH1 0x28 PUSH1 0x24 DUP3 ADD MSTORE PUSH32 0x4B534D3135206475706C6963617465207369676E6572732F696E76616C696420 PUSH1 0x44 DUP3 ADD MSTORE PUSH8 0x6F72646572696E67 PUSH1 0xC0 SHL PUSH1 0x64 DUP3 ADD MSTORE PUSH1 0x84 ADD PUSH2 0x43B JUMP JUMPDEST PUSH2 0x909 DUP5 PUSH1 0x0 SWAP1 DUP2 MSTORE PUSH1 0x2 PUSH1 0x20 SWAP1 DUP2 MSTORE PUSH1 0x40 DUP1 DUP4 KECCAK256 CALLER DUP5 MSTORE SWAP1 SWAP2 MSTORE SWAP1 KECCAK256 DUP1 SLOAD PUSH1 0xFF NOT AND PUSH1 0x1 OR SWAP1 SSTORE JUMP JUMPDEST MLOAD SWAP2 POP DUP1 PUSH2 0x916 DUP2 PUSH2 0x2D10 JUMP JUMPDEST SWAP2 POP POP PUSH2 0x750 JUMP JUMPDEST POP DUP5 PUSH2 0x92D JUMPI POP POP POP POP PUSH2 0x9B7 JUMP JUMPDEST PUSH1 0x0 PUSH2 0x93B DUP12 DUP12 DUP12 DUP12 PUSH2 0x179F JUMP JUMPDEST SWAP1 POP DUP5 DUP2 LT ISZERO PUSH2 0x9A4 JUMPI PUSH1 0x40 MLOAD PUSH3 0x461BCD PUSH1 0xE5 SHL DUP2 MSTORE PUSH1 0x20 PUSH1 0x4 DUP3 ADD MSTORE PUSH1 0x2E PUSH1 0x24 DUP3 ADD MSTORE PUSH32 0x4B534D313620636F6E6669726D6564207369676E617475726573206C65737320 PUSH1 0x44 DUP3 ADD MSTORE PUSH14 0x1D1A185B881D1A1C995CDA1BDB19 PUSH1 0x92 SHL PUSH1 0x64 DUP3 ADD MSTORE PUSH1 0x84 ADD PUSH2 0x43B JUMP JUMPDEST PUSH2 0x9B1 DUP12 DUP12 DUP12 DUP12 DUP6 PUSH2 0x1F87 JUMP JUMPDEST POP POP POP POP POP JUMPDEST POP POP POP POP POP POP JUMP JUMPDEST DUP4 CALLER PUSH1 0x1 PUSH1 0x1 PUSH1 0xA0 SHL SUB DUP3 AND EQ PUSH2 0x9E8 JUMPI PUSH1 0x40 MLOAD PUSH3 0x461BCD PUSH1 0xE5 SHL DUP2 MSTORE PUSH1 0x4 ADD PUSH2 0x43B SWAP1 PUSH2 0x2D29 JUMP JUMPDEST PUSH2 0x9F2 DUP6 DUP5 PUSH2 0x1D49 JUMP JUMPDEST PUSH2 0xA3E JUMPI PUSH1 0x40 MLOAD PUSH3 0x461BCD PUSH1 0xE5 SHL DUP2 MSTORE PUSH1 0x20 PUSH1 0x4 DUP3 ADD MSTORE PUSH1 0x1F PUSH1 0x24 DUP3 ADD MSTORE PUSH32 0x4B534D3236206D757374206265206578697374696E6720677561726469616E00 PUSH1 0x44 DUP3 ADD MSTORE PUSH1 0x64 ADD PUSH2 0x43B JUMP JUMPDEST PUSH1 0x40 MLOAD PUSH4 0x601373F7 PUSH1 0xE1 SHL DUP2 MSTORE PUSH1 0x1 PUSH1 0x1 PUSH1 0xA0 SHL SUB DUP7 DUP2 AND PUSH1 0x4 DUP4 ADD MSTORE PUSH1 0x0 SWAP2 PUSH32 0x0 SWAP1 SWAP2 AND SWAP1 PUSH4 0xC026E7EE SWAP1 PUSH1 0x24 ADD PUSH1 0x20 PUSH1 0x40 MLOAD DUP1 DUP4 SUB DUP2 DUP7 GAS STATICCALL ISZERO DUP1 ISZERO PUSH2 0xAA9 JUMPI RETURNDATASIZE PUSH1 0x0 DUP1 RETURNDATACOPY RETURNDATASIZE PUSH1 0x0 REVERT JUMPDEST POP POP POP POP PUSH1 0x40 MLOAD RETURNDATASIZE PUSH1 0x1F NOT PUSH1 0x1F DUP3 ADD AND DUP3 ADD DUP1 PUSH1 0x40 MSTORE POP DUP2 ADD SWAP1 PUSH2 0xACD SWAP2 SWAP1 PUSH2 0x2D55 JUMP JUMPDEST SWAP1 POP DUP3 PUSH2 0xADB PUSH1 0x1 DUP4 PUSH2 0x2D6E JUMP JUMPDEST LT ISZERO PUSH2 0xB29 JUMPI PUSH1 0x40 MLOAD PUSH3 0x461BCD PUSH1 0xE5 SHL DUP2 MSTORE PUSH1 0x20 PUSH1 0x4 DUP3 ADD MSTORE PUSH1 0x17 PUSH1 0x24 DUP3 ADD MSTORE PUSH32 0x4B534D323720696E76616C6964207468726573686F6C64000000000000000000 PUSH1 0x44 DUP3 ADD MSTORE PUSH1 0x64 ADD PUSH2 0x43B JUMP JUMPDEST PUSH1 0x40 MLOAD PUSH4 0x37993B99 PUSH1 0xE2 SHL DUP2 MSTORE PUSH1 0x1 PUSH1 0x1 PUSH1 0xA0 SHL SUB DUP8 DUP2 AND PUSH1 0x4 DUP4 ADD MSTORE DUP7 DUP2 AND PUSH1 0x24 DUP4 ADD MSTORE DUP6 DUP2 AND PUSH1 0x44 DUP4 ADD MSTORE PUSH32 0x0 AND SWAP1 PUSH4 0xDE64EE64 SWAP1 PUSH1 0x64 ADD PUSH1 0x0 PUSH1 0x40 MLOAD DUP1 DUP4 SUB DUP2 PUSH1 0x0 DUP8 DUP1 EXTCODESIZE ISZERO DUP1 ISZERO PUSH2 0xB9C JUMPI PUSH1 0x0 DUP1 REVERT JUMPDEST POP GAS CALL ISZERO DUP1 ISZERO PUSH2 0xBB0 JUMPI RETURNDATASIZE PUSH1 0x0 DUP1 RETURNDATACOPY RETURNDATASIZE PUSH1 0x0 REVERT JUMPDEST POP POP PUSH1 0x40 MLOAD PUSH4 0x15F3FAEF PUSH1 0xE2 SHL DUP2 MSTORE PUSH1 0x1 PUSH1 0x1 PUSH1 0xA0 SHL SUB DUP10 DUP2 AND PUSH1 0x4 DUP4 ADD MSTORE PUSH1 0x24 DUP3 ADD DUP8 SWAP1 MSTORE PUSH32 0x0 AND SWAP3 POP PUSH4 0x57CFEBBC SWAP2 POP PUSH1 0x44 ADD PUSH1 0x0 PUSH1 0x40 MLOAD DUP1 DUP4 SUB DUP2 PUSH1 0x0 DUP8 DUP1 EXTCODESIZE ISZERO DUP1 ISZERO PUSH2 0xC1E JUMPI PUSH1 0x0 DUP1 REVERT JUMPDEST POP GAS CALL ISZERO DUP1 ISZERO PUSH2 0xC32 JUMPI RETURNDATASIZE PUSH1 0x0 DUP1 RETURNDATACOPY RETURNDATASIZE PUSH1 0x0 REVERT JUMPDEST POP POP POP POP DUP4 PUSH1 0x1 PUSH1 0x1 PUSH1 0xA0 SHL SUB AND DUP7 PUSH1 0x1 PUSH1 0x1 PUSH1 0xA0 SHL SUB AND PUSH32 0x27467B5307D3E9459421094EFD94D076B4C6F8D00B78D5A12A3CECEF307F0C4F DUP6 PUSH1 0x40 MLOAD PUSH2 0xC7B SWAP2 DUP2 MSTORE PUSH1 0x20 ADD SWAP1 JUMP JUMPDEST PUSH1 0x40 MLOAD DUP1 SWAP2 SUB SWAP1 LOG3 POP POP POP POP POP POP JUMP JUMPDEST PUSH1 0x60 PUSH1 0x0 PUSH32 0x124B64921A7C7E677C6CC3B132EAAA57130BC6FC05AB157F35FE5264A7C198D5 PUSH1 0x0 SHL DUP8 DUP8 DUP8 PUSH1 0x40 MLOAD PUSH1 0x20 ADD PUSH2 0xCC7 SWAP3 SWAP2 SWAP1 PUSH2 0x2D81 JUMP JUMPDEST PUSH1 0x40 DUP1 MLOAD DUP1 DUP4 SUB PUSH1 0x1F NOT ADD DUP2 MSTORE DUP3 DUP3 MSTORE DUP1 MLOAD PUSH1 0x20 SWAP2 DUP3 ADD KECCAK256 DUP2 DUP5 ADD SWAP6 SWAP1 SWAP6 MSTORE PUSH1 0x1 PUSH1 0x1 PUSH1 0xA0 SHL SUB SWAP4 SWAP1 SWAP4 AND DUP3 DUP3 ADD MSTORE PUSH1 0x60 DUP3 ADD SWAP4 SWAP1 SWAP4 MSTORE PUSH1 0x80 DUP2 ADD DUP8 SWAP1 MSTORE PUSH1 0xA0 DUP1 DUP3 ADD DUP8 SWAP1 MSTORE DUP4 MLOAD DUP1 DUP4 SUB SWAP1 SWAP2 ADD DUP2 MSTORE PUSH1 0xC0 SWAP1 SWAP2 ADD SWAP1 SWAP3 MSTORE DUP2 MLOAD SWAP2 ADD KECCAK256 SWAP1 POP PUSH1 0x19 PUSH1 0xF8 SHL PUSH1 0x1 PUSH1 0xF8 SHL PUSH2 0xD38 PUSH2 0x1E7A JUMP JUMPDEST PUSH1 0x40 MLOAD PUSH1 0x1 PUSH1 0x1 PUSH1 0xF8 SHL SUB NOT SWAP4 DUP5 AND PUSH1 0x20 DUP3 ADD MSTORE SWAP3 SWAP1 SWAP2 AND PUSH1 0x21 DUP4 ADD MSTORE PUSH1 0x22 DUP3 ADD MSTORE PUSH1 0x42 DUP2 ADD DUP3 SWAP1 MSTORE PUSH1 0x62 ADD PUSH1 0x40 MLOAD PUSH1 0x20 DUP2 DUP4 SUB SUB DUP2 MSTORE SWAP1 PUSH1 0x40 MSTORE SWAP2 POP POP SWAP6 SWAP5 POP POP POP POP POP JUMP JUMPDEST PUSH1 0x1 PUSH1 0x1 PUSH1 0xA0 SHL SUB AND PUSH1 0x0 SWAP1 DUP2 MSTORE PUSH1 0x20 DUP2 SWAP1 MSTORE PUSH1 0x40 SWAP1 KECCAK256 SLOAD SWAP1 JUMP JUMPDEST PUSH1 0x1 PUSH1 0x1 PUSH1 0xA0 SHL SUB DUP2 AND PUSH1 0x0 SWAP1 DUP2 MSTORE PUSH1 0x1 PUSH1 0x20 MSTORE PUSH1 0x40 SWAP1 KECCAK256 PUSH1 0x2 ADD SLOAD DUP2 SWAP1 PUSH1 0x1 PUSH1 0x1 PUSH1 0x40 SHL SUB AND PUSH2 0xE09 JUMPI PUSH1 0x40 MLOAD PUSH3 0x461BCD PUSH1 0xE5 SHL DUP2 MSTORE PUSH1 0x20 PUSH1 0x4 DUP3 ADD MSTORE PUSH1 0x19 PUSH1 0x24 DUP3 ADD MSTORE PUSH25 0x4B534D3032206E6F206F6E676F696E67207265636F76657279 PUSH1 0x38 SHL PUSH1 0x44 DUP3 ADD MSTORE PUSH1 0x64 ADD PUSH2 0x43B JUMP JUMPDEST PUSH1 0x0 PUSH2 0xE14 DUP4 PUSH2 0x15F1 JUMP JUMPDEST SWAP1 POP DUP1 PUSH1 0x40 ADD MLOAD PUSH1 0x1 PUSH1 0x1 PUSH1 0x40 SHL SUB AND TIMESTAMP PUSH1 0x1 PUSH1 0x1 PUSH1 0x40 SHL SUB AND LT ISZERO PUSH2 0xE88 JUMPI PUSH1 0x40 MLOAD PUSH3 0x461BCD PUSH1 0xE5 SHL DUP2 MSTORE PUSH1 0x20 PUSH1 0x4 DUP3 ADD MSTORE PUSH1 0x23 PUSH1 0x24 DUP3 ADD MSTORE PUSH32 0x4B534D3230207265636F7665727920706572696F64207374696C6C2070656E64 PUSH1 0x44 DUP3 ADD MSTORE PUSH3 0x696E67 PUSH1 0xE8 SHL PUSH1 0x64 DUP3 ADD MSTORE PUSH1 0x84 ADD PUSH2 0x43B JUMP JUMPDEST PUSH1 0x60 DUP2 ADD MLOAD PUSH1 0x20 DUP3 ADD MLOAD PUSH2 0xE9B DUP6 PUSH2 0x2055 JUMP JUMPDEST PUSH1 0x0 DUP6 SWAP1 POP PUSH1 0x0 DUP2 PUSH1 0x1 PUSH1 0x1 PUSH1 0xA0 SHL SUB AND PUSH4 0xA0E67E2B PUSH1 0x40 MLOAD DUP2 PUSH4 0xFFFFFFFF AND PUSH1 0xE0 SHL DUP2 MSTORE PUSH1 0x4 ADD PUSH1 0x0 PUSH1 0x40 MLOAD DUP1 DUP4 SUB DUP2 DUP7 GAS STATICCALL ISZERO DUP1 ISZERO PUSH2 0xEE0 JUMPI RETURNDATASIZE PUSH1 0x0 DUP1 RETURNDATACOPY RETURNDATASIZE PUSH1 0x0 REVERT JUMPDEST POP POP POP POP PUSH1 0x40 MLOAD RETURNDATASIZE PUSH1 0x0 DUP3 RETURNDATACOPY PUSH1 0x1F RETURNDATASIZE SWAP1 DUP2 ADD PUSH1 0x1F NOT AND DUP3 ADD PUSH1 0x40 MSTORE PUSH2 0xF08 SWAP2 SWAP1 DUP2 ADD SWAP1 PUSH2 0x2DC3 JUMP JUMPDEST SWAP1 POP PUSH1 0x0 PUSH1 0x1 DUP3 MLOAD PUSH2 0xF1A SWAP2 SWAP1 PUSH2 0x2D6E JUMP JUMPDEST SWAP1 POP JUMPDEST DUP1 ISZERO PUSH2 0x108C JUMPI PUSH1 0x0 PUSH1 0x1 PUSH1 0x1 PUSH1 0xA0 SHL SUB DUP5 AND PUSH4 0x468721A7 DUP11 DUP4 DUP7 PUSH2 0xF42 PUSH1 0x1 DUP9 PUSH2 0x2D6E JUMP JUMPDEST DUP2 MLOAD DUP2 LT PUSH2 0xF52 JUMPI PUSH2 0xF52 PUSH2 0x2CE4 JUMP JUMPDEST PUSH1 0x20 MUL PUSH1 0x20 ADD ADD MLOAD DUP8 DUP8 DUP2 MLOAD DUP2 LT PUSH2 0xF6C JUMPI PUSH2 0xF6C PUSH2 0x2CE4 JUMP JUMPDEST PUSH1 0x20 SWAP1 DUP2 MUL SWAP2 SWAP1 SWAP2 ADD ADD MLOAD PUSH1 0x40 MLOAD PUSH1 0x1 PUSH1 0x1 PUSH1 0xA0 SHL SUB SWAP3 DUP4 AND PUSH1 0x24 DUP3 ADD MSTORE SWAP2 AND PUSH1 0x44 DUP3 ADD MSTORE PUSH1 0x1 PUSH1 0x64 DUP3 ADD MSTORE PUSH1 0x84 ADD PUSH1 0x40 DUP1 MLOAD PUSH1 0x1F NOT DUP2 DUP5 SUB ADD DUP2 MSTORE SWAP2 DUP2 MSTORE PUSH1 0x20 DUP3 ADD DUP1 MLOAD PUSH1 0x1 PUSH1 0x1 PUSH1 0xE0 SHL SUB AND PUSH4 0xF8DC5DD9 PUSH1 0xE0 SHL OR SWAP1 MSTORE MLOAD PUSH1 0x1 PUSH1 0x1 PUSH1 0xE0 SHL SUB NOT PUSH1 0xE0 DUP7 SWAP1 SHL AND DUP2 MSTORE PUSH2 0xFE9 SWAP4 SWAP3 SWAP2 SWAP1 PUSH1 0x0 SWAP1 PUSH1 0x4 ADD PUSH2 0x2E72 JUMP JUMPDEST PUSH1 0x20 PUSH1 0x40 MLOAD DUP1 DUP4 SUB DUP2 PUSH1 0x0 DUP8 GAS CALL ISZERO DUP1 ISZERO PUSH2 0x1008 JUMPI RETURNDATASIZE PUSH1 0x0 DUP1 RETURNDATACOPY RETURNDATASIZE PUSH1 0x0 REVERT JUMPDEST POP POP POP POP PUSH1 0x40 MLOAD RETURNDATASIZE PUSH1 0x1F NOT PUSH1 0x1F DUP3 ADD AND DUP3 ADD DUP1 PUSH1 0x40 MSTORE POP DUP2 ADD SWAP1 PUSH2 0x102C SWAP2 SWAP1 PUSH2 0x2EC8 JUMP JUMPDEST SWAP1 POP DUP1 PUSH2 0x107B JUMPI PUSH1 0x40 MLOAD PUSH3 0x461BCD PUSH1 0xE5 SHL DUP2 MSTORE PUSH1 0x20 PUSH1 0x4 DUP3 ADD MSTORE PUSH1 0x1A PUSH1 0x24 DUP3 ADD MSTORE PUSH32 0x4B534D3231206F776E65722072656D6F76616C206661696C6564000000000000 PUSH1 0x44 DUP3 ADD MSTORE PUSH1 0x64 ADD PUSH2 0x43B JUMP JUMPDEST POP PUSH2 0x1085 DUP2 PUSH2 0x2EE5 JUMP JUMPDEST SWAP1 POP PUSH2 0xF1D JUMP JUMPDEST POP PUSH1 0x0 JUMPDEST DUP5 MLOAD DUP2 LT ISZERO PUSH2 0x140D JUMPI PUSH2 0x10BC DUP9 DUP7 DUP4 DUP2 MLOAD DUP2 LT PUSH2 0x10AF JUMPI PUSH2 0x10AF PUSH2 0x2CE4 JUMP JUMPDEST PUSH1 0x20 MUL PUSH1 0x20 ADD ADD MLOAD PUSH2 0x1D49 JUMP JUMPDEST ISZERO PUSH2 0x1114 JUMPI PUSH1 0x40 MLOAD PUSH3 0x461BCD PUSH1 0xE5 SHL DUP2 MSTORE PUSH1 0x20 PUSH1 0x4 DUP3 ADD MSTORE PUSH1 0x22 PUSH1 0x24 DUP3 ADD MSTORE PUSH32 0x4B534D3232206E6577206F776E65722063616E6E6F7420626520677561726469 PUSH1 0x44 DUP3 ADD MSTORE PUSH2 0x30B7 PUSH1 0xF1 SHL PUSH1 0x64 DUP3 ADD MSTORE PUSH1 0x84 ADD PUSH2 0x43B JUMP JUMPDEST PUSH1 0x0 DUP2 PUSH1 0x0 SUB PUSH2 0x12CD JUMPI DUP3 DUP3 DUP2 MLOAD DUP2 LT PUSH2 0x1130 JUMPI PUSH2 0x1130 PUSH2 0x2CE4 JUMP JUMPDEST PUSH1 0x20 MUL PUSH1 0x20 ADD ADD MLOAD PUSH1 0x1 PUSH1 0x1 PUSH1 0xA0 SHL SUB AND DUP7 DUP4 DUP2 MLOAD DUP2 LT PUSH2 0x1153 JUMPI PUSH2 0x1153 PUSH2 0x2CE4 JUMP JUMPDEST PUSH1 0x20 MUL PUSH1 0x20 ADD ADD MLOAD PUSH1 0x1 PUSH1 0x1 PUSH1 0xA0 SHL SUB AND SUB PUSH2 0x116F JUMPI POP PUSH2 0x13FB JUMP JUMPDEST DUP4 PUSH1 0x1 PUSH1 0x1 PUSH1 0xA0 SHL SUB AND PUSH4 0x468721A7 DUP11 PUSH1 0x0 PUSH1 0x1 DUP8 DUP8 DUP2 MLOAD DUP2 LT PUSH2 0x1195 JUMPI PUSH2 0x1195 PUSH2 0x2CE4 JUMP JUMPDEST PUSH1 0x20 MUL PUSH1 0x20 ADD ADD MLOAD DUP12 DUP9 DUP2 MLOAD DUP2 LT PUSH2 0x11AF JUMPI PUSH2 0x11AF PUSH2 0x2CE4 JUMP JUMPDEST PUSH1 0x20 MUL PUSH1 0x20 ADD ADD MLOAD PUSH1 0x40 MLOAD PUSH1 0x24 ADD PUSH2 0x11E7 SWAP4 SWAP3 SWAP2 SWAP1 PUSH1 0x1 PUSH1 0x1 PUSH1 0xA0 SHL SUB SWAP4 DUP5 AND DUP2 MSTORE SWAP2 DUP4 AND PUSH1 0x20 DUP4 ADD MSTORE SWAP1 SWAP2 AND PUSH1 0x40 DUP3 ADD MSTORE PUSH1 0x60 ADD SWAP1 JUMP JUMPDEST PUSH1 0x40 DUP1 MLOAD PUSH1 0x1F NOT DUP2 DUP5 SUB ADD DUP2 MSTORE SWAP2 DUP2 MSTORE PUSH1 0x20 DUP3 ADD DUP1 MLOAD PUSH1 0x1 PUSH1 0x1 PUSH1 0xE0 SHL SUB AND PUSH4 0xE318B52B PUSH1 0xE0 SHL OR SWAP1 MSTORE MLOAD PUSH1 0x1 PUSH1 0x1 PUSH1 0xE0 SHL SUB NOT PUSH1 0xE0 DUP7 SWAP1 SHL AND DUP2 MSTORE PUSH2 0x1235 SWAP4 SWAP3 SWAP2 SWAP1 PUSH1 0x0 SWAP1 PUSH1 0x4 ADD PUSH2 0x2E72 JUMP JUMPDEST PUSH1 0x20 PUSH1 0x40 MLOAD DUP1 DUP4 SUB DUP2 PUSH1 0x0 DUP8 GAS CALL ISZERO DUP1 ISZERO PUSH2 0x1254 JUMPI RETURNDATASIZE PUSH1 0x0 DUP1 RETURNDATACOPY RETURNDATASIZE PUSH1 0x0 REVERT JUMPDEST POP POP POP POP PUSH1 0x40 MLOAD RETURNDATASIZE PUSH1 0x1F NOT PUSH1 0x1F DUP3 ADD AND DUP3 ADD DUP1 PUSH1 0x40 MSTORE POP DUP2 ADD SWAP1 PUSH2 0x1278 SWAP2 SWAP1 PUSH2 0x2EC8 JUMP JUMPDEST SWAP1 POP DUP1 PUSH2 0x12C7 JUMPI PUSH1 0x40 MLOAD PUSH3 0x461BCD PUSH1 0xE5 SHL DUP2 MSTORE PUSH1 0x20 PUSH1 0x4 DUP3 ADD MSTORE PUSH1 0x1E PUSH1 0x24 DUP3 ADD MSTORE PUSH32 0x4B534D3233206F776E6572207265706C6163656D656E74206661696C65640000 PUSH1 0x44 DUP3 ADD MSTORE PUSH1 0x64 ADD PUSH2 0x43B JUMP JUMPDEST POP PUSH2 0x13FB JUMP JUMPDEST DUP4 PUSH1 0x1 PUSH1 0x1 PUSH1 0xA0 SHL SUB AND PUSH4 0x468721A7 DUP11 PUSH1 0x0 DUP10 DUP7 DUP2 MLOAD DUP2 LT PUSH2 0x12F1 JUMPI PUSH2 0x12F1 PUSH2 0x2CE4 JUMP JUMPDEST PUSH1 0x20 SWAP1 DUP2 MUL SWAP2 SWAP1 SWAP2 ADD ADD MLOAD PUSH1 0x40 MLOAD PUSH1 0x1 PUSH1 0x1 PUSH1 0xA0 SHL SUB SWAP1 SWAP2 AND PUSH1 0x24 DUP3 ADD MSTORE PUSH1 0x1 PUSH1 0x44 DUP3 ADD MSTORE PUSH1 0x64 ADD PUSH1 0x40 DUP1 MLOAD PUSH1 0x1F NOT DUP2 DUP5 SUB ADD DUP2 MSTORE SWAP2 DUP2 MSTORE PUSH1 0x20 DUP3 ADD DUP1 MLOAD PUSH1 0x1 PUSH1 0x1 PUSH1 0xE0 SHL SUB AND PUSH4 0xD582F13 PUSH1 0xE0 SHL OR SWAP1 MSTORE MLOAD PUSH1 0x1 PUSH1 0x1 PUSH1 0xE0 SHL SUB NOT PUSH1 0xE0 DUP7 SWAP1 SHL AND DUP2 MSTORE PUSH2 0x1367 SWAP4 SWAP3 SWAP2 SWAP1 PUSH1 0x0 SWAP1 PUSH1 0x4 ADD PUSH2 0x2E72 JUMP JUMPDEST PUSH1 0x20 PUSH1 0x40 MLOAD DUP1 DUP4 SUB DUP2 PUSH1 0x0 DUP8 GAS CALL ISZERO DUP1 ISZERO PUSH2 0x1386 JUMPI RETURNDATASIZE PUSH1 0x0 DUP1 RETURNDATACOPY RETURNDATASIZE PUSH1 0x0 REVERT JUMPDEST POP POP POP POP PUSH1 0x40 MLOAD RETURNDATASIZE PUSH1 0x1F NOT PUSH1 0x1F DUP3 ADD AND DUP3 ADD DUP1 PUSH1 0x40 MSTORE POP DUP2 ADD SWAP1 PUSH2 0x13AA SWAP2 SWAP1 PUSH2 0x2EC8 JUMP JUMPDEST SWAP1 POP DUP1 PUSH2 0x13F9 JUMPI PUSH1 0x40 MLOAD PUSH3 0x461BCD PUSH1 0xE5 SHL DUP2 MSTORE PUSH1 0x20 PUSH1 0x4 DUP3 ADD MSTORE PUSH1 0x1B PUSH1 0x24 DUP3 ADD MSTORE PUSH32 0x4B534D3234206F776E6572206164646974696F6E206661696C65640000000000 PUSH1 0x44 DUP3 ADD MSTORE PUSH1 0x64 ADD PUSH2 0x43B JUMP JUMPDEST POP JUMPDEST DUP1 PUSH2 0x1405 DUP2 PUSH2 0x2D10 JUMP JUMPDEST SWAP2 POP POP PUSH2 0x1090 JUMP JUMPDEST POP PUSH1 0x1 DUP4 GT ISZERO PUSH2 0x1520 JUMPI PUSH1 0x0 DUP3 PUSH1 0x1 PUSH1 0x1 PUSH1 0xA0 SHL SUB AND PUSH4 0x468721A7 DUP10 PUSH1 0x0 DUP8 PUSH1 0x40 MLOAD PUSH1 0x24 ADD PUSH2 0x143E SWAP2 DUP2 MSTORE PUSH1 0x20 ADD SWAP1 JUMP JUMPDEST PUSH1 0x40 DUP1 MLOAD PUSH1 0x1F NOT DUP2 DUP5 SUB ADD DUP2 MSTORE SWAP2 DUP2 MSTORE PUSH1 0x20 DUP3 ADD DUP1 MLOAD PUSH1 0x1 PUSH1 0x1 PUSH1 0xE0 SHL SUB AND PUSH4 0x694E80C3 PUSH1 0xE0 SHL OR SWAP1 MSTORE MLOAD PUSH1 0x1 PUSH1 0x1 PUSH1 0xE0 SHL SUB NOT PUSH1 0xE0 DUP7 SWAP1 SHL AND DUP2 MSTORE PUSH2 0x148C SWAP4 SWAP3 SWAP2 SWAP1 PUSH1 0x0 SWAP1 PUSH1 0x4 ADD PUSH2 0x2E72 JUMP JUMPDEST PUSH1 0x20 PUSH1 0x40 MLOAD DUP1 DUP4 SUB DUP2 PUSH1 0x0 DUP8 GAS CALL ISZERO DUP1 ISZERO PUSH2 0x14AB JUMPI RETURNDATASIZE PUSH1 0x0 DUP1 RETURNDATACOPY RETURNDATASIZE PUSH1 0x0 REVERT JUMPDEST POP POP POP POP PUSH1 0x40 MLOAD RETURNDATASIZE PUSH1 0x1F NOT PUSH1 0x1F DUP3 ADD AND DUP3 ADD DUP1 PUSH1 0x40 MSTORE POP DUP2 ADD SWAP1 PUSH2 0x14CF SWAP2 SWAP1 PUSH2 0x2EC8 JUMP JUMPDEST SWAP1 POP DUP1 PUSH2 0x151E JUMPI PUSH1 0x40 MLOAD PUSH3 0x461BCD PUSH1 0xE5 SHL DUP2 MSTORE PUSH1 0x20 PUSH1 0x4 DUP3 ADD MSTORE PUSH1 0x1D PUSH1 0x24 DUP3 ADD MSTORE PUSH32 0x4B534D3235206368616E6765207468726573686F6C64206661696C6564000000 PUSH1 0x44 DUP3 ADD MSTORE PUSH1 0x64 ADD PUSH2 0x43B JUMP JUMPDEST POP JUMPDEST DUP4 PUSH1 0x40 MLOAD PUSH2 0x152E SWAP2 SWAP1 PUSH2 0x2EFC JUMP JUMPDEST PUSH1 0x40 MLOAD DUP1 SWAP2 SUB SWAP1 KECCAK256 DUP8 PUSH1 0x1 PUSH1 0x1 PUSH1 0xA0 SHL SUB AND PUSH32 0x8F02BBDD0D302F6CDD4A448157AE4156C07384B648BEAE077292BA804D60AD5A DUP6 PUSH1 0x1 PUSH2 0x156D DUP13 PUSH2 0xD7F JUMP JUMPDEST PUSH2 0x1577 SWAP2 SWAP1 PUSH2 0x2D6E JUMP JUMPDEST PUSH1 0x40 DUP1 MLOAD SWAP3 DUP4 MSTORE PUSH1 0x20 DUP4 ADD SWAP2 SWAP1 SWAP2 MSTORE ADD JUMPDEST PUSH1 0x40 MLOAD DUP1 SWAP2 SUB SWAP1 LOG3 POP POP POP POP POP POP POP JUMP JUMPDEST PUSH1 0x0 DUP1 PUSH2 0x15A5 DUP8 PUSH2 0xD7F JUMP JUMPDEST SWAP1 POP PUSH1 0x0 PUSH2 0x15B6 DUP9 DUP8 DUP8 DUP8 DUP7 PUSH2 0xC8B JUMP JUMPDEST DUP1 MLOAD PUSH1 0x20 SWAP2 DUP3 ADD KECCAK256 PUSH1 0x0 SWAP1 DUP2 MSTORE PUSH1 0x2 DUP3 MSTORE PUSH1 0x40 DUP1 DUP3 KECCAK256 PUSH1 0x1 PUSH1 0x1 PUSH1 0xA0 SHL SUB SWAP11 SWAP1 SWAP11 AND DUP3 MSTORE SWAP9 SWAP1 SWAP2 MSTORE SWAP7 SWAP1 SWAP7 KECCAK256 SLOAD PUSH1 0xFF AND SWAP8 SWAP7 POP POP POP POP POP POP POP JUMP JUMPDEST PUSH2 0x1625 PUSH1 0x40 MLOAD DUP1 PUSH1 0x80 ADD PUSH1 0x40 MSTORE DUP1 PUSH1 0x0 DUP2 MSTORE PUSH1 0x20 ADD PUSH1 0x0 DUP2 MSTORE PUSH1 0x20 ADD PUSH1 0x0 PUSH1 0x1 PUSH1 0x1 PUSH1 0x40 SHL SUB AND DUP2 MSTORE PUSH1 0x20 ADD PUSH1 0x60 DUP2 MSTORE POP SWAP1 JUMP JUMPDEST PUSH1 0x1 PUSH1 0x1 PUSH1 0xA0 SHL SUB DUP3 AND PUSH1 0x0 SWAP1 DUP2 MSTORE PUSH1 0x1 PUSH1 0x20 DUP2 DUP2 MSTORE PUSH1 0x40 SWAP3 DUP4 SWAP1 KECCAK256 DUP4 MLOAD PUSH1 0x80 DUP2 ADD DUP6 MSTORE DUP2 SLOAD DUP2 MSTORE SWAP3 DUP2 ADD SLOAD DUP4 DUP4 ADD MSTORE PUSH1 0x2 DUP2 ADD SLOAD PUSH1 0x1 PUSH1 0x1 PUSH1 0x40 SHL SUB AND DUP4 DUP6 ADD MSTORE PUSH1 0x3 DUP2 ADD DUP1 SLOAD DUP6 MLOAD DUP2 DUP6 MUL DUP2 ADD DUP6 ADD SWAP1 SWAP7 MSTORE DUP1 DUP7 MSTORE SWAP4 SWAP5 SWAP2 SWAP4 PUSH1 0x60 DUP7 ADD SWAP4 DUP4 ADD DUP3 DUP3 DUP1 ISZERO PUSH2 0x16BE JUMPI PUSH1 0x20 MUL DUP3 ADD SWAP2 SWAP1 PUSH1 0x0 MSTORE PUSH1 0x20 PUSH1 0x0 KECCAK256 SWAP1 JUMPDEST DUP2 SLOAD PUSH1 0x1 PUSH1 0x1 PUSH1 0xA0 SHL SUB AND DUP2 MSTORE PUSH1 0x1 SWAP1 SWAP2 ADD SWAP1 PUSH1 0x20 ADD DUP1 DUP4 GT PUSH2 0x16A0 JUMPI JUMPDEST POP POP POP POP POP DUP2 MSTORE POP POP SWAP1 POP SWAP2 SWAP1 POP JUMP JUMPDEST DUP2 CALLER PUSH1 0x1 PUSH1 0x1 PUSH1 0xA0 SHL SUB DUP3 AND EQ PUSH2 0x16F7 JUMPI PUSH1 0x40 MLOAD PUSH3 0x461BCD PUSH1 0xE5 SHL DUP2 MSTORE PUSH1 0x4 ADD PUSH2 0x43B SWAP1 PUSH2 0x2D29 JUMP JUMPDEST PUSH1 0x40 MLOAD PUSH4 0x15F3FAEF PUSH1 0xE2 SHL DUP2 MSTORE PUSH1 0x1 PUSH1 0x1 PUSH1 0xA0 SHL SUB DUP5 DUP2 AND PUSH1 0x4 DUP4 ADD MSTORE PUSH1 0x24 DUP3 ADD DUP5 SWAP1 MSTORE PUSH32 0x0 AND SWAP1 PUSH4 0x57CFEBBC SWAP1 PUSH1 0x44 ADD PUSH1 0x0 PUSH1 0x40 MLOAD DUP1 DUP4 SUB DUP2 PUSH1 0x0 DUP8 DUP1 EXTCODESIZE ISZERO DUP1 ISZERO PUSH2 0x1761 JUMPI PUSH1 0x0 DUP1 REVERT JUMPDEST POP GAS CALL ISZERO DUP1 ISZERO PUSH2 0x1775 JUMPI RETURNDATASIZE PUSH1 0x0 DUP1 RETURNDATACOPY RETURNDATASIZE PUSH1 0x0 REVERT JUMPDEST POP POP POP POP POP POP POP JUMP JUMPDEST PUSH1 0x0 PUSH2 0x178D DUP7 DUP7 DUP7 DUP7 DUP7 PUSH2 0xC8B JUMP JUMPDEST DUP1 MLOAD SWAP1 PUSH1 0x20 ADD KECCAK256 SWAP1 POP SWAP6 SWAP5 POP POP POP POP POP JUMP JUMPDEST PUSH1 0x0 DUP1 PUSH2 0x17AB DUP7 PUSH2 0xD7F JUMP JUMPDEST SWAP1 POP PUSH1 0x0 PUSH2 0x17BC DUP8 DUP8 DUP8 DUP8 DUP7 PUSH2 0xC8B JUMP JUMPDEST DUP1 MLOAD SWAP1 PUSH1 0x20 ADD KECCAK256 SWAP1 POP PUSH1 0x0 PUSH2 0x17D0 DUP9 PUSH2 0x1DE7 JUMP JUMPDEST SWAP1 POP PUSH1 0x0 SWAP4 POP PUSH1 0x0 JUMPDEST DUP2 MLOAD DUP2 LT ISZERO PUSH2 0x1850 JUMPI PUSH2 0x182B DUP4 DUP4 DUP4 DUP2 MLOAD DUP2 LT PUSH2 0x17F8 JUMPI PUSH2 0x17F8 PUSH2 0x2CE4 JUMP JUMPDEST PUSH1 0x20 MUL PUSH1 0x20 ADD ADD MLOAD PUSH1 0x0 SWAP2 DUP3 MSTORE PUSH1 0x2 PUSH1 0x20 SWAP1 DUP2 MSTORE PUSH1 0x40 DUP1 DUP5 KECCAK256 PUSH1 0x1 PUSH1 0x1 PUSH1 0xA0 SHL SUB SWAP4 SWAP1 SWAP4 AND DUP5 MSTORE SWAP2 SWAP1 MSTORE SWAP1 KECCAK256 SLOAD PUSH1 0xFF AND SWAP1 JUMP JUMPDEST ISZERO PUSH2 0x183E JUMPI DUP5 PUSH2 0x183A DUP2 PUSH2 0x2D10 JUMP JUMPDEST SWAP6 POP POP JUMPDEST DUP1 PUSH2 0x1848 DUP2 PUSH2 0x2D10 JUMP JUMPDEST SWAP2 POP POP PUSH2 0x17D9 JUMP JUMPDEST POP POP POP POP SWAP5 SWAP4 POP POP POP POP JUMP JUMPDEST DUP3 CALLER PUSH1 0x1 PUSH1 0x1 PUSH1 0xA0 SHL SUB DUP3 AND EQ PUSH2 0x1885 JUMPI PUSH1 0x40 MLOAD PUSH3 0x461BCD PUSH1 0xE5 SHL DUP2 MSTORE PUSH1 0x4 ADD PUSH2 0x43B SWAP1 PUSH2 0x2D29 JUMP JUMPDEST PUSH1 0x40 MLOAD PUSH4 0xC684521 PUSH1 0xE4 SHL DUP2 MSTORE PUSH1 0x1 PUSH1 0x1 PUSH1 0xA0 SHL SUB DUP6 DUP2 AND PUSH1 0x4 DUP4 ADD MSTORE DUP5 DUP2 AND PUSH1 0x24 DUP4 ADD MSTORE PUSH32 0x0 AND SWAP1 PUSH4 0xC6845210 SWAP1 PUSH1 0x44 ADD PUSH1 0x0 PUSH1 0x40 MLOAD DUP1 DUP4 SUB DUP2 PUSH1 0x0 DUP8 DUP1 EXTCODESIZE ISZERO DUP1 ISZERO PUSH2 0x18F0 JUMPI PUSH1 0x0 DUP1 REVERT JUMPDEST POP GAS CALL ISZERO DUP1 ISZERO PUSH2 0x1904 JUMPI RETURNDATASIZE PUSH1 0x0 DUP1 RETURNDATACOPY RETURNDATASIZE PUSH1 0x0 REVERT JUMPDEST POP POP PUSH1 0x40 MLOAD PUSH4 0x15F3FAEF PUSH1 0xE2 SHL DUP2 MSTORE PUSH1 0x1 PUSH1 0x1 PUSH1 0xA0 SHL SUB DUP8 DUP2 AND PUSH1 0x4 DUP4 ADD MSTORE PUSH1 0x24 DUP3 ADD DUP7 SWAP1 MSTORE PUSH32 0x0 AND SWAP3 POP PUSH4 0x57CFEBBC SWAP2 POP PUSH1 0x44 ADD PUSH1 0x0 PUSH1 0x40 MLOAD DUP1 DUP4 SUB DUP2 PUSH1 0x0 DUP8 DUP1 EXTCODESIZE ISZERO DUP1 ISZERO PUSH2 0x1972 JUMPI PUSH1 0x0 DUP1 REVERT JUMPDEST POP GAS CALL ISZERO DUP1 ISZERO PUSH2 0x1986 JUMPI RETURNDATASIZE PUSH1 0x0 DUP1 RETURNDATACOPY RETURNDATASIZE PUSH1 0x0 REVERT JUMPDEST POP POP POP POP DUP3 PUSH1 0x1 PUSH1 0x1 PUSH1 0xA0 SHL SUB AND DUP5 PUSH1 0x1 PUSH1 0x1 PUSH1 0xA0 SHL SUB AND PUSH32 0x6D0391926FD0FCB9E582CC3F9B1D2302BFD0866212CC067D5B137352A23A41BC DUP5 PUSH1 0x40 MLOAD PUSH2 0x19CF SWAP2 DUP2 MSTORE PUSH1 0x20 ADD SWAP1 JUMP JUMPDEST PUSH1 0x40 MLOAD DUP1 SWAP2 SUB SWAP1 LOG3 POP POP POP POP JUMP JUMPDEST PUSH2 0x19E7 DUP5 DUP4 PUSH2 0x1D49 JUMP JUMPDEST PUSH2 0x1A33 JUMPI PUSH1 0x40 MLOAD PUSH3 0x461BCD PUSH1 0xE5 SHL DUP2 MSTORE PUSH1 0x20 PUSH1 0x4 DUP3 ADD MSTORE PUSH1 0x1B PUSH1 0x24 DUP3 ADD MSTORE PUSH32 0x4B534D3034205369676E6572206E6F74206120677561726469616E0000000000 PUSH1 0x44 DUP3 ADD MSTORE PUSH1 0x64 ADD PUSH2 0x43B JUMP JUMPDEST PUSH2 0x1A3E DUP3 DUP5 DUP4 PUSH2 0x209E JUMP JUMPDEST PUSH2 0x1A8A JUMPI PUSH1 0x40 MLOAD PUSH3 0x461BCD PUSH1 0xE5 SHL DUP2 MSTORE PUSH1 0x20 PUSH1 0x4 DUP3 ADD DUP2 SWAP1 MSTORE PUSH1 0x24 DUP3 ADD MSTORE PUSH32 0x4B534D303420496E76616C696420677561726469616E207369676E6174757265 PUSH1 0x44 DUP3 ADD MSTORE PUSH1 0x64 ADD PUSH2 0x43B JUMP JUMPDEST POP POP POP POP JUMP JUMPDEST PUSH1 0x0 PUSH2 0x1A9B DUP6 PUSH2 0x1BFF JUMP JUMPDEST SWAP1 POP PUSH1 0x0 DUP2 GT PUSH2 0x1AE5 JUMPI PUSH1 0x40 MLOAD PUSH3 0x461BCD PUSH1 0xE5 SHL DUP2 MSTORE PUSH1 0x20 PUSH1 0x4 DUP3 ADD MSTORE PUSH1 0x15 PUSH1 0x24 DUP3 ADD MSTORE PUSH21 0x4B534D313720656D70747920677561726469616E73 PUSH1 0x58 SHL PUSH1 0x44 DUP3 ADD MSTORE PUSH1 0x64 ADD PUSH2 0x43B JUMP JUMPDEST PUSH1 0x0 PUSH2 0x1AF3 DUP7 DUP7 DUP7 DUP7 PUSH2 0x179F JUMP JUMPDEST SWAP1 POP DUP2 DUP2 LT ISZERO PUSH2 0x1B5C JUMPI PUSH1 0x40 MLOAD PUSH3 0x461BCD PUSH1 0xE5 SHL DUP2 MSTORE PUSH1 0x20 PUSH1 0x4 DUP3 ADD MSTORE PUSH1 0x2E PUSH1 0x24 DUP3 ADD MSTORE PUSH32 0x4B534D313820636F6E6669726D6564207369676E617475726573206C65737320 PUSH1 0x44 DUP3 ADD MSTORE PUSH14 0x1D1A185B881D1A1C995CDA1BDB19 PUSH1 0x92 SHL PUSH1 0x64 DUP3 ADD MSTORE PUSH1 0x84 ADD PUSH2 0x43B JUMP JUMPDEST PUSH2 0x9B7 DUP7 DUP7 DUP7 DUP7 DUP6 PUSH2 0x1F87 JUMP JUMPDEST PUSH1 0x40 MLOAD PUSH4 0x601373F7 PUSH1 0xE1 SHL DUP2 MSTORE PUSH1 0x1 PUSH1 0x1 PUSH1 0xA0 SHL SUB DUP3 DUP2 AND PUSH1 0x4 DUP4 ADD MSTORE PUSH1 0x0 SWAP2 PUSH32 0x0 SWAP1 SWAP2 AND SWAP1 PUSH4 0xC026E7EE SWAP1 PUSH1 0x24 ADD JUMPDEST PUSH1 0x20 PUSH1 0x40 MLOAD DUP1 DUP4 SUB DUP2 DUP7 GAS STATICCALL ISZERO DUP1 ISZERO PUSH2 0x1BD5 JUMPI RETURNDATASIZE PUSH1 0x0 DUP1 RETURNDATACOPY RETURNDATASIZE PUSH1 0x0 REVERT JUMPDEST POP POP POP POP PUSH1 0x40 MLOAD RETURNDATASIZE PUSH1 0x1F NOT PUSH1 0x1F DUP3 ADD AND DUP3 ADD DUP1 PUSH1 0x40 MSTORE POP DUP2 ADD SWAP1 PUSH2 0x1BF9 SWAP2 SWAP1 PUSH2 0x2D55 JUMP JUMPDEST SWAP3 SWAP2 POP POP JUMP JUMPDEST PUSH1 0x40 MLOAD PUSH4 0xC86EC2BF PUSH1 0xE0 SHL DUP2 MSTORE PUSH1 0x1 PUSH1 0x1 PUSH1 0xA0 SHL SUB DUP3 DUP2 AND PUSH1 0x4 DUP4 ADD MSTORE PUSH1 0x0 SWAP2 PUSH32 0x0 SWAP1 SWAP2 AND SWAP1 PUSH4 0xC86EC2BF SWAP1 PUSH1 0x24 ADD PUSH2 0x1BB8 JUMP JUMPDEST DUP1 CALLER PUSH1 0x1 PUSH1 0x1 PUSH1 0xA0 SHL SUB DUP3 AND EQ PUSH2 0x1C7B JUMPI PUSH1 0x40 MLOAD PUSH3 0x461BCD PUSH1 0xE5 SHL DUP2 MSTORE PUSH1 0x4 ADD PUSH2 0x43B SWAP1 PUSH2 0x2D29 JUMP JUMPDEST PUSH1 0x1 PUSH1 0x1 PUSH1 0xA0 SHL SUB DUP3 AND PUSH1 0x0 SWAP1 DUP2 MSTORE PUSH1 0x1 PUSH1 0x20 MSTORE PUSH1 0x40 SWAP1 KECCAK256 PUSH1 0x2 ADD SLOAD DUP3 SWAP1 PUSH1 0x1 PUSH1 0x1 PUSH1 0x40 SHL SUB AND PUSH2 0x1CEA JUMPI PUSH1 0x40 MLOAD PUSH3 0x461BCD PUSH1 0xE5 SHL DUP2 MSTORE PUSH1 0x20 PUSH1 0x4 DUP3 ADD MSTORE PUSH1 0x19 PUSH1 0x24 DUP3 ADD MSTORE PUSH25 0x4B534D3032206E6F206F6E676F696E67207265636F76657279 PUSH1 0x38 SHL PUSH1 0x44 DUP3 ADD MSTORE PUSH1 0x64 ADD PUSH2 0x43B JUMP JUMPDEST PUSH2 0x1CF3 DUP4 PUSH2 0x2055 JUMP JUMPDEST DUP3 PUSH1 0x1 PUSH1 0x1 PUSH1 0xA0 SHL SUB AND PUSH32 0x81DA66C7AAC3EE4365918A5D70F73E846A59E8A8AF01EF155E86518190490519 PUSH1 0x1 PUSH2 0x1D29 DUP7 PUSH2 0xD7F JUMP JUMPDEST PUSH2 0x1D33 SWAP2 SWAP1 PUSH2 0x2D6E JUMP JUMPDEST PUSH1 0x40 MLOAD SWAP1 DUP2 MSTORE PUSH1 0x20 ADD PUSH1 0x40 MLOAD DUP1 SWAP2 SUB SWAP1 LOG2 POP POP POP JUMP JUMPDEST PUSH1 0x40 MLOAD PUSH4 0x353BA5CD PUSH1 0xE2 SHL DUP2 MSTORE PUSH1 0x1 PUSH1 0x1 PUSH1 0xA0 SHL SUB DUP4 DUP2 AND PUSH1 0x4 DUP4 ADD MSTORE DUP3 DUP2 AND PUSH1 0x24 DUP4 ADD MSTORE PUSH1 0x0 SWAP2 PUSH32 0x0 SWAP1 SWAP2 AND SWAP1 PUSH4 0xD4EE9734 SWAP1 PUSH1 0x44 ADD PUSH1 0x20 PUSH1 0x40 MLOAD DUP1 DUP4 SUB DUP2 DUP7 GAS STATICCALL ISZERO DUP1 ISZERO PUSH2 0x1DBC JUMPI RETURNDATASIZE PUSH1 0x0 DUP1 RETURNDATACOPY RETURNDATASIZE PUSH1 0x0 REVERT JUMPDEST POP POP POP POP PUSH1 0x40 MLOAD RETURNDATASIZE PUSH1 0x1F NOT PUSH1 0x1F DUP3 ADD AND DUP3 ADD DUP1 PUSH1 0x40 MSTORE POP DUP2 ADD SWAP1 PUSH2 0x1DE0 SWAP2 SWAP1 PUSH2 0x2EC8 JUMP JUMPDEST SWAP4 SWAP3 POP POP POP JUMP JUMPDEST PUSH1 0x40 MLOAD PUSH4 0xF18858AB PUSH1 0xE0 SHL DUP2 MSTORE PUSH1 0x1 PUSH1 0x1 PUSH1 0xA0 SHL SUB DUP3 DUP2 AND PUSH1 0x4 DUP4 ADD MSTORE PUSH1 0x60 SWAP2 PUSH32 0x0 SWAP1 SWAP2 AND SWAP1 PUSH4 0xF18858AB SWAP1 PUSH1 0x24 ADD PUSH1 0x0 PUSH1 0x40 MLOAD DUP1 DUP4 SUB DUP2 DUP7 GAS STATICCALL ISZERO DUP1 ISZERO PUSH2 0x1E52 JUMPI RETURNDATASIZE PUSH1 0x0 DUP1 RETURNDATACOPY RETURNDATASIZE PUSH1 0x0 REVERT JUMPDEST POP POP POP POP PUSH1 0x40 MLOAD RETURNDATASIZE PUSH1 0x0 DUP3 RETURNDATACOPY PUSH1 0x1F RETURNDATASIZE SWAP1 DUP2 ADD PUSH1 0x1F NOT AND DUP3 ADD PUSH1 0x40 MSTORE PUSH2 0x1BF9 SWAP2 SWAP1 DUP2 ADD SWAP1 PUSH2 0x2DC3 JUMP JUMPDEST PUSH1 0x0 PUSH32 0x8B73C3C69BB8FE3D512ECC4CF759CC79239F7B179B0FFACAA9A75D522B39400F PUSH1 0x0 SHL PUSH1 0x40 MLOAD DUP1 PUSH1 0x40 ADD PUSH1 0x40 MSTORE DUP1 PUSH1 0x1C DUP2 MSTORE PUSH1 0x20 ADD PUSH32 0x4B61696A7520536F6369616C205265636F76657279204D6F64756C6500000000 DUP2 MSTORE POP PUSH1 0x40 MLOAD PUSH1 0x20 ADD PUSH2 0x1EE6 SWAP2 SWAP1 PUSH2 0x2F3B JUMP JUMPDEST PUSH1 0x40 MLOAD PUSH1 0x20 DUP2 DUP4 SUB SUB DUP2 MSTORE SWAP1 PUSH1 0x40 MSTORE DUP1 MLOAD SWAP1 PUSH1 0x20 ADD KECCAK256 PUSH1 0x40 MLOAD DUP1 PUSH1 0x40 ADD PUSH1 0x40 MSTORE DUP1 PUSH1 0x5 DUP2 MSTORE PUSH1 0x20 ADD PUSH5 0x302E302E31 PUSH1 0xD8 SHL DUP2 MSTORE POP PUSH1 0x40 MLOAD PUSH1 0x20 ADD PUSH2 0x1F2A SWAP2 SWAP1 PUSH2 0x2F3B JUMP JUMPDEST PUSH1 0x40 MLOAD PUSH1 0x20 DUP2 DUP4 SUB SUB DUP2 MSTORE SWAP1 PUSH1 0x40 MSTORE DUP1 MLOAD SWAP1 PUSH1 0x20 ADD KECCAK256 PUSH2 0x1F47 CHAINID SWAP1 JUMP JUMPDEST PUSH1 0x40 DUP1 MLOAD PUSH1 0x20 DUP2 ADD SWAP6 SWAP1 SWAP6 MSTORE DUP5 ADD SWAP3 SWAP1 SWAP3 MSTORE PUSH1 0x60 DUP4 ADD MSTORE PUSH1 0x80 DUP3 ADD MSTORE ADDRESS PUSH1 0xA0 DUP3 ADD MSTORE PUSH1 0xC0 ADD PUSH1 0x40 MLOAD PUSH1 0x20 DUP2 DUP4 SUB SUB DUP2 MSTORE SWAP1 PUSH1 0x40 MSTORE DUP1 MLOAD SWAP1 PUSH1 0x20 ADD KECCAK256 SWAP1 POP SWAP1 JUMP JUMPDEST PUSH1 0x0 PUSH2 0x1F92 DUP7 PUSH2 0xD7F JUMP JUMPDEST SWAP1 POP PUSH2 0x1F9F DUP7 DUP4 DUP4 PUSH2 0x20FF JUMP JUMPDEST PUSH1 0x0 PUSH2 0x1FCB PUSH32 0x0 TIMESTAMP PUSH2 0x2F57 JUMP JUMPDEST SWAP1 POP PUSH2 0x1FDA DUP8 DUP8 DUP8 DUP8 DUP8 PUSH2 0x2220 JUMP JUMPDEST PUSH2 0x1FE3 DUP8 PUSH2 0x2312 JUMP JUMPDEST DUP6 DUP6 PUSH1 0x40 MLOAD PUSH2 0x1FF3 SWAP3 SWAP2 SWAP1 PUSH2 0x2D81 JUMP JUMPDEST PUSH1 0x40 DUP1 MLOAD SWAP2 DUP3 SWAP1 SUB DUP3 KECCAK256 DUP7 DUP4 MSTORE PUSH1 0x20 DUP4 ADD DUP6 SWAP1 MSTORE PUSH1 0x1 PUSH1 0x1 PUSH1 0x40 SHL SUB DUP5 AND SWAP2 DUP4 ADD SWAP2 SWAP1 SWAP2 MSTORE PUSH1 0x60 DUP3 ADD DUP6 SWAP1 MSTORE SWAP1 PUSH1 0x1 PUSH1 0x1 PUSH1 0xA0 SHL SUB DUP10 AND SWAP1 PUSH32 0x1FA74635DCCCFA96011B50295A26DD08B8C3C6CA7D66EDE450288192674EBF01 SWAP1 PUSH1 0x80 ADD PUSH2 0x1588 JUMP JUMPDEST PUSH1 0x1 PUSH1 0x1 PUSH1 0xA0 SHL SUB DUP2 AND PUSH1 0x0 SWAP1 DUP2 MSTORE PUSH1 0x1 PUSH1 0x20 DUP2 SWAP1 MSTORE PUSH1 0x40 DUP3 KECCAK256 DUP3 DUP2 SSTORE SWAP1 DUP2 ADD DUP3 SWAP1 SSTORE PUSH1 0x2 DUP2 ADD DUP1 SLOAD PUSH8 0xFFFFFFFFFFFFFFFF NOT AND SWAP1 SSTORE SWAP1 PUSH2 0x2099 PUSH1 0x3 DUP4 ADD DUP3 PUSH2 0x2533 JUMP JUMPDEST POP POP POP JUMP JUMPDEST PUSH1 0x0 DUP1 PUSH1 0x0 PUSH2 0x20AD DUP6 DUP6 PUSH2 0x233E JUMP JUMPDEST SWAP1 SWAP3 POP SWAP1 POP PUSH1 0x0 DUP2 PUSH1 0x4 DUP2 GT ISZERO PUSH2 0x20C6 JUMPI PUSH2 0x20C6 PUSH2 0x2E5C JUMP JUMPDEST EQ DUP1 ISZERO PUSH2 0x20E4 JUMPI POP DUP6 PUSH1 0x1 PUSH1 0x1 PUSH1 0xA0 SHL SUB AND DUP3 PUSH1 0x1 PUSH1 0x1 PUSH1 0xA0 SHL SUB AND EQ JUMPDEST DUP1 PUSH2 0x20F5 JUMPI POP PUSH2 0x20F5 DUP7 DUP7 DUP7 PUSH2 0x2383 JUMP JUMPDEST SWAP7 SWAP6 POP POP POP POP POP POP JUMP JUMPDEST PUSH1 0x1 PUSH1 0x1 PUSH1 0xA0 SHL SUB DUP4 AND PUSH1 0x0 SWAP1 DUP2 MSTORE PUSH1 0x1 PUSH1 0x20 MSTORE PUSH1 0x40 SWAP1 KECCAK256 PUSH1 0x2 DUP2 ADD SLOAD PUSH1 0x1 PUSH1 0x1 PUSH1 0x40 SHL SUB AND ISZERO PUSH2 0x1A8A JUMPI DUP1 SLOAD DUP4 GT PUSH2 0x218D JUMPI PUSH1 0x40 MLOAD PUSH3 0x461BCD PUSH1 0xE5 SHL DUP2 MSTORE PUSH1 0x20 PUSH1 0x4 DUP3 ADD MSTORE PUSH1 0x2A PUSH1 0x24 DUP3 ADD MSTORE PUSH32 0x4B534D3139206E6F7420656E6F75676820617070726F76616C7320666F722072 PUSH1 0x44 DUP3 ADD MSTORE PUSH10 0x195C1B1858D95B595B9D PUSH1 0xB2 SHL PUSH1 0x64 DUP3 ADD MSTORE PUSH1 0x84 ADD PUSH2 0x43B JUMP JUMPDEST PUSH1 0x1 PUSH1 0x1 PUSH1 0xA0 SHL SUB DUP5 AND PUSH1 0x0 SWAP1 DUP2 MSTORE PUSH1 0x1 PUSH1 0x20 DUP2 SWAP1 MSTORE PUSH1 0x40 DUP3 KECCAK256 DUP3 DUP2 SSTORE SWAP1 DUP2 ADD DUP3 SWAP1 SSTORE PUSH1 0x2 DUP2 ADD DUP1 SLOAD PUSH8 0xFFFFFFFFFFFFFFFF NOT AND SWAP1 SSTORE SWAP1 PUSH2 0x21D1 PUSH1 0x3 DUP4 ADD DUP3 PUSH2 0x2533 JUMP JUMPDEST POP POP PUSH1 0x1 PUSH1 0x1 PUSH1 0xA0 SHL SUB DUP5 AND PUSH32 0x81DA66C7AAC3EE4365918A5D70F73E846A59E8A8AF01EF155E86518190490519 PUSH2 0x2209 PUSH1 0x1 DUP6 PUSH2 0x2D6E JUMP JUMPDEST PUSH1 0x40 MLOAD SWAP1 DUP2 MSTORE PUSH1 0x20 ADD PUSH1 0x40 MLOAD DUP1 SWAP2 SUB SWAP1 LOG2 POP POP POP POP JUMP JUMPDEST PUSH1 0x0 PUSH2 0x224C PUSH32 0x0 TIMESTAMP PUSH2 0x2F57 JUMP JUMPDEST SWAP1 POP PUSH1 0x40 MLOAD DUP1 PUSH1 0x80 ADD PUSH1 0x40 MSTORE DUP1 DUP4 DUP2 MSTORE PUSH1 0x20 ADD DUP5 DUP2 MSTORE PUSH1 0x20 ADD DUP3 PUSH1 0x1 PUSH1 0x1 PUSH1 0x40 SHL SUB AND DUP2 MSTORE PUSH1 0x20 ADD DUP7 DUP7 DUP1 DUP1 PUSH1 0x20 MUL PUSH1 0x20 ADD PUSH1 0x40 MLOAD SWAP1 DUP2 ADD PUSH1 0x40 MSTORE DUP1 SWAP4 SWAP3 SWAP2 SWAP1 DUP2 DUP2 MSTORE PUSH1 0x20 ADD DUP4 DUP4 PUSH1 0x20 MUL DUP1 DUP3 DUP5 CALLDATACOPY PUSH1 0x0 SWAP3 ADD DUP3 SWAP1 MSTORE POP SWAP4 SWAP1 SWAP5 MSTORE POP POP PUSH1 0x1 PUSH1 0x1 PUSH1 0xA0 SHL SUB DUP10 AND DUP2 MSTORE PUSH1 0x1 PUSH1 0x20 DUP2 DUP2 MSTORE PUSH1 0x40 SWAP3 DUP4 SWAP1 KECCAK256 DUP6 MLOAD DUP2 SSTORE DUP6 DUP3 ADD MLOAD SWAP3 DUP2 ADD SWAP3 SWAP1 SWAP3 SSTORE SWAP2 DUP5 ADD MLOAD PUSH1 0x2 DUP3 ADD DUP1 SLOAD PUSH8 0xFFFFFFFFFFFFFFFF NOT AND PUSH1 0x1 PUSH1 0x1 PUSH1 0x40 SHL SUB SWAP1 SWAP3 AND SWAP2 SWAP1 SWAP2 OR SWAP1 SSTORE PUSH1 0x60 DUP5 ADD MLOAD DUP1 MLOAD SWAP2 SWAP4 POP PUSH2 0x5D3 SWAP3 PUSH1 0x3 DUP6 ADD SWAP3 SWAP2 ADD SWAP1 PUSH2 0x2554 JUMP JUMPDEST PUSH1 0x1 PUSH1 0x1 PUSH1 0xA0 SHL SUB DUP2 AND PUSH1 0x0 SWAP1 DUP2 MSTORE PUSH1 0x20 DUP2 SWAP1 MSTORE PUSH1 0x40 DUP2 KECCAK256 DUP1 SLOAD SWAP2 PUSH2 0x2336 DUP4 PUSH2 0x2D10 JUMP JUMPDEST SWAP2 SWAP1 POP SSTORE POP POP JUMP JUMPDEST PUSH1 0x0 DUP1 DUP3 MLOAD PUSH1 0x41 SUB PUSH2 0x2374 JUMPI PUSH1 0x20 DUP4 ADD MLOAD PUSH1 0x40 DUP5 ADD MLOAD PUSH1 0x60 DUP6 ADD MLOAD PUSH1 0x0 BYTE PUSH2 0x2368 DUP8 DUP3 DUP6 DUP6 PUSH2 0x246F JUMP JUMPDEST SWAP5 POP SWAP5 POP POP POP POP PUSH2 0x237C JUMP JUMPDEST POP PUSH1 0x0 SWAP1 POP PUSH1 0x2 JUMPDEST SWAP3 POP SWAP3 SWAP1 POP JUMP JUMPDEST PUSH1 0x0 DUP1 PUSH1 0x0 DUP6 PUSH1 0x1 PUSH1 0x1 PUSH1 0xA0 SHL SUB AND PUSH4 0x1626BA7E PUSH1 0xE0 SHL DUP7 DUP7 PUSH1 0x40 MLOAD PUSH1 0x24 ADD PUSH2 0x23AD SWAP3 SWAP2 SWAP1 PUSH2 0x2F6A JUMP JUMPDEST PUSH1 0x40 DUP1 MLOAD PUSH1 0x1F NOT DUP2 DUP5 SUB ADD DUP2 MSTORE SWAP2 DUP2 MSTORE PUSH1 0x20 DUP3 ADD DUP1 MLOAD PUSH1 0x1 PUSH1 0x1 PUSH1 0xE0 SHL SUB AND PUSH1 0x1 PUSH1 0x1 PUSH1 0xE0 SHL SUB NOT SWAP1 SWAP5 AND SWAP4 SWAP1 SWAP4 OR SWAP1 SWAP3 MSTORE SWAP1 MLOAD PUSH2 0x23EB SWAP2 SWAP1 PUSH2 0x2F3B JUMP JUMPDEST PUSH1 0x0 PUSH1 0x40 MLOAD DUP1 DUP4 SUB DUP2 DUP6 GAS STATICCALL SWAP2 POP POP RETURNDATASIZE DUP1 PUSH1 0x0 DUP2 EQ PUSH2 0x2426 JUMPI PUSH1 0x40 MLOAD SWAP2 POP PUSH1 0x1F NOT PUSH1 0x3F RETURNDATASIZE ADD AND DUP3 ADD PUSH1 0x40 MSTORE RETURNDATASIZE DUP3 MSTORE RETURNDATASIZE PUSH1 0x0 PUSH1 0x20 DUP5 ADD RETURNDATACOPY PUSH2 0x242B JUMP JUMPDEST PUSH1 0x60 SWAP2 POP JUMPDEST POP SWAP2 POP SWAP2 POP DUP2 DUP1 ISZERO PUSH2 0x243F JUMPI POP PUSH1 0x20 DUP2 MLOAD LT ISZERO JUMPDEST DUP1 ISZERO PUSH2 0x20F5 JUMPI POP DUP1 MLOAD PUSH4 0xB135D3F PUSH1 0xE1 SHL SWAP1 PUSH2 0x2464 SWAP1 DUP4 ADD PUSH1 0x20 SWAP1 DUP2 ADD SWAP1 DUP5 ADD PUSH2 0x2D55 JUMP JUMPDEST EQ SWAP7 SWAP6 POP POP POP POP POP POP JUMP JUMPDEST PUSH1 0x0 DUP1 PUSH32 0x7FFFFFFFFFFFFFFFFFFFFFFFFFFFFFFF5D576E7357A4501DDFE92F46681B20A0 DUP4 GT ISZERO PUSH2 0x24A6 JUMPI POP PUSH1 0x0 SWAP1 POP PUSH1 0x3 PUSH2 0x252A JUMP JUMPDEST PUSH1 0x40 DUP1 MLOAD PUSH1 0x0 DUP1 DUP3 MSTORE PUSH1 0x20 DUP3 ADD DUP1 DUP5 MSTORE DUP10 SWAP1 MSTORE PUSH1 0xFF DUP9 AND SWAP3 DUP3 ADD SWAP3 SWAP1 SWAP3 MSTORE PUSH1 0x60 DUP2 ADD DUP7 SWAP1 MSTORE PUSH1 0x80 DUP2 ADD DUP6 SWAP1 MSTORE PUSH1 0x1 SWAP1 PUSH1 0xA0 ADD PUSH1 0x20 PUSH1 0x40 MLOAD PUSH1 0x20 DUP2 SUB SWAP1 DUP1 DUP5 SUB SWAP1 DUP6 GAS STATICCALL ISZERO DUP1 ISZERO PUSH2 0x24FA JUMPI RETURNDATASIZE PUSH1 0x0 DUP1 RETURNDATACOPY RETURNDATASIZE PUSH1 0x0 REVERT JUMPDEST POP POP PUSH1 0x40 MLOAD PUSH1 0x1F NOT ADD MLOAD SWAP2 POP POP PUSH1 0x1 PUSH1 0x1 PUSH1 0xA0 SHL SUB DUP2 AND PUSH2 0x2523 JUMPI PUSH1 0x0 PUSH1 0x1 SWAP3 POP SWAP3 POP POP PUSH2 0x252A JUMP JUMPDEST SWAP2 POP PUSH1 0x0 SWAP1 POP JUMPDEST SWAP5 POP SWAP5 SWAP3 POP POP POP JUMP JUMPDEST POP DUP1 SLOAD PUSH1 0x0 DUP3 SSTORE SWAP1 PUSH1 0x0 MSTORE PUSH1 0x20 PUSH1 0x0 KECCAK256 SWAP1 DUP2 ADD SWAP1 PUSH2 0x2551 SWAP2 SWAP1 PUSH2 0x25B9 JUMP JUMPDEST POP JUMP JUMPDEST DUP3 DUP1 SLOAD DUP3 DUP3 SSTORE SWAP1 PUSH1 0x0 MSTORE PUSH1 0x20 PUSH1 0x0 KECCAK256 SWAP1 DUP2 ADD SWAP3 DUP3 ISZERO PUSH2 0x25A9 JUMPI SWAP2 PUSH1 0x20 MUL DUP3 ADD JUMPDEST DUP3 DUP2 GT ISZERO PUSH2 0x25A9 JUMPI DUP3 MLOAD DUP3 SLOAD PUSH1 0x1 PUSH1 0x1 PUSH1 0xA0 SHL SUB NOT AND PUSH1 0x1 PUSH1 0x1 PUSH1 0xA0 SHL SUB SWAP1 SWAP2 AND OR DUP3 SSTORE PUSH1 0x20 SWAP1 SWAP3 ADD SWAP2 PUSH1 0x1 SWAP1 SWAP2 ADD SWAP1 PUSH2 0x2574 JUMP JUMPDEST POP PUSH2 0x25B5 SWAP3 SWAP2 POP PUSH2 0x25B9 JUMP JUMPDEST POP SWAP1 JUMP JUMPDEST JUMPDEST DUP1 DUP3 GT ISZERO PUSH2 0x25B5 JUMPI PUSH1 0x0 DUP2 SSTORE PUSH1 0x1 ADD PUSH2 0x25BA JUMP JUMPDEST PUSH1 0x1 PUSH1 0x1 PUSH1 0xA0 SHL SUB DUP2 AND DUP2 EQ PUSH2 0x2551 JUMPI PUSH1 0x0 DUP1 REVERT JUMPDEST PUSH1 0x0 DUP1 DUP4 PUSH1 0x1F DUP5 ADD SLT PUSH2 0x25F5 JUMPI PUSH1 0x0 DUP1 REVERT JUMPDEST POP DUP2 CALLDATALOAD PUSH1 0x1 PUSH1 0x1 PUSH1 0x40 SHL SUB DUP2 GT ISZERO PUSH2 0x260C JUMPI PUSH1 0x0 DUP1 REVERT JUMPDEST PUSH1 0x20 DUP4 ADD SWAP2 POP DUP4 PUSH1 0x20 DUP3 PUSH1 0x5 SHL DUP6 ADD ADD GT ISZERO PUSH2 0x237C JUMPI PUSH1 0x0 DUP1 REVERT JUMPDEST DUP1 ISZERO ISZERO DUP2 EQ PUSH2 0x2551 JUMPI PUSH1 0x0 DUP1 REVERT JUMPDEST DUP1 CALLDATALOAD PUSH2 0x2640 DUP2 PUSH2 0x2627 JUMP JUMPDEST SWAP2 SWAP1 POP JUMP JUMPDEST PUSH1 0x0 DUP1 PUSH1 0x0 DUP1 PUSH1 0x0 PUSH1 0x80 DUP7 DUP9 SUB SLT ISZERO PUSH2 0x265D JUMPI PUSH1 0x0 DUP1 REVERT JUMPDEST DUP6 CALLDATALOAD PUSH2 0x2668 DUP2 PUSH2 0x25CE JUMP JUMPDEST SWAP5 POP PUSH1 0x20 DUP7 ADD CALLDATALOAD PUSH1 0x1 PUSH1 0x1 PUSH1 0x40 SHL SUB DUP2 GT ISZERO PUSH2 0x2683 JUMPI PUSH1 0x0 DUP1 REVERT JUMPDEST PUSH2 0x268F DUP9 DUP3 DUP10 ADD PUSH2 0x25E3 JUMP JUMPDEST SWAP1 SWAP6 POP SWAP4 POP POP PUSH1 0x40 DUP7 ADD CALLDATALOAD SWAP2 POP PUSH1 0x60 DUP7 ADD CALLDATALOAD PUSH2 0x26AA DUP2 PUSH2 0x2627 JUMP JUMPDEST DUP1 SWAP2 POP POP SWAP3 SWAP6 POP SWAP3 SWAP6 SWAP1 SWAP4 POP JUMP JUMPDEST PUSH4 0x4E487B71 PUSH1 0xE0 SHL PUSH1 0x0 MSTORE PUSH1 0x41 PUSH1 0x4 MSTORE PUSH1 0x24 PUSH1 0x0 REVERT JUMPDEST PUSH1 0x40 DUP1 MLOAD SWAP1 DUP2 ADD PUSH1 0x1 PUSH1 0x1 PUSH1 0x40 SHL SUB DUP2 GT DUP3 DUP3 LT OR ISZERO PUSH2 0x26F0 JUMPI PUSH2 0x26F0 PUSH2 0x26B8 JUMP JUMPDEST PUSH1 0x40 MSTORE SWAP1 JUMP JUMPDEST PUSH1 0x40 MLOAD PUSH1 0x1F DUP3 ADD PUSH1 0x1F NOT AND DUP2 ADD PUSH1 0x1 PUSH1 0x1 PUSH1 0x40 SHL SUB DUP2 GT DUP3 DUP3 LT OR ISZERO PUSH2 0x271E JUMPI PUSH2 0x271E PUSH2 0x26B8 JUMP JUMPDEST PUSH1 0x40 MSTORE SWAP2 SWAP1 POP JUMP JUMPDEST PUSH1 0x0 PUSH1 0x1 PUSH1 0x1 PUSH1 0x40 SHL SUB DUP3 GT ISZERO PUSH2 0x273F JUMPI PUSH2 0x273F PUSH2 0x26B8 JUMP JUMPDEST POP PUSH1 0x5 SHL PUSH1 0x20 ADD SWAP1 JUMP JUMPDEST PUSH1 0x0 DUP3 PUSH1 0x1F DUP4 ADD SLT PUSH2 0x275A JUMPI PUSH1 0x0 DUP1 REVERT JUMPDEST DUP2 CALLDATALOAD PUSH1 0x1 PUSH1 0x1 PUSH1 0x40 SHL SUB DUP2 GT ISZERO PUSH2 0x2773 JUMPI PUSH2 0x2773 PUSH2 0x26B8 JUMP JUMPDEST PUSH2 0x2786 PUSH1 0x1F DUP3 ADD PUSH1 0x1F NOT AND PUSH1 0x20 ADD PUSH2 0x26F6 JUMP JUMPDEST DUP2 DUP2 MSTORE DUP5 PUSH1 0x20 DUP4 DUP7 ADD ADD GT ISZERO PUSH2 0x279B JUMPI PUSH1 0x0 DUP1 REVERT JUMPDEST DUP2 PUSH1 0x20 DUP6 ADD PUSH1 0x20 DUP4 ADD CALLDATACOPY PUSH1 0x0 SWAP2 DUP2 ADD PUSH1 0x20 ADD SWAP2 SWAP1 SWAP2 MSTORE SWAP4 SWAP3 POP POP POP JUMP JUMPDEST PUSH1 0x0 DUP1 PUSH1 0x0 DUP1 PUSH1 0x0 DUP1 PUSH1 0xA0 DUP8 DUP10 SUB SLT ISZERO PUSH2 0x27D1 JUMPI PUSH1 0x0 DUP1 REVERT JUMPDEST PUSH2 0x27DB DUP8 CALLDATALOAD PUSH2 0x25CE JUMP JUMPDEST DUP7 CALLDATALOAD SWAP6 POP PUSH1 0x1 PUSH1 0x1 PUSH1 0x40 SHL SUB PUSH1 0x20 DUP9 ADD CALLDATALOAD GT ISZERO PUSH2 0x27F7 JUMPI PUSH1 0x0 DUP1 REVERT JUMPDEST PUSH2 0x2807 DUP9 PUSH1 0x20 DUP10 ADD CALLDATALOAD DUP10 ADD PUSH2 0x25E3 JUMP JUMPDEST SWAP1 SWAP6 POP SWAP4 POP PUSH1 0x40 DUP8 ADD CALLDATALOAD SWAP3 POP PUSH1 0x1 PUSH1 0x1 PUSH1 0x40 SHL SUB PUSH1 0x60 DUP9 ADD CALLDATALOAD GT ISZERO PUSH2 0x282B JUMPI PUSH1 0x0 DUP1 REVERT JUMPDEST PUSH1 0x60 DUP8 ADD CALLDATALOAD DUP8 ADD DUP9 PUSH1 0x1F DUP3 ADD SLT PUSH2 0x2841 JUMPI PUSH1 0x0 DUP1 REVERT JUMPDEST PUSH2 0x2853 PUSH2 0x284E DUP3 CALLDATALOAD PUSH2 0x2726 JUMP JUMPDEST PUSH2 0x26F6 JUMP JUMPDEST DUP2 CALLDATALOAD DUP1 DUP3 MSTORE PUSH1 0x20 DUP1 DUP4 ADD SWAP3 SWAP2 PUSH1 0x5 SHL DUP5 ADD ADD DUP12 LT ISZERO PUSH2 0x2871 JUMPI PUSH1 0x0 DUP1 REVERT JUMPDEST PUSH1 0x20 DUP4 ADD JUMPDEST PUSH1 0x20 DUP5 CALLDATALOAD PUSH1 0x5 SHL DUP6 ADD ADD DUP2 LT ISZERO PUSH2 0x2916 JUMPI PUSH1 0x1 PUSH1 0x1 PUSH1 0x40 SHL SUB DUP2 CALLDATALOAD GT ISZERO PUSH2 0x289C JUMPI PUSH1 0x0 DUP1 REVERT JUMPDEST DUP1 CALLDATALOAD DUP5 ADD PUSH1 0x40 DUP2 DUP15 SUB PUSH1 0x1F NOT ADD SLT ISZERO PUSH2 0x28B4 JUMPI PUSH1 0x0 DUP1 REVERT JUMPDEST PUSH2 0x28BC PUSH2 0x26CE JUMP JUMPDEST PUSH2 0x28C9 PUSH1 0x20 DUP4 ADD CALLDATALOAD PUSH2 0x25CE JUMP JUMPDEST PUSH1 0x20 DUP3 ADD CALLDATALOAD DUP2 MSTORE PUSH1 0x1 PUSH1 0x1 PUSH1 0x40 SHL SUB PUSH1 0x40 DUP4 ADD CALLDATALOAD GT ISZERO PUSH2 0x28E8 JUMPI PUSH1 0x0 DUP1 REVERT JUMPDEST PUSH2 0x28FB DUP15 PUSH1 0x20 PUSH1 0x40 DUP6 ADD CALLDATALOAD DUP6 ADD ADD PUSH2 0x2749 JUMP JUMPDEST PUSH1 0x20 DUP3 ADD MSTORE DUP1 DUP6 MSTORE POP POP PUSH1 0x20 DUP4 ADD SWAP3 POP PUSH1 0x20 DUP2 ADD SWAP1 POP PUSH2 0x2876 JUMP JUMPDEST POP SWAP4 POP PUSH2 0x2928 SWAP2 POP POP PUSH1 0x80 DUP9 ADD PUSH2 0x2635 JUMP JUMPDEST SWAP1 POP SWAP3 SWAP6 POP SWAP3 SWAP6 POP SWAP3 SWAP6 JUMP JUMPDEST PUSH1 0x0 DUP1 PUSH1 0x0 DUP1 PUSH1 0x80 DUP6 DUP8 SUB SLT ISZERO PUSH2 0x294A JUMPI PUSH1 0x0 DUP1 REVERT JUMPDEST DUP5 CALLDATALOAD PUSH2 0x2955 DUP2 PUSH2 0x25CE JUMP JUMPDEST SWAP4 POP PUSH1 0x20 DUP6 ADD CALLDATALOAD PUSH2 0x2965 DUP2 PUSH2 0x25CE JUMP JUMPDEST SWAP3 POP PUSH1 0x40 DUP6 ADD CALLDATALOAD PUSH2 0x2975 DUP2 PUSH2 0x25CE JUMP JUMPDEST SWAP4 SWAP7 SWAP3 SWAP6 POP SWAP3 SWAP4 PUSH1 0x60 ADD CALLDATALOAD SWAP3 POP POP JUMP JUMPDEST PUSH1 0x0 DUP1 PUSH1 0x0 DUP1 PUSH1 0x0 PUSH1 0x80 DUP7 DUP9 SUB SLT ISZERO PUSH2 0x299D JUMPI PUSH1 0x0 DUP1 REVERT JUMPDEST DUP6 CALLDATALOAD PUSH2 0x29A8 DUP2 PUSH2 0x25CE JUMP JUMPDEST SWAP5 POP PUSH1 0x20 DUP7 ADD CALLDATALOAD PUSH1 0x1 PUSH1 0x1 PUSH1 0x40 SHL SUB DUP2 GT ISZERO PUSH2 0x29C3 JUMPI PUSH1 0x0 DUP1 REVERT JUMPDEST PUSH2 0x29CF DUP9 DUP3 DUP10 ADD PUSH2 0x25E3 JUMP JUMPDEST SWAP7 SWAP10 SWAP1 SWAP9 POP SWAP6 SWAP7 PUSH1 0x40 DUP2 ADD CALLDATALOAD SWAP7 PUSH1 0x60 SWAP1 SWAP2 ADD CALLDATALOAD SWAP6 POP SWAP4 POP POP POP POP JUMP JUMPDEST PUSH1 0x0 JUMPDEST DUP4 DUP2 LT ISZERO PUSH2 0x2A06 JUMPI DUP2 DUP2 ADD MLOAD DUP4 DUP3 ADD MSTORE PUSH1 0x20 ADD PUSH2 0x29EE JUMP JUMPDEST POP POP PUSH1 0x0 SWAP2 ADD MSTORE JUMP JUMPDEST PUSH1 0x0 DUP2 MLOAD DUP1 DUP5 MSTORE PUSH2 0x2A27 DUP2 PUSH1 0x20 DUP7 ADD PUSH1 0x20 DUP7 ADD PUSH2 0x29EB JUMP JUMPDEST PUSH1 0x1F ADD PUSH1 0x1F NOT AND SWAP3 SWAP1 SWAP3 ADD PUSH1 0x20 ADD SWAP3 SWAP2 POP POP JUMP JUMPDEST PUSH1 0x20 DUP2 MSTORE PUSH1 0x0 PUSH2 0x1DE0 PUSH1 0x20 DUP4 ADD DUP5 PUSH2 0x2A0F JUMP JUMPDEST PUSH1 0x0 PUSH1 0x20 DUP3 DUP5 SUB SLT ISZERO PUSH2 0x2A60 JUMPI PUSH1 0x0 DUP1 REVERT JUMPDEST DUP2 CALLDATALOAD PUSH2 0x1DE0 DUP2 PUSH2 0x25CE JUMP JUMPDEST PUSH1 0x0 DUP1 PUSH1 0x0 DUP1 PUSH1 0x0 PUSH1 0x80 DUP7 DUP9 SUB SLT ISZERO PUSH2 0x2A83 JUMPI PUSH1 0x0 DUP1 REVERT JUMPDEST DUP6 CALLDATALOAD PUSH2 0x2A8E DUP2 PUSH2 0x25CE JUMP JUMPDEST SWAP5 POP PUSH1 0x20 DUP7 ADD CALLDATALOAD PUSH2 0x2A9E DUP2 PUSH2 0x25CE JUMP JUMPDEST SWAP4 POP PUSH1 0x40 DUP7 ADD CALLDATALOAD PUSH1 0x1 PUSH1 0x1 PUSH1 0x40 SHL SUB DUP2 GT ISZERO PUSH2 0x2AB9 JUMPI PUSH1 0x0 DUP1 REVERT JUMPDEST PUSH2 0x2AC5 DUP9 DUP3 DUP10 ADD PUSH2 0x25E3 JUMP JUMPDEST SWAP7 SWAP10 SWAP6 SWAP9 POP SWAP7 PUSH1 0x60 ADD CALLDATALOAD SWAP5 SWAP4 POP POP POP POP JUMP JUMPDEST PUSH1 0x0 DUP2 MLOAD DUP1 DUP5 MSTORE PUSH1 0x20 DUP1 DUP6 ADD SWAP5 POP DUP1 DUP5 ADD PUSH1 0x0 JUMPDEST DUP4 DUP2 LT ISZERO PUSH2 0x2B10 JUMPI DUP2 MLOAD PUSH1 0x1 PUSH1 0x1 PUSH1 0xA0 SHL SUB AND DUP8 MSTORE SWAP6 DUP3 ADD SWAP6 SWAP1 DUP3 ADD SWAP1 PUSH1 0x1 ADD PUSH2 0x2AEB JUMP JUMPDEST POP SWAP5 SWAP6 SWAP5 POP POP POP POP POP JUMP JUMPDEST PUSH1 0x20 DUP2 MSTORE DUP2 MLOAD PUSH1 0x20 DUP3 ADD MSTORE PUSH1 0x20 DUP3 ADD MLOAD PUSH1 0x40 DUP3 ADD MSTORE PUSH1 0x1 PUSH1 0x1 PUSH1 0x40 SHL SUB PUSH1 0x40 DUP4 ADD MLOAD AND PUSH1 0x60 DUP3 ADD MSTORE PUSH1 0x0 PUSH1 0x60 DUP4 ADD MLOAD PUSH1 0x80 DUP1 DUP5 ADD MSTORE PUSH2 0x2B5D PUSH1 0xA0 DUP5 ADD DUP3 PUSH2 0x2AD7 JUMP JUMPDEST SWAP5 SWAP4 POP POP POP POP JUMP JUMPDEST PUSH1 0x0 DUP1 PUSH1 0x40 DUP4 DUP6 SUB SLT ISZERO PUSH2 0x2B78 JUMPI PUSH1 0x0 DUP1 REVERT JUMPDEST DUP3 CALLDATALOAD PUSH2 0x2B83 DUP2 PUSH2 0x25CE JUMP JUMPDEST SWAP5 PUSH1 0x20 SWAP4 SWAP1 SWAP4 ADD CALLDATALOAD SWAP4 POP POP POP JUMP JUMPDEST PUSH1 0x0 DUP1 PUSH1 0x0 DUP1 PUSH1 0x60 DUP6 DUP8 SUB SLT ISZERO PUSH2 0x2BA7 JUMPI PUSH1 0x0 DUP1 REVERT JUMPDEST DUP5 CALLDATALOAD PUSH2 0x2BB2 DUP2 PUSH2 0x25CE JUMP JUMPDEST SWAP4 POP PUSH1 0x20 DUP6 ADD CALLDATALOAD PUSH1 0x1 PUSH1 0x1 PUSH1 0x40 SHL SUB DUP2 GT ISZERO PUSH2 0x2BCD JUMPI PUSH1 0x0 DUP1 REVERT JUMPDEST PUSH2 0x2BD9 DUP8 DUP3 DUP9 ADD PUSH2 0x25E3 JUMP JUMPDEST SWAP6 SWAP9 SWAP1 SWAP8 POP SWAP5 SWAP6 PUSH1 0x40 ADD CALLDATALOAD SWAP5 SWAP4 POP POP POP POP JUMP JUMPDEST PUSH1 0x0 DUP1 PUSH1 0x0 PUSH1 0x60 DUP5 DUP7 SUB SLT ISZERO PUSH2 0x2C01 JUMPI PUSH1 0x0 DUP1 REVERT JUMPDEST DUP4 CALLDATALOAD PUSH2 0x2C0C DUP2 PUSH2 0x25CE JUMP JUMPDEST SWAP3 POP PUSH1 0x20 DUP5 ADD CALLDATALOAD PUSH2 0x2C1C DUP2 PUSH2 0x25CE JUMP JUMPDEST SWAP3 SWAP6 SWAP3 SWAP5 POP POP POP PUSH1 0x40 SWAP2 SWAP1 SWAP2 ADD CALLDATALOAD SWAP1 JUMP JUMPDEST PUSH1 0x0 DUP1 PUSH1 0x0 DUP1 PUSH1 0x80 DUP6 DUP8 SUB SLT ISZERO PUSH2 0x2C43 JUMPI PUSH1 0x0 DUP1 REVERT JUMPDEST DUP5 CALLDATALOAD PUSH2 0x2C4E DUP2 PUSH2 0x25CE JUMP JUMPDEST SWAP4 POP PUSH1 0x20 DUP6 ADD CALLDATALOAD SWAP3 POP PUSH1 0x40 DUP6 ADD CALLDATALOAD PUSH2 0x2C65 DUP2 PUSH2 0x25CE JUMP JUMPDEST SWAP2 POP PUSH1 0x60 DUP6 ADD CALLDATALOAD PUSH1 0x1 PUSH1 0x1 PUSH1 0x40 SHL SUB DUP2 GT ISZERO PUSH2 0x2C80 JUMPI PUSH1 0x0 DUP1 REVERT JUMPDEST PUSH2 0x2C8C DUP8 DUP3 DUP9 ADD PUSH2 0x2749 JUMP JUMPDEST SWAP2 POP POP SWAP3 SWAP6 SWAP2 SWAP5 POP SWAP3 POP JUMP JUMPDEST PUSH1 0x0 DUP1 PUSH1 0x40 DUP4 DUP6 SUB SLT ISZERO PUSH2 0x2CAB JUMPI PUSH1 0x0 DUP1 REVERT JUMPDEST DUP3 CALLDATALOAD PUSH2 0x2CB6 DUP2 PUSH2 0x25CE JUMP JUMPDEST SWAP2 POP PUSH1 0x20 DUP4 ADD CALLDATALOAD PUSH2 0x2CC6 DUP2 PUSH2 0x25CE JUMP JUMPDEST DUP1 SWAP2 POP POP SWAP3 POP SWAP3 SWAP1 POP JUMP JUMPDEST PUSH1 0x20 DUP2 MSTORE PUSH1 0x0 PUSH2 0x1DE0 PUSH1 0x20 DUP4 ADD DUP5 PUSH2 0x2AD7 JUMP JUMPDEST PUSH4 0x4E487B71 PUSH1 0xE0 SHL PUSH1 0x0 MSTORE PUSH1 0x32 PUSH1 0x4 MSTORE PUSH1 0x24 PUSH1 0x0 REVERT JUMPDEST PUSH4 0x4E487B71 PUSH1 0xE0 SHL PUSH1 0x0 MSTORE PUSH1 0x11 PUSH1 0x4 MSTORE PUSH1 0x24 PUSH1 0x0 REVERT JUMPDEST PUSH1 0x0 PUSH1 0x1 DUP3 ADD PUSH2 0x2D22 JUMPI PUSH2 0x2D22 PUSH2 0x2CFA JUMP JUMPDEST POP PUSH1 0x1 ADD SWAP1 JUMP JUMPDEST PUSH1 0x20 DUP1 DUP3 MSTORE PUSH1 0x12 SWAP1 DUP3 ADD MSTORE PUSH18 0x12D4D34C0C481D5B985D5D1A1BDC9A5E9959 PUSH1 0x72 SHL PUSH1 0x40 DUP3 ADD MSTORE PUSH1 0x60 ADD SWAP1 JUMP JUMPDEST PUSH1 0x0 PUSH1 0x20 DUP3 DUP5 SUB SLT ISZERO PUSH2 0x2D67 JUMPI PUSH1 0x0 DUP1 REVERT JUMPDEST POP MLOAD SWAP2 SWAP1 POP JUMP JUMPDEST DUP2 DUP2 SUB DUP2 DUP2 GT ISZERO PUSH2 0x1BF9 JUMPI PUSH2 0x1BF9 PUSH2 0x2CFA JUMP JUMPDEST PUSH1 0x0 DUP2 DUP5 DUP3 JUMPDEST DUP6 DUP2 LT ISZERO PUSH2 0x2DB8 JUMPI DUP2 CALLDATALOAD PUSH2 0x2D9A DUP2 PUSH2 0x25CE JUMP JUMPDEST PUSH1 0x1 PUSH1 0x1 PUSH1 0xA0 SHL SUB AND DUP4 MSTORE PUSH1 0x20 SWAP3 DUP4 ADD SWAP3 SWAP2 SWAP1 SWAP2 ADD SWAP1 PUSH1 0x1 ADD PUSH2 0x2D87 JUMP JUMPDEST POP SWAP1 SWAP6 SWAP5 POP POP POP POP POP JUMP JUMPDEST PUSH1 0x0 PUSH1 0x20 DUP1 DUP4 DUP6 SUB SLT ISZERO PUSH2 0x2DD6 JUMPI PUSH1 0x0 DUP1 REVERT JUMPDEST DUP3 MLOAD PUSH1 0x1 PUSH1 0x1 PUSH1 0x40 SHL SUB DUP2 GT ISZERO PUSH2 0x2DEC JUMPI PUSH1 0x0 DUP1 REVERT JUMPDEST DUP4 ADD PUSH1 0x1F DUP2 ADD DUP6 SGT PUSH2 0x2DFD JUMPI PUSH1 0x0 DUP1 REVERT JUMPDEST DUP1 MLOAD PUSH2 0x2E0B PUSH2 0x284E DUP3 PUSH2 0x2726 JUMP JUMPDEST DUP2 DUP2 MSTORE PUSH1 0x5 SWAP2 SWAP1 SWAP2 SHL DUP3 ADD DUP4 ADD SWAP1 DUP4 DUP2 ADD SWAP1 DUP8 DUP4 GT ISZERO PUSH2 0x2E2A JUMPI PUSH1 0x0 DUP1 REVERT JUMPDEST SWAP3 DUP5 ADD SWAP3 JUMPDEST DUP3 DUP5 LT ISZERO PUSH2 0x2E51 JUMPI DUP4 MLOAD PUSH2 0x2E42 DUP2 PUSH2 0x25CE JUMP JUMPDEST DUP3 MSTORE SWAP3 DUP5 ADD SWAP3 SWAP1 DUP5 ADD SWAP1 PUSH2 0x2E2F JUMP JUMPDEST SWAP8 SWAP7 POP POP POP POP POP POP POP JUMP JUMPDEST PUSH4 0x4E487B71 PUSH1 0xE0 SHL PUSH1 0x0 MSTORE PUSH1 0x21 PUSH1 0x4 MSTORE PUSH1 0x24 PUSH1 0x0 REVERT JUMPDEST PUSH1 0x1 DUP1 PUSH1 0xA0 SHL SUB DUP6 AND DUP2 MSTORE DUP4 PUSH1 0x20 DUP3 ADD MSTORE PUSH1 0x80 PUSH1 0x40 DUP3 ADD MSTORE PUSH1 0x0 PUSH2 0x2E99 PUSH1 0x80 DUP4 ADD DUP6 PUSH2 0x2A0F JUMP JUMPDEST SWAP1 POP PUSH1 0x2 DUP4 LT PUSH2 0x2EB9 JUMPI PUSH4 0x4E487B71 PUSH1 0xE0 SHL PUSH1 0x0 MSTORE PUSH1 0x21 PUSH1 0x4 MSTORE PUSH1 0x24 PUSH1 0x0 REVERT JUMPDEST DUP3 PUSH1 0x60 DUP4 ADD MSTORE SWAP6 SWAP5 POP POP POP POP POP JUMP JUMPDEST PUSH1 0x0 PUSH1 0x20 DUP3 DUP5 SUB SLT ISZERO PUSH2 0x2EDA JUMPI PUSH1 0x0 DUP1 REVERT JUMPDEST DUP2 MLOAD PUSH2 0x1DE0 DUP2 PUSH2 0x2627 JUMP JUMPDEST PUSH1 0x0 DUP2 PUSH2 0x2EF4 JUMPI PUSH2 0x2EF4 PUSH2 0x2CFA JUMP JUMPDEST POP PUSH1 0x0 NOT ADD SWAP1 JUMP JUMPDEST DUP2 MLOAD PUSH1 0x0 SWAP1 DUP3 SWAP1 PUSH1 0x20 DUP1 DUP7 ADD DUP5 JUMPDEST DUP4 DUP2 LT ISZERO PUSH2 0x2F2F JUMPI DUP2 MLOAD PUSH1 0x1 PUSH1 0x1 PUSH1 0xA0 SHL SUB AND DUP6 MSTORE SWAP4 DUP3 ADD SWAP4 SWAP1 DUP3 ADD SWAP1 PUSH1 0x1 ADD PUSH2 0x2F0A JUMP JUMPDEST POP SWAP3 SWAP7 SWAP6 POP POP POP POP POP POP JUMP JUMPDEST PUSH1 0x0 DUP3 MLOAD PUSH2 0x2F4D DUP2 DUP5 PUSH1 0x20 DUP8 ADD PUSH2 0x29EB JUMP JUMPDEST SWAP2 SWAP1 SWAP2 ADD SWAP3 SWAP2 POP POP JUMP JUMPDEST DUP1 DUP3 ADD DUP1 DUP3 GT ISZERO PUSH2 0x1BF9 JUMPI PUSH2 0x1BF9 PUSH2 0x2CFA JUMP JUMPDEST DUP3 DUP2 MSTORE PUSH1 0x40 PUSH1 0x20 DUP3 ADD MSTORE PUSH1 0x0 PUSH2 0x2B5D PUSH1 0x40 DUP4 ADD DUP5 PUSH2 0x2A0F JUMP INVALID LOG2 PUSH5 0x6970667358 0x22 SLT KECCAK256 PUSH4 0x10DE186A 0xDD 0x2F PUSH27 0x97BE39E4972A64544B5F35EFDCE0A29719FC54E187BFB1C864736F PUSH13 0x63430008120033000000000000 "
		},
		"gasEstimates": {
			"creation": {
				"codeDepositCost": "2443400",
				"executionCost": "infinite",
				"totalCost": "infinite"
			},
			"external": {
				"DOMAIN_SEPARATOR_TYPEHASH()": "274",
				"EXECUTE_RECOVERY_TYPEHASH()": "229",
				"NAME()": "infinite",
				"VERSION()": "infinite",
				"addGuardianWithThreshold(address,address,uint256)": "infinite",
				"cancelRecovery(address)": "infinite",
				"changeThreshold(address,uint256)": "infinite",
				"confirmRecovery(address,address[],uint256,bool)": "infinite",
				"domainSeparator()": "infinite",
				"encodeRecoveryData(address,address[],uint256,uint256)": "infinite",
				"executeRecovery(address,address[],uint256)": "infinite",
				"finalizeRecovery(address)": "infinite",
				"getChainId()": "225",
				"getGuardians(address)": "infinite",
				"getNonce(address)": "2669",
				"getRecoveryApprovals(address,address[],uint256)": "infinite",
				"getRecoveryHash(address,address[],uint256,uint256)": "infinite",
				"getRecoveryRequest(address)": "infinite",
				"guardiansCount(address)": "infinite",
				"hasGuardianApproved(address,address,address[],uint256)": "infinite",
				"isGuardian(address,address)": "infinite",
				"multiConfirmRecovery(address,address[],uint256,(address,bytes)[],bool)": "infinite",
				"revokeGuardianWithThreshold(address,address,address,uint256)": "infinite",
				"threshold(address)": "infinite",
				"validateGuardianSignature(address,bytes32,address,bytes)": "infinite"
			},
			"internal": {
				"_executeRecovery(address,address[] calldata,uint256,uint256)": "infinite"
			}
		},
		"methodIdentifiers": {
			"DOMAIN_SEPARATOR_TYPEHASH()": "1db61b54",
			"EXECUTE_RECOVERY_TYPEHASH()": "c7eae5a2",
			"NAME()": "a3f4df7e",
			"VERSION()": "ffa1ad74",
			"addGuardianWithThreshold(address,address,uint256)": "9b890b70",
			"cancelRecovery(address)": "c90db447",
			"changeThreshold(address,uint256)": "57cfebbc",
			"confirmRecovery(address,address[],uint256,bool)": "064e2d0e",
			"domainSeparator()": "f698da25",
			"encodeRecoveryData(address,address[],uint256,uint256)": "1e01c4f0",
			"executeRecovery(address,address[],uint256)": "b1f85f69",
			"finalizeRecovery(address)": "315a7af3",
			"getChainId()": "3408e470",
			"getGuardians(address)": "f18858ab",
			"getNonce(address)": "2d0335ab",
			"getRecoveryApprovals(address,address[],uint256)": "6c6595ca",
			"getRecoveryHash(address,address[],uint256,uint256)": "5f19df08",
			"getRecoveryRequest(address)": "4f9a28b9",
			"guardiansCount(address)": "c026e7ee",
			"hasGuardianApproved(address,address,address[],uint256)": "37d82c36",
			"isGuardian(address,address)": "d4ee9734",
			"multiConfirmRecovery(address,address[],uint256,(address,bytes)[],bool)": "0728e1e7",
			"revokeGuardianWithThreshold(address,address,address,uint256)": "1a0487a0",
			"threshold(address)": "c86ec2bf",
			"validateGuardianSignature(address,bytes32,address,bytes)": "b00c57c5"
		}
	},
	"abi": [
		{
			"anonymous": false,
			"inputs": [
				{
					"indexed": true,
					"internalType": "address",
					"name": "wallet",
					"type": "address"
				},
				{
					"indexed": true,
					"internalType": "address",
					"name": "guardian",
					"type": "address"
				},
				{
					"indexed": false,
					"internalType": "uint256",
					"name": "threshold",
					"type": "uint256"
				}
			],
			"name": "GuardianAdded",
			"type": "event"
		},
		{
			"anonymous": false,
			"inputs": [
				{
					"indexed": true,
					"internalType": "address",
					"name": "wallet",
					"type": "address"
				},
				{
					"indexed": true,
					"internalType": "address",
					"name": "guardian",
					"type": "address"
				},
				{
					"indexed": false,
					"internalType": "uint256",
					"name": "threshold",
					"type": "uint256"
				}
			],
			"name": "GuardianRevoked",
			"type": "event"
		},
		{
			"anonymous": false,
			"inputs": [
				{
					"indexed": true,
					"internalType": "address",
					"name": "wallet",
					"type": "address"
				},
				{
					"indexed": false,
					"internalType": "uint256",
					"name": "nonce",
					"type": "uint256"
				}
			],
			"name": "RecoveryCanceled",
			"type": "event"
		},
		{
			"anonymous": false,
			"inputs": [
				{
					"indexed": true,
					"internalType": "address",
					"name": "wallet",
					"type": "address"
				},
				{
					"indexed": true,
					"internalType": "address[]",
					"name": "newOwners",
					"type": "address[]"
				},
				{
					"indexed": false,
					"internalType": "uint256",
					"name": "newThreshold",
					"type": "uint256"
				},
				{
					"indexed": false,
					"internalType": "uint256",
					"name": "nonce",
					"type": "uint256"
				},
				{
					"indexed": false,
					"internalType": "uint64",
					"name": "executeAfter",
					"type": "uint64"
				},
				{
					"indexed": false,
					"internalType": "uint256",
					"name": "guardiansApprovalCount",
					"type": "uint256"
				}
			],
			"name": "RecoveryExecuted",
			"type": "event"
		},
		{
			"anonymous": false,
			"inputs": [
				{
					"indexed": true,
					"internalType": "address",
					"name": "wallet",
					"type": "address"
				},
				{
					"indexed": true,
					"internalType": "address[]",
					"name": "newOwners",
					"type": "address[]"
				},
				{
					"indexed": false,
					"internalType": "uint256",
					"name": "newThreshold",
					"type": "uint256"
				},
				{
					"indexed": false,
					"internalType": "uint256",
					"name": "nonce",
					"type": "uint256"
				}
			],
			"name": "RecoveryFinalized",
			"type": "event"
		},
		{
			"inputs": [
				{
					"internalType": "address",
					"name": "_wallet",
					"type": "address"
				},
				{
					"internalType": "address",
					"name": "_guardian",
					"type": "address"
				},
				{
					"internalType": "uint256",
					"name": "_threshold",
					"type": "uint256"
				}
			],
			"name": "addGuardianWithThreshold",
			"outputs": [],
			"stateMutability": "nonpayable",
			"type": "function"
		},
		{
			"inputs": [
				{
					"internalType": "address",
					"name": "_wallet",
					"type": "address"
				}
			],
			"name": "cancelRecovery",
			"outputs": [],
			"stateMutability": "nonpayable",
			"type": "function"
		},
		{
			"inputs": [
				{
					"internalType": "address",
					"name": "_wallet",
					"type": "address"
				},
				{
					"internalType": "uint256",
					"name": "_threshold",
					"type": "uint256"
				}
			],
			"name": "changeThreshold",
			"outputs": [],
			"stateMutability": "nonpayable",
			"type": "function"
		},
		{
			"inputs": [
				{
					"internalType": "address",
					"name": "_wallet",
					"type": "address"
				},
				{
					"internalType": "address[]",
					"name": "_newOwners",
					"type": "address[]"
				},
				{
					"internalType": "uint256",
					"name": "_newThreshold",
					"type": "uint256"
				},
				{
					"internalType": "bool",
					"name": "_execute",
					"type": "bool"
				}
			],
			"name": "confirmRecovery",
			"outputs": [],
			"stateMutability": "nonpayable",
			"type": "function"
		},
		{
			"inputs": [
				{
					"internalType": "address",
					"name": "_wallet",
					"type": "address"
				},
				{
					"internalType": "address[]",
					"name": "_newOwners",
					"type": "address[]"
				},
				{
					"internalType": "uint256",
					"name": "_newThreshold",
					"type": "uint256"
				}
			],
			"name": "executeRecovery",
			"outputs": [],
			"stateMutability": "nonpayable",
			"type": "function"
		},
		{
			"inputs": [
				{
					"internalType": "address",
					"name": "_wallet",
					"type": "address"
				}
			],
			"name": "finalizeRecovery",
			"outputs": [],
			"stateMutability": "nonpayable",
			"type": "function"
		},
		{
			"inputs": [
				{
					"internalType": "address",
					"name": "_wallet",
					"type": "address"
				},
				{
					"internalType": "address[]",
					"name": "_newOwners",
					"type": "address[]"
				},
				{
					"internalType": "uint256",
					"name": "_newThreshold",
					"type": "uint256"
				},
				{
					"components": [
						{
							"internalType": "address",
							"name": "signer",
							"type": "address"
						},
						{
							"internalType": "bytes",
							"name": "signature",
							"type": "bytes"
						}
					],
					"internalType": "struct KaijuAccountRecoveryModule.SignatureData[]",
					"name": "_signatures",
					"type": "tuple[]"
				},
				{
					"internalType": "bool",
					"name": "_execute",
					"type": "bool"
				}
			],
			"name": "multiConfirmRecovery",
			"outputs": [],
			"stateMutability": "nonpayable",
			"type": "function"
		},
		{
			"inputs": [
				{
					"internalType": "address",
					"name": "_wallet",
					"type": "address"
				},
				{
					"internalType": "address",
					"name": "_prevGuardian",
					"type": "address"
				},
				{
					"internalType": "address",
					"name": "_guardian",
					"type": "address"
				},
				{
					"internalType": "uint256",
					"name": "_threshold",
					"type": "uint256"
				}
			],
			"name": "revokeGuardianWithThreshold",
			"outputs": [],
			"stateMutability": "nonpayable",
			"type": "function"
		},
		{
			"inputs": [
				{
					"internalType": "contract IGuardianStorage",
					"name": "_guardianStorage",
					"type": "address"
				},
				{
					"internalType": "uint256",
					"name": "_recoveryPeriod",
					"type": "uint256"
				}
			],
			"stateMutability": "nonpayable",
			"type": "constructor"
		},
		{
			"inputs": [],
			"name": "DOMAIN_SEPARATOR_TYPEHASH",
			"outputs": [
				{
					"internalType": "bytes32",
					"name": "",
					"type": "bytes32"
				}
			],
			"stateMutability": "view",
			"type": "function"
		},
		{
			"inputs": [],
			"name": "domainSeparator",
			"outputs": [
				{
					"internalType": "bytes32",
					"name": "",
					"type": "bytes32"
				}
			],
			"stateMutability": "view",
			"type": "function"
		},
		{
			"inputs": [
				{
					"internalType": "address",
					"name": "_wallet",
					"type": "address"
				},
				{
					"internalType": "address[]",
					"name": "_newOwners",
					"type": "address[]"
				},
				{
					"internalType": "uint256",
					"name": "_newThreshold",
					"type": "uint256"
				},
				{
					"internalType": "uint256",
					"name": "_nonce",
					"type": "uint256"
				}
			],
			"name": "encodeRecoveryData",
			"outputs": [
				{
					"internalType": "bytes",
					"name": "",
					"type": "bytes"
				}
			],
			"stateMutability": "view",
			"type": "function"
		},
		{
			"inputs": [],
			"name": "EXECUTE_RECOVERY_TYPEHASH",
			"outputs": [
				{
					"internalType": "bytes32",
					"name": "",
					"type": "bytes32"
				}
			],
			"stateMutability": "view",
			"type": "function"
		},
		{
			"inputs": [],
			"name": "getChainId",
			"outputs": [
				{
					"internalType": "uint256",
					"name": "",
					"type": "uint256"
				}
			],
			"stateMutability": "view",
			"type": "function"
		},
		{
			"inputs": [
				{
					"internalType": "address",
					"name": "_wallet",
					"type": "address"
				}
			],
			"name": "getGuardians",
			"outputs": [
				{
					"internalType": "address[]",
					"name": "_guardians",
					"type": "address[]"
				}
			],
			"stateMutability": "view",
			"type": "function"
		},
		{
			"inputs": [
				{
					"internalType": "address",
					"name": "_wallet",
					"type": "address"
				}
			],
			"name": "getNonce",
			"outputs": [
				{
					"internalType": "uint256",
					"name": "_nonce",
					"type": "uint256"
				}
			],
			"stateMutability": "view",
			"type": "function"
		},
		{
			"inputs": [
				{
					"internalType": "address",
					"name": "_wallet",
					"type": "address"
				},
				{
					"internalType": "address[]",
					"name": "_newOwners",
					"type": "address[]"
				},
				{
					"internalType": "uint256",
					"name": "_newThreshold",
					"type": "uint256"
				}
			],
			"name": "getRecoveryApprovals",
			"outputs": [
				{
					"internalType": "uint256",
					"name": "approvalCount",
					"type": "uint256"
				}
			],
			"stateMutability": "view",
			"type": "function"
		},
		{
			"inputs": [
				{
					"internalType": "address",
					"name": "_wallet",
					"type": "address"
				},
				{
					"internalType": "address[]",
					"name": "_newOwners",
					"type": "address[]"
				},
				{
					"internalType": "uint256",
					"name": "_newThreshold",
					"type": "uint256"
				},
				{
					"internalType": "uint256",
					"name": "_nonce",
					"type": "uint256"
				}
			],
			"name": "getRecoveryHash",
			"outputs": [
				{
					"internalType": "bytes32",
					"name": "",
					"type": "bytes32"
				}
			],
			"stateMutability": "view",
			"type": "function"
		},
		{
			"inputs": [
				{
					"internalType": "address",
					"name": "_wallet",
					"type": "address"
				}
			],
			"name": "getRecoveryRequest",
			"outputs": [
				{
					"components": [
						{
							"internalType": "uint256",
							"name": "guardiansApprovalCount",
							"type": "uint256"
						},
						{
							"internalType": "uint256",
							"name": "newThreshold",
							"type": "uint256"
						},
						{
							"internalType": "uint64",
							"name": "executeAfter",
							"type": "uint64"
						},
						{
							"internalType": "address[]",
							"name": "newOwners",
							"type": "address[]"
						}
					],
					"internalType": "struct RecoveryRequestManager.RecoveryRequest",
					"name": "request",
					"type": "tuple"
				}
			],
			"stateMutability": "view",
			"type": "function"
		},
		{
			"inputs": [
				{
					"internalType": "address",
					"name": "_wallet",
					"type": "address"
				}
			],
			"name": "guardiansCount",
			"outputs": [
				{
					"internalType": "uint256",
					"name": "_count",
					"type": "uint256"
				}
			],
			"stateMutability": "view",
			"type": "function"
		},
		{
			"inputs": [
				{
					"internalType": "address",
					"name": "_wallet",
					"type": "address"
				},
				{
					"internalType": "address",
					"name": "_guardian",
					"type": "address"
				},
				{
					"internalType": "address[]",
					"name": "_newOwners",
					"type": "address[]"
				},
				{
					"internalType": "uint256",
					"name": "_newThreshold",
					"type": "uint256"
				}
			],
			"name": "hasGuardianApproved",
			"outputs": [
				{
					"internalType": "bool",
					"name": "",
					"type": "bool"
				}
			],
			"stateMutability": "view",
			"type": "function"
		},
		{
			"inputs": [
				{
					"internalType": "address",
					"name": "_wallet",
					"type": "address"
				},
				{
					"internalType": "address",
					"name": "_guardian",
					"type": "address"
				}
			],
			"name": "isGuardian",
			"outputs": [
				{
					"internalType": "bool",
					"name": "_isGuardian",
					"type": "bool"
				}
			],
			"stateMutability": "view",
			"type": "function"
		},
		{
			"inputs": [],
			"name": "NAME",
			"outputs": [
				{
					"internalType": "string",
					"name": "",
					"type": "string"
				}
			],
			"stateMutability": "view",
			"type": "function"
		},
		{
			"inputs": [
				{
					"internalType": "address",
					"name": "_wallet",
					"type": "address"
				}
			],
			"name": "threshold",
			"outputs": [
				{
					"internalType": "uint256",
					"name": "_threshold",
					"type": "uint256"
				}
			],
			"stateMutability": "view",
			"type": "function"
		},
		{
			"inputs": [
				{
					"internalType": "address",
					"name": "_wallet",
					"type": "address"
				},
				{
					"internalType": "bytes32",
					"name": "_signHash",
					"type": "bytes32"
				},
				{
					"internalType": "address",
					"name": "_signer",
					"type": "address"
				},
				{
					"internalType": "bytes",
					"name": "_signature",
					"type": "bytes"
				}
			],
			"name": "validateGuardianSignature",
			"outputs": [],
			"stateMutability": "view",
			"type": "function"
		},
		{
			"inputs": [],
			"name": "VERSION",
			"outputs": [
				{
					"internalType": "string",
					"name": "",
					"type": "string"
				}
			],
			"stateMutability": "view",
			"type": "function"
		}
	]
}