{
	"contracts/game-2048/KaijuGameFactory.sol": {
		"KaijuGameFactory": {
			"abi": [
				{
					"inputs": [
						{
							"internalType": "address",
							"name": "_dateTimeContract",
							"type": "address"
						},
						{
							"internalType": "address",
							"name": "_byteCodeExecutorAddress",
							"type": "address"
						},
						{
							"internalType": "address",
							"name": "_gameNFTContract",
							"type": "address"
						}
					],
					"stateMutability": "nonpayable",
					"type": "constructor"
				},
				{
					"anonymous": false,
					"inputs": [
						{
							"indexed": true,
							"internalType": "string",
							"name": "_gameId",
							"type": "string"
						},
						{
							"indexed": false,
							"internalType": "uint256",
							"name": "_randomNumber",
							"type": "uint256"
						}
					],
					"name": "GetRandomNumber",
					"type": "event"
				},
				{
					"anonymous": false,
					"inputs": [
						{
							"indexed": true,
							"internalType": "string",
							"name": "_gameId",
							"type": "string"
						},
						{
							"indexed": false,
							"internalType": "bool",
							"name": "_isValid",
							"type": "bool"
						},
						{
							"indexed": false,
							"internalType": "uint256",
							"name": "_FEScore",
							"type": "uint256"
						},
						{
							"indexed": false,
							"internalType": "uint256",
							"name": "_contractScore",
							"type": "uint256"
						}
					],
					"name": "Verify2048Game",
					"type": "event"
				},
				{
					"inputs": [],
					"name": "SINGAPORE_TIME_DIFF",
					"outputs": [
						{
							"internalType": "uint256",
							"name": "",
							"type": "uint256"
						}
					],
					"stateMutability": "view",
					"type": "function"
				},
				{
					"inputs": [
						{
							"components": [
								{
									"internalType": "address",
									"name": "player",
									"type": "address"
								},
								{
									"internalType": "string",
									"name": "gameId",
									"type": "string"
								},
								{
									"internalType": "uint256",
									"name": "score",
									"type": "uint256"
								},
								{
									"internalType": "uint256",
									"name": "timestamp",
									"type": "uint256"
								}
							],
							"internalType": "struct KaijuGameFactory.gameObject",
							"name": "game",
							"type": "tuple"
						},
						{
							"internalType": "uint256",
							"name": "currentTimestamp",
							"type": "uint256"
						}
					],
					"name": "addToLeaderBoard",
					"outputs": [],
					"stateMutability": "nonpayable",
					"type": "function"
				},
				{
					"inputs": [
						{
							"internalType": "string",
							"name": "",
							"type": "string"
						}
					],
					"name": "gameIdToRandom",
					"outputs": [
						{
							"internalType": "uint256",
							"name": "",
							"type": "uint256"
						}
					],
					"stateMutability": "view",
					"type": "function"
				},
				{
					"inputs": [],
					"name": "getDailyWinner",
					"outputs": [
						{
							"components": [
								{
									"internalType": "address",
									"name": "player",
									"type": "address"
								},
								{
									"internalType": "string",
									"name": "gameId",
									"type": "string"
								},
								{
									"internalType": "uint256",
									"name": "score",
									"type": "uint256"
								},
								{
									"internalType": "uint256",
									"name": "timestamp",
									"type": "uint256"
								}
							],
							"internalType": "struct KaijuGameFactory.gameObject",
							"name": "",
							"type": "tuple"
						}
					],
					"stateMutability": "view",
					"type": "function"
				},
				{
					"inputs": [],
					"name": "getLeaderBoard",
					"outputs": [
						{
							"components": [
								{
									"internalType": "address",
									"name": "player",
									"type": "address"
								},
								{
									"internalType": "string",
									"name": "gameId",
									"type": "string"
								},
								{
									"internalType": "uint256",
									"name": "score",
									"type": "uint256"
								},
								{
									"internalType": "uint256",
									"name": "timestamp",
									"type": "uint256"
								}
							],
							"internalType": "struct KaijuGameFactory.gameObject[]",
							"name": "",
							"type": "tuple[]"
						}
					],
					"stateMutability": "view",
					"type": "function"
				},
				{
					"inputs": [
						{
							"internalType": "uint16",
							"name": "year",
							"type": "uint16"
						},
						{
							"internalType": "uint8",
							"name": "month",
							"type": "uint8"
						},
						{
							"internalType": "uint8",
							"name": "day",
							"type": "uint8"
						}
					],
					"name": "getLeaderBoardByDate",
					"outputs": [
						{
							"components": [
								{
									"internalType": "address",
									"name": "player",
									"type": "address"
								},
								{
									"internalType": "string",
									"name": "gameId",
									"type": "string"
								},
								{
									"internalType": "uint256",
									"name": "score",
									"type": "uint256"
								},
								{
									"internalType": "uint256",
									"name": "timestamp",
									"type": "uint256"
								}
							],
							"internalType": "struct KaijuGameFactory.gameObject[]",
							"name": "",
							"type": "tuple[]"
						}
					],
					"stateMutability": "view",
					"type": "function"
				},
				{
					"inputs": [
						{
							"internalType": "address",
							"name": "player",
							"type": "address"
						}
					],
					"name": "getPersonalBest",
					"outputs": [
						{
							"internalType": "uint256",
							"name": "",
							"type": "uint256"
						}
					],
					"stateMutability": "view",
					"type": "function"
				},
				{
					"inputs": [
						{
							"internalType": "string",
							"name": "gameId",
							"type": "string"
						}
					],
					"name": "getRandomNumber",
					"outputs": [
						{
							"internalType": "uint256",
							"name": "",
							"type": "uint256"
						}
					],
					"stateMutability": "nonpayable",
					"type": "function"
				},
				{
					"inputs": [
						{
							"internalType": "uint256",
							"name": "_timestamp",
							"type": "uint256"
						}
					],
					"name": "getYearMonthDate",
					"outputs": [
						{
							"internalType": "uint16",
							"name": "",
							"type": "uint16"
						},
						{
							"internalType": "uint8",
							"name": "",
							"type": "uint8"
						},
						{
							"internalType": "uint8",
							"name": "",
							"type": "uint8"
						}
					],
					"stateMutability": "view",
					"type": "function"
				},
				{
					"inputs": [
						{
							"internalType": "bytes",
							"name": "",
							"type": "bytes"
						}
					],
					"name": "leaderBoardByDate",
					"outputs": [
						{
							"internalType": "bytes",
							"name": "",
							"type": "bytes"
						}
					],
					"stateMutability": "view",
					"type": "function"
				},
				{
					"inputs": [],
					"name": "owner",
					"outputs": [
						{
							"internalType": "address",
							"name": "",
							"type": "address"
						}
					],
					"stateMutability": "view",
					"type": "function"
				},
				{
					"inputs": [
						{
							"internalType": "address",
							"name": "",
							"type": "address"
						}
					],
					"name": "playerPersonalBest",
					"outputs": [
						{
							"internalType": "uint256",
							"name": "",
							"type": "uint256"
						}
					],
					"stateMutability": "view",
					"type": "function"
				},
				{
					"inputs": [
						{
							"internalType": "address",
							"name": "_byteCodeExecutorAddress",
							"type": "address"
						}
					],
					"name": "setGameContractAddress",
					"outputs": [],
					"stateMutability": "nonpayable",
					"type": "function"
				},
				{
					"inputs": [
						{
							"internalType": "string",
							"name": "_gameId",
							"type": "string"
						},
						{
							"internalType": "uint256",
							"name": "_FEScore",
							"type": "uint256"
						},
						{
							"internalType": "bytes",
							"name": "_gameData",
							"type": "bytes"
						},
						{
							"internalType": "string",
							"name": "_cid",
							"type": "string"
						}
					],
					"name": "verify2048game",
					"outputs": [
						{
							"internalType": "string",
							"name": "",
							"type": "string"
						},
						{
							"internalType": "bool",
							"name": "",
							"type": "bool"
						}
					],
					"stateMutability": "nonpayable",
					"type": "function"
				}
			],
			"devdoc": {
				"kind": "dev",
				"methods": {},
				"version": 1
			},
			"evm": {
				"assembly": "    /* \"contracts/game-2048/KaijuGameFactory.sol\":196:6389  contract KaijuGameFactory {... */\n  mstore(0x40, 0x80)\n    /* \"contracts/game-2048/KaijuGameFactory.sol\":395:400  false */\n  0x00\n    /* \"contracts/game-2048/KaijuGameFactory.sol\":380:400  bool isValid = false */\n  0x04\n  exp(0x0100, 0x14)\n  dup2\n  sload\n  dup2\n  0xff\n  mul\n  not\n  and\n  swap1\n  dup4\n  iszero\n  iszero\n  mul\n  or\n  swap1\n  sstore\n  pop\n    /* \"contracts/game-2048/KaijuGameFactory.sol\":936:1274  constructor(address _dateTimeContract, address _byteCodeExecutorAddress, address _gameNFTContract) {... */\n  callvalue\n  dup1\n  iszero\n  tag_1\n  jumpi\n  0x00\n  dup1\n  revert\ntag_1:\n  pop\n  mload(0x40)\n  sub(codesize, bytecodeSize)\n  dup1\n  bytecodeSize\n  dup4\n  codecopy\n  dup2\n  dup2\n  add\n  0x40\n  mstore\n  dup2\n  add\n  swap1\n  tag_2\n  swap2\n  swap1\n  tag_3\n  jump\t// in\ntag_2:\n    /* \"contracts/game-2048/KaijuGameFactory.sol\":1053:1063  msg.sender */\n  caller\n    /* \"contracts/game-2048/KaijuGameFactory.sol\":1045:1050  owner */\n  0x02\n  0x00\n    /* \"contracts/game-2048/KaijuGameFactory.sol\":1045:1063  owner = msg.sender */\n  0x0100\n  exp\n  dup2\n  sload\n  dup2\n  0xffffffffffffffffffffffffffffffffffffffff\n  mul\n  not\n  and\n  swap1\n  dup4\n  0xffffffffffffffffffffffffffffffffffffffff\n  and\n  mul\n  or\n  swap1\n  sstore\n  pop\n    /* \"contracts/game-2048/KaijuGameFactory.sol\":1093:1110  _dateTimeContract */\n  dup3\n    /* \"contracts/game-2048/KaijuGameFactory.sol\":1073:1081  dateTime */\n  0x00\n  dup1\n    /* \"contracts/game-2048/KaijuGameFactory.sol\":1073:1111  dateTime = DateTime(_dateTimeContract) */\n  0x0100\n  exp\n  dup2\n  sload\n  dup2\n  0xffffffffffffffffffffffffffffffffffffffff\n  mul\n  not\n  and\n  swap1\n  dup4\n  0xffffffffffffffffffffffffffffffffffffffff\n  and\n  mul\n  or\n  swap1\n  sstore\n  pop\n    /* \"contracts/game-2048/KaijuGameFactory.sol\":1158:1174  _gameNFTContract */\n  dup1\n    /* \"contracts/game-2048/KaijuGameFactory.sol\":1121:1137  kaiju2048GameNFT */\n  0x01\n  0x00\n    /* \"contracts/game-2048/KaijuGameFactory.sol\":1121:1175  kaiju2048GameNFT = IKaiju2048GameNFT(_gameNFTContract) */\n  0x0100\n  exp\n  dup2\n  sload\n  dup2\n  0xffffffffffffffffffffffffffffffffffffffff\n  mul\n  not\n  and\n  swap1\n  dup4\n  0xffffffffffffffffffffffffffffffffffffffff\n  and\n  mul\n  or\n  swap1\n  sstore\n  pop\n    /* \"contracts/game-2048/KaijuGameFactory.sol\":1211:1235  _byteCodeExecutorAddress */\n  dup2\n    /* \"contracts/game-2048/KaijuGameFactory.sol\":1185:1208  byteCodeExecutorAddress */\n  0x04\n  0x00\n    /* \"contracts/game-2048/KaijuGameFactory.sol\":1185:1235  byteCodeExecutorAddress = _byteCodeExecutorAddress */\n  0x0100\n  exp\n  dup2\n  sload\n  dup2\n  0xffffffffffffffffffffffffffffffffffffffff\n  mul\n  not\n  and\n  swap1\n  dup4\n  0xffffffffffffffffffffffffffffffffffffffff\n  and\n  mul\n  or\n  swap1\n  sstore\n  pop\n    /* \"contracts/game-2048/KaijuGameFactory.sol\":1252:1267  block.timestamp */\n  timestamp\n    /* \"contracts/game-2048/KaijuGameFactory.sol\":1245:1249  seed */\n  0x03\n    /* \"contracts/game-2048/KaijuGameFactory.sol\":1245:1267  seed = block.timestamp */\n  dup2\n  swap1\n  sstore\n  pop\n    /* \"contracts/game-2048/KaijuGameFactory.sol\":936:1274  constructor(address _dateTimeContract, address _byteCodeExecutorAddress, address _gameNFTContract) {... */\n  pop\n  pop\n  pop\n    /* \"contracts/game-2048/KaijuGameFactory.sol\":196:6389  contract KaijuGameFactory {... */\n  jump(tag_6)\n    /* \"#utility.yul\":88:205   */\ntag_8:\n    /* \"#utility.yul\":197:198   */\n  0x00\n    /* \"#utility.yul\":194:195   */\n  dup1\n    /* \"#utility.yul\":187:199   */\n  revert\n    /* \"#utility.yul\":334:460   */\ntag_10:\n    /* \"#utility.yul\":371:378   */\n  0x00\n    /* \"#utility.yul\":411:453   */\n  0xffffffffffffffffffffffffffffffffffffffff\n    /* \"#utility.yul\":404:409   */\n  dup3\n    /* \"#utility.yul\":400:454   */\n  and\n    /* \"#utility.yul\":389:454   */\n  swap1\n  pop\n    /* \"#utility.yul\":334:460   */\n  swap2\n  swap1\n  pop\n  jump\t// out\n    /* \"#utility.yul\":466:562   */\ntag_11:\n    /* \"#utility.yul\":503:510   */\n  0x00\n    /* \"#utility.yul\":532:556   */\n  tag_20\n    /* \"#utility.yul\":550:555   */\n  dup3\n    /* \"#utility.yul\":532:556   */\n  tag_10\n  jump\t// in\ntag_20:\n    /* \"#utility.yul\":521:556   */\n  swap1\n  pop\n    /* \"#utility.yul\":466:562   */\n  swap2\n  swap1\n  pop\n  jump\t// out\n    /* \"#utility.yul\":568:690   */\ntag_12:\n    /* \"#utility.yul\":641:665   */\n  tag_22\n    /* \"#utility.yul\":659:664   */\n  dup2\n    /* \"#utility.yul\":641:665   */\n  tag_11\n  jump\t// in\ntag_22:\n    /* \"#utility.yul\":634:639   */\n  dup2\n    /* \"#utility.yul\":631:666   */\n  eq\n    /* \"#utility.yul\":621:684   */\n  tag_23\n  jumpi\n    /* \"#utility.yul\":680:681   */\n  0x00\n    /* \"#utility.yul\":677:678   */\n  dup1\n    /* \"#utility.yul\":670:682   */\n  revert\n    /* \"#utility.yul\":621:684   */\ntag_23:\n    /* \"#utility.yul\":568:690   */\n  pop\n  jump\t// out\n    /* \"#utility.yul\":696:839   */\ntag_13:\n    /* \"#utility.yul\":753:758   */\n  0x00\n    /* \"#utility.yul\":784:790   */\n  dup2\n    /* \"#utility.yul\":778:791   */\n  mload\n    /* \"#utility.yul\":769:791   */\n  swap1\n  pop\n    /* \"#utility.yul\":800:833   */\n  tag_25\n    /* \"#utility.yul\":827:832   */\n  dup2\n    /* \"#utility.yul\":800:833   */\n  tag_12\n  jump\t// in\ntag_25:\n    /* \"#utility.yul\":696:839   */\n  swap3\n  swap2\n  pop\n  pop\n  jump\t// out\n    /* \"#utility.yul\":845:1508   */\ntag_3:\n    /* \"#utility.yul\":933:939   */\n  0x00\n    /* \"#utility.yul\":941:947   */\n  dup1\n    /* \"#utility.yul\":949:955   */\n  0x00\n    /* \"#utility.yul\":998:1000   */\n  0x60\n    /* \"#utility.yul\":986:995   */\n  dup5\n    /* \"#utility.yul\":977:984   */\n  dup7\n    /* \"#utility.yul\":973:996   */\n  sub\n    /* \"#utility.yul\":969:1001   */\n  slt\n    /* \"#utility.yul\":966:1085   */\n  iszero\n  tag_27\n  jumpi\n    /* \"#utility.yul\":1004:1083   */\n  tag_28\n  tag_8\n  jump\t// in\ntag_28:\n    /* \"#utility.yul\":966:1085   */\ntag_27:\n    /* \"#utility.yul\":1124:1125   */\n  0x00\n    /* \"#utility.yul\":1149:1213   */\n  tag_29\n    /* \"#utility.yul\":1205:1212   */\n  dup7\n    /* \"#utility.yul\":1196:1202   */\n  dup3\n    /* \"#utility.yul\":1185:1194   */\n  dup8\n    /* \"#utility.yul\":1181:1203   */\n  add\n    /* \"#utility.yul\":1149:1213   */\n  tag_13\n  jump\t// in\ntag_29:\n    /* \"#utility.yul\":1139:1213   */\n  swap4\n  pop\n    /* \"#utility.yul\":1095:1223   */\n  pop\n    /* \"#utility.yul\":1262:1264   */\n  0x20\n    /* \"#utility.yul\":1288:1352   */\n  tag_30\n    /* \"#utility.yul\":1344:1351   */\n  dup7\n    /* \"#utility.yul\":1335:1341   */\n  dup3\n    /* \"#utility.yul\":1324:1333   */\n  dup8\n    /* \"#utility.yul\":1320:1342   */\n  add\n    /* \"#utility.yul\":1288:1352   */\n  tag_13\n  jump\t// in\ntag_30:\n    /* \"#utility.yul\":1278:1352   */\n  swap3\n  pop\n    /* \"#utility.yul\":1233:1362   */\n  pop\n    /* \"#utility.yul\":1401:1403   */\n  0x40\n    /* \"#utility.yul\":1427:1491   */\n  tag_31\n    /* \"#utility.yul\":1483:1490   */\n  dup7\n    /* \"#utility.yul\":1474:1480   */\n  dup3\n    /* \"#utility.yul\":1463:1472   */\n  dup8\n    /* \"#utility.yul\":1459:1481   */\n  add\n    /* \"#utility.yul\":1427:1491   */\n  tag_13\n  jump\t// in\ntag_31:\n    /* \"#utility.yul\":1417:1491   */\n  swap2\n  pop\n    /* \"#utility.yul\":1372:1501   */\n  pop\n    /* \"#utility.yul\":845:1508   */\n  swap3\n  pop\n  swap3\n  pop\n  swap3\n  jump\t// out\n    /* \"contracts/game-2048/KaijuGameFactory.sol\":196:6389  contract KaijuGameFactory {... */\ntag_6:\n  dataSize(sub_0)\n  dup1\n  dataOffset(sub_0)\n  0x00\n  codecopy\n  0x00\n  return\nstop\n\nsub_0: assembly {\n        /* \"contracts/game-2048/KaijuGameFactory.sol\":196:6389  contract KaijuGameFactory {... */\n      mstore(0x40, 0x80)\n      callvalue\n      dup1\n      iszero\n      tag_1\n      jumpi\n      0x00\n      dup1\n      revert\n    tag_1:\n      pop\n      jumpi(tag_2, lt(calldatasize, 0x04))\n      shr(0xe0, calldataload(0x00))\n      dup1\n      0x8da5cb5b\n      gt\n      tag_17\n      jumpi\n      dup1\n      0xc385a25b\n      gt\n      tag_18\n      jumpi\n      dup1\n      0xc385a25b\n      eq\n      tag_13\n      jumpi\n      dup1\n      0xcb15930d\n      eq\n      tag_14\n      jumpi\n      dup1\n      0xd305843c\n      eq\n      tag_15\n      jumpi\n      dup1\n      0xd88a4804\n      eq\n      tag_16\n      jumpi\n      jump(tag_2)\n    tag_18:\n      dup1\n      0x8da5cb5b\n      eq\n      tag_10\n      jumpi\n      dup1\n      0x9b9413d5\n      eq\n      tag_11\n      jumpi\n      dup1\n      0xc29d72bc\n      eq\n      tag_12\n      jumpi\n      jump(tag_2)\n    tag_17:\n      dup1\n      0x6b2a95c9\n      gt\n      tag_19\n      jumpi\n      dup1\n      0x6b2a95c9\n      eq\n      tag_6\n      jumpi\n      dup1\n      0x77f08cd6\n      eq\n      tag_7\n      jumpi\n      dup1\n      0x79aecd79\n      eq\n      tag_8\n      jumpi\n      dup1\n      0x7d6b1b2a\n      eq\n      tag_9\n      jumpi\n      jump(tag_2)\n    tag_19:\n      dup1\n      0x165402f0\n      eq\n      tag_3\n      jumpi\n      dup1\n      0x312c5866\n      eq\n      tag_4\n      jumpi\n      dup1\n      0x4fe815cd\n      eq\n      tag_5\n      jumpi\n    tag_2:\n      0x00\n      dup1\n      revert\n        /* \"contracts/game-2048/KaijuGameFactory.sol\":5618:5734  function getPersonalBest(address player) public view returns(uint){... */\n    tag_3:\n      tag_20\n      0x04\n      dup1\n      calldatasize\n      sub\n      dup2\n      add\n      swap1\n      tag_21\n      swap2\n      swap1\n      tag_22\n      jump\t// in\n    tag_21:\n      tag_23\n      jump\t// in\n    tag_20:\n      mload(0x40)\n      tag_24\n      swap2\n      swap1\n      tag_25\n      jump\t// in\n    tag_24:\n      mload(0x40)\n      dup1\n      swap2\n      sub\n      swap1\n      return\n        /* \"contracts/game-2048/KaijuGameFactory.sol\":406:454  uint constant public SINGAPORE_TIME_DIFF = 28800 */\n    tag_4:\n      tag_26\n      tag_27\n      jump\t// in\n    tag_26:\n      mload(0x40)\n      tag_28\n      swap2\n      swap1\n      tag_25\n      jump\t// in\n    tag_28:\n      mload(0x40)\n      dup1\n      swap2\n      sub\n      swap1\n      return\n        /* \"contracts/game-2048/KaijuGameFactory.sol\":699:747  mapping(string => uint256) public gameIdToRandom */\n    tag_5:\n      tag_29\n      0x04\n      dup1\n      calldatasize\n      sub\n      dup2\n      add\n      swap1\n      tag_30\n      swap2\n      swap1\n      tag_31\n      jump\t// in\n    tag_30:\n      tag_32\n      jump\t// in\n    tag_29:\n      mload(0x40)\n      tag_33\n      swap2\n      swap1\n      tag_25\n      jump\t// in\n    tag_33:\n      mload(0x40)\n      dup1\n      swap2\n      sub\n      swap1\n      return\n        /* \"contracts/game-2048/KaijuGameFactory.sol\":5996:6387  function getLeaderBoardByDate(uint16 year, uint8 month, uint8 day) public view returns (gameObject[] memory){... */\n    tag_6:\n      tag_34\n      0x04\n      dup1\n      calldatasize\n      sub\n      dup2\n      add\n      swap1\n      tag_35\n      swap2\n      swap1\n      tag_36\n      jump\t// in\n    tag_35:\n      tag_37\n      jump\t// in\n    tag_34:\n      mload(0x40)\n      tag_38\n      swap2\n      swap1\n      tag_39\n      jump\t// in\n    tag_38:\n      mload(0x40)\n      dup1\n      swap2\n      sub\n      swap1\n      return\n        /* \"contracts/game-2048/KaijuGameFactory.sol\":1412:1562  function setGameContractAddress(address _byteCodeExecutorAddress) public onlyOwner {... */\n    tag_7:\n      tag_40\n      0x04\n      dup1\n      calldatasize\n      sub\n      dup2\n      add\n      swap1\n      tag_41\n      swap2\n      swap1\n      tag_22\n      jump\t// in\n    tag_41:\n      tag_42\n      jump\t// in\n    tag_40:\n      stop\n        /* \"contracts/game-2048/KaijuGameFactory.sol\":4265:4547  function getYearMonthDate(uint _timestamp) public view returns(uint16, uint8, uint8){... */\n    tag_8:\n      tag_43\n      0x04\n      dup1\n      calldatasize\n      sub\n      dup2\n      add\n      swap1\n      tag_44\n      swap2\n      swap1\n      tag_45\n      jump\t// in\n    tag_44:\n      tag_46\n      jump\t// in\n    tag_43:\n      mload(0x40)\n      tag_47\n      swap4\n      swap3\n      swap2\n      swap1\n      tag_48\n      jump\t// in\n    tag_47:\n      mload(0x40)\n      dup1\n      swap2\n      sub\n      swap1\n      return\n        /* \"contracts/game-2048/KaijuGameFactory.sol\":2985:4259  function addToLeaderBoard(gameObject memory game, uint currentTimestamp) public {... */\n    tag_9:\n      tag_49\n      0x04\n      dup1\n      calldatasize\n      sub\n      dup2\n      add\n      swap1\n      tag_50\n      swap2\n      swap1\n      tag_51\n      jump\t// in\n    tag_50:\n      tag_52\n      jump\t// in\n    tag_49:\n      stop\n        /* \"contracts/game-2048/KaijuGameFactory.sol\":291:311  address public owner */\n    tag_10:\n      tag_53\n      tag_54\n      jump\t// in\n    tag_53:\n      mload(0x40)\n      tag_55\n      swap2\n      swap1\n      tag_56\n      jump\t// in\n    tag_55:\n      mload(0x40)\n      dup1\n      swap2\n      sub\n      swap1\n      return\n        /* \"contracts/game-2048/KaijuGameFactory.sol\":586:639  mapping(address => uint256) public playerPersonalBest */\n    tag_11:\n      tag_57\n      0x04\n      dup1\n      calldatasize\n      sub\n      dup2\n      add\n      swap1\n      tag_58\n      swap2\n      swap1\n      tag_22\n      jump\t// in\n    tag_58:\n      tag_59\n      jump\t// in\n    tag_57:\n      mload(0x40)\n      tag_60\n      swap2\n      swap1\n      tag_25\n      jump\t// in\n    tag_60:\n      mload(0x40)\n      dup1\n      swap2\n      sub\n      swap1\n      return\n        /* \"contracts/game-2048/KaijuGameFactory.sol\":5273:5612  function getLeaderBoard() public view returns (gameObject[] memory){... */\n    tag_12:\n      tag_61\n      tag_62\n      jump\t// in\n    tag_61:\n      mload(0x40)\n      tag_63\n      swap2\n      swap1\n      tag_39\n      jump\t// in\n    tag_63:\n      mload(0x40)\n      dup1\n      swap2\n      sub\n      swap1\n      return\n        /* \"contracts/game-2048/KaijuGameFactory.sol\":1914:2979  function verify2048game(string memory _gameId,uint256 _FEScore,bytes memory _gameData, string memory _cid) public returns(string memory, bool){... */\n    tag_13:\n      tag_64\n      0x04\n      dup1\n      calldatasize\n      sub\n      dup2\n      add\n      swap1\n      tag_65\n      swap2\n      swap1\n      tag_66\n      jump\t// in\n    tag_65:\n      tag_67\n      jump\t// in\n    tag_64:\n      mload(0x40)\n      tag_68\n      swap3\n      swap2\n      swap1\n      tag_69\n      jump\t// in\n    tag_68:\n      mload(0x40)\n      dup1\n      swap2\n      sub\n      swap1\n      return\n        /* \"contracts/game-2048/KaijuGameFactory.sol\":645:693  mapping(bytes => bytes) public leaderBoardByDate */\n    tag_14:\n      tag_70\n      0x04\n      dup1\n      calldatasize\n      sub\n      dup2\n      add\n      swap1\n      tag_71\n      swap2\n      swap1\n      tag_72\n      jump\t// in\n    tag_71:\n      tag_73\n      jump\t// in\n    tag_70:\n      mload(0x40)\n      tag_74\n      swap2\n      swap1\n      tag_75\n      jump\t// in\n    tag_74:\n      mload(0x40)\n      dup1\n      swap2\n      sub\n      swap1\n      return\n        /* \"contracts/game-2048/KaijuGameFactory.sol\":1568:1908  function getRandomNumber(string memory gameId) public returns(uint256){... */\n    tag_15:\n      tag_76\n      0x04\n      dup1\n      calldatasize\n      sub\n      dup2\n      add\n      swap1\n      tag_77\n      swap2\n      swap1\n      tag_31\n      jump\t// in\n    tag_77:\n      tag_78\n      jump\t// in\n    tag_76:\n      mload(0x40)\n      tag_79\n      swap2\n      swap1\n      tag_25\n      jump\t// in\n    tag_79:\n      mload(0x40)\n      dup1\n      swap2\n      sub\n      swap1\n      return\n        /* \"contracts/game-2048/KaijuGameFactory.sol\":5049:5267  function getDailyWinner() public view returns (gameObject memory){... */\n    tag_16:\n      tag_80\n      tag_81\n      jump\t// in\n    tag_80:\n      mload(0x40)\n      tag_82\n      swap2\n      swap1\n      tag_83\n      jump\t// in\n    tag_82:\n      mload(0x40)\n      dup1\n      swap2\n      sub\n      swap1\n      return\n        /* \"contracts/game-2048/KaijuGameFactory.sol\":5618:5734  function getPersonalBest(address player) public view returns(uint){... */\n    tag_23:\n        /* \"contracts/game-2048/KaijuGameFactory.sol\":5679:5683  uint */\n      0x00\n        /* \"contracts/game-2048/KaijuGameFactory.sol\":5701:5719  playerPersonalBest */\n      0x05\n        /* \"contracts/game-2048/KaijuGameFactory.sol\":5701:5727  playerPersonalBest[player] */\n      0x00\n        /* \"contracts/game-2048/KaijuGameFactory.sol\":5720:5726  player */\n      dup4\n        /* \"contracts/game-2048/KaijuGameFactory.sol\":5701:5727  playerPersonalBest[player] */\n      0xffffffffffffffffffffffffffffffffffffffff\n      and\n      0xffffffffffffffffffffffffffffffffffffffff\n      and\n      dup2\n      mstore\n      0x20\n      add\n      swap1\n      dup2\n      mstore\n      0x20\n      add\n      0x00\n      keccak256\n      sload\n        /* \"contracts/game-2048/KaijuGameFactory.sol\":5694:5727  return playerPersonalBest[player] */\n      swap1\n      pop\n        /* \"contracts/game-2048/KaijuGameFactory.sol\":5618:5734  function getPersonalBest(address player) public view returns(uint){... */\n      swap2\n      swap1\n      pop\n      jump\t// out\n        /* \"contracts/game-2048/KaijuGameFactory.sol\":406:454  uint constant public SINGAPORE_TIME_DIFF = 28800 */\n    tag_27:\n        /* \"contracts/game-2048/KaijuGameFactory.sol\":449:454  28800 */\n      0x7080\n        /* \"contracts/game-2048/KaijuGameFactory.sol\":406:454  uint constant public SINGAPORE_TIME_DIFF = 28800 */\n      dup2\n      jump\t// out\n        /* \"contracts/game-2048/KaijuGameFactory.sol\":699:747  mapping(string => uint256) public gameIdToRandom */\n    tag_32:\n      0x07\n      dup2\n      dup1\n      mload\n      0x20\n      dup2\n      add\n      dup3\n      add\n      dup1\n      mload\n      dup5\n      dup3\n      mstore\n      0x20\n      dup4\n      add\n      0x20\n      dup6\n      add\n      keccak256\n      dup2\n      dup4\n      mstore\n      dup1\n      swap6\n      pop\n      pop\n      pop\n      pop\n      pop\n      pop\n      0x00\n      swap2\n      pop\n      swap1\n      pop\n      sload\n      dup2\n      jump\t// out\n        /* \"contracts/game-2048/KaijuGameFactory.sol\":5996:6387  function getLeaderBoardByDate(uint16 year, uint8 month, uint8 day) public view returns (gameObject[] memory){... */\n    tag_37:\n        /* \"contracts/game-2048/KaijuGameFactory.sol\":6084:6103  gameObject[] memory */\n      0x60\n        /* \"contracts/game-2048/KaijuGameFactory.sol\":6114:6131  bytes memory date */\n      0x00\n        /* \"contracts/game-2048/KaijuGameFactory.sol\":6145:6149  year */\n      dup5\n        /* \"contracts/game-2048/KaijuGameFactory.sol\":6150:6155  month */\n      dup5\n        /* \"contracts/game-2048/KaijuGameFactory.sol\":6156:6159  day */\n      dup5\n        /* \"contracts/game-2048/KaijuGameFactory.sol\":6134:6160  abi.encode(year,month,day) */\n      add(0x20, mload(0x40))\n      tag_86\n      swap4\n      swap3\n      swap2\n      swap1\n      tag_48\n      jump\t// in\n    tag_86:\n      mload(0x40)\n      0x20\n      dup2\n      dup4\n      sub\n      sub\n      dup2\n      mstore\n      swap1\n      0x40\n      mstore\n        /* \"contracts/game-2048/KaijuGameFactory.sol\":6114:6160  bytes memory date = abi.encode(year,month,day) */\n      swap1\n      pop\n        /* \"contracts/game-2048/KaijuGameFactory.sol\":6170:6185  bytes memory lb */\n      0x00\n        /* \"contracts/game-2048/KaijuGameFactory.sol\":6188:6205  leaderBoardByDate */\n      0x06\n        /* \"contracts/game-2048/KaijuGameFactory.sol\":6206:6210  date */\n      dup3\n        /* \"contracts/game-2048/KaijuGameFactory.sol\":6188:6211  leaderBoardByDate[date] */\n      mload(0x40)\n      tag_87\n      swap2\n      swap1\n      tag_88\n      jump\t// in\n    tag_87:\n      swap1\n      dup2\n      mstore\n      0x20\n      add\n      mload(0x40)\n      dup1\n      swap2\n      sub\n      swap1\n      keccak256\n        /* \"contracts/game-2048/KaijuGameFactory.sol\":6170:6211  bytes memory lb = leaderBoardByDate[date] */\n      dup1\n      sload\n      tag_89\n      swap1\n      tag_90\n      jump\t// in\n    tag_89:\n      dup1\n      0x1f\n      add\n      0x20\n      dup1\n      swap2\n      div\n      mul\n      0x20\n      add\n      mload(0x40)\n      swap1\n      dup2\n      add\n      0x40\n      mstore\n      dup1\n      swap3\n      swap2\n      swap1\n      dup2\n      dup2\n      mstore\n      0x20\n      add\n      dup3\n      dup1\n      sload\n      tag_91\n      swap1\n      tag_90\n      jump\t// in\n    tag_91:\n      dup1\n      iszero\n      tag_92\n      jumpi\n      dup1\n      0x1f\n      lt\n      tag_93\n      jumpi\n      0x0100\n      dup1\n      dup4\n      sload\n      div\n      mul\n      dup4\n      mstore\n      swap2\n      0x20\n      add\n      swap2\n      jump(tag_92)\n    tag_93:\n      dup3\n      add\n      swap2\n      swap1\n      0x00\n      mstore\n      keccak256(0x00, 0x20)\n      swap1\n    tag_94:\n      dup2\n      sload\n      dup2\n      mstore\n      swap1\n      0x01\n      add\n      swap1\n      0x20\n      add\n      dup1\n      dup4\n      gt\n      tag_94\n      jumpi\n      dup3\n      swap1\n      sub\n      0x1f\n      and\n      dup3\n      add\n      swap2\n    tag_92:\n      pop\n      pop\n      pop\n      pop\n      pop\n      swap1\n      pop\n        /* \"contracts/game-2048/KaijuGameFactory.sol\":6241:6242  0 */\n      0x00\n        /* \"contracts/game-2048/KaijuGameFactory.sol\":6229:6231  lb */\n      dup2\n        /* \"contracts/game-2048/KaijuGameFactory.sol\":6229:6238  lb.length */\n      mload\n        /* \"contracts/game-2048/KaijuGameFactory.sol\":6229:6242  lb.length > 0 */\n      gt\n        /* \"contracts/game-2048/KaijuGameFactory.sol\":6221:6291  require(lb.length > 0, \"Leaderboard not found for the specified date\") */\n      tag_95\n      jumpi\n      mload(0x40)\n      0x08c379a000000000000000000000000000000000000000000000000000000000\n      dup2\n      mstore\n      0x04\n      add\n      tag_96\n      swap1\n      tag_97\n      jump\t// in\n    tag_96:\n      mload(0x40)\n      dup1\n      swap2\n      sub\n      swap1\n      revert\n    tag_95:\n        /* \"contracts/game-2048/KaijuGameFactory.sol\":6301:6326  gameObject[] memory board */\n      0x00\n        /* \"contracts/game-2048/KaijuGameFactory.sol\":6340:6342  lb */\n      dup2\n        /* \"contracts/game-2048/KaijuGameFactory.sol\":6329:6358  abi.decode(lb,(gameObject[])) */\n      dup1\n      0x20\n      add\n      swap1\n      mload\n      dup2\n      add\n      swap1\n      tag_98\n      swap2\n      swap1\n      tag_99\n      jump\t// in\n    tag_98:\n        /* \"contracts/game-2048/KaijuGameFactory.sol\":6301:6358  gameObject[] memory board = abi.decode(lb,(gameObject[])) */\n      swap1\n      pop\n        /* \"contracts/game-2048/KaijuGameFactory.sol\":6375:6380  board */\n      dup1\n        /* \"contracts/game-2048/KaijuGameFactory.sol\":6368:6380  return board */\n      swap4\n      pop\n      pop\n      pop\n      pop\n        /* \"contracts/game-2048/KaijuGameFactory.sol\":5996:6387  function getLeaderBoardByDate(uint16 year, uint8 month, uint8 day) public view returns (gameObject[] memory){... */\n      swap4\n      swap3\n      pop\n      pop\n      pop\n      jump\t// out\n        /* \"contracts/game-2048/KaijuGameFactory.sol\":1412:1562  function setGameContractAddress(address _byteCodeExecutorAddress) public onlyOwner {... */\n    tag_42:\n        /* \"contracts/game-2048/KaijuGameFactory.sol\":1331:1336  owner */\n      0x02\n      0x00\n      swap1\n      sload\n      swap1\n      0x0100\n      exp\n      swap1\n      div\n      0xffffffffffffffffffffffffffffffffffffffff\n      and\n        /* \"contracts/game-2048/KaijuGameFactory.sol\":1317:1336  msg.sender == owner */\n      0xffffffffffffffffffffffffffffffffffffffff\n      and\n        /* \"contracts/game-2048/KaijuGameFactory.sol\":1317:1327  msg.sender */\n      caller\n        /* \"contracts/game-2048/KaijuGameFactory.sol\":1317:1336  msg.sender == owner */\n      0xffffffffffffffffffffffffffffffffffffffff\n      and\n      eq\n        /* \"contracts/game-2048/KaijuGameFactory.sol\":1309:1388  require(msg.sender == owner, \"Only the contract owner can call this function.\") */\n      tag_101\n      jumpi\n      mload(0x40)\n      0x08c379a000000000000000000000000000000000000000000000000000000000\n      dup2\n      mstore\n      0x04\n      add\n      tag_102\n      swap1\n      tag_103\n      jump\t// in\n    tag_102:\n      mload(0x40)\n      dup1\n      swap2\n      sub\n      swap1\n      revert\n    tag_101:\n        /* \"contracts/game-2048/KaijuGameFactory.sol\":1531:1555  _byteCodeExecutorAddress */\n      dup1\n        /* \"contracts/game-2048/KaijuGameFactory.sol\":1505:1528  byteCodeExecutorAddress */\n      0x04\n      0x00\n        /* \"contracts/game-2048/KaijuGameFactory.sol\":1505:1555  byteCodeExecutorAddress = _byteCodeExecutorAddress */\n      0x0100\n      exp\n      dup2\n      sload\n      dup2\n      0xffffffffffffffffffffffffffffffffffffffff\n      mul\n      not\n      and\n      swap1\n      dup4\n      0xffffffffffffffffffffffffffffffffffffffff\n      and\n      mul\n      or\n      swap1\n      sstore\n      pop\n        /* \"contracts/game-2048/KaijuGameFactory.sol\":1412:1562  function setGameContractAddress(address _byteCodeExecutorAddress) public onlyOwner {... */\n      pop\n      jump\t// out\n        /* \"contracts/game-2048/KaijuGameFactory.sol\":4265:4547  function getYearMonthDate(uint _timestamp) public view returns(uint16, uint8, uint8){... */\n    tag_46:\n        /* \"contracts/game-2048/KaijuGameFactory.sol\":4328:4334  uint16 */\n      0x00\n        /* \"contracts/game-2048/KaijuGameFactory.sol\":4336:4341  uint8 */\n      dup1\n        /* \"contracts/game-2048/KaijuGameFactory.sol\":4343:4348  uint8 */\n      0x00\n        /* \"contracts/game-2048/KaijuGameFactory.sol\":4359:4370  uint16 year */\n      dup1\n        /* \"contracts/game-2048/KaijuGameFactory.sol\":4373:4381  dateTime */\n      0x00\n      dup1\n      sload\n      swap1\n      0x0100\n      exp\n      swap1\n      div\n      0xffffffffffffffffffffffffffffffffffffffff\n      and\n        /* \"contracts/game-2048/KaijuGameFactory.sol\":4373:4389  dateTime.getYear */\n      0xffffffffffffffffffffffffffffffffffffffff\n      and\n      0x92d66313\n        /* \"contracts/game-2048/KaijuGameFactory.sol\":4390:4400  _timestamp */\n      dup7\n        /* \"contracts/game-2048/KaijuGameFactory.sol\":4373:4401  dateTime.getYear(_timestamp) */\n      mload(0x40)\n      dup3\n      0xffffffff\n      and\n      0xe0\n      shl\n      dup2\n      mstore\n      0x04\n      add\n      tag_106\n      swap2\n      swap1\n      tag_25\n      jump\t// in\n    tag_106:\n      0x20\n      mload(0x40)\n      dup1\n      dup4\n      sub\n      dup2\n      dup7\n      gas\n      staticcall\n      iszero\n      dup1\n      iszero\n      tag_108\n      jumpi\n      returndatasize\n      0x00\n      dup1\n      returndatacopy\n      revert(0x00, returndatasize)\n    tag_108:\n      pop\n      pop\n      pop\n      pop\n      mload(0x40)\n      returndatasize\n      not(0x1f)\n      0x1f\n      dup3\n      add\n      and\n      dup3\n      add\n      dup1\n      0x40\n      mstore\n      pop\n      dup2\n      add\n      swap1\n      tag_109\n      swap2\n      swap1\n      tag_110\n      jump\t// in\n    tag_109:\n        /* \"contracts/game-2048/KaijuGameFactory.sol\":4359:4401  uint16 year = dateTime.getYear(_timestamp) */\n      swap1\n      pop\n        /* \"contracts/game-2048/KaijuGameFactory.sol\":4411:4422  uint8 month */\n      0x00\n        /* \"contracts/game-2048/KaijuGameFactory.sol\":4425:4433  dateTime */\n      dup1\n      0x00\n      swap1\n      sload\n      swap1\n      0x0100\n      exp\n      swap1\n      div\n      0xffffffffffffffffffffffffffffffffffffffff\n      and\n        /* \"contracts/game-2048/KaijuGameFactory.sol\":4425:4442  dateTime.getMonth */\n      0xffffffffffffffffffffffffffffffffffffffff\n      and\n      0xa324ad24\n        /* \"contracts/game-2048/KaijuGameFactory.sol\":4443:4453  _timestamp */\n      dup8\n        /* \"contracts/game-2048/KaijuGameFactory.sol\":4425:4454  dateTime.getMonth(_timestamp) */\n      mload(0x40)\n      dup3\n      0xffffffff\n      and\n      0xe0\n      shl\n      dup2\n      mstore\n      0x04\n      add\n      tag_111\n      swap2\n      swap1\n      tag_25\n      jump\t// in\n    tag_111:\n      0x20\n      mload(0x40)\n      dup1\n      dup4\n      sub\n      dup2\n      dup7\n      gas\n      staticcall\n      iszero\n      dup1\n      iszero\n      tag_113\n      jumpi\n      returndatasize\n      0x00\n      dup1\n      returndatacopy\n      revert(0x00, returndatasize)\n    tag_113:\n      pop\n      pop\n      pop\n      pop\n      mload(0x40)\n      returndatasize\n      not(0x1f)\n      0x1f\n      dup3\n      add\n      and\n      dup3\n      add\n      dup1\n      0x40\n      mstore\n      pop\n      dup2\n      add\n      swap1\n      tag_114\n      swap2\n      swap1\n      tag_115\n      jump\t// in\n    tag_114:\n        /* \"contracts/game-2048/KaijuGameFactory.sol\":4411:4454  uint8 month = dateTime.getMonth(_timestamp) */\n      swap1\n      pop\n        /* \"contracts/game-2048/KaijuGameFactory.sol\":4464:4474  uint8 date */\n      0x00\n        /* \"contracts/game-2048/KaijuGameFactory.sol\":4477:4485  dateTime */\n      dup1\n      0x00\n      swap1\n      sload\n      swap1\n      0x0100\n      exp\n      swap1\n      div\n      0xffffffffffffffffffffffffffffffffffffffff\n      and\n        /* \"contracts/game-2048/KaijuGameFactory.sol\":4477:4492  dateTime.getDay */\n      0xffffffffffffffffffffffffffffffffffffffff\n      and\n      0x65c72840\n        /* \"contracts/game-2048/KaijuGameFactory.sol\":4493:4503  _timestamp */\n      dup9\n        /* \"contracts/game-2048/KaijuGameFactory.sol\":4477:4504  dateTime.getDay(_timestamp) */\n      mload(0x40)\n      dup3\n      0xffffffff\n      and\n      0xe0\n      shl\n      dup2\n      mstore\n      0x04\n      add\n      tag_116\n      swap2\n      swap1\n      tag_25\n      jump\t// in\n    tag_116:\n      0x20\n      mload(0x40)\n      dup1\n      dup4\n      sub\n      dup2\n      dup7\n      gas\n      staticcall\n      iszero\n      dup1\n      iszero\n      tag_118\n      jumpi\n      returndatasize\n      0x00\n      dup1\n      returndatacopy\n      revert(0x00, returndatasize)\n    tag_118:\n      pop\n      pop\n      pop\n      pop\n      mload(0x40)\n      returndatasize\n      not(0x1f)\n      0x1f\n      dup3\n      add\n      and\n      dup3\n      add\n      dup1\n      0x40\n      mstore\n      pop\n      dup2\n      add\n      swap1\n      tag_119\n      swap2\n      swap1\n      tag_115\n      jump\t// in\n    tag_119:\n        /* \"contracts/game-2048/KaijuGameFactory.sol\":4464:4504  uint8 date = dateTime.getDay(_timestamp) */\n      swap1\n      pop\n        /* \"contracts/game-2048/KaijuGameFactory.sol\":4522:4526  year */\n      dup3\n        /* \"contracts/game-2048/KaijuGameFactory.sol\":4528:4533  month */\n      dup3\n        /* \"contracts/game-2048/KaijuGameFactory.sol\":4535:4539  date */\n      dup3\n        /* \"contracts/game-2048/KaijuGameFactory.sol\":4514:4540  return (year, month, date) */\n      swap6\n      pop\n      swap6\n      pop\n      swap6\n      pop\n      pop\n      pop\n      pop\n        /* \"contracts/game-2048/KaijuGameFactory.sol\":4265:4547  function getYearMonthDate(uint _timestamp) public view returns(uint16, uint8, uint8){... */\n      swap2\n      swap4\n      swap1\n      swap3\n      pop\n      jump\t// out\n        /* \"contracts/game-2048/KaijuGameFactory.sol\":2985:4259  function addToLeaderBoard(gameObject memory game, uint currentTimestamp) public {... */\n    tag_52:\n        /* \"contracts/game-2048/KaijuGameFactory.sol\":3113:3117  game */\n      dup2\n        /* \"contracts/game-2048/KaijuGameFactory.sol\":3113:3123  game.score */\n      0x40\n      add\n      mload\n        /* \"contracts/game-2048/KaijuGameFactory.sol\":3079:3097  playerPersonalBest */\n      0x05\n        /* \"contracts/game-2048/KaijuGameFactory.sol\":3079:3110  playerPersonalBest[game.player] */\n      0x00\n        /* \"contracts/game-2048/KaijuGameFactory.sol\":3098:3102  game */\n      dup5\n        /* \"contracts/game-2048/KaijuGameFactory.sol\":3098:3109  game.player */\n      0x00\n      add\n      mload\n        /* \"contracts/game-2048/KaijuGameFactory.sol\":3079:3110  playerPersonalBest[game.player] */\n      0xffffffffffffffffffffffffffffffffffffffff\n      and\n      0xffffffffffffffffffffffffffffffffffffffff\n      and\n      dup2\n      mstore\n      0x20\n      add\n      swap1\n      dup2\n      mstore\n      0x20\n      add\n      0x00\n      keccak256\n      sload\n        /* \"contracts/game-2048/KaijuGameFactory.sol\":3079:3123  playerPersonalBest[game.player] < game.score */\n      lt\n        /* \"contracts/game-2048/KaijuGameFactory.sol\":3075:3193  if (playerPersonalBest[game.player] < game.score){... */\n      iszero\n      tag_121\n      jumpi\n        /* \"contracts/game-2048/KaijuGameFactory.sol\":3172:3176  game */\n      dup2\n        /* \"contracts/game-2048/KaijuGameFactory.sol\":3172:3182  game.score */\n      0x40\n      add\n      mload\n        /* \"contracts/game-2048/KaijuGameFactory.sol\":3138:3156  playerPersonalBest */\n      0x05\n        /* \"contracts/game-2048/KaijuGameFactory.sol\":3138:3169  playerPersonalBest[game.player] */\n      0x00\n        /* \"contracts/game-2048/KaijuGameFactory.sol\":3157:3161  game */\n      dup5\n        /* \"contracts/game-2048/KaijuGameFactory.sol\":3157:3168  game.player */\n      0x00\n      add\n      mload\n        /* \"contracts/game-2048/KaijuGameFactory.sol\":3138:3169  playerPersonalBest[game.player] */\n      0xffffffffffffffffffffffffffffffffffffffff\n      and\n      0xffffffffffffffffffffffffffffffffffffffff\n      and\n      dup2\n      mstore\n      0x20\n      add\n      swap1\n      dup2\n      mstore\n      0x20\n      add\n      0x00\n      keccak256\n        /* \"contracts/game-2048/KaijuGameFactory.sol\":3138:3182  playerPersonalBest[game.player] = game.score */\n      dup2\n      swap1\n      sstore\n      pop\n        /* \"contracts/game-2048/KaijuGameFactory.sol\":3075:3193  if (playerPersonalBest[game.player] < game.score){... */\n    tag_121:\n        /* \"contracts/game-2048/KaijuGameFactory.sol\":3203:3219  uint16 todayYear */\n      0x00\n        /* \"contracts/game-2048/KaijuGameFactory.sol\":3221:3237  uint8 todayMonth */\n      dup1\n        /* \"contracts/game-2048/KaijuGameFactory.sol\":3239:3254  uint8 todayDate */\n      0x00\n        /* \"contracts/game-2048/KaijuGameFactory.sol\":3258:3292  getYearMonthDate(currentTimestamp) */\n      tag_122\n        /* \"contracts/game-2048/KaijuGameFactory.sol\":3275:3291  currentTimestamp */\n      dup5\n        /* \"contracts/game-2048/KaijuGameFactory.sol\":3258:3274  getYearMonthDate */\n      tag_46\n        /* \"contracts/game-2048/KaijuGameFactory.sol\":3258:3292  getYearMonthDate(currentTimestamp) */\n      jump\t// in\n    tag_122:\n        /* \"contracts/game-2048/KaijuGameFactory.sol\":3202:3292  (uint16 todayYear, uint8 todayMonth, uint8 todayDate) = getYearMonthDate(currentTimestamp) */\n      swap3\n      pop\n      swap3\n      pop\n      swap3\n      pop\n        /* \"contracts/game-2048/KaijuGameFactory.sol\":3302:3319  bytes memory date */\n      0x00\n        /* \"contracts/game-2048/KaijuGameFactory.sol\":3333:3342  todayYear */\n      dup4\n        /* \"contracts/game-2048/KaijuGameFactory.sol\":3343:3353  todayMonth */\n      dup4\n        /* \"contracts/game-2048/KaijuGameFactory.sol\":3354:3363  todayDate */\n      dup4\n        /* \"contracts/game-2048/KaijuGameFactory.sol\":3322:3364  abi.encode(todayYear,todayMonth,todayDate) */\n      add(0x20, mload(0x40))\n      tag_123\n      swap4\n      swap3\n      swap2\n      swap1\n      tag_48\n      jump\t// in\n    tag_123:\n      mload(0x40)\n      0x20\n      dup2\n      dup4\n      sub\n      sub\n      dup2\n      mstore\n      swap1\n      0x40\n      mstore\n        /* \"contracts/game-2048/KaijuGameFactory.sol\":3302:3364  bytes memory date = abi.encode(todayYear,todayMonth,todayDate) */\n      swap1\n      pop\n        /* \"contracts/game-2048/KaijuGameFactory.sol\":3374:3389  bytes memory lb */\n      0x00\n        /* \"contracts/game-2048/KaijuGameFactory.sol\":3392:3409  leaderBoardByDate */\n      0x06\n        /* \"contracts/game-2048/KaijuGameFactory.sol\":3410:3414  date */\n      dup3\n        /* \"contracts/game-2048/KaijuGameFactory.sol\":3392:3415  leaderBoardByDate[date] */\n      mload(0x40)\n      tag_124\n      swap2\n      swap1\n      tag_88\n      jump\t// in\n    tag_124:\n      swap1\n      dup2\n      mstore\n      0x20\n      add\n      mload(0x40)\n      dup1\n      swap2\n      sub\n      swap1\n      keccak256\n        /* \"contracts/game-2048/KaijuGameFactory.sol\":3374:3415  bytes memory lb = leaderBoardByDate[date] */\n      dup1\n      sload\n      tag_125\n      swap1\n      tag_90\n      jump\t// in\n    tag_125:\n      dup1\n      0x1f\n      add\n      0x20\n      dup1\n      swap2\n      div\n      mul\n      0x20\n      add\n      mload(0x40)\n      swap1\n      dup2\n      add\n      0x40\n      mstore\n      dup1\n      swap3\n      swap2\n      swap1\n      dup2\n      dup2\n      mstore\n      0x20\n      add\n      dup3\n      dup1\n      sload\n      tag_126\n      swap1\n      tag_90\n      jump\t// in\n    tag_126:\n      dup1\n      iszero\n      tag_127\n      jumpi\n      dup1\n      0x1f\n      lt\n      tag_128\n      jumpi\n      0x0100\n      dup1\n      dup4\n      sload\n      div\n      mul\n      dup4\n      mstore\n      swap2\n      0x20\n      add\n      swap2\n      jump(tag_127)\n    tag_128:\n      dup3\n      add\n      swap2\n      swap1\n      0x00\n      mstore\n      keccak256(0x00, 0x20)\n      swap1\n    tag_129:\n      dup2\n      sload\n      dup2\n      mstore\n      swap1\n      0x01\n      add\n      swap1\n      0x20\n      add\n      dup1\n      dup4\n      gt\n      tag_129\n      jumpi\n      dup3\n      swap1\n      sub\n      0x1f\n      and\n      dup3\n      add\n      swap2\n    tag_127:\n      pop\n      pop\n      pop\n      pop\n      pop\n      swap1\n      pop\n        /* \"contracts/game-2048/KaijuGameFactory.sol\":3425:3450  gameObject[] memory board */\n      0x60\n        /* \"contracts/game-2048/KaijuGameFactory.sol\":3476:3477  0 */\n      0x00\n        /* \"contracts/game-2048/KaijuGameFactory.sol\":3464:3466  lb */\n      dup3\n        /* \"contracts/game-2048/KaijuGameFactory.sol\":3464:3473  lb.length */\n      mload\n        /* \"contracts/game-2048/KaijuGameFactory.sol\":3464:3477  lb.length > 0 */\n      gt\n        /* \"contracts/game-2048/KaijuGameFactory.sol\":3460:3782  if (lb.length > 0){... */\n      iszero\n      tag_130\n      jumpi\n        /* \"contracts/game-2048/KaijuGameFactory.sol\":3492:3518  gameObject[] memory board_ */\n      0x00\n        /* \"contracts/game-2048/KaijuGameFactory.sol\":3532:3534  lb */\n      dup3\n        /* \"contracts/game-2048/KaijuGameFactory.sol\":3521:3550  abi.decode(lb,(gameObject[])) */\n      dup1\n      0x20\n      add\n      swap1\n      mload\n      dup2\n      add\n      swap1\n      tag_131\n      swap2\n      swap1\n      tag_99\n      jump\t// in\n    tag_131:\n        /* \"contracts/game-2048/KaijuGameFactory.sol\":3492:3550  gameObject[] memory board_ = abi.decode(lb,(gameObject[])) */\n      swap1\n      pop\n        /* \"contracts/game-2048/KaijuGameFactory.sol\":3589:3595  board_ */\n      dup1\n        /* \"contracts/game-2048/KaijuGameFactory.sol\":3589:3602  board_.length */\n      mload\n        /* \"contracts/game-2048/KaijuGameFactory.sol\":3572:3603  new gameObject[](board_.length) */\n      0xffffffffffffffff\n      dup2\n      gt\n      iszero\n      tag_132\n      jumpi\n      tag_133\n      tag_134\n      jump\t// in\n    tag_133:\n    tag_132:\n      mload(0x40)\n      swap1\n      dup1\n      dup3\n      mstore\n      dup1\n      0x20\n      mul\n      0x20\n      add\n      dup3\n      add\n      0x40\n      mstore\n      dup1\n      iszero\n      tag_135\n      jumpi\n      dup2\n      0x20\n      add\n    tag_136:\n      tag_137\n      tag_138\n      jump\t// in\n    tag_137:\n      dup2\n      mstore\n      0x20\n      add\n      swap1\n      0x01\n      swap1\n      sub\n      swap1\n      dup2\n      tag_136\n      jumpi\n      swap1\n      pop\n    tag_135:\n      pop\n        /* \"contracts/game-2048/KaijuGameFactory.sol\":3564:3603  board = new gameObject[](board_.length) */\n      swap2\n      pop\n        /* \"contracts/game-2048/KaijuGameFactory.sol\":3622:3631  uint256 i */\n      0x00\n        /* \"contracts/game-2048/KaijuGameFactory.sol\":3617:3714  for (uint256 i = 0; i < board_.length; i++) {... */\n    tag_139:\n        /* \"contracts/game-2048/KaijuGameFactory.sol\":3641:3647  board_ */\n      dup2\n        /* \"contracts/game-2048/KaijuGameFactory.sol\":3641:3654  board_.length */\n      mload\n        /* \"contracts/game-2048/KaijuGameFactory.sol\":3637:3638  i */\n      dup2\n        /* \"contracts/game-2048/KaijuGameFactory.sol\":3637:3654  i < board_.length */\n      lt\n        /* \"contracts/game-2048/KaijuGameFactory.sol\":3617:3714  for (uint256 i = 0; i < board_.length; i++) {... */\n      iszero\n      tag_140\n      jumpi\n        /* \"contracts/game-2048/KaijuGameFactory.sol\":3690:3696  board_ */\n      dup2\n        /* \"contracts/game-2048/KaijuGameFactory.sol\":3697:3698  i */\n      dup2\n        /* \"contracts/game-2048/KaijuGameFactory.sol\":3690:3699  board_[i] */\n      dup2\n      mload\n      dup2\n      lt\n      tag_142\n      jumpi\n      tag_143\n      tag_144\n      jump\t// in\n    tag_143:\n    tag_142:\n      0x20\n      mul\n      0x20\n      add\n      add\n      mload\n        /* \"contracts/game-2048/KaijuGameFactory.sol\":3679:3684  board */\n      dup4\n        /* \"contracts/game-2048/KaijuGameFactory.sol\":3685:3686  i */\n      dup3\n        /* \"contracts/game-2048/KaijuGameFactory.sol\":3679:3687  board[i] */\n      dup2\n      mload\n      dup2\n      lt\n      tag_145\n      jumpi\n      tag_146\n      tag_144\n      jump\t// in\n    tag_146:\n    tag_145:\n      0x20\n      mul\n      0x20\n      add\n      add\n        /* \"contracts/game-2048/KaijuGameFactory.sol\":3679:3699  board[i] = board_[i] */\n      dup2\n      swap1\n      mstore\n      pop\n        /* \"contracts/game-2048/KaijuGameFactory.sol\":3656:3659  i++ */\n      dup1\n      dup1\n      tag_147\n      swap1\n      tag_148\n      jump\t// in\n    tag_147:\n      swap2\n      pop\n      pop\n        /* \"contracts/game-2048/KaijuGameFactory.sol\":3617:3714  for (uint256 i = 0; i < board_.length; i++) {... */\n      jump(tag_139)\n    tag_140:\n      pop\n        /* \"contracts/game-2048/KaijuGameFactory.sol\":3478:3724  {... */\n      pop\n        /* \"contracts/game-2048/KaijuGameFactory.sol\":3460:3782  if (lb.length > 0){... */\n      jump(tag_149)\n    tag_130:\n        /* \"contracts/game-2048/KaijuGameFactory.sol\":3769:3770  0 */\n      0x00\n        /* \"contracts/game-2048/KaijuGameFactory.sol\":3752:3771  new gameObject[](0) */\n      0xffffffffffffffff\n      dup2\n      gt\n      iszero\n      tag_150\n      jumpi\n      tag_151\n      tag_134\n      jump\t// in\n    tag_151:\n    tag_150:\n      mload(0x40)\n      swap1\n      dup1\n      dup3\n      mstore\n      dup1\n      0x20\n      mul\n      0x20\n      add\n      dup3\n      add\n      0x40\n      mstore\n      dup1\n      iszero\n      tag_152\n      jumpi\n      dup2\n      0x20\n      add\n    tag_153:\n      tag_154\n      tag_138\n      jump\t// in\n    tag_154:\n      dup2\n      mstore\n      0x20\n      add\n      swap1\n      0x01\n      swap1\n      sub\n      swap1\n      dup2\n      tag_153\n      jumpi\n      swap1\n      pop\n    tag_152:\n      pop\n        /* \"contracts/game-2048/KaijuGameFactory.sol\":3744:3771  board = new gameObject[](0) */\n      swap1\n      pop\n        /* \"contracts/game-2048/KaijuGameFactory.sol\":3460:3782  if (lb.length > 0){... */\n    tag_149:\n        /* \"contracts/game-2048/KaijuGameFactory.sol\":3791:3797  uint n */\n      0x00\n        /* \"contracts/game-2048/KaijuGameFactory.sol\":3800:3805  board */\n      dup2\n        /* \"contracts/game-2048/KaijuGameFactory.sol\":3800:3812  board.length */\n      mload\n        /* \"contracts/game-2048/KaijuGameFactory.sol\":3791:3812  uint n = board.length */\n      swap1\n      pop\n        /* \"contracts/game-2048/KaijuGameFactory.sol\":3830:3832  10 */\n      0x0a\n        /* \"contracts/game-2048/KaijuGameFactory.sol\":3826:3827  n */\n      dup2\n        /* \"contracts/game-2048/KaijuGameFactory.sol\":3826:3832  n < 10 */\n      lt\n        /* \"contracts/game-2048/KaijuGameFactory.sol\":3822:4152  if (n < 10){... */\n      iszero\n      tag_155\n      jumpi\n        /* \"contracts/game-2048/KaijuGameFactory.sol\":3847:3875  gameObject[] memory newBoard */\n      0x00\n        /* \"contracts/game-2048/KaijuGameFactory.sol\":3899:3900  1 */\n      0x01\n        /* \"contracts/game-2048/KaijuGameFactory.sol\":3895:3896  n */\n      dup3\n        /* \"contracts/game-2048/KaijuGameFactory.sol\":3895:3900  n + 1 */\n      tag_156\n      swap2\n      swap1\n      tag_157\n      jump\t// in\n    tag_156:\n        /* \"contracts/game-2048/KaijuGameFactory.sol\":3878:3901  new gameObject[](n + 1) */\n      0xffffffffffffffff\n      dup2\n      gt\n      iszero\n      tag_158\n      jumpi\n      tag_159\n      tag_134\n      jump\t// in\n    tag_159:\n    tag_158:\n      mload(0x40)\n      swap1\n      dup1\n      dup3\n      mstore\n      dup1\n      0x20\n      mul\n      0x20\n      add\n      dup3\n      add\n      0x40\n      mstore\n      dup1\n      iszero\n      tag_160\n      jumpi\n      dup2\n      0x20\n      add\n    tag_161:\n      tag_162\n      tag_138\n      jump\t// in\n    tag_162:\n      dup2\n      mstore\n      0x20\n      add\n      swap1\n      0x01\n      swap1\n      sub\n      swap1\n      dup2\n      tag_161\n      jumpi\n      swap1\n      pop\n    tag_160:\n      pop\n        /* \"contracts/game-2048/KaijuGameFactory.sol\":3847:3901  gameObject[] memory newBoard = new gameObject[](n + 1) */\n      swap1\n      pop\n        /* \"contracts/game-2048/KaijuGameFactory.sol\":3920:3929  uint256 i */\n      0x00\n        /* \"contracts/game-2048/KaijuGameFactory.sol\":3915:4002  for (uint256 i = 0; i < n; i++) {... */\n    tag_163:\n        /* \"contracts/game-2048/KaijuGameFactory.sol\":3939:3940  n */\n      dup3\n        /* \"contracts/game-2048/KaijuGameFactory.sol\":3935:3936  i */\n      dup2\n        /* \"contracts/game-2048/KaijuGameFactory.sol\":3935:3940  i < n */\n      lt\n        /* \"contracts/game-2048/KaijuGameFactory.sol\":3915:4002  for (uint256 i = 0; i < n; i++) {... */\n      iszero\n      tag_164\n      jumpi\n        /* \"contracts/game-2048/KaijuGameFactory.sol\":3979:3984  board */\n      dup4\n        /* \"contracts/game-2048/KaijuGameFactory.sol\":3985:3986  i */\n      dup2\n        /* \"contracts/game-2048/KaijuGameFactory.sol\":3979:3987  board[i] */\n      dup2\n      mload\n      dup2\n      lt\n      tag_166\n      jumpi\n      tag_167\n      tag_144\n      jump\t// in\n    tag_167:\n    tag_166:\n      0x20\n      mul\n      0x20\n      add\n      add\n      mload\n        /* \"contracts/game-2048/KaijuGameFactory.sol\":3965:3973  newBoard */\n      dup3\n        /* \"contracts/game-2048/KaijuGameFactory.sol\":3974:3975  i */\n      dup3\n        /* \"contracts/game-2048/KaijuGameFactory.sol\":3965:3976  newBoard[i] */\n      dup2\n      mload\n      dup2\n      lt\n      tag_168\n      jumpi\n      tag_169\n      tag_144\n      jump\t// in\n    tag_169:\n    tag_168:\n      0x20\n      mul\n      0x20\n      add\n      add\n        /* \"contracts/game-2048/KaijuGameFactory.sol\":3965:3987  newBoard[i] = board[i] */\n      dup2\n      swap1\n      mstore\n      pop\n        /* \"contracts/game-2048/KaijuGameFactory.sol\":3942:3945  i++ */\n      dup1\n      dup1\n      tag_170\n      swap1\n      tag_148\n      jump\t// in\n    tag_170:\n      swap2\n      pop\n      pop\n        /* \"contracts/game-2048/KaijuGameFactory.sol\":3915:4002  for (uint256 i = 0; i < n; i++) {... */\n      jump(tag_163)\n    tag_164:\n      pop\n        /* \"contracts/game-2048/KaijuGameFactory.sol\":4029:4033  game */\n      dup10\n        /* \"contracts/game-2048/KaijuGameFactory.sol\":4015:4023  newBoard */\n      dup2\n        /* \"contracts/game-2048/KaijuGameFactory.sol\":4024:4025  n */\n      dup4\n        /* \"contracts/game-2048/KaijuGameFactory.sol\":4015:4026  newBoard[n] */\n      dup2\n      mload\n      dup2\n      lt\n      tag_171\n      jumpi\n      tag_172\n      tag_144\n      jump\t// in\n    tag_172:\n    tag_171:\n      0x20\n      mul\n      0x20\n      add\n      add\n        /* \"contracts/game-2048/KaijuGameFactory.sol\":4015:4033  newBoard[n] = game */\n      dup2\n      swap1\n      mstore\n      pop\n        /* \"contracts/game-2048/KaijuGameFactory.sol\":4055:4063  newBoard */\n      dup1\n        /* \"contracts/game-2048/KaijuGameFactory.sol\":4047:4063  board = newBoard */\n      swap3\n      pop\n        /* \"contracts/game-2048/KaijuGameFactory.sol\":3833:4074  {... */\n      pop\n        /* \"contracts/game-2048/KaijuGameFactory.sol\":3822:4152  if (n < 10){... */\n      jump(tag_173)\n    tag_155:\n        /* \"contracts/game-2048/KaijuGameFactory.sol\":4101:4105  game */\n      dup9\n        /* \"contracts/game-2048/KaijuGameFactory.sol\":4101:4111  game.score */\n      0x40\n      add\n      mload\n        /* \"contracts/game-2048/KaijuGameFactory.sol\":4084:4089  board */\n      dup3\n        /* \"contracts/game-2048/KaijuGameFactory.sol\":4090:4091  0 */\n      0x00\n        /* \"contracts/game-2048/KaijuGameFactory.sol\":4084:4092  board[0] */\n      dup2\n      mload\n      dup2\n      lt\n      tag_174\n      jumpi\n      tag_175\n      tag_144\n      jump\t// in\n    tag_175:\n    tag_174:\n      0x20\n      mul\n      0x20\n      add\n      add\n      mload\n        /* \"contracts/game-2048/KaijuGameFactory.sol\":4084:4098  board[0].score */\n      0x40\n      add\n      mload\n        /* \"contracts/game-2048/KaijuGameFactory.sol\":4084:4111  board[0].score < game.score */\n      lt\n        /* \"contracts/game-2048/KaijuGameFactory.sol\":4080:4152  if (board[0].score < game.score){... */\n      iszero\n      tag_176\n      jumpi\n        /* \"contracts/game-2048/KaijuGameFactory.sol\":4137:4141  game */\n      dup9\n        /* \"contracts/game-2048/KaijuGameFactory.sol\":4126:4131  board */\n      dup3\n        /* \"contracts/game-2048/KaijuGameFactory.sol\":4132:4133  0 */\n      0x00\n        /* \"contracts/game-2048/KaijuGameFactory.sol\":4126:4134  board[0] */\n      dup2\n      mload\n      dup2\n      lt\n      tag_177\n      jumpi\n      tag_178\n      tag_144\n      jump\t// in\n    tag_178:\n    tag_177:\n      0x20\n      mul\n      0x20\n      add\n      add\n        /* \"contracts/game-2048/KaijuGameFactory.sol\":4126:4141  board[0] = game */\n      dup2\n      swap1\n      mstore\n      pop\n        /* \"contracts/game-2048/KaijuGameFactory.sol\":4080:4152  if (board[0].score < game.score){... */\n    tag_176:\n        /* \"contracts/game-2048/KaijuGameFactory.sol\":3822:4152  if (n < 10){... */\n    tag_173:\n        /* \"contracts/game-2048/KaijuGameFactory.sol\":4169:4185  sortArray(board) */\n      tag_179\n        /* \"contracts/game-2048/KaijuGameFactory.sol\":4179:4184  board */\n      dup3\n        /* \"contracts/game-2048/KaijuGameFactory.sol\":4169:4178  sortArray */\n      tag_180\n        /* \"contracts/game-2048/KaijuGameFactory.sol\":4169:4185  sortArray(board) */\n      jump\t// in\n    tag_179:\n        /* \"contracts/game-2048/KaijuGameFactory.sol\":4161:4185  board = sortArray(board) */\n      swap2\n      pop\n        /* \"contracts/game-2048/KaijuGameFactory.sol\":4195:4252  setDailyLeaderBoard(todayYear,todayMonth,todayDate,board) */\n      tag_181\n        /* \"contracts/game-2048/KaijuGameFactory.sol\":4215:4224  todayYear */\n      dup8\n        /* \"contracts/game-2048/KaijuGameFactory.sol\":4225:4235  todayMonth */\n      dup8\n        /* \"contracts/game-2048/KaijuGameFactory.sol\":4236:4245  todayDate */\n      dup8\n        /* \"contracts/game-2048/KaijuGameFactory.sol\":4246:4251  board */\n      dup6\n        /* \"contracts/game-2048/KaijuGameFactory.sol\":4195:4214  setDailyLeaderBoard */\n      tag_182\n        /* \"contracts/game-2048/KaijuGameFactory.sol\":4195:4252  setDailyLeaderBoard(todayYear,todayMonth,todayDate,board) */\n      jump\t// in\n    tag_181:\n        /* \"contracts/game-2048/KaijuGameFactory.sol\":3065:4259  {... */\n      pop\n      pop\n      pop\n      pop\n      pop\n      pop\n      pop\n        /* \"contracts/game-2048/KaijuGameFactory.sol\":2985:4259  function addToLeaderBoard(gameObject memory game, uint currentTimestamp) public {... */\n      pop\n      pop\n      jump\t// out\n        /* \"contracts/game-2048/KaijuGameFactory.sol\":291:311  address public owner */\n    tag_54:\n      0x02\n      0x00\n      swap1\n      sload\n      swap1\n      0x0100\n      exp\n      swap1\n      div\n      0xffffffffffffffffffffffffffffffffffffffff\n      and\n      dup2\n      jump\t// out\n        /* \"contracts/game-2048/KaijuGameFactory.sol\":586:639  mapping(address => uint256) public playerPersonalBest */\n    tag_59:\n      mstore(0x20, 0x05)\n      dup1\n      0x00\n      mstore\n      keccak256(0x00, 0x40)\n      0x00\n      swap2\n      pop\n      swap1\n      pop\n      sload\n      dup2\n      jump\t// out\n        /* \"contracts/game-2048/KaijuGameFactory.sol\":5273:5612  function getLeaderBoard() public view returns (gameObject[] memory){... */\n    tag_62:\n        /* \"contracts/game-2048/KaijuGameFactory.sol\":5320:5339  gameObject[] memory */\n      0x60\n        /* \"contracts/game-2048/KaijuGameFactory.sol\":5350:5364  uint timestamp */\n      0x00\n        /* \"contracts/game-2048/KaijuGameFactory.sol\":449:454  28800 */\n      0x7080\n        /* \"contracts/game-2048/KaijuGameFactory.sol\":5367:5382  block.timestamp */\n      timestamp\n        /* \"contracts/game-2048/KaijuGameFactory.sol\":5367:5404  block.timestamp + SINGAPORE_TIME_DIFF */\n      tag_184\n      swap2\n      swap1\n      tag_157\n      jump\t// in\n    tag_184:\n        /* \"contracts/game-2048/KaijuGameFactory.sol\":5350:5404  uint timestamp = block.timestamp + SINGAPORE_TIME_DIFF */\n      swap1\n      pop\n        /* \"contracts/game-2048/KaijuGameFactory.sol\":5415:5431  uint16 todayYear */\n      0x00\n        /* \"contracts/game-2048/KaijuGameFactory.sol\":5433:5449  uint8 todayMonth */\n      dup1\n        /* \"contracts/game-2048/KaijuGameFactory.sol\":5451:5466  uint8 todayDate */\n      0x00\n        /* \"contracts/game-2048/KaijuGameFactory.sol\":5470:5497  getYearMonthDate(timestamp) */\n      tag_185\n        /* \"contracts/game-2048/KaijuGameFactory.sol\":5487:5496  timestamp */\n      dup5\n        /* \"contracts/game-2048/KaijuGameFactory.sol\":5470:5486  getYearMonthDate */\n      tag_46\n        /* \"contracts/game-2048/KaijuGameFactory.sol\":5470:5497  getYearMonthDate(timestamp) */\n      jump\t// in\n    tag_185:\n        /* \"contracts/game-2048/KaijuGameFactory.sol\":5414:5497  (uint16 todayYear, uint8 todayMonth, uint8 todayDate) = getYearMonthDate(timestamp) */\n      swap3\n      pop\n      swap3\n      pop\n      swap3\n      pop\n        /* \"contracts/game-2048/KaijuGameFactory.sol\":5507:5529  gameObject[] memory lb */\n      0x00\n        /* \"contracts/game-2048/KaijuGameFactory.sol\":5532:5586  getLeaderBoardByDate(todayYear, todayMonth, todayDate) */\n      tag_186\n        /* \"contracts/game-2048/KaijuGameFactory.sol\":5553:5562  todayYear */\n      dup5\n        /* \"contracts/game-2048/KaijuGameFactory.sol\":5564:5574  todayMonth */\n      dup5\n        /* \"contracts/game-2048/KaijuGameFactory.sol\":5576:5585  todayDate */\n      dup5\n        /* \"contracts/game-2048/KaijuGameFactory.sol\":5532:5552  getLeaderBoardByDate */\n      tag_37\n        /* \"contracts/game-2048/KaijuGameFactory.sol\":5532:5586  getLeaderBoardByDate(todayYear, todayMonth, todayDate) */\n      jump\t// in\n    tag_186:\n        /* \"contracts/game-2048/KaijuGameFactory.sol\":5507:5586  gameObject[] memory lb = getLeaderBoardByDate(todayYear, todayMonth, todayDate) */\n      swap1\n      pop\n        /* \"contracts/game-2048/KaijuGameFactory.sol\":5603:5605  lb */\n      dup1\n        /* \"contracts/game-2048/KaijuGameFactory.sol\":5596:5605  return lb */\n      swap6\n      pop\n      pop\n      pop\n      pop\n      pop\n      pop\n        /* \"contracts/game-2048/KaijuGameFactory.sol\":5273:5612  function getLeaderBoard() public view returns (gameObject[] memory){... */\n      swap1\n      jump\t// out\n        /* \"contracts/game-2048/KaijuGameFactory.sol\":1914:2979  function verify2048game(string memory _gameId,uint256 _FEScore,bytes memory _gameData, string memory _cid) public returns(string memory, bool){... */\n    tag_67:\n        /* \"contracts/game-2048/KaijuGameFactory.sol\":2036:2049  string memory */\n      0x60\n        /* \"contracts/game-2048/KaijuGameFactory.sol\":2051:2055  bool */\n      0x00\n        /* \"contracts/game-2048/KaijuGameFactory.sol\":2075:2096  IChainsAtlas executor */\n      dup1\n        /* \"contracts/game-2048/KaijuGameFactory.sol\":2112:2135  byteCodeExecutorAddress */\n      0x04\n      0x00\n      swap1\n      sload\n      swap1\n      0x0100\n      exp\n      swap1\n      div\n      0xffffffffffffffffffffffffffffffffffffffff\n      and\n        /* \"contracts/game-2048/KaijuGameFactory.sol\":2075:2136  IChainsAtlas executor = IChainsAtlas(byteCodeExecutorAddress) */\n      swap1\n      pop\n        /* \"contracts/game-2048/KaijuGameFactory.sol\":2146:2172  address newContractAddress */\n      0x00\n        /* \"contracts/game-2048/KaijuGameFactory.sol\":2175:2183  executor */\n      dup2\n        /* \"contracts/game-2048/KaijuGameFactory.sol\":2175:2195  executor.runBytecode */\n      0xffffffffffffffffffffffffffffffffffffffff\n      and\n      0xa32cc87c\n        /* \"contracts/game-2048/KaijuGameFactory.sol\":2196:2205  _gameData */\n      dup8\n        /* \"contracts/game-2048/KaijuGameFactory.sol\":2175:2206  executor.runBytecode(_gameData) */\n      mload(0x40)\n      dup3\n      0xffffffff\n      and\n      0xe0\n      shl\n      dup2\n      mstore\n      0x04\n      add\n      tag_188\n      swap2\n      swap1\n      tag_75\n      jump\t// in\n    tag_188:\n      0x20\n      mload(0x40)\n      dup1\n      dup4\n      sub\n      dup2\n      0x00\n      dup8\n      gas\n      call\n      iszero\n      dup1\n      iszero\n      tag_190\n      jumpi\n      returndatasize\n      0x00\n      dup1\n      returndatacopy\n      revert(0x00, returndatasize)\n    tag_190:\n      pop\n      pop\n      pop\n      pop\n      mload(0x40)\n      returndatasize\n      not(0x1f)\n      0x1f\n      dup3\n      add\n      and\n      dup3\n      add\n      dup1\n      0x40\n      mstore\n      pop\n      dup2\n      add\n      swap1\n      tag_191\n      swap2\n      swap1\n      tag_192\n      jump\t// in\n    tag_191:\n        /* \"contracts/game-2048/KaijuGameFactory.sol\":2146:2206  address newContractAddress = executor.runBytecode(_gameData) */\n      swap1\n      pop\n        /* \"contracts/game-2048/KaijuGameFactory.sol\":2216:2238  bytes memory userScore */\n      0x00\n        /* \"contracts/game-2048/KaijuGameFactory.sol\":2241:2249  executor */\n      dup3\n        /* \"contracts/game-2048/KaijuGameFactory.sol\":2241:2266  executor.getRuntimeReturn */\n      0xffffffffffffffffffffffffffffffffffffffff\n      and\n      0x2fdf8a9f\n        /* \"contracts/game-2048/KaijuGameFactory.sol\":2267:2285  newContractAddress */\n      dup4\n        /* \"contracts/game-2048/KaijuGameFactory.sol\":2241:2286  executor.getRuntimeReturn(newContractAddress) */\n      mload(0x40)\n      dup3\n      0xffffffff\n      and\n      0xe0\n      shl\n      dup2\n      mstore\n      0x04\n      add\n      tag_193\n      swap2\n      swap1\n      tag_56\n      jump\t// in\n    tag_193:\n      0x00\n      mload(0x40)\n      dup1\n      dup4\n      sub\n      dup2\n      dup7\n      gas\n      staticcall\n      iszero\n      dup1\n      iszero\n      tag_195\n      jumpi\n      returndatasize\n      0x00\n      dup1\n      returndatacopy\n      revert(0x00, returndatasize)\n    tag_195:\n      pop\n      pop\n      pop\n      pop\n      mload(0x40)\n      returndatasize\n      0x00\n      dup3\n      returndatacopy\n      returndatasize\n      not(0x1f)\n      0x1f\n      dup3\n      add\n      and\n      dup3\n      add\n      dup1\n      0x40\n      mstore\n      pop\n      dup2\n      add\n      swap1\n      tag_196\n      swap2\n      swap1\n      tag_197\n      jump\t// in\n    tag_196:\n        /* \"contracts/game-2048/KaijuGameFactory.sol\":2216:2286  bytes memory userScore = executor.getRuntimeReturn(newContractAddress) */\n      swap1\n      pop\n        /* \"contracts/game-2048/KaijuGameFactory.sol\":2296:2310  address player */\n      0x00\n        /* \"contracts/game-2048/KaijuGameFactory.sol\":2313:2323  msg.sender */\n      caller\n        /* \"contracts/game-2048/KaijuGameFactory.sol\":2296:2323  address player = msg.sender */\n      swap1\n      pop\n        /* \"contracts/game-2048/KaijuGameFactory.sol\":2333:2354  uint256 contractScore */\n      0x00\n        /* \"contracts/game-2048/KaijuGameFactory.sol\":2373:2382  userScore */\n      dup3\n        /* \"contracts/game-2048/KaijuGameFactory.sol\":2365:2383  bytes32(userScore) */\n      tag_198\n      swap1\n      tag_199\n      jump\t// in\n    tag_198:\n        /* \"contracts/game-2048/KaijuGameFactory.sol\":2357:2384  uint256(bytes32(userScore)) */\n      0x00\n      shr\n        /* \"contracts/game-2048/KaijuGameFactory.sol\":2333:2384  uint256 contractScore = uint256(bytes32(userScore)) */\n      swap1\n      pop\n        /* \"contracts/game-2048/KaijuGameFactory.sol\":2394:2408  uint timestamp */\n      0x00\n        /* \"contracts/game-2048/KaijuGameFactory.sol\":449:454  28800 */\n      0x7080\n        /* \"contracts/game-2048/KaijuGameFactory.sol\":2411:2426  block.timestamp */\n      timestamp\n        /* \"contracts/game-2048/KaijuGameFactory.sol\":2411:2448  block.timestamp + SINGAPORE_TIME_DIFF */\n      tag_200\n      swap2\n      swap1\n      tag_157\n      jump\t// in\n    tag_200:\n        /* \"contracts/game-2048/KaijuGameFactory.sol\":2394:2448  uint timestamp = block.timestamp + SINGAPORE_TIME_DIFF */\n      swap1\n      pop\n        /* \"contracts/game-2048/KaijuGameFactory.sol\":2458:2480  gameObject memory game */\n      0x00\n        /* \"contracts/game-2048/KaijuGameFactory.sol\":2483:2531  gameObject(player, _gameId, _FEScore, timestamp) */\n      mload(0x40)\n      dup1\n      0x80\n      add\n      0x40\n      mstore\n      dup1\n        /* \"contracts/game-2048/KaijuGameFactory.sol\":2494:2500  player */\n      dup6\n        /* \"contracts/game-2048/KaijuGameFactory.sol\":2483:2531  gameObject(player, _gameId, _FEScore, timestamp) */\n      0xffffffffffffffffffffffffffffffffffffffff\n      and\n      dup2\n      mstore\n      0x20\n      add\n        /* \"contracts/game-2048/KaijuGameFactory.sol\":2502:2509  _gameId */\n      dup15\n        /* \"contracts/game-2048/KaijuGameFactory.sol\":2483:2531  gameObject(player, _gameId, _FEScore, timestamp) */\n      dup2\n      mstore\n      0x20\n      add\n        /* \"contracts/game-2048/KaijuGameFactory.sol\":2511:2519  _FEScore */\n      dup14\n        /* \"contracts/game-2048/KaijuGameFactory.sol\":2483:2531  gameObject(player, _gameId, _FEScore, timestamp) */\n      dup2\n      mstore\n      0x20\n      add\n        /* \"contracts/game-2048/KaijuGameFactory.sol\":2521:2530  timestamp */\n      dup4\n        /* \"contracts/game-2048/KaijuGameFactory.sol\":2483:2531  gameObject(player, _gameId, _FEScore, timestamp) */\n      dup2\n      mstore\n      pop\n        /* \"contracts/game-2048/KaijuGameFactory.sol\":2458:2531  gameObject memory game = gameObject(player, _gameId, _FEScore, timestamp) */\n      swap1\n      pop\n        /* \"contracts/game-2048/KaijuGameFactory.sol\":2605:2621  bool isGameValid */\n      0x00\n        /* \"contracts/game-2048/KaijuGameFactory.sol\":2653:2666  contractScore */\n      dup4\n        /* \"contracts/game-2048/KaijuGameFactory.sol\":2643:2651  _FEScore */\n      dup14\n        /* \"contracts/game-2048/KaijuGameFactory.sol\":2643:2666  _FEScore==contractScore */\n      sub\n        /* \"contracts/game-2048/KaijuGameFactory.sol\":2640:2818  if(_FEScore==contractScore){... */\n      tag_201\n      jumpi\n        /* \"contracts/game-2048/KaijuGameFactory.sol\":2695:2699  true */\n      0x01\n        /* \"contracts/game-2048/KaijuGameFactory.sol\":2681:2699  isGameValid = true */\n      swap1\n      pop\n        /* \"contracts/game-2048/KaijuGameFactory.sol\":2713:2746  addToLeaderBoard(game, timestamp) */\n      tag_202\n        /* \"contracts/game-2048/KaijuGameFactory.sol\":2730:2734  game */\n      dup3\n        /* \"contracts/game-2048/KaijuGameFactory.sol\":2736:2745  timestamp */\n      dup5\n        /* \"contracts/game-2048/KaijuGameFactory.sol\":2713:2729  addToLeaderBoard */\n      tag_52\n        /* \"contracts/game-2048/KaijuGameFactory.sol\":2713:2746  addToLeaderBoard(game, timestamp) */\n      jump\t// in\n    tag_202:\n        /* \"contracts/game-2048/KaijuGameFactory.sol\":2760:2776  kaiju2048GameNFT */\n      0x01\n      0x00\n      swap1\n      sload\n      swap1\n      0x0100\n      exp\n      swap1\n      div\n      0xffffffffffffffffffffffffffffffffffffffff\n      and\n        /* \"contracts/game-2048/KaijuGameFactory.sol\":2760:2785  kaiju2048GameNFT.safeMint */\n      0xffffffffffffffffffffffffffffffffffffffff\n      and\n      0xd204c45e\n        /* \"contracts/game-2048/KaijuGameFactory.sol\":2786:2792  player */\n      dup7\n        /* \"contracts/game-2048/KaijuGameFactory.sol\":2794:2798  _cid */\n      dup14\n        /* \"contracts/game-2048/KaijuGameFactory.sol\":2760:2799  kaiju2048GameNFT.safeMint(player, _cid) */\n      mload(0x40)\n      dup4\n      0xffffffff\n      and\n      0xe0\n      shl\n      dup2\n      mstore\n      0x04\n      add\n      tag_203\n      swap3\n      swap2\n      swap1\n      tag_204\n      jump\t// in\n    tag_203:\n      0x00\n      mload(0x40)\n      dup1\n      dup4\n      sub\n      dup2\n      0x00\n      dup8\n      dup1\n      extcodesize\n      iszero\n      dup1\n      iszero\n      tag_205\n      jumpi\n      0x00\n      dup1\n      revert\n    tag_205:\n      pop\n      gas\n      call\n      iszero\n      dup1\n      iszero\n      tag_207\n      jumpi\n      returndatasize\n      0x00\n      dup1\n      returndatacopy\n      revert(0x00, returndatasize)\n    tag_207:\n      pop\n      pop\n      pop\n      pop\n        /* \"contracts/game-2048/KaijuGameFactory.sol\":2640:2818  if(_FEScore==contractScore){... */\n    tag_201:\n        /* \"contracts/game-2048/KaijuGameFactory.sol\":2835:2849  gameIdToRandom */\n      0x07\n        /* \"contracts/game-2048/KaijuGameFactory.sol\":2850:2857  _gameId */\n      dup15\n        /* \"contracts/game-2048/KaijuGameFactory.sol\":2835:2858  gameIdToRandom[_gameId] */\n      mload(0x40)\n      tag_208\n      swap2\n      swap1\n      tag_209\n      jump\t// in\n    tag_208:\n      swap1\n      dup2\n      mstore\n      0x20\n      add\n      mload(0x40)\n      dup1\n      swap2\n      sub\n      swap1\n      keccak256\n        /* \"contracts/game-2048/KaijuGameFactory.sol\":2828:2858  delete gameIdToRandom[_gameId] */\n      0x00\n      swap1\n      sstore\n        /* \"contracts/game-2048/KaijuGameFactory.sol\":2888:2895  _gameId */\n      dup14\n        /* \"contracts/game-2048/KaijuGameFactory.sol\":2873:2934  Verify2048Game(_gameId, isGameValid, _FEScore, contractScore) */\n      mload(0x40)\n      tag_210\n      swap2\n      swap1\n      tag_209\n      jump\t// in\n    tag_210:\n      mload(0x40)\n      dup1\n      swap2\n      sub\n      swap1\n      keccak256\n      0x931c8cef035152fbaacfbc94c740515643c820cb2ac59133d5abb5b059435f24\n        /* \"contracts/game-2048/KaijuGameFactory.sol\":2897:2908  isGameValid */\n      dup3\n        /* \"contracts/game-2048/KaijuGameFactory.sol\":2910:2918  _FEScore */\n      dup16\n        /* \"contracts/game-2048/KaijuGameFactory.sol\":2920:2933  contractScore */\n      dup8\n        /* \"contracts/game-2048/KaijuGameFactory.sol\":2873:2934  Verify2048Game(_gameId, isGameValid, _FEScore, contractScore) */\n      mload(0x40)\n      tag_211\n      swap4\n      swap3\n      swap2\n      swap1\n      tag_212\n      jump\t// in\n    tag_211:\n      mload(0x40)\n      dup1\n      swap2\n      sub\n      swap1\n      log2\n        /* \"contracts/game-2048/KaijuGameFactory.sol\":2952:2959  _gameId */\n      dup14\n        /* \"contracts/game-2048/KaijuGameFactory.sol\":2960:2971  isGameValid */\n      dup2\n        /* \"contracts/game-2048/KaijuGameFactory.sol\":2944:2972  return (_gameId,isGameValid) */\n      swap10\n      pop\n      swap10\n      pop\n      pop\n      pop\n      pop\n      pop\n      pop\n      pop\n      pop\n      pop\n        /* \"contracts/game-2048/KaijuGameFactory.sol\":1914:2979  function verify2048game(string memory _gameId,uint256 _FEScore,bytes memory _gameData, string memory _cid) public returns(string memory, bool){... */\n      swap5\n      pop\n      swap5\n      swap3\n      pop\n      pop\n      pop\n      jump\t// out\n        /* \"contracts/game-2048/KaijuGameFactory.sol\":645:693  mapping(bytes => bytes) public leaderBoardByDate */\n    tag_73:\n      0x06\n      dup2\n      dup1\n      mload\n      0x20\n      dup2\n      add\n      dup3\n      add\n      dup1\n      mload\n      dup5\n      dup3\n      mstore\n      0x20\n      dup4\n      add\n      0x20\n      dup6\n      add\n      keccak256\n      dup2\n      dup4\n      mstore\n      dup1\n      swap6\n      pop\n      pop\n      pop\n      pop\n      pop\n      pop\n      0x00\n      swap2\n      pop\n      swap1\n      pop\n      dup1\n      sload\n      tag_213\n      swap1\n      tag_90\n      jump\t// in\n    tag_213:\n      dup1\n      0x1f\n      add\n      0x20\n      dup1\n      swap2\n      div\n      mul\n      0x20\n      add\n      mload(0x40)\n      swap1\n      dup2\n      add\n      0x40\n      mstore\n      dup1\n      swap3\n      swap2\n      swap1\n      dup2\n      dup2\n      mstore\n      0x20\n      add\n      dup3\n      dup1\n      sload\n      tag_214\n      swap1\n      tag_90\n      jump\t// in\n    tag_214:\n      dup1\n      iszero\n      tag_215\n      jumpi\n      dup1\n      0x1f\n      lt\n      tag_216\n      jumpi\n      0x0100\n      dup1\n      dup4\n      sload\n      div\n      mul\n      dup4\n      mstore\n      swap2\n      0x20\n      add\n      swap2\n      jump(tag_215)\n    tag_216:\n      dup3\n      add\n      swap2\n      swap1\n      0x00\n      mstore\n      keccak256(0x00, 0x20)\n      swap1\n    tag_217:\n      dup2\n      sload\n      dup2\n      mstore\n      swap1\n      0x01\n      add\n      swap1\n      0x20\n      add\n      dup1\n      dup4\n      gt\n      tag_217\n      jumpi\n      dup3\n      swap1\n      sub\n      0x1f\n      and\n      dup3\n      add\n      swap2\n    tag_215:\n      pop\n      pop\n      pop\n      pop\n      pop\n      dup2\n      jump\t// out\n        /* \"contracts/game-2048/KaijuGameFactory.sol\":1568:1908  function getRandomNumber(string memory gameId) public returns(uint256){... */\n    tag_78:\n        /* \"contracts/game-2048/KaijuGameFactory.sol\":1630:1637  uint256 */\n      0x00\n        /* \"contracts/game-2048/KaijuGameFactory.sol\":1690:1694  seed */\n      sload(0x03)\n        /* \"contracts/game-2048/KaijuGameFactory.sol\":1721:1722  1 */\n      0x01\n        /* \"contracts/game-2048/KaijuGameFactory.sol\":1706:1718  block.number */\n      number\n        /* \"contracts/game-2048/KaijuGameFactory.sol\":1706:1722  block.number - 1 */\n      tag_219\n      swap2\n      swap1\n      tag_220\n      jump\t// in\n    tag_219:\n        /* \"contracts/game-2048/KaijuGameFactory.sol\":1696:1723  blockhash(block.number - 1) */\n      blockhash\n        /* \"contracts/game-2048/KaijuGameFactory.sol\":1673:1724  abi.encodePacked(seed, blockhash(block.number - 1)) */\n      add(0x20, mload(0x40))\n      tag_221\n      swap3\n      swap2\n      swap1\n      tag_222\n      jump\t// in\n    tag_221:\n      mload(0x40)\n      0x20\n      dup2\n      dup4\n      sub\n      sub\n      dup2\n      mstore\n      swap1\n      0x40\n      mstore\n        /* \"contracts/game-2048/KaijuGameFactory.sol\":1663:1725  keccak256(abi.encodePacked(seed, blockhash(block.number - 1))) */\n      dup1\n      mload\n      swap1\n      0x20\n      add\n      keccak256\n        /* \"contracts/game-2048/KaijuGameFactory.sol\":1655:1726  uint256(keccak256(abi.encodePacked(seed, blockhash(block.number - 1)))) */\n      0x00\n      shr\n        /* \"contracts/game-2048/KaijuGameFactory.sol\":1648:1652  seed */\n      0x03\n        /* \"contracts/game-2048/KaijuGameFactory.sol\":1648:1726  seed = uint256(keccak256(abi.encodePacked(seed, blockhash(block.number - 1)))) */\n      dup2\n      swap1\n      sstore\n      pop\n        /* \"contracts/game-2048/KaijuGameFactory.sol\":1736:1756  uint256 randomNumber */\n      0x00\n        /* \"contracts/game-2048/KaijuGameFactory.sol\":1766:1773  1000000 */\n      0x0f4240\n        /* \"contracts/game-2048/KaijuGameFactory.sol\":1759:1763  seed */\n      sload(0x03)\n        /* \"contracts/game-2048/KaijuGameFactory.sol\":1759:1773  seed % 1000000 */\n      tag_223\n      swap2\n      swap1\n      tag_224\n      jump\t// in\n    tag_223:\n        /* \"contracts/game-2048/KaijuGameFactory.sol\":1736:1773  uint256 randomNumber = seed % 1000000 */\n      swap1\n      pop\n        /* \"contracts/game-2048/KaijuGameFactory.sol\":1808:1820  randomNumber */\n      dup1\n        /* \"contracts/game-2048/KaijuGameFactory.sol\":1783:1797  gameIdToRandom */\n      0x07\n        /* \"contracts/game-2048/KaijuGameFactory.sol\":1798:1804  gameId */\n      dup5\n        /* \"contracts/game-2048/KaijuGameFactory.sol\":1783:1805  gameIdToRandom[gameId] */\n      mload(0x40)\n      tag_225\n      swap2\n      swap1\n      tag_209\n      jump\t// in\n    tag_225:\n      swap1\n      dup2\n      mstore\n      0x20\n      add\n      mload(0x40)\n      dup1\n      swap2\n      sub\n      swap1\n      keccak256\n        /* \"contracts/game-2048/KaijuGameFactory.sol\":1783:1820  gameIdToRandom[gameId] = randomNumber */\n      dup2\n      swap1\n      sstore\n      pop\n        /* \"contracts/game-2048/KaijuGameFactory.sol\":1851:1857  gameId */\n      dup3\n        /* \"contracts/game-2048/KaijuGameFactory.sol\":1835:1872  GetRandomNumber(gameId, randomNumber) */\n      mload(0x40)\n      tag_226\n      swap2\n      swap1\n      tag_209\n      jump\t// in\n    tag_226:\n      mload(0x40)\n      dup1\n      swap2\n      sub\n      swap1\n      keccak256\n      0xf00a9035d77900613cfbb31eb5d4a8a927ff33a676b51dfc02d529e062c5e945\n        /* \"contracts/game-2048/KaijuGameFactory.sol\":1859:1871  randomNumber */\n      dup3\n        /* \"contracts/game-2048/KaijuGameFactory.sol\":1835:1872  GetRandomNumber(gameId, randomNumber) */\n      mload(0x40)\n      tag_227\n      swap2\n      swap1\n      tag_25\n      jump\t// in\n    tag_227:\n      mload(0x40)\n      dup1\n      swap2\n      sub\n      swap1\n      log2\n        /* \"contracts/game-2048/KaijuGameFactory.sol\":1889:1901  randomNumber */\n      dup1\n        /* \"contracts/game-2048/KaijuGameFactory.sol\":1882:1901  return randomNumber */\n      swap2\n      pop\n      pop\n        /* \"contracts/game-2048/KaijuGameFactory.sol\":1568:1908  function getRandomNumber(string memory gameId) public returns(uint256){... */\n      swap2\n      swap1\n      pop\n      jump\t// out\n        /* \"contracts/game-2048/KaijuGameFactory.sol\":5049:5267  function getDailyWinner() public view returns (gameObject memory){... */\n    tag_81:\n        /* \"contracts/game-2048/KaijuGameFactory.sol\":5096:5113  gameObject memory */\n      tag_228\n      tag_138\n      jump\t// in\n    tag_228:\n        /* \"contracts/game-2048/KaijuGameFactory.sol\":5124:5146  gameObject[] memory lb */\n      0x00\n        /* \"contracts/game-2048/KaijuGameFactory.sol\":5149:5165  getLeaderBoard() */\n      tag_230\n        /* \"contracts/game-2048/KaijuGameFactory.sol\":5149:5163  getLeaderBoard */\n      tag_62\n        /* \"contracts/game-2048/KaijuGameFactory.sol\":5149:5165  getLeaderBoard() */\n      jump\t// in\n    tag_230:\n        /* \"contracts/game-2048/KaijuGameFactory.sol\":5124:5165  gameObject[] memory lb = getLeaderBoard() */\n      swap1\n      pop\n        /* \"contracts/game-2048/KaijuGameFactory.sol\":5175:5181  uint n */\n      0x00\n        /* \"contracts/game-2048/KaijuGameFactory.sol\":5184:5186  lb */\n      dup2\n        /* \"contracts/game-2048/KaijuGameFactory.sol\":5184:5193  lb.length */\n      mload\n        /* \"contracts/game-2048/KaijuGameFactory.sol\":5175:5193  uint n = lb.length */\n      swap1\n      pop\n        /* \"contracts/game-2048/KaijuGameFactory.sol\":5203:5227  gameObject memory winner */\n      0x00\n        /* \"contracts/game-2048/KaijuGameFactory.sol\":5230:5232  lb */\n      dup3\n        /* \"contracts/game-2048/KaijuGameFactory.sol\":5235:5236  1 */\n      0x01\n        /* \"contracts/game-2048/KaijuGameFactory.sol\":5233:5234  n */\n      dup4\n        /* \"contracts/game-2048/KaijuGameFactory.sol\":5233:5236  n-1 */\n      tag_231\n      swap2\n      swap1\n      tag_220\n      jump\t// in\n    tag_231:\n        /* \"contracts/game-2048/KaijuGameFactory.sol\":5230:5237  lb[n-1] */\n      dup2\n      mload\n      dup2\n      lt\n      tag_232\n      jumpi\n      tag_233\n      tag_144\n      jump\t// in\n    tag_233:\n    tag_232:\n      0x20\n      mul\n      0x20\n      add\n      add\n      mload\n        /* \"contracts/game-2048/KaijuGameFactory.sol\":5203:5237  gameObject memory winner = lb[n-1] */\n      swap1\n      pop\n        /* \"contracts/game-2048/KaijuGameFactory.sol\":5254:5260  winner */\n      dup1\n        /* \"contracts/game-2048/KaijuGameFactory.sol\":5247:5260  return winner */\n      swap4\n      pop\n      pop\n      pop\n      pop\n        /* \"contracts/game-2048/KaijuGameFactory.sol\":5049:5267  function getDailyWinner() public view returns (gameObject memory){... */\n      swap1\n      jump\t// out\n        /* \"contracts/game-2048/KaijuGameFactory.sol\":4553:5043  function sortArray(gameObject[] memory array) internal pure returns(gameObject[] memory){... */\n    tag_180:\n        /* \"contracts/game-2048/KaijuGameFactory.sol\":4621:4640  gameObject[] memory */\n      0x60\n        /* \"contracts/game-2048/KaijuGameFactory.sol\":4651:4657  uint n */\n      0x00\n        /* \"contracts/game-2048/KaijuGameFactory.sol\":4660:4665  array */\n      dup3\n        /* \"contracts/game-2048/KaijuGameFactory.sol\":4660:4672  array.length */\n      mload\n        /* \"contracts/game-2048/KaijuGameFactory.sol\":4651:4672  uint n = array.length */\n      swap1\n      pop\n        /* \"contracts/game-2048/KaijuGameFactory.sol\":4687:4696  uint256 i */\n      0x00\n        /* \"contracts/game-2048/KaijuGameFactory.sol\":4682:5015  for (uint256 i = 0; i < n - 1; i++) {... */\n    tag_235:\n        /* \"contracts/game-2048/KaijuGameFactory.sol\":4710:4711  1 */\n      0x01\n        /* \"contracts/game-2048/KaijuGameFactory.sol\":4706:4707  n */\n      dup3\n        /* \"contracts/game-2048/KaijuGameFactory.sol\":4706:4711  n - 1 */\n      tag_238\n      swap2\n      swap1\n      tag_220\n      jump\t// in\n    tag_238:\n        /* \"contracts/game-2048/KaijuGameFactory.sol\":4702:4703  i */\n      dup2\n        /* \"contracts/game-2048/KaijuGameFactory.sol\":4702:4711  i < n - 1 */\n      lt\n        /* \"contracts/game-2048/KaijuGameFactory.sol\":4682:5015  for (uint256 i = 0; i < n - 1; i++) {... */\n      iszero\n      tag_236\n      jumpi\n        /* \"contracts/game-2048/KaijuGameFactory.sol\":4737:4746  uint256 j */\n      0x00\n        /* \"contracts/game-2048/KaijuGameFactory.sol\":4732:5005  for (uint256 j = 0; j < n - i - 1; j++) {... */\n    tag_239:\n        /* \"contracts/game-2048/KaijuGameFactory.sol\":4764:4765  1 */\n      0x01\n        /* \"contracts/game-2048/KaijuGameFactory.sol\":4760:4761  i */\n      dup3\n        /* \"contracts/game-2048/KaijuGameFactory.sol\":4756:4757  n */\n      dup5\n        /* \"contracts/game-2048/KaijuGameFactory.sol\":4756:4761  n - i */\n      tag_242\n      swap2\n      swap1\n      tag_220\n      jump\t// in\n    tag_242:\n        /* \"contracts/game-2048/KaijuGameFactory.sol\":4756:4765  n - i - 1 */\n      tag_243\n      swap2\n      swap1\n      tag_220\n      jump\t// in\n    tag_243:\n        /* \"contracts/game-2048/KaijuGameFactory.sol\":4752:4753  j */\n      dup2\n        /* \"contracts/game-2048/KaijuGameFactory.sol\":4752:4765  j < n - i - 1 */\n      lt\n        /* \"contracts/game-2048/KaijuGameFactory.sol\":4732:5005  for (uint256 j = 0; j < n - i - 1; j++) {... */\n      iszero\n      tag_240\n      jumpi\n        /* \"contracts/game-2048/KaijuGameFactory.sol\":4811:4816  array */\n      dup5\n        /* \"contracts/game-2048/KaijuGameFactory.sol\":4821:4822  1 */\n      0x01\n        /* \"contracts/game-2048/KaijuGameFactory.sol\":4817:4818  j */\n      dup3\n        /* \"contracts/game-2048/KaijuGameFactory.sol\":4817:4822  j + 1 */\n      tag_244\n      swap2\n      swap1\n      tag_157\n      jump\t// in\n    tag_244:\n        /* \"contracts/game-2048/KaijuGameFactory.sol\":4811:4823  array[j + 1] */\n      dup2\n      mload\n      dup2\n      lt\n      tag_245\n      jumpi\n      tag_246\n      tag_144\n      jump\t// in\n    tag_246:\n    tag_245:\n      0x20\n      mul\n      0x20\n      add\n      add\n      mload\n        /* \"contracts/game-2048/KaijuGameFactory.sol\":4811:4829  array[j + 1].score */\n      0x40\n      add\n      mload\n        /* \"contracts/game-2048/KaijuGameFactory.sol\":4794:4799  array */\n      dup6\n        /* \"contracts/game-2048/KaijuGameFactory.sol\":4800:4801  j */\n      dup3\n        /* \"contracts/game-2048/KaijuGameFactory.sol\":4794:4802  array[j] */\n      dup2\n      mload\n      dup2\n      lt\n      tag_247\n      jumpi\n      tag_248\n      tag_144\n      jump\t// in\n    tag_248:\n    tag_247:\n      0x20\n      mul\n      0x20\n      add\n      add\n      mload\n        /* \"contracts/game-2048/KaijuGameFactory.sol\":4794:4808  array[j].score */\n      0x40\n      add\n      mload\n        /* \"contracts/game-2048/KaijuGameFactory.sol\":4794:4829  array[j].score > array[j + 1].score */\n      gt\n        /* \"contracts/game-2048/KaijuGameFactory.sol\":4790:4991  if (array[j].score > array[j + 1].score) {... */\n      iszero\n      tag_249\n      jumpi\n        /* \"contracts/game-2048/KaijuGameFactory.sol\":4853:4875  gameObject memory temp */\n      0x00\n        /* \"contracts/game-2048/KaijuGameFactory.sol\":4878:4883  array */\n      dup6\n        /* \"contracts/game-2048/KaijuGameFactory.sol\":4884:4885  j */\n      dup3\n        /* \"contracts/game-2048/KaijuGameFactory.sol\":4878:4886  array[j] */\n      dup2\n      mload\n      dup2\n      lt\n      tag_250\n      jumpi\n      tag_251\n      tag_144\n      jump\t// in\n    tag_251:\n    tag_250:\n      0x20\n      mul\n      0x20\n      add\n      add\n      mload\n        /* \"contracts/game-2048/KaijuGameFactory.sol\":4853:4886  gameObject memory temp = array[j] */\n      swap1\n      pop\n        /* \"contracts/game-2048/KaijuGameFactory.sol\":4919:4924  array */\n      dup6\n        /* \"contracts/game-2048/KaijuGameFactory.sol\":4929:4930  1 */\n      0x01\n        /* \"contracts/game-2048/KaijuGameFactory.sol\":4925:4926  j */\n      dup4\n        /* \"contracts/game-2048/KaijuGameFactory.sol\":4925:4930  j + 1 */\n      tag_252\n      swap2\n      swap1\n      tag_157\n      jump\t// in\n    tag_252:\n        /* \"contracts/game-2048/KaijuGameFactory.sol\":4919:4931  array[j + 1] */\n      dup2\n      mload\n      dup2\n      lt\n      tag_253\n      jumpi\n      tag_254\n      tag_144\n      jump\t// in\n    tag_254:\n    tag_253:\n      0x20\n      mul\n      0x20\n      add\n      add\n      mload\n        /* \"contracts/game-2048/KaijuGameFactory.sol\":4908:4913  array */\n      dup7\n        /* \"contracts/game-2048/KaijuGameFactory.sol\":4914:4915  j */\n      dup4\n        /* \"contracts/game-2048/KaijuGameFactory.sol\":4908:4916  array[j] */\n      dup2\n      mload\n      dup2\n      lt\n      tag_255\n      jumpi\n      tag_256\n      tag_144\n      jump\t// in\n    tag_256:\n    tag_255:\n      0x20\n      mul\n      0x20\n      add\n      add\n        /* \"contracts/game-2048/KaijuGameFactory.sol\":4908:4931  array[j] = array[j + 1] */\n      dup2\n      swap1\n      mstore\n      pop\n        /* \"contracts/game-2048/KaijuGameFactory.sol\":4968:4972  temp */\n      dup1\n        /* \"contracts/game-2048/KaijuGameFactory.sol\":4953:4958  array */\n      dup7\n        /* \"contracts/game-2048/KaijuGameFactory.sol\":4963:4964  1 */\n      0x01\n        /* \"contracts/game-2048/KaijuGameFactory.sol\":4959:4960  j */\n      dup5\n        /* \"contracts/game-2048/KaijuGameFactory.sol\":4959:4964  j + 1 */\n      tag_257\n      swap2\n      swap1\n      tag_157\n      jump\t// in\n    tag_257:\n        /* \"contracts/game-2048/KaijuGameFactory.sol\":4953:4965  array[j + 1] */\n      dup2\n      mload\n      dup2\n      lt\n      tag_258\n      jumpi\n      tag_259\n      tag_144\n      jump\t// in\n    tag_259:\n    tag_258:\n      0x20\n      mul\n      0x20\n      add\n      add\n        /* \"contracts/game-2048/KaijuGameFactory.sol\":4953:4972  array[j + 1] = temp */\n      dup2\n      swap1\n      mstore\n      pop\n        /* \"contracts/game-2048/KaijuGameFactory.sol\":4831:4991  {... */\n      pop\n        /* \"contracts/game-2048/KaijuGameFactory.sol\":4790:4991  if (array[j].score > array[j + 1].score) {... */\n    tag_249:\n        /* \"contracts/game-2048/KaijuGameFactory.sol\":4767:4770  j++ */\n      dup1\n      dup1\n      tag_260\n      swap1\n      tag_148\n      jump\t// in\n    tag_260:\n      swap2\n      pop\n      pop\n        /* \"contracts/game-2048/KaijuGameFactory.sol\":4732:5005  for (uint256 j = 0; j < n - i - 1; j++) {... */\n      jump(tag_239)\n    tag_240:\n      pop\n        /* \"contracts/game-2048/KaijuGameFactory.sol\":4713:4716  i++ */\n      dup1\n      dup1\n      tag_261\n      swap1\n      tag_148\n      jump\t// in\n    tag_261:\n      swap2\n      pop\n      pop\n        /* \"contracts/game-2048/KaijuGameFactory.sol\":4682:5015  for (uint256 i = 0; i < n - 1; i++) {... */\n      jump(tag_235)\n    tag_236:\n      pop\n        /* \"contracts/game-2048/KaijuGameFactory.sol\":5031:5036  array */\n      dup3\n        /* \"contracts/game-2048/KaijuGameFactory.sol\":5024:5036  return array */\n      swap2\n      pop\n      pop\n        /* \"contracts/game-2048/KaijuGameFactory.sol\":4553:5043  function sortArray(gameObject[] memory array) internal pure returns(gameObject[] memory){... */\n      swap2\n      swap1\n      pop\n      jump\t// out\n        /* \"contracts/game-2048/KaijuGameFactory.sol\":5740:5990  function setDailyLeaderBoard(uint16 year, uint8 month, uint8 day, gameObject[] memory values) internal {... */\n    tag_182:\n        /* \"contracts/game-2048/KaijuGameFactory.sol\":5853:5870  bytes memory date */\n      0x00\n        /* \"contracts/game-2048/KaijuGameFactory.sol\":5884:5888  year */\n      dup5\n        /* \"contracts/game-2048/KaijuGameFactory.sol\":5889:5894  month */\n      dup5\n        /* \"contracts/game-2048/KaijuGameFactory.sol\":5895:5898  day */\n      dup5\n        /* \"contracts/game-2048/KaijuGameFactory.sol\":5873:5899  abi.encode(year,month,day) */\n      add(0x20, mload(0x40))\n      tag_263\n      swap4\n      swap3\n      swap2\n      swap1\n      tag_48\n      jump\t// in\n    tag_263:\n      mload(0x40)\n      0x20\n      dup2\n      dup4\n      sub\n      sub\n      dup2\n      mstore\n      swap1\n      0x40\n      mstore\n        /* \"contracts/game-2048/KaijuGameFactory.sol\":5853:5899  bytes memory date = abi.encode(year,month,day) */\n      swap1\n      pop\n        /* \"contracts/game-2048/KaijuGameFactory.sol\":5909:5924  bytes memory lb */\n      0x00\n        /* \"contracts/game-2048/KaijuGameFactory.sol\":5938:5944  values */\n      dup3\n        /* \"contracts/game-2048/KaijuGameFactory.sol\":5927:5945  abi.encode(values) */\n      add(0x20, mload(0x40))\n      tag_264\n      swap2\n      swap1\n      tag_39\n      jump\t// in\n    tag_264:\n      mload(0x40)\n      0x20\n      dup2\n      dup4\n      sub\n      sub\n      dup2\n      mstore\n      swap1\n      0x40\n      mstore\n        /* \"contracts/game-2048/KaijuGameFactory.sol\":5909:5945  bytes memory lb = abi.encode(values) */\n      swap1\n      pop\n        /* \"contracts/game-2048/KaijuGameFactory.sol\":5981:5983  lb */\n      dup1\n        /* \"contracts/game-2048/KaijuGameFactory.sol\":5955:5972  leaderBoardByDate */\n      0x06\n        /* \"contracts/game-2048/KaijuGameFactory.sol\":5973:5977  date */\n      dup4\n        /* \"contracts/game-2048/KaijuGameFactory.sol\":5955:5978  leaderBoardByDate[date] */\n      mload(0x40)\n      tag_265\n      swap2\n      swap1\n      tag_88\n      jump\t// in\n    tag_265:\n      swap1\n      dup2\n      mstore\n      0x20\n      add\n      mload(0x40)\n      dup1\n      swap2\n      sub\n      swap1\n      keccak256\n        /* \"contracts/game-2048/KaijuGameFactory.sol\":5955:5983  leaderBoardByDate[date] = lb */\n      swap1\n      dup2\n      tag_266\n      swap2\n      swap1\n      tag_267\n      jump\t// in\n    tag_266:\n      pop\n        /* \"contracts/game-2048/KaijuGameFactory.sol\":5843:5990  {... */\n      pop\n      pop\n        /* \"contracts/game-2048/KaijuGameFactory.sol\":5740:5990  function setDailyLeaderBoard(uint16 year, uint8 month, uint8 day, gameObject[] memory values) internal {... */\n      pop\n      pop\n      pop\n      pop\n      jump\t// out\n    tag_138:\n      mload(0x40)\n      dup1\n      0x80\n      add\n      0x40\n      mstore\n      dup1\n      and(0xffffffffffffffffffffffffffffffffffffffff, 0x00)\n      dup2\n      mstore\n      0x20\n      add\n      0x60\n      dup2\n      mstore\n      0x20\n      add\n      0x00\n      dup2\n      mstore\n      0x20\n      add\n      0x00\n      dup2\n      mstore\n      pop\n      swap1\n      jump\t// out\n        /* \"#utility.yul\":7:82   */\n    tag_268:\n        /* \"#utility.yul\":40:46   */\n      0x00\n        /* \"#utility.yul\":73:75   */\n      0x40\n        /* \"#utility.yul\":67:76   */\n      mload\n        /* \"#utility.yul\":57:76   */\n      swap1\n      pop\n        /* \"#utility.yul\":7:82   */\n      swap1\n      jump\t// out\n        /* \"#utility.yul\":88:205   */\n    tag_269:\n        /* \"#utility.yul\":197:198   */\n      0x00\n        /* \"#utility.yul\":194:195   */\n      dup1\n        /* \"#utility.yul\":187:199   */\n      revert\n        /* \"#utility.yul\":211:328   */\n    tag_270:\n        /* \"#utility.yul\":320:321   */\n      0x00\n        /* \"#utility.yul\":317:318   */\n      dup1\n        /* \"#utility.yul\":310:322   */\n      revert\n        /* \"#utility.yul\":334:460   */\n    tag_271:\n        /* \"#utility.yul\":371:378   */\n      0x00\n        /* \"#utility.yul\":411:453   */\n      0xffffffffffffffffffffffffffffffffffffffff\n        /* \"#utility.yul\":404:409   */\n      dup3\n        /* \"#utility.yul\":400:454   */\n      and\n        /* \"#utility.yul\":389:454   */\n      swap1\n      pop\n        /* \"#utility.yul\":334:460   */\n      swap2\n      swap1\n      pop\n      jump\t// out\n        /* \"#utility.yul\":466:562   */\n    tag_272:\n        /* \"#utility.yul\":503:510   */\n      0x00\n        /* \"#utility.yul\":532:556   */\n      tag_376\n        /* \"#utility.yul\":550:555   */\n      dup3\n        /* \"#utility.yul\":532:556   */\n      tag_271\n      jump\t// in\n    tag_376:\n        /* \"#utility.yul\":521:556   */\n      swap1\n      pop\n        /* \"#utility.yul\":466:562   */\n      swap2\n      swap1\n      pop\n      jump\t// out\n        /* \"#utility.yul\":568:690   */\n    tag_273:\n        /* \"#utility.yul\":641:665   */\n      tag_378\n        /* \"#utility.yul\":659:664   */\n      dup2\n        /* \"#utility.yul\":641:665   */\n      tag_272\n      jump\t// in\n    tag_378:\n        /* \"#utility.yul\":634:639   */\n      dup2\n        /* \"#utility.yul\":631:666   */\n      eq\n        /* \"#utility.yul\":621:684   */\n      tag_379\n      jumpi\n        /* \"#utility.yul\":680:681   */\n      0x00\n        /* \"#utility.yul\":677:678   */\n      dup1\n        /* \"#utility.yul\":670:682   */\n      revert\n        /* \"#utility.yul\":621:684   */\n    tag_379:\n        /* \"#utility.yul\":568:690   */\n      pop\n      jump\t// out\n        /* \"#utility.yul\":696:835   */\n    tag_274:\n        /* \"#utility.yul\":742:747   */\n      0x00\n        /* \"#utility.yul\":780:786   */\n      dup2\n        /* \"#utility.yul\":767:787   */\n      calldataload\n        /* \"#utility.yul\":758:787   */\n      swap1\n      pop\n        /* \"#utility.yul\":796:829   */\n      tag_381\n        /* \"#utility.yul\":823:828   */\n      dup2\n        /* \"#utility.yul\":796:829   */\n      tag_273\n      jump\t// in\n    tag_381:\n        /* \"#utility.yul\":696:835   */\n      swap3\n      swap2\n      pop\n      pop\n      jump\t// out\n        /* \"#utility.yul\":841:1170   */\n    tag_22:\n        /* \"#utility.yul\":900:906   */\n      0x00\n        /* \"#utility.yul\":949:951   */\n      0x20\n        /* \"#utility.yul\":937:946   */\n      dup3\n        /* \"#utility.yul\":928:935   */\n      dup5\n        /* \"#utility.yul\":924:947   */\n      sub\n        /* \"#utility.yul\":920:952   */\n      slt\n        /* \"#utility.yul\":917:1036   */\n      iszero\n      tag_383\n      jumpi\n        /* \"#utility.yul\":955:1034   */\n      tag_384\n      tag_269\n      jump\t// in\n    tag_384:\n        /* \"#utility.yul\":917:1036   */\n    tag_383:\n        /* \"#utility.yul\":1075:1076   */\n      0x00\n        /* \"#utility.yul\":1100:1153   */\n      tag_385\n        /* \"#utility.yul\":1145:1152   */\n      dup5\n        /* \"#utility.yul\":1136:1142   */\n      dup3\n        /* \"#utility.yul\":1125:1134   */\n      dup6\n        /* \"#utility.yul\":1121:1143   */\n      add\n        /* \"#utility.yul\":1100:1153   */\n      tag_274\n      jump\t// in\n    tag_385:\n        /* \"#utility.yul\":1090:1153   */\n      swap2\n      pop\n        /* \"#utility.yul\":1046:1163   */\n      pop\n        /* \"#utility.yul\":841:1170   */\n      swap3\n      swap2\n      pop\n      pop\n      jump\t// out\n        /* \"#utility.yul\":1176:1253   */\n    tag_275:\n        /* \"#utility.yul\":1213:1220   */\n      0x00\n        /* \"#utility.yul\":1242:1247   */\n      dup2\n        /* \"#utility.yul\":1231:1247   */\n      swap1\n      pop\n        /* \"#utility.yul\":1176:1253   */\n      swap2\n      swap1\n      pop\n      jump\t// out\n        /* \"#utility.yul\":1259:1377   */\n    tag_276:\n        /* \"#utility.yul\":1346:1370   */\n      tag_388\n        /* \"#utility.yul\":1364:1369   */\n      dup2\n        /* \"#utility.yul\":1346:1370   */\n      tag_275\n      jump\t// in\n    tag_388:\n        /* \"#utility.yul\":1341:1344   */\n      dup3\n        /* \"#utility.yul\":1334:1371   */\n      mstore\n        /* \"#utility.yul\":1259:1377   */\n      pop\n      pop\n      jump\t// out\n        /* \"#utility.yul\":1383:1605   */\n    tag_25:\n        /* \"#utility.yul\":1476:1480   */\n      0x00\n        /* \"#utility.yul\":1514:1516   */\n      0x20\n        /* \"#utility.yul\":1503:1512   */\n      dup3\n        /* \"#utility.yul\":1499:1517   */\n      add\n        /* \"#utility.yul\":1491:1517   */\n      swap1\n      pop\n        /* \"#utility.yul\":1527:1598   */\n      tag_390\n        /* \"#utility.yul\":1595:1596   */\n      0x00\n        /* \"#utility.yul\":1584:1593   */\n      dup4\n        /* \"#utility.yul\":1580:1597   */\n      add\n        /* \"#utility.yul\":1571:1577   */\n      dup5\n        /* \"#utility.yul\":1527:1598   */\n      tag_276\n      jump\t// in\n    tag_390:\n        /* \"#utility.yul\":1383:1605   */\n      swap3\n      swap2\n      pop\n      pop\n      jump\t// out\n        /* \"#utility.yul\":1611:1728   */\n    tag_277:\n        /* \"#utility.yul\":1720:1721   */\n      0x00\n        /* \"#utility.yul\":1717:1718   */\n      dup1\n        /* \"#utility.yul\":1710:1722   */\n      revert\n        /* \"#utility.yul\":1734:1851   */\n    tag_278:\n        /* \"#utility.yul\":1843:1844   */\n      0x00\n        /* \"#utility.yul\":1840:1841   */\n      dup1\n        /* \"#utility.yul\":1833:1845   */\n      revert\n        /* \"#utility.yul\":1857:1959   */\n    tag_279:\n        /* \"#utility.yul\":1898:1904   */\n      0x00\n        /* \"#utility.yul\":1949:1951   */\n      0x1f\n        /* \"#utility.yul\":1945:1952   */\n      not\n        /* \"#utility.yul\":1940:1942   */\n      0x1f\n        /* \"#utility.yul\":1933:1938   */\n      dup4\n        /* \"#utility.yul\":1929:1943   */\n      add\n        /* \"#utility.yul\":1925:1953   */\n      and\n        /* \"#utility.yul\":1915:1953   */\n      swap1\n      pop\n        /* \"#utility.yul\":1857:1959   */\n      swap2\n      swap1\n      pop\n      jump\t// out\n        /* \"#utility.yul\":1965:2145   */\n    tag_134:\n        /* \"#utility.yul\":2013:2090   */\n      0x4e487b7100000000000000000000000000000000000000000000000000000000\n        /* \"#utility.yul\":2010:2011   */\n      0x00\n        /* \"#utility.yul\":2003:2091   */\n      mstore\n        /* \"#utility.yul\":2110:2114   */\n      0x41\n        /* \"#utility.yul\":2107:2108   */\n      0x04\n        /* \"#utility.yul\":2100:2115   */\n      mstore\n        /* \"#utility.yul\":2134:2138   */\n      0x24\n        /* \"#utility.yul\":2131:2132   */\n      0x00\n        /* \"#utility.yul\":2124:2139   */\n      revert\n        /* \"#utility.yul\":2151:2432   */\n    tag_280:\n        /* \"#utility.yul\":2234:2261   */\n      tag_396\n        /* \"#utility.yul\":2256:2260   */\n      dup3\n        /* \"#utility.yul\":2234:2261   */\n      tag_279\n      jump\t// in\n    tag_396:\n        /* \"#utility.yul\":2226:2232   */\n      dup2\n        /* \"#utility.yul\":2222:2262   */\n      add\n        /* \"#utility.yul\":2364:2370   */\n      dup2\n        /* \"#utility.yul\":2352:2362   */\n      dup2\n        /* \"#utility.yul\":2349:2371   */\n      lt\n        /* \"#utility.yul\":2328:2346   */\n      0xffffffffffffffff\n        /* \"#utility.yul\":2316:2326   */\n      dup3\n        /* \"#utility.yul\":2313:2347   */\n      gt\n        /* \"#utility.yul\":2310:2372   */\n      or\n        /* \"#utility.yul\":2307:2395   */\n      iszero\n      tag_397\n      jumpi\n        /* \"#utility.yul\":2375:2393   */\n      tag_398\n      tag_134\n      jump\t// in\n    tag_398:\n        /* \"#utility.yul\":2307:2395   */\n    tag_397:\n        /* \"#utility.yul\":2415:2425   */\n      dup1\n        /* \"#utility.yul\":2411:2413   */\n      0x40\n        /* \"#utility.yul\":2404:2426   */\n      mstore\n        /* \"#utility.yul\":2194:2432   */\n      pop\n        /* \"#utility.yul\":2151:2432   */\n      pop\n      pop\n      jump\t// out\n        /* \"#utility.yul\":2438:2567   */\n    tag_281:\n        /* \"#utility.yul\":2472:2478   */\n      0x00\n        /* \"#utility.yul\":2499:2519   */\n      tag_400\n      tag_268\n      jump\t// in\n    tag_400:\n        /* \"#utility.yul\":2489:2519   */\n      swap1\n      pop\n        /* \"#utility.yul\":2528:2561   */\n      tag_401\n        /* \"#utility.yul\":2556:2560   */\n      dup3\n        /* \"#utility.yul\":2548:2554   */\n      dup3\n        /* \"#utility.yul\":2528:2561   */\n      tag_280\n      jump\t// in\n    tag_401:\n        /* \"#utility.yul\":2438:2567   */\n      swap2\n      swap1\n      pop\n      jump\t// out\n        /* \"#utility.yul\":2573:2881   */\n    tag_282:\n        /* \"#utility.yul\":2635:2639   */\n      0x00\n        /* \"#utility.yul\":2725:2743   */\n      0xffffffffffffffff\n        /* \"#utility.yul\":2717:2723   */\n      dup3\n        /* \"#utility.yul\":2714:2744   */\n      gt\n        /* \"#utility.yul\":2711:2767   */\n      iszero\n      tag_403\n      jumpi\n        /* \"#utility.yul\":2747:2765   */\n      tag_404\n      tag_134\n      jump\t// in\n    tag_404:\n        /* \"#utility.yul\":2711:2767   */\n    tag_403:\n        /* \"#utility.yul\":2785:2814   */\n      tag_405\n        /* \"#utility.yul\":2807:2813   */\n      dup3\n        /* \"#utility.yul\":2785:2814   */\n      tag_279\n      jump\t// in\n    tag_405:\n        /* \"#utility.yul\":2777:2814   */\n      swap1\n      pop\n        /* \"#utility.yul\":2869:2873   */\n      0x20\n        /* \"#utility.yul\":2863:2867   */\n      dup2\n        /* \"#utility.yul\":2859:2874   */\n      add\n        /* \"#utility.yul\":2851:2874   */\n      swap1\n      pop\n        /* \"#utility.yul\":2573:2881   */\n      swap2\n      swap1\n      pop\n      jump\t// out\n        /* \"#utility.yul\":2887:3033   */\n    tag_283:\n        /* \"#utility.yul\":2984:2990   */\n      dup3\n        /* \"#utility.yul\":2979:2982   */\n      dup2\n        /* \"#utility.yul\":2974:2977   */\n      dup4\n        /* \"#utility.yul\":2961:2991   */\n      calldatacopy\n        /* \"#utility.yul\":3025:3026   */\n      0x00\n        /* \"#utility.yul\":3016:3022   */\n      dup4\n        /* \"#utility.yul\":3011:3014   */\n      dup4\n        /* \"#utility.yul\":3007:3023   */\n      add\n        /* \"#utility.yul\":3000:3027   */\n      mstore\n        /* \"#utility.yul\":2887:3033   */\n      pop\n      pop\n      pop\n      jump\t// out\n        /* \"#utility.yul\":3039:3464   */\n    tag_284:\n        /* \"#utility.yul\":3117:3122   */\n      0x00\n        /* \"#utility.yul\":3142:3208   */\n      tag_408\n        /* \"#utility.yul\":3158:3207   */\n      tag_409\n        /* \"#utility.yul\":3200:3206   */\n      dup5\n        /* \"#utility.yul\":3158:3207   */\n      tag_282\n      jump\t// in\n    tag_409:\n        /* \"#utility.yul\":3142:3208   */\n      tag_281\n      jump\t// in\n    tag_408:\n        /* \"#utility.yul\":3133:3208   */\n      swap1\n      pop\n        /* \"#utility.yul\":3231:3237   */\n      dup3\n        /* \"#utility.yul\":3224:3229   */\n      dup2\n        /* \"#utility.yul\":3217:3238   */\n      mstore\n        /* \"#utility.yul\":3269:3273   */\n      0x20\n        /* \"#utility.yul\":3262:3267   */\n      dup2\n        /* \"#utility.yul\":3258:3274   */\n      add\n        /* \"#utility.yul\":3307:3310   */\n      dup5\n        /* \"#utility.yul\":3298:3304   */\n      dup5\n        /* \"#utility.yul\":3293:3296   */\n      dup5\n        /* \"#utility.yul\":3289:3305   */\n      add\n        /* \"#utility.yul\":3286:3311   */\n      gt\n        /* \"#utility.yul\":3283:3395   */\n      iszero\n      tag_410\n      jumpi\n        /* \"#utility.yul\":3314:3393   */\n      tag_411\n      tag_278\n      jump\t// in\n    tag_411:\n        /* \"#utility.yul\":3283:3395   */\n    tag_410:\n        /* \"#utility.yul\":3404:3458   */\n      tag_412\n        /* \"#utility.yul\":3451:3457   */\n      dup5\n        /* \"#utility.yul\":3446:3449   */\n      dup3\n        /* \"#utility.yul\":3441:3444   */\n      dup6\n        /* \"#utility.yul\":3404:3458   */\n      tag_283\n      jump\t// in\n    tag_412:\n        /* \"#utility.yul\":3123:3464   */\n      pop\n        /* \"#utility.yul\":3039:3464   */\n      swap4\n      swap3\n      pop\n      pop\n      pop\n      jump\t// out\n        /* \"#utility.yul\":3484:3824   */\n    tag_285:\n        /* \"#utility.yul\":3540:3545   */\n      0x00\n        /* \"#utility.yul\":3589:3592   */\n      dup3\n        /* \"#utility.yul\":3582:3586   */\n      0x1f\n        /* \"#utility.yul\":3574:3580   */\n      dup4\n        /* \"#utility.yul\":3570:3587   */\n      add\n        /* \"#utility.yul\":3566:3593   */\n      slt\n        /* \"#utility.yul\":3556:3678   */\n      tag_414\n      jumpi\n        /* \"#utility.yul\":3597:3676   */\n      tag_415\n      tag_277\n      jump\t// in\n    tag_415:\n        /* \"#utility.yul\":3556:3678   */\n    tag_414:\n        /* \"#utility.yul\":3714:3720   */\n      dup2\n        /* \"#utility.yul\":3701:3721   */\n      calldataload\n        /* \"#utility.yul\":3739:3818   */\n      tag_416\n        /* \"#utility.yul\":3814:3817   */\n      dup5\n        /* \"#utility.yul\":3806:3812   */\n      dup3\n        /* \"#utility.yul\":3799:3803   */\n      0x20\n        /* \"#utility.yul\":3791:3797   */\n      dup7\n        /* \"#utility.yul\":3787:3804   */\n      add\n        /* \"#utility.yul\":3739:3818   */\n      tag_284\n      jump\t// in\n    tag_416:\n        /* \"#utility.yul\":3730:3818   */\n      swap2\n      pop\n        /* \"#utility.yul\":3546:3824   */\n      pop\n        /* \"#utility.yul\":3484:3824   */\n      swap3\n      swap2\n      pop\n      pop\n      jump\t// out\n        /* \"#utility.yul\":3830:4339   */\n    tag_31:\n        /* \"#utility.yul\":3899:3905   */\n      0x00\n        /* \"#utility.yul\":3948:3950   */\n      0x20\n        /* \"#utility.yul\":3936:3945   */\n      dup3\n        /* \"#utility.yul\":3927:3934   */\n      dup5\n        /* \"#utility.yul\":3923:3946   */\n      sub\n        /* \"#utility.yul\":3919:3951   */\n      slt\n        /* \"#utility.yul\":3916:4035   */\n      iszero\n      tag_418\n      jumpi\n        /* \"#utility.yul\":3954:4033   */\n      tag_419\n      tag_269\n      jump\t// in\n    tag_419:\n        /* \"#utility.yul\":3916:4035   */\n    tag_418:\n        /* \"#utility.yul\":4102:4103   */\n      0x00\n        /* \"#utility.yul\":4091:4100   */\n      dup3\n        /* \"#utility.yul\":4087:4104   */\n      add\n        /* \"#utility.yul\":4074:4105   */\n      calldataload\n        /* \"#utility.yul\":4132:4150   */\n      0xffffffffffffffff\n        /* \"#utility.yul\":4124:4130   */\n      dup2\n        /* \"#utility.yul\":4121:4151   */\n      gt\n        /* \"#utility.yul\":4118:4235   */\n      iszero\n      tag_420\n      jumpi\n        /* \"#utility.yul\":4154:4233   */\n      tag_421\n      tag_270\n      jump\t// in\n    tag_421:\n        /* \"#utility.yul\":4118:4235   */\n    tag_420:\n        /* \"#utility.yul\":4259:4322   */\n      tag_422\n        /* \"#utility.yul\":4314:4321   */\n      dup5\n        /* \"#utility.yul\":4305:4311   */\n      dup3\n        /* \"#utility.yul\":4294:4303   */\n      dup6\n        /* \"#utility.yul\":4290:4312   */\n      add\n        /* \"#utility.yul\":4259:4322   */\n      tag_285\n      jump\t// in\n    tag_422:\n        /* \"#utility.yul\":4249:4322   */\n      swap2\n      pop\n        /* \"#utility.yul\":4045:4332   */\n      pop\n        /* \"#utility.yul\":3830:4339   */\n      swap3\n      swap2\n      pop\n      pop\n      jump\t// out\n        /* \"#utility.yul\":4345:4434   */\n    tag_286:\n        /* \"#utility.yul\":4381:4388   */\n      0x00\n        /* \"#utility.yul\":4421:4427   */\n      0xffff\n        /* \"#utility.yul\":4414:4419   */\n      dup3\n        /* \"#utility.yul\":4410:4428   */\n      and\n        /* \"#utility.yul\":4399:4428   */\n      swap1\n      pop\n        /* \"#utility.yul\":4345:4434   */\n      swap2\n      swap1\n      pop\n      jump\t// out\n        /* \"#utility.yul\":4440:4560   */\n    tag_287:\n        /* \"#utility.yul\":4512:4535   */\n      tag_425\n        /* \"#utility.yul\":4529:4534   */\n      dup2\n        /* \"#utility.yul\":4512:4535   */\n      tag_286\n      jump\t// in\n    tag_425:\n        /* \"#utility.yul\":4505:4510   */\n      dup2\n        /* \"#utility.yul\":4502:4536   */\n      eq\n        /* \"#utility.yul\":4492:4554   */\n      tag_426\n      jumpi\n        /* \"#utility.yul\":4550:4551   */\n      0x00\n        /* \"#utility.yul\":4547:4548   */\n      dup1\n        /* \"#utility.yul\":4540:4552   */\n      revert\n        /* \"#utility.yul\":4492:4554   */\n    tag_426:\n        /* \"#utility.yul\":4440:4560   */\n      pop\n      jump\t// out\n        /* \"#utility.yul\":4566:4703   */\n    tag_288:\n        /* \"#utility.yul\":4611:4616   */\n      0x00\n        /* \"#utility.yul\":4649:4655   */\n      dup2\n        /* \"#utility.yul\":4636:4656   */\n      calldataload\n        /* \"#utility.yul\":4627:4656   */\n      swap1\n      pop\n        /* \"#utility.yul\":4665:4697   */\n      tag_428\n        /* \"#utility.yul\":4691:4696   */\n      dup2\n        /* \"#utility.yul\":4665:4697   */\n      tag_287\n      jump\t// in\n    tag_428:\n        /* \"#utility.yul\":4566:4703   */\n      swap3\n      swap2\n      pop\n      pop\n      jump\t// out\n        /* \"#utility.yul\":4709:4795   */\n    tag_289:\n        /* \"#utility.yul\":4744:4751   */\n      0x00\n        /* \"#utility.yul\":4784:4788   */\n      0xff\n        /* \"#utility.yul\":4777:4782   */\n      dup3\n        /* \"#utility.yul\":4773:4789   */\n      and\n        /* \"#utility.yul\":4762:4789   */\n      swap1\n      pop\n        /* \"#utility.yul\":4709:4795   */\n      swap2\n      swap1\n      pop\n      jump\t// out\n        /* \"#utility.yul\":4801:4919   */\n    tag_290:\n        /* \"#utility.yul\":4872:4894   */\n      tag_431\n        /* \"#utility.yul\":4888:4893   */\n      dup2\n        /* \"#utility.yul\":4872:4894   */\n      tag_289\n      jump\t// in\n    tag_431:\n        /* \"#utility.yul\":4865:4870   */\n      dup2\n        /* \"#utility.yul\":4862:4895   */\n      eq\n        /* \"#utility.yul\":4852:4913   */\n      tag_432\n      jumpi\n        /* \"#utility.yul\":4909:4910   */\n      0x00\n        /* \"#utility.yul\":4906:4907   */\n      dup1\n        /* \"#utility.yul\":4899:4911   */\n      revert\n        /* \"#utility.yul\":4852:4913   */\n    tag_432:\n        /* \"#utility.yul\":4801:4919   */\n      pop\n      jump\t// out\n        /* \"#utility.yul\":4925:5060   */\n    tag_291:\n        /* \"#utility.yul\":4969:4974   */\n      0x00\n        /* \"#utility.yul\":5007:5013   */\n      dup2\n        /* \"#utility.yul\":4994:5014   */\n      calldataload\n        /* \"#utility.yul\":4985:5014   */\n      swap1\n      pop\n        /* \"#utility.yul\":5023:5054   */\n      tag_434\n        /* \"#utility.yul\":5048:5053   */\n      dup2\n        /* \"#utility.yul\":5023:5054   */\n      tag_290\n      jump\t// in\n    tag_434:\n        /* \"#utility.yul\":4925:5060   */\n      swap3\n      swap2\n      pop\n      pop\n      jump\t// out\n        /* \"#utility.yul\":5066:5675   */\n    tag_36:\n        /* \"#utility.yul\":5138:5144   */\n      0x00\n        /* \"#utility.yul\":5146:5152   */\n      dup1\n        /* \"#utility.yul\":5154:5160   */\n      0x00\n        /* \"#utility.yul\":5203:5205   */\n      0x60\n        /* \"#utility.yul\":5191:5200   */\n      dup5\n        /* \"#utility.yul\":5182:5189   */\n      dup7\n        /* \"#utility.yul\":5178:5201   */\n      sub\n        /* \"#utility.yul\":5174:5206   */\n      slt\n        /* \"#utility.yul\":5171:5290   */\n      iszero\n      tag_436\n      jumpi\n        /* \"#utility.yul\":5209:5288   */\n      tag_437\n      tag_269\n      jump\t// in\n    tag_437:\n        /* \"#utility.yul\":5171:5290   */\n    tag_436:\n        /* \"#utility.yul\":5329:5330   */\n      0x00\n        /* \"#utility.yul\":5354:5406   */\n      tag_438\n        /* \"#utility.yul\":5398:5405   */\n      dup7\n        /* \"#utility.yul\":5389:5395   */\n      dup3\n        /* \"#utility.yul\":5378:5387   */\n      dup8\n        /* \"#utility.yul\":5374:5396   */\n      add\n        /* \"#utility.yul\":5354:5406   */\n      tag_288\n      jump\t// in\n    tag_438:\n        /* \"#utility.yul\":5344:5406   */\n      swap4\n      pop\n        /* \"#utility.yul\":5300:5416   */\n      pop\n        /* \"#utility.yul\":5455:5457   */\n      0x20\n        /* \"#utility.yul\":5481:5532   */\n      tag_439\n        /* \"#utility.yul\":5524:5531   */\n      dup7\n        /* \"#utility.yul\":5515:5521   */\n      dup3\n        /* \"#utility.yul\":5504:5513   */\n      dup8\n        /* \"#utility.yul\":5500:5522   */\n      add\n        /* \"#utility.yul\":5481:5532   */\n      tag_291\n      jump\t// in\n    tag_439:\n        /* \"#utility.yul\":5471:5532   */\n      swap3\n      pop\n        /* \"#utility.yul\":5426:5542   */\n      pop\n        /* \"#utility.yul\":5581:5583   */\n      0x40\n        /* \"#utility.yul\":5607:5658   */\n      tag_440\n        /* \"#utility.yul\":5650:5657   */\n      dup7\n        /* \"#utility.yul\":5641:5647   */\n      dup3\n        /* \"#utility.yul\":5630:5639   */\n      dup8\n        /* \"#utility.yul\":5626:5648   */\n      add\n        /* \"#utility.yul\":5607:5658   */\n      tag_291\n      jump\t// in\n    tag_440:\n        /* \"#utility.yul\":5597:5658   */\n      swap2\n      pop\n        /* \"#utility.yul\":5552:5668   */\n      pop\n        /* \"#utility.yul\":5066:5675   */\n      swap3\n      pop\n      swap3\n      pop\n      swap3\n      jump\t// out\n        /* \"#utility.yul\":5681:5822   */\n    tag_292:\n        /* \"#utility.yul\":5775:5781   */\n      0x00\n        /* \"#utility.yul\":5809:5814   */\n      dup2\n        /* \"#utility.yul\":5803:5815   */\n      mload\n        /* \"#utility.yul\":5793:5815   */\n      swap1\n      pop\n        /* \"#utility.yul\":5681:5822   */\n      swap2\n      swap1\n      pop\n      jump\t// out\n        /* \"#utility.yul\":5828:6039   */\n    tag_293:\n        /* \"#utility.yul\":5954:5965   */\n      0x00\n        /* \"#utility.yul\":5988:5994   */\n      dup3\n        /* \"#utility.yul\":5983:5986   */\n      dup3\n        /* \"#utility.yul\":5976:5995   */\n      mstore\n        /* \"#utility.yul\":6028:6032   */\n      0x20\n        /* \"#utility.yul\":6023:6026   */\n      dup3\n        /* \"#utility.yul\":6019:6033   */\n      add\n        /* \"#utility.yul\":6004:6033   */\n      swap1\n      pop\n        /* \"#utility.yul\":5828:6039   */\n      swap3\n      swap2\n      pop\n      pop\n      jump\t// out\n        /* \"#utility.yul\":6045:6204   */\n    tag_294:\n        /* \"#utility.yul\":6139:6143   */\n      0x00\n        /* \"#utility.yul\":6162:6165   */\n      dup2\n        /* \"#utility.yul\":6154:6165   */\n      swap1\n      pop\n        /* \"#utility.yul\":6192:6196   */\n      0x20\n        /* \"#utility.yul\":6187:6190   */\n      dup3\n        /* \"#utility.yul\":6183:6197   */\n      add\n        /* \"#utility.yul\":6175:6197   */\n      swap1\n      pop\n        /* \"#utility.yul\":6045:6204   */\n      swap2\n      swap1\n      pop\n      jump\t// out\n        /* \"#utility.yul\":6210:6318   */\n    tag_295:\n        /* \"#utility.yul\":6287:6311   */\n      tag_445\n        /* \"#utility.yul\":6305:6310   */\n      dup2\n        /* \"#utility.yul\":6287:6311   */\n      tag_272\n      jump\t// in\n    tag_445:\n        /* \"#utility.yul\":6282:6285   */\n      dup3\n        /* \"#utility.yul\":6275:6312   */\n      mstore\n        /* \"#utility.yul\":6210:6318   */\n      pop\n      pop\n      jump\t// out\n        /* \"#utility.yul\":6324:6423   */\n    tag_296:\n        /* \"#utility.yul\":6376:6382   */\n      0x00\n        /* \"#utility.yul\":6410:6415   */\n      dup2\n        /* \"#utility.yul\":6404:6416   */\n      mload\n        /* \"#utility.yul\":6394:6416   */\n      swap1\n      pop\n        /* \"#utility.yul\":6324:6423   */\n      swap2\n      swap1\n      pop\n      jump\t// out\n        /* \"#utility.yul\":6429:6588   */\n    tag_297:\n        /* \"#utility.yul\":6503:6514   */\n      0x00\n        /* \"#utility.yul\":6537:6543   */\n      dup3\n        /* \"#utility.yul\":6532:6535   */\n      dup3\n        /* \"#utility.yul\":6525:6544   */\n      mstore\n        /* \"#utility.yul\":6577:6581   */\n      0x20\n        /* \"#utility.yul\":6572:6575   */\n      dup3\n        /* \"#utility.yul\":6568:6582   */\n      add\n        /* \"#utility.yul\":6553:6582   */\n      swap1\n      pop\n        /* \"#utility.yul\":6429:6588   */\n      swap3\n      swap2\n      pop\n      pop\n      jump\t// out\n        /* \"#utility.yul\":6594:6840   */\n    tag_298:\n        /* \"#utility.yul\":6675:6676   */\n      0x00\n        /* \"#utility.yul\":6685:6798   */\n    tag_449:\n        /* \"#utility.yul\":6699:6705   */\n      dup4\n        /* \"#utility.yul\":6696:6697   */\n      dup2\n        /* \"#utility.yul\":6693:6706   */\n      lt\n        /* \"#utility.yul\":6685:6798   */\n      iszero\n      tag_451\n      jumpi\n        /* \"#utility.yul\":6784:6785   */\n      dup1\n        /* \"#utility.yul\":6779:6782   */\n      dup3\n        /* \"#utility.yul\":6775:6786   */\n      add\n        /* \"#utility.yul\":6769:6787   */\n      mload\n        /* \"#utility.yul\":6765:6766   */\n      dup2\n        /* \"#utility.yul\":6760:6763   */\n      dup5\n        /* \"#utility.yul\":6756:6767   */\n      add\n        /* \"#utility.yul\":6749:6788   */\n      mstore\n        /* \"#utility.yul\":6721:6723   */\n      0x20\n        /* \"#utility.yul\":6718:6719   */\n      dup2\n        /* \"#utility.yul\":6714:6724   */\n      add\n        /* \"#utility.yul\":6709:6724   */\n      swap1\n      pop\n        /* \"#utility.yul\":6685:6798   */\n      jump(tag_449)\n    tag_451:\n        /* \"#utility.yul\":6832:6833   */\n      0x00\n        /* \"#utility.yul\":6823:6829   */\n      dup5\n        /* \"#utility.yul\":6818:6821   */\n      dup5\n        /* \"#utility.yul\":6814:6830   */\n      add\n        /* \"#utility.yul\":6807:6834   */\n      mstore\n        /* \"#utility.yul\":6656:6840   */\n      pop\n        /* \"#utility.yul\":6594:6840   */\n      pop\n      pop\n      pop\n      jump\t// out\n        /* \"#utility.yul\":6846:7203   */\n    tag_299:\n        /* \"#utility.yul\":6924:6927   */\n      0x00\n        /* \"#utility.yul\":6952:6991   */\n      tag_453\n        /* \"#utility.yul\":6985:6990   */\n      dup3\n        /* \"#utility.yul\":6952:6991   */\n      tag_296\n      jump\t// in\n    tag_453:\n        /* \"#utility.yul\":7007:7068   */\n      tag_454\n        /* \"#utility.yul\":7061:7067   */\n      dup2\n        /* \"#utility.yul\":7056:7059   */\n      dup6\n        /* \"#utility.yul\":7007:7068   */\n      tag_297\n      jump\t// in\n    tag_454:\n        /* \"#utility.yul\":7000:7068   */\n      swap4\n      pop\n        /* \"#utility.yul\":7077:7142   */\n      tag_455\n        /* \"#utility.yul\":7135:7141   */\n      dup2\n        /* \"#utility.yul\":7130:7133   */\n      dup6\n        /* \"#utility.yul\":7123:7127   */\n      0x20\n        /* \"#utility.yul\":7116:7121   */\n      dup7\n        /* \"#utility.yul\":7112:7128   */\n      add\n        /* \"#utility.yul\":7077:7142   */\n      tag_298\n      jump\t// in\n    tag_455:\n        /* \"#utility.yul\":7167:7196   */\n      tag_456\n        /* \"#utility.yul\":7189:7195   */\n      dup2\n        /* \"#utility.yul\":7167:7196   */\n      tag_279\n      jump\t// in\n    tag_456:\n        /* \"#utility.yul\":7162:7165   */\n      dup5\n        /* \"#utility.yul\":7158:7197   */\n      add\n        /* \"#utility.yul\":7151:7197   */\n      swap2\n      pop\n        /* \"#utility.yul\":6928:7203   */\n      pop\n        /* \"#utility.yul\":6846:7203   */\n      swap3\n      swap2\n      pop\n      pop\n      jump\t// out\n        /* \"#utility.yul\":7209:7317   */\n    tag_300:\n        /* \"#utility.yul\":7286:7310   */\n      tag_458\n        /* \"#utility.yul\":7304:7309   */\n      dup2\n        /* \"#utility.yul\":7286:7310   */\n      tag_275\n      jump\t// in\n    tag_458:\n        /* \"#utility.yul\":7281:7284   */\n      dup3\n        /* \"#utility.yul\":7274:7311   */\n      mstore\n        /* \"#utility.yul\":7209:7317   */\n      pop\n      pop\n      jump\t// out\n        /* \"#utility.yul\":7403:8361   */\n    tag_301:\n        /* \"#utility.yul\":7516:7519   */\n      0x00\n        /* \"#utility.yul\":7552:7556   */\n      0x80\n        /* \"#utility.yul\":7547:7550   */\n      dup4\n        /* \"#utility.yul\":7543:7557   */\n      add\n        /* \"#utility.yul\":7641:7645   */\n      0x00\n        /* \"#utility.yul\":7634:7639   */\n      dup4\n        /* \"#utility.yul\":7630:7646   */\n      add\n        /* \"#utility.yul\":7624:7647   */\n      mload\n        /* \"#utility.yul\":7660:7723   */\n      tag_460\n        /* \"#utility.yul\":7717:7721   */\n      0x00\n        /* \"#utility.yul\":7712:7715   */\n      dup7\n        /* \"#utility.yul\":7708:7722   */\n      add\n        /* \"#utility.yul\":7694:7706   */\n      dup3\n        /* \"#utility.yul\":7660:7723   */\n      tag_295\n      jump\t// in\n    tag_460:\n        /* \"#utility.yul\":7567:7733   */\n      pop\n        /* \"#utility.yul\":7817:7821   */\n      0x20\n        /* \"#utility.yul\":7810:7815   */\n      dup4\n        /* \"#utility.yul\":7806:7822   */\n      add\n        /* \"#utility.yul\":7800:7823   */\n      mload\n        /* \"#utility.yul\":7870:7873   */\n      dup5\n        /* \"#utility.yul\":7864:7868   */\n      dup3\n        /* \"#utility.yul\":7860:7874   */\n      sub\n        /* \"#utility.yul\":7853:7857   */\n      0x20\n        /* \"#utility.yul\":7848:7851   */\n      dup7\n        /* \"#utility.yul\":7844:7858   */\n      add\n        /* \"#utility.yul\":7837:7875   */\n      mstore\n        /* \"#utility.yul\":7896:7969   */\n      tag_461\n        /* \"#utility.yul\":7964:7968   */\n      dup3\n        /* \"#utility.yul\":7950:7962   */\n      dup3\n        /* \"#utility.yul\":7896:7969   */\n      tag_299\n      jump\t// in\n    tag_461:\n        /* \"#utility.yul\":7888:7969   */\n      swap2\n      pop\n        /* \"#utility.yul\":7743:7980   */\n      pop\n        /* \"#utility.yul\":8063:8067   */\n      0x40\n        /* \"#utility.yul\":8056:8061   */\n      dup4\n        /* \"#utility.yul\":8052:8068   */\n      add\n        /* \"#utility.yul\":8046:8069   */\n      mload\n        /* \"#utility.yul\":8082:8145   */\n      tag_462\n        /* \"#utility.yul\":8139:8143   */\n      0x40\n        /* \"#utility.yul\":8134:8137   */\n      dup7\n        /* \"#utility.yul\":8130:8144   */\n      add\n        /* \"#utility.yul\":8116:8128   */\n      dup3\n        /* \"#utility.yul\":8082:8145   */\n      tag_300\n      jump\t// in\n    tag_462:\n        /* \"#utility.yul\":7990:8155   */\n      pop\n        /* \"#utility.yul\":8242:8246   */\n      0x60\n        /* \"#utility.yul\":8235:8240   */\n      dup4\n        /* \"#utility.yul\":8231:8247   */\n      add\n        /* \"#utility.yul\":8225:8248   */\n      mload\n        /* \"#utility.yul\":8261:8324   */\n      tag_463\n        /* \"#utility.yul\":8318:8322   */\n      0x60\n        /* \"#utility.yul\":8313:8316   */\n      dup7\n        /* \"#utility.yul\":8309:8323   */\n      add\n        /* \"#utility.yul\":8295:8307   */\n      dup3\n        /* \"#utility.yul\":8261:8324   */\n      tag_300\n      jump\t// in\n    tag_463:\n        /* \"#utility.yul\":8165:8334   */\n      pop\n        /* \"#utility.yul\":8351:8355   */\n      dup1\n        /* \"#utility.yul\":8344:8355   */\n      swap2\n      pop\n        /* \"#utility.yul\":7521:8361   */\n      pop\n        /* \"#utility.yul\":7403:8361   */\n      swap3\n      swap2\n      pop\n      pop\n      jump\t// out\n        /* \"#utility.yul\":8367:8631   */\n    tag_302:\n        /* \"#utility.yul\":8490:8500   */\n      0x00\n        /* \"#utility.yul\":8525:8625   */\n      tag_465\n        /* \"#utility.yul\":8621:8624   */\n      dup4\n        /* \"#utility.yul\":8613:8619   */\n      dup4\n        /* \"#utility.yul\":8525:8625   */\n      tag_301\n      jump\t// in\n    tag_465:\n        /* \"#utility.yul\":8511:8625   */\n      swap1\n      pop\n        /* \"#utility.yul\":8367:8631   */\n      swap3\n      swap2\n      pop\n      pop\n      jump\t// out\n        /* \"#utility.yul\":8637:8777   */\n    tag_303:\n        /* \"#utility.yul\":8734:8738   */\n      0x00\n        /* \"#utility.yul\":8766:8770   */\n      0x20\n        /* \"#utility.yul\":8761:8764   */\n      dup3\n        /* \"#utility.yul\":8757:8771   */\n      add\n        /* \"#utility.yul\":8749:8771   */\n      swap1\n      pop\n        /* \"#utility.yul\":8637:8777   */\n      swap2\n      swap1\n      pop\n      jump\t// out\n        /* \"#utility.yul\":8867:9994   */\n    tag_304:\n        /* \"#utility.yul\":9040:9043   */\n      0x00\n        /* \"#utility.yul\":9069:9150   */\n      tag_468\n        /* \"#utility.yul\":9144:9149   */\n      dup3\n        /* \"#utility.yul\":9069:9150   */\n      tag_292\n      jump\t// in\n    tag_468:\n        /* \"#utility.yul\":9166:9279   */\n      tag_469\n        /* \"#utility.yul\":9272:9278   */\n      dup2\n        /* \"#utility.yul\":9267:9270   */\n      dup6\n        /* \"#utility.yul\":9166:9279   */\n      tag_293\n      jump\t// in\n    tag_469:\n        /* \"#utility.yul\":9159:9279   */\n      swap4\n      pop\n        /* \"#utility.yul\":9305:9308   */\n      dup4\n        /* \"#utility.yul\":9350:9354   */\n      0x20\n        /* \"#utility.yul\":9342:9348   */\n      dup3\n        /* \"#utility.yul\":9338:9355   */\n      mul\n        /* \"#utility.yul\":9333:9336   */\n      dup6\n        /* \"#utility.yul\":9329:9356   */\n      add\n        /* \"#utility.yul\":9380:9463   */\n      tag_470\n        /* \"#utility.yul\":9457:9462   */\n      dup6\n        /* \"#utility.yul\":9380:9463   */\n      tag_294\n      jump\t// in\n    tag_470:\n        /* \"#utility.yul\":9486:9493   */\n      dup1\n        /* \"#utility.yul\":9517:9518   */\n      0x00\n        /* \"#utility.yul\":9502:9949   */\n    tag_471:\n        /* \"#utility.yul\":9527:9533   */\n      dup6\n        /* \"#utility.yul\":9524:9525   */\n      dup2\n        /* \"#utility.yul\":9521:9534   */\n      lt\n        /* \"#utility.yul\":9502:9949   */\n      iszero\n      tag_473\n      jumpi\n        /* \"#utility.yul\":9598:9607   */\n      dup5\n        /* \"#utility.yul\":9592:9596   */\n      dup5\n        /* \"#utility.yul\":9588:9608   */\n      sub\n        /* \"#utility.yul\":9583:9586   */\n      dup10\n        /* \"#utility.yul\":9576:9609   */\n      mstore\n        /* \"#utility.yul\":9649:9655   */\n      dup2\n        /* \"#utility.yul\":9643:9656   */\n      mload\n        /* \"#utility.yul\":9677:9795   */\n      tag_474\n        /* \"#utility.yul\":9790:9794   */\n      dup6\n        /* \"#utility.yul\":9775:9788   */\n      dup3\n        /* \"#utility.yul\":9677:9795   */\n      tag_302\n      jump\t// in\n    tag_474:\n        /* \"#utility.yul\":9669:9795   */\n      swap5\n      pop\n        /* \"#utility.yul\":9818:9905   */\n      tag_475\n        /* \"#utility.yul\":9898:9904   */\n      dup4\n        /* \"#utility.yul\":9818:9905   */\n      tag_303\n      jump\t// in\n    tag_475:\n        /* \"#utility.yul\":9808:9905   */\n      swap3\n      pop\n        /* \"#utility.yul\":9934:9938   */\n      0x20\n        /* \"#utility.yul\":9929:9932   */\n      dup11\n        /* \"#utility.yul\":9925:9939   */\n      add\n        /* \"#utility.yul\":9918:9939   */\n      swap10\n      pop\n        /* \"#utility.yul\":9562:9949   */\n      pop\n        /* \"#utility.yul\":9549:9550   */\n      0x01\n        /* \"#utility.yul\":9546:9547   */\n      dup2\n        /* \"#utility.yul\":9542:9551   */\n      add\n        /* \"#utility.yul\":9537:9551   */\n      swap1\n      pop\n        /* \"#utility.yul\":9502:9949   */\n      jump(tag_471)\n    tag_473:\n        /* \"#utility.yul\":9506:9520   */\n      pop\n        /* \"#utility.yul\":9965:9969   */\n      dup3\n        /* \"#utility.yul\":9958:9969   */\n      swap8\n      pop\n        /* \"#utility.yul\":9985:9988   */\n      dup8\n        /* \"#utility.yul\":9978:9988   */\n      swap6\n      pop\n        /* \"#utility.yul\":9045:9994   */\n      pop\n      pop\n      pop\n      pop\n      pop\n        /* \"#utility.yul\":8867:9994   */\n      swap3\n      swap2\n      pop\n      pop\n      jump\t// out\n        /* \"#utility.yul\":10000:10481   */\n    tag_39:\n        /* \"#utility.yul\":10197:10201   */\n      0x00\n        /* \"#utility.yul\":10235:10237   */\n      0x20\n        /* \"#utility.yul\":10224:10233   */\n      dup3\n        /* \"#utility.yul\":10220:10238   */\n      add\n        /* \"#utility.yul\":10212:10238   */\n      swap1\n      pop\n        /* \"#utility.yul\":10284:10293   */\n      dup2\n        /* \"#utility.yul\":10278:10282   */\n      dup2\n        /* \"#utility.yul\":10274:10294   */\n      sub\n        /* \"#utility.yul\":10270:10271   */\n      0x00\n        /* \"#utility.yul\":10259:10268   */\n      dup4\n        /* \"#utility.yul\":10255:10272   */\n      add\n        /* \"#utility.yul\":10248:10295   */\n      mstore\n        /* \"#utility.yul\":10312:10474   */\n      tag_477\n        /* \"#utility.yul\":10469:10473   */\n      dup2\n        /* \"#utility.yul\":10460:10466   */\n      dup5\n        /* \"#utility.yul\":10312:10474   */\n      tag_304\n      jump\t// in\n    tag_477:\n        /* \"#utility.yul\":10304:10474   */\n      swap1\n      pop\n        /* \"#utility.yul\":10000:10481   */\n      swap3\n      swap2\n      pop\n      pop\n      jump\t// out\n        /* \"#utility.yul\":10487:10609   */\n    tag_305:\n        /* \"#utility.yul\":10560:10584   */\n      tag_479\n        /* \"#utility.yul\":10578:10583   */\n      dup2\n        /* \"#utility.yul\":10560:10584   */\n      tag_275\n      jump\t// in\n    tag_479:\n        /* \"#utility.yul\":10553:10558   */\n      dup2\n        /* \"#utility.yul\":10550:10585   */\n      eq\n        /* \"#utility.yul\":10540:10603   */\n      tag_480\n      jumpi\n        /* \"#utility.yul\":10599:10600   */\n      0x00\n        /* \"#utility.yul\":10596:10597   */\n      dup1\n        /* \"#utility.yul\":10589:10601   */\n      revert\n        /* \"#utility.yul\":10540:10603   */\n    tag_480:\n        /* \"#utility.yul\":10487:10609   */\n      pop\n      jump\t// out\n        /* \"#utility.yul\":10615:10754   */\n    tag_306:\n        /* \"#utility.yul\":10661:10666   */\n      0x00\n        /* \"#utility.yul\":10699:10705   */\n      dup2\n        /* \"#utility.yul\":10686:10706   */\n      calldataload\n        /* \"#utility.yul\":10677:10706   */\n      swap1\n      pop\n        /* \"#utility.yul\":10715:10748   */\n      tag_482\n        /* \"#utility.yul\":10742:10747   */\n      dup2\n        /* \"#utility.yul\":10715:10748   */\n      tag_305\n      jump\t// in\n    tag_482:\n        /* \"#utility.yul\":10615:10754   */\n      swap3\n      swap2\n      pop\n      pop\n      jump\t// out\n        /* \"#utility.yul\":10760:11089   */\n    tag_45:\n        /* \"#utility.yul\":10819:10825   */\n      0x00\n        /* \"#utility.yul\":10868:10870   */\n      0x20\n        /* \"#utility.yul\":10856:10865   */\n      dup3\n        /* \"#utility.yul\":10847:10854   */\n      dup5\n        /* \"#utility.yul\":10843:10866   */\n      sub\n        /* \"#utility.yul\":10839:10871   */\n      slt\n        /* \"#utility.yul\":10836:10955   */\n      iszero\n      tag_484\n      jumpi\n        /* \"#utility.yul\":10874:10953   */\n      tag_485\n      tag_269\n      jump\t// in\n    tag_485:\n        /* \"#utility.yul\":10836:10955   */\n    tag_484:\n        /* \"#utility.yul\":10994:10995   */\n      0x00\n        /* \"#utility.yul\":11019:11072   */\n      tag_486\n        /* \"#utility.yul\":11064:11071   */\n      dup5\n        /* \"#utility.yul\":11055:11061   */\n      dup3\n        /* \"#utility.yul\":11044:11053   */\n      dup6\n        /* \"#utility.yul\":11040:11062   */\n      add\n        /* \"#utility.yul\":11019:11072   */\n      tag_306\n      jump\t// in\n    tag_486:\n        /* \"#utility.yul\":11009:11072   */\n      swap2\n      pop\n        /* \"#utility.yul\":10965:11082   */\n      pop\n        /* \"#utility.yul\":10760:11089   */\n      swap3\n      swap2\n      pop\n      pop\n      jump\t// out\n        /* \"#utility.yul\":11095:11210   */\n    tag_307:\n        /* \"#utility.yul\":11180:11203   */\n      tag_488\n        /* \"#utility.yul\":11197:11202   */\n      dup2\n        /* \"#utility.yul\":11180:11203   */\n      tag_286\n      jump\t// in\n    tag_488:\n        /* \"#utility.yul\":11175:11178   */\n      dup3\n        /* \"#utility.yul\":11168:11204   */\n      mstore\n        /* \"#utility.yul\":11095:11210   */\n      pop\n      pop\n      jump\t// out\n        /* \"#utility.yul\":11216:11328   */\n    tag_308:\n        /* \"#utility.yul\":11299:11321   */\n      tag_490\n        /* \"#utility.yul\":11315:11320   */\n      dup2\n        /* \"#utility.yul\":11299:11321   */\n      tag_289\n      jump\t// in\n    tag_490:\n        /* \"#utility.yul\":11294:11297   */\n      dup3\n        /* \"#utility.yul\":11287:11322   */\n      mstore\n        /* \"#utility.yul\":11216:11328   */\n      pop\n      pop\n      jump\t// out\n        /* \"#utility.yul\":11334:11756   */\n    tag_48:\n        /* \"#utility.yul\":11473:11477   */\n      0x00\n        /* \"#utility.yul\":11511:11513   */\n      0x60\n        /* \"#utility.yul\":11500:11509   */\n      dup3\n        /* \"#utility.yul\":11496:11514   */\n      add\n        /* \"#utility.yul\":11488:11514   */\n      swap1\n      pop\n        /* \"#utility.yul\":11524:11593   */\n      tag_492\n        /* \"#utility.yul\":11590:11591   */\n      0x00\n        /* \"#utility.yul\":11579:11588   */\n      dup4\n        /* \"#utility.yul\":11575:11592   */\n      add\n        /* \"#utility.yul\":11566:11572   */\n      dup7\n        /* \"#utility.yul\":11524:11593   */\n      tag_307\n      jump\t// in\n    tag_492:\n        /* \"#utility.yul\":11603:11671   */\n      tag_493\n        /* \"#utility.yul\":11667:11669   */\n      0x20\n        /* \"#utility.yul\":11656:11665   */\n      dup4\n        /* \"#utility.yul\":11652:11670   */\n      add\n        /* \"#utility.yul\":11643:11649   */\n      dup6\n        /* \"#utility.yul\":11603:11671   */\n      tag_308\n      jump\t// in\n    tag_493:\n        /* \"#utility.yul\":11681:11749   */\n      tag_494\n        /* \"#utility.yul\":11745:11747   */\n      0x40\n        /* \"#utility.yul\":11734:11743   */\n      dup4\n        /* \"#utility.yul\":11730:11748   */\n      add\n        /* \"#utility.yul\":11721:11727   */\n      dup5\n        /* \"#utility.yul\":11681:11749   */\n      tag_308\n      jump\t// in\n    tag_494:\n        /* \"#utility.yul\":11334:11756   */\n      swap5\n      swap4\n      pop\n      pop\n      pop\n      pop\n      jump\t// out\n        /* \"#utility.yul\":11762:11879   */\n    tag_309:\n        /* \"#utility.yul\":11871:11872   */\n      0x00\n        /* \"#utility.yul\":11868:11869   */\n      dup1\n        /* \"#utility.yul\":11861:11873   */\n      revert\n        /* \"#utility.yul\":11885:12002   */\n    tag_310:\n        /* \"#utility.yul\":11994:11995   */\n      0x00\n        /* \"#utility.yul\":11991:11992   */\n      dup1\n        /* \"#utility.yul\":11984:11996   */\n      revert\n        /* \"#utility.yul\":12050:13128   */\n    tag_311:\n        /* \"#utility.yul\":12126:12131   */\n      0x00\n        /* \"#utility.yul\":12170:12174   */\n      0x80\n        /* \"#utility.yul\":12158:12167   */\n      dup3\n        /* \"#utility.yul\":12153:12156   */\n      dup5\n        /* \"#utility.yul\":12149:12168   */\n      sub\n        /* \"#utility.yul\":12145:12175   */\n      slt\n        /* \"#utility.yul\":12142:12259   */\n      iszero\n      tag_498\n      jumpi\n        /* \"#utility.yul\":12178:12257   */\n      tag_499\n      tag_309\n      jump\t// in\n    tag_499:\n        /* \"#utility.yul\":12142:12259   */\n    tag_498:\n        /* \"#utility.yul\":12277:12298   */\n      tag_500\n        /* \"#utility.yul\":12293:12297   */\n      0x80\n        /* \"#utility.yul\":12277:12298   */\n      tag_281\n      jump\t// in\n    tag_500:\n        /* \"#utility.yul\":12268:12298   */\n      swap1\n      pop\n        /* \"#utility.yul\":12359:12360   */\n      0x00\n        /* \"#utility.yul\":12399:12448   */\n      tag_501\n        /* \"#utility.yul\":12444:12447   */\n      dup5\n        /* \"#utility.yul\":12435:12441   */\n      dup3\n        /* \"#utility.yul\":12424:12433   */\n      dup6\n        /* \"#utility.yul\":12420:12442   */\n      add\n        /* \"#utility.yul\":12399:12448   */\n      tag_274\n      jump\t// in\n    tag_501:\n        /* \"#utility.yul\":12392:12396   */\n      0x00\n        /* \"#utility.yul\":12385:12390   */\n      dup4\n        /* \"#utility.yul\":12381:12397   */\n      add\n        /* \"#utility.yul\":12374:12449   */\n      mstore\n        /* \"#utility.yul\":12308:12460   */\n      pop\n        /* \"#utility.yul\":12549:12551   */\n      0x20\n        /* \"#utility.yul\":12538:12547   */\n      dup3\n        /* \"#utility.yul\":12534:12552   */\n      add\n        /* \"#utility.yul\":12521:12553   */\n      calldataload\n        /* \"#utility.yul\":12580:12598   */\n      0xffffffffffffffff\n        /* \"#utility.yul\":12572:12578   */\n      dup2\n        /* \"#utility.yul\":12569:12599   */\n      gt\n        /* \"#utility.yul\":12566:12683   */\n      iszero\n      tag_502\n      jumpi\n        /* \"#utility.yul\":12602:12681   */\n      tag_503\n      tag_310\n      jump\t// in\n    tag_503:\n        /* \"#utility.yul\":12566:12683   */\n    tag_502:\n        /* \"#utility.yul\":12722:12781   */\n      tag_504\n        /* \"#utility.yul\":12777:12780   */\n      dup5\n        /* \"#utility.yul\":12768:12774   */\n      dup3\n        /* \"#utility.yul\":12757:12766   */\n      dup6\n        /* \"#utility.yul\":12753:12775   */\n      add\n        /* \"#utility.yul\":12722:12781   */\n      tag_285\n      jump\t// in\n    tag_504:\n        /* \"#utility.yul\":12715:12719   */\n      0x20\n        /* \"#utility.yul\":12708:12713   */\n      dup4\n        /* \"#utility.yul\":12704:12720   */\n      add\n        /* \"#utility.yul\":12697:12782   */\n      mstore\n        /* \"#utility.yul\":12470:12793   */\n      pop\n        /* \"#utility.yul\":12853:12855   */\n      0x40\n        /* \"#utility.yul\":12894:12943   */\n      tag_505\n        /* \"#utility.yul\":12939:12942   */\n      dup5\n        /* \"#utility.yul\":12930:12936   */\n      dup3\n        /* \"#utility.yul\":12919:12928   */\n      dup6\n        /* \"#utility.yul\":12915:12937   */\n      add\n        /* \"#utility.yul\":12894:12943   */\n      tag_306\n      jump\t// in\n    tag_505:\n        /* \"#utility.yul\":12887:12891   */\n      0x40\n        /* \"#utility.yul\":12880:12885   */\n      dup4\n        /* \"#utility.yul\":12876:12892   */\n      add\n        /* \"#utility.yul\":12869:12944   */\n      mstore\n        /* \"#utility.yul\":12803:12955   */\n      pop\n        /* \"#utility.yul\":13019:13021   */\n      0x60\n        /* \"#utility.yul\":13060:13109   */\n      tag_506\n        /* \"#utility.yul\":13105:13108   */\n      dup5\n        /* \"#utility.yul\":13096:13102   */\n      dup3\n        /* \"#utility.yul\":13085:13094   */\n      dup6\n        /* \"#utility.yul\":13081:13103   */\n      add\n        /* \"#utility.yul\":13060:13109   */\n      tag_306\n      jump\t// in\n    tag_506:\n        /* \"#utility.yul\":13053:13057   */\n      0x60\n        /* \"#utility.yul\":13046:13051   */\n      dup4\n        /* \"#utility.yul\":13042:13058   */\n      add\n        /* \"#utility.yul\":13035:13110   */\n      mstore\n        /* \"#utility.yul\":12965:13121   */\n      pop\n        /* \"#utility.yul\":12050:13128   */\n      swap3\n      swap2\n      pop\n      pop\n      jump\t// out\n        /* \"#utility.yul\":13134:13822   */\n    tag_51:\n        /* \"#utility.yul\":13229:13235   */\n      0x00\n        /* \"#utility.yul\":13237:13243   */\n      dup1\n        /* \"#utility.yul\":13286:13288   */\n      0x40\n        /* \"#utility.yul\":13274:13283   */\n      dup4\n        /* \"#utility.yul\":13265:13272   */\n      dup6\n        /* \"#utility.yul\":13261:13284   */\n      sub\n        /* \"#utility.yul\":13257:13289   */\n      slt\n        /* \"#utility.yul\":13254:13373   */\n      iszero\n      tag_508\n      jumpi\n        /* \"#utility.yul\":13292:13371   */\n      tag_509\n      tag_269\n      jump\t// in\n    tag_509:\n        /* \"#utility.yul\":13254:13373   */\n    tag_508:\n        /* \"#utility.yul\":13440:13441   */\n      0x00\n        /* \"#utility.yul\":13429:13438   */\n      dup4\n        /* \"#utility.yul\":13425:13442   */\n      add\n        /* \"#utility.yul\":13412:13443   */\n      calldataload\n        /* \"#utility.yul\":13470:13488   */\n      0xffffffffffffffff\n        /* \"#utility.yul\":13462:13468   */\n      dup2\n        /* \"#utility.yul\":13459:13489   */\n      gt\n        /* \"#utility.yul\":13456:13573   */\n      iszero\n      tag_510\n      jumpi\n        /* \"#utility.yul\":13492:13571   */\n      tag_511\n      tag_270\n      jump\t// in\n    tag_511:\n        /* \"#utility.yul\":13456:13573   */\n    tag_510:\n        /* \"#utility.yul\":13597:13677   */\n      tag_512\n        /* \"#utility.yul\":13669:13676   */\n      dup6\n        /* \"#utility.yul\":13660:13666   */\n      dup3\n        /* \"#utility.yul\":13649:13658   */\n      dup7\n        /* \"#utility.yul\":13645:13667   */\n      add\n        /* \"#utility.yul\":13597:13677   */\n      tag_311\n      jump\t// in\n    tag_512:\n        /* \"#utility.yul\":13587:13677   */\n      swap3\n      pop\n        /* \"#utility.yul\":13383:13687   */\n      pop\n        /* \"#utility.yul\":13726:13728   */\n      0x20\n        /* \"#utility.yul\":13752:13805   */\n      tag_513\n        /* \"#utility.yul\":13797:13804   */\n      dup6\n        /* \"#utility.yul\":13788:13794   */\n      dup3\n        /* \"#utility.yul\":13777:13786   */\n      dup7\n        /* \"#utility.yul\":13773:13795   */\n      add\n        /* \"#utility.yul\":13752:13805   */\n      tag_306\n      jump\t// in\n    tag_513:\n        /* \"#utility.yul\":13742:13805   */\n      swap2\n      pop\n        /* \"#utility.yul\":13697:13815   */\n      pop\n        /* \"#utility.yul\":13134:13822   */\n      swap3\n      pop\n      swap3\n      swap1\n      pop\n      jump\t// out\n        /* \"#utility.yul\":13828:13946   */\n    tag_312:\n        /* \"#utility.yul\":13915:13939   */\n      tag_515\n        /* \"#utility.yul\":13933:13938   */\n      dup2\n        /* \"#utility.yul\":13915:13939   */\n      tag_272\n      jump\t// in\n    tag_515:\n        /* \"#utility.yul\":13910:13913   */\n      dup3\n        /* \"#utility.yul\":13903:13940   */\n      mstore\n        /* \"#utility.yul\":13828:13946   */\n      pop\n      pop\n      jump\t// out\n        /* \"#utility.yul\":13952:14174   */\n    tag_56:\n        /* \"#utility.yul\":14045:14049   */\n      0x00\n        /* \"#utility.yul\":14083:14085   */\n      0x20\n        /* \"#utility.yul\":14072:14081   */\n      dup3\n        /* \"#utility.yul\":14068:14086   */\n      add\n        /* \"#utility.yul\":14060:14086   */\n      swap1\n      pop\n        /* \"#utility.yul\":14096:14167   */\n      tag_517\n        /* \"#utility.yul\":14164:14165   */\n      0x00\n        /* \"#utility.yul\":14153:14162   */\n      dup4\n        /* \"#utility.yul\":14149:14166   */\n      add\n        /* \"#utility.yul\":14140:14146   */\n      dup5\n        /* \"#utility.yul\":14096:14167   */\n      tag_312\n      jump\t// in\n    tag_517:\n        /* \"#utility.yul\":13952:14174   */\n      swap3\n      swap2\n      pop\n      pop\n      jump\t// out\n        /* \"#utility.yul\":14180:14487   */\n    tag_313:\n        /* \"#utility.yul\":14241:14245   */\n      0x00\n        /* \"#utility.yul\":14331:14349   */\n      0xffffffffffffffff\n        /* \"#utility.yul\":14323:14329   */\n      dup3\n        /* \"#utility.yul\":14320:14350   */\n      gt\n        /* \"#utility.yul\":14317:14373   */\n      iszero\n      tag_519\n      jumpi\n        /* \"#utility.yul\":14353:14371   */\n      tag_520\n      tag_134\n      jump\t// in\n    tag_520:\n        /* \"#utility.yul\":14317:14373   */\n    tag_519:\n        /* \"#utility.yul\":14391:14420   */\n      tag_521\n        /* \"#utility.yul\":14413:14419   */\n      dup3\n        /* \"#utility.yul\":14391:14420   */\n      tag_279\n      jump\t// in\n    tag_521:\n        /* \"#utility.yul\":14383:14420   */\n      swap1\n      pop\n        /* \"#utility.yul\":14475:14479   */\n      0x20\n        /* \"#utility.yul\":14469:14473   */\n      dup2\n        /* \"#utility.yul\":14465:14480   */\n      add\n        /* \"#utility.yul\":14457:14480   */\n      swap1\n      pop\n        /* \"#utility.yul\":14180:14487   */\n      swap2\n      swap1\n      pop\n      jump\t// out\n        /* \"#utility.yul\":14493:14916   */\n    tag_314:\n        /* \"#utility.yul\":14570:14575   */\n      0x00\n        /* \"#utility.yul\":14595:14660   */\n      tag_523\n        /* \"#utility.yul\":14611:14659   */\n      tag_524\n        /* \"#utility.yul\":14652:14658   */\n      dup5\n        /* \"#utility.yul\":14611:14659   */\n      tag_313\n      jump\t// in\n    tag_524:\n        /* \"#utility.yul\":14595:14660   */\n      tag_281\n      jump\t// in\n    tag_523:\n        /* \"#utility.yul\":14586:14660   */\n      swap1\n      pop\n        /* \"#utility.yul\":14683:14689   */\n      dup3\n        /* \"#utility.yul\":14676:14681   */\n      dup2\n        /* \"#utility.yul\":14669:14690   */\n      mstore\n        /* \"#utility.yul\":14721:14725   */\n      0x20\n        /* \"#utility.yul\":14714:14719   */\n      dup2\n        /* \"#utility.yul\":14710:14726   */\n      add\n        /* \"#utility.yul\":14759:14762   */\n      dup5\n        /* \"#utility.yul\":14750:14756   */\n      dup5\n        /* \"#utility.yul\":14745:14748   */\n      dup5\n        /* \"#utility.yul\":14741:14757   */\n      add\n        /* \"#utility.yul\":14738:14763   */\n      gt\n        /* \"#utility.yul\":14735:14847   */\n      iszero\n      tag_525\n      jumpi\n        /* \"#utility.yul\":14766:14845   */\n      tag_526\n      tag_278\n      jump\t// in\n    tag_526:\n        /* \"#utility.yul\":14735:14847   */\n    tag_525:\n        /* \"#utility.yul\":14856:14910   */\n      tag_527\n        /* \"#utility.yul\":14903:14909   */\n      dup5\n        /* \"#utility.yul\":14898:14901   */\n      dup3\n        /* \"#utility.yul\":14893:14896   */\n      dup6\n        /* \"#utility.yul\":14856:14910   */\n      tag_283\n      jump\t// in\n    tag_527:\n        /* \"#utility.yul\":14576:14916   */\n      pop\n        /* \"#utility.yul\":14493:14916   */\n      swap4\n      swap3\n      pop\n      pop\n      pop\n      jump\t// out\n        /* \"#utility.yul\":14935:15273   */\n    tag_315:\n        /* \"#utility.yul\":14990:14995   */\n      0x00\n        /* \"#utility.yul\":15039:15042   */\n      dup3\n        /* \"#utility.yul\":15032:15036   */\n      0x1f\n        /* \"#utility.yul\":15024:15030   */\n      dup4\n        /* \"#utility.yul\":15020:15037   */\n      add\n        /* \"#utility.yul\":15016:15043   */\n      slt\n        /* \"#utility.yul\":15006:15128   */\n      tag_529\n      jumpi\n        /* \"#utility.yul\":15047:15126   */\n      tag_530\n      tag_277\n      jump\t// in\n    tag_530:\n        /* \"#utility.yul\":15006:15128   */\n    tag_529:\n        /* \"#utility.yul\":15164:15170   */\n      dup2\n        /* \"#utility.yul\":15151:15171   */\n      calldataload\n        /* \"#utility.yul\":15189:15267   */\n      tag_531\n        /* \"#utility.yul\":15263:15266   */\n      dup5\n        /* \"#utility.yul\":15255:15261   */\n      dup3\n        /* \"#utility.yul\":15248:15252   */\n      0x20\n        /* \"#utility.yul\":15240:15246   */\n      dup7\n        /* \"#utility.yul\":15236:15253   */\n      add\n        /* \"#utility.yul\":15189:15267   */\n      tag_314\n      jump\t// in\n    tag_531:\n        /* \"#utility.yul\":15180:15267   */\n      swap2\n      pop\n        /* \"#utility.yul\":14996:15273   */\n      pop\n        /* \"#utility.yul\":14935:15273   */\n      swap3\n      swap2\n      pop\n      pop\n      jump\t// out\n        /* \"#utility.yul\":15279:16582   */\n    tag_66:\n        /* \"#utility.yul\":15394:15400   */\n      0x00\n        /* \"#utility.yul\":15402:15408   */\n      dup1\n        /* \"#utility.yul\":15410:15416   */\n      0x00\n        /* \"#utility.yul\":15418:15424   */\n      dup1\n        /* \"#utility.yul\":15467:15470   */\n      0x80\n        /* \"#utility.yul\":15455:15464   */\n      dup6\n        /* \"#utility.yul\":15446:15453   */\n      dup8\n        /* \"#utility.yul\":15442:15465   */\n      sub\n        /* \"#utility.yul\":15438:15471   */\n      slt\n        /* \"#utility.yul\":15435:15555   */\n      iszero\n      tag_533\n      jumpi\n        /* \"#utility.yul\":15474:15553   */\n      tag_534\n      tag_269\n      jump\t// in\n    tag_534:\n        /* \"#utility.yul\":15435:15555   */\n    tag_533:\n        /* \"#utility.yul\":15622:15623   */\n      0x00\n        /* \"#utility.yul\":15611:15620   */\n      dup6\n        /* \"#utility.yul\":15607:15624   */\n      add\n        /* \"#utility.yul\":15594:15625   */\n      calldataload\n        /* \"#utility.yul\":15652:15670   */\n      0xffffffffffffffff\n        /* \"#utility.yul\":15644:15650   */\n      dup2\n        /* \"#utility.yul\":15641:15671   */\n      gt\n        /* \"#utility.yul\":15638:15755   */\n      iszero\n      tag_535\n      jumpi\n        /* \"#utility.yul\":15674:15753   */\n      tag_536\n      tag_270\n      jump\t// in\n    tag_536:\n        /* \"#utility.yul\":15638:15755   */\n    tag_535:\n        /* \"#utility.yul\":15779:15842   */\n      tag_537\n        /* \"#utility.yul\":15834:15841   */\n      dup8\n        /* \"#utility.yul\":15825:15831   */\n      dup3\n        /* \"#utility.yul\":15814:15823   */\n      dup9\n        /* \"#utility.yul\":15810:15832   */\n      add\n        /* \"#utility.yul\":15779:15842   */\n      tag_285\n      jump\t// in\n    tag_537:\n        /* \"#utility.yul\":15769:15842   */\n      swap5\n      pop\n        /* \"#utility.yul\":15565:15852   */\n      pop\n        /* \"#utility.yul\":15891:15893   */\n      0x20\n        /* \"#utility.yul\":15917:15970   */\n      tag_538\n        /* \"#utility.yul\":15962:15969   */\n      dup8\n        /* \"#utility.yul\":15953:15959   */\n      dup3\n        /* \"#utility.yul\":15942:15951   */\n      dup9\n        /* \"#utility.yul\":15938:15960   */\n      add\n        /* \"#utility.yul\":15917:15970   */\n      tag_306\n      jump\t// in\n    tag_538:\n        /* \"#utility.yul\":15907:15970   */\n      swap4\n      pop\n        /* \"#utility.yul\":15862:15980   */\n      pop\n        /* \"#utility.yul\":16047:16049   */\n      0x40\n        /* \"#utility.yul\":16036:16045   */\n      dup6\n        /* \"#utility.yul\":16032:16050   */\n      add\n        /* \"#utility.yul\":16019:16051   */\n      calldataload\n        /* \"#utility.yul\":16078:16096   */\n      0xffffffffffffffff\n        /* \"#utility.yul\":16070:16076   */\n      dup2\n        /* \"#utility.yul\":16067:16097   */\n      gt\n        /* \"#utility.yul\":16064:16181   */\n      iszero\n      tag_539\n      jumpi\n        /* \"#utility.yul\":16100:16179   */\n      tag_540\n      tag_270\n      jump\t// in\n    tag_540:\n        /* \"#utility.yul\":16064:16181   */\n    tag_539:\n        /* \"#utility.yul\":16205:16267   */\n      tag_541\n        /* \"#utility.yul\":16259:16266   */\n      dup8\n        /* \"#utility.yul\":16250:16256   */\n      dup3\n        /* \"#utility.yul\":16239:16248   */\n      dup9\n        /* \"#utility.yul\":16235:16257   */\n      add\n        /* \"#utility.yul\":16205:16267   */\n      tag_315\n      jump\t// in\n    tag_541:\n        /* \"#utility.yul\":16195:16267   */\n      swap3\n      pop\n        /* \"#utility.yul\":15990:16277   */\n      pop\n        /* \"#utility.yul\":16344:16346   */\n      0x60\n        /* \"#utility.yul\":16333:16342   */\n      dup6\n        /* \"#utility.yul\":16329:16347   */\n      add\n        /* \"#utility.yul\":16316:16348   */\n      calldataload\n        /* \"#utility.yul\":16375:16393   */\n      0xffffffffffffffff\n        /* \"#utility.yul\":16367:16373   */\n      dup2\n        /* \"#utility.yul\":16364:16394   */\n      gt\n        /* \"#utility.yul\":16361:16478   */\n      iszero\n      tag_542\n      jumpi\n        /* \"#utility.yul\":16397:16476   */\n      tag_543\n      tag_270\n      jump\t// in\n    tag_543:\n        /* \"#utility.yul\":16361:16478   */\n    tag_542:\n        /* \"#utility.yul\":16502:16565   */\n      tag_544\n        /* \"#utility.yul\":16557:16564   */\n      dup8\n        /* \"#utility.yul\":16548:16554   */\n      dup3\n        /* \"#utility.yul\":16537:16546   */\n      dup9\n        /* \"#utility.yul\":16533:16555   */\n      add\n        /* \"#utility.yul\":16502:16565   */\n      tag_285\n      jump\t// in\n    tag_544:\n        /* \"#utility.yul\":16492:16565   */\n      swap2\n      pop\n        /* \"#utility.yul\":16287:16575   */\n      pop\n        /* \"#utility.yul\":15279:16582   */\n      swap3\n      swap6\n      swap2\n      swap5\n      pop\n      swap3\n      pop\n      jump\t// out\n        /* \"#utility.yul\":16588:16757   */\n    tag_316:\n        /* \"#utility.yul\":16672:16683   */\n      0x00\n        /* \"#utility.yul\":16706:16712   */\n      dup3\n        /* \"#utility.yul\":16701:16704   */\n      dup3\n        /* \"#utility.yul\":16694:16713   */\n      mstore\n        /* \"#utility.yul\":16746:16750   */\n      0x20\n        /* \"#utility.yul\":16741:16744   */\n      dup3\n        /* \"#utility.yul\":16737:16751   */\n      add\n        /* \"#utility.yul\":16722:16751   */\n      swap1\n      pop\n        /* \"#utility.yul\":16588:16757   */\n      swap3\n      swap2\n      pop\n      pop\n      jump\t// out\n        /* \"#utility.yul\":16763:17140   */\n    tag_317:\n        /* \"#utility.yul\":16851:16854   */\n      0x00\n        /* \"#utility.yul\":16879:16918   */\n      tag_547\n        /* \"#utility.yul\":16912:16917   */\n      dup3\n        /* \"#utility.yul\":16879:16918   */\n      tag_296\n      jump\t// in\n    tag_547:\n        /* \"#utility.yul\":16934:17005   */\n      tag_548\n        /* \"#utility.yul\":16998:17004   */\n      dup2\n        /* \"#utility.yul\":16993:16996   */\n      dup6\n        /* \"#utility.yul\":16934:17005   */\n      tag_316\n      jump\t// in\n    tag_548:\n        /* \"#utility.yul\":16927:17005   */\n      swap4\n      pop\n        /* \"#utility.yul\":17014:17079   */\n      tag_549\n        /* \"#utility.yul\":17072:17078   */\n      dup2\n        /* \"#utility.yul\":17067:17070   */\n      dup6\n        /* \"#utility.yul\":17060:17064   */\n      0x20\n        /* \"#utility.yul\":17053:17058   */\n      dup7\n        /* \"#utility.yul\":17049:17065   */\n      add\n        /* \"#utility.yul\":17014:17079   */\n      tag_298\n      jump\t// in\n    tag_549:\n        /* \"#utility.yul\":17104:17133   */\n      tag_550\n        /* \"#utility.yul\":17126:17132   */\n      dup2\n        /* \"#utility.yul\":17104:17133   */\n      tag_279\n      jump\t// in\n    tag_550:\n        /* \"#utility.yul\":17099:17102   */\n      dup5\n        /* \"#utility.yul\":17095:17134   */\n      add\n        /* \"#utility.yul\":17088:17134   */\n      swap2\n      pop\n        /* \"#utility.yul\":16855:17140   */\n      pop\n        /* \"#utility.yul\":16763:17140   */\n      swap3\n      swap2\n      pop\n      pop\n      jump\t// out\n        /* \"#utility.yul\":17146:17236   */\n    tag_318:\n        /* \"#utility.yul\":17180:17187   */\n      0x00\n        /* \"#utility.yul\":17223:17228   */\n      dup2\n        /* \"#utility.yul\":17216:17229   */\n      iszero\n        /* \"#utility.yul\":17209:17230   */\n      iszero\n        /* \"#utility.yul\":17198:17230   */\n      swap1\n      pop\n        /* \"#utility.yul\":17146:17236   */\n      swap2\n      swap1\n      pop\n      jump\t// out\n        /* \"#utility.yul\":17242:17351   */\n    tag_319:\n        /* \"#utility.yul\":17323:17344   */\n      tag_553\n        /* \"#utility.yul\":17338:17343   */\n      dup2\n        /* \"#utility.yul\":17323:17344   */\n      tag_318\n      jump\t// in\n    tag_553:\n        /* \"#utility.yul\":17318:17321   */\n      dup3\n        /* \"#utility.yul\":17311:17345   */\n      mstore\n        /* \"#utility.yul\":17242:17351   */\n      pop\n      pop\n      jump\t// out\n        /* \"#utility.yul\":17357:17768   */\n    tag_69:\n        /* \"#utility.yul\":17492:17496   */\n      0x00\n        /* \"#utility.yul\":17530:17532   */\n      0x40\n        /* \"#utility.yul\":17519:17528   */\n      dup3\n        /* \"#utility.yul\":17515:17533   */\n      add\n        /* \"#utility.yul\":17507:17533   */\n      swap1\n      pop\n        /* \"#utility.yul\":17579:17588   */\n      dup2\n        /* \"#utility.yul\":17573:17577   */\n      dup2\n        /* \"#utility.yul\":17569:17589   */\n      sub\n        /* \"#utility.yul\":17565:17566   */\n      0x00\n        /* \"#utility.yul\":17554:17563   */\n      dup4\n        /* \"#utility.yul\":17550:17567   */\n      add\n        /* \"#utility.yul\":17543:17590   */\n      mstore\n        /* \"#utility.yul\":17607:17685   */\n      tag_555\n        /* \"#utility.yul\":17680:17684   */\n      dup2\n        /* \"#utility.yul\":17671:17677   */\n      dup6\n        /* \"#utility.yul\":17607:17685   */\n      tag_317\n      jump\t// in\n    tag_555:\n        /* \"#utility.yul\":17599:17685   */\n      swap1\n      pop\n        /* \"#utility.yul\":17695:17761   */\n      tag_556\n        /* \"#utility.yul\":17757:17759   */\n      0x20\n        /* \"#utility.yul\":17746:17755   */\n      dup4\n        /* \"#utility.yul\":17742:17760   */\n      add\n        /* \"#utility.yul\":17733:17739   */\n      dup5\n        /* \"#utility.yul\":17695:17761   */\n      tag_319\n      jump\t// in\n    tag_556:\n        /* \"#utility.yul\":17357:17768   */\n      swap4\n      swap3\n      pop\n      pop\n      pop\n      jump\t// out\n        /* \"#utility.yul\":17774:18281   */\n    tag_72:\n        /* \"#utility.yul\":17842:17848   */\n      0x00\n        /* \"#utility.yul\":17891:17893   */\n      0x20\n        /* \"#utility.yul\":17879:17888   */\n      dup3\n        /* \"#utility.yul\":17870:17877   */\n      dup5\n        /* \"#utility.yul\":17866:17889   */\n      sub\n        /* \"#utility.yul\":17862:17894   */\n      slt\n        /* \"#utility.yul\":17859:17978   */\n      iszero\n      tag_558\n      jumpi\n        /* \"#utility.yul\":17897:17976   */\n      tag_559\n      tag_269\n      jump\t// in\n    tag_559:\n        /* \"#utility.yul\":17859:17978   */\n    tag_558:\n        /* \"#utility.yul\":18045:18046   */\n      0x00\n        /* \"#utility.yul\":18034:18043   */\n      dup3\n        /* \"#utility.yul\":18030:18047   */\n      add\n        /* \"#utility.yul\":18017:18048   */\n      calldataload\n        /* \"#utility.yul\":18075:18093   */\n      0xffffffffffffffff\n        /* \"#utility.yul\":18067:18073   */\n      dup2\n        /* \"#utility.yul\":18064:18094   */\n      gt\n        /* \"#utility.yul\":18061:18178   */\n      iszero\n      tag_560\n      jumpi\n        /* \"#utility.yul\":18097:18176   */\n      tag_561\n      tag_270\n      jump\t// in\n    tag_561:\n        /* \"#utility.yul\":18061:18178   */\n    tag_560:\n        /* \"#utility.yul\":18202:18264   */\n      tag_562\n        /* \"#utility.yul\":18256:18263   */\n      dup5\n        /* \"#utility.yul\":18247:18253   */\n      dup3\n        /* \"#utility.yul\":18236:18245   */\n      dup6\n        /* \"#utility.yul\":18232:18254   */\n      add\n        /* \"#utility.yul\":18202:18264   */\n      tag_315\n      jump\t// in\n    tag_562:\n        /* \"#utility.yul\":18192:18264   */\n      swap2\n      pop\n        /* \"#utility.yul\":17988:18274   */\n      pop\n        /* \"#utility.yul\":17774:18281   */\n      swap3\n      swap2\n      pop\n      pop\n      jump\t// out\n        /* \"#utility.yul\":18287:18385   */\n    tag_320:\n        /* \"#utility.yul\":18338:18344   */\n      0x00\n        /* \"#utility.yul\":18372:18377   */\n      dup2\n        /* \"#utility.yul\":18366:18378   */\n      mload\n        /* \"#utility.yul\":18356:18378   */\n      swap1\n      pop\n        /* \"#utility.yul\":18287:18385   */\n      swap2\n      swap1\n      pop\n      jump\t// out\n        /* \"#utility.yul\":18391:18559   */\n    tag_321:\n        /* \"#utility.yul\":18474:18485   */\n      0x00\n        /* \"#utility.yul\":18508:18514   */\n      dup3\n        /* \"#utility.yul\":18503:18506   */\n      dup3\n        /* \"#utility.yul\":18496:18515   */\n      mstore\n        /* \"#utility.yul\":18548:18552   */\n      0x20\n        /* \"#utility.yul\":18543:18546   */\n      dup3\n        /* \"#utility.yul\":18539:18553   */\n      add\n        /* \"#utility.yul\":18524:18553   */\n      swap1\n      pop\n        /* \"#utility.yul\":18391:18559   */\n      swap3\n      swap2\n      pop\n      pop\n      jump\t// out\n        /* \"#utility.yul\":18565:18938   */\n    tag_322:\n        /* \"#utility.yul\":18651:18654   */\n      0x00\n        /* \"#utility.yul\":18679:18717   */\n      tag_566\n        /* \"#utility.yul\":18711:18716   */\n      dup3\n        /* \"#utility.yul\":18679:18717   */\n      tag_320\n      jump\t// in\n    tag_566:\n        /* \"#utility.yul\":18733:18803   */\n      tag_567\n        /* \"#utility.yul\":18796:18802   */\n      dup2\n        /* \"#utility.yul\":18791:18794   */\n      dup6\n        /* \"#utility.yul\":18733:18803   */\n      tag_321\n      jump\t// in\n    tag_567:\n        /* \"#utility.yul\":18726:18803   */\n      swap4\n      pop\n        /* \"#utility.yul\":18812:18877   */\n      tag_568\n        /* \"#utility.yul\":18870:18876   */\n      dup2\n        /* \"#utility.yul\":18865:18868   */\n      dup6\n        /* \"#utility.yul\":18858:18862   */\n      0x20\n        /* \"#utility.yul\":18851:18856   */\n      dup7\n        /* \"#utility.yul\":18847:18863   */\n      add\n        /* \"#utility.yul\":18812:18877   */\n      tag_298\n      jump\t// in\n    tag_568:\n        /* \"#utility.yul\":18902:18931   */\n      tag_569\n        /* \"#utility.yul\":18924:18930   */\n      dup2\n        /* \"#utility.yul\":18902:18931   */\n      tag_279\n      jump\t// in\n    tag_569:\n        /* \"#utility.yul\":18897:18900   */\n      dup5\n        /* \"#utility.yul\":18893:18932   */\n      add\n        /* \"#utility.yul\":18886:18932   */\n      swap2\n      pop\n        /* \"#utility.yul\":18655:18938   */\n      pop\n        /* \"#utility.yul\":18565:18938   */\n      swap3\n      swap2\n      pop\n      pop\n      jump\t// out\n        /* \"#utility.yul\":18944:19253   */\n    tag_75:\n        /* \"#utility.yul\":19055:19059   */\n      0x00\n        /* \"#utility.yul\":19093:19095   */\n      0x20\n        /* \"#utility.yul\":19082:19091   */\n      dup3\n        /* \"#utility.yul\":19078:19096   */\n      add\n        /* \"#utility.yul\":19070:19096   */\n      swap1\n      pop\n        /* \"#utility.yul\":19142:19151   */\n      dup2\n        /* \"#utility.yul\":19136:19140   */\n      dup2\n        /* \"#utility.yul\":19132:19152   */\n      sub\n        /* \"#utility.yul\":19128:19129   */\n      0x00\n        /* \"#utility.yul\":19117:19126   */\n      dup4\n        /* \"#utility.yul\":19113:19130   */\n      add\n        /* \"#utility.yul\":19106:19153   */\n      mstore\n        /* \"#utility.yul\":19170:19246   */\n      tag_571\n        /* \"#utility.yul\":19241:19245   */\n      dup2\n        /* \"#utility.yul\":19232:19238   */\n      dup5\n        /* \"#utility.yul\":19170:19246   */\n      tag_322\n      jump\t// in\n    tag_571:\n        /* \"#utility.yul\":19162:19246   */\n      swap1\n      pop\n        /* \"#utility.yul\":18944:19253   */\n      swap3\n      swap2\n      pop\n      pop\n      jump\t// out\n        /* \"#utility.yul\":19339:20307   */\n    tag_323:\n        /* \"#utility.yul\":19462:19465   */\n      0x00\n        /* \"#utility.yul\":19498:19502   */\n      0x80\n        /* \"#utility.yul\":19493:19496   */\n      dup4\n        /* \"#utility.yul\":19489:19503   */\n      add\n        /* \"#utility.yul\":19587:19591   */\n      0x00\n        /* \"#utility.yul\":19580:19585   */\n      dup4\n        /* \"#utility.yul\":19576:19592   */\n      add\n        /* \"#utility.yul\":19570:19593   */\n      mload\n        /* \"#utility.yul\":19606:19669   */\n      tag_573\n        /* \"#utility.yul\":19663:19667   */\n      0x00\n        /* \"#utility.yul\":19658:19661   */\n      dup7\n        /* \"#utility.yul\":19654:19668   */\n      add\n        /* \"#utility.yul\":19640:19652   */\n      dup3\n        /* \"#utility.yul\":19606:19669   */\n      tag_295\n      jump\t// in\n    tag_573:\n        /* \"#utility.yul\":19513:19679   */\n      pop\n        /* \"#utility.yul\":19763:19767   */\n      0x20\n        /* \"#utility.yul\":19756:19761   */\n      dup4\n        /* \"#utility.yul\":19752:19768   */\n      add\n        /* \"#utility.yul\":19746:19769   */\n      mload\n        /* \"#utility.yul\":19816:19819   */\n      dup5\n        /* \"#utility.yul\":19810:19814   */\n      dup3\n        /* \"#utility.yul\":19806:19820   */\n      sub\n        /* \"#utility.yul\":19799:19803   */\n      0x20\n        /* \"#utility.yul\":19794:19797   */\n      dup7\n        /* \"#utility.yul\":19790:19804   */\n      add\n        /* \"#utility.yul\":19783:19821   */\n      mstore\n        /* \"#utility.yul\":19842:19915   */\n      tag_574\n        /* \"#utility.yul\":19910:19914   */\n      dup3\n        /* \"#utility.yul\":19896:19908   */\n      dup3\n        /* \"#utility.yul\":19842:19915   */\n      tag_299\n      jump\t// in\n    tag_574:\n        /* \"#utility.yul\":19834:19915   */\n      swap2\n      pop\n        /* \"#utility.yul\":19689:19926   */\n      pop\n        /* \"#utility.yul\":20009:20013   */\n      0x40\n        /* \"#utility.yul\":20002:20007   */\n      dup4\n        /* \"#utility.yul\":19998:20014   */\n      add\n        /* \"#utility.yul\":19992:20015   */\n      mload\n        /* \"#utility.yul\":20028:20091   */\n      tag_575\n        /* \"#utility.yul\":20085:20089   */\n      0x40\n        /* \"#utility.yul\":20080:20083   */\n      dup7\n        /* \"#utility.yul\":20076:20090   */\n      add\n        /* \"#utility.yul\":20062:20074   */\n      dup3\n        /* \"#utility.yul\":20028:20091   */\n      tag_300\n      jump\t// in\n    tag_575:\n        /* \"#utility.yul\":19936:20101   */\n      pop\n        /* \"#utility.yul\":20188:20192   */\n      0x60\n        /* \"#utility.yul\":20181:20186   */\n      dup4\n        /* \"#utility.yul\":20177:20193   */\n      add\n        /* \"#utility.yul\":20171:20194   */\n      mload\n        /* \"#utility.yul\":20207:20270   */\n      tag_576\n        /* \"#utility.yul\":20264:20268   */\n      0x60\n        /* \"#utility.yul\":20259:20262   */\n      dup7\n        /* \"#utility.yul\":20255:20269   */\n      add\n        /* \"#utility.yul\":20241:20253   */\n      dup3\n        /* \"#utility.yul\":20207:20270   */\n      tag_300\n      jump\t// in\n    tag_576:\n        /* \"#utility.yul\":20111:20280   */\n      pop\n        /* \"#utility.yul\":20297:20301   */\n      dup1\n        /* \"#utility.yul\":20290:20301   */\n      swap2\n      pop\n        /* \"#utility.yul\":19467:20307   */\n      pop\n        /* \"#utility.yul\":19339:20307   */\n      swap3\n      swap2\n      pop\n      pop\n      jump\t// out\n        /* \"#utility.yul\":20313:20694   */\n    tag_83:\n        /* \"#utility.yul\":20460:20464   */\n      0x00\n        /* \"#utility.yul\":20498:20500   */\n      0x20\n        /* \"#utility.yul\":20487:20496   */\n      dup3\n        /* \"#utility.yul\":20483:20501   */\n      add\n        /* \"#utility.yul\":20475:20501   */\n      swap1\n      pop\n        /* \"#utility.yul\":20547:20556   */\n      dup2\n        /* \"#utility.yul\":20541:20545   */\n      dup2\n        /* \"#utility.yul\":20537:20557   */\n      sub\n        /* \"#utility.yul\":20533:20534   */\n      0x00\n        /* \"#utility.yul\":20522:20531   */\n      dup4\n        /* \"#utility.yul\":20518:20535   */\n      add\n        /* \"#utility.yul\":20511:20558   */\n      mstore\n        /* \"#utility.yul\":20575:20687   */\n      tag_578\n        /* \"#utility.yul\":20682:20686   */\n      dup2\n        /* \"#utility.yul\":20673:20679   */\n      dup5\n        /* \"#utility.yul\":20575:20687   */\n      tag_323\n      jump\t// in\n    tag_578:\n        /* \"#utility.yul\":20567:20687   */\n      swap1\n      pop\n        /* \"#utility.yul\":20313:20694   */\n      swap3\n      swap2\n      pop\n      pop\n      jump\t// out\n        /* \"#utility.yul\":20700:20847   */\n    tag_324:\n        /* \"#utility.yul\":20801:20812   */\n      0x00\n        /* \"#utility.yul\":20838:20841   */\n      dup2\n        /* \"#utility.yul\":20823:20841   */\n      swap1\n      pop\n        /* \"#utility.yul\":20700:20847   */\n      swap3\n      swap2\n      pop\n      pop\n      jump\t// out\n        /* \"#utility.yul\":20853:21239   */\n    tag_325:\n        /* \"#utility.yul\":20957:20960   */\n      0x00\n        /* \"#utility.yul\":20985:21023   */\n      tag_581\n        /* \"#utility.yul\":21017:21022   */\n      dup3\n        /* \"#utility.yul\":20985:21023   */\n      tag_320\n      jump\t// in\n    tag_581:\n        /* \"#utility.yul\":21039:21127   */\n      tag_582\n        /* \"#utility.yul\":21120:21126   */\n      dup2\n        /* \"#utility.yul\":21115:21118   */\n      dup6\n        /* \"#utility.yul\":21039:21127   */\n      tag_324\n      jump\t// in\n    tag_582:\n        /* \"#utility.yul\":21032:21127   */\n      swap4\n      pop\n        /* \"#utility.yul\":21136:21201   */\n      tag_583\n        /* \"#utility.yul\":21194:21200   */\n      dup2\n        /* \"#utility.yul\":21189:21192   */\n      dup6\n        /* \"#utility.yul\":21182:21186   */\n      0x20\n        /* \"#utility.yul\":21175:21180   */\n      dup7\n        /* \"#utility.yul\":21171:21187   */\n      add\n        /* \"#utility.yul\":21136:21201   */\n      tag_298\n      jump\t// in\n    tag_583:\n        /* \"#utility.yul\":21226:21232   */\n      dup1\n        /* \"#utility.yul\":21221:21224   */\n      dup5\n        /* \"#utility.yul\":21217:21233   */\n      add\n        /* \"#utility.yul\":21210:21233   */\n      swap2\n      pop\n        /* \"#utility.yul\":20961:21239   */\n      pop\n        /* \"#utility.yul\":20853:21239   */\n      swap3\n      swap2\n      pop\n      pop\n      jump\t// out\n        /* \"#utility.yul\":21245:21516   */\n    tag_88:\n        /* \"#utility.yul\":21375:21378   */\n      0x00\n        /* \"#utility.yul\":21397:21490   */\n      tag_585\n        /* \"#utility.yul\":21486:21489   */\n      dup3\n        /* \"#utility.yul\":21477:21483   */\n      dup5\n        /* \"#utility.yul\":21397:21490   */\n      tag_325\n      jump\t// in\n    tag_585:\n        /* \"#utility.yul\":21390:21490   */\n      swap2\n      pop\n        /* \"#utility.yul\":21507:21510   */\n      dup2\n        /* \"#utility.yul\":21500:21510   */\n      swap1\n      pop\n        /* \"#utility.yul\":21245:21516   */\n      swap3\n      swap2\n      pop\n      pop\n      jump\t// out\n        /* \"#utility.yul\":21522:21702   */\n    tag_326:\n        /* \"#utility.yul\":21570:21647   */\n      0x4e487b7100000000000000000000000000000000000000000000000000000000\n        /* \"#utility.yul\":21567:21568   */\n      0x00\n        /* \"#utility.yul\":21560:21648   */\n      mstore\n        /* \"#utility.yul\":21667:21671   */\n      0x22\n        /* \"#utility.yul\":21664:21665   */\n      0x04\n        /* \"#utility.yul\":21657:21672   */\n      mstore\n        /* \"#utility.yul\":21691:21695   */\n      0x24\n        /* \"#utility.yul\":21688:21689   */\n      0x00\n        /* \"#utility.yul\":21681:21696   */\n      revert\n        /* \"#utility.yul\":21708:22028   */\n    tag_90:\n        /* \"#utility.yul\":21752:21758   */\n      0x00\n        /* \"#utility.yul\":21789:21790   */\n      0x02\n        /* \"#utility.yul\":21783:21787   */\n      dup3\n        /* \"#utility.yul\":21779:21791   */\n      div\n        /* \"#utility.yul\":21769:21791   */\n      swap1\n      pop\n        /* \"#utility.yul\":21836:21837   */\n      0x01\n        /* \"#utility.yul\":21830:21834   */\n      dup3\n        /* \"#utility.yul\":21826:21838   */\n      and\n        /* \"#utility.yul\":21857:21875   */\n      dup1\n        /* \"#utility.yul\":21847:21928   */\n      tag_588\n      jumpi\n        /* \"#utility.yul\":21913:21917   */\n      0x7f\n        /* \"#utility.yul\":21905:21911   */\n      dup3\n        /* \"#utility.yul\":21901:21918   */\n      and\n        /* \"#utility.yul\":21891:21918   */\n      swap2\n      pop\n        /* \"#utility.yul\":21847:21928   */\n    tag_588:\n        /* \"#utility.yul\":21975:21977   */\n      0x20\n        /* \"#utility.yul\":21967:21973   */\n      dup3\n        /* \"#utility.yul\":21964:21978   */\n      lt\n        /* \"#utility.yul\":21944:21962   */\n      dup2\n        /* \"#utility.yul\":21941:21979   */\n      sub\n        /* \"#utility.yul\":21938:22022   */\n      tag_589\n      jumpi\n        /* \"#utility.yul\":21994:22012   */\n      tag_590\n      tag_326\n      jump\t// in\n    tag_590:\n        /* \"#utility.yul\":21938:22022   */\n    tag_589:\n        /* \"#utility.yul\":21759:22028   */\n      pop\n        /* \"#utility.yul\":21708:22028   */\n      swap2\n      swap1\n      pop\n      jump\t// out\n        /* \"#utility.yul\":22034:22265   */\n    tag_327:\n        /* \"#utility.yul\":22174:22208   */\n      0x4c6561646572626f617264206e6f7420666f756e6420666f7220746865207370\n        /* \"#utility.yul\":22170:22171   */\n      0x00\n        /* \"#utility.yul\":22162:22168   */\n      dup3\n        /* \"#utility.yul\":22158:22172   */\n      add\n        /* \"#utility.yul\":22151:22209   */\n      mstore\n        /* \"#utility.yul\":22243:22257   */\n      0x6563696669656420646174650000000000000000000000000000000000000000\n        /* \"#utility.yul\":22238:22240   */\n      0x20\n        /* \"#utility.yul\":22230:22236   */\n      dup3\n        /* \"#utility.yul\":22226:22241   */\n      add\n        /* \"#utility.yul\":22219:22258   */\n      mstore\n        /* \"#utility.yul\":22034:22265   */\n      pop\n      jump\t// out\n        /* \"#utility.yul\":22271:22637   */\n    tag_328:\n        /* \"#utility.yul\":22413:22416   */\n      0x00\n        /* \"#utility.yul\":22434:22501   */\n      tag_593\n        /* \"#utility.yul\":22498:22500   */\n      0x2c\n        /* \"#utility.yul\":22493:22496   */\n      dup4\n        /* \"#utility.yul\":22434:22501   */\n      tag_316\n      jump\t// in\n    tag_593:\n        /* \"#utility.yul\":22427:22501   */\n      swap2\n      pop\n        /* \"#utility.yul\":22510:22603   */\n      tag_594\n        /* \"#utility.yul\":22599:22602   */\n      dup3\n        /* \"#utility.yul\":22510:22603   */\n      tag_327\n      jump\t// in\n    tag_594:\n        /* \"#utility.yul\":22628:22630   */\n      0x40\n        /* \"#utility.yul\":22623:22626   */\n      dup3\n        /* \"#utility.yul\":22619:22631   */\n      add\n        /* \"#utility.yul\":22612:22631   */\n      swap1\n      pop\n        /* \"#utility.yul\":22271:22637   */\n      swap2\n      swap1\n      pop\n      jump\t// out\n        /* \"#utility.yul\":22643:23062   */\n    tag_97:\n        /* \"#utility.yul\":22809:22813   */\n      0x00\n        /* \"#utility.yul\":22847:22849   */\n      0x20\n        /* \"#utility.yul\":22836:22845   */\n      dup3\n        /* \"#utility.yul\":22832:22850   */\n      add\n        /* \"#utility.yul\":22824:22850   */\n      swap1\n      pop\n        /* \"#utility.yul\":22896:22905   */\n      dup2\n        /* \"#utility.yul\":22890:22894   */\n      dup2\n        /* \"#utility.yul\":22886:22906   */\n      sub\n        /* \"#utility.yul\":22882:22883   */\n      0x00\n        /* \"#utility.yul\":22871:22880   */\n      dup4\n        /* \"#utility.yul\":22867:22884   */\n      add\n        /* \"#utility.yul\":22860:22907   */\n      mstore\n        /* \"#utility.yul\":22924:23055   */\n      tag_596\n        /* \"#utility.yul\":23050:23054   */\n      dup2\n        /* \"#utility.yul\":22924:23055   */\n      tag_328\n      jump\t// in\n    tag_596:\n        /* \"#utility.yul\":22916:23055   */\n      swap1\n      pop\n        /* \"#utility.yul\":22643:23062   */\n      swap2\n      swap1\n      pop\n      jump\t// out\n        /* \"#utility.yul\":23068:23406   */\n    tag_329:\n        /* \"#utility.yul\":23172:23176   */\n      0x00\n        /* \"#utility.yul\":23262:23280   */\n      0xffffffffffffffff\n        /* \"#utility.yul\":23254:23260   */\n      dup3\n        /* \"#utility.yul\":23251:23281   */\n      gt\n        /* \"#utility.yul\":23248:23304   */\n      iszero\n      tag_598\n      jumpi\n        /* \"#utility.yul\":23284:23302   */\n      tag_599\n      tag_134\n      jump\t// in\n    tag_599:\n        /* \"#utility.yul\":23248:23304   */\n    tag_598:\n        /* \"#utility.yul\":23334:23338   */\n      0x20\n        /* \"#utility.yul\":23326:23332   */\n      dup3\n        /* \"#utility.yul\":23322:23339   */\n      mul\n        /* \"#utility.yul\":23314:23339   */\n      swap1\n      pop\n        /* \"#utility.yul\":23394:23398   */\n      0x20\n        /* \"#utility.yul\":23388:23392   */\n      dup2\n        /* \"#utility.yul\":23384:23399   */\n      add\n        /* \"#utility.yul\":23376:23399   */\n      swap1\n      pop\n        /* \"#utility.yul\":23068:23406   */\n      swap2\n      swap1\n      pop\n      jump\t// out\n        /* \"#utility.yul\":23412:23529   */\n    tag_330:\n        /* \"#utility.yul\":23521:23522   */\n      0x00\n        /* \"#utility.yul\":23518:23519   */\n      dup1\n        /* \"#utility.yul\":23511:23523   */\n      revert\n        /* \"#utility.yul\":23535:23678   */\n    tag_331:\n        /* \"#utility.yul\":23592:23597   */\n      0x00\n        /* \"#utility.yul\":23623:23629   */\n      dup2\n        /* \"#utility.yul\":23617:23630   */\n      mload\n        /* \"#utility.yul\":23608:23630   */\n      swap1\n      pop\n        /* \"#utility.yul\":23639:23672   */\n      tag_602\n        /* \"#utility.yul\":23666:23671   */\n      dup2\n        /* \"#utility.yul\":23639:23672   */\n      tag_273\n      jump\t// in\n    tag_602:\n        /* \"#utility.yul\":23535:23678   */\n      swap3\n      swap2\n      pop\n      pop\n      jump\t// out\n        /* \"#utility.yul\":23684:24118   */\n    tag_332:\n        /* \"#utility.yul\":23773:23778   */\n      0x00\n        /* \"#utility.yul\":23798:23864   */\n      tag_604\n        /* \"#utility.yul\":23814:23863   */\n      tag_605\n        /* \"#utility.yul\":23856:23862   */\n      dup5\n        /* \"#utility.yul\":23814:23863   */\n      tag_282\n      jump\t// in\n    tag_605:\n        /* \"#utility.yul\":23798:23864   */\n      tag_281\n      jump\t// in\n    tag_604:\n        /* \"#utility.yul\":23789:23864   */\n      swap1\n      pop\n        /* \"#utility.yul\":23887:23893   */\n      dup3\n        /* \"#utility.yul\":23880:23885   */\n      dup2\n        /* \"#utility.yul\":23873:23894   */\n      mstore\n        /* \"#utility.yul\":23925:23929   */\n      0x20\n        /* \"#utility.yul\":23918:23923   */\n      dup2\n        /* \"#utility.yul\":23914:23930   */\n      add\n        /* \"#utility.yul\":23963:23966   */\n      dup5\n        /* \"#utility.yul\":23954:23960   */\n      dup5\n        /* \"#utility.yul\":23949:23952   */\n      dup5\n        /* \"#utility.yul\":23945:23961   */\n      add\n        /* \"#utility.yul\":23942:23967   */\n      gt\n        /* \"#utility.yul\":23939:24051   */\n      iszero\n      tag_606\n      jumpi\n        /* \"#utility.yul\":23970:24049   */\n      tag_607\n      tag_278\n      jump\t// in\n    tag_607:\n        /* \"#utility.yul\":23939:24051   */\n    tag_606:\n        /* \"#utility.yul\":24060:24112   */\n      tag_608\n        /* \"#utility.yul\":24105:24111   */\n      dup5\n        /* \"#utility.yul\":24100:24103   */\n      dup3\n        /* \"#utility.yul\":24095:24098   */\n      dup6\n        /* \"#utility.yul\":24060:24112   */\n      tag_298\n      jump\t// in\n    tag_608:\n        /* \"#utility.yul\":23779:24118   */\n      pop\n        /* \"#utility.yul\":23684:24118   */\n      swap4\n      swap3\n      pop\n      pop\n      pop\n      jump\t// out\n        /* \"#utility.yul\":24138:24493   */\n    tag_333:\n        /* \"#utility.yul\":24205:24210   */\n      0x00\n        /* \"#utility.yul\":24254:24257   */\n      dup3\n        /* \"#utility.yul\":24247:24251   */\n      0x1f\n        /* \"#utility.yul\":24239:24245   */\n      dup4\n        /* \"#utility.yul\":24235:24252   */\n      add\n        /* \"#utility.yul\":24231:24258   */\n      slt\n        /* \"#utility.yul\":24221:24343   */\n      tag_610\n      jumpi\n        /* \"#utility.yul\":24262:24341   */\n      tag_611\n      tag_277\n      jump\t// in\n    tag_611:\n        /* \"#utility.yul\":24221:24343   */\n    tag_610:\n        /* \"#utility.yul\":24372:24378   */\n      dup2\n        /* \"#utility.yul\":24366:24379   */\n      mload\n        /* \"#utility.yul\":24397:24487   */\n      tag_612\n        /* \"#utility.yul\":24483:24486   */\n      dup5\n        /* \"#utility.yul\":24475:24481   */\n      dup3\n        /* \"#utility.yul\":24468:24472   */\n      0x20\n        /* \"#utility.yul\":24460:24466   */\n      dup7\n        /* \"#utility.yul\":24456:24473   */\n      add\n        /* \"#utility.yul\":24397:24487   */\n      tag_332\n      jump\t// in\n    tag_612:\n        /* \"#utility.yul\":24388:24487   */\n      swap2\n      pop\n        /* \"#utility.yul\":24211:24493   */\n      pop\n        /* \"#utility.yul\":24138:24493   */\n      swap3\n      swap2\n      pop\n      pop\n      jump\t// out\n        /* \"#utility.yul\":24499:24642   */\n    tag_334:\n        /* \"#utility.yul\":24556:24561   */\n      0x00\n        /* \"#utility.yul\":24587:24593   */\n      dup2\n        /* \"#utility.yul\":24581:24594   */\n      mload\n        /* \"#utility.yul\":24572:24594   */\n      swap1\n      pop\n        /* \"#utility.yul\":24603:24636   */\n      tag_614\n        /* \"#utility.yul\":24630:24635   */\n      dup2\n        /* \"#utility.yul\":24603:24636   */\n      tag_305\n      jump\t// in\n    tag_614:\n        /* \"#utility.yul\":24499:24642   */\n      swap3\n      swap2\n      pop\n      pop\n      jump\t// out\n        /* \"#utility.yul\":24690:25816   */\n    tag_335:\n        /* \"#utility.yul\":24777:24782   */\n      0x00\n        /* \"#utility.yul\":24821:24825   */\n      0x80\n        /* \"#utility.yul\":24809:24818   */\n      dup3\n        /* \"#utility.yul\":24804:24807   */\n      dup5\n        /* \"#utility.yul\":24800:24819   */\n      sub\n        /* \"#utility.yul\":24796:24826   */\n      slt\n        /* \"#utility.yul\":24793:24910   */\n      iszero\n      tag_616\n      jumpi\n        /* \"#utility.yul\":24829:24908   */\n      tag_617\n      tag_309\n      jump\t// in\n    tag_617:\n        /* \"#utility.yul\":24793:24910   */\n    tag_616:\n        /* \"#utility.yul\":24928:24949   */\n      tag_618\n        /* \"#utility.yul\":24944:24948   */\n      0x80\n        /* \"#utility.yul\":24928:24949   */\n      tag_281\n      jump\t// in\n    tag_618:\n        /* \"#utility.yul\":24919:24949   */\n      swap1\n      pop\n        /* \"#utility.yul\":25010:25011   */\n      0x00\n        /* \"#utility.yul\":25050:25110   */\n      tag_619\n        /* \"#utility.yul\":25106:25109   */\n      dup5\n        /* \"#utility.yul\":25097:25103   */\n      dup3\n        /* \"#utility.yul\":25086:25095   */\n      dup6\n        /* \"#utility.yul\":25082:25104   */\n      add\n        /* \"#utility.yul\":25050:25110   */\n      tag_331\n      jump\t// in\n    tag_619:\n        /* \"#utility.yul\":25043:25047   */\n      0x00\n        /* \"#utility.yul\":25036:25041   */\n      dup4\n        /* \"#utility.yul\":25032:25048   */\n      add\n        /* \"#utility.yul\":25025:25111   */\n      mstore\n        /* \"#utility.yul\":24959:25122   */\n      pop\n        /* \"#utility.yul\":25204:25206   */\n      0x20\n        /* \"#utility.yul\":25193:25202   */\n      dup3\n        /* \"#utility.yul\":25189:25207   */\n      add\n        /* \"#utility.yul\":25183:25208   */\n      mload\n        /* \"#utility.yul\":25235:25253   */\n      0xffffffffffffffff\n        /* \"#utility.yul\":25227:25233   */\n      dup2\n        /* \"#utility.yul\":25224:25254   */\n      gt\n        /* \"#utility.yul\":25221:25338   */\n      iszero\n      tag_620\n      jumpi\n        /* \"#utility.yul\":25257:25336   */\n      tag_621\n      tag_310\n      jump\t// in\n    tag_621:\n        /* \"#utility.yul\":25221:25338   */\n    tag_620:\n        /* \"#utility.yul\":25377:25447   */\n      tag_622\n        /* \"#utility.yul\":25443:25446   */\n      dup5\n        /* \"#utility.yul\":25434:25440   */\n      dup3\n        /* \"#utility.yul\":25423:25432   */\n      dup6\n        /* \"#utility.yul\":25419:25441   */\n      add\n        /* \"#utility.yul\":25377:25447   */\n      tag_333\n      jump\t// in\n    tag_622:\n        /* \"#utility.yul\":25370:25374   */\n      0x20\n        /* \"#utility.yul\":25363:25368   */\n      dup4\n        /* \"#utility.yul\":25359:25375   */\n      add\n        /* \"#utility.yul\":25352:25448   */\n      mstore\n        /* \"#utility.yul\":25132:25459   */\n      pop\n        /* \"#utility.yul\":25519:25521   */\n      0x40\n        /* \"#utility.yul\":25560:25620   */\n      tag_623\n        /* \"#utility.yul\":25616:25619   */\n      dup5\n        /* \"#utility.yul\":25607:25613   */\n      dup3\n        /* \"#utility.yul\":25596:25605   */\n      dup6\n        /* \"#utility.yul\":25592:25614   */\n      add\n        /* \"#utility.yul\":25560:25620   */\n      tag_334\n      jump\t// in\n    tag_623:\n        /* \"#utility.yul\":25553:25557   */\n      0x40\n        /* \"#utility.yul\":25546:25551   */\n      dup4\n        /* \"#utility.yul\":25542:25558   */\n      add\n        /* \"#utility.yul\":25535:25621   */\n      mstore\n        /* \"#utility.yul\":25469:25632   */\n      pop\n        /* \"#utility.yul\":25696:25698   */\n      0x60\n        /* \"#utility.yul\":25737:25797   */\n      tag_624\n        /* \"#utility.yul\":25793:25796   */\n      dup5\n        /* \"#utility.yul\":25784:25790   */\n      dup3\n        /* \"#utility.yul\":25773:25782   */\n      dup6\n        /* \"#utility.yul\":25769:25791   */\n      add\n        /* \"#utility.yul\":25737:25797   */\n      tag_334\n      jump\t// in\n    tag_624:\n        /* \"#utility.yul\":25730:25734   */\n      0x60\n        /* \"#utility.yul\":25723:25728   */\n      dup4\n        /* \"#utility.yul\":25719:25735   */\n      add\n        /* \"#utility.yul\":25712:25798   */\n      mstore\n        /* \"#utility.yul\":25642:25809   */\n      pop\n        /* \"#utility.yul\":24690:25816   */\n      swap3\n      swap2\n      pop\n      pop\n      jump\t// out\n        /* \"#utility.yul\":25866:26877   */\n    tag_336:\n        /* \"#utility.yul\":26000:26005   */\n      0x00\n        /* \"#utility.yul\":26025:26133   */\n      tag_626\n        /* \"#utility.yul\":26041:26132   */\n      tag_627\n        /* \"#utility.yul\":26125:26131   */\n      dup5\n        /* \"#utility.yul\":26041:26132   */\n      tag_329\n      jump\t// in\n    tag_627:\n        /* \"#utility.yul\":26025:26133   */\n      tag_281\n      jump\t// in\n    tag_626:\n        /* \"#utility.yul\":26016:26133   */\n      swap1\n      pop\n        /* \"#utility.yul\":26153:26158   */\n      dup1\n        /* \"#utility.yul\":26182:26188   */\n      dup4\n        /* \"#utility.yul\":26175:26180   */\n      dup3\n        /* \"#utility.yul\":26168:26189   */\n      mstore\n        /* \"#utility.yul\":26216:26220   */\n      0x20\n        /* \"#utility.yul\":26209:26214   */\n      dup3\n        /* \"#utility.yul\":26205:26221   */\n      add\n        /* \"#utility.yul\":26198:26221   */\n      swap1\n      pop\n        /* \"#utility.yul\":26269:26273   */\n      0x20\n        /* \"#utility.yul\":26261:26267   */\n      dup5\n        /* \"#utility.yul\":26257:26274   */\n      mul\n        /* \"#utility.yul\":26249:26255   */\n      dup4\n        /* \"#utility.yul\":26245:26275   */\n      add\n        /* \"#utility.yul\":26298:26301   */\n      dup6\n        /* \"#utility.yul\":26290:26296   */\n      dup2\n        /* \"#utility.yul\":26287:26302   */\n      gt\n        /* \"#utility.yul\":26284:26406   */\n      iszero\n      tag_628\n      jumpi\n        /* \"#utility.yul\":26317:26396   */\n      tag_629\n      tag_330\n      jump\t// in\n    tag_629:\n        /* \"#utility.yul\":26284:26406   */\n    tag_628:\n        /* \"#utility.yul\":26432:26438   */\n      dup4\n        /* \"#utility.yul\":26415:26871   */\n    tag_630:\n        /* \"#utility.yul\":26449:26455   */\n      dup2\n        /* \"#utility.yul\":26444:26447   */\n      dup2\n        /* \"#utility.yul\":26441:26456   */\n      lt\n        /* \"#utility.yul\":26415:26871   */\n      iszero\n      tag_632\n      jumpi\n        /* \"#utility.yul\":26531:26534   */\n      dup1\n        /* \"#utility.yul\":26525:26535   */\n      mload\n        /* \"#utility.yul\":26567:26585   */\n      0xffffffffffffffff\n        /* \"#utility.yul\":26554:26565   */\n      dup2\n        /* \"#utility.yul\":26551:26586   */\n      gt\n        /* \"#utility.yul\":26548:26670   */\n      iszero\n      tag_633\n      jumpi\n        /* \"#utility.yul\":26589:26668   */\n      tag_634\n      tag_277\n      jump\t// in\n    tag_634:\n        /* \"#utility.yul\":26548:26670   */\n    tag_633:\n        /* \"#utility.yul\":26713:26724   */\n      dup1\n        /* \"#utility.yul\":26705:26711   */\n      dup7\n        /* \"#utility.yul\":26701:26725   */\n      add\n        /* \"#utility.yul\":26751:26826   */\n      tag_635\n        /* \"#utility.yul\":26822:26825   */\n      dup10\n        /* \"#utility.yul\":26810:26820   */\n      dup3\n        /* \"#utility.yul\":26751:26826   */\n      tag_335\n      jump\t// in\n    tag_635:\n        /* \"#utility.yul\":26746:26749   */\n      dup6\n        /* \"#utility.yul\":26739:26827   */\n      mstore\n        /* \"#utility.yul\":26856:26860   */\n      0x20\n        /* \"#utility.yul\":26851:26854   */\n      dup6\n        /* \"#utility.yul\":26847:26861   */\n      add\n        /* \"#utility.yul\":26840:26861   */\n      swap5\n      pop\n        /* \"#utility.yul\":26491:26871   */\n      pop\n      pop\n        /* \"#utility.yul\":26475:26479   */\n      0x20\n        /* \"#utility.yul\":26470:26473   */\n      dup2\n        /* \"#utility.yul\":26466:26480   */\n      add\n        /* \"#utility.yul\":26459:26480   */\n      swap1\n      pop\n        /* \"#utility.yul\":26415:26871   */\n      jump(tag_630)\n    tag_632:\n        /* \"#utility.yul\":26419:26440   */\n      pop\n        /* \"#utility.yul\":26006:26877   */\n      pop\n      pop\n        /* \"#utility.yul\":25866:26877   */\n      swap4\n      swap3\n      pop\n      pop\n      pop\n      jump\t// out\n        /* \"#utility.yul\":26927:27366   */\n    tag_337:\n        /* \"#utility.yul\":27036:27041   */\n      0x00\n        /* \"#utility.yul\":27085:27088   */\n      dup3\n        /* \"#utility.yul\":27078:27082   */\n      0x1f\n        /* \"#utility.yul\":27070:27076   */\n      dup4\n        /* \"#utility.yul\":27066:27083   */\n      add\n        /* \"#utility.yul\":27062:27089   */\n      slt\n        /* \"#utility.yul\":27052:27174   */\n      tag_637\n      jumpi\n        /* \"#utility.yul\":27093:27172   */\n      tag_638\n      tag_277\n      jump\t// in\n    tag_638:\n        /* \"#utility.yul\":27052:27174   */\n    tag_637:\n        /* \"#utility.yul\":27203:27209   */\n      dup2\n        /* \"#utility.yul\":27197:27210   */\n      mload\n        /* \"#utility.yul\":27228:27360   */\n      tag_639\n        /* \"#utility.yul\":27356:27359   */\n      dup5\n        /* \"#utility.yul\":27348:27354   */\n      dup3\n        /* \"#utility.yul\":27341:27345   */\n      0x20\n        /* \"#utility.yul\":27333:27339   */\n      dup7\n        /* \"#utility.yul\":27329:27346   */\n      add\n        /* \"#utility.yul\":27228:27360   */\n      tag_336\n      jump\t// in\n    tag_639:\n        /* \"#utility.yul\":27219:27360   */\n      swap2\n      pop\n        /* \"#utility.yul\":27042:27366   */\n      pop\n        /* \"#utility.yul\":26927:27366   */\n      swap3\n      swap2\n      pop\n      pop\n      jump\t// out\n        /* \"#utility.yul\":27372:27980   */\n    tag_99:\n        /* \"#utility.yul\":27494:27500   */\n      0x00\n        /* \"#utility.yul\":27543:27545   */\n      0x20\n        /* \"#utility.yul\":27531:27540   */\n      dup3\n        /* \"#utility.yul\":27522:27529   */\n      dup5\n        /* \"#utility.yul\":27518:27541   */\n      sub\n        /* \"#utility.yul\":27514:27546   */\n      slt\n        /* \"#utility.yul\":27511:27630   */\n      iszero\n      tag_641\n      jumpi\n        /* \"#utility.yul\":27549:27628   */\n      tag_642\n      tag_269\n      jump\t// in\n    tag_642:\n        /* \"#utility.yul\":27511:27630   */\n    tag_641:\n        /* \"#utility.yul\":27690:27691   */\n      0x00\n        /* \"#utility.yul\":27679:27688   */\n      dup3\n        /* \"#utility.yul\":27675:27692   */\n      add\n        /* \"#utility.yul\":27669:27693   */\n      mload\n        /* \"#utility.yul\":27720:27738   */\n      0xffffffffffffffff\n        /* \"#utility.yul\":27712:27718   */\n      dup2\n        /* \"#utility.yul\":27709:27739   */\n      gt\n        /* \"#utility.yul\":27706:27823   */\n      iszero\n      tag_643\n      jumpi\n        /* \"#utility.yul\":27742:27821   */\n      tag_644\n      tag_270\n      jump\t// in\n    tag_644:\n        /* \"#utility.yul\":27706:27823   */\n    tag_643:\n        /* \"#utility.yul\":27847:27963   */\n      tag_645\n        /* \"#utility.yul\":27955:27962   */\n      dup5\n        /* \"#utility.yul\":27946:27952   */\n      dup3\n        /* \"#utility.yul\":27935:27944   */\n      dup6\n        /* \"#utility.yul\":27931:27953   */\n      add\n        /* \"#utility.yul\":27847:27963   */\n      tag_337\n      jump\t// in\n    tag_645:\n        /* \"#utility.yul\":27837:27963   */\n      swap2\n      pop\n        /* \"#utility.yul\":27640:27973   */\n      pop\n        /* \"#utility.yul\":27372:27980   */\n      swap3\n      swap2\n      pop\n      pop\n      jump\t// out\n        /* \"#utility.yul\":27986:28220   */\n    tag_338:\n        /* \"#utility.yul\":28126:28160   */\n      0x4f6e6c792074686520636f6e7472616374206f776e65722063616e2063616c6c\n        /* \"#utility.yul\":28122:28123   */\n      0x00\n        /* \"#utility.yul\":28114:28120   */\n      dup3\n        /* \"#utility.yul\":28110:28124   */\n      add\n        /* \"#utility.yul\":28103:28161   */\n      mstore\n        /* \"#utility.yul\":28195:28212   */\n      0x20746869732066756e6374696f6e2e0000000000000000000000000000000000\n        /* \"#utility.yul\":28190:28192   */\n      0x20\n        /* \"#utility.yul\":28182:28188   */\n      dup3\n        /* \"#utility.yul\":28178:28193   */\n      add\n        /* \"#utility.yul\":28171:28213   */\n      mstore\n        /* \"#utility.yul\":27986:28220   */\n      pop\n      jump\t// out\n        /* \"#utility.yul\":28226:28592   */\n    tag_339:\n        /* \"#utility.yul\":28368:28371   */\n      0x00\n        /* \"#utility.yul\":28389:28456   */\n      tag_648\n        /* \"#utility.yul\":28453:28455   */\n      0x2f\n        /* \"#utility.yul\":28448:28451   */\n      dup4\n        /* \"#utility.yul\":28389:28456   */\n      tag_316\n      jump\t// in\n    tag_648:\n        /* \"#utility.yul\":28382:28456   */\n      swap2\n      pop\n        /* \"#utility.yul\":28465:28558   */\n      tag_649\n        /* \"#utility.yul\":28554:28557   */\n      dup3\n        /* \"#utility.yul\":28465:28558   */\n      tag_338\n      jump\t// in\n    tag_649:\n        /* \"#utility.yul\":28583:28585   */\n      0x40\n        /* \"#utility.yul\":28578:28581   */\n      dup3\n        /* \"#utility.yul\":28574:28586   */\n      add\n        /* \"#utility.yul\":28567:28586   */\n      swap1\n      pop\n        /* \"#utility.yul\":28226:28592   */\n      swap2\n      swap1\n      pop\n      jump\t// out\n        /* \"#utility.yul\":28598:29017   */\n    tag_103:\n        /* \"#utility.yul\":28764:28768   */\n      0x00\n        /* \"#utility.yul\":28802:28804   */\n      0x20\n        /* \"#utility.yul\":28791:28800   */\n      dup3\n        /* \"#utility.yul\":28787:28805   */\n      add\n        /* \"#utility.yul\":28779:28805   */\n      swap1\n      pop\n        /* \"#utility.yul\":28851:28860   */\n      dup2\n        /* \"#utility.yul\":28845:28849   */\n      dup2\n        /* \"#utility.yul\":28841:28861   */\n      sub\n        /* \"#utility.yul\":28837:28838   */\n      0x00\n        /* \"#utility.yul\":28826:28835   */\n      dup4\n        /* \"#utility.yul\":28822:28839   */\n      add\n        /* \"#utility.yul\":28815:28862   */\n      mstore\n        /* \"#utility.yul\":28879:29010   */\n      tag_651\n        /* \"#utility.yul\":29005:29009   */\n      dup2\n        /* \"#utility.yul\":28879:29010   */\n      tag_339\n      jump\t// in\n    tag_651:\n        /* \"#utility.yul\":28871:29010   */\n      swap1\n      pop\n        /* \"#utility.yul\":28598:29017   */\n      swap2\n      swap1\n      pop\n      jump\t// out\n        /* \"#utility.yul\":29023:29164   */\n    tag_340:\n        /* \"#utility.yul\":29079:29084   */\n      0x00\n        /* \"#utility.yul\":29110:29116   */\n      dup2\n        /* \"#utility.yul\":29104:29117   */\n      mload\n        /* \"#utility.yul\":29095:29117   */\n      swap1\n      pop\n        /* \"#utility.yul\":29126:29158   */\n      tag_653\n        /* \"#utility.yul\":29152:29157   */\n      dup2\n        /* \"#utility.yul\":29126:29158   */\n      tag_287\n      jump\t// in\n    tag_653:\n        /* \"#utility.yul\":29023:29164   */\n      swap3\n      swap2\n      pop\n      pop\n      jump\t// out\n        /* \"#utility.yul\":29170:29519   */\n    tag_110:\n        /* \"#utility.yul\":29239:29245   */\n      0x00\n        /* \"#utility.yul\":29288:29290   */\n      0x20\n        /* \"#utility.yul\":29276:29285   */\n      dup3\n        /* \"#utility.yul\":29267:29274   */\n      dup5\n        /* \"#utility.yul\":29263:29286   */\n      sub\n        /* \"#utility.yul\":29259:29291   */\n      slt\n        /* \"#utility.yul\":29256:29375   */\n      iszero\n      tag_655\n      jumpi\n        /* \"#utility.yul\":29294:29373   */\n      tag_656\n      tag_269\n      jump\t// in\n    tag_656:\n        /* \"#utility.yul\":29256:29375   */\n    tag_655:\n        /* \"#utility.yul\":29414:29415   */\n      0x00\n        /* \"#utility.yul\":29439:29502   */\n      tag_657\n        /* \"#utility.yul\":29494:29501   */\n      dup5\n        /* \"#utility.yul\":29485:29491   */\n      dup3\n        /* \"#utility.yul\":29474:29483   */\n      dup6\n        /* \"#utility.yul\":29470:29492   */\n      add\n        /* \"#utility.yul\":29439:29502   */\n      tag_340\n      jump\t// in\n    tag_657:\n        /* \"#utility.yul\":29429:29502   */\n      swap2\n      pop\n        /* \"#utility.yul\":29385:29512   */\n      pop\n        /* \"#utility.yul\":29170:29519   */\n      swap3\n      swap2\n      pop\n      pop\n      jump\t// out\n        /* \"#utility.yul\":29525:29664   */\n    tag_341:\n        /* \"#utility.yul\":29580:29585   */\n      0x00\n        /* \"#utility.yul\":29611:29617   */\n      dup2\n        /* \"#utility.yul\":29605:29618   */\n      mload\n        /* \"#utility.yul\":29596:29618   */\n      swap1\n      pop\n        /* \"#utility.yul\":29627:29658   */\n      tag_659\n        /* \"#utility.yul\":29652:29657   */\n      dup2\n        /* \"#utility.yul\":29627:29658   */\n      tag_290\n      jump\t// in\n    tag_659:\n        /* \"#utility.yul\":29525:29664   */\n      swap3\n      swap2\n      pop\n      pop\n      jump\t// out\n        /* \"#utility.yul\":29670:30017   */\n    tag_115:\n        /* \"#utility.yul\":29738:29744   */\n      0x00\n        /* \"#utility.yul\":29787:29789   */\n      0x20\n        /* \"#utility.yul\":29775:29784   */\n      dup3\n        /* \"#utility.yul\":29766:29773   */\n      dup5\n        /* \"#utility.yul\":29762:29785   */\n      sub\n        /* \"#utility.yul\":29758:29790   */\n      slt\n        /* \"#utility.yul\":29755:29874   */\n      iszero\n      tag_661\n      jumpi\n        /* \"#utility.yul\":29793:29872   */\n      tag_662\n      tag_269\n      jump\t// in\n    tag_662:\n        /* \"#utility.yul\":29755:29874   */\n    tag_661:\n        /* \"#utility.yul\":29913:29914   */\n      0x00\n        /* \"#utility.yul\":29938:30000   */\n      tag_663\n        /* \"#utility.yul\":29992:29999   */\n      dup5\n        /* \"#utility.yul\":29983:29989   */\n      dup3\n        /* \"#utility.yul\":29972:29981   */\n      dup6\n        /* \"#utility.yul\":29968:29990   */\n      add\n        /* \"#utility.yul\":29938:30000   */\n      tag_341\n      jump\t// in\n    tag_663:\n        /* \"#utility.yul\":29928:30000   */\n      swap2\n      pop\n        /* \"#utility.yul\":29884:30010   */\n      pop\n        /* \"#utility.yul\":29670:30017   */\n      swap3\n      swap2\n      pop\n      pop\n      jump\t// out\n        /* \"#utility.yul\":30023:30203   */\n    tag_144:\n        /* \"#utility.yul\":30071:30148   */\n      0x4e487b7100000000000000000000000000000000000000000000000000000000\n        /* \"#utility.yul\":30068:30069   */\n      0x00\n        /* \"#utility.yul\":30061:30149   */\n      mstore\n        /* \"#utility.yul\":30168:30172   */\n      0x32\n        /* \"#utility.yul\":30165:30166   */\n      0x04\n        /* \"#utility.yul\":30158:30173   */\n      mstore\n        /* \"#utility.yul\":30192:30196   */\n      0x24\n        /* \"#utility.yul\":30189:30190   */\n      0x00\n        /* \"#utility.yul\":30182:30197   */\n      revert\n        /* \"#utility.yul\":30209:30389   */\n    tag_342:\n        /* \"#utility.yul\":30257:30334   */\n      0x4e487b7100000000000000000000000000000000000000000000000000000000\n        /* \"#utility.yul\":30254:30255   */\n      0x00\n        /* \"#utility.yul\":30247:30335   */\n      mstore\n        /* \"#utility.yul\":30354:30358   */\n      0x11\n        /* \"#utility.yul\":30351:30352   */\n      0x04\n        /* \"#utility.yul\":30344:30359   */\n      mstore\n        /* \"#utility.yul\":30378:30382   */\n      0x24\n        /* \"#utility.yul\":30375:30376   */\n      0x00\n        /* \"#utility.yul\":30368:30383   */\n      revert\n        /* \"#utility.yul\":30395:30628   */\n    tag_148:\n        /* \"#utility.yul\":30434:30437   */\n      0x00\n        /* \"#utility.yul\":30457:30481   */\n      tag_667\n        /* \"#utility.yul\":30475:30480   */\n      dup3\n        /* \"#utility.yul\":30457:30481   */\n      tag_275\n      jump\t// in\n    tag_667:\n        /* \"#utility.yul\":30448:30481   */\n      swap2\n      pop\n        /* \"#utility.yul\":30503:30569   */\n      0xffffffffffffffffffffffffffffffffffffffffffffffffffffffffffffffff\n        /* \"#utility.yul\":30496:30501   */\n      dup3\n        /* \"#utility.yul\":30493:30570   */\n      sub\n        /* \"#utility.yul\":30490:30593   */\n      tag_668\n      jumpi\n        /* \"#utility.yul\":30573:30591   */\n      tag_669\n      tag_342\n      jump\t// in\n    tag_669:\n        /* \"#utility.yul\":30490:30593   */\n    tag_668:\n        /* \"#utility.yul\":30620:30621   */\n      0x01\n        /* \"#utility.yul\":30613:30618   */\n      dup3\n        /* \"#utility.yul\":30609:30622   */\n      add\n        /* \"#utility.yul\":30602:30622   */\n      swap1\n      pop\n        /* \"#utility.yul\":30395:30628   */\n      swap2\n      swap1\n      pop\n      jump\t// out\n        /* \"#utility.yul\":30634:30825   */\n    tag_157:\n        /* \"#utility.yul\":30674:30677   */\n      0x00\n        /* \"#utility.yul\":30693:30713   */\n      tag_671\n        /* \"#utility.yul\":30711:30712   */\n      dup3\n        /* \"#utility.yul\":30693:30713   */\n      tag_275\n      jump\t// in\n    tag_671:\n        /* \"#utility.yul\":30688:30713   */\n      swap2\n      pop\n        /* \"#utility.yul\":30727:30747   */\n      tag_672\n        /* \"#utility.yul\":30745:30746   */\n      dup4\n        /* \"#utility.yul\":30727:30747   */\n      tag_275\n      jump\t// in\n    tag_672:\n        /* \"#utility.yul\":30722:30747   */\n      swap3\n      pop\n        /* \"#utility.yul\":30770:30771   */\n      dup3\n        /* \"#utility.yul\":30767:30768   */\n      dup3\n        /* \"#utility.yul\":30763:30772   */\n      add\n        /* \"#utility.yul\":30756:30772   */\n      swap1\n      pop\n        /* \"#utility.yul\":30791:30794   */\n      dup1\n        /* \"#utility.yul\":30788:30789   */\n      dup3\n        /* \"#utility.yul\":30785:30795   */\n      gt\n        /* \"#utility.yul\":30782:30818   */\n      iszero\n      tag_673\n      jumpi\n        /* \"#utility.yul\":30798:30816   */\n      tag_674\n      tag_342\n      jump\t// in\n    tag_674:\n        /* \"#utility.yul\":30782:30818   */\n    tag_673:\n        /* \"#utility.yul\":30634:30825   */\n      swap3\n      swap2\n      pop\n      pop\n      jump\t// out\n        /* \"#utility.yul\":30831:31182   */\n    tag_192:\n        /* \"#utility.yul\":30901:30907   */\n      0x00\n        /* \"#utility.yul\":30950:30952   */\n      0x20\n        /* \"#utility.yul\":30938:30947   */\n      dup3\n        /* \"#utility.yul\":30929:30936   */\n      dup5\n        /* \"#utility.yul\":30925:30948   */\n      sub\n        /* \"#utility.yul\":30921:30953   */\n      slt\n        /* \"#utility.yul\":30918:31037   */\n      iszero\n      tag_676\n      jumpi\n        /* \"#utility.yul\":30956:31035   */\n      tag_677\n      tag_269\n      jump\t// in\n    tag_677:\n        /* \"#utility.yul\":30918:31037   */\n    tag_676:\n        /* \"#utility.yul\":31076:31077   */\n      0x00\n        /* \"#utility.yul\":31101:31165   */\n      tag_678\n        /* \"#utility.yul\":31157:31164   */\n      dup5\n        /* \"#utility.yul\":31148:31154   */\n      dup3\n        /* \"#utility.yul\":31137:31146   */\n      dup6\n        /* \"#utility.yul\":31133:31155   */\n      add\n        /* \"#utility.yul\":31101:31165   */\n      tag_331\n      jump\t// in\n    tag_678:\n        /* \"#utility.yul\":31091:31165   */\n      swap2\n      pop\n        /* \"#utility.yul\":31047:31175   */\n      pop\n        /* \"#utility.yul\":30831:31182   */\n      swap3\n      swap2\n      pop\n      pop\n      jump\t// out\n        /* \"#utility.yul\":31188:31620   */\n    tag_343:\n        /* \"#utility.yul\":31276:31281   */\n      0x00\n        /* \"#utility.yul\":31301:31366   */\n      tag_680\n        /* \"#utility.yul\":31317:31365   */\n      tag_681\n        /* \"#utility.yul\":31358:31364   */\n      dup5\n        /* \"#utility.yul\":31317:31365   */\n      tag_313\n      jump\t// in\n    tag_681:\n        /* \"#utility.yul\":31301:31366   */\n      tag_281\n      jump\t// in\n    tag_680:\n        /* \"#utility.yul\":31292:31366   */\n      swap1\n      pop\n        /* \"#utility.yul\":31389:31395   */\n      dup3\n        /* \"#utility.yul\":31382:31387   */\n      dup2\n        /* \"#utility.yul\":31375:31396   */\n      mstore\n        /* \"#utility.yul\":31427:31431   */\n      0x20\n        /* \"#utility.yul\":31420:31425   */\n      dup2\n        /* \"#utility.yul\":31416:31432   */\n      add\n        /* \"#utility.yul\":31465:31468   */\n      dup5\n        /* \"#utility.yul\":31456:31462   */\n      dup5\n        /* \"#utility.yul\":31451:31454   */\n      dup5\n        /* \"#utility.yul\":31447:31463   */\n      add\n        /* \"#utility.yul\":31444:31469   */\n      gt\n        /* \"#utility.yul\":31441:31553   */\n      iszero\n      tag_682\n      jumpi\n        /* \"#utility.yul\":31472:31551   */\n      tag_683\n      tag_278\n      jump\t// in\n    tag_683:\n        /* \"#utility.yul\":31441:31553   */\n    tag_682:\n        /* \"#utility.yul\":31562:31614   */\n      tag_684\n        /* \"#utility.yul\":31607:31613   */\n      dup5\n        /* \"#utility.yul\":31602:31605   */\n      dup3\n        /* \"#utility.yul\":31597:31600   */\n      dup6\n        /* \"#utility.yul\":31562:31614   */\n      tag_298\n      jump\t// in\n    tag_684:\n        /* \"#utility.yul\":31282:31620   */\n      pop\n        /* \"#utility.yul\":31188:31620   */\n      swap4\n      swap3\n      pop\n      pop\n      pop\n      jump\t// out\n        /* \"#utility.yul\":31639:31992   */\n    tag_344:\n        /* \"#utility.yul\":31705:31710   */\n      0x00\n        /* \"#utility.yul\":31754:31757   */\n      dup3\n        /* \"#utility.yul\":31747:31751   */\n      0x1f\n        /* \"#utility.yul\":31739:31745   */\n      dup4\n        /* \"#utility.yul\":31735:31752   */\n      add\n        /* \"#utility.yul\":31731:31758   */\n      slt\n        /* \"#utility.yul\":31721:31843   */\n      tag_686\n      jumpi\n        /* \"#utility.yul\":31762:31841   */\n      tag_687\n      tag_277\n      jump\t// in\n    tag_687:\n        /* \"#utility.yul\":31721:31843   */\n    tag_686:\n        /* \"#utility.yul\":31872:31878   */\n      dup2\n        /* \"#utility.yul\":31866:31879   */\n      mload\n        /* \"#utility.yul\":31897:31986   */\n      tag_688\n        /* \"#utility.yul\":31982:31985   */\n      dup5\n        /* \"#utility.yul\":31974:31980   */\n      dup3\n        /* \"#utility.yul\":31967:31971   */\n      0x20\n        /* \"#utility.yul\":31959:31965   */\n      dup7\n        /* \"#utility.yul\":31955:31972   */\n      add\n        /* \"#utility.yul\":31897:31986   */\n      tag_343\n      jump\t// in\n    tag_688:\n        /* \"#utility.yul\":31888:31986   */\n      swap2\n      pop\n        /* \"#utility.yul\":31711:31992   */\n      pop\n        /* \"#utility.yul\":31639:31992   */\n      swap3\n      swap2\n      pop\n      pop\n      jump\t// out\n        /* \"#utility.yul\":31998:32520   */\n    tag_197:\n        /* \"#utility.yul\":32077:32083   */\n      0x00\n        /* \"#utility.yul\":32126:32128   */\n      0x20\n        /* \"#utility.yul\":32114:32123   */\n      dup3\n        /* \"#utility.yul\":32105:32112   */\n      dup5\n        /* \"#utility.yul\":32101:32124   */\n      sub\n        /* \"#utility.yul\":32097:32129   */\n      slt\n        /* \"#utility.yul\":32094:32213   */\n      iszero\n      tag_690\n      jumpi\n        /* \"#utility.yul\":32132:32211   */\n      tag_691\n      tag_269\n      jump\t// in\n    tag_691:\n        /* \"#utility.yul\":32094:32213   */\n    tag_690:\n        /* \"#utility.yul\":32273:32274   */\n      0x00\n        /* \"#utility.yul\":32262:32271   */\n      dup3\n        /* \"#utility.yul\":32258:32275   */\n      add\n        /* \"#utility.yul\":32252:32276   */\n      mload\n        /* \"#utility.yul\":32303:32321   */\n      0xffffffffffffffff\n        /* \"#utility.yul\":32295:32301   */\n      dup2\n        /* \"#utility.yul\":32292:32322   */\n      gt\n        /* \"#utility.yul\":32289:32406   */\n      iszero\n      tag_692\n      jumpi\n        /* \"#utility.yul\":32325:32404   */\n      tag_693\n      tag_270\n      jump\t// in\n    tag_693:\n        /* \"#utility.yul\":32289:32406   */\n    tag_692:\n        /* \"#utility.yul\":32430:32503   */\n      tag_694\n        /* \"#utility.yul\":32495:32502   */\n      dup5\n        /* \"#utility.yul\":32486:32492   */\n      dup3\n        /* \"#utility.yul\":32475:32484   */\n      dup6\n        /* \"#utility.yul\":32471:32493   */\n      add\n        /* \"#utility.yul\":32430:32503   */\n      tag_344\n      jump\t// in\n    tag_694:\n        /* \"#utility.yul\":32420:32503   */\n      swap2\n      pop\n        /* \"#utility.yul\":32223:32513   */\n      pop\n        /* \"#utility.yul\":31998:32520   */\n      swap3\n      swap2\n      pop\n      pop\n      jump\t// out\n        /* \"#utility.yul\":32526:32642   */\n    tag_345:\n        /* \"#utility.yul\":32577:32581   */\n      0x00\n        /* \"#utility.yul\":32600:32603   */\n      dup2\n        /* \"#utility.yul\":32592:32603   */\n      swap1\n      pop\n        /* \"#utility.yul\":32630:32634   */\n      0x20\n        /* \"#utility.yul\":32625:32628   */\n      dup3\n        /* \"#utility.yul\":32621:32635   */\n      add\n        /* \"#utility.yul\":32613:32635   */\n      swap1\n      pop\n        /* \"#utility.yul\":32526:32642   */\n      swap2\n      swap1\n      pop\n      jump\t// out\n        /* \"#utility.yul\":32648:32725   */\n    tag_346:\n        /* \"#utility.yul\":32685:32692   */\n      0x00\n        /* \"#utility.yul\":32714:32719   */\n      dup2\n        /* \"#utility.yul\":32703:32719   */\n      swap1\n      pop\n        /* \"#utility.yul\":32648:32725   */\n      swap2\n      swap1\n      pop\n      jump\t// out\n        /* \"#utility.yul\":32731:32885   */\n    tag_347:\n        /* \"#utility.yul\":32774:32785   */\n      0x00\n        /* \"#utility.yul\":32810:32839   */\n      tag_698\n        /* \"#utility.yul\":32834:32837   */\n      dup3\n        /* \"#utility.yul\":32828:32838   */\n      mload\n        /* \"#utility.yul\":32810:32839   */\n      tag_346\n      jump\t// in\n    tag_698:\n        /* \"#utility.yul\":32873:32878   */\n      dup1\n        /* \"#utility.yul\":32849:32878   */\n      swap2\n      pop\n        /* \"#utility.yul\":32786:32885   */\n      pop\n        /* \"#utility.yul\":32731:32885   */\n      swap2\n      swap1\n      pop\n      jump\t// out\n        /* \"#utility.yul\":32891:32998   */\n    tag_348:\n        /* \"#utility.yul\":32935:32943   */\n      0x00\n        /* \"#utility.yul\":32985:32990   */\n      dup3\n        /* \"#utility.yul\":32979:32983   */\n      dup3\n        /* \"#utility.yul\":32975:32991   */\n      shl\n        /* \"#utility.yul\":32954:32991   */\n      swap1\n      pop\n        /* \"#utility.yul\":32891:32998   */\n      swap3\n      swap2\n      pop\n      pop\n      jump\t// out\n        /* \"#utility.yul\":33004:33598   */\n    tag_199:\n        /* \"#utility.yul\":33088:33093   */\n      0x00\n        /* \"#utility.yul\":33119:33157   */\n      tag_701\n        /* \"#utility.yul\":33151:33156   */\n      dup3\n        /* \"#utility.yul\":33119:33157   */\n      tag_320\n      jump\t// in\n    tag_701:\n        /* \"#utility.yul\":33182:33187   */\n      dup3\n        /* \"#utility.yul\":33209:33249   */\n      tag_702\n        /* \"#utility.yul\":33243:33248   */\n      dup5\n        /* \"#utility.yul\":33209:33249   */\n      tag_345\n      jump\t// in\n    tag_702:\n        /* \"#utility.yul\":33197:33249   */\n      swap1\n      pop\n        /* \"#utility.yul\":33268:33303   */\n      tag_703\n        /* \"#utility.yul\":33294:33302   */\n      dup2\n        /* \"#utility.yul\":33268:33303   */\n      tag_347\n      jump\t// in\n    tag_703:\n        /* \"#utility.yul\":33259:33303   */\n      swap3\n      pop\n        /* \"#utility.yul\":33327:33329   */\n      0x20\n        /* \"#utility.yul\":33319:33325   */\n      dup3\n        /* \"#utility.yul\":33316:33330   */\n      lt\n        /* \"#utility.yul\":33313:33591   */\n      iszero\n      tag_704\n      jumpi\n        /* \"#utility.yul\":33398:33567   */\n      tag_705\n        /* \"#utility.yul\":33483:33549   */\n      0xffffffffffffffffffffffffffffffffffffffffffffffffffffffffffffffff\n        /* \"#utility.yul\":33453:33459   */\n      dup4\n        /* \"#utility.yul\":33449:33451   */\n      0x20\n        /* \"#utility.yul\":33445:33460   */\n      sub\n        /* \"#utility.yul\":33442:33443   */\n      0x08\n        /* \"#utility.yul\":33438:33461   */\n      mul\n        /* \"#utility.yul\":33398:33567   */\n      tag_348\n      jump\t// in\n    tag_705:\n        /* \"#utility.yul\":33375:33380   */\n      dup4\n        /* \"#utility.yul\":33354:33581   */\n      and\n        /* \"#utility.yul\":33345:33581   */\n      swap3\n      pop\n        /* \"#utility.yul\":33313:33591   */\n    tag_704:\n        /* \"#utility.yul\":33094:33598   */\n      pop\n      pop\n        /* \"#utility.yul\":33004:33598   */\n      swap2\n      swap1\n      pop\n      jump\t// out\n        /* \"#utility.yul\":33604:34027   */\n    tag_204:\n        /* \"#utility.yul\":33745:33749   */\n      0x00\n        /* \"#utility.yul\":33783:33785   */\n      0x40\n        /* \"#utility.yul\":33772:33781   */\n      dup3\n        /* \"#utility.yul\":33768:33786   */\n      add\n        /* \"#utility.yul\":33760:33786   */\n      swap1\n      pop\n        /* \"#utility.yul\":33796:33867   */\n      tag_707\n        /* \"#utility.yul\":33864:33865   */\n      0x00\n        /* \"#utility.yul\":33853:33862   */\n      dup4\n        /* \"#utility.yul\":33849:33866   */\n      add\n        /* \"#utility.yul\":33840:33846   */\n      dup6\n        /* \"#utility.yul\":33796:33867   */\n      tag_312\n      jump\t// in\n    tag_707:\n        /* \"#utility.yul\":33914:33923   */\n      dup2\n        /* \"#utility.yul\":33908:33912   */\n      dup2\n        /* \"#utility.yul\":33904:33924   */\n      sub\n        /* \"#utility.yul\":33899:33901   */\n      0x20\n        /* \"#utility.yul\":33888:33897   */\n      dup4\n        /* \"#utility.yul\":33884:33902   */\n      add\n        /* \"#utility.yul\":33877:33925   */\n      mstore\n        /* \"#utility.yul\":33942:34020   */\n      tag_708\n        /* \"#utility.yul\":34015:34019   */\n      dup2\n        /* \"#utility.yul\":34006:34012   */\n      dup5\n        /* \"#utility.yul\":33942:34020   */\n      tag_317\n      jump\t// in\n    tag_708:\n        /* \"#utility.yul\":33934:34020   */\n      swap1\n      pop\n        /* \"#utility.yul\":33604:34027   */\n      swap4\n      swap3\n      pop\n      pop\n      pop\n      jump\t// out\n        /* \"#utility.yul\":34033:34181   */\n    tag_349:\n        /* \"#utility.yul\":34135:34146   */\n      0x00\n        /* \"#utility.yul\":34172:34175   */\n      dup2\n        /* \"#utility.yul\":34157:34175   */\n      swap1\n      pop\n        /* \"#utility.yul\":34033:34181   */\n      swap3\n      swap2\n      pop\n      pop\n      jump\t// out\n        /* \"#utility.yul\":34187:34577   */\n    tag_350:\n        /* \"#utility.yul\":34293:34296   */\n      0x00\n        /* \"#utility.yul\":34321:34360   */\n      tag_711\n        /* \"#utility.yul\":34354:34359   */\n      dup3\n        /* \"#utility.yul\":34321:34360   */\n      tag_296\n      jump\t// in\n    tag_711:\n        /* \"#utility.yul\":34376:34465   */\n      tag_712\n        /* \"#utility.yul\":34458:34464   */\n      dup2\n        /* \"#utility.yul\":34453:34456   */\n      dup6\n        /* \"#utility.yul\":34376:34465   */\n      tag_349\n      jump\t// in\n    tag_712:\n        /* \"#utility.yul\":34369:34465   */\n      swap4\n      pop\n        /* \"#utility.yul\":34474:34539   */\n      tag_713\n        /* \"#utility.yul\":34532:34538   */\n      dup2\n        /* \"#utility.yul\":34527:34530   */\n      dup6\n        /* \"#utility.yul\":34520:34524   */\n      0x20\n        /* \"#utility.yul\":34513:34518   */\n      dup7\n        /* \"#utility.yul\":34509:34525   */\n      add\n        /* \"#utility.yul\":34474:34539   */\n      tag_298\n      jump\t// in\n    tag_713:\n        /* \"#utility.yul\":34564:34570   */\n      dup1\n        /* \"#utility.yul\":34559:34562   */\n      dup5\n        /* \"#utility.yul\":34555:34571   */\n      add\n        /* \"#utility.yul\":34548:34571   */\n      swap2\n      pop\n        /* \"#utility.yul\":34297:34577   */\n      pop\n        /* \"#utility.yul\":34187:34577   */\n      swap3\n      swap2\n      pop\n      pop\n      jump\t// out\n        /* \"#utility.yul\":34583:34858   */\n    tag_209:\n        /* \"#utility.yul\":34715:34718   */\n      0x00\n        /* \"#utility.yul\":34737:34832   */\n      tag_715\n        /* \"#utility.yul\":34828:34831   */\n      dup3\n        /* \"#utility.yul\":34819:34825   */\n      dup5\n        /* \"#utility.yul\":34737:34832   */\n      tag_350\n      jump\t// in\n    tag_715:\n        /* \"#utility.yul\":34730:34832   */\n      swap2\n      pop\n        /* \"#utility.yul\":34849:34852   */\n      dup2\n        /* \"#utility.yul\":34842:34852   */\n      swap1\n      pop\n        /* \"#utility.yul\":34583:34858   */\n      swap3\n      swap2\n      pop\n      pop\n      jump\t// out\n        /* \"#utility.yul\":34864:35294   */\n    tag_212:\n        /* \"#utility.yul\":35007:35011   */\n      0x00\n        /* \"#utility.yul\":35045:35047   */\n      0x60\n        /* \"#utility.yul\":35034:35043   */\n      dup3\n        /* \"#utility.yul\":35030:35048   */\n      add\n        /* \"#utility.yul\":35022:35048   */\n      swap1\n      pop\n        /* \"#utility.yul\":35058:35123   */\n      tag_717\n        /* \"#utility.yul\":35120:35121   */\n      0x00\n        /* \"#utility.yul\":35109:35118   */\n      dup4\n        /* \"#utility.yul\":35105:35122   */\n      add\n        /* \"#utility.yul\":35096:35102   */\n      dup7\n        /* \"#utility.yul\":35058:35123   */\n      tag_319\n      jump\t// in\n    tag_717:\n        /* \"#utility.yul\":35133:35205   */\n      tag_718\n        /* \"#utility.yul\":35201:35203   */\n      0x20\n        /* \"#utility.yul\":35190:35199   */\n      dup4\n        /* \"#utility.yul\":35186:35204   */\n      add\n        /* \"#utility.yul\":35177:35183   */\n      dup6\n        /* \"#utility.yul\":35133:35205   */\n      tag_276\n      jump\t// in\n    tag_718:\n        /* \"#utility.yul\":35215:35287   */\n      tag_719\n        /* \"#utility.yul\":35283:35285   */\n      0x40\n        /* \"#utility.yul\":35272:35281   */\n      dup4\n        /* \"#utility.yul\":35268:35286   */\n      add\n        /* \"#utility.yul\":35259:35265   */\n      dup5\n        /* \"#utility.yul\":35215:35287   */\n      tag_276\n      jump\t// in\n    tag_719:\n        /* \"#utility.yul\":34864:35294   */\n      swap5\n      swap4\n      pop\n      pop\n      pop\n      pop\n      jump\t// out\n        /* \"#utility.yul\":35300:35494   */\n    tag_220:\n        /* \"#utility.yul\":35340:35344   */\n      0x00\n        /* \"#utility.yul\":35360:35380   */\n      tag_721\n        /* \"#utility.yul\":35378:35379   */\n      dup3\n        /* \"#utility.yul\":35360:35380   */\n      tag_275\n      jump\t// in\n    tag_721:\n        /* \"#utility.yul\":35355:35380   */\n      swap2\n      pop\n        /* \"#utility.yul\":35394:35414   */\n      tag_722\n        /* \"#utility.yul\":35412:35413   */\n      dup4\n        /* \"#utility.yul\":35394:35414   */\n      tag_275\n      jump\t// in\n    tag_722:\n        /* \"#utility.yul\":35389:35414   */\n      swap3\n      pop\n        /* \"#utility.yul\":35438:35439   */\n      dup3\n        /* \"#utility.yul\":35435:35436   */\n      dup3\n        /* \"#utility.yul\":35431:35440   */\n      sub\n        /* \"#utility.yul\":35423:35440   */\n      swap1\n      pop\n        /* \"#utility.yul\":35462:35463   */\n      dup2\n        /* \"#utility.yul\":35456:35460   */\n      dup2\n        /* \"#utility.yul\":35453:35464   */\n      gt\n        /* \"#utility.yul\":35450:35487   */\n      iszero\n      tag_723\n      jumpi\n        /* \"#utility.yul\":35467:35485   */\n      tag_724\n      tag_342\n      jump\t// in\n    tag_724:\n        /* \"#utility.yul\":35450:35487   */\n    tag_723:\n        /* \"#utility.yul\":35300:35494   */\n      swap3\n      swap2\n      pop\n      pop\n      jump\t// out\n        /* \"#utility.yul\":35500:35579   */\n    tag_351:\n        /* \"#utility.yul\":35539:35546   */\n      0x00\n        /* \"#utility.yul\":35568:35573   */\n      dup2\n        /* \"#utility.yul\":35557:35573   */\n      swap1\n      pop\n        /* \"#utility.yul\":35500:35579   */\n      swap2\n      swap1\n      pop\n      jump\t// out\n        /* \"#utility.yul\":35585:35742   */\n    tag_352:\n        /* \"#utility.yul\":35690:35735   */\n      tag_727\n        /* \"#utility.yul\":35710:35734   */\n      tag_728\n        /* \"#utility.yul\":35728:35733   */\n      dup3\n        /* \"#utility.yul\":35710:35734   */\n      tag_275\n      jump\t// in\n    tag_728:\n        /* \"#utility.yul\":35690:35735   */\n      tag_351\n      jump\t// in\n    tag_727:\n        /* \"#utility.yul\":35685:35688   */\n      dup3\n        /* \"#utility.yul\":35678:35736   */\n      mstore\n        /* \"#utility.yul\":35585:35742   */\n      pop\n      pop\n      jump\t// out\n        /* \"#utility.yul\":35748:35827   */\n    tag_353:\n        /* \"#utility.yul\":35787:35794   */\n      0x00\n        /* \"#utility.yul\":35816:35821   */\n      dup2\n        /* \"#utility.yul\":35805:35821   */\n      swap1\n      pop\n        /* \"#utility.yul\":35748:35827   */\n      swap2\n      swap1\n      pop\n      jump\t// out\n        /* \"#utility.yul\":35833:35990   */\n    tag_354:\n        /* \"#utility.yul\":35938:35983   */\n      tag_731\n        /* \"#utility.yul\":35958:35982   */\n      tag_732\n        /* \"#utility.yul\":35976:35981   */\n      dup3\n        /* \"#utility.yul\":35958:35982   */\n      tag_346\n      jump\t// in\n    tag_732:\n        /* \"#utility.yul\":35938:35983   */\n      tag_353\n      jump\t// in\n    tag_731:\n        /* \"#utility.yul\":35933:35936   */\n      dup3\n        /* \"#utility.yul\":35926:35984   */\n      mstore\n        /* \"#utility.yul\":35833:35990   */\n      pop\n      pop\n      jump\t// out\n        /* \"#utility.yul\":35996:36393   */\n    tag_222:\n        /* \"#utility.yul\":36136:36139   */\n      0x00\n        /* \"#utility.yul\":36151:36226   */\n      tag_734\n        /* \"#utility.yul\":36222:36225   */\n      dup3\n        /* \"#utility.yul\":36213:36219   */\n      dup6\n        /* \"#utility.yul\":36151:36226   */\n      tag_352\n      jump\t// in\n    tag_734:\n        /* \"#utility.yul\":36251:36253   */\n      0x20\n        /* \"#utility.yul\":36246:36249   */\n      dup3\n        /* \"#utility.yul\":36242:36254   */\n      add\n        /* \"#utility.yul\":36235:36254   */\n      swap2\n      pop\n        /* \"#utility.yul\":36264:36339   */\n      tag_735\n        /* \"#utility.yul\":36335:36338   */\n      dup3\n        /* \"#utility.yul\":36326:36332   */\n      dup5\n        /* \"#utility.yul\":36264:36339   */\n      tag_354\n      jump\t// in\n    tag_735:\n        /* \"#utility.yul\":36364:36366   */\n      0x20\n        /* \"#utility.yul\":36359:36362   */\n      dup3\n        /* \"#utility.yul\":36355:36367   */\n      add\n        /* \"#utility.yul\":36348:36367   */\n      swap2\n      pop\n        /* \"#utility.yul\":36384:36387   */\n      dup2\n        /* \"#utility.yul\":36377:36387   */\n      swap1\n      pop\n        /* \"#utility.yul\":35996:36393   */\n      swap4\n      swap3\n      pop\n      pop\n      pop\n      jump\t// out\n        /* \"#utility.yul\":36399:36579   */\n    tag_355:\n        /* \"#utility.yul\":36447:36524   */\n      0x4e487b7100000000000000000000000000000000000000000000000000000000\n        /* \"#utility.yul\":36444:36445   */\n      0x00\n        /* \"#utility.yul\":36437:36525   */\n      mstore\n        /* \"#utility.yul\":36544:36548   */\n      0x12\n        /* \"#utility.yul\":36541:36542   */\n      0x04\n        /* \"#utility.yul\":36534:36549   */\n      mstore\n        /* \"#utility.yul\":36568:36572   */\n      0x24\n        /* \"#utility.yul\":36565:36566   */\n      0x00\n        /* \"#utility.yul\":36558:36573   */\n      revert\n        /* \"#utility.yul\":36585:36761   */\n    tag_224:\n        /* \"#utility.yul\":36617:36618   */\n      0x00\n        /* \"#utility.yul\":36634:36654   */\n      tag_738\n        /* \"#utility.yul\":36652:36653   */\n      dup3\n        /* \"#utility.yul\":36634:36654   */\n      tag_275\n      jump\t// in\n    tag_738:\n        /* \"#utility.yul\":36629:36654   */\n      swap2\n      pop\n        /* \"#utility.yul\":36668:36688   */\n      tag_739\n        /* \"#utility.yul\":36686:36687   */\n      dup4\n        /* \"#utility.yul\":36668:36688   */\n      tag_275\n      jump\t// in\n    tag_739:\n        /* \"#utility.yul\":36663:36688   */\n      swap3\n      pop\n        /* \"#utility.yul\":36707:36708   */\n      dup3\n        /* \"#utility.yul\":36697:36732   */\n      tag_740\n      jumpi\n        /* \"#utility.yul\":36712:36730   */\n      tag_741\n      tag_355\n      jump\t// in\n    tag_741:\n        /* \"#utility.yul\":36697:36732   */\n    tag_740:\n        /* \"#utility.yul\":36753:36754   */\n      dup3\n        /* \"#utility.yul\":36750:36751   */\n      dup3\n        /* \"#utility.yul\":36746:36755   */\n      mod\n        /* \"#utility.yul\":36741:36755   */\n      swap1\n      pop\n        /* \"#utility.yul\":36585:36761   */\n      swap3\n      swap2\n      pop\n      pop\n      jump\t// out\n        /* \"#utility.yul\":36767:36907   */\n    tag_356:\n        /* \"#utility.yul\":36815:36819   */\n      0x00\n        /* \"#utility.yul\":36838:36841   */\n      dup2\n        /* \"#utility.yul\":36830:36841   */\n      swap1\n      pop\n        /* \"#utility.yul\":36861:36864   */\n      dup2\n        /* \"#utility.yul\":36858:36859   */\n      0x00\n        /* \"#utility.yul\":36851:36865   */\n      mstore\n        /* \"#utility.yul\":36895:36899   */\n      0x20\n        /* \"#utility.yul\":36892:36893   */\n      0x00\n        /* \"#utility.yul\":36882:36900   */\n      keccak256\n        /* \"#utility.yul\":36874:36900   */\n      swap1\n      pop\n        /* \"#utility.yul\":36767:36907   */\n      swap2\n      swap1\n      pop\n      jump\t// out\n        /* \"#utility.yul\":36913:37006   */\n    tag_357:\n        /* \"#utility.yul\":36950:36956   */\n      0x00\n        /* \"#utility.yul\":36997:36999   */\n      0x20\n        /* \"#utility.yul\":36992:36994   */\n      0x1f\n        /* \"#utility.yul\":36985:36990   */\n      dup4\n        /* \"#utility.yul\":36981:36995   */\n      add\n        /* \"#utility.yul\":36977:37000   */\n      div\n        /* \"#utility.yul\":36967:37000   */\n      swap1\n      pop\n        /* \"#utility.yul\":36913:37006   */\n      swap2\n      swap1\n      pop\n      jump\t// out\n        /* \"#utility.yul\":37012:37405   */\n    tag_358:\n        /* \"#utility.yul\":37081:37087   */\n      0x00\n        /* \"#utility.yul\":37131:37132   */\n      0x08\n        /* \"#utility.yul\":37119:37129   */\n      dup4\n        /* \"#utility.yul\":37115:37133   */\n      mul\n        /* \"#utility.yul\":37154:37251   */\n      tag_745\n        /* \"#utility.yul\":37184:37250   */\n      0xffffffffffffffffffffffffffffffffffffffffffffffffffffffffffffffff\n        /* \"#utility.yul\":37173:37182   */\n      dup3\n        /* \"#utility.yul\":37154:37251   */\n      tag_348\n      jump\t// in\n    tag_745:\n        /* \"#utility.yul\":37272:37311   */\n      tag_746\n        /* \"#utility.yul\":37302:37310   */\n      dup7\n        /* \"#utility.yul\":37291:37300   */\n      dup4\n        /* \"#utility.yul\":37272:37311   */\n      tag_348\n      jump\t// in\n    tag_746:\n        /* \"#utility.yul\":37260:37311   */\n      swap6\n      pop\n        /* \"#utility.yul\":37344:37348   */\n      dup1\n        /* \"#utility.yul\":37340:37349   */\n      not\n        /* \"#utility.yul\":37333:37338   */\n      dup5\n        /* \"#utility.yul\":37329:37350   */\n      and\n        /* \"#utility.yul\":37320:37350   */\n      swap4\n      pop\n        /* \"#utility.yul\":37393:37397   */\n      dup1\n        /* \"#utility.yul\":37383:37391   */\n      dup7\n        /* \"#utility.yul\":37379:37398   */\n      and\n        /* \"#utility.yul\":37372:37377   */\n      dup5\n        /* \"#utility.yul\":37369:37399   */\n      or\n        /* \"#utility.yul\":37359:37399   */\n      swap3\n      pop\n        /* \"#utility.yul\":37088:37405   */\n      pop\n      pop\n        /* \"#utility.yul\":37012:37405   */\n      swap4\n      swap3\n      pop\n      pop\n      pop\n      jump\t// out\n        /* \"#utility.yul\":37411:37471   */\n    tag_359:\n        /* \"#utility.yul\":37439:37442   */\n      0x00\n        /* \"#utility.yul\":37460:37465   */\n      dup2\n        /* \"#utility.yul\":37453:37465   */\n      swap1\n      pop\n        /* \"#utility.yul\":37411:37471   */\n      swap2\n      swap1\n      pop\n      jump\t// out\n        /* \"#utility.yul\":37477:37619   */\n    tag_360:\n        /* \"#utility.yul\":37527:37536   */\n      0x00\n        /* \"#utility.yul\":37560:37613   */\n      tag_749\n        /* \"#utility.yul\":37578:37612   */\n      tag_750\n        /* \"#utility.yul\":37587:37611   */\n      tag_751\n        /* \"#utility.yul\":37605:37610   */\n      dup5\n        /* \"#utility.yul\":37587:37611   */\n      tag_275\n      jump\t// in\n    tag_751:\n        /* \"#utility.yul\":37578:37612   */\n      tag_359\n      jump\t// in\n    tag_750:\n        /* \"#utility.yul\":37560:37613   */\n      tag_275\n      jump\t// in\n    tag_749:\n        /* \"#utility.yul\":37547:37613   */\n      swap1\n      pop\n        /* \"#utility.yul\":37477:37619   */\n      swap2\n      swap1\n      pop\n      jump\t// out\n        /* \"#utility.yul\":37625:37700   */\n    tag_361:\n        /* \"#utility.yul\":37668:37671   */\n      0x00\n        /* \"#utility.yul\":37689:37694   */\n      dup2\n        /* \"#utility.yul\":37682:37694   */\n      swap1\n      pop\n        /* \"#utility.yul\":37625:37700   */\n      swap2\n      swap1\n      pop\n      jump\t// out\n        /* \"#utility.yul\":37706:37975   */\n    tag_362:\n        /* \"#utility.yul\":37816:37855   */\n      tag_754\n        /* \"#utility.yul\":37847:37854   */\n      dup4\n        /* \"#utility.yul\":37816:37855   */\n      tag_360\n      jump\t// in\n    tag_754:\n        /* \"#utility.yul\":37877:37968   */\n      tag_755\n        /* \"#utility.yul\":37926:37967   */\n      tag_756\n        /* \"#utility.yul\":37950:37966   */\n      dup3\n        /* \"#utility.yul\":37926:37967   */\n      tag_361\n      jump\t// in\n    tag_756:\n        /* \"#utility.yul\":37918:37924   */\n      dup5\n        /* \"#utility.yul\":37911:37915   */\n      dup5\n        /* \"#utility.yul\":37905:37916   */\n      sload\n        /* \"#utility.yul\":37877:37968   */\n      tag_358\n      jump\t// in\n    tag_755:\n        /* \"#utility.yul\":37871:37875   */\n      dup3\n        /* \"#utility.yul\":37864:37969   */\n      sstore\n        /* \"#utility.yul\":37782:37975   */\n      pop\n        /* \"#utility.yul\":37706:37975   */\n      pop\n      pop\n      pop\n      jump\t// out\n        /* \"#utility.yul\":37981:38054   */\n    tag_363:\n        /* \"#utility.yul\":38026:38029   */\n      0x00\n        /* \"#utility.yul\":37981:38054   */\n      swap1\n      jump\t// out\n        /* \"#utility.yul\":38060:38249   */\n    tag_364:\n        /* \"#utility.yul\":38137:38169   */\n      tag_759\n      tag_363\n      jump\t// in\n    tag_759:\n        /* \"#utility.yul\":38178:38243   */\n      tag_760\n        /* \"#utility.yul\":38236:38242   */\n      dup2\n        /* \"#utility.yul\":38228:38234   */\n      dup5\n        /* \"#utility.yul\":38222:38226   */\n      dup5\n        /* \"#utility.yul\":38178:38243   */\n      tag_362\n      jump\t// in\n    tag_760:\n        /* \"#utility.yul\":38113:38249   */\n      pop\n        /* \"#utility.yul\":38060:38249   */\n      pop\n      pop\n      jump\t// out\n        /* \"#utility.yul\":38255:38441   */\n    tag_365:\n        /* \"#utility.yul\":38315:38435   */\n    tag_762:\n        /* \"#utility.yul\":38332:38335   */\n      dup2\n        /* \"#utility.yul\":38325:38330   */\n      dup2\n        /* \"#utility.yul\":38322:38336   */\n      lt\n        /* \"#utility.yul\":38315:38435   */\n      iszero\n      tag_764\n      jumpi\n        /* \"#utility.yul\":38386:38425   */\n      tag_765\n        /* \"#utility.yul\":38423:38424   */\n      0x00\n        /* \"#utility.yul\":38416:38421   */\n      dup3\n        /* \"#utility.yul\":38386:38425   */\n      tag_364\n      jump\t// in\n    tag_765:\n        /* \"#utility.yul\":38359:38360   */\n      0x01\n        /* \"#utility.yul\":38352:38357   */\n      dup2\n        /* \"#utility.yul\":38348:38361   */\n      add\n        /* \"#utility.yul\":38339:38361   */\n      swap1\n      pop\n        /* \"#utility.yul\":38315:38435   */\n      jump(tag_762)\n    tag_764:\n        /* \"#utility.yul\":38255:38441   */\n      pop\n      pop\n      jump\t// out\n        /* \"#utility.yul\":38447:38988   */\n    tag_366:\n        /* \"#utility.yul\":38547:38549   */\n      0x1f\n        /* \"#utility.yul\":38542:38545   */\n      dup3\n        /* \"#utility.yul\":38539:38550   */\n      gt\n        /* \"#utility.yul\":38536:38981   */\n      iszero\n      tag_767\n      jumpi\n        /* \"#utility.yul\":38581:38618   */\n      tag_768\n        /* \"#utility.yul\":38612:38617   */\n      dup2\n        /* \"#utility.yul\":38581:38618   */\n      tag_356\n      jump\t// in\n    tag_768:\n        /* \"#utility.yul\":38664:38693   */\n      tag_769\n        /* \"#utility.yul\":38682:38692   */\n      dup5\n        /* \"#utility.yul\":38664:38693   */\n      tag_357\n      jump\t// in\n    tag_769:\n        /* \"#utility.yul\":38654:38662   */\n      dup2\n        /* \"#utility.yul\":38650:38694   */\n      add\n        /* \"#utility.yul\":38847:38849   */\n      0x20\n        /* \"#utility.yul\":38835:38845   */\n      dup6\n        /* \"#utility.yul\":38832:38850   */\n      lt\n        /* \"#utility.yul\":38829:38878   */\n      iszero\n      tag_770\n      jumpi\n        /* \"#utility.yul\":38868:38876   */\n      dup2\n        /* \"#utility.yul\":38853:38876   */\n      swap1\n      pop\n        /* \"#utility.yul\":38829:38878   */\n    tag_770:\n        /* \"#utility.yul\":38891:38971   */\n      tag_771\n        /* \"#utility.yul\":38947:38969   */\n      tag_772\n        /* \"#utility.yul\":38965:38968   */\n      dup6\n        /* \"#utility.yul\":38947:38969   */\n      tag_357\n      jump\t// in\n    tag_772:\n        /* \"#utility.yul\":38937:38945   */\n      dup4\n        /* \"#utility.yul\":38933:38970   */\n      add\n        /* \"#utility.yul\":38920:38931   */\n      dup3\n        /* \"#utility.yul\":38891:38971   */\n      tag_365\n      jump\t// in\n    tag_771:\n        /* \"#utility.yul\":38551:38981   */\n      pop\n      pop\n        /* \"#utility.yul\":38536:38981   */\n    tag_767:\n        /* \"#utility.yul\":38447:38988   */\n      pop\n      pop\n      pop\n      jump\t// out\n        /* \"#utility.yul\":38994:39111   */\n    tag_367:\n        /* \"#utility.yul\":39048:39056   */\n      0x00\n        /* \"#utility.yul\":39098:39103   */\n      dup3\n        /* \"#utility.yul\":39092:39096   */\n      dup3\n        /* \"#utility.yul\":39088:39104   */\n      shr\n        /* \"#utility.yul\":39067:39104   */\n      swap1\n      pop\n        /* \"#utility.yul\":38994:39111   */\n      swap3\n      swap2\n      pop\n      pop\n      jump\t// out\n        /* \"#utility.yul\":39117:39286   */\n    tag_368:\n        /* \"#utility.yul\":39161:39167   */\n      0x00\n        /* \"#utility.yul\":39194:39245   */\n      tag_775\n        /* \"#utility.yul\":39242:39243   */\n      0x00\n        /* \"#utility.yul\":39238:39244   */\n      not\n        /* \"#utility.yul\":39230:39235   */\n      dup5\n        /* \"#utility.yul\":39227:39228   */\n      0x08\n        /* \"#utility.yul\":39223:39236   */\n      mul\n        /* \"#utility.yul\":39194:39245   */\n      tag_367\n      jump\t// in\n    tag_775:\n        /* \"#utility.yul\":39190:39246   */\n      not\n        /* \"#utility.yul\":39275:39279   */\n      dup1\n        /* \"#utility.yul\":39269:39273   */\n      dup4\n        /* \"#utility.yul\":39265:39280   */\n      and\n        /* \"#utility.yul\":39255:39280   */\n      swap2\n      pop\n        /* \"#utility.yul\":39168:39286   */\n      pop\n        /* \"#utility.yul\":39117:39286   */\n      swap3\n      swap2\n      pop\n      pop\n      jump\t// out\n        /* \"#utility.yul\":39291:39586   */\n    tag_369:\n        /* \"#utility.yul\":39367:39371   */\n      0x00\n        /* \"#utility.yul\":39513:39542   */\n      tag_777\n        /* \"#utility.yul\":39538:39541   */\n      dup4\n        /* \"#utility.yul\":39532:39536   */\n      dup4\n        /* \"#utility.yul\":39513:39542   */\n      tag_368\n      jump\t// in\n    tag_777:\n        /* \"#utility.yul\":39505:39542   */\n      swap2\n      pop\n        /* \"#utility.yul\":39575:39578   */\n      dup3\n        /* \"#utility.yul\":39572:39573   */\n      0x02\n        /* \"#utility.yul\":39568:39579   */\n      mul\n        /* \"#utility.yul\":39562:39566   */\n      dup3\n        /* \"#utility.yul\":39559:39580   */\n      or\n        /* \"#utility.yul\":39551:39580   */\n      swap1\n      pop\n        /* \"#utility.yul\":39291:39586   */\n      swap3\n      swap2\n      pop\n      pop\n      jump\t// out\n        /* \"#utility.yul\":39591:40981   */\n    tag_267:\n        /* \"#utility.yul\":39706:39742   */\n      tag_779\n        /* \"#utility.yul\":39738:39741   */\n      dup3\n        /* \"#utility.yul\":39706:39742   */\n      tag_320\n      jump\t// in\n    tag_779:\n        /* \"#utility.yul\":39807:39825   */\n      0xffffffffffffffff\n        /* \"#utility.yul\":39799:39805   */\n      dup2\n        /* \"#utility.yul\":39796:39826   */\n      gt\n        /* \"#utility.yul\":39793:39849   */\n      iszero\n      tag_780\n      jumpi\n        /* \"#utility.yul\":39829:39847   */\n      tag_781\n      tag_134\n      jump\t// in\n    tag_781:\n        /* \"#utility.yul\":39793:39849   */\n    tag_780:\n        /* \"#utility.yul\":39873:39911   */\n      tag_782\n        /* \"#utility.yul\":39905:39909   */\n      dup3\n        /* \"#utility.yul\":39899:39910   */\n      sload\n        /* \"#utility.yul\":39873:39911   */\n      tag_90\n      jump\t// in\n    tag_782:\n        /* \"#utility.yul\":39958:40024   */\n      tag_783\n        /* \"#utility.yul\":40017:40023   */\n      dup3\n        /* \"#utility.yul\":40009:40015   */\n      dup3\n        /* \"#utility.yul\":40003:40007   */\n      dup6\n        /* \"#utility.yul\":39958:40024   */\n      tag_366\n      jump\t// in\n    tag_783:\n        /* \"#utility.yul\":40051:40052   */\n      0x00\n        /* \"#utility.yul\":40075:40079   */\n      0x20\n        /* \"#utility.yul\":40062:40079   */\n      swap1\n      pop\n        /* \"#utility.yul\":40107:40109   */\n      0x1f\n        /* \"#utility.yul\":40099:40105   */\n      dup4\n        /* \"#utility.yul\":40096:40110   */\n      gt\n        /* \"#utility.yul\":40124:40125   */\n      0x01\n        /* \"#utility.yul\":40119:40736   */\n      dup2\n      eq\n      tag_785\n      jumpi\n        /* \"#utility.yul\":40780:40781   */\n      0x00\n        /* \"#utility.yul\":40797:40803   */\n      dup5\n        /* \"#utility.yul\":40794:40871   */\n      iszero\n      tag_786\n      jumpi\n        /* \"#utility.yul\":40846:40855   */\n      dup3\n        /* \"#utility.yul\":40841:40844   */\n      dup8\n        /* \"#utility.yul\":40837:40856   */\n      add\n        /* \"#utility.yul\":40831:40857   */\n      mload\n        /* \"#utility.yul\":40822:40857   */\n      swap1\n      pop\n        /* \"#utility.yul\":40794:40871   */\n    tag_786:\n        /* \"#utility.yul\":40897:40964   */\n      tag_787\n        /* \"#utility.yul\":40957:40963   */\n      dup6\n        /* \"#utility.yul\":40950:40955   */\n      dup3\n        /* \"#utility.yul\":40897:40964   */\n      tag_369\n      jump\t// in\n    tag_787:\n        /* \"#utility.yul\":40891:40895   */\n      dup7\n        /* \"#utility.yul\":40884:40965   */\n      sstore\n        /* \"#utility.yul\":40753:40975   */\n      pop\n        /* \"#utility.yul\":40089:40975   */\n      jump(tag_784)\n        /* \"#utility.yul\":40119:40736   */\n    tag_785:\n        /* \"#utility.yul\":40171:40175   */\n      0x1f\n        /* \"#utility.yul\":40167:40176   */\n      not\n        /* \"#utility.yul\":40159:40165   */\n      dup5\n        /* \"#utility.yul\":40155:40177   */\n      and\n        /* \"#utility.yul\":40205:40241   */\n      tag_788\n        /* \"#utility.yul\":40236:40240   */\n      dup7\n        /* \"#utility.yul\":40205:40241   */\n      tag_356\n      jump\t// in\n    tag_788:\n        /* \"#utility.yul\":40263:40264   */\n      0x00\n        /* \"#utility.yul\":40277:40485   */\n    tag_789:\n        /* \"#utility.yul\":40291:40298   */\n      dup3\n        /* \"#utility.yul\":40288:40289   */\n      dup2\n        /* \"#utility.yul\":40285:40299   */\n      lt\n        /* \"#utility.yul\":40277:40485   */\n      iszero\n      tag_791\n      jumpi\n        /* \"#utility.yul\":40370:40379   */\n      dup5\n        /* \"#utility.yul\":40365:40368   */\n      dup10\n        /* \"#utility.yul\":40361:40380   */\n      add\n        /* \"#utility.yul\":40355:40381   */\n      mload\n        /* \"#utility.yul\":40347:40353   */\n      dup3\n        /* \"#utility.yul\":40340:40382   */\n      sstore\n        /* \"#utility.yul\":40421:40422   */\n      0x01\n        /* \"#utility.yul\":40413:40419   */\n      dup3\n        /* \"#utility.yul\":40409:40423   */\n      add\n        /* \"#utility.yul\":40399:40423   */\n      swap2\n      pop\n        /* \"#utility.yul\":40468:40470   */\n      0x20\n        /* \"#utility.yul\":40457:40466   */\n      dup6\n        /* \"#utility.yul\":40453:40471   */\n      add\n        /* \"#utility.yul\":40440:40471   */\n      swap5\n      pop\n        /* \"#utility.yul\":40314:40318   */\n      0x20\n        /* \"#utility.yul\":40311:40312   */\n      dup2\n        /* \"#utility.yul\":40307:40319   */\n      add\n        /* \"#utility.yul\":40302:40319   */\n      swap1\n      pop\n        /* \"#utility.yul\":40277:40485   */\n      jump(tag_789)\n    tag_791:\n        /* \"#utility.yul\":40513:40519   */\n      dup7\n        /* \"#utility.yul\":40504:40511   */\n      dup4\n        /* \"#utility.yul\":40501:40520   */\n      lt\n        /* \"#utility.yul\":40498:40677   */\n      iszero\n      tag_792\n      jumpi\n        /* \"#utility.yul\":40571:40580   */\n      dup5\n        /* \"#utility.yul\":40566:40569   */\n      dup10\n        /* \"#utility.yul\":40562:40581   */\n      add\n        /* \"#utility.yul\":40556:40582   */\n      mload\n        /* \"#utility.yul\":40614:40662   */\n      tag_793\n        /* \"#utility.yul\":40656:40660   */\n      0x1f\n        /* \"#utility.yul\":40648:40654   */\n      dup10\n        /* \"#utility.yul\":40644:40661   */\n      and\n        /* \"#utility.yul\":40633:40642   */\n      dup3\n        /* \"#utility.yul\":40614:40662   */\n      tag_368\n      jump\t// in\n    tag_793:\n        /* \"#utility.yul\":40606:40612   */\n      dup4\n        /* \"#utility.yul\":40599:40663   */\n      sstore\n        /* \"#utility.yul\":40521:40677   */\n      pop\n        /* \"#utility.yul\":40498:40677   */\n    tag_792:\n        /* \"#utility.yul\":40723:40724   */\n      0x01\n        /* \"#utility.yul\":40719:40720   */\n      0x02\n        /* \"#utility.yul\":40711:40717   */\n      dup9\n        /* \"#utility.yul\":40707:40721   */\n      mul\n        /* \"#utility.yul\":40703:40725   */\n      add\n        /* \"#utility.yul\":40697:40701   */\n      dup9\n        /* \"#utility.yul\":40690:40726   */\n      sstore\n        /* \"#utility.yul\":40126:40736   */\n      pop\n      pop\n      pop\n        /* \"#utility.yul\":40089:40975   */\n    tag_784:\n      pop\n        /* \"#utility.yul\":39681:40981   */\n      pop\n      pop\n      pop\n        /* \"#utility.yul\":39591:40981   */\n      pop\n      pop\n      jump\t// out\n\n    auxdata: 0xa26469706673582212204d396db7886f5d4db9dcc801a73eaa115eca77d4d8b1add12f98c23effdc024864736f6c63430008120033\n}\n",
				"bytecode": {
					"linkReferences": {},
					"object": "60806040526000600460146101000a81548160ff0219169083151502179055503480156200002c57600080fd5b5060405162002aaf38038062002aaf8339818101604052810190620000529190620001cf565b33600260006101000a81548173ffffffffffffffffffffffffffffffffffffffff021916908373ffffffffffffffffffffffffffffffffffffffff160217905550826000806101000a81548173ffffffffffffffffffffffffffffffffffffffff021916908373ffffffffffffffffffffffffffffffffffffffff16021790555080600160006101000a81548173ffffffffffffffffffffffffffffffffffffffff021916908373ffffffffffffffffffffffffffffffffffffffff16021790555081600460006101000a81548173ffffffffffffffffffffffffffffffffffffffff021916908373ffffffffffffffffffffffffffffffffffffffff160217905550426003819055505050506200022b565b600080fd5b600073ffffffffffffffffffffffffffffffffffffffff82169050919050565b600062000197826200016a565b9050919050565b620001a9816200018a565b8114620001b557600080fd5b50565b600081519050620001c9816200019e565b92915050565b600080600060608486031215620001eb57620001ea62000165565b5b6000620001fb86828701620001b8565b93505060206200020e86828701620001b8565b92505060406200022186828701620001b8565b9150509250925092565b612874806200023b6000396000f3fe608060405234801561001057600080fd5b50600436106100ea5760003560e01c80638da5cb5b1161008c578063c385a25b11610066578063c385a25b14610273578063cb15930d146102a4578063d305843c146102d4578063d88a480414610304576100ea565b80638da5cb5b146102075780639b9413d514610225578063c29d72bc14610255576100ea565b80636b2a95c9116100c85780636b2a95c91461016d57806377f08cd61461019d57806379aecd79146101b95780637d6b1b2a146101eb576100ea565b8063165402f0146100ef578063312c58661461011f5780634fe815cd1461013d575b600080fd5b61010960048036038101906101049190611354565b610322565b604051610116919061139a565b60405180910390f35b61012761036b565b604051610134919061139a565b60405180910390f35b610157600480360381019061015291906114fb565b610371565b604051610164919061139a565b60405180910390f35b610187600480360381019061018291906115b7565b61039f565b60405161019491906117cc565b60405180910390f35b6101b760048036038101906101b29190611354565b6104dd565b005b6101d360048036038101906101ce919061181a565b6105b1565b6040516101e293929190611865565b60405180910390f35b6102056004803603810190610200919061193a565b6107a4565b005b61020f610bbb565b60405161021c91906119a5565b60405180910390f35b61023f600480360381019061023a9190611354565b610be1565b60405161024c919061139a565b60405180910390f35b61025d610bf9565b60405161026a91906117cc565b60405180910390f35b61028d60048036038101906102889190611a61565b610c3b565b60405161029b929190611b81565b60405180910390f35b6102be60048036038101906102b99190611bb1565b610efc565b6040516102cb9190611c4f565b60405180910390f35b6102ee60048036038101906102e991906114fb565b610fb2565b6040516102fb919061139a565b60405180910390f35b61030c611083565b6040516103199190611cd4565b60405180910390f35b6000600560008373ffffffffffffffffffffffffffffffffffffffff1673ffffffffffffffffffffffffffffffffffffffff168152602001908152602001600020549050919050565b61708081565b6007818051602081018201805184825260208301602085012081835280955050505050506000915090505481565b606060008484846040516020016103b893929190611865565b604051602081830303815290604052905060006006826040516103db9190611d32565b908152602001604051809103902080546103f490611d78565b80601f016020809104026020016040519081016040528092919081815260200182805461042090611d78565b801561046d5780601f106104425761010080835404028352916020019161046d565b820191906000526020600020905b81548152906001019060200180831161045057829003601f168201915b5050505050905060008151116104b8576040517f08c379a00000000000000000000000000000000000000000000000000000000081526004016104af90611e1b565b60405180910390fd5b6000818060200190518101906104ce919061204f565b90508093505050509392505050565b600260009054906101000a900473ffffffffffffffffffffffffffffffffffffffff1673ffffffffffffffffffffffffffffffffffffffff163373ffffffffffffffffffffffffffffffffffffffff161461056d576040517f08c379a00000000000000000000000000000000000000000000000000000000081526004016105649061210a565b60405180910390fd5b80600460006101000a81548173ffffffffffffffffffffffffffffffffffffffff021916908373ffffffffffffffffffffffffffffffffffffffff16021790555050565b60008060008060008054906101000a900473ffffffffffffffffffffffffffffffffffffffff1673ffffffffffffffffffffffffffffffffffffffff166392d66313866040518263ffffffff1660e01b8152600401610610919061139a565b602060405180830381865afa15801561062d573d6000803e3d6000fd5b505050506040513d601f19601f82011682018060405250810190610651919061213f565b905060008060009054906101000a900473ffffffffffffffffffffffffffffffffffffffff1673ffffffffffffffffffffffffffffffffffffffff1663a324ad24876040518263ffffffff1660e01b81526004016106af919061139a565b602060405180830381865afa1580156106cc573d6000803e3d6000fd5b505050506040513d601f19601f820116820180604052508101906106f09190612181565b905060008060009054906101000a900473ffffffffffffffffffffffffffffffffffffffff1673ffffffffffffffffffffffffffffffffffffffff166365c72840886040518263ffffffff1660e01b815260040161074e919061139a565b602060405180830381865afa15801561076b573d6000803e3d6000fd5b505050506040513d601f19601f8201168201806040525081019061078f9190612181565b90508282829550955095505050509193909250565b816040015160056000846000015173ffffffffffffffffffffffffffffffffffffffff1673ffffffffffffffffffffffffffffffffffffffff16815260200190815260200160002054101561084057816040015160056000846000015173ffffffffffffffffffffffffffffffffffffffff1673ffffffffffffffffffffffffffffffffffffffff168152602001908152602001600020819055505b600080600061084e846105b1565b925092509250600083838360405160200161086b93929190611865565b6040516020818303038152906040529050600060068260405161088e9190611d32565b908152602001604051809103902080546108a790611d78565b80601f01602080910402602001604051908101604052809291908181526020018280546108d390611d78565b80156109205780601f106108f557610100808354040283529160200191610920565b820191906000526020600020905b81548152906001019060200180831161090357829003601f168201915b505050505090506060600082511115610a0157600082806020019051810190610949919061204f565b9050805167ffffffffffffffff811115610966576109656113d0565b5b60405190808252806020026020018201604052801561099f57816020015b61098c6112a4565b8152602001906001900390816109845790505b50915060005b81518110156109fa578181815181106109c1576109c06121ae565b5b60200260200101518382815181106109dc576109db6121ae565b5b602002602001018190525080806109f29061220c565b9150506109a5565b5050610a59565b600067ffffffffffffffff811115610a1c57610a1b6113d0565b5b604051908082528060200260200182016040528015610a5557816020015b610a426112a4565b815260200190600190039081610a3a5790505b5090505b600081519050600a811015610b4c576000600182610a779190612254565b67ffffffffffffffff811115610a9057610a8f6113d0565b5b604051908082528060200260200182016040528015610ac957816020015b610ab66112a4565b815260200190600190039081610aae5790505b50905060005b82811015610b2357838181518110610aea57610ae96121ae565b5b6020026020010151828281518110610b0557610b046121ae565b5b60200260200101819052508080610b1b9061220c565b915050610acf565b5089818381518110610b3857610b376121ae565b5b602002602001018190525080925050610b99565b886040015182600081518110610b6557610b646121ae565b5b6020026020010151604001511015610b98578882600081518110610b8c57610b8b6121ae565b5b60200260200101819052505b5b610ba2826110d1565b9150610bb087878785611224565b505050505050505050565b600260009054906101000a900473ffffffffffffffffffffffffffffffffffffffff1681565b60056020528060005260406000206000915090505481565b6060600061708042610c0b9190612254565b90506000806000610c1b846105b1565b9250925092506000610c2e84848461039f565b9050809550505050505090565b6060600080600460009054906101000a900473ffffffffffffffffffffffffffffffffffffffff16905060008173ffffffffffffffffffffffffffffffffffffffff1663a32cc87c876040518263ffffffff1660e01b8152600401610ca09190611c4f565b6020604051808303816000875af1158015610cbf573d6000803e3d6000fd5b505050506040513d601f19601f82011682018060405250810190610ce39190612288565b905060008273ffffffffffffffffffffffffffffffffffffffff16632fdf8a9f836040518263ffffffff1660e01b8152600401610d2091906119a5565b600060405180830381865afa158015610d3d573d6000803e3d6000fd5b505050506040513d6000823e3d601f19601f82011682018060405250810190610d669190612325565b90506000339050600082610d79906123aa565b60001c9050600061708042610d8e9190612254565b9050600060405180608001604052808573ffffffffffffffffffffffffffffffffffffffff1681526020018e81526020018d81526020018381525090506000838d03610e725760019050610de282846107a4565b600160009054906101000a900473ffffffffffffffffffffffffffffffffffffffff1673ffffffffffffffffffffffffffffffffffffffff1663d204c45e868d6040518363ffffffff1660e01b8152600401610e3f929190612411565b600060405180830381600087803b158015610e5957600080fd5b505af1158015610e6d573d6000803e3d6000fd5b505050505b60078e604051610e82919061247d565b9081526020016040518091039020600090558d604051610ea2919061247d565b60405180910390207f931c8cef035152fbaacfbc94c740515643c820cb2ac59133d5abb5b059435f24828f87604051610edd93929190612494565b60405180910390a28d8199509950505050505050505094509492505050565b6006818051602081018201805184825260208301602085012081835280955050505050506000915090508054610f3190611d78565b80601f0160208091040260200160405190810160405280929190818152602001828054610f5d90611d78565b8015610faa5780601f10610f7f57610100808354040283529160200191610faa565b820191906000526020600020905b815481529060010190602001808311610f8d57829003601f168201915b505050505081565b6000600354600143610fc491906124cb565b40604051602001610fd6929190612541565b6040516020818303038152906040528051906020012060001c6003819055506000620f4240600354611008919061259c565b90508060078460405161101b919061247d565b9081526020016040518091039020819055508260405161103b919061247d565b60405180910390207ff00a9035d77900613cfbb31eb5d4a8a927ff33a676b51dfc02d529e062c5e94582604051611072919061139a565b60405180910390a280915050919050565b61108b6112a4565b6000611095610bf9565b90506000815190506000826001836110ad91906124cb565b815181106110be576110bd6121ae565b5b6020026020010151905080935050505090565b606060008251905060005b6001826110e991906124cb565b81101561121a5760005b6001828461110191906124cb565b61110b91906124cb565b81101561120657846001826111209190612254565b81518110611131576111306121ae565b5b6020026020010151604001518582815181106111505761114f6121ae565b5b60200260200101516040015111156111f3576000858281518110611177576111766121ae565b5b602002602001015190508560018361118f9190612254565b815181106111a05761119f6121ae565b5b60200260200101518683815181106111bb576111ba6121ae565b5b602002602001018190525080866001846111d59190612254565b815181106111e6576111e56121ae565b5b6020026020010181905250505b80806111fe9061220c565b9150506110f3565b5080806112129061220c565b9150506110dc565b5082915050919050565b600084848460405160200161123b93929190611865565b604051602081830303815290604052905060008260405160200161125f91906117cc565b6040516020818303038152906040529050806006836040516112819190611d32565b9081526020016040518091039020908161129b919061276c565b50505050505050565b6040518060800160405280600073ffffffffffffffffffffffffffffffffffffffff1681526020016060815260200160008152602001600081525090565b6000604051905090565b600080fd5b600080fd5b600073ffffffffffffffffffffffffffffffffffffffff82169050919050565b6000611321826112f6565b9050919050565b61133181611316565b811461133c57600080fd5b50565b60008135905061134e81611328565b92915050565b60006020828403121561136a576113696112ec565b5b60006113788482850161133f565b91505092915050565b6000819050919050565b61139481611381565b82525050565b60006020820190506113af600083018461138b565b92915050565b600080fd5b600080fd5b6000601f19601f8301169050919050565b7f4e487b7100000000000000000000000000000000000000000000000000000000600052604160045260246000fd5b611408826113bf565b810181811067ffffffffffffffff82111715611427576114266113d0565b5b80604052505050565b600061143a6112e2565b905061144682826113ff565b919050565b600067ffffffffffffffff821115611466576114656113d0565b5b61146f826113bf565b9050602081019050919050565b82818337600083830152505050565b600061149e6114998461144b565b611430565b9050828152602081018484840111156114ba576114b96113ba565b5b6114c584828561147c565b509392505050565b600082601f8301126114e2576114e16113b5565b5b81356114f284826020860161148b565b91505092915050565b600060208284031215611511576115106112ec565b5b600082013567ffffffffffffffff81111561152f5761152e6112f1565b5b61153b848285016114cd565b91505092915050565b600061ffff82169050919050565b61155b81611544565b811461156657600080fd5b50565b60008135905061157881611552565b92915050565b600060ff82169050919050565b6115948161157e565b811461159f57600080fd5b50565b6000813590506115b18161158b565b92915050565b6000806000606084860312156115d0576115cf6112ec565b5b60006115de86828701611569565b93505060206115ef868287016115a2565b9250506040611600868287016115a2565b9150509250925092565b600081519050919050565b600082825260208201905092915050565b6000819050602082019050919050565b61163f81611316565b82525050565b600081519050919050565b600082825260208201905092915050565b60005b8381101561167f578082015181840152602081019050611664565b60008484015250505050565b600061169682611645565b6116a08185611650565b93506116b0818560208601611661565b6116b9816113bf565b840191505092915050565b6116cd81611381565b82525050565b60006080830160008301516116eb6000860182611636565b5060208301518482036020860152611703828261168b565b915050604083015161171860408601826116c4565b50606083015161172b60608601826116c4565b508091505092915050565b600061174283836116d3565b905092915050565b6000602082019050919050565b60006117628261160a565b61176c8185611615565b93508360208202850161177e85611626565b8060005b858110156117ba578484038952815161179b8582611736565b94506117a68361174a565b925060208a01995050600181019050611782565b50829750879550505050505092915050565b600060208201905081810360008301526117e68184611757565b905092915050565b6117f781611381565b811461180257600080fd5b50565b600081359050611814816117ee565b92915050565b6000602082840312156118305761182f6112ec565b5b600061183e84828501611805565b91505092915050565b61185081611544565b82525050565b61185f8161157e565b82525050565b600060608201905061187a6000830186611847565b6118876020830185611856565b6118946040830184611856565b949350505050565b600080fd5b600080fd5b6000608082840312156118bc576118bb61189c565b5b6118c66080611430565b905060006118d68482850161133f565b600083015250602082013567ffffffffffffffff8111156118fa576118f96118a1565b5b611906848285016114cd565b602083015250604061191a84828501611805565b604083015250606061192e84828501611805565b60608301525092915050565b60008060408385031215611951576119506112ec565b5b600083013567ffffffffffffffff81111561196f5761196e6112f1565b5b61197b858286016118a6565b925050602061198c85828601611805565b9150509250929050565b61199f81611316565b82525050565b60006020820190506119ba6000830184611996565b92915050565b600067ffffffffffffffff8211156119db576119da6113d0565b5b6119e4826113bf565b9050602081019050919050565b6000611a046119ff846119c0565b611430565b905082815260208101848484011115611a2057611a1f6113ba565b5b611a2b84828561147c565b509392505050565b600082601f830112611a4857611a476113b5565b5b8135611a588482602086016119f1565b91505092915050565b60008060008060808587031215611a7b57611a7a6112ec565b5b600085013567ffffffffffffffff811115611a9957611a986112f1565b5b611aa5878288016114cd565b9450506020611ab687828801611805565b935050604085013567ffffffffffffffff811115611ad757611ad66112f1565b5b611ae387828801611a33565b925050606085013567ffffffffffffffff811115611b0457611b036112f1565b5b611b10878288016114cd565b91505092959194509250565b600082825260208201905092915050565b6000611b3882611645565b611b428185611b1c565b9350611b52818560208601611661565b611b5b816113bf565b840191505092915050565b60008115159050919050565b611b7b81611b66565b82525050565b60006040820190508181036000830152611b9b8185611b2d565b9050611baa6020830184611b72565b9392505050565b600060208284031215611bc757611bc66112ec565b5b600082013567ffffffffffffffff811115611be557611be46112f1565b5b611bf184828501611a33565b91505092915050565b600081519050919050565b600082825260208201905092915050565b6000611c2182611bfa565b611c2b8185611c05565b9350611c3b818560208601611661565b611c44816113bf565b840191505092915050565b60006020820190508181036000830152611c698184611c16565b905092915050565b6000608083016000830151611c896000860182611636565b5060208301518482036020860152611ca1828261168b565b9150506040830151611cb660408601826116c4565b506060830151611cc960608601826116c4565b508091505092915050565b60006020820190508181036000830152611cee8184611c71565b905092915050565b600081905092915050565b6000611d0c82611bfa565b611d168185611cf6565b9350611d26818560208601611661565b80840191505092915050565b6000611d3e8284611d01565b915081905092915050565b7f4e487b7100000000000000000000000000000000000000000000000000000000600052602260045260246000fd5b60006002820490506001821680611d9057607f821691505b602082108103611da357611da2611d49565b5b50919050565b7f4c6561646572626f617264206e6f7420666f756e6420666f722074686520737060008201527f6563696669656420646174650000000000000000000000000000000000000000602082015250565b6000611e05602c83611b1c565b9150611e1082611da9565b604082019050919050565b60006020820190508181036000830152611e3481611df8565b9050919050565b600067ffffffffffffffff821115611e5657611e556113d0565b5b602082029050602081019050919050565b600080fd5b600081519050611e7b81611328565b92915050565b6000611e94611e8f8461144b565b611430565b905082815260208101848484011115611eb057611eaf6113ba565b5b611ebb848285611661565b509392505050565b600082601f830112611ed857611ed76113b5565b5b8151611ee8848260208601611e81565b91505092915050565b600081519050611f00816117ee565b92915050565b600060808284031215611f1c57611f1b61189c565b5b611f266080611430565b90506000611f3684828501611e6c565b600083015250602082015167ffffffffffffffff811115611f5a57611f596118a1565b5b611f6684828501611ec3565b6020830152506040611f7a84828501611ef1565b6040830152506060611f8e84828501611ef1565b60608301525092915050565b6000611fad611fa884611e3b565b611430565b90508083825260208201905060208402830185811115611fd057611fcf611e67565b5b835b8181101561201757805167ffffffffffffffff811115611ff557611ff46113b5565b5b8086016120028982611f06565b85526020850194505050602081019050611fd2565b5050509392505050565b600082601f830112612036576120356113b5565b5b8151612046848260208601611f9a565b91505092915050565b600060208284031215612065576120646112ec565b5b600082015167ffffffffffffffff811115612083576120826112f1565b5b61208f84828501612021565b91505092915050565b7f4f6e6c792074686520636f6e7472616374206f776e65722063616e2063616c6c60008201527f20746869732066756e6374696f6e2e0000000000000000000000000000000000602082015250565b60006120f4602f83611b1c565b91506120ff82612098565b604082019050919050565b60006020820190508181036000830152612123816120e7565b9050919050565b60008151905061213981611552565b92915050565b600060208284031215612155576121546112ec565b5b60006121638482850161212a565b91505092915050565b60008151905061217b8161158b565b92915050565b600060208284031215612197576121966112ec565b5b60006121a58482850161216c565b91505092915050565b7f4e487b7100000000000000000000000000000000000000000000000000000000600052603260045260246000fd5b7f4e487b7100000000000000000000000000000000000000000000000000000000600052601160045260246000fd5b600061221782611381565b91507fffffffffffffffffffffffffffffffffffffffffffffffffffffffffffffffff8203612249576122486121dd565b5b600182019050919050565b600061225f82611381565b915061226a83611381565b9250828201905080821115612282576122816121dd565b5b92915050565b60006020828403121561229e5761229d6112ec565b5b60006122ac84828501611e6c565b91505092915050565b60006122c86122c3846119c0565b611430565b9050828152602081018484840111156122e4576122e36113ba565b5b6122ef848285611661565b509392505050565b600082601f83011261230c5761230b6113b5565b5b815161231c8482602086016122b5565b91505092915050565b60006020828403121561233b5761233a6112ec565b5b600082015167ffffffffffffffff811115612359576123586112f1565b5b612365848285016122f7565b91505092915050565b6000819050602082019050919050565b6000819050919050565b6000612394825161237e565b80915050919050565b600082821b905092915050565b60006123b582611bfa565b826123bf8461236e565b90506123ca81612388565b9250602082101561240a576124057fffffffffffffffffffffffffffffffffffffffffffffffffffffffffffffffff8360200360080261239d565b831692505b5050919050565b60006040820190506124266000830185611996565b81810360208301526124388184611b2d565b90509392505050565b600081905092915050565b600061245782611645565b6124618185612441565b9350612471818560208601611661565b80840191505092915050565b6000612489828461244c565b915081905092915050565b60006060820190506124a96000830186611b72565b6124b6602083018561138b565b6124c3604083018461138b565b949350505050565b60006124d682611381565b91506124e183611381565b92508282039050818111156124f9576124f86121dd565b5b92915050565b6000819050919050565b61251a61251582611381565b6124ff565b82525050565b6000819050919050565b61253b6125368261237e565b612520565b82525050565b600061254d8285612509565b60208201915061255d828461252a565b6020820191508190509392505050565b7f4e487b7100000000000000000000000000000000000000000000000000000000600052601260045260246000fd5b60006125a782611381565b91506125b283611381565b9250826125c2576125c161256d565b5b828206905092915050565b60008190508160005260206000209050919050565b60006020601f8301049050919050565b6000600883026126227fffffffffffffffffffffffffffffffffffffffffffffffffffffffffffffffff8261239d565b61262c868361239d565b95508019841693508086168417925050509392505050565b6000819050919050565b600061266961266461265f84611381565b612644565b611381565b9050919050565b6000819050919050565b6126838361264e565b61269761268f82612670565b8484546125f2565b825550505050565b600090565b6126ac61269f565b6126b781848461267a565b505050565b5b818110156126db576126d06000826126a4565b6001810190506126bd565b5050565b601f821115612720576126f1816125cd565b6126fa846125e2565b81016020851015612709578190505b61271d612715856125e2565b8301826126bc565b50505b505050565b600082821c905092915050565b600061274360001984600802612725565b1980831691505092915050565b600061275c8383612732565b9150826002028217905092915050565b61277582611bfa565b67ffffffffffffffff81111561278e5761278d6113d0565b5b6127988254611d78565b6127a38282856126df565b600060209050601f8311600181146127d657600084156127c4578287015190505b6127ce8582612750565b865550612836565b601f1984166127e4866125cd565b60005b8281101561280c578489015182556001820191506020850194506020810190506127e7565b868310156128295784890151612825601f891682612732565b8355505b6001600288020188555050505b50505050505056fea26469706673582212204d396db7886f5d4db9dcc801a73eaa115eca77d4d8b1add12f98c23effdc024864736f6c63430008120033",
					"opcodes": "PUSH1 0x80 PUSH1 0x40 MSTORE PUSH1 0x0 PUSH1 0x4 PUSH1 0x14 PUSH2 0x100 EXP DUP2 SLOAD DUP2 PUSH1 0xFF MUL NOT AND SWAP1 DUP4 ISZERO ISZERO MUL OR SWAP1 SSTORE POP CALLVALUE DUP1 ISZERO PUSH3 0x2C JUMPI PUSH1 0x0 DUP1 REVERT JUMPDEST POP PUSH1 0x40 MLOAD PUSH3 0x2AAF CODESIZE SUB DUP1 PUSH3 0x2AAF DUP4 CODECOPY DUP2 DUP2 ADD PUSH1 0x40 MSTORE DUP2 ADD SWAP1 PUSH3 0x52 SWAP2 SWAP1 PUSH3 0x1CF JUMP JUMPDEST CALLER PUSH1 0x2 PUSH1 0x0 PUSH2 0x100 EXP DUP2 SLOAD DUP2 PUSH20 0xFFFFFFFFFFFFFFFFFFFFFFFFFFFFFFFFFFFFFFFF MUL NOT AND SWAP1 DUP4 PUSH20 0xFFFFFFFFFFFFFFFFFFFFFFFFFFFFFFFFFFFFFFFF AND MUL OR SWAP1 SSTORE POP DUP3 PUSH1 0x0 DUP1 PUSH2 0x100 EXP DUP2 SLOAD DUP2 PUSH20 0xFFFFFFFFFFFFFFFFFFFFFFFFFFFFFFFFFFFFFFFF MUL NOT AND SWAP1 DUP4 PUSH20 0xFFFFFFFFFFFFFFFFFFFFFFFFFFFFFFFFFFFFFFFF AND MUL OR SWAP1 SSTORE POP DUP1 PUSH1 0x1 PUSH1 0x0 PUSH2 0x100 EXP DUP2 SLOAD DUP2 PUSH20 0xFFFFFFFFFFFFFFFFFFFFFFFFFFFFFFFFFFFFFFFF MUL NOT AND SWAP1 DUP4 PUSH20 0xFFFFFFFFFFFFFFFFFFFFFFFFFFFFFFFFFFFFFFFF AND MUL OR SWAP1 SSTORE POP DUP2 PUSH1 0x4 PUSH1 0x0 PUSH2 0x100 EXP DUP2 SLOAD DUP2 PUSH20 0xFFFFFFFFFFFFFFFFFFFFFFFFFFFFFFFFFFFFFFFF MUL NOT AND SWAP1 DUP4 PUSH20 0xFFFFFFFFFFFFFFFFFFFFFFFFFFFFFFFFFFFFFFFF AND MUL OR SWAP1 SSTORE POP TIMESTAMP PUSH1 0x3 DUP2 SWAP1 SSTORE POP POP POP POP PUSH3 0x22B JUMP JUMPDEST PUSH1 0x0 DUP1 REVERT JUMPDEST PUSH1 0x0 PUSH20 0xFFFFFFFFFFFFFFFFFFFFFFFFFFFFFFFFFFFFFFFF DUP3 AND SWAP1 POP SWAP2 SWAP1 POP JUMP JUMPDEST PUSH1 0x0 PUSH3 0x197 DUP3 PUSH3 0x16A JUMP JUMPDEST SWAP1 POP SWAP2 SWAP1 POP JUMP JUMPDEST PUSH3 0x1A9 DUP2 PUSH3 0x18A JUMP JUMPDEST DUP2 EQ PUSH3 0x1B5 JUMPI PUSH1 0x0 DUP1 REVERT JUMPDEST POP JUMP JUMPDEST PUSH1 0x0 DUP2 MLOAD SWAP1 POP PUSH3 0x1C9 DUP2 PUSH3 0x19E JUMP JUMPDEST SWAP3 SWAP2 POP POP JUMP JUMPDEST PUSH1 0x0 DUP1 PUSH1 0x0 PUSH1 0x60 DUP5 DUP7 SUB SLT ISZERO PUSH3 0x1EB JUMPI PUSH3 0x1EA PUSH3 0x165 JUMP JUMPDEST JUMPDEST PUSH1 0x0 PUSH3 0x1FB DUP7 DUP3 DUP8 ADD PUSH3 0x1B8 JUMP JUMPDEST SWAP4 POP POP PUSH1 0x20 PUSH3 0x20E DUP7 DUP3 DUP8 ADD PUSH3 0x1B8 JUMP JUMPDEST SWAP3 POP POP PUSH1 0x40 PUSH3 0x221 DUP7 DUP3 DUP8 ADD PUSH3 0x1B8 JUMP JUMPDEST SWAP2 POP POP SWAP3 POP SWAP3 POP SWAP3 JUMP JUMPDEST PUSH2 0x2874 DUP1 PUSH3 0x23B PUSH1 0x0 CODECOPY PUSH1 0x0 RETURN INVALID PUSH1 0x80 PUSH1 0x40 MSTORE CALLVALUE DUP1 ISZERO PUSH2 0x10 JUMPI PUSH1 0x0 DUP1 REVERT JUMPDEST POP PUSH1 0x4 CALLDATASIZE LT PUSH2 0xEA JUMPI PUSH1 0x0 CALLDATALOAD PUSH1 0xE0 SHR DUP1 PUSH4 0x8DA5CB5B GT PUSH2 0x8C JUMPI DUP1 PUSH4 0xC385A25B GT PUSH2 0x66 JUMPI DUP1 PUSH4 0xC385A25B EQ PUSH2 0x273 JUMPI DUP1 PUSH4 0xCB15930D EQ PUSH2 0x2A4 JUMPI DUP1 PUSH4 0xD305843C EQ PUSH2 0x2D4 JUMPI DUP1 PUSH4 0xD88A4804 EQ PUSH2 0x304 JUMPI PUSH2 0xEA JUMP JUMPDEST DUP1 PUSH4 0x8DA5CB5B EQ PUSH2 0x207 JUMPI DUP1 PUSH4 0x9B9413D5 EQ PUSH2 0x225 JUMPI DUP1 PUSH4 0xC29D72BC EQ PUSH2 0x255 JUMPI PUSH2 0xEA JUMP JUMPDEST DUP1 PUSH4 0x6B2A95C9 GT PUSH2 0xC8 JUMPI DUP1 PUSH4 0x6B2A95C9 EQ PUSH2 0x16D JUMPI DUP1 PUSH4 0x77F08CD6 EQ PUSH2 0x19D JUMPI DUP1 PUSH4 0x79AECD79 EQ PUSH2 0x1B9 JUMPI DUP1 PUSH4 0x7D6B1B2A EQ PUSH2 0x1EB JUMPI PUSH2 0xEA JUMP JUMPDEST DUP1 PUSH4 0x165402F0 EQ PUSH2 0xEF JUMPI DUP1 PUSH4 0x312C5866 EQ PUSH2 0x11F JUMPI DUP1 PUSH4 0x4FE815CD EQ PUSH2 0x13D JUMPI JUMPDEST PUSH1 0x0 DUP1 REVERT JUMPDEST PUSH2 0x109 PUSH1 0x4 DUP1 CALLDATASIZE SUB DUP2 ADD SWAP1 PUSH2 0x104 SWAP2 SWAP1 PUSH2 0x1354 JUMP JUMPDEST PUSH2 0x322 JUMP JUMPDEST PUSH1 0x40 MLOAD PUSH2 0x116 SWAP2 SWAP1 PUSH2 0x139A JUMP JUMPDEST PUSH1 0x40 MLOAD DUP1 SWAP2 SUB SWAP1 RETURN JUMPDEST PUSH2 0x127 PUSH2 0x36B JUMP JUMPDEST PUSH1 0x40 MLOAD PUSH2 0x134 SWAP2 SWAP1 PUSH2 0x139A JUMP JUMPDEST PUSH1 0x40 MLOAD DUP1 SWAP2 SUB SWAP1 RETURN JUMPDEST PUSH2 0x157 PUSH1 0x4 DUP1 CALLDATASIZE SUB DUP2 ADD SWAP1 PUSH2 0x152 SWAP2 SWAP1 PUSH2 0x14FB JUMP JUMPDEST PUSH2 0x371 JUMP JUMPDEST PUSH1 0x40 MLOAD PUSH2 0x164 SWAP2 SWAP1 PUSH2 0x139A JUMP JUMPDEST PUSH1 0x40 MLOAD DUP1 SWAP2 SUB SWAP1 RETURN JUMPDEST PUSH2 0x187 PUSH1 0x4 DUP1 CALLDATASIZE SUB DUP2 ADD SWAP1 PUSH2 0x182 SWAP2 SWAP1 PUSH2 0x15B7 JUMP JUMPDEST PUSH2 0x39F JUMP JUMPDEST PUSH1 0x40 MLOAD PUSH2 0x194 SWAP2 SWAP1 PUSH2 0x17CC JUMP JUMPDEST PUSH1 0x40 MLOAD DUP1 SWAP2 SUB SWAP1 RETURN JUMPDEST PUSH2 0x1B7 PUSH1 0x4 DUP1 CALLDATASIZE SUB DUP2 ADD SWAP1 PUSH2 0x1B2 SWAP2 SWAP1 PUSH2 0x1354 JUMP JUMPDEST PUSH2 0x4DD JUMP JUMPDEST STOP JUMPDEST PUSH2 0x1D3 PUSH1 0x4 DUP1 CALLDATASIZE SUB DUP2 ADD SWAP1 PUSH2 0x1CE SWAP2 SWAP1 PUSH2 0x181A JUMP JUMPDEST PUSH2 0x5B1 JUMP JUMPDEST PUSH1 0x40 MLOAD PUSH2 0x1E2 SWAP4 SWAP3 SWAP2 SWAP1 PUSH2 0x1865 JUMP JUMPDEST PUSH1 0x40 MLOAD DUP1 SWAP2 SUB SWAP1 RETURN JUMPDEST PUSH2 0x205 PUSH1 0x4 DUP1 CALLDATASIZE SUB DUP2 ADD SWAP1 PUSH2 0x200 SWAP2 SWAP1 PUSH2 0x193A JUMP JUMPDEST PUSH2 0x7A4 JUMP JUMPDEST STOP JUMPDEST PUSH2 0x20F PUSH2 0xBBB JUMP JUMPDEST PUSH1 0x40 MLOAD PUSH2 0x21C SWAP2 SWAP1 PUSH2 0x19A5 JUMP JUMPDEST PUSH1 0x40 MLOAD DUP1 SWAP2 SUB SWAP1 RETURN JUMPDEST PUSH2 0x23F PUSH1 0x4 DUP1 CALLDATASIZE SUB DUP2 ADD SWAP1 PUSH2 0x23A SWAP2 SWAP1 PUSH2 0x1354 JUMP JUMPDEST PUSH2 0xBE1 JUMP JUMPDEST PUSH1 0x40 MLOAD PUSH2 0x24C SWAP2 SWAP1 PUSH2 0x139A JUMP JUMPDEST PUSH1 0x40 MLOAD DUP1 SWAP2 SUB SWAP1 RETURN JUMPDEST PUSH2 0x25D PUSH2 0xBF9 JUMP JUMPDEST PUSH1 0x40 MLOAD PUSH2 0x26A SWAP2 SWAP1 PUSH2 0x17CC JUMP JUMPDEST PUSH1 0x40 MLOAD DUP1 SWAP2 SUB SWAP1 RETURN JUMPDEST PUSH2 0x28D PUSH1 0x4 DUP1 CALLDATASIZE SUB DUP2 ADD SWAP1 PUSH2 0x288 SWAP2 SWAP1 PUSH2 0x1A61 JUMP JUMPDEST PUSH2 0xC3B JUMP JUMPDEST PUSH1 0x40 MLOAD PUSH2 0x29B SWAP3 SWAP2 SWAP1 PUSH2 0x1B81 JUMP JUMPDEST PUSH1 0x40 MLOAD DUP1 SWAP2 SUB SWAP1 RETURN JUMPDEST PUSH2 0x2BE PUSH1 0x4 DUP1 CALLDATASIZE SUB DUP2 ADD SWAP1 PUSH2 0x2B9 SWAP2 SWAP1 PUSH2 0x1BB1 JUMP JUMPDEST PUSH2 0xEFC JUMP JUMPDEST PUSH1 0x40 MLOAD PUSH2 0x2CB SWAP2 SWAP1 PUSH2 0x1C4F JUMP JUMPDEST PUSH1 0x40 MLOAD DUP1 SWAP2 SUB SWAP1 RETURN JUMPDEST PUSH2 0x2EE PUSH1 0x4 DUP1 CALLDATASIZE SUB DUP2 ADD SWAP1 PUSH2 0x2E9 SWAP2 SWAP1 PUSH2 0x14FB JUMP JUMPDEST PUSH2 0xFB2 JUMP JUMPDEST PUSH1 0x40 MLOAD PUSH2 0x2FB SWAP2 SWAP1 PUSH2 0x139A JUMP JUMPDEST PUSH1 0x40 MLOAD DUP1 SWAP2 SUB SWAP1 RETURN JUMPDEST PUSH2 0x30C PUSH2 0x1083 JUMP JUMPDEST PUSH1 0x40 MLOAD PUSH2 0x319 SWAP2 SWAP1 PUSH2 0x1CD4 JUMP JUMPDEST PUSH1 0x40 MLOAD DUP1 SWAP2 SUB SWAP1 RETURN JUMPDEST PUSH1 0x0 PUSH1 0x5 PUSH1 0x0 DUP4 PUSH20 0xFFFFFFFFFFFFFFFFFFFFFFFFFFFFFFFFFFFFFFFF AND PUSH20 0xFFFFFFFFFFFFFFFFFFFFFFFFFFFFFFFFFFFFFFFF AND DUP2 MSTORE PUSH1 0x20 ADD SWAP1 DUP2 MSTORE PUSH1 0x20 ADD PUSH1 0x0 KECCAK256 SLOAD SWAP1 POP SWAP2 SWAP1 POP JUMP JUMPDEST PUSH2 0x7080 DUP2 JUMP JUMPDEST PUSH1 0x7 DUP2 DUP1 MLOAD PUSH1 0x20 DUP2 ADD DUP3 ADD DUP1 MLOAD DUP5 DUP3 MSTORE PUSH1 0x20 DUP4 ADD PUSH1 0x20 DUP6 ADD KECCAK256 DUP2 DUP4 MSTORE DUP1 SWAP6 POP POP POP POP POP POP PUSH1 0x0 SWAP2 POP SWAP1 POP SLOAD DUP2 JUMP JUMPDEST PUSH1 0x60 PUSH1 0x0 DUP5 DUP5 DUP5 PUSH1 0x40 MLOAD PUSH1 0x20 ADD PUSH2 0x3B8 SWAP4 SWAP3 SWAP2 SWAP1 PUSH2 0x1865 JUMP JUMPDEST PUSH1 0x40 MLOAD PUSH1 0x20 DUP2 DUP4 SUB SUB DUP2 MSTORE SWAP1 PUSH1 0x40 MSTORE SWAP1 POP PUSH1 0x0 PUSH1 0x6 DUP3 PUSH1 0x40 MLOAD PUSH2 0x3DB SWAP2 SWAP1 PUSH2 0x1D32 JUMP JUMPDEST SWAP1 DUP2 MSTORE PUSH1 0x20 ADD PUSH1 0x40 MLOAD DUP1 SWAP2 SUB SWAP1 KECCAK256 DUP1 SLOAD PUSH2 0x3F4 SWAP1 PUSH2 0x1D78 JUMP JUMPDEST DUP1 PUSH1 0x1F ADD PUSH1 0x20 DUP1 SWAP2 DIV MUL PUSH1 0x20 ADD PUSH1 0x40 MLOAD SWAP1 DUP2 ADD PUSH1 0x40 MSTORE DUP1 SWAP3 SWAP2 SWAP1 DUP2 DUP2 MSTORE PUSH1 0x20 ADD DUP3 DUP1 SLOAD PUSH2 0x420 SWAP1 PUSH2 0x1D78 JUMP JUMPDEST DUP1 ISZERO PUSH2 0x46D JUMPI DUP1 PUSH1 0x1F LT PUSH2 0x442 JUMPI PUSH2 0x100 DUP1 DUP4 SLOAD DIV MUL DUP4 MSTORE SWAP2 PUSH1 0x20 ADD SWAP2 PUSH2 0x46D JUMP JUMPDEST DUP3 ADD SWAP2 SWAP1 PUSH1 0x0 MSTORE PUSH1 0x20 PUSH1 0x0 KECCAK256 SWAP1 JUMPDEST DUP2 SLOAD DUP2 MSTORE SWAP1 PUSH1 0x1 ADD SWAP1 PUSH1 0x20 ADD DUP1 DUP4 GT PUSH2 0x450 JUMPI DUP3 SWAP1 SUB PUSH1 0x1F AND DUP3 ADD SWAP2 JUMPDEST POP POP POP POP POP SWAP1 POP PUSH1 0x0 DUP2 MLOAD GT PUSH2 0x4B8 JUMPI PUSH1 0x40 MLOAD PUSH32 0x8C379A000000000000000000000000000000000000000000000000000000000 DUP2 MSTORE PUSH1 0x4 ADD PUSH2 0x4AF SWAP1 PUSH2 0x1E1B JUMP JUMPDEST PUSH1 0x40 MLOAD DUP1 SWAP2 SUB SWAP1 REVERT JUMPDEST PUSH1 0x0 DUP2 DUP1 PUSH1 0x20 ADD SWAP1 MLOAD DUP2 ADD SWAP1 PUSH2 0x4CE SWAP2 SWAP1 PUSH2 0x204F JUMP JUMPDEST SWAP1 POP DUP1 SWAP4 POP POP POP POP SWAP4 SWAP3 POP POP POP JUMP JUMPDEST PUSH1 0x2 PUSH1 0x0 SWAP1 SLOAD SWAP1 PUSH2 0x100 EXP SWAP1 DIV PUSH20 0xFFFFFFFFFFFFFFFFFFFFFFFFFFFFFFFFFFFFFFFF AND PUSH20 0xFFFFFFFFFFFFFFFFFFFFFFFFFFFFFFFFFFFFFFFF AND CALLER PUSH20 0xFFFFFFFFFFFFFFFFFFFFFFFFFFFFFFFFFFFFFFFF AND EQ PUSH2 0x56D JUMPI PUSH1 0x40 MLOAD PUSH32 0x8C379A000000000000000000000000000000000000000000000000000000000 DUP2 MSTORE PUSH1 0x4 ADD PUSH2 0x564 SWAP1 PUSH2 0x210A JUMP JUMPDEST PUSH1 0x40 MLOAD DUP1 SWAP2 SUB SWAP1 REVERT JUMPDEST DUP1 PUSH1 0x4 PUSH1 0x0 PUSH2 0x100 EXP DUP2 SLOAD DUP2 PUSH20 0xFFFFFFFFFFFFFFFFFFFFFFFFFFFFFFFFFFFFFFFF MUL NOT AND SWAP1 DUP4 PUSH20 0xFFFFFFFFFFFFFFFFFFFFFFFFFFFFFFFFFFFFFFFF AND MUL OR SWAP1 SSTORE POP POP JUMP JUMPDEST PUSH1 0x0 DUP1 PUSH1 0x0 DUP1 PUSH1 0x0 DUP1 SLOAD SWAP1 PUSH2 0x100 EXP SWAP1 DIV PUSH20 0xFFFFFFFFFFFFFFFFFFFFFFFFFFFFFFFFFFFFFFFF AND PUSH20 0xFFFFFFFFFFFFFFFFFFFFFFFFFFFFFFFFFFFFFFFF AND PUSH4 0x92D66313 DUP7 PUSH1 0x40 MLOAD DUP3 PUSH4 0xFFFFFFFF AND PUSH1 0xE0 SHL DUP2 MSTORE PUSH1 0x4 ADD PUSH2 0x610 SWAP2 SWAP1 PUSH2 0x139A JUMP JUMPDEST PUSH1 0x20 PUSH1 0x40 MLOAD DUP1 DUP4 SUB DUP2 DUP7 GAS STATICCALL ISZERO DUP1 ISZERO PUSH2 0x62D JUMPI RETURNDATASIZE PUSH1 0x0 DUP1 RETURNDATACOPY RETURNDATASIZE PUSH1 0x0 REVERT JUMPDEST POP POP POP POP PUSH1 0x40 MLOAD RETURNDATASIZE PUSH1 0x1F NOT PUSH1 0x1F DUP3 ADD AND DUP3 ADD DUP1 PUSH1 0x40 MSTORE POP DUP2 ADD SWAP1 PUSH2 0x651 SWAP2 SWAP1 PUSH2 0x213F JUMP JUMPDEST SWAP1 POP PUSH1 0x0 DUP1 PUSH1 0x0 SWAP1 SLOAD SWAP1 PUSH2 0x100 EXP SWAP1 DIV PUSH20 0xFFFFFFFFFFFFFFFFFFFFFFFFFFFFFFFFFFFFFFFF AND PUSH20 0xFFFFFFFFFFFFFFFFFFFFFFFFFFFFFFFFFFFFFFFF AND PUSH4 0xA324AD24 DUP8 PUSH1 0x40 MLOAD DUP3 PUSH4 0xFFFFFFFF AND PUSH1 0xE0 SHL DUP2 MSTORE PUSH1 0x4 ADD PUSH2 0x6AF SWAP2 SWAP1 PUSH2 0x139A JUMP JUMPDEST PUSH1 0x20 PUSH1 0x40 MLOAD DUP1 DUP4 SUB DUP2 DUP7 GAS STATICCALL ISZERO DUP1 ISZERO PUSH2 0x6CC JUMPI RETURNDATASIZE PUSH1 0x0 DUP1 RETURNDATACOPY RETURNDATASIZE PUSH1 0x0 REVERT JUMPDEST POP POP POP POP PUSH1 0x40 MLOAD RETURNDATASIZE PUSH1 0x1F NOT PUSH1 0x1F DUP3 ADD AND DUP3 ADD DUP1 PUSH1 0x40 MSTORE POP DUP2 ADD SWAP1 PUSH2 0x6F0 SWAP2 SWAP1 PUSH2 0x2181 JUMP JUMPDEST SWAP1 POP PUSH1 0x0 DUP1 PUSH1 0x0 SWAP1 SLOAD SWAP1 PUSH2 0x100 EXP SWAP1 DIV PUSH20 0xFFFFFFFFFFFFFFFFFFFFFFFFFFFFFFFFFFFFFFFF AND PUSH20 0xFFFFFFFFFFFFFFFFFFFFFFFFFFFFFFFFFFFFFFFF AND PUSH4 0x65C72840 DUP9 PUSH1 0x40 MLOAD DUP3 PUSH4 0xFFFFFFFF AND PUSH1 0xE0 SHL DUP2 MSTORE PUSH1 0x4 ADD PUSH2 0x74E SWAP2 SWAP1 PUSH2 0x139A JUMP JUMPDEST PUSH1 0x20 PUSH1 0x40 MLOAD DUP1 DUP4 SUB DUP2 DUP7 GAS STATICCALL ISZERO DUP1 ISZERO PUSH2 0x76B JUMPI RETURNDATASIZE PUSH1 0x0 DUP1 RETURNDATACOPY RETURNDATASIZE PUSH1 0x0 REVERT JUMPDEST POP POP POP POP PUSH1 0x40 MLOAD RETURNDATASIZE PUSH1 0x1F NOT PUSH1 0x1F DUP3 ADD AND DUP3 ADD DUP1 PUSH1 0x40 MSTORE POP DUP2 ADD SWAP1 PUSH2 0x78F SWAP2 SWAP1 PUSH2 0x2181 JUMP JUMPDEST SWAP1 POP DUP3 DUP3 DUP3 SWAP6 POP SWAP6 POP SWAP6 POP POP POP POP SWAP2 SWAP4 SWAP1 SWAP3 POP JUMP JUMPDEST DUP2 PUSH1 0x40 ADD MLOAD PUSH1 0x5 PUSH1 0x0 DUP5 PUSH1 0x0 ADD MLOAD PUSH20 0xFFFFFFFFFFFFFFFFFFFFFFFFFFFFFFFFFFFFFFFF AND PUSH20 0xFFFFFFFFFFFFFFFFFFFFFFFFFFFFFFFFFFFFFFFF AND DUP2 MSTORE PUSH1 0x20 ADD SWAP1 DUP2 MSTORE PUSH1 0x20 ADD PUSH1 0x0 KECCAK256 SLOAD LT ISZERO PUSH2 0x840 JUMPI DUP2 PUSH1 0x40 ADD MLOAD PUSH1 0x5 PUSH1 0x0 DUP5 PUSH1 0x0 ADD MLOAD PUSH20 0xFFFFFFFFFFFFFFFFFFFFFFFFFFFFFFFFFFFFFFFF AND PUSH20 0xFFFFFFFFFFFFFFFFFFFFFFFFFFFFFFFFFFFFFFFF AND DUP2 MSTORE PUSH1 0x20 ADD SWAP1 DUP2 MSTORE PUSH1 0x20 ADD PUSH1 0x0 KECCAK256 DUP2 SWAP1 SSTORE POP JUMPDEST PUSH1 0x0 DUP1 PUSH1 0x0 PUSH2 0x84E DUP5 PUSH2 0x5B1 JUMP JUMPDEST SWAP3 POP SWAP3 POP SWAP3 POP PUSH1 0x0 DUP4 DUP4 DUP4 PUSH1 0x40 MLOAD PUSH1 0x20 ADD PUSH2 0x86B SWAP4 SWAP3 SWAP2 SWAP1 PUSH2 0x1865 JUMP JUMPDEST PUSH1 0x40 MLOAD PUSH1 0x20 DUP2 DUP4 SUB SUB DUP2 MSTORE SWAP1 PUSH1 0x40 MSTORE SWAP1 POP PUSH1 0x0 PUSH1 0x6 DUP3 PUSH1 0x40 MLOAD PUSH2 0x88E SWAP2 SWAP1 PUSH2 0x1D32 JUMP JUMPDEST SWAP1 DUP2 MSTORE PUSH1 0x20 ADD PUSH1 0x40 MLOAD DUP1 SWAP2 SUB SWAP1 KECCAK256 DUP1 SLOAD PUSH2 0x8A7 SWAP1 PUSH2 0x1D78 JUMP JUMPDEST DUP1 PUSH1 0x1F ADD PUSH1 0x20 DUP1 SWAP2 DIV MUL PUSH1 0x20 ADD PUSH1 0x40 MLOAD SWAP1 DUP2 ADD PUSH1 0x40 MSTORE DUP1 SWAP3 SWAP2 SWAP1 DUP2 DUP2 MSTORE PUSH1 0x20 ADD DUP3 DUP1 SLOAD PUSH2 0x8D3 SWAP1 PUSH2 0x1D78 JUMP JUMPDEST DUP1 ISZERO PUSH2 0x920 JUMPI DUP1 PUSH1 0x1F LT PUSH2 0x8F5 JUMPI PUSH2 0x100 DUP1 DUP4 SLOAD DIV MUL DUP4 MSTORE SWAP2 PUSH1 0x20 ADD SWAP2 PUSH2 0x920 JUMP JUMPDEST DUP3 ADD SWAP2 SWAP1 PUSH1 0x0 MSTORE PUSH1 0x20 PUSH1 0x0 KECCAK256 SWAP1 JUMPDEST DUP2 SLOAD DUP2 MSTORE SWAP1 PUSH1 0x1 ADD SWAP1 PUSH1 0x20 ADD DUP1 DUP4 GT PUSH2 0x903 JUMPI DUP3 SWAP1 SUB PUSH1 0x1F AND DUP3 ADD SWAP2 JUMPDEST POP POP POP POP POP SWAP1 POP PUSH1 0x60 PUSH1 0x0 DUP3 MLOAD GT ISZERO PUSH2 0xA01 JUMPI PUSH1 0x0 DUP3 DUP1 PUSH1 0x20 ADD SWAP1 MLOAD DUP2 ADD SWAP1 PUSH2 0x949 SWAP2 SWAP1 PUSH2 0x204F JUMP JUMPDEST SWAP1 POP DUP1 MLOAD PUSH8 0xFFFFFFFFFFFFFFFF DUP2 GT ISZERO PUSH2 0x966 JUMPI PUSH2 0x965 PUSH2 0x13D0 JUMP JUMPDEST JUMPDEST PUSH1 0x40 MLOAD SWAP1 DUP1 DUP3 MSTORE DUP1 PUSH1 0x20 MUL PUSH1 0x20 ADD DUP3 ADD PUSH1 0x40 MSTORE DUP1 ISZERO PUSH2 0x99F JUMPI DUP2 PUSH1 0x20 ADD JUMPDEST PUSH2 0x98C PUSH2 0x12A4 JUMP JUMPDEST DUP2 MSTORE PUSH1 0x20 ADD SWAP1 PUSH1 0x1 SWAP1 SUB SWAP1 DUP2 PUSH2 0x984 JUMPI SWAP1 POP JUMPDEST POP SWAP2 POP PUSH1 0x0 JUMPDEST DUP2 MLOAD DUP2 LT ISZERO PUSH2 0x9FA JUMPI DUP2 DUP2 DUP2 MLOAD DUP2 LT PUSH2 0x9C1 JUMPI PUSH2 0x9C0 PUSH2 0x21AE JUMP JUMPDEST JUMPDEST PUSH1 0x20 MUL PUSH1 0x20 ADD ADD MLOAD DUP4 DUP3 DUP2 MLOAD DUP2 LT PUSH2 0x9DC JUMPI PUSH2 0x9DB PUSH2 0x21AE JUMP JUMPDEST JUMPDEST PUSH1 0x20 MUL PUSH1 0x20 ADD ADD DUP2 SWAP1 MSTORE POP DUP1 DUP1 PUSH2 0x9F2 SWAP1 PUSH2 0x220C JUMP JUMPDEST SWAP2 POP POP PUSH2 0x9A5 JUMP JUMPDEST POP POP PUSH2 0xA59 JUMP JUMPDEST PUSH1 0x0 PUSH8 0xFFFFFFFFFFFFFFFF DUP2 GT ISZERO PUSH2 0xA1C JUMPI PUSH2 0xA1B PUSH2 0x13D0 JUMP JUMPDEST JUMPDEST PUSH1 0x40 MLOAD SWAP1 DUP1 DUP3 MSTORE DUP1 PUSH1 0x20 MUL PUSH1 0x20 ADD DUP3 ADD PUSH1 0x40 MSTORE DUP1 ISZERO PUSH2 0xA55 JUMPI DUP2 PUSH1 0x20 ADD JUMPDEST PUSH2 0xA42 PUSH2 0x12A4 JUMP JUMPDEST DUP2 MSTORE PUSH1 0x20 ADD SWAP1 PUSH1 0x1 SWAP1 SUB SWAP1 DUP2 PUSH2 0xA3A JUMPI SWAP1 POP JUMPDEST POP SWAP1 POP JUMPDEST PUSH1 0x0 DUP2 MLOAD SWAP1 POP PUSH1 0xA DUP2 LT ISZERO PUSH2 0xB4C JUMPI PUSH1 0x0 PUSH1 0x1 DUP3 PUSH2 0xA77 SWAP2 SWAP1 PUSH2 0x2254 JUMP JUMPDEST PUSH8 0xFFFFFFFFFFFFFFFF DUP2 GT ISZERO PUSH2 0xA90 JUMPI PUSH2 0xA8F PUSH2 0x13D0 JUMP JUMPDEST JUMPDEST PUSH1 0x40 MLOAD SWAP1 DUP1 DUP3 MSTORE DUP1 PUSH1 0x20 MUL PUSH1 0x20 ADD DUP3 ADD PUSH1 0x40 MSTORE DUP1 ISZERO PUSH2 0xAC9 JUMPI DUP2 PUSH1 0x20 ADD JUMPDEST PUSH2 0xAB6 PUSH2 0x12A4 JUMP JUMPDEST DUP2 MSTORE PUSH1 0x20 ADD SWAP1 PUSH1 0x1 SWAP1 SUB SWAP1 DUP2 PUSH2 0xAAE JUMPI SWAP1 POP JUMPDEST POP SWAP1 POP PUSH1 0x0 JUMPDEST DUP3 DUP2 LT ISZERO PUSH2 0xB23 JUMPI DUP4 DUP2 DUP2 MLOAD DUP2 LT PUSH2 0xAEA JUMPI PUSH2 0xAE9 PUSH2 0x21AE JUMP JUMPDEST JUMPDEST PUSH1 0x20 MUL PUSH1 0x20 ADD ADD MLOAD DUP3 DUP3 DUP2 MLOAD DUP2 LT PUSH2 0xB05 JUMPI PUSH2 0xB04 PUSH2 0x21AE JUMP JUMPDEST JUMPDEST PUSH1 0x20 MUL PUSH1 0x20 ADD ADD DUP2 SWAP1 MSTORE POP DUP1 DUP1 PUSH2 0xB1B SWAP1 PUSH2 0x220C JUMP JUMPDEST SWAP2 POP POP PUSH2 0xACF JUMP JUMPDEST POP DUP10 DUP2 DUP4 DUP2 MLOAD DUP2 LT PUSH2 0xB38 JUMPI PUSH2 0xB37 PUSH2 0x21AE JUMP JUMPDEST JUMPDEST PUSH1 0x20 MUL PUSH1 0x20 ADD ADD DUP2 SWAP1 MSTORE POP DUP1 SWAP3 POP POP PUSH2 0xB99 JUMP JUMPDEST DUP9 PUSH1 0x40 ADD MLOAD DUP3 PUSH1 0x0 DUP2 MLOAD DUP2 LT PUSH2 0xB65 JUMPI PUSH2 0xB64 PUSH2 0x21AE JUMP JUMPDEST JUMPDEST PUSH1 0x20 MUL PUSH1 0x20 ADD ADD MLOAD PUSH1 0x40 ADD MLOAD LT ISZERO PUSH2 0xB98 JUMPI DUP9 DUP3 PUSH1 0x0 DUP2 MLOAD DUP2 LT PUSH2 0xB8C JUMPI PUSH2 0xB8B PUSH2 0x21AE JUMP JUMPDEST JUMPDEST PUSH1 0x20 MUL PUSH1 0x20 ADD ADD DUP2 SWAP1 MSTORE POP JUMPDEST JUMPDEST PUSH2 0xBA2 DUP3 PUSH2 0x10D1 JUMP JUMPDEST SWAP2 POP PUSH2 0xBB0 DUP8 DUP8 DUP8 DUP6 PUSH2 0x1224 JUMP JUMPDEST POP POP POP POP POP POP POP POP POP JUMP JUMPDEST PUSH1 0x2 PUSH1 0x0 SWAP1 SLOAD SWAP1 PUSH2 0x100 EXP SWAP1 DIV PUSH20 0xFFFFFFFFFFFFFFFFFFFFFFFFFFFFFFFFFFFFFFFF AND DUP2 JUMP JUMPDEST PUSH1 0x5 PUSH1 0x20 MSTORE DUP1 PUSH1 0x0 MSTORE PUSH1 0x40 PUSH1 0x0 KECCAK256 PUSH1 0x0 SWAP2 POP SWAP1 POP SLOAD DUP2 JUMP JUMPDEST PUSH1 0x60 PUSH1 0x0 PUSH2 0x7080 TIMESTAMP PUSH2 0xC0B SWAP2 SWAP1 PUSH2 0x2254 JUMP JUMPDEST SWAP1 POP PUSH1 0x0 DUP1 PUSH1 0x0 PUSH2 0xC1B DUP5 PUSH2 0x5B1 JUMP JUMPDEST SWAP3 POP SWAP3 POP SWAP3 POP PUSH1 0x0 PUSH2 0xC2E DUP5 DUP5 DUP5 PUSH2 0x39F JUMP JUMPDEST SWAP1 POP DUP1 SWAP6 POP POP POP POP POP POP SWAP1 JUMP JUMPDEST PUSH1 0x60 PUSH1 0x0 DUP1 PUSH1 0x4 PUSH1 0x0 SWAP1 SLOAD SWAP1 PUSH2 0x100 EXP SWAP1 DIV PUSH20 0xFFFFFFFFFFFFFFFFFFFFFFFFFFFFFFFFFFFFFFFF AND SWAP1 POP PUSH1 0x0 DUP2 PUSH20 0xFFFFFFFFFFFFFFFFFFFFFFFFFFFFFFFFFFFFFFFF AND PUSH4 0xA32CC87C DUP8 PUSH1 0x40 MLOAD DUP3 PUSH4 0xFFFFFFFF AND PUSH1 0xE0 SHL DUP2 MSTORE PUSH1 0x4 ADD PUSH2 0xCA0 SWAP2 SWAP1 PUSH2 0x1C4F JUMP JUMPDEST PUSH1 0x20 PUSH1 0x40 MLOAD DUP1 DUP4 SUB DUP2 PUSH1 0x0 DUP8 GAS CALL ISZERO DUP1 ISZERO PUSH2 0xCBF JUMPI RETURNDATASIZE PUSH1 0x0 DUP1 RETURNDATACOPY RETURNDATASIZE PUSH1 0x0 REVERT JUMPDEST POP POP POP POP PUSH1 0x40 MLOAD RETURNDATASIZE PUSH1 0x1F NOT PUSH1 0x1F DUP3 ADD AND DUP3 ADD DUP1 PUSH1 0x40 MSTORE POP DUP2 ADD SWAP1 PUSH2 0xCE3 SWAP2 SWAP1 PUSH2 0x2288 JUMP JUMPDEST SWAP1 POP PUSH1 0x0 DUP3 PUSH20 0xFFFFFFFFFFFFFFFFFFFFFFFFFFFFFFFFFFFFFFFF AND PUSH4 0x2FDF8A9F DUP4 PUSH1 0x40 MLOAD DUP3 PUSH4 0xFFFFFFFF AND PUSH1 0xE0 SHL DUP2 MSTORE PUSH1 0x4 ADD PUSH2 0xD20 SWAP2 SWAP1 PUSH2 0x19A5 JUMP JUMPDEST PUSH1 0x0 PUSH1 0x40 MLOAD DUP1 DUP4 SUB DUP2 DUP7 GAS STATICCALL ISZERO DUP1 ISZERO PUSH2 0xD3D JUMPI RETURNDATASIZE PUSH1 0x0 DUP1 RETURNDATACOPY RETURNDATASIZE PUSH1 0x0 REVERT JUMPDEST POP POP POP POP PUSH1 0x40 MLOAD RETURNDATASIZE PUSH1 0x0 DUP3 RETURNDATACOPY RETURNDATASIZE PUSH1 0x1F NOT PUSH1 0x1F DUP3 ADD AND DUP3 ADD DUP1 PUSH1 0x40 MSTORE POP DUP2 ADD SWAP1 PUSH2 0xD66 SWAP2 SWAP1 PUSH2 0x2325 JUMP JUMPDEST SWAP1 POP PUSH1 0x0 CALLER SWAP1 POP PUSH1 0x0 DUP3 PUSH2 0xD79 SWAP1 PUSH2 0x23AA JUMP JUMPDEST PUSH1 0x0 SHR SWAP1 POP PUSH1 0x0 PUSH2 0x7080 TIMESTAMP PUSH2 0xD8E SWAP2 SWAP1 PUSH2 0x2254 JUMP JUMPDEST SWAP1 POP PUSH1 0x0 PUSH1 0x40 MLOAD DUP1 PUSH1 0x80 ADD PUSH1 0x40 MSTORE DUP1 DUP6 PUSH20 0xFFFFFFFFFFFFFFFFFFFFFFFFFFFFFFFFFFFFFFFF AND DUP2 MSTORE PUSH1 0x20 ADD DUP15 DUP2 MSTORE PUSH1 0x20 ADD DUP14 DUP2 MSTORE PUSH1 0x20 ADD DUP4 DUP2 MSTORE POP SWAP1 POP PUSH1 0x0 DUP4 DUP14 SUB PUSH2 0xE72 JUMPI PUSH1 0x1 SWAP1 POP PUSH2 0xDE2 DUP3 DUP5 PUSH2 0x7A4 JUMP JUMPDEST PUSH1 0x1 PUSH1 0x0 SWAP1 SLOAD SWAP1 PUSH2 0x100 EXP SWAP1 DIV PUSH20 0xFFFFFFFFFFFFFFFFFFFFFFFFFFFFFFFFFFFFFFFF AND PUSH20 0xFFFFFFFFFFFFFFFFFFFFFFFFFFFFFFFFFFFFFFFF AND PUSH4 0xD204C45E DUP7 DUP14 PUSH1 0x40 MLOAD DUP4 PUSH4 0xFFFFFFFF AND PUSH1 0xE0 SHL DUP2 MSTORE PUSH1 0x4 ADD PUSH2 0xE3F SWAP3 SWAP2 SWAP1 PUSH2 0x2411 JUMP JUMPDEST PUSH1 0x0 PUSH1 0x40 MLOAD DUP1 DUP4 SUB DUP2 PUSH1 0x0 DUP8 DUP1 EXTCODESIZE ISZERO DUP1 ISZERO PUSH2 0xE59 JUMPI PUSH1 0x0 DUP1 REVERT JUMPDEST POP GAS CALL ISZERO DUP1 ISZERO PUSH2 0xE6D JUMPI RETURNDATASIZE PUSH1 0x0 DUP1 RETURNDATACOPY RETURNDATASIZE PUSH1 0x0 REVERT JUMPDEST POP POP POP POP JUMPDEST PUSH1 0x7 DUP15 PUSH1 0x40 MLOAD PUSH2 0xE82 SWAP2 SWAP1 PUSH2 0x247D JUMP JUMPDEST SWAP1 DUP2 MSTORE PUSH1 0x20 ADD PUSH1 0x40 MLOAD DUP1 SWAP2 SUB SWAP1 KECCAK256 PUSH1 0x0 SWAP1 SSTORE DUP14 PUSH1 0x40 MLOAD PUSH2 0xEA2 SWAP2 SWAP1 PUSH2 0x247D JUMP JUMPDEST PUSH1 0x40 MLOAD DUP1 SWAP2 SUB SWAP1 KECCAK256 PUSH32 0x931C8CEF035152FBAACFBC94C740515643C820CB2AC59133D5ABB5B059435F24 DUP3 DUP16 DUP8 PUSH1 0x40 MLOAD PUSH2 0xEDD SWAP4 SWAP3 SWAP2 SWAP1 PUSH2 0x2494 JUMP JUMPDEST PUSH1 0x40 MLOAD DUP1 SWAP2 SUB SWAP1 LOG2 DUP14 DUP2 SWAP10 POP SWAP10 POP POP POP POP POP POP POP POP POP SWAP5 POP SWAP5 SWAP3 POP POP POP JUMP JUMPDEST PUSH1 0x6 DUP2 DUP1 MLOAD PUSH1 0x20 DUP2 ADD DUP3 ADD DUP1 MLOAD DUP5 DUP3 MSTORE PUSH1 0x20 DUP4 ADD PUSH1 0x20 DUP6 ADD KECCAK256 DUP2 DUP4 MSTORE DUP1 SWAP6 POP POP POP POP POP POP PUSH1 0x0 SWAP2 POP SWAP1 POP DUP1 SLOAD PUSH2 0xF31 SWAP1 PUSH2 0x1D78 JUMP JUMPDEST DUP1 PUSH1 0x1F ADD PUSH1 0x20 DUP1 SWAP2 DIV MUL PUSH1 0x20 ADD PUSH1 0x40 MLOAD SWAP1 DUP2 ADD PUSH1 0x40 MSTORE DUP1 SWAP3 SWAP2 SWAP1 DUP2 DUP2 MSTORE PUSH1 0x20 ADD DUP3 DUP1 SLOAD PUSH2 0xF5D SWAP1 PUSH2 0x1D78 JUMP JUMPDEST DUP1 ISZERO PUSH2 0xFAA JUMPI DUP1 PUSH1 0x1F LT PUSH2 0xF7F JUMPI PUSH2 0x100 DUP1 DUP4 SLOAD DIV MUL DUP4 MSTORE SWAP2 PUSH1 0x20 ADD SWAP2 PUSH2 0xFAA JUMP JUMPDEST DUP3 ADD SWAP2 SWAP1 PUSH1 0x0 MSTORE PUSH1 0x20 PUSH1 0x0 KECCAK256 SWAP1 JUMPDEST DUP2 SLOAD DUP2 MSTORE SWAP1 PUSH1 0x1 ADD SWAP1 PUSH1 0x20 ADD DUP1 DUP4 GT PUSH2 0xF8D JUMPI DUP3 SWAP1 SUB PUSH1 0x1F AND DUP3 ADD SWAP2 JUMPDEST POP POP POP POP POP DUP2 JUMP JUMPDEST PUSH1 0x0 PUSH1 0x3 SLOAD PUSH1 0x1 NUMBER PUSH2 0xFC4 SWAP2 SWAP1 PUSH2 0x24CB JUMP JUMPDEST BLOCKHASH PUSH1 0x40 MLOAD PUSH1 0x20 ADD PUSH2 0xFD6 SWAP3 SWAP2 SWAP1 PUSH2 0x2541 JUMP JUMPDEST PUSH1 0x40 MLOAD PUSH1 0x20 DUP2 DUP4 SUB SUB DUP2 MSTORE SWAP1 PUSH1 0x40 MSTORE DUP1 MLOAD SWAP1 PUSH1 0x20 ADD KECCAK256 PUSH1 0x0 SHR PUSH1 0x3 DUP2 SWAP1 SSTORE POP PUSH1 0x0 PUSH3 0xF4240 PUSH1 0x3 SLOAD PUSH2 0x1008 SWAP2 SWAP1 PUSH2 0x259C JUMP JUMPDEST SWAP1 POP DUP1 PUSH1 0x7 DUP5 PUSH1 0x40 MLOAD PUSH2 0x101B SWAP2 SWAP1 PUSH2 0x247D JUMP JUMPDEST SWAP1 DUP2 MSTORE PUSH1 0x20 ADD PUSH1 0x40 MLOAD DUP1 SWAP2 SUB SWAP1 KECCAK256 DUP2 SWAP1 SSTORE POP DUP3 PUSH1 0x40 MLOAD PUSH2 0x103B SWAP2 SWAP1 PUSH2 0x247D JUMP JUMPDEST PUSH1 0x40 MLOAD DUP1 SWAP2 SUB SWAP1 KECCAK256 PUSH32 0xF00A9035D77900613CFBB31EB5D4A8A927FF33A676B51DFC02D529E062C5E945 DUP3 PUSH1 0x40 MLOAD PUSH2 0x1072 SWAP2 SWAP1 PUSH2 0x139A JUMP JUMPDEST PUSH1 0x40 MLOAD DUP1 SWAP2 SUB SWAP1 LOG2 DUP1 SWAP2 POP POP SWAP2 SWAP1 POP JUMP JUMPDEST PUSH2 0x108B PUSH2 0x12A4 JUMP JUMPDEST PUSH1 0x0 PUSH2 0x1095 PUSH2 0xBF9 JUMP JUMPDEST SWAP1 POP PUSH1 0x0 DUP2 MLOAD SWAP1 POP PUSH1 0x0 DUP3 PUSH1 0x1 DUP4 PUSH2 0x10AD SWAP2 SWAP1 PUSH2 0x24CB JUMP JUMPDEST DUP2 MLOAD DUP2 LT PUSH2 0x10BE JUMPI PUSH2 0x10BD PUSH2 0x21AE JUMP JUMPDEST JUMPDEST PUSH1 0x20 MUL PUSH1 0x20 ADD ADD MLOAD SWAP1 POP DUP1 SWAP4 POP POP POP POP SWAP1 JUMP JUMPDEST PUSH1 0x60 PUSH1 0x0 DUP3 MLOAD SWAP1 POP PUSH1 0x0 JUMPDEST PUSH1 0x1 DUP3 PUSH2 0x10E9 SWAP2 SWAP1 PUSH2 0x24CB JUMP JUMPDEST DUP2 LT ISZERO PUSH2 0x121A JUMPI PUSH1 0x0 JUMPDEST PUSH1 0x1 DUP3 DUP5 PUSH2 0x1101 SWAP2 SWAP1 PUSH2 0x24CB JUMP JUMPDEST PUSH2 0x110B SWAP2 SWAP1 PUSH2 0x24CB JUMP JUMPDEST DUP2 LT ISZERO PUSH2 0x1206 JUMPI DUP5 PUSH1 0x1 DUP3 PUSH2 0x1120 SWAP2 SWAP1 PUSH2 0x2254 JUMP JUMPDEST DUP2 MLOAD DUP2 LT PUSH2 0x1131 JUMPI PUSH2 0x1130 PUSH2 0x21AE JUMP JUMPDEST JUMPDEST PUSH1 0x20 MUL PUSH1 0x20 ADD ADD MLOAD PUSH1 0x40 ADD MLOAD DUP6 DUP3 DUP2 MLOAD DUP2 LT PUSH2 0x1150 JUMPI PUSH2 0x114F PUSH2 0x21AE JUMP JUMPDEST JUMPDEST PUSH1 0x20 MUL PUSH1 0x20 ADD ADD MLOAD PUSH1 0x40 ADD MLOAD GT ISZERO PUSH2 0x11F3 JUMPI PUSH1 0x0 DUP6 DUP3 DUP2 MLOAD DUP2 LT PUSH2 0x1177 JUMPI PUSH2 0x1176 PUSH2 0x21AE JUMP JUMPDEST JUMPDEST PUSH1 0x20 MUL PUSH1 0x20 ADD ADD MLOAD SWAP1 POP DUP6 PUSH1 0x1 DUP4 PUSH2 0x118F SWAP2 SWAP1 PUSH2 0x2254 JUMP JUMPDEST DUP2 MLOAD DUP2 LT PUSH2 0x11A0 JUMPI PUSH2 0x119F PUSH2 0x21AE JUMP JUMPDEST JUMPDEST PUSH1 0x20 MUL PUSH1 0x20 ADD ADD MLOAD DUP7 DUP4 DUP2 MLOAD DUP2 LT PUSH2 0x11BB JUMPI PUSH2 0x11BA PUSH2 0x21AE JUMP JUMPDEST JUMPDEST PUSH1 0x20 MUL PUSH1 0x20 ADD ADD DUP2 SWAP1 MSTORE POP DUP1 DUP7 PUSH1 0x1 DUP5 PUSH2 0x11D5 SWAP2 SWAP1 PUSH2 0x2254 JUMP JUMPDEST DUP2 MLOAD DUP2 LT PUSH2 0x11E6 JUMPI PUSH2 0x11E5 PUSH2 0x21AE JUMP JUMPDEST JUMPDEST PUSH1 0x20 MUL PUSH1 0x20 ADD ADD DUP2 SWAP1 MSTORE POP POP JUMPDEST DUP1 DUP1 PUSH2 0x11FE SWAP1 PUSH2 0x220C JUMP JUMPDEST SWAP2 POP POP PUSH2 0x10F3 JUMP JUMPDEST POP DUP1 DUP1 PUSH2 0x1212 SWAP1 PUSH2 0x220C JUMP JUMPDEST SWAP2 POP POP PUSH2 0x10DC JUMP JUMPDEST POP DUP3 SWAP2 POP POP SWAP2 SWAP1 POP JUMP JUMPDEST PUSH1 0x0 DUP5 DUP5 DUP5 PUSH1 0x40 MLOAD PUSH1 0x20 ADD PUSH2 0x123B SWAP4 SWAP3 SWAP2 SWAP1 PUSH2 0x1865 JUMP JUMPDEST PUSH1 0x40 MLOAD PUSH1 0x20 DUP2 DUP4 SUB SUB DUP2 MSTORE SWAP1 PUSH1 0x40 MSTORE SWAP1 POP PUSH1 0x0 DUP3 PUSH1 0x40 MLOAD PUSH1 0x20 ADD PUSH2 0x125F SWAP2 SWAP1 PUSH2 0x17CC JUMP JUMPDEST PUSH1 0x40 MLOAD PUSH1 0x20 DUP2 DUP4 SUB SUB DUP2 MSTORE SWAP1 PUSH1 0x40 MSTORE SWAP1 POP DUP1 PUSH1 0x6 DUP4 PUSH1 0x40 MLOAD PUSH2 0x1281 SWAP2 SWAP1 PUSH2 0x1D32 JUMP JUMPDEST SWAP1 DUP2 MSTORE PUSH1 0x20 ADD PUSH1 0x40 MLOAD DUP1 SWAP2 SUB SWAP1 KECCAK256 SWAP1 DUP2 PUSH2 0x129B SWAP2 SWAP1 PUSH2 0x276C JUMP JUMPDEST POP POP POP POP POP POP POP JUMP JUMPDEST PUSH1 0x40 MLOAD DUP1 PUSH1 0x80 ADD PUSH1 0x40 MSTORE DUP1 PUSH1 0x0 PUSH20 0xFFFFFFFFFFFFFFFFFFFFFFFFFFFFFFFFFFFFFFFF AND DUP2 MSTORE PUSH1 0x20 ADD PUSH1 0x60 DUP2 MSTORE PUSH1 0x20 ADD PUSH1 0x0 DUP2 MSTORE PUSH1 0x20 ADD PUSH1 0x0 DUP2 MSTORE POP SWAP1 JUMP JUMPDEST PUSH1 0x0 PUSH1 0x40 MLOAD SWAP1 POP SWAP1 JUMP JUMPDEST PUSH1 0x0 DUP1 REVERT JUMPDEST PUSH1 0x0 DUP1 REVERT JUMPDEST PUSH1 0x0 PUSH20 0xFFFFFFFFFFFFFFFFFFFFFFFFFFFFFFFFFFFFFFFF DUP3 AND SWAP1 POP SWAP2 SWAP1 POP JUMP JUMPDEST PUSH1 0x0 PUSH2 0x1321 DUP3 PUSH2 0x12F6 JUMP JUMPDEST SWAP1 POP SWAP2 SWAP1 POP JUMP JUMPDEST PUSH2 0x1331 DUP2 PUSH2 0x1316 JUMP JUMPDEST DUP2 EQ PUSH2 0x133C JUMPI PUSH1 0x0 DUP1 REVERT JUMPDEST POP JUMP JUMPDEST PUSH1 0x0 DUP2 CALLDATALOAD SWAP1 POP PUSH2 0x134E DUP2 PUSH2 0x1328 JUMP JUMPDEST SWAP3 SWAP2 POP POP JUMP JUMPDEST PUSH1 0x0 PUSH1 0x20 DUP3 DUP5 SUB SLT ISZERO PUSH2 0x136A JUMPI PUSH2 0x1369 PUSH2 0x12EC JUMP JUMPDEST JUMPDEST PUSH1 0x0 PUSH2 0x1378 DUP5 DUP3 DUP6 ADD PUSH2 0x133F JUMP JUMPDEST SWAP2 POP POP SWAP3 SWAP2 POP POP JUMP JUMPDEST PUSH1 0x0 DUP2 SWAP1 POP SWAP2 SWAP1 POP JUMP JUMPDEST PUSH2 0x1394 DUP2 PUSH2 0x1381 JUMP JUMPDEST DUP3 MSTORE POP POP JUMP JUMPDEST PUSH1 0x0 PUSH1 0x20 DUP3 ADD SWAP1 POP PUSH2 0x13AF PUSH1 0x0 DUP4 ADD DUP5 PUSH2 0x138B JUMP JUMPDEST SWAP3 SWAP2 POP POP JUMP JUMPDEST PUSH1 0x0 DUP1 REVERT JUMPDEST PUSH1 0x0 DUP1 REVERT JUMPDEST PUSH1 0x0 PUSH1 0x1F NOT PUSH1 0x1F DUP4 ADD AND SWAP1 POP SWAP2 SWAP1 POP JUMP JUMPDEST PUSH32 0x4E487B7100000000000000000000000000000000000000000000000000000000 PUSH1 0x0 MSTORE PUSH1 0x41 PUSH1 0x4 MSTORE PUSH1 0x24 PUSH1 0x0 REVERT JUMPDEST PUSH2 0x1408 DUP3 PUSH2 0x13BF JUMP JUMPDEST DUP2 ADD DUP2 DUP2 LT PUSH8 0xFFFFFFFFFFFFFFFF DUP3 GT OR ISZERO PUSH2 0x1427 JUMPI PUSH2 0x1426 PUSH2 0x13D0 JUMP JUMPDEST JUMPDEST DUP1 PUSH1 0x40 MSTORE POP POP POP JUMP JUMPDEST PUSH1 0x0 PUSH2 0x143A PUSH2 0x12E2 JUMP JUMPDEST SWAP1 POP PUSH2 0x1446 DUP3 DUP3 PUSH2 0x13FF JUMP JUMPDEST SWAP2 SWAP1 POP JUMP JUMPDEST PUSH1 0x0 PUSH8 0xFFFFFFFFFFFFFFFF DUP3 GT ISZERO PUSH2 0x1466 JUMPI PUSH2 0x1465 PUSH2 0x13D0 JUMP JUMPDEST JUMPDEST PUSH2 0x146F DUP3 PUSH2 0x13BF JUMP JUMPDEST SWAP1 POP PUSH1 0x20 DUP2 ADD SWAP1 POP SWAP2 SWAP1 POP JUMP JUMPDEST DUP3 DUP2 DUP4 CALLDATACOPY PUSH1 0x0 DUP4 DUP4 ADD MSTORE POP POP POP JUMP JUMPDEST PUSH1 0x0 PUSH2 0x149E PUSH2 0x1499 DUP5 PUSH2 0x144B JUMP JUMPDEST PUSH2 0x1430 JUMP JUMPDEST SWAP1 POP DUP3 DUP2 MSTORE PUSH1 0x20 DUP2 ADD DUP5 DUP5 DUP5 ADD GT ISZERO PUSH2 0x14BA JUMPI PUSH2 0x14B9 PUSH2 0x13BA JUMP JUMPDEST JUMPDEST PUSH2 0x14C5 DUP5 DUP3 DUP6 PUSH2 0x147C JUMP JUMPDEST POP SWAP4 SWAP3 POP POP POP JUMP JUMPDEST PUSH1 0x0 DUP3 PUSH1 0x1F DUP4 ADD SLT PUSH2 0x14E2 JUMPI PUSH2 0x14E1 PUSH2 0x13B5 JUMP JUMPDEST JUMPDEST DUP2 CALLDATALOAD PUSH2 0x14F2 DUP5 DUP3 PUSH1 0x20 DUP7 ADD PUSH2 0x148B JUMP JUMPDEST SWAP2 POP POP SWAP3 SWAP2 POP POP JUMP JUMPDEST PUSH1 0x0 PUSH1 0x20 DUP3 DUP5 SUB SLT ISZERO PUSH2 0x1511 JUMPI PUSH2 0x1510 PUSH2 0x12EC JUMP JUMPDEST JUMPDEST PUSH1 0x0 DUP3 ADD CALLDATALOAD PUSH8 0xFFFFFFFFFFFFFFFF DUP2 GT ISZERO PUSH2 0x152F JUMPI PUSH2 0x152E PUSH2 0x12F1 JUMP JUMPDEST JUMPDEST PUSH2 0x153B DUP5 DUP3 DUP6 ADD PUSH2 0x14CD JUMP JUMPDEST SWAP2 POP POP SWAP3 SWAP2 POP POP JUMP JUMPDEST PUSH1 0x0 PUSH2 0xFFFF DUP3 AND SWAP1 POP SWAP2 SWAP1 POP JUMP JUMPDEST PUSH2 0x155B DUP2 PUSH2 0x1544 JUMP JUMPDEST DUP2 EQ PUSH2 0x1566 JUMPI PUSH1 0x0 DUP1 REVERT JUMPDEST POP JUMP JUMPDEST PUSH1 0x0 DUP2 CALLDATALOAD SWAP1 POP PUSH2 0x1578 DUP2 PUSH2 0x1552 JUMP JUMPDEST SWAP3 SWAP2 POP POP JUMP JUMPDEST PUSH1 0x0 PUSH1 0xFF DUP3 AND SWAP1 POP SWAP2 SWAP1 POP JUMP JUMPDEST PUSH2 0x1594 DUP2 PUSH2 0x157E JUMP JUMPDEST DUP2 EQ PUSH2 0x159F JUMPI PUSH1 0x0 DUP1 REVERT JUMPDEST POP JUMP JUMPDEST PUSH1 0x0 DUP2 CALLDATALOAD SWAP1 POP PUSH2 0x15B1 DUP2 PUSH2 0x158B JUMP JUMPDEST SWAP3 SWAP2 POP POP JUMP JUMPDEST PUSH1 0x0 DUP1 PUSH1 0x0 PUSH1 0x60 DUP5 DUP7 SUB SLT ISZERO PUSH2 0x15D0 JUMPI PUSH2 0x15CF PUSH2 0x12EC JUMP JUMPDEST JUMPDEST PUSH1 0x0 PUSH2 0x15DE DUP7 DUP3 DUP8 ADD PUSH2 0x1569 JUMP JUMPDEST SWAP4 POP POP PUSH1 0x20 PUSH2 0x15EF DUP7 DUP3 DUP8 ADD PUSH2 0x15A2 JUMP JUMPDEST SWAP3 POP POP PUSH1 0x40 PUSH2 0x1600 DUP7 DUP3 DUP8 ADD PUSH2 0x15A2 JUMP JUMPDEST SWAP2 POP POP SWAP3 POP SWAP3 POP SWAP3 JUMP JUMPDEST PUSH1 0x0 DUP2 MLOAD SWAP1 POP SWAP2 SWAP1 POP JUMP JUMPDEST PUSH1 0x0 DUP3 DUP3 MSTORE PUSH1 0x20 DUP3 ADD SWAP1 POP SWAP3 SWAP2 POP POP JUMP JUMPDEST PUSH1 0x0 DUP2 SWAP1 POP PUSH1 0x20 DUP3 ADD SWAP1 POP SWAP2 SWAP1 POP JUMP JUMPDEST PUSH2 0x163F DUP2 PUSH2 0x1316 JUMP JUMPDEST DUP3 MSTORE POP POP JUMP JUMPDEST PUSH1 0x0 DUP2 MLOAD SWAP1 POP SWAP2 SWAP1 POP JUMP JUMPDEST PUSH1 0x0 DUP3 DUP3 MSTORE PUSH1 0x20 DUP3 ADD SWAP1 POP SWAP3 SWAP2 POP POP JUMP JUMPDEST PUSH1 0x0 JUMPDEST DUP4 DUP2 LT ISZERO PUSH2 0x167F JUMPI DUP1 DUP3 ADD MLOAD DUP2 DUP5 ADD MSTORE PUSH1 0x20 DUP2 ADD SWAP1 POP PUSH2 0x1664 JUMP JUMPDEST PUSH1 0x0 DUP5 DUP5 ADD MSTORE POP POP POP POP JUMP JUMPDEST PUSH1 0x0 PUSH2 0x1696 DUP3 PUSH2 0x1645 JUMP JUMPDEST PUSH2 0x16A0 DUP2 DUP6 PUSH2 0x1650 JUMP JUMPDEST SWAP4 POP PUSH2 0x16B0 DUP2 DUP6 PUSH1 0x20 DUP7 ADD PUSH2 0x1661 JUMP JUMPDEST PUSH2 0x16B9 DUP2 PUSH2 0x13BF JUMP JUMPDEST DUP5 ADD SWAP2 POP POP SWAP3 SWAP2 POP POP JUMP JUMPDEST PUSH2 0x16CD DUP2 PUSH2 0x1381 JUMP JUMPDEST DUP3 MSTORE POP POP JUMP JUMPDEST PUSH1 0x0 PUSH1 0x80 DUP4 ADD PUSH1 0x0 DUP4 ADD MLOAD PUSH2 0x16EB PUSH1 0x0 DUP7 ADD DUP3 PUSH2 0x1636 JUMP JUMPDEST POP PUSH1 0x20 DUP4 ADD MLOAD DUP5 DUP3 SUB PUSH1 0x20 DUP7 ADD MSTORE PUSH2 0x1703 DUP3 DUP3 PUSH2 0x168B JUMP JUMPDEST SWAP2 POP POP PUSH1 0x40 DUP4 ADD MLOAD PUSH2 0x1718 PUSH1 0x40 DUP7 ADD DUP3 PUSH2 0x16C4 JUMP JUMPDEST POP PUSH1 0x60 DUP4 ADD MLOAD PUSH2 0x172B PUSH1 0x60 DUP7 ADD DUP3 PUSH2 0x16C4 JUMP JUMPDEST POP DUP1 SWAP2 POP POP SWAP3 SWAP2 POP POP JUMP JUMPDEST PUSH1 0x0 PUSH2 0x1742 DUP4 DUP4 PUSH2 0x16D3 JUMP JUMPDEST SWAP1 POP SWAP3 SWAP2 POP POP JUMP JUMPDEST PUSH1 0x0 PUSH1 0x20 DUP3 ADD SWAP1 POP SWAP2 SWAP1 POP JUMP JUMPDEST PUSH1 0x0 PUSH2 0x1762 DUP3 PUSH2 0x160A JUMP JUMPDEST PUSH2 0x176C DUP2 DUP6 PUSH2 0x1615 JUMP JUMPDEST SWAP4 POP DUP4 PUSH1 0x20 DUP3 MUL DUP6 ADD PUSH2 0x177E DUP6 PUSH2 0x1626 JUMP JUMPDEST DUP1 PUSH1 0x0 JUMPDEST DUP6 DUP2 LT ISZERO PUSH2 0x17BA JUMPI DUP5 DUP5 SUB DUP10 MSTORE DUP2 MLOAD PUSH2 0x179B DUP6 DUP3 PUSH2 0x1736 JUMP JUMPDEST SWAP5 POP PUSH2 0x17A6 DUP4 PUSH2 0x174A JUMP JUMPDEST SWAP3 POP PUSH1 0x20 DUP11 ADD SWAP10 POP POP PUSH1 0x1 DUP2 ADD SWAP1 POP PUSH2 0x1782 JUMP JUMPDEST POP DUP3 SWAP8 POP DUP8 SWAP6 POP POP POP POP POP POP SWAP3 SWAP2 POP POP JUMP JUMPDEST PUSH1 0x0 PUSH1 0x20 DUP3 ADD SWAP1 POP DUP2 DUP2 SUB PUSH1 0x0 DUP4 ADD MSTORE PUSH2 0x17E6 DUP2 DUP5 PUSH2 0x1757 JUMP JUMPDEST SWAP1 POP SWAP3 SWAP2 POP POP JUMP JUMPDEST PUSH2 0x17F7 DUP2 PUSH2 0x1381 JUMP JUMPDEST DUP2 EQ PUSH2 0x1802 JUMPI PUSH1 0x0 DUP1 REVERT JUMPDEST POP JUMP JUMPDEST PUSH1 0x0 DUP2 CALLDATALOAD SWAP1 POP PUSH2 0x1814 DUP2 PUSH2 0x17EE JUMP JUMPDEST SWAP3 SWAP2 POP POP JUMP JUMPDEST PUSH1 0x0 PUSH1 0x20 DUP3 DUP5 SUB SLT ISZERO PUSH2 0x1830 JUMPI PUSH2 0x182F PUSH2 0x12EC JUMP JUMPDEST JUMPDEST PUSH1 0x0 PUSH2 0x183E DUP5 DUP3 DUP6 ADD PUSH2 0x1805 JUMP JUMPDEST SWAP2 POP POP SWAP3 SWAP2 POP POP JUMP JUMPDEST PUSH2 0x1850 DUP2 PUSH2 0x1544 JUMP JUMPDEST DUP3 MSTORE POP POP JUMP JUMPDEST PUSH2 0x185F DUP2 PUSH2 0x157E JUMP JUMPDEST DUP3 MSTORE POP POP JUMP JUMPDEST PUSH1 0x0 PUSH1 0x60 DUP3 ADD SWAP1 POP PUSH2 0x187A PUSH1 0x0 DUP4 ADD DUP7 PUSH2 0x1847 JUMP JUMPDEST PUSH2 0x1887 PUSH1 0x20 DUP4 ADD DUP6 PUSH2 0x1856 JUMP JUMPDEST PUSH2 0x1894 PUSH1 0x40 DUP4 ADD DUP5 PUSH2 0x1856 JUMP JUMPDEST SWAP5 SWAP4 POP POP POP POP JUMP JUMPDEST PUSH1 0x0 DUP1 REVERT JUMPDEST PUSH1 0x0 DUP1 REVERT JUMPDEST PUSH1 0x0 PUSH1 0x80 DUP3 DUP5 SUB SLT ISZERO PUSH2 0x18BC JUMPI PUSH2 0x18BB PUSH2 0x189C JUMP JUMPDEST JUMPDEST PUSH2 0x18C6 PUSH1 0x80 PUSH2 0x1430 JUMP JUMPDEST SWAP1 POP PUSH1 0x0 PUSH2 0x18D6 DUP5 DUP3 DUP6 ADD PUSH2 0x133F JUMP JUMPDEST PUSH1 0x0 DUP4 ADD MSTORE POP PUSH1 0x20 DUP3 ADD CALLDATALOAD PUSH8 0xFFFFFFFFFFFFFFFF DUP2 GT ISZERO PUSH2 0x18FA JUMPI PUSH2 0x18F9 PUSH2 0x18A1 JUMP JUMPDEST JUMPDEST PUSH2 0x1906 DUP5 DUP3 DUP6 ADD PUSH2 0x14CD JUMP JUMPDEST PUSH1 0x20 DUP4 ADD MSTORE POP PUSH1 0x40 PUSH2 0x191A DUP5 DUP3 DUP6 ADD PUSH2 0x1805 JUMP JUMPDEST PUSH1 0x40 DUP4 ADD MSTORE POP PUSH1 0x60 PUSH2 0x192E DUP5 DUP3 DUP6 ADD PUSH2 0x1805 JUMP JUMPDEST PUSH1 0x60 DUP4 ADD MSTORE POP SWAP3 SWAP2 POP POP JUMP JUMPDEST PUSH1 0x0 DUP1 PUSH1 0x40 DUP4 DUP6 SUB SLT ISZERO PUSH2 0x1951 JUMPI PUSH2 0x1950 PUSH2 0x12EC JUMP JUMPDEST JUMPDEST PUSH1 0x0 DUP4 ADD CALLDATALOAD PUSH8 0xFFFFFFFFFFFFFFFF DUP2 GT ISZERO PUSH2 0x196F JUMPI PUSH2 0x196E PUSH2 0x12F1 JUMP JUMPDEST JUMPDEST PUSH2 0x197B DUP6 DUP3 DUP7 ADD PUSH2 0x18A6 JUMP JUMPDEST SWAP3 POP POP PUSH1 0x20 PUSH2 0x198C DUP6 DUP3 DUP7 ADD PUSH2 0x1805 JUMP JUMPDEST SWAP2 POP POP SWAP3 POP SWAP3 SWAP1 POP JUMP JUMPDEST PUSH2 0x199F DUP2 PUSH2 0x1316 JUMP JUMPDEST DUP3 MSTORE POP POP JUMP JUMPDEST PUSH1 0x0 PUSH1 0x20 DUP3 ADD SWAP1 POP PUSH2 0x19BA PUSH1 0x0 DUP4 ADD DUP5 PUSH2 0x1996 JUMP JUMPDEST SWAP3 SWAP2 POP POP JUMP JUMPDEST PUSH1 0x0 PUSH8 0xFFFFFFFFFFFFFFFF DUP3 GT ISZERO PUSH2 0x19DB JUMPI PUSH2 0x19DA PUSH2 0x13D0 JUMP JUMPDEST JUMPDEST PUSH2 0x19E4 DUP3 PUSH2 0x13BF JUMP JUMPDEST SWAP1 POP PUSH1 0x20 DUP2 ADD SWAP1 POP SWAP2 SWAP1 POP JUMP JUMPDEST PUSH1 0x0 PUSH2 0x1A04 PUSH2 0x19FF DUP5 PUSH2 0x19C0 JUMP JUMPDEST PUSH2 0x1430 JUMP JUMPDEST SWAP1 POP DUP3 DUP2 MSTORE PUSH1 0x20 DUP2 ADD DUP5 DUP5 DUP5 ADD GT ISZERO PUSH2 0x1A20 JUMPI PUSH2 0x1A1F PUSH2 0x13BA JUMP JUMPDEST JUMPDEST PUSH2 0x1A2B DUP5 DUP3 DUP6 PUSH2 0x147C JUMP JUMPDEST POP SWAP4 SWAP3 POP POP POP JUMP JUMPDEST PUSH1 0x0 DUP3 PUSH1 0x1F DUP4 ADD SLT PUSH2 0x1A48 JUMPI PUSH2 0x1A47 PUSH2 0x13B5 JUMP JUMPDEST JUMPDEST DUP2 CALLDATALOAD PUSH2 0x1A58 DUP5 DUP3 PUSH1 0x20 DUP7 ADD PUSH2 0x19F1 JUMP JUMPDEST SWAP2 POP POP SWAP3 SWAP2 POP POP JUMP JUMPDEST PUSH1 0x0 DUP1 PUSH1 0x0 DUP1 PUSH1 0x80 DUP6 DUP8 SUB SLT ISZERO PUSH2 0x1A7B JUMPI PUSH2 0x1A7A PUSH2 0x12EC JUMP JUMPDEST JUMPDEST PUSH1 0x0 DUP6 ADD CALLDATALOAD PUSH8 0xFFFFFFFFFFFFFFFF DUP2 GT ISZERO PUSH2 0x1A99 JUMPI PUSH2 0x1A98 PUSH2 0x12F1 JUMP JUMPDEST JUMPDEST PUSH2 0x1AA5 DUP8 DUP3 DUP9 ADD PUSH2 0x14CD JUMP JUMPDEST SWAP5 POP POP PUSH1 0x20 PUSH2 0x1AB6 DUP8 DUP3 DUP9 ADD PUSH2 0x1805 JUMP JUMPDEST SWAP4 POP POP PUSH1 0x40 DUP6 ADD CALLDATALOAD PUSH8 0xFFFFFFFFFFFFFFFF DUP2 GT ISZERO PUSH2 0x1AD7 JUMPI PUSH2 0x1AD6 PUSH2 0x12F1 JUMP JUMPDEST JUMPDEST PUSH2 0x1AE3 DUP8 DUP3 DUP9 ADD PUSH2 0x1A33 JUMP JUMPDEST SWAP3 POP POP PUSH1 0x60 DUP6 ADD CALLDATALOAD PUSH8 0xFFFFFFFFFFFFFFFF DUP2 GT ISZERO PUSH2 0x1B04 JUMPI PUSH2 0x1B03 PUSH2 0x12F1 JUMP JUMPDEST JUMPDEST PUSH2 0x1B10 DUP8 DUP3 DUP9 ADD PUSH2 0x14CD JUMP JUMPDEST SWAP2 POP POP SWAP3 SWAP6 SWAP2 SWAP5 POP SWAP3 POP JUMP JUMPDEST PUSH1 0x0 DUP3 DUP3 MSTORE PUSH1 0x20 DUP3 ADD SWAP1 POP SWAP3 SWAP2 POP POP JUMP JUMPDEST PUSH1 0x0 PUSH2 0x1B38 DUP3 PUSH2 0x1645 JUMP JUMPDEST PUSH2 0x1B42 DUP2 DUP6 PUSH2 0x1B1C JUMP JUMPDEST SWAP4 POP PUSH2 0x1B52 DUP2 DUP6 PUSH1 0x20 DUP7 ADD PUSH2 0x1661 JUMP JUMPDEST PUSH2 0x1B5B DUP2 PUSH2 0x13BF JUMP JUMPDEST DUP5 ADD SWAP2 POP POP SWAP3 SWAP2 POP POP JUMP JUMPDEST PUSH1 0x0 DUP2 ISZERO ISZERO SWAP1 POP SWAP2 SWAP1 POP JUMP JUMPDEST PUSH2 0x1B7B DUP2 PUSH2 0x1B66 JUMP JUMPDEST DUP3 MSTORE POP POP JUMP JUMPDEST PUSH1 0x0 PUSH1 0x40 DUP3 ADD SWAP1 POP DUP2 DUP2 SUB PUSH1 0x0 DUP4 ADD MSTORE PUSH2 0x1B9B DUP2 DUP6 PUSH2 0x1B2D JUMP JUMPDEST SWAP1 POP PUSH2 0x1BAA PUSH1 0x20 DUP4 ADD DUP5 PUSH2 0x1B72 JUMP JUMPDEST SWAP4 SWAP3 POP POP POP JUMP JUMPDEST PUSH1 0x0 PUSH1 0x20 DUP3 DUP5 SUB SLT ISZERO PUSH2 0x1BC7 JUMPI PUSH2 0x1BC6 PUSH2 0x12EC JUMP JUMPDEST JUMPDEST PUSH1 0x0 DUP3 ADD CALLDATALOAD PUSH8 0xFFFFFFFFFFFFFFFF DUP2 GT ISZERO PUSH2 0x1BE5 JUMPI PUSH2 0x1BE4 PUSH2 0x12F1 JUMP JUMPDEST JUMPDEST PUSH2 0x1BF1 DUP5 DUP3 DUP6 ADD PUSH2 0x1A33 JUMP JUMPDEST SWAP2 POP POP SWAP3 SWAP2 POP POP JUMP JUMPDEST PUSH1 0x0 DUP2 MLOAD SWAP1 POP SWAP2 SWAP1 POP JUMP JUMPDEST PUSH1 0x0 DUP3 DUP3 MSTORE PUSH1 0x20 DUP3 ADD SWAP1 POP SWAP3 SWAP2 POP POP JUMP JUMPDEST PUSH1 0x0 PUSH2 0x1C21 DUP3 PUSH2 0x1BFA JUMP JUMPDEST PUSH2 0x1C2B DUP2 DUP6 PUSH2 0x1C05 JUMP JUMPDEST SWAP4 POP PUSH2 0x1C3B DUP2 DUP6 PUSH1 0x20 DUP7 ADD PUSH2 0x1661 JUMP JUMPDEST PUSH2 0x1C44 DUP2 PUSH2 0x13BF JUMP JUMPDEST DUP5 ADD SWAP2 POP POP SWAP3 SWAP2 POP POP JUMP JUMPDEST PUSH1 0x0 PUSH1 0x20 DUP3 ADD SWAP1 POP DUP2 DUP2 SUB PUSH1 0x0 DUP4 ADD MSTORE PUSH2 0x1C69 DUP2 DUP5 PUSH2 0x1C16 JUMP JUMPDEST SWAP1 POP SWAP3 SWAP2 POP POP JUMP JUMPDEST PUSH1 0x0 PUSH1 0x80 DUP4 ADD PUSH1 0x0 DUP4 ADD MLOAD PUSH2 0x1C89 PUSH1 0x0 DUP7 ADD DUP3 PUSH2 0x1636 JUMP JUMPDEST POP PUSH1 0x20 DUP4 ADD MLOAD DUP5 DUP3 SUB PUSH1 0x20 DUP7 ADD MSTORE PUSH2 0x1CA1 DUP3 DUP3 PUSH2 0x168B JUMP JUMPDEST SWAP2 POP POP PUSH1 0x40 DUP4 ADD MLOAD PUSH2 0x1CB6 PUSH1 0x40 DUP7 ADD DUP3 PUSH2 0x16C4 JUMP JUMPDEST POP PUSH1 0x60 DUP4 ADD MLOAD PUSH2 0x1CC9 PUSH1 0x60 DUP7 ADD DUP3 PUSH2 0x16C4 JUMP JUMPDEST POP DUP1 SWAP2 POP POP SWAP3 SWAP2 POP POP JUMP JUMPDEST PUSH1 0x0 PUSH1 0x20 DUP3 ADD SWAP1 POP DUP2 DUP2 SUB PUSH1 0x0 DUP4 ADD MSTORE PUSH2 0x1CEE DUP2 DUP5 PUSH2 0x1C71 JUMP JUMPDEST SWAP1 POP SWAP3 SWAP2 POP POP JUMP JUMPDEST PUSH1 0x0 DUP2 SWAP1 POP SWAP3 SWAP2 POP POP JUMP JUMPDEST PUSH1 0x0 PUSH2 0x1D0C DUP3 PUSH2 0x1BFA JUMP JUMPDEST PUSH2 0x1D16 DUP2 DUP6 PUSH2 0x1CF6 JUMP JUMPDEST SWAP4 POP PUSH2 0x1D26 DUP2 DUP6 PUSH1 0x20 DUP7 ADD PUSH2 0x1661 JUMP JUMPDEST DUP1 DUP5 ADD SWAP2 POP POP SWAP3 SWAP2 POP POP JUMP JUMPDEST PUSH1 0x0 PUSH2 0x1D3E DUP3 DUP5 PUSH2 0x1D01 JUMP JUMPDEST SWAP2 POP DUP2 SWAP1 POP SWAP3 SWAP2 POP POP JUMP JUMPDEST PUSH32 0x4E487B7100000000000000000000000000000000000000000000000000000000 PUSH1 0x0 MSTORE PUSH1 0x22 PUSH1 0x4 MSTORE PUSH1 0x24 PUSH1 0x0 REVERT JUMPDEST PUSH1 0x0 PUSH1 0x2 DUP3 DIV SWAP1 POP PUSH1 0x1 DUP3 AND DUP1 PUSH2 0x1D90 JUMPI PUSH1 0x7F DUP3 AND SWAP2 POP JUMPDEST PUSH1 0x20 DUP3 LT DUP2 SUB PUSH2 0x1DA3 JUMPI PUSH2 0x1DA2 PUSH2 0x1D49 JUMP JUMPDEST JUMPDEST POP SWAP2 SWAP1 POP JUMP JUMPDEST PUSH32 0x4C6561646572626F617264206E6F7420666F756E6420666F7220746865207370 PUSH1 0x0 DUP3 ADD MSTORE PUSH32 0x6563696669656420646174650000000000000000000000000000000000000000 PUSH1 0x20 DUP3 ADD MSTORE POP JUMP JUMPDEST PUSH1 0x0 PUSH2 0x1E05 PUSH1 0x2C DUP4 PUSH2 0x1B1C JUMP JUMPDEST SWAP2 POP PUSH2 0x1E10 DUP3 PUSH2 0x1DA9 JUMP JUMPDEST PUSH1 0x40 DUP3 ADD SWAP1 POP SWAP2 SWAP1 POP JUMP JUMPDEST PUSH1 0x0 PUSH1 0x20 DUP3 ADD SWAP1 POP DUP2 DUP2 SUB PUSH1 0x0 DUP4 ADD MSTORE PUSH2 0x1E34 DUP2 PUSH2 0x1DF8 JUMP JUMPDEST SWAP1 POP SWAP2 SWAP1 POP JUMP JUMPDEST PUSH1 0x0 PUSH8 0xFFFFFFFFFFFFFFFF DUP3 GT ISZERO PUSH2 0x1E56 JUMPI PUSH2 0x1E55 PUSH2 0x13D0 JUMP JUMPDEST JUMPDEST PUSH1 0x20 DUP3 MUL SWAP1 POP PUSH1 0x20 DUP2 ADD SWAP1 POP SWAP2 SWAP1 POP JUMP JUMPDEST PUSH1 0x0 DUP1 REVERT JUMPDEST PUSH1 0x0 DUP2 MLOAD SWAP1 POP PUSH2 0x1E7B DUP2 PUSH2 0x1328 JUMP JUMPDEST SWAP3 SWAP2 POP POP JUMP JUMPDEST PUSH1 0x0 PUSH2 0x1E94 PUSH2 0x1E8F DUP5 PUSH2 0x144B JUMP JUMPDEST PUSH2 0x1430 JUMP JUMPDEST SWAP1 POP DUP3 DUP2 MSTORE PUSH1 0x20 DUP2 ADD DUP5 DUP5 DUP5 ADD GT ISZERO PUSH2 0x1EB0 JUMPI PUSH2 0x1EAF PUSH2 0x13BA JUMP JUMPDEST JUMPDEST PUSH2 0x1EBB DUP5 DUP3 DUP6 PUSH2 0x1661 JUMP JUMPDEST POP SWAP4 SWAP3 POP POP POP JUMP JUMPDEST PUSH1 0x0 DUP3 PUSH1 0x1F DUP4 ADD SLT PUSH2 0x1ED8 JUMPI PUSH2 0x1ED7 PUSH2 0x13B5 JUMP JUMPDEST JUMPDEST DUP2 MLOAD PUSH2 0x1EE8 DUP5 DUP3 PUSH1 0x20 DUP7 ADD PUSH2 0x1E81 JUMP JUMPDEST SWAP2 POP POP SWAP3 SWAP2 POP POP JUMP JUMPDEST PUSH1 0x0 DUP2 MLOAD SWAP1 POP PUSH2 0x1F00 DUP2 PUSH2 0x17EE JUMP JUMPDEST SWAP3 SWAP2 POP POP JUMP JUMPDEST PUSH1 0x0 PUSH1 0x80 DUP3 DUP5 SUB SLT ISZERO PUSH2 0x1F1C JUMPI PUSH2 0x1F1B PUSH2 0x189C JUMP JUMPDEST JUMPDEST PUSH2 0x1F26 PUSH1 0x80 PUSH2 0x1430 JUMP JUMPDEST SWAP1 POP PUSH1 0x0 PUSH2 0x1F36 DUP5 DUP3 DUP6 ADD PUSH2 0x1E6C JUMP JUMPDEST PUSH1 0x0 DUP4 ADD MSTORE POP PUSH1 0x20 DUP3 ADD MLOAD PUSH8 0xFFFFFFFFFFFFFFFF DUP2 GT ISZERO PUSH2 0x1F5A JUMPI PUSH2 0x1F59 PUSH2 0x18A1 JUMP JUMPDEST JUMPDEST PUSH2 0x1F66 DUP5 DUP3 DUP6 ADD PUSH2 0x1EC3 JUMP JUMPDEST PUSH1 0x20 DUP4 ADD MSTORE POP PUSH1 0x40 PUSH2 0x1F7A DUP5 DUP3 DUP6 ADD PUSH2 0x1EF1 JUMP JUMPDEST PUSH1 0x40 DUP4 ADD MSTORE POP PUSH1 0x60 PUSH2 0x1F8E DUP5 DUP3 DUP6 ADD PUSH2 0x1EF1 JUMP JUMPDEST PUSH1 0x60 DUP4 ADD MSTORE POP SWAP3 SWAP2 POP POP JUMP JUMPDEST PUSH1 0x0 PUSH2 0x1FAD PUSH2 0x1FA8 DUP5 PUSH2 0x1E3B JUMP JUMPDEST PUSH2 0x1430 JUMP JUMPDEST SWAP1 POP DUP1 DUP4 DUP3 MSTORE PUSH1 0x20 DUP3 ADD SWAP1 POP PUSH1 0x20 DUP5 MUL DUP4 ADD DUP6 DUP2 GT ISZERO PUSH2 0x1FD0 JUMPI PUSH2 0x1FCF PUSH2 0x1E67 JUMP JUMPDEST JUMPDEST DUP4 JUMPDEST DUP2 DUP2 LT ISZERO PUSH2 0x2017 JUMPI DUP1 MLOAD PUSH8 0xFFFFFFFFFFFFFFFF DUP2 GT ISZERO PUSH2 0x1FF5 JUMPI PUSH2 0x1FF4 PUSH2 0x13B5 JUMP JUMPDEST JUMPDEST DUP1 DUP7 ADD PUSH2 0x2002 DUP10 DUP3 PUSH2 0x1F06 JUMP JUMPDEST DUP6 MSTORE PUSH1 0x20 DUP6 ADD SWAP5 POP POP POP PUSH1 0x20 DUP2 ADD SWAP1 POP PUSH2 0x1FD2 JUMP JUMPDEST POP POP POP SWAP4 SWAP3 POP POP POP JUMP JUMPDEST PUSH1 0x0 DUP3 PUSH1 0x1F DUP4 ADD SLT PUSH2 0x2036 JUMPI PUSH2 0x2035 PUSH2 0x13B5 JUMP JUMPDEST JUMPDEST DUP2 MLOAD PUSH2 0x2046 DUP5 DUP3 PUSH1 0x20 DUP7 ADD PUSH2 0x1F9A JUMP JUMPDEST SWAP2 POP POP SWAP3 SWAP2 POP POP JUMP JUMPDEST PUSH1 0x0 PUSH1 0x20 DUP3 DUP5 SUB SLT ISZERO PUSH2 0x2065 JUMPI PUSH2 0x2064 PUSH2 0x12EC JUMP JUMPDEST JUMPDEST PUSH1 0x0 DUP3 ADD MLOAD PUSH8 0xFFFFFFFFFFFFFFFF DUP2 GT ISZERO PUSH2 0x2083 JUMPI PUSH2 0x2082 PUSH2 0x12F1 JUMP JUMPDEST JUMPDEST PUSH2 0x208F DUP5 DUP3 DUP6 ADD PUSH2 0x2021 JUMP JUMPDEST SWAP2 POP POP SWAP3 SWAP2 POP POP JUMP JUMPDEST PUSH32 0x4F6E6C792074686520636F6E7472616374206F776E65722063616E2063616C6C PUSH1 0x0 DUP3 ADD MSTORE PUSH32 0x20746869732066756E6374696F6E2E0000000000000000000000000000000000 PUSH1 0x20 DUP3 ADD MSTORE POP JUMP JUMPDEST PUSH1 0x0 PUSH2 0x20F4 PUSH1 0x2F DUP4 PUSH2 0x1B1C JUMP JUMPDEST SWAP2 POP PUSH2 0x20FF DUP3 PUSH2 0x2098 JUMP JUMPDEST PUSH1 0x40 DUP3 ADD SWAP1 POP SWAP2 SWAP1 POP JUMP JUMPDEST PUSH1 0x0 PUSH1 0x20 DUP3 ADD SWAP1 POP DUP2 DUP2 SUB PUSH1 0x0 DUP4 ADD MSTORE PUSH2 0x2123 DUP2 PUSH2 0x20E7 JUMP JUMPDEST SWAP1 POP SWAP2 SWAP1 POP JUMP JUMPDEST PUSH1 0x0 DUP2 MLOAD SWAP1 POP PUSH2 0x2139 DUP2 PUSH2 0x1552 JUMP JUMPDEST SWAP3 SWAP2 POP POP JUMP JUMPDEST PUSH1 0x0 PUSH1 0x20 DUP3 DUP5 SUB SLT ISZERO PUSH2 0x2155 JUMPI PUSH2 0x2154 PUSH2 0x12EC JUMP JUMPDEST JUMPDEST PUSH1 0x0 PUSH2 0x2163 DUP5 DUP3 DUP6 ADD PUSH2 0x212A JUMP JUMPDEST SWAP2 POP POP SWAP3 SWAP2 POP POP JUMP JUMPDEST PUSH1 0x0 DUP2 MLOAD SWAP1 POP PUSH2 0x217B DUP2 PUSH2 0x158B JUMP JUMPDEST SWAP3 SWAP2 POP POP JUMP JUMPDEST PUSH1 0x0 PUSH1 0x20 DUP3 DUP5 SUB SLT ISZERO PUSH2 0x2197 JUMPI PUSH2 0x2196 PUSH2 0x12EC JUMP JUMPDEST JUMPDEST PUSH1 0x0 PUSH2 0x21A5 DUP5 DUP3 DUP6 ADD PUSH2 0x216C JUMP JUMPDEST SWAP2 POP POP SWAP3 SWAP2 POP POP JUMP JUMPDEST PUSH32 0x4E487B7100000000000000000000000000000000000000000000000000000000 PUSH1 0x0 MSTORE PUSH1 0x32 PUSH1 0x4 MSTORE PUSH1 0x24 PUSH1 0x0 REVERT JUMPDEST PUSH32 0x4E487B7100000000000000000000000000000000000000000000000000000000 PUSH1 0x0 MSTORE PUSH1 0x11 PUSH1 0x4 MSTORE PUSH1 0x24 PUSH1 0x0 REVERT JUMPDEST PUSH1 0x0 PUSH2 0x2217 DUP3 PUSH2 0x1381 JUMP JUMPDEST SWAP2 POP PUSH32 0xFFFFFFFFFFFFFFFFFFFFFFFFFFFFFFFFFFFFFFFFFFFFFFFFFFFFFFFFFFFFFFFF DUP3 SUB PUSH2 0x2249 JUMPI PUSH2 0x2248 PUSH2 0x21DD JUMP JUMPDEST JUMPDEST PUSH1 0x1 DUP3 ADD SWAP1 POP SWAP2 SWAP1 POP JUMP JUMPDEST PUSH1 0x0 PUSH2 0x225F DUP3 PUSH2 0x1381 JUMP JUMPDEST SWAP2 POP PUSH2 0x226A DUP4 PUSH2 0x1381 JUMP JUMPDEST SWAP3 POP DUP3 DUP3 ADD SWAP1 POP DUP1 DUP3 GT ISZERO PUSH2 0x2282 JUMPI PUSH2 0x2281 PUSH2 0x21DD JUMP JUMPDEST JUMPDEST SWAP3 SWAP2 POP POP JUMP JUMPDEST PUSH1 0x0 PUSH1 0x20 DUP3 DUP5 SUB SLT ISZERO PUSH2 0x229E JUMPI PUSH2 0x229D PUSH2 0x12EC JUMP JUMPDEST JUMPDEST PUSH1 0x0 PUSH2 0x22AC DUP5 DUP3 DUP6 ADD PUSH2 0x1E6C JUMP JUMPDEST SWAP2 POP POP SWAP3 SWAP2 POP POP JUMP JUMPDEST PUSH1 0x0 PUSH2 0x22C8 PUSH2 0x22C3 DUP5 PUSH2 0x19C0 JUMP JUMPDEST PUSH2 0x1430 JUMP JUMPDEST SWAP1 POP DUP3 DUP2 MSTORE PUSH1 0x20 DUP2 ADD DUP5 DUP5 DUP5 ADD GT ISZERO PUSH2 0x22E4 JUMPI PUSH2 0x22E3 PUSH2 0x13BA JUMP JUMPDEST JUMPDEST PUSH2 0x22EF DUP5 DUP3 DUP6 PUSH2 0x1661 JUMP JUMPDEST POP SWAP4 SWAP3 POP POP POP JUMP JUMPDEST PUSH1 0x0 DUP3 PUSH1 0x1F DUP4 ADD SLT PUSH2 0x230C JUMPI PUSH2 0x230B PUSH2 0x13B5 JUMP JUMPDEST JUMPDEST DUP2 MLOAD PUSH2 0x231C DUP5 DUP3 PUSH1 0x20 DUP7 ADD PUSH2 0x22B5 JUMP JUMPDEST SWAP2 POP POP SWAP3 SWAP2 POP POP JUMP JUMPDEST PUSH1 0x0 PUSH1 0x20 DUP3 DUP5 SUB SLT ISZERO PUSH2 0x233B JUMPI PUSH2 0x233A PUSH2 0x12EC JUMP JUMPDEST JUMPDEST PUSH1 0x0 DUP3 ADD MLOAD PUSH8 0xFFFFFFFFFFFFFFFF DUP2 GT ISZERO PUSH2 0x2359 JUMPI PUSH2 0x2358 PUSH2 0x12F1 JUMP JUMPDEST JUMPDEST PUSH2 0x2365 DUP5 DUP3 DUP6 ADD PUSH2 0x22F7 JUMP JUMPDEST SWAP2 POP POP SWAP3 SWAP2 POP POP JUMP JUMPDEST PUSH1 0x0 DUP2 SWAP1 POP PUSH1 0x20 DUP3 ADD SWAP1 POP SWAP2 SWAP1 POP JUMP JUMPDEST PUSH1 0x0 DUP2 SWAP1 POP SWAP2 SWAP1 POP JUMP JUMPDEST PUSH1 0x0 PUSH2 0x2394 DUP3 MLOAD PUSH2 0x237E JUMP JUMPDEST DUP1 SWAP2 POP POP SWAP2 SWAP1 POP JUMP JUMPDEST PUSH1 0x0 DUP3 DUP3 SHL SWAP1 POP SWAP3 SWAP2 POP POP JUMP JUMPDEST PUSH1 0x0 PUSH2 0x23B5 DUP3 PUSH2 0x1BFA JUMP JUMPDEST DUP3 PUSH2 0x23BF DUP5 PUSH2 0x236E JUMP JUMPDEST SWAP1 POP PUSH2 0x23CA DUP2 PUSH2 0x2388 JUMP JUMPDEST SWAP3 POP PUSH1 0x20 DUP3 LT ISZERO PUSH2 0x240A JUMPI PUSH2 0x2405 PUSH32 0xFFFFFFFFFFFFFFFFFFFFFFFFFFFFFFFFFFFFFFFFFFFFFFFFFFFFFFFFFFFFFFFF DUP4 PUSH1 0x20 SUB PUSH1 0x8 MUL PUSH2 0x239D JUMP JUMPDEST DUP4 AND SWAP3 POP JUMPDEST POP POP SWAP2 SWAP1 POP JUMP JUMPDEST PUSH1 0x0 PUSH1 0x40 DUP3 ADD SWAP1 POP PUSH2 0x2426 PUSH1 0x0 DUP4 ADD DUP6 PUSH2 0x1996 JUMP JUMPDEST DUP2 DUP2 SUB PUSH1 0x20 DUP4 ADD MSTORE PUSH2 0x2438 DUP2 DUP5 PUSH2 0x1B2D JUMP JUMPDEST SWAP1 POP SWAP4 SWAP3 POP POP POP JUMP JUMPDEST PUSH1 0x0 DUP2 SWAP1 POP SWAP3 SWAP2 POP POP JUMP JUMPDEST PUSH1 0x0 PUSH2 0x2457 DUP3 PUSH2 0x1645 JUMP JUMPDEST PUSH2 0x2461 DUP2 DUP6 PUSH2 0x2441 JUMP JUMPDEST SWAP4 POP PUSH2 0x2471 DUP2 DUP6 PUSH1 0x20 DUP7 ADD PUSH2 0x1661 JUMP JUMPDEST DUP1 DUP5 ADD SWAP2 POP POP SWAP3 SWAP2 POP POP JUMP JUMPDEST PUSH1 0x0 PUSH2 0x2489 DUP3 DUP5 PUSH2 0x244C JUMP JUMPDEST SWAP2 POP DUP2 SWAP1 POP SWAP3 SWAP2 POP POP JUMP JUMPDEST PUSH1 0x0 PUSH1 0x60 DUP3 ADD SWAP1 POP PUSH2 0x24A9 PUSH1 0x0 DUP4 ADD DUP7 PUSH2 0x1B72 JUMP JUMPDEST PUSH2 0x24B6 PUSH1 0x20 DUP4 ADD DUP6 PUSH2 0x138B JUMP JUMPDEST PUSH2 0x24C3 PUSH1 0x40 DUP4 ADD DUP5 PUSH2 0x138B JUMP JUMPDEST SWAP5 SWAP4 POP POP POP POP JUMP JUMPDEST PUSH1 0x0 PUSH2 0x24D6 DUP3 PUSH2 0x1381 JUMP JUMPDEST SWAP2 POP PUSH2 0x24E1 DUP4 PUSH2 0x1381 JUMP JUMPDEST SWAP3 POP DUP3 DUP3 SUB SWAP1 POP DUP2 DUP2 GT ISZERO PUSH2 0x24F9 JUMPI PUSH2 0x24F8 PUSH2 0x21DD JUMP JUMPDEST JUMPDEST SWAP3 SWAP2 POP POP JUMP JUMPDEST PUSH1 0x0 DUP2 SWAP1 POP SWAP2 SWAP1 POP JUMP JUMPDEST PUSH2 0x251A PUSH2 0x2515 DUP3 PUSH2 0x1381 JUMP JUMPDEST PUSH2 0x24FF JUMP JUMPDEST DUP3 MSTORE POP POP JUMP JUMPDEST PUSH1 0x0 DUP2 SWAP1 POP SWAP2 SWAP1 POP JUMP JUMPDEST PUSH2 0x253B PUSH2 0x2536 DUP3 PUSH2 0x237E JUMP JUMPDEST PUSH2 0x2520 JUMP JUMPDEST DUP3 MSTORE POP POP JUMP JUMPDEST PUSH1 0x0 PUSH2 0x254D DUP3 DUP6 PUSH2 0x2509 JUMP JUMPDEST PUSH1 0x20 DUP3 ADD SWAP2 POP PUSH2 0x255D DUP3 DUP5 PUSH2 0x252A JUMP JUMPDEST PUSH1 0x20 DUP3 ADD SWAP2 POP DUP2 SWAP1 POP SWAP4 SWAP3 POP POP POP JUMP JUMPDEST PUSH32 0x4E487B7100000000000000000000000000000000000000000000000000000000 PUSH1 0x0 MSTORE PUSH1 0x12 PUSH1 0x4 MSTORE PUSH1 0x24 PUSH1 0x0 REVERT JUMPDEST PUSH1 0x0 PUSH2 0x25A7 DUP3 PUSH2 0x1381 JUMP JUMPDEST SWAP2 POP PUSH2 0x25B2 DUP4 PUSH2 0x1381 JUMP JUMPDEST SWAP3 POP DUP3 PUSH2 0x25C2 JUMPI PUSH2 0x25C1 PUSH2 0x256D JUMP JUMPDEST JUMPDEST DUP3 DUP3 MOD SWAP1 POP SWAP3 SWAP2 POP POP JUMP JUMPDEST PUSH1 0x0 DUP2 SWAP1 POP DUP2 PUSH1 0x0 MSTORE PUSH1 0x20 PUSH1 0x0 KECCAK256 SWAP1 POP SWAP2 SWAP1 POP JUMP JUMPDEST PUSH1 0x0 PUSH1 0x20 PUSH1 0x1F DUP4 ADD DIV SWAP1 POP SWAP2 SWAP1 POP JUMP JUMPDEST PUSH1 0x0 PUSH1 0x8 DUP4 MUL PUSH2 0x2622 PUSH32 0xFFFFFFFFFFFFFFFFFFFFFFFFFFFFFFFFFFFFFFFFFFFFFFFFFFFFFFFFFFFFFFFF DUP3 PUSH2 0x239D JUMP JUMPDEST PUSH2 0x262C DUP7 DUP4 PUSH2 0x239D JUMP JUMPDEST SWAP6 POP DUP1 NOT DUP5 AND SWAP4 POP DUP1 DUP7 AND DUP5 OR SWAP3 POP POP POP SWAP4 SWAP3 POP POP POP JUMP JUMPDEST PUSH1 0x0 DUP2 SWAP1 POP SWAP2 SWAP1 POP JUMP JUMPDEST PUSH1 0x0 PUSH2 0x2669 PUSH2 0x2664 PUSH2 0x265F DUP5 PUSH2 0x1381 JUMP JUMPDEST PUSH2 0x2644 JUMP JUMPDEST PUSH2 0x1381 JUMP JUMPDEST SWAP1 POP SWAP2 SWAP1 POP JUMP JUMPDEST PUSH1 0x0 DUP2 SWAP1 POP SWAP2 SWAP1 POP JUMP JUMPDEST PUSH2 0x2683 DUP4 PUSH2 0x264E JUMP JUMPDEST PUSH2 0x2697 PUSH2 0x268F DUP3 PUSH2 0x2670 JUMP JUMPDEST DUP5 DUP5 SLOAD PUSH2 0x25F2 JUMP JUMPDEST DUP3 SSTORE POP POP POP POP JUMP JUMPDEST PUSH1 0x0 SWAP1 JUMP JUMPDEST PUSH2 0x26AC PUSH2 0x269F JUMP JUMPDEST PUSH2 0x26B7 DUP2 DUP5 DUP5 PUSH2 0x267A JUMP JUMPDEST POP POP POP JUMP JUMPDEST JUMPDEST DUP2 DUP2 LT ISZERO PUSH2 0x26DB JUMPI PUSH2 0x26D0 PUSH1 0x0 DUP3 PUSH2 0x26A4 JUMP JUMPDEST PUSH1 0x1 DUP2 ADD SWAP1 POP PUSH2 0x26BD JUMP JUMPDEST POP POP JUMP JUMPDEST PUSH1 0x1F DUP3 GT ISZERO PUSH2 0x2720 JUMPI PUSH2 0x26F1 DUP2 PUSH2 0x25CD JUMP JUMPDEST PUSH2 0x26FA DUP5 PUSH2 0x25E2 JUMP JUMPDEST DUP2 ADD PUSH1 0x20 DUP6 LT ISZERO PUSH2 0x2709 JUMPI DUP2 SWAP1 POP JUMPDEST PUSH2 0x271D PUSH2 0x2715 DUP6 PUSH2 0x25E2 JUMP JUMPDEST DUP4 ADD DUP3 PUSH2 0x26BC JUMP JUMPDEST POP POP JUMPDEST POP POP POP JUMP JUMPDEST PUSH1 0x0 DUP3 DUP3 SHR SWAP1 POP SWAP3 SWAP2 POP POP JUMP JUMPDEST PUSH1 0x0 PUSH2 0x2743 PUSH1 0x0 NOT DUP5 PUSH1 0x8 MUL PUSH2 0x2725 JUMP JUMPDEST NOT DUP1 DUP4 AND SWAP2 POP POP SWAP3 SWAP2 POP POP JUMP JUMPDEST PUSH1 0x0 PUSH2 0x275C DUP4 DUP4 PUSH2 0x2732 JUMP JUMPDEST SWAP2 POP DUP3 PUSH1 0x2 MUL DUP3 OR SWAP1 POP SWAP3 SWAP2 POP POP JUMP JUMPDEST PUSH2 0x2775 DUP3 PUSH2 0x1BFA JUMP JUMPDEST PUSH8 0xFFFFFFFFFFFFFFFF DUP2 GT ISZERO PUSH2 0x278E JUMPI PUSH2 0x278D PUSH2 0x13D0 JUMP JUMPDEST JUMPDEST PUSH2 0x2798 DUP3 SLOAD PUSH2 0x1D78 JUMP JUMPDEST PUSH2 0x27A3 DUP3 DUP3 DUP6 PUSH2 0x26DF JUMP JUMPDEST PUSH1 0x0 PUSH1 0x20 SWAP1 POP PUSH1 0x1F DUP4 GT PUSH1 0x1 DUP2 EQ PUSH2 0x27D6 JUMPI PUSH1 0x0 DUP5 ISZERO PUSH2 0x27C4 JUMPI DUP3 DUP8 ADD MLOAD SWAP1 POP JUMPDEST PUSH2 0x27CE DUP6 DUP3 PUSH2 0x2750 JUMP JUMPDEST DUP7 SSTORE POP PUSH2 0x2836 JUMP JUMPDEST PUSH1 0x1F NOT DUP5 AND PUSH2 0x27E4 DUP7 PUSH2 0x25CD JUMP JUMPDEST PUSH1 0x0 JUMPDEST DUP3 DUP2 LT ISZERO PUSH2 0x280C JUMPI DUP5 DUP10 ADD MLOAD DUP3 SSTORE PUSH1 0x1 DUP3 ADD SWAP2 POP PUSH1 0x20 DUP6 ADD SWAP5 POP PUSH1 0x20 DUP2 ADD SWAP1 POP PUSH2 0x27E7 JUMP JUMPDEST DUP7 DUP4 LT ISZERO PUSH2 0x2829 JUMPI DUP5 DUP10 ADD MLOAD PUSH2 0x2825 PUSH1 0x1F DUP10 AND DUP3 PUSH2 0x2732 JUMP JUMPDEST DUP4 SSTORE POP JUMPDEST PUSH1 0x1 PUSH1 0x2 DUP9 MUL ADD DUP9 SSTORE POP POP POP JUMPDEST POP POP POP POP POP POP JUMP INVALID LOG2 PUSH5 0x6970667358 0x22 SLT KECCAK256 0x4D CODECOPY PUSH14 0xB7886F5D4DB9DCC801A73EAA115E 0xCA PUSH24 0xD4D8B1ADD12F98C23EFFDC024864736F6C63430008120033 "
				},
				"gasEstimates": {
					"creation": {
						"codeDepositCost": "2071200",
						"executionCost": "infinite",
						"totalCost": "infinite"
					},
					"external": {
						"SINGAPORE_TIME_DIFF()": "375",
						"addToLeaderBoard((address,string,uint256,uint256),uint256)": "infinite",
						"gameIdToRandom(string)": "infinite",
						"getDailyWinner()": "infinite",
						"getLeaderBoard()": "infinite",
						"getLeaderBoardByDate(uint16,uint8,uint8)": "infinite",
						"getPersonalBest(address)": "2865",
						"getRandomNumber(string)": "infinite",
						"getYearMonthDate(uint256)": "infinite",
						"leaderBoardByDate(bytes)": "infinite",
						"owner()": "2537",
						"playerPersonalBest(address)": "2859",
						"setGameContractAddress(address)": "26937",
						"verify2048game(string,uint256,bytes,string)": "infinite"
					},
					"internal": {
						"setDailyLeaderBoard(uint16,uint8,uint8,struct KaijuGameFactory.gameObject memory[] memory)": "infinite",
						"sortArray(struct KaijuGameFactory.gameObject memory[] memory)": "infinite"
					}
				},
				"methodIdentifiers": {
					"SINGAPORE_TIME_DIFF()": "312c5866",
					"addToLeaderBoard((address,string,uint256,uint256),uint256)": "7d6b1b2a",
					"gameIdToRandom(string)": "4fe815cd",
					"getDailyWinner()": "d88a4804",
					"getLeaderBoard()": "c29d72bc",
					"getLeaderBoardByDate(uint16,uint8,uint8)": "6b2a95c9",
					"getPersonalBest(address)": "165402f0",
					"getRandomNumber(string)": "d305843c",
					"getYearMonthDate(uint256)": "79aecd79",
					"leaderBoardByDate(bytes)": "cb15930d",
					"owner()": "8da5cb5b",
					"playerPersonalBest(address)": "9b9413d5",
					"setGameContractAddress(address)": "77f08cd6",
					"verify2048game(string,uint256,bytes,string)": "c385a25b"
				}
			},
			"storageLayout": {
				"storage": [
					{
						"astId": 911,
						"contract": "contracts/game-2048/KaijuGameFactory.sol:KaijuGameFactory",
						"label": "dateTime",
						"offset": 0,
						"slot": "0",
						"type": "t_contract(DateTime)903"
					},
					{
						"astId": 914,
						"contract": "contracts/game-2048/KaijuGameFactory.sol:KaijuGameFactory",
						"label": "kaiju2048GameNFT",
						"offset": 0,
						"slot": "1",
						"type": "t_contract(IKaiju2048GameNFT)1702"
					},
					{
						"astId": 916,
						"contract": "contracts/game-2048/KaijuGameFactory.sol:KaijuGameFactory",
						"label": "owner",
						"offset": 0,
						"slot": "2",
						"type": "t_address"
					},
					{
						"astId": 918,
						"contract": "contracts/game-2048/KaijuGameFactory.sol:KaijuGameFactory",
						"label": "seed",
						"offset": 0,
						"slot": "3",
						"type": "t_uint256"
					},
					{
						"astId": 920,
						"contract": "contracts/game-2048/KaijuGameFactory.sol:KaijuGameFactory",
						"label": "byteCodeExecutorAddress",
						"offset": 0,
						"slot": "4",
						"type": "t_address"
					},
					{
						"astId": 923,
						"contract": "contracts/game-2048/KaijuGameFactory.sol:KaijuGameFactory",
						"label": "isValid",
						"offset": 20,
						"slot": "4",
						"type": "t_bool"
					},
					{
						"astId": 939,
						"contract": "contracts/game-2048/KaijuGameFactory.sol:KaijuGameFactory",
						"label": "playerPersonalBest",
						"offset": 0,
						"slot": "5",
						"type": "t_mapping(t_address,t_uint256)"
					},
					{
						"astId": 943,
						"contract": "contracts/game-2048/KaijuGameFactory.sol:KaijuGameFactory",
						"label": "leaderBoardByDate",
						"offset": 0,
						"slot": "6",
						"type": "t_mapping(t_bytes_memory_ptr,t_bytes_storage)"
					},
					{
						"astId": 947,
						"contract": "contracts/game-2048/KaijuGameFactory.sol:KaijuGameFactory",
						"label": "gameIdToRandom",
						"offset": 0,
						"slot": "7",
						"type": "t_mapping(t_string_memory_ptr,t_uint256)"
					}
				],
				"types": {
					"t_address": {
						"encoding": "inplace",
						"label": "address",
						"numberOfBytes": "20"
					},
					"t_bool": {
						"encoding": "inplace",
						"label": "bool",
						"numberOfBytes": "1"
					},
					"t_bytes_memory_ptr": {
						"encoding": "bytes",
						"label": "bytes",
						"numberOfBytes": "32"
					},
					"t_bytes_storage": {
						"encoding": "bytes",
						"label": "bytes",
						"numberOfBytes": "32"
					},
					"t_contract(DateTime)903": {
						"encoding": "inplace",
						"label": "contract DateTime",
						"numberOfBytes": "20"
					},
					"t_contract(IKaiju2048GameNFT)1702": {
						"encoding": "inplace",
						"label": "contract IKaiju2048GameNFT",
						"numberOfBytes": "20"
					},
					"t_mapping(t_address,t_uint256)": {
						"encoding": "mapping",
						"key": "t_address",
						"label": "mapping(address => uint256)",
						"numberOfBytes": "32",
						"value": "t_uint256"
					},
					"t_mapping(t_bytes_memory_ptr,t_bytes_storage)": {
						"encoding": "mapping",
						"key": "t_bytes_memory_ptr",
						"label": "mapping(bytes => bytes)",
						"numberOfBytes": "32",
						"value": "t_bytes_storage"
					},
					"t_mapping(t_string_memory_ptr,t_uint256)": {
						"encoding": "mapping",
						"key": "t_string_memory_ptr",
						"label": "mapping(string => uint256)",
						"numberOfBytes": "32",
						"value": "t_uint256"
					},
					"t_string_memory_ptr": {
						"encoding": "bytes",
						"label": "string",
						"numberOfBytes": "32"
					},
					"t_uint256": {
						"encoding": "inplace",
						"label": "uint256",
						"numberOfBytes": "32"
					}
				}
			},
			"userdoc": {
				"kind": "user",
				"methods": {},
				"version": 1
			}
		}
	}
}