{
	"contracts/paymaster/KaijuVerifyingPaymaster.sol": {
		"KaijuVerifyingPaymaster": {
			"abi": [
				{
					"inputs": [
						{
							"internalType": "contract IEntryPoint",
							"name": "_entryPoint",
							"type": "address"
						},
						{
							"internalType": "address",
							"name": "_verifyingSigner",
							"type": "address"
						}
					],
					"stateMutability": "nonpayable",
					"type": "constructor"
				},
				{
					"anonymous": false,
					"inputs": [
						{
							"indexed": true,
							"internalType": "address",
							"name": "previousOwner",
							"type": "address"
						},
						{
							"indexed": true,
							"internalType": "address",
							"name": "newOwner",
							"type": "address"
						}
					],
					"name": "OwnershipTransferred",
					"type": "event"
				},
				{
					"inputs": [
						{
							"internalType": "uint32",
							"name": "unstakeDelaySec",
							"type": "uint32"
						}
					],
					"name": "addStake",
					"outputs": [],
					"stateMutability": "payable",
					"type": "function"
				},
				{
					"inputs": [],
					"name": "deposit",
					"outputs": [],
					"stateMutability": "payable",
					"type": "function"
				},
				{
					"inputs": [],
					"name": "entryPoint",
					"outputs": [
						{
							"internalType": "contract IEntryPoint",
							"name": "",
							"type": "address"
						}
					],
					"stateMutability": "view",
					"type": "function"
				},
				{
					"inputs": [],
					"name": "getDeposit",
					"outputs": [
						{
							"internalType": "uint256",
							"name": "",
							"type": "uint256"
						}
					],
					"stateMutability": "view",
					"type": "function"
				},
				{
					"inputs": [
						{
							"components": [
								{
									"internalType": "address",
									"name": "sender",
									"type": "address"
								},
								{
									"internalType": "uint256",
									"name": "nonce",
									"type": "uint256"
								},
								{
									"internalType": "bytes",
									"name": "initCode",
									"type": "bytes"
								},
								{
									"internalType": "bytes",
									"name": "callData",
									"type": "bytes"
								},
								{
									"internalType": "uint256",
									"name": "callGasLimit",
									"type": "uint256"
								},
								{
									"internalType": "uint256",
									"name": "verificationGasLimit",
									"type": "uint256"
								},
								{
									"internalType": "uint256",
									"name": "preVerificationGas",
									"type": "uint256"
								},
								{
									"internalType": "uint256",
									"name": "maxFeePerGas",
									"type": "uint256"
								},
								{
									"internalType": "uint256",
									"name": "maxPriorityFeePerGas",
									"type": "uint256"
								},
								{
									"internalType": "bytes",
									"name": "paymasterAndData",
									"type": "bytes"
								},
								{
									"internalType": "bytes",
									"name": "signature",
									"type": "bytes"
								}
							],
							"internalType": "struct UserOperation",
							"name": "userOp",
							"type": "tuple"
						},
						{
							"internalType": "uint48",
							"name": "validUntil",
							"type": "uint48"
						},
						{
							"internalType": "uint48",
							"name": "validAfter",
							"type": "uint48"
						}
					],
					"name": "getHash",
					"outputs": [
						{
							"internalType": "bytes32",
							"name": "",
							"type": "bytes32"
						}
					],
					"stateMutability": "view",
					"type": "function"
				},
				{
					"inputs": [],
					"name": "owner",
					"outputs": [
						{
							"internalType": "address",
							"name": "",
							"type": "address"
						}
					],
					"stateMutability": "view",
					"type": "function"
				},
				{
					"inputs": [
						{
							"internalType": "bytes",
							"name": "paymasterAndData",
							"type": "bytes"
						}
					],
					"name": "parsePaymasterAndData",
					"outputs": [
						{
							"internalType": "uint48",
							"name": "validUntil",
							"type": "uint48"
						},
						{
							"internalType": "uint48",
							"name": "validAfter",
							"type": "uint48"
						},
						{
							"internalType": "bytes",
							"name": "signature",
							"type": "bytes"
						}
					],
					"stateMutability": "pure",
					"type": "function"
				},
				{
					"inputs": [
						{
							"internalType": "enum IPaymaster.PostOpMode",
							"name": "mode",
							"type": "uint8"
						},
						{
							"internalType": "bytes",
							"name": "context",
							"type": "bytes"
						},
						{
							"internalType": "uint256",
							"name": "actualGasCost",
							"type": "uint256"
						}
					],
					"name": "postOp",
					"outputs": [],
					"stateMutability": "nonpayable",
					"type": "function"
				},
				{
					"inputs": [],
					"name": "renounceOwnership",
					"outputs": [],
					"stateMutability": "nonpayable",
					"type": "function"
				},
				{
					"inputs": [
						{
							"internalType": "address",
							"name": "",
							"type": "address"
						}
					],
					"name": "senderNonce",
					"outputs": [
						{
							"internalType": "uint256",
							"name": "",
							"type": "uint256"
						}
					],
					"stateMutability": "view",
					"type": "function"
				},
				{
					"inputs": [
						{
							"internalType": "address",
							"name": "newOwner",
							"type": "address"
						}
					],
					"name": "transferOwnership",
					"outputs": [],
					"stateMutability": "nonpayable",
					"type": "function"
				},
				{
					"inputs": [],
					"name": "unlockStake",
					"outputs": [],
					"stateMutability": "nonpayable",
					"type": "function"
				},
				{
					"inputs": [
						{
							"components": [
								{
									"internalType": "address",
									"name": "sender",
									"type": "address"
								},
								{
									"internalType": "uint256",
									"name": "nonce",
									"type": "uint256"
								},
								{
									"internalType": "bytes",
									"name": "initCode",
									"type": "bytes"
								},
								{
									"internalType": "bytes",
									"name": "callData",
									"type": "bytes"
								},
								{
									"internalType": "uint256",
									"name": "callGasLimit",
									"type": "uint256"
								},
								{
									"internalType": "uint256",
									"name": "verificationGasLimit",
									"type": "uint256"
								},
								{
									"internalType": "uint256",
									"name": "preVerificationGas",
									"type": "uint256"
								},
								{
									"internalType": "uint256",
									"name": "maxFeePerGas",
									"type": "uint256"
								},
								{
									"internalType": "uint256",
									"name": "maxPriorityFeePerGas",
									"type": "uint256"
								},
								{
									"internalType": "bytes",
									"name": "paymasterAndData",
									"type": "bytes"
								},
								{
									"internalType": "bytes",
									"name": "signature",
									"type": "bytes"
								}
							],
							"internalType": "struct UserOperation",
							"name": "userOp",
							"type": "tuple"
						},
						{
							"internalType": "bytes32",
							"name": "userOpHash",
							"type": "bytes32"
						},
						{
							"internalType": "uint256",
							"name": "maxCost",
							"type": "uint256"
						}
					],
					"name": "validatePaymasterUserOp",
					"outputs": [
						{
							"internalType": "bytes",
							"name": "context",
							"type": "bytes"
						},
						{
							"internalType": "uint256",
							"name": "validationData",
							"type": "uint256"
						}
					],
					"stateMutability": "nonpayable",
					"type": "function"
				},
				{
					"inputs": [],
					"name": "verifyingSigner",
					"outputs": [
						{
							"internalType": "address",
							"name": "",
							"type": "address"
						}
					],
					"stateMutability": "view",
					"type": "function"
				},
				{
					"inputs": [
						{
							"internalType": "address payable",
							"name": "withdrawAddress",
							"type": "address"
						}
					],
					"name": "withdrawStake",
					"outputs": [],
					"stateMutability": "nonpayable",
					"type": "function"
				},
				{
					"inputs": [
						{
							"internalType": "address payable",
							"name": "withdrawAddress",
							"type": "address"
						},
						{
							"internalType": "uint256",
							"name": "amount",
							"type": "uint256"
						}
					],
					"name": "withdrawTo",
					"outputs": [],
					"stateMutability": "nonpayable",
					"type": "function"
				}
			],
			"devdoc": {
				"kind": "dev",
				"methods": {
					"addStake(uint32)": {
						"params": {
							"unstakeDelaySec": "- the unstake delay for this paymaster. Can only be increased."
						}
					},
					"getHash((address,uint256,bytes,bytes,uint256,uint256,uint256,uint256,uint256,bytes,bytes),uint48,uint48)": {
						"details": "The hash we're going to sign off-chain (and validate on-chain). Method is called by       Off-chain Service - to sign the request.      On-chain Service - from the validatePaymasterUserOp, to validate the signature.",
						"params": {
							"userOp": "| User Operation",
							"validAfter": "| Validate Period  Note:    that this signature covers all fields of the UserOperation, except the \"paymasterAndData\",          which will carry the signature itself.",
							"validUntil": "| Validate Period"
						}
					},
					"owner()": {
						"details": "Returns the address of the current owner."
					},
					"parsePaymasterAndData(bytes)": {
						"details": "parse paymaster and data",
						"params": {
							"paymasterAndData": "| paymaster and data"
						}
					},
					"postOp(uint8,bytes,uint256)": {
						"params": {
							"actualGasCost": "- actual gas used so far (without this postOp call).",
							"context": "- the context value returned by validatePaymasterUserOp",
							"mode": "enum with the following options:      opSucceeded - user operation succeeded.      opReverted  - user op reverted. still has to pay for gas.      postOpReverted - user op succeeded, but caused postOp (in mode=opSucceeded) to revert.                       Now this is the 2nd call, after user's op was deliberately reverted."
						}
					},
					"renounceOwnership()": {
						"details": "Leaves the contract without owner. It will not be possible to call `onlyOwner` functions. Can only be called by the current owner. NOTE: Renouncing ownership will leave the contract without an owner, thereby disabling any functionality that is only available to the owner."
					},
					"transferOwnership(address)": {
						"details": "Transfers ownership of the contract to a new account (`newOwner`). Can only be called by the current owner."
					},
					"validatePaymasterUserOp((address,uint256,bytes,bytes,uint256,uint256,uint256,uint256,uint256,bytes,bytes),bytes32,uint256)": {
						"params": {
							"maxCost": "the maximum cost of this transaction (based on maximum gas and gas price from userOp)",
							"userOp": "the user operation",
							"userOpHash": "hash of the user's request data."
						},
						"returns": {
							"context": "value to send to a postOp      zero length to signify postOp is not required.",
							"validationData": "signature and time-range of this operation, encoded the same as the return value of validateUserOperation      <20-byte> sigAuthorizer - 0 for valid signature, 1 to mark signature failure,         otherwise, an address of an \"authorizer\" contract.      <6-byte> validUntil - last timestamp this operation is valid. 0 for \"indefinite\"      <6-byte> validAfter - first timestamp this operation is valid      Note that the validation code cannot use block.timestamp (or block.number) directly."
						}
					},
					"withdrawStake(address)": {
						"params": {
							"withdrawAddress": "the address to send withdrawn value."
						}
					},
					"withdrawTo(address,uint256)": {
						"params": {
							"amount": "to withdraw",
							"withdrawAddress": "target to send to"
						}
					}
				},
				"version": 1
			},
			"evm": {
				"assembly": "    /* \"contracts/paymaster/KaijuVerifyingPaymaster.sol\":751:4950  contract KaijuVerifyingPaymaster is BasePaymaster {... */\n  mstore(0x40, 0xc0)\n    /* \"contracts/paymaster/KaijuVerifyingPaymaster.sol\":1043:1184  constructor(IEntryPoint _entryPoint, address _verifyingSigner) BasePaymaster(_entryPoint) {... */\n  callvalue\n  dup1\n  iszero\n  tag_1\n  jumpi\n  0x00\n  dup1\n  revert\ntag_1:\n  pop\n  mload(0x40)\n  sub(codesize, bytecodeSize)\n  dup1\n  bytecodeSize\n  dup4\n  codecopy\n  dup2\n  dup2\n  add\n  0x40\n  mstore\n  dup2\n  add\n  swap1\n  tag_2\n  swap2\n  swap1\n  tag_3\n  jump\t// in\ntag_2:\n    /* \"contracts/paymaster/KaijuVerifyingPaymaster.sol\":1120:1131  _entryPoint */\n  dup2\n    /* \"@openzeppelin/contracts/access/Ownable.sol\":936:968  _transferOwnership(_msgSender()) */\n  tag_8\n    /* \"@openzeppelin/contracts/access/Ownable.sol\":955:967  _msgSender() */\n  tag_9\n    /* \"@openzeppelin/contracts/access/Ownable.sol\":955:965  _msgSender */\n  shl(0x20, tag_10)\n    /* \"@openzeppelin/contracts/access/Ownable.sol\":955:967  _msgSender() */\n  0x20\n  shr\n  jump\t// in\ntag_9:\n    /* \"@openzeppelin/contracts/access/Ownable.sol\":936:954  _transferOwnership */\n  shl(0x20, tag_11)\n    /* \"@openzeppelin/contracts/access/Ownable.sol\":936:968  _transferOwnership(_msgSender()) */\n  0x20\n  shr\n  jump\t// in\ntag_8:\n    /* \"@account-abstraction/contracts/core/BasePaymaster.sol\":577:588  _entryPoint */\n  dup1\n    /* \"@account-abstraction/contracts/core/BasePaymaster.sol\":564:588  entryPoint = _entryPoint */\n  0xffffffffffffffffffffffffffffffffffffffff\n  and\n  0x80\n  dup2\n  0xffffffffffffffffffffffffffffffffffffffff\n  and\n  dup2\n  mstore\n  pop\n  pop\n    /* \"@account-abstraction/contracts/core/BasePaymaster.sol\":517:595  constructor(IEntryPoint _entryPoint) {... */\n  pop\n    /* \"contracts/paymaster/KaijuVerifyingPaymaster.sol\":1161:1177  _verifyingSigner */\n  dup1\n    /* \"contracts/paymaster/KaijuVerifyingPaymaster.sol\":1143:1177  verifyingSigner = _verifyingSigner */\n  0xffffffffffffffffffffffffffffffffffffffff\n  and\n  0xa0\n  dup2\n  0xffffffffffffffffffffffffffffffffffffffff\n  and\n  dup2\n  mstore\n  pop\n  pop\n    /* \"contracts/paymaster/KaijuVerifyingPaymaster.sol\":1043:1184  constructor(IEntryPoint _entryPoint, address _verifyingSigner) BasePaymaster(_entryPoint) {... */\n  pop\n  pop\n    /* \"contracts/paymaster/KaijuVerifyingPaymaster.sol\":751:4950  contract KaijuVerifyingPaymaster is BasePaymaster {... */\n  jump(tag_14)\n    /* \"@openzeppelin/contracts/utils/Context.sol\":640:736  function _msgSender() internal view virtual returns (address) {... */\ntag_10:\n    /* \"@openzeppelin/contracts/utils/Context.sol\":693:700  address */\n  0x00\n    /* \"@openzeppelin/contracts/utils/Context.sol\":719:729  msg.sender */\n  caller\n    /* \"@openzeppelin/contracts/utils/Context.sol\":712:729  return msg.sender */\n  swap1\n  pop\n    /* \"@openzeppelin/contracts/utils/Context.sol\":640:736  function _msgSender() internal view virtual returns (address) {... */\n  swap1\n  jump\t// out\n    /* \"@openzeppelin/contracts/access/Ownable.sol\":2426:2613  function _transferOwnership(address newOwner) internal virtual {... */\ntag_11:\n    /* \"@openzeppelin/contracts/access/Ownable.sol\":2499:2515  address oldOwner */\n  0x00\n    /* \"@openzeppelin/contracts/access/Ownable.sol\":2518:2524  _owner */\n  dup1\n  0x00\n  swap1\n  sload\n  swap1\n  0x0100\n  exp\n  swap1\n  div\n  0xffffffffffffffffffffffffffffffffffffffff\n  and\n    /* \"@openzeppelin/contracts/access/Ownable.sol\":2499:2524  address oldOwner = _owner */\n  swap1\n  pop\n    /* \"@openzeppelin/contracts/access/Ownable.sol\":2543:2551  newOwner */\n  dup2\n    /* \"@openzeppelin/contracts/access/Ownable.sol\":2534:2540  _owner */\n  0x00\n  dup1\n    /* \"@openzeppelin/contracts/access/Ownable.sol\":2534:2551  _owner = newOwner */\n  0x0100\n  exp\n  dup2\n  sload\n  dup2\n  0xffffffffffffffffffffffffffffffffffffffff\n  mul\n  not\n  and\n  swap1\n  dup4\n  0xffffffffffffffffffffffffffffffffffffffff\n  and\n  mul\n  or\n  swap1\n  sstore\n  pop\n    /* \"@openzeppelin/contracts/access/Ownable.sol\":2597:2605  newOwner */\n  dup2\n    /* \"@openzeppelin/contracts/access/Ownable.sol\":2566:2606  OwnershipTransferred(oldOwner, newOwner) */\n  0xffffffffffffffffffffffffffffffffffffffff\n  and\n    /* \"@openzeppelin/contracts/access/Ownable.sol\":2587:2595  oldOwner */\n  dup2\n    /* \"@openzeppelin/contracts/access/Ownable.sol\":2566:2606  OwnershipTransferred(oldOwner, newOwner) */\n  0xffffffffffffffffffffffffffffffffffffffff\n  and\n  0x8be0079c531659141344cd1fd0a4f28419497f9722a3daafe3b4186f6b6457e0\n  mload(0x40)\n  mload(0x40)\n  dup1\n  swap2\n  sub\n  swap1\n  log3\n    /* \"@openzeppelin/contracts/access/Ownable.sol\":2489:2613  {... */\n  pop\n    /* \"@openzeppelin/contracts/access/Ownable.sol\":2426:2613  function _transferOwnership(address newOwner) internal virtual {... */\n  pop\n  jump\t// out\n    /* \"#utility.yul\":88:205   */\ntag_18:\n    /* \"#utility.yul\":197:198   */\n  0x00\n    /* \"#utility.yul\":194:195   */\n  dup1\n    /* \"#utility.yul\":187:199   */\n  revert\n    /* \"#utility.yul\":334:460   */\ntag_20:\n    /* \"#utility.yul\":371:378   */\n  0x00\n    /* \"#utility.yul\":411:453   */\n  0xffffffffffffffffffffffffffffffffffffffff\n    /* \"#utility.yul\":404:409   */\n  dup3\n    /* \"#utility.yul\":400:454   */\n  and\n    /* \"#utility.yul\":389:454   */\n  swap1\n  pop\n    /* \"#utility.yul\":334:460   */\n  swap2\n  swap1\n  pop\n  jump\t// out\n    /* \"#utility.yul\":466:562   */\ntag_21:\n    /* \"#utility.yul\":503:510   */\n  0x00\n    /* \"#utility.yul\":532:556   */\n  tag_33\n    /* \"#utility.yul\":550:555   */\n  dup3\n    /* \"#utility.yul\":532:556   */\n  tag_20\n  jump\t// in\ntag_33:\n    /* \"#utility.yul\":521:556   */\n  swap1\n  pop\n    /* \"#utility.yul\":466:562   */\n  swap2\n  swap1\n  pop\n  jump\t// out\n    /* \"#utility.yul\":568:683   */\ntag_22:\n    /* \"#utility.yul\":624:631   */\n  0x00\n    /* \"#utility.yul\":653:677   */\n  tag_35\n    /* \"#utility.yul\":671:676   */\n  dup3\n    /* \"#utility.yul\":653:677   */\n  tag_21\n  jump\t// in\ntag_35:\n    /* \"#utility.yul\":642:677   */\n  swap1\n  pop\n    /* \"#utility.yul\":568:683   */\n  swap2\n  swap1\n  pop\n  jump\t// out\n    /* \"#utility.yul\":689:849   */\ntag_23:\n    /* \"#utility.yul\":781:824   */\n  tag_37\n    /* \"#utility.yul\":818:823   */\n  dup2\n    /* \"#utility.yul\":781:824   */\n  tag_22\n  jump\t// in\ntag_37:\n    /* \"#utility.yul\":774:779   */\n  dup2\n    /* \"#utility.yul\":771:825   */\n  eq\n    /* \"#utility.yul\":761:843   */\n  tag_38\n  jumpi\n    /* \"#utility.yul\":839:840   */\n  0x00\n    /* \"#utility.yul\":836:837   */\n  dup1\n    /* \"#utility.yul\":829:841   */\n  revert\n    /* \"#utility.yul\":761:843   */\ntag_38:\n    /* \"#utility.yul\":689:849   */\n  pop\n  jump\t// out\n    /* \"#utility.yul\":855:1036   */\ntag_24:\n    /* \"#utility.yul\":931:936   */\n  0x00\n    /* \"#utility.yul\":962:968   */\n  dup2\n    /* \"#utility.yul\":956:969   */\n  mload\n    /* \"#utility.yul\":947:969   */\n  swap1\n  pop\n    /* \"#utility.yul\":978:1030   */\n  tag_40\n    /* \"#utility.yul\":1024:1029   */\n  dup2\n    /* \"#utility.yul\":978:1030   */\n  tag_23\n  jump\t// in\ntag_40:\n    /* \"#utility.yul\":855:1036   */\n  swap3\n  swap2\n  pop\n  pop\n  jump\t// out\n    /* \"#utility.yul\":1042:1164   */\ntag_25:\n    /* \"#utility.yul\":1115:1139   */\n  tag_42\n    /* \"#utility.yul\":1133:1138   */\n  dup2\n    /* \"#utility.yul\":1115:1139   */\n  tag_21\n  jump\t// in\ntag_42:\n    /* \"#utility.yul\":1108:1113   */\n  dup2\n    /* \"#utility.yul\":1105:1140   */\n  eq\n    /* \"#utility.yul\":1095:1158   */\n  tag_43\n  jumpi\n    /* \"#utility.yul\":1154:1155   */\n  0x00\n    /* \"#utility.yul\":1151:1152   */\n  dup1\n    /* \"#utility.yul\":1144:1156   */\n  revert\n    /* \"#utility.yul\":1095:1158   */\ntag_43:\n    /* \"#utility.yul\":1042:1164   */\n  pop\n  jump\t// out\n    /* \"#utility.yul\":1170:1313   */\ntag_26:\n    /* \"#utility.yul\":1227:1232   */\n  0x00\n    /* \"#utility.yul\":1258:1264   */\n  dup2\n    /* \"#utility.yul\":1252:1265   */\n  mload\n    /* \"#utility.yul\":1243:1265   */\n  swap1\n  pop\n    /* \"#utility.yul\":1274:1307   */\n  tag_45\n    /* \"#utility.yul\":1301:1306   */\n  dup2\n    /* \"#utility.yul\":1274:1307   */\n  tag_25\n  jump\t// in\ntag_45:\n    /* \"#utility.yul\":1170:1313   */\n  swap3\n  swap2\n  pop\n  pop\n  jump\t// out\n    /* \"#utility.yul\":1319:1864   */\ntag_3:\n    /* \"#utility.yul\":1417:1423   */\n  0x00\n    /* \"#utility.yul\":1425:1431   */\n  dup1\n    /* \"#utility.yul\":1474:1476   */\n  0x40\n    /* \"#utility.yul\":1462:1471   */\n  dup4\n    /* \"#utility.yul\":1453:1460   */\n  dup6\n    /* \"#utility.yul\":1449:1472   */\n  sub\n    /* \"#utility.yul\":1445:1477   */\n  slt\n    /* \"#utility.yul\":1442:1561   */\n  iszero\n  tag_47\n  jumpi\n    /* \"#utility.yul\":1480:1559   */\n  tag_48\n  tag_18\n  jump\t// in\ntag_48:\n    /* \"#utility.yul\":1442:1561   */\ntag_47:\n    /* \"#utility.yul\":1600:1601   */\n  0x00\n    /* \"#utility.yul\":1625:1708   */\n  tag_49\n    /* \"#utility.yul\":1700:1707   */\n  dup6\n    /* \"#utility.yul\":1691:1697   */\n  dup3\n    /* \"#utility.yul\":1680:1689   */\n  dup7\n    /* \"#utility.yul\":1676:1698   */\n  add\n    /* \"#utility.yul\":1625:1708   */\n  tag_24\n  jump\t// in\ntag_49:\n    /* \"#utility.yul\":1615:1708   */\n  swap3\n  pop\n    /* \"#utility.yul\":1571:1718   */\n  pop\n    /* \"#utility.yul\":1757:1759   */\n  0x20\n    /* \"#utility.yul\":1783:1847   */\n  tag_50\n    /* \"#utility.yul\":1839:1846   */\n  dup6\n    /* \"#utility.yul\":1830:1836   */\n  dup3\n    /* \"#utility.yul\":1819:1828   */\n  dup7\n    /* \"#utility.yul\":1815:1837   */\n  add\n    /* \"#utility.yul\":1783:1847   */\n  tag_26\n  jump\t// in\ntag_50:\n    /* \"#utility.yul\":1773:1847   */\n  swap2\n  pop\n    /* \"#utility.yul\":1728:1857   */\n  pop\n    /* \"#utility.yul\":1319:1864   */\n  swap3\n  pop\n  swap3\n  swap1\n  pop\n  jump\t// out\n    /* \"contracts/paymaster/KaijuVerifyingPaymaster.sol\":751:4950  contract KaijuVerifyingPaymaster is BasePaymaster {... */\ntag_14:\n  mload(0x80)\n  mload(0xa0)\n  codecopy(0x00, dataOffset(sub_0), dataSize(sub_0))\n  0x00\n  assignImmutable(\"0x71c40068bd31bc09d5993cdc61ccff6d93335f0bfd330185a818ca14adae8b8a\")\n  0x00\n  assignImmutable(\"0x789bcdf275fa270780a52ae3b79bb1ce0fda7e0aaad87b57b74bb99ac290714a\")\n  return(0x00, dataSize(sub_0))\nstop\n\nsub_0: assembly {\n        /* \"contracts/paymaster/KaijuVerifyingPaymaster.sol\":751:4950  contract KaijuVerifyingPaymaster is BasePaymaster {... */\n      mstore(0x40, 0x80)\n      jumpi(tag_1, lt(calldatasize, 0x04))\n      shr(0xe0, calldataload(0x00))\n      dup1\n      0xa9a23409\n      gt\n      tag_18\n      jumpi\n      dup1\n      0xc399ec88\n      gt\n      tag_19\n      jumpi\n      dup1\n      0xc399ec88\n      eq\n      tag_14\n      jumpi\n      dup1\n      0xd0e30db0\n      eq\n      tag_15\n      jumpi\n      dup1\n      0xf2fde38b\n      eq\n      tag_16\n      jumpi\n      dup1\n      0xf465c77e\n      eq\n      tag_17\n      jumpi\n      jump(tag_1)\n    tag_19:\n      dup1\n      0xa9a23409\n      eq\n      tag_10\n      jumpi\n      dup1\n      0xb0d691fe\n      eq\n      tag_11\n      jumpi\n      dup1\n      0xbb9fe6bf\n      eq\n      tag_12\n      jumpi\n      dup1\n      0xc23a5cea\n      eq\n      tag_13\n      jumpi\n      jump(tag_1)\n    tag_18:\n      dup1\n      0x8da5cb5b\n      gt\n      tag_20\n      jumpi\n      dup1\n      0x8da5cb5b\n      eq\n      tag_6\n      jumpi\n      dup1\n      0x94d4ad60\n      eq\n      tag_7\n      jumpi\n      dup1\n      0x94e1fc19\n      eq\n      tag_8\n      jumpi\n      dup1\n      0x9c90b443\n      eq\n      tag_9\n      jumpi\n      jump(tag_1)\n    tag_20:\n      dup1\n      0x0396cb60\n      eq\n      tag_2\n      jumpi\n      dup1\n      0x205c2878\n      eq\n      tag_3\n      jumpi\n      dup1\n      0x23d9ac9b\n      eq\n      tag_4\n      jumpi\n      dup1\n      0x715018a6\n      eq\n      tag_5\n      jumpi\n    tag_1:\n      0x00\n      dup1\n      revert\n        /* \"@account-abstraction/contracts/core/BasePaymaster.sol\":3094:3235  function addStake(uint32 unstakeDelaySec) external payable onlyOwner {... */\n    tag_2:\n      tag_21\n      0x04\n      dup1\n      calldatasize\n      sub\n      dup2\n      add\n      swap1\n      tag_22\n      swap2\n      swap1\n      tag_23\n      jump\t// in\n    tag_22:\n      tag_24\n      jump\t// in\n    tag_21:\n      stop\n        /* \"@account-abstraction/contracts/core/BasePaymaster.sol\":2721:2870  function withdrawTo(address payable withdrawAddress, uint256 amount) public onlyOwner {... */\n    tag_3:\n      callvalue\n      dup1\n      iszero\n      tag_25\n      jumpi\n      0x00\n      dup1\n      revert\n    tag_25:\n      pop\n      tag_26\n      0x04\n      dup1\n      calldatasize\n      sub\n      dup2\n      add\n      swap1\n      tag_27\n      swap2\n      swap1\n      tag_28\n      jump\t// in\n    tag_27:\n      tag_29\n      jump\t// in\n    tag_26:\n      stop\n        /* \"contracts/paymaster/KaijuVerifyingPaymaster.sol\":884:924  address public immutable verifyingSigner */\n    tag_4:\n      callvalue\n      dup1\n      iszero\n      tag_30\n      jumpi\n      0x00\n      dup1\n      revert\n    tag_30:\n      pop\n      tag_31\n      tag_32\n      jump\t// in\n    tag_31:\n      mload(0x40)\n      tag_33\n      swap2\n      swap1\n      tag_34\n      jump\t// in\n    tag_33:\n      mload(0x40)\n      dup1\n      swap2\n      sub\n      swap1\n      return\n        /* \"@openzeppelin/contracts/access/Ownable.sol\":1824:1925  function renounceOwnership() public virtual onlyOwner {... */\n    tag_5:\n      callvalue\n      dup1\n      iszero\n      tag_35\n      jumpi\n      0x00\n      dup1\n      revert\n    tag_35:\n      pop\n      tag_36\n      tag_37\n      jump\t// in\n    tag_36:\n      stop\n        /* \"@openzeppelin/contracts/access/Ownable.sol\":1201:1286  function owner() public view virtual returns (address) {... */\n    tag_6:\n      callvalue\n      dup1\n      iszero\n      tag_38\n      jumpi\n      0x00\n      dup1\n      revert\n    tag_38:\n      pop\n      tag_39\n      tag_40\n      jump\t// in\n    tag_39:\n      mload(0x40)\n      tag_41\n      swap2\n      swap1\n      tag_34\n      jump\t// in\n    tag_41:\n      mload(0x40)\n      dup1\n      swap2\n      sub\n      swap1\n      return\n        /* \"contracts/paymaster/KaijuVerifyingPaymaster.sol\":4613:4948  function parsePaymasterAndData(bytes calldata paymasterAndData) public pure returns(uint48 validUntil, uint48 validAfter, bytes calldata signature) {... */\n    tag_7:\n      callvalue\n      dup1\n      iszero\n      tag_42\n      jumpi\n      0x00\n      dup1\n      revert\n    tag_42:\n      pop\n      tag_43\n      0x04\n      dup1\n      calldatasize\n      sub\n      dup2\n      add\n      swap1\n      tag_44\n      swap2\n      swap1\n      tag_45\n      jump\t// in\n    tag_44:\n      tag_46\n      jump\t// in\n    tag_43:\n      mload(0x40)\n      tag_47\n      swap5\n      swap4\n      swap3\n      swap2\n      swap1\n      tag_48\n      jump\t// in\n    tag_47:\n      mload(0x40)\n      dup1\n      swap2\n      sub\n      swap1\n      return\n        /* \"contracts/paymaster/KaijuVerifyingPaymaster.sol\":2498:2875  function getHash(UserOperation calldata userOp, uint48 validUntil, uint48 validAfter)... */\n    tag_8:\n      callvalue\n      dup1\n      iszero\n      tag_49\n      jumpi\n      0x00\n      dup1\n      revert\n    tag_49:\n      pop\n      tag_50\n      0x04\n      dup1\n      calldatasize\n      sub\n      dup2\n      add\n      swap1\n      tag_51\n      swap2\n      swap1\n      tag_52\n      jump\t// in\n    tag_51:\n      tag_53\n      jump\t// in\n    tag_50:\n      mload(0x40)\n      tag_54\n      swap2\n      swap1\n      tag_55\n      jump\t// in\n    tag_54:\n      mload(0x40)\n      dup1\n      swap2\n      sub\n      swap1\n      return\n        /* \"contracts/paymaster/KaijuVerifyingPaymaster.sol\":1190:1236  mapping(address => uint256) public senderNonce */\n    tag_9:\n      callvalue\n      dup1\n      iszero\n      tag_56\n      jumpi\n      0x00\n      dup1\n      revert\n    tag_56:\n      pop\n      tag_57\n      0x04\n      dup1\n      calldatasize\n      sub\n      dup2\n      add\n      swap1\n      tag_58\n      swap2\n      swap1\n      tag_59\n      jump\t// in\n    tag_58:\n      tag_60\n      jump\t// in\n    tag_57:\n      mload(0x40)\n      tag_61\n      swap2\n      swap1\n      tag_62\n      jump\t// in\n    tag_61:\n      mload(0x40)\n      dup1\n      swap2\n      sub\n      swap1\n      return\n        /* \"@account-abstraction/contracts/core/BasePaymaster.sol\":1143:1329  function postOp(PostOpMode mode, bytes calldata context, uint256 actualGasCost) external override {... */\n    tag_10:\n      callvalue\n      dup1\n      iszero\n      tag_63\n      jumpi\n      0x00\n      dup1\n      revert\n    tag_63:\n      pop\n      tag_64\n      0x04\n      dup1\n      calldatasize\n      sub\n      dup2\n      add\n      swap1\n      tag_65\n      swap2\n      swap1\n      tag_66\n      jump\t// in\n    tag_65:\n      tag_67\n      jump\t// in\n    tag_64:\n      stop\n        /* \"@account-abstraction/contracts/core/BasePaymaster.sol\":471:510  IEntryPoint immutable public entryPoint */\n    tag_11:\n      callvalue\n      dup1\n      iszero\n      tag_68\n      jumpi\n      0x00\n      dup1\n      revert\n    tag_68:\n      pop\n      tag_69\n      tag_70\n      jump\t// in\n    tag_69:\n      mload(0x40)\n      tag_71\n      swap2\n      swap1\n      tag_72\n      jump\t// in\n    tag_71:\n      mload(0x40)\n      dup1\n      swap2\n      sub\n      swap1\n      return\n        /* \"@account-abstraction/contracts/core/BasePaymaster.sol\":3588:3671  function unlockStake() external onlyOwner {... */\n    tag_12:\n      callvalue\n      dup1\n      iszero\n      tag_73\n      jumpi\n      0x00\n      dup1\n      revert\n    tag_73:\n      pop\n      tag_74\n      tag_75\n      jump\t// in\n    tag_74:\n      stop\n        /* \"@account-abstraction/contracts/core/BasePaymaster.sol\":3890:4023  function withdrawStake(address payable withdrawAddress) external onlyOwner {... */\n    tag_13:\n      callvalue\n      dup1\n      iszero\n      tag_76\n      jumpi\n      0x00\n      dup1\n      revert\n    tag_76:\n      pop\n      tag_77\n      0x04\n      dup1\n      calldatasize\n      sub\n      dup2\n      add\n      swap1\n      tag_78\n      swap2\n      swap1\n      tag_79\n      jump\t// in\n    tag_78:\n      tag_80\n      jump\t// in\n    tag_77:\n      stop\n        /* \"@account-abstraction/contracts/core/BasePaymaster.sol\":3318:3429  function getDeposit() public view returns (uint256) {... */\n    tag_14:\n      callvalue\n      dup1\n      iszero\n      tag_81\n      jumpi\n      0x00\n      dup1\n      revert\n    tag_81:\n      pop\n      tag_82\n      tag_83\n      jump\t// in\n    tag_82:\n      mload(0x40)\n      tag_84\n      swap2\n      swap1\n      tag_62\n      jump\t// in\n    tag_84:\n      mload(0x40)\n      dup1\n      swap2\n      sub\n      swap1\n      return\n        /* \"@account-abstraction/contracts/core/BasePaymaster.sol\":2474:2579  function deposit() public payable {... */\n    tag_15:\n      tag_85\n      tag_86\n      jump\t// in\n    tag_85:\n      stop\n        /* \"@openzeppelin/contracts/access/Ownable.sol\":2074:2272  function transferOwnership(address newOwner) public virtual onlyOwner {... */\n    tag_16:\n      callvalue\n      dup1\n      iszero\n      tag_87\n      jumpi\n      0x00\n      dup1\n      revert\n    tag_87:\n      pop\n      tag_88\n      0x04\n      dup1\n      calldatasize\n      sub\n      dup2\n      add\n      swap1\n      tag_89\n      swap2\n      swap1\n      tag_59\n      jump\t// in\n    tag_89:\n      tag_90\n      jump\t// in\n    tag_88:\n      stop\n        /* \"@account-abstraction/contracts/core/BasePaymaster.sol\":632:922  function validatePaymasterUserOp(UserOperation calldata userOp, bytes32 userOpHash, uint256 maxCost)... */\n    tag_17:\n      callvalue\n      dup1\n      iszero\n      tag_91\n      jumpi\n      0x00\n      dup1\n      revert\n    tag_91:\n      pop\n      tag_92\n      0x04\n      dup1\n      calldatasize\n      sub\n      dup2\n      add\n      swap1\n      tag_93\n      swap2\n      swap1\n      tag_94\n      jump\t// in\n    tag_93:\n      tag_95\n      jump\t// in\n    tag_92:\n      mload(0x40)\n      tag_96\n      swap3\n      swap2\n      swap1\n      tag_97\n      jump\t// in\n    tag_96:\n      mload(0x40)\n      dup1\n      swap2\n      sub\n      swap1\n      return\n        /* \"@account-abstraction/contracts/core/BasePaymaster.sol\":3094:3235  function addStake(uint32 unstakeDelaySec) external payable onlyOwner {... */\n    tag_24:\n        /* \"@openzeppelin/contracts/access/Ownable.sol\":1094:1107  _checkOwner() */\n      tag_99\n        /* \"@openzeppelin/contracts/access/Ownable.sol\":1094:1105  _checkOwner */\n      tag_100\n        /* \"@openzeppelin/contracts/access/Ownable.sol\":1094:1107  _checkOwner() */\n      jump\t// in\n    tag_99:\n        /* \"@account-abstraction/contracts/core/BasePaymaster.sol\":3173:3183  entryPoint */\n      immutable(\"0x789bcdf275fa270780a52ae3b79bb1ce0fda7e0aaad87b57b74bb99ac290714a\")\n        /* \"@account-abstraction/contracts/core/BasePaymaster.sol\":3173:3192  entryPoint.addStake */\n      0xffffffffffffffffffffffffffffffffffffffff\n      and\n      0x0396cb60\n        /* \"@account-abstraction/contracts/core/BasePaymaster.sol\":3201:3210  msg.value */\n      callvalue\n        /* \"@account-abstraction/contracts/core/BasePaymaster.sol\":3212:3227  unstakeDelaySec */\n      dup4\n        /* \"@account-abstraction/contracts/core/BasePaymaster.sol\":3173:3228  entryPoint.addStake{value : msg.value}(unstakeDelaySec) */\n      mload(0x40)\n      dup4\n      0xffffffff\n      and\n      0xe0\n      shl\n      dup2\n      mstore\n      0x04\n      add\n      tag_102\n      swap2\n      swap1\n      tag_103\n      jump\t// in\n    tag_102:\n      0x00\n      mload(0x40)\n      dup1\n      dup4\n      sub\n      dup2\n      dup6\n      dup9\n      dup1\n      extcodesize\n      iszero\n      dup1\n      iszero\n      tag_104\n      jumpi\n      0x00\n      dup1\n      revert\n    tag_104:\n      pop\n      gas\n      call\n      iszero\n      dup1\n      iszero\n      tag_106\n      jumpi\n      returndatasize\n      0x00\n      dup1\n      returndatacopy\n      revert(0x00, returndatasize)\n    tag_106:\n      pop\n      pop\n      pop\n      pop\n      pop\n        /* \"@account-abstraction/contracts/core/BasePaymaster.sol\":3094:3235  function addStake(uint32 unstakeDelaySec) external payable onlyOwner {... */\n      pop\n      jump\t// out\n        /* \"@account-abstraction/contracts/core/BasePaymaster.sol\":2721:2870  function withdrawTo(address payable withdrawAddress, uint256 amount) public onlyOwner {... */\n    tag_29:\n        /* \"@openzeppelin/contracts/access/Ownable.sol\":1094:1107  _checkOwner() */\n      tag_108\n        /* \"@openzeppelin/contracts/access/Ownable.sol\":1094:1105  _checkOwner */\n      tag_100\n        /* \"@openzeppelin/contracts/access/Ownable.sol\":1094:1107  _checkOwner() */\n      jump\t// in\n    tag_108:\n        /* \"@account-abstraction/contracts/core/BasePaymaster.sol\":2817:2827  entryPoint */\n      immutable(\"0x789bcdf275fa270780a52ae3b79bb1ce0fda7e0aaad87b57b74bb99ac290714a\")\n        /* \"@account-abstraction/contracts/core/BasePaymaster.sol\":2817:2838  entryPoint.withdrawTo */\n      0xffffffffffffffffffffffffffffffffffffffff\n      and\n      0x205c2878\n        /* \"@account-abstraction/contracts/core/BasePaymaster.sol\":2839:2854  withdrawAddress */\n      dup4\n        /* \"@account-abstraction/contracts/core/BasePaymaster.sol\":2856:2862  amount */\n      dup4\n        /* \"@account-abstraction/contracts/core/BasePaymaster.sol\":2817:2863  entryPoint.withdrawTo(withdrawAddress, amount) */\n      mload(0x40)\n      dup4\n      0xffffffff\n      and\n      0xe0\n      shl\n      dup2\n      mstore\n      0x04\n      add\n      tag_110\n      swap3\n      swap2\n      swap1\n      tag_111\n      jump\t// in\n    tag_110:\n      0x00\n      mload(0x40)\n      dup1\n      dup4\n      sub\n      dup2\n      0x00\n      dup8\n      dup1\n      extcodesize\n      iszero\n      dup1\n      iszero\n      tag_112\n      jumpi\n      0x00\n      dup1\n      revert\n    tag_112:\n      pop\n      gas\n      call\n      iszero\n      dup1\n      iszero\n      tag_114\n      jumpi\n      returndatasize\n      0x00\n      dup1\n      returndatacopy\n      revert(0x00, returndatasize)\n    tag_114:\n      pop\n      pop\n      pop\n      pop\n        /* \"@account-abstraction/contracts/core/BasePaymaster.sol\":2721:2870  function withdrawTo(address payable withdrawAddress, uint256 amount) public onlyOwner {... */\n      pop\n      pop\n      jump\t// out\n        /* \"contracts/paymaster/KaijuVerifyingPaymaster.sol\":884:924  address public immutable verifyingSigner */\n    tag_32:\n      immutable(\"0x71c40068bd31bc09d5993cdc61ccff6d93335f0bfd330185a818ca14adae8b8a\")\n      dup2\n      jump\t// out\n        /* \"@openzeppelin/contracts/access/Ownable.sol\":1824:1925  function renounceOwnership() public virtual onlyOwner {... */\n    tag_37:\n        /* \"@openzeppelin/contracts/access/Ownable.sol\":1094:1107  _checkOwner() */\n      tag_116\n        /* \"@openzeppelin/contracts/access/Ownable.sol\":1094:1105  _checkOwner */\n      tag_100\n        /* \"@openzeppelin/contracts/access/Ownable.sol\":1094:1107  _checkOwner() */\n      jump\t// in\n    tag_116:\n        /* \"@openzeppelin/contracts/access/Ownable.sol\":1888:1918  _transferOwnership(address(0)) */\n      tag_118\n        /* \"@openzeppelin/contracts/access/Ownable.sol\":1915:1916  0 */\n      0x00\n        /* \"@openzeppelin/contracts/access/Ownable.sol\":1888:1906  _transferOwnership */\n      tag_119\n        /* \"@openzeppelin/contracts/access/Ownable.sol\":1888:1918  _transferOwnership(address(0)) */\n      jump\t// in\n    tag_118:\n        /* \"@openzeppelin/contracts/access/Ownable.sol\":1824:1925  function renounceOwnership() public virtual onlyOwner {... */\n      jump\t// out\n        /* \"@openzeppelin/contracts/access/Ownable.sol\":1201:1286  function owner() public view virtual returns (address) {... */\n    tag_40:\n        /* \"@openzeppelin/contracts/access/Ownable.sol\":1247:1254  address */\n      0x00\n        /* \"@openzeppelin/contracts/access/Ownable.sol\":1273:1279  _owner */\n      dup1\n      0x00\n      swap1\n      sload\n      swap1\n      0x0100\n      exp\n      swap1\n      div\n      0xffffffffffffffffffffffffffffffffffffffff\n      and\n        /* \"@openzeppelin/contracts/access/Ownable.sol\":1266:1279  return _owner */\n      swap1\n      pop\n        /* \"@openzeppelin/contracts/access/Ownable.sol\":1201:1286  function owner() public view virtual returns (address) {... */\n      swap1\n      jump\t// out\n        /* \"contracts/paymaster/KaijuVerifyingPaymaster.sol\":4613:4948  function parsePaymasterAndData(bytes calldata paymasterAndData) public pure returns(uint48 validUntil, uint48 validAfter, bytes calldata signature) {... */\n    tag_46:\n        /* \"contracts/paymaster/KaijuVerifyingPaymaster.sol\":4697:4714  uint48 validUntil */\n      0x00\n        /* \"contracts/paymaster/KaijuVerifyingPaymaster.sol\":4716:4733  uint48 validAfter */\n      dup1\n        /* \"contracts/paymaster/KaijuVerifyingPaymaster.sol\":4735:4759  bytes calldata signature */\n      calldatasize\n      0x00\n        /* \"contracts/paymaster/KaijuVerifyingPaymaster.sol\":4809:4825  paymasterAndData */\n      dup6\n      dup6\n        /* \"contracts/paymaster/KaijuVerifyingPaymaster.sol\":981:983  20 */\n      0x14\n        /* \"contracts/paymaster/KaijuVerifyingPaymaster.sol\":4809:4866  paymasterAndData[VALID_TIMESTAMP_OFFSET:SIGNATURE_OFFSET] */\n      swap1\n        /* \"contracts/paymaster/KaijuVerifyingPaymaster.sol\":1034:1036  84 */\n      0x54\n        /* \"contracts/paymaster/KaijuVerifyingPaymaster.sol\":4809:4866  paymasterAndData[VALID_TIMESTAMP_OFFSET:SIGNATURE_OFFSET] */\n      swap3\n      tag_122\n      swap4\n      swap3\n      swap2\n      swap1\n      tag_123\n      jump\t// in\n    tag_122:\n        /* \"contracts/paymaster/KaijuVerifyingPaymaster.sol\":4798:4884  abi.decode(paymasterAndData[VALID_TIMESTAMP_OFFSET:SIGNATURE_OFFSET],(uint48, uint48)) */\n      dup2\n      add\n      swap1\n      tag_124\n      swap2\n      swap1\n      tag_125\n      jump\t// in\n    tag_124:\n        /* \"contracts/paymaster/KaijuVerifyingPaymaster.sol\":4771:4884  (validUntil, validAfter) = abi.decode(paymasterAndData[VALID_TIMESTAMP_OFFSET:SIGNATURE_OFFSET],(uint48, uint48)) */\n      dup1\n      swap5\n      pop\n      dup2\n      swap6\n      pop\n      pop\n      pop\n        /* \"contracts/paymaster/KaijuVerifyingPaymaster.sol\":4906:4922  paymasterAndData */\n      dup6\n      dup6\n        /* \"contracts/paymaster/KaijuVerifyingPaymaster.sol\":1034:1036  84 */\n      0x54\n        /* \"contracts/paymaster/KaijuVerifyingPaymaster.sol\":4906:4941  paymasterAndData[SIGNATURE_OFFSET:] */\n      swap1\n      dup1\n      swap3\n      tag_126\n      swap4\n      swap3\n      swap2\n      swap1\n      tag_123\n      jump\t// in\n    tag_126:\n        /* \"contracts/paymaster/KaijuVerifyingPaymaster.sol\":4894:4941  signature = paymasterAndData[SIGNATURE_OFFSET:] */\n      swap2\n      pop\n      swap2\n      pop\n        /* \"contracts/paymaster/KaijuVerifyingPaymaster.sol\":4613:4948  function parsePaymasterAndData(bytes calldata paymasterAndData) public pure returns(uint48 validUntil, uint48 validAfter, bytes calldata signature) {... */\n      swap3\n      swap6\n      swap2\n      swap5\n      pop\n      swap3\n      pop\n      jump\t// out\n        /* \"contracts/paymaster/KaijuVerifyingPaymaster.sol\":2498:2875  function getHash(UserOperation calldata userOp, uint48 validUntil, uint48 validAfter)... */\n    tag_53:\n        /* \"contracts/paymaster/KaijuVerifyingPaymaster.sol\":2609:2616  bytes32 */\n      0x00\n        /* \"contracts/paymaster/KaijuVerifyingPaymaster.sol\":2674:2686  pack(userOp) */\n      tag_128\n        /* \"contracts/paymaster/KaijuVerifyingPaymaster.sol\":2679:2685  userOp */\n      dup5\n        /* \"contracts/paymaster/KaijuVerifyingPaymaster.sol\":2674:2678  pack */\n      tag_129\n        /* \"contracts/paymaster/KaijuVerifyingPaymaster.sol\":2674:2686  pack(userOp) */\n      jump\t// in\n    tag_128:\n        /* \"contracts/paymaster/KaijuVerifyingPaymaster.sol\":2704:2717  block.chainid */\n      chainid\n        /* \"contracts/paymaster/KaijuVerifyingPaymaster.sol\":2743:2747  this */\n      address\n        /* \"contracts/paymaster/KaijuVerifyingPaymaster.sol\":2766:2777  senderNonce */\n      0x01\n        /* \"contracts/paymaster/KaijuVerifyingPaymaster.sol\":2766:2797  senderNonce[userOp.getSender()] */\n      0x00\n        /* \"contracts/paymaster/KaijuVerifyingPaymaster.sol\":2778:2796  userOp.getSender() */\n      tag_130\n        /* \"contracts/paymaster/KaijuVerifyingPaymaster.sol\":2778:2784  userOp */\n      dup10\n        /* \"contracts/paymaster/KaijuVerifyingPaymaster.sol\":2778:2794  userOp.getSender */\n      tag_131\n        /* \"contracts/paymaster/KaijuVerifyingPaymaster.sol\":2778:2796  userOp.getSender() */\n      jump\t// in\n    tag_130:\n        /* \"contracts/paymaster/KaijuVerifyingPaymaster.sol\":2766:2797  senderNonce[userOp.getSender()] */\n      0xffffffffffffffffffffffffffffffffffffffff\n      and\n      0xffffffffffffffffffffffffffffffffffffffff\n      and\n      dup2\n      mstore\n      0x20\n      add\n      swap1\n      dup2\n      mstore\n      0x20\n      add\n      0x00\n      keccak256\n      sload\n        /* \"contracts/paymaster/KaijuVerifyingPaymaster.sol\":2815:2825  validUntil */\n      dup7\n        /* \"contracts/paymaster/KaijuVerifyingPaymaster.sol\":2843:2853  validAfter */\n      dup7\n        /* \"contracts/paymaster/KaijuVerifyingPaymaster.sol\":2646:2867  abi.encode(... */\n      add(0x20, mload(0x40))\n      tag_132\n      swap7\n      swap6\n      swap5\n      swap4\n      swap3\n      swap2\n      swap1\n      tag_133\n      jump\t// in\n    tag_132:\n      mload(0x40)\n      0x20\n      dup2\n      dup4\n      sub\n      sub\n      dup2\n      mstore\n      swap1\n      0x40\n      mstore\n        /* \"contracts/paymaster/KaijuVerifyingPaymaster.sol\":2636:2868  keccak256(abi.encode(... */\n      dup1\n      mload\n      swap1\n      0x20\n      add\n      keccak256\n        /* \"contracts/paymaster/KaijuVerifyingPaymaster.sol\":2629:2868  return keccak256(abi.encode(... */\n      swap1\n      pop\n        /* \"contracts/paymaster/KaijuVerifyingPaymaster.sol\":2498:2875  function getHash(UserOperation calldata userOp, uint48 validUntil, uint48 validAfter)... */\n      swap4\n      swap3\n      pop\n      pop\n      pop\n      jump\t// out\n        /* \"contracts/paymaster/KaijuVerifyingPaymaster.sol\":1190:1236  mapping(address => uint256) public senderNonce */\n    tag_60:\n      mstore(0x20, 0x01)\n      dup1\n      0x00\n      mstore\n      keccak256(0x00, 0x40)\n      0x00\n      swap2\n      pop\n      swap1\n      pop\n      sload\n      dup2\n      jump\t// out\n        /* \"@account-abstraction/contracts/core/BasePaymaster.sol\":1143:1329  function postOp(PostOpMode mode, bytes calldata context, uint256 actualGasCost) external override {... */\n    tag_67:\n        /* \"@account-abstraction/contracts/core/BasePaymaster.sol\":1251:1275  _requireFromEntryPoint() */\n      tag_135\n        /* \"@account-abstraction/contracts/core/BasePaymaster.sol\":1251:1273  _requireFromEntryPoint */\n      tag_136\n        /* \"@account-abstraction/contracts/core/BasePaymaster.sol\":1251:1275  _requireFromEntryPoint() */\n      jump\t// in\n    tag_135:\n        /* \"@account-abstraction/contracts/core/BasePaymaster.sol\":1285:1322  _postOp(mode, context, actualGasCost) */\n      tag_137\n        /* \"@account-abstraction/contracts/core/BasePaymaster.sol\":1293:1297  mode */\n      dup5\n        /* \"@account-abstraction/contracts/core/BasePaymaster.sol\":1299:1306  context */\n      dup5\n      dup5\n        /* \"@account-abstraction/contracts/core/BasePaymaster.sol\":1308:1321  actualGasCost */\n      dup5\n        /* \"@account-abstraction/contracts/core/BasePaymaster.sol\":1285:1292  _postOp */\n      tag_138\n        /* \"@account-abstraction/contracts/core/BasePaymaster.sol\":1285:1322  _postOp(mode, context, actualGasCost) */\n      jump\t// in\n    tag_137:\n        /* \"@account-abstraction/contracts/core/BasePaymaster.sol\":1143:1329  function postOp(PostOpMode mode, bytes calldata context, uint256 actualGasCost) external override {... */\n      pop\n      pop\n      pop\n      pop\n      jump\t// out\n        /* \"@account-abstraction/contracts/core/BasePaymaster.sol\":471:510  IEntryPoint immutable public entryPoint */\n    tag_70:\n      immutable(\"0x789bcdf275fa270780a52ae3b79bb1ce0fda7e0aaad87b57b74bb99ac290714a\")\n      dup2\n      jump\t// out\n        /* \"@account-abstraction/contracts/core/BasePaymaster.sol\":3588:3671  function unlockStake() external onlyOwner {... */\n    tag_75:\n        /* \"@openzeppelin/contracts/access/Ownable.sol\":1094:1107  _checkOwner() */\n      tag_140\n        /* \"@openzeppelin/contracts/access/Ownable.sol\":1094:1105  _checkOwner */\n      tag_100\n        /* \"@openzeppelin/contracts/access/Ownable.sol\":1094:1107  _checkOwner() */\n      jump\t// in\n    tag_140:\n        /* \"@account-abstraction/contracts/core/BasePaymaster.sol\":3640:3650  entryPoint */\n      immutable(\"0x789bcdf275fa270780a52ae3b79bb1ce0fda7e0aaad87b57b74bb99ac290714a\")\n        /* \"@account-abstraction/contracts/core/BasePaymaster.sol\":3640:3662  entryPoint.unlockStake */\n      0xffffffffffffffffffffffffffffffffffffffff\n      and\n      0xbb9fe6bf\n        /* \"@account-abstraction/contracts/core/BasePaymaster.sol\":3640:3664  entryPoint.unlockStake() */\n      mload(0x40)\n      dup2\n      0xffffffff\n      and\n      0xe0\n      shl\n      dup2\n      mstore\n      0x04\n      add\n      0x00\n      mload(0x40)\n      dup1\n      dup4\n      sub\n      dup2\n      0x00\n      dup8\n      dup1\n      extcodesize\n      iszero\n      dup1\n      iszero\n      tag_142\n      jumpi\n      0x00\n      dup1\n      revert\n    tag_142:\n      pop\n      gas\n      call\n      iszero\n      dup1\n      iszero\n      tag_144\n      jumpi\n      returndatasize\n      0x00\n      dup1\n      returndatacopy\n      revert(0x00, returndatasize)\n    tag_144:\n      pop\n      pop\n      pop\n      pop\n        /* \"@account-abstraction/contracts/core/BasePaymaster.sol\":3588:3671  function unlockStake() external onlyOwner {... */\n      jump\t// out\n        /* \"@account-abstraction/contracts/core/BasePaymaster.sol\":3890:4023  function withdrawStake(address payable withdrawAddress) external onlyOwner {... */\n    tag_80:\n        /* \"@openzeppelin/contracts/access/Ownable.sol\":1094:1107  _checkOwner() */\n      tag_146\n        /* \"@openzeppelin/contracts/access/Ownable.sol\":1094:1105  _checkOwner */\n      tag_100\n        /* \"@openzeppelin/contracts/access/Ownable.sol\":1094:1107  _checkOwner() */\n      jump\t// in\n    tag_146:\n        /* \"@account-abstraction/contracts/core/BasePaymaster.sol\":3975:3985  entryPoint */\n      immutable(\"0x789bcdf275fa270780a52ae3b79bb1ce0fda7e0aaad87b57b74bb99ac290714a\")\n        /* \"@account-abstraction/contracts/core/BasePaymaster.sol\":3975:3999  entryPoint.withdrawStake */\n      0xffffffffffffffffffffffffffffffffffffffff\n      and\n      0xc23a5cea\n        /* \"@account-abstraction/contracts/core/BasePaymaster.sol\":4000:4015  withdrawAddress */\n      dup3\n        /* \"@account-abstraction/contracts/core/BasePaymaster.sol\":3975:4016  entryPoint.withdrawStake(withdrawAddress) */\n      mload(0x40)\n      dup3\n      0xffffffff\n      and\n      0xe0\n      shl\n      dup2\n      mstore\n      0x04\n      add\n      tag_148\n      swap2\n      swap1\n      tag_149\n      jump\t// in\n    tag_148:\n      0x00\n      mload(0x40)\n      dup1\n      dup4\n      sub\n      dup2\n      0x00\n      dup8\n      dup1\n      extcodesize\n      iszero\n      dup1\n      iszero\n      tag_150\n      jumpi\n      0x00\n      dup1\n      revert\n    tag_150:\n      pop\n      gas\n      call\n      iszero\n      dup1\n      iszero\n      tag_152\n      jumpi\n      returndatasize\n      0x00\n      dup1\n      returndatacopy\n      revert(0x00, returndatasize)\n    tag_152:\n      pop\n      pop\n      pop\n      pop\n        /* \"@account-abstraction/contracts/core/BasePaymaster.sol\":3890:4023  function withdrawStake(address payable withdrawAddress) external onlyOwner {... */\n      pop\n      jump\t// out\n        /* \"@account-abstraction/contracts/core/BasePaymaster.sol\":3318:3429  function getDeposit() public view returns (uint256) {... */\n    tag_83:\n        /* \"@account-abstraction/contracts/core/BasePaymaster.sol\":3361:3368  uint256 */\n      0x00\n        /* \"@account-abstraction/contracts/core/BasePaymaster.sol\":3387:3397  entryPoint */\n      immutable(\"0x789bcdf275fa270780a52ae3b79bb1ce0fda7e0aaad87b57b74bb99ac290714a\")\n        /* \"@account-abstraction/contracts/core/BasePaymaster.sol\":3387:3407  entryPoint.balanceOf */\n      0xffffffffffffffffffffffffffffffffffffffff\n      and\n      0x70a08231\n        /* \"@account-abstraction/contracts/core/BasePaymaster.sol\":3416:3420  this */\n      address\n        /* \"@account-abstraction/contracts/core/BasePaymaster.sol\":3387:3422  entryPoint.balanceOf(address(this)) */\n      mload(0x40)\n      dup3\n      0xffffffff\n      and\n      0xe0\n      shl\n      dup2\n      mstore\n      0x04\n      add\n      tag_154\n      swap2\n      swap1\n      tag_34\n      jump\t// in\n    tag_154:\n      0x20\n      mload(0x40)\n      dup1\n      dup4\n      sub\n      dup2\n      dup7\n      gas\n      staticcall\n      iszero\n      dup1\n      iszero\n      tag_156\n      jumpi\n      returndatasize\n      0x00\n      dup1\n      returndatacopy\n      revert(0x00, returndatasize)\n    tag_156:\n      pop\n      pop\n      pop\n      pop\n      mload(0x40)\n      returndatasize\n      not(0x1f)\n      0x1f\n      dup3\n      add\n      and\n      dup3\n      add\n      dup1\n      0x40\n      mstore\n      pop\n      dup2\n      add\n      swap1\n      tag_157\n      swap2\n      swap1\n      tag_158\n      jump\t// in\n    tag_157:\n        /* \"@account-abstraction/contracts/core/BasePaymaster.sol\":3380:3422  return entryPoint.balanceOf(address(this)) */\n      swap1\n      pop\n        /* \"@account-abstraction/contracts/core/BasePaymaster.sol\":3318:3429  function getDeposit() public view returns (uint256) {... */\n      swap1\n      jump\t// out\n        /* \"@account-abstraction/contracts/core/BasePaymaster.sol\":2474:2579  function deposit() public payable {... */\n    tag_86:\n        /* \"@account-abstraction/contracts/core/BasePaymaster.sol\":2518:2528  entryPoint */\n      immutable(\"0x789bcdf275fa270780a52ae3b79bb1ce0fda7e0aaad87b57b74bb99ac290714a\")\n        /* \"@account-abstraction/contracts/core/BasePaymaster.sol\":2518:2538  entryPoint.depositTo */\n      0xffffffffffffffffffffffffffffffffffffffff\n      and\n      0xb760faf9\n        /* \"@account-abstraction/contracts/core/BasePaymaster.sol\":2547:2556  msg.value */\n      callvalue\n        /* \"@account-abstraction/contracts/core/BasePaymaster.sol\":2566:2570  this */\n      address\n        /* \"@account-abstraction/contracts/core/BasePaymaster.sol\":2518:2572  entryPoint.depositTo{value : msg.value}(address(this)) */\n      mload(0x40)\n      dup4\n      0xffffffff\n      and\n      0xe0\n      shl\n      dup2\n      mstore\n      0x04\n      add\n      tag_160\n      swap2\n      swap1\n      tag_34\n      jump\t// in\n    tag_160:\n      0x00\n      mload(0x40)\n      dup1\n      dup4\n      sub\n      dup2\n      dup6\n      dup9\n      dup1\n      extcodesize\n      iszero\n      dup1\n      iszero\n      tag_161\n      jumpi\n      0x00\n      dup1\n      revert\n    tag_161:\n      pop\n      gas\n      call\n      iszero\n      dup1\n      iszero\n      tag_163\n      jumpi\n      returndatasize\n      0x00\n      dup1\n      returndatacopy\n      revert(0x00, returndatasize)\n    tag_163:\n      pop\n      pop\n      pop\n      pop\n      pop\n        /* \"@account-abstraction/contracts/core/BasePaymaster.sol\":2474:2579  function deposit() public payable {... */\n      jump\t// out\n        /* \"@openzeppelin/contracts/access/Ownable.sol\":2074:2272  function transferOwnership(address newOwner) public virtual onlyOwner {... */\n    tag_90:\n        /* \"@openzeppelin/contracts/access/Ownable.sol\":1094:1107  _checkOwner() */\n      tag_165\n        /* \"@openzeppelin/contracts/access/Ownable.sol\":1094:1105  _checkOwner */\n      tag_100\n        /* \"@openzeppelin/contracts/access/Ownable.sol\":1094:1107  _checkOwner() */\n      jump\t// in\n    tag_165:\n        /* \"@openzeppelin/contracts/access/Ownable.sol\":2182:2183  0 */\n      0x00\n        /* \"@openzeppelin/contracts/access/Ownable.sol\":2162:2184  newOwner != address(0) */\n      0xffffffffffffffffffffffffffffffffffffffff\n      and\n        /* \"@openzeppelin/contracts/access/Ownable.sol\":2162:2170  newOwner */\n      dup2\n        /* \"@openzeppelin/contracts/access/Ownable.sol\":2162:2184  newOwner != address(0) */\n      0xffffffffffffffffffffffffffffffffffffffff\n      and\n      sub\n        /* \"@openzeppelin/contracts/access/Ownable.sol\":2154:2227  require(newOwner != address(0), \"Ownable: new owner is the zero address\") */\n      tag_167\n      jumpi\n      mload(0x40)\n      0x08c379a000000000000000000000000000000000000000000000000000000000\n      dup2\n      mstore\n      0x04\n      add\n      tag_168\n      swap1\n      tag_169\n      jump\t// in\n    tag_168:\n      mload(0x40)\n      dup1\n      swap2\n      sub\n      swap1\n      revert\n    tag_167:\n        /* \"@openzeppelin/contracts/access/Ownable.sol\":2237:2265  _transferOwnership(newOwner) */\n      tag_170\n        /* \"@openzeppelin/contracts/access/Ownable.sol\":2256:2264  newOwner */\n      dup2\n        /* \"@openzeppelin/contracts/access/Ownable.sol\":2237:2255  _transferOwnership */\n      tag_119\n        /* \"@openzeppelin/contracts/access/Ownable.sol\":2237:2265  _transferOwnership(newOwner) */\n      jump\t// in\n    tag_170:\n        /* \"@openzeppelin/contracts/access/Ownable.sol\":2074:2272  function transferOwnership(address newOwner) public virtual onlyOwner {... */\n      pop\n      jump\t// out\n        /* \"@account-abstraction/contracts/core/BasePaymaster.sol\":632:922  function validatePaymasterUserOp(UserOperation calldata userOp, bytes32 userOpHash, uint256 maxCost)... */\n    tag_95:\n        /* \"@account-abstraction/contracts/core/BasePaymaster.sol\":764:784  bytes memory context */\n      0x60\n        /* \"@account-abstraction/contracts/core/BasePaymaster.sol\":786:808  uint256 validationData */\n      0x00\n        /* \"@account-abstraction/contracts/core/BasePaymaster.sol\":821:845  _requireFromEntryPoint() */\n      tag_172\n        /* \"@account-abstraction/contracts/core/BasePaymaster.sol\":821:843  _requireFromEntryPoint */\n      tag_136\n        /* \"@account-abstraction/contracts/core/BasePaymaster.sol\":821:845  _requireFromEntryPoint() */\n      jump\t// in\n    tag_172:\n        /* \"@account-abstraction/contracts/core/BasePaymaster.sol\":862:915  _validatePaymasterUserOp(userOp, userOpHash, maxCost) */\n      tag_173\n        /* \"@account-abstraction/contracts/core/BasePaymaster.sol\":887:893  userOp */\n      dup6\n        /* \"@account-abstraction/contracts/core/BasePaymaster.sol\":895:905  userOpHash */\n      dup6\n        /* \"@account-abstraction/contracts/core/BasePaymaster.sol\":907:914  maxCost */\n      dup6\n        /* \"@account-abstraction/contracts/core/BasePaymaster.sol\":862:886  _validatePaymasterUserOp */\n      tag_174\n        /* \"@account-abstraction/contracts/core/BasePaymaster.sol\":862:915  _validatePaymasterUserOp(userOp, userOpHash, maxCost) */\n      jump\t// in\n    tag_173:\n        /* \"@account-abstraction/contracts/core/BasePaymaster.sol\":855:915  return _validatePaymasterUserOp(userOp, userOpHash, maxCost) */\n      swap2\n      pop\n      swap2\n      pop\n        /* \"@account-abstraction/contracts/core/BasePaymaster.sol\":632:922  function validatePaymasterUserOp(UserOperation calldata userOp, bytes32 userOpHash, uint256 maxCost)... */\n      swap4\n      pop\n      swap4\n      swap2\n      pop\n      pop\n      jump\t// out\n        /* \"@openzeppelin/contracts/access/Ownable.sol\":1359:1489  function _checkOwner() internal view virtual {... */\n    tag_100:\n        /* \"@openzeppelin/contracts/access/Ownable.sol\":1433:1445  _msgSender() */\n      tag_176\n        /* \"@openzeppelin/contracts/access/Ownable.sol\":1433:1443  _msgSender */\n      tag_177\n        /* \"@openzeppelin/contracts/access/Ownable.sol\":1433:1445  _msgSender() */\n      jump\t// in\n    tag_176:\n        /* \"@openzeppelin/contracts/access/Ownable.sol\":1422:1445  owner() == _msgSender() */\n      0xffffffffffffffffffffffffffffffffffffffff\n      and\n        /* \"@openzeppelin/contracts/access/Ownable.sol\":1422:1429  owner() */\n      tag_178\n        /* \"@openzeppelin/contracts/access/Ownable.sol\":1422:1427  owner */\n      tag_40\n        /* \"@openzeppelin/contracts/access/Ownable.sol\":1422:1429  owner() */\n      jump\t// in\n    tag_178:\n        /* \"@openzeppelin/contracts/access/Ownable.sol\":1422:1445  owner() == _msgSender() */\n      0xffffffffffffffffffffffffffffffffffffffff\n      and\n      eq\n        /* \"@openzeppelin/contracts/access/Ownable.sol\":1414:1482  require(owner() == _msgSender(), \"Ownable: caller is not the owner\") */\n      tag_179\n      jumpi\n      mload(0x40)\n      0x08c379a000000000000000000000000000000000000000000000000000000000\n      dup2\n      mstore\n      0x04\n      add\n      tag_180\n      swap1\n      tag_181\n      jump\t// in\n    tag_180:\n      mload(0x40)\n      dup1\n      swap2\n      sub\n      swap1\n      revert\n    tag_179:\n        /* \"@openzeppelin/contracts/access/Ownable.sol\":1359:1489  function _checkOwner() internal view virtual {... */\n      jump\t// out\n        /* \"@openzeppelin/contracts/access/Ownable.sol\":2426:2613  function _transferOwnership(address newOwner) internal virtual {... */\n    tag_119:\n        /* \"@openzeppelin/contracts/access/Ownable.sol\":2499:2515  address oldOwner */\n      0x00\n        /* \"@openzeppelin/contracts/access/Ownable.sol\":2518:2524  _owner */\n      dup1\n      0x00\n      swap1\n      sload\n      swap1\n      0x0100\n      exp\n      swap1\n      div\n      0xffffffffffffffffffffffffffffffffffffffff\n      and\n        /* \"@openzeppelin/contracts/access/Ownable.sol\":2499:2524  address oldOwner = _owner */\n      swap1\n      pop\n        /* \"@openzeppelin/contracts/access/Ownable.sol\":2543:2551  newOwner */\n      dup2\n        /* \"@openzeppelin/contracts/access/Ownable.sol\":2534:2540  _owner */\n      0x00\n      dup1\n        /* \"@openzeppelin/contracts/access/Ownable.sol\":2534:2551  _owner = newOwner */\n      0x0100\n      exp\n      dup2\n      sload\n      dup2\n      0xffffffffffffffffffffffffffffffffffffffff\n      mul\n      not\n      and\n      swap1\n      dup4\n      0xffffffffffffffffffffffffffffffffffffffff\n      and\n      mul\n      or\n      swap1\n      sstore\n      pop\n        /* \"@openzeppelin/contracts/access/Ownable.sol\":2597:2605  newOwner */\n      dup2\n        /* \"@openzeppelin/contracts/access/Ownable.sol\":2566:2606  OwnershipTransferred(oldOwner, newOwner) */\n      0xffffffffffffffffffffffffffffffffffffffff\n      and\n        /* \"@openzeppelin/contracts/access/Ownable.sol\":2587:2595  oldOwner */\n      dup2\n        /* \"@openzeppelin/contracts/access/Ownable.sol\":2566:2606  OwnershipTransferred(oldOwner, newOwner) */\n      0xffffffffffffffffffffffffffffffffffffffff\n      and\n      0x8be0079c531659141344cd1fd0a4f28419497f9722a3daafe3b4186f6b6457e0\n      mload(0x40)\n      mload(0x40)\n      dup1\n      swap2\n      sub\n      swap1\n      log3\n        /* \"@openzeppelin/contracts/access/Ownable.sol\":2489:2613  {... */\n      pop\n        /* \"@openzeppelin/contracts/access/Ownable.sol\":2426:2613  function _transferOwnership(address newOwner) internal virtual {... */\n      pop\n      jump\t// out\n        /* \"contracts/paymaster/KaijuVerifyingPaymaster.sol\":1520:1939  function pack(UserOperation calldata userOp) internal pure returns (bytes memory ret) {... */\n    tag_129:\n        /* \"contracts/paymaster/KaijuVerifyingPaymaster.sol\":1588:1604  bytes memory ret */\n      0x60\n        /* \"contracts/paymaster/KaijuVerifyingPaymaster.sol\":1617:1635  bytes calldata pnd */\n      calldatasize\n      0x00\n        /* \"contracts/paymaster/KaijuVerifyingPaymaster.sol\":1638:1644  userOp */\n      dup4\n        /* \"contracts/paymaster/KaijuVerifyingPaymaster.sol\":1638:1661  userOp.paymasterAndData */\n      dup1\n      0x0120\n      add\n      swap1\n      tag_184\n      swap2\n      swap1\n      tag_185\n      jump\t// in\n    tag_184:\n        /* \"contracts/paymaster/KaijuVerifyingPaymaster.sol\":1617:1661  bytes calldata pnd = userOp.paymasterAndData */\n      swap2\n      pop\n      swap2\n      pop\n        /* \"contracts/paymaster/KaijuVerifyingPaymaster.sol\":1706:1712  userOp */\n      dup4\n        /* \"contracts/paymaster/KaijuVerifyingPaymaster.sol\":1762:1764  32 */\n      0x20\n        /* \"contracts/paymaster/KaijuVerifyingPaymaster.sol\":1756:1759  ofs */\n      dup2\n        /* \"contracts/paymaster/KaijuVerifyingPaymaster.sol\":1744:1754  pnd.offset */\n      dup5\n        /* \"contracts/paymaster/KaijuVerifyingPaymaster.sol\":1740:1760  sub(pnd.offset, ofs) */\n      sub\n        /* \"contracts/paymaster/KaijuVerifyingPaymaster.sol\":1736:1765  sub(sub(pnd.offset, ofs), 32) */\n      sub\n        /* \"contracts/paymaster/KaijuVerifyingPaymaster.sol\":1791:1795  0x40 */\n      0x40\n        /* \"contracts/paymaster/KaijuVerifyingPaymaster.sol\":1785:1796  mload(0x40) */\n      mload\n        /* \"contracts/paymaster/KaijuVerifyingPaymaster.sol\":1778:1796  ret := mload(0x40) */\n      swap5\n      pop\n        /* \"contracts/paymaster/KaijuVerifyingPaymaster.sol\":1840:1842  32 */\n      0x20\n        /* \"contracts/paymaster/KaijuVerifyingPaymaster.sol\":1835:1838  len */\n      dup2\n        /* \"contracts/paymaster/KaijuVerifyingPaymaster.sol\":1831:1843  add(len, 32) */\n      add\n        /* \"contracts/paymaster/KaijuVerifyingPaymaster.sol\":1826:1829  ret */\n      dup6\n        /* \"contracts/paymaster/KaijuVerifyingPaymaster.sol\":1822:1844  add(ret, add(len, 32)) */\n      add\n        /* \"contracts/paymaster/KaijuVerifyingPaymaster.sol\":1816:1820  0x40 */\n      0x40\n        /* \"contracts/paymaster/KaijuVerifyingPaymaster.sol\":1809:1845  mstore(0x40, add(ret, add(len, 32))) */\n      mstore\n        /* \"contracts/paymaster/KaijuVerifyingPaymaster.sol\":1870:1873  len */\n      dup1\n        /* \"contracts/paymaster/KaijuVerifyingPaymaster.sol\":1865:1868  ret */\n      dup6\n        /* \"contracts/paymaster/KaijuVerifyingPaymaster.sol\":1858:1874  mstore(ret, len) */\n      mstore\n        /* \"contracts/paymaster/KaijuVerifyingPaymaster.sol\":1919:1922  len */\n      dup1\n        /* \"contracts/paymaster/KaijuVerifyingPaymaster.sol\":1914:1917  ofs */\n      dup3\n        /* \"contracts/paymaster/KaijuVerifyingPaymaster.sol\":1909:1911  32 */\n      0x20\n        /* \"contracts/paymaster/KaijuVerifyingPaymaster.sol\":1904:1907  ret */\n      dup8\n        /* \"contracts/paymaster/KaijuVerifyingPaymaster.sol\":1900:1912  add(ret, 32) */\n      add\n        /* \"contracts/paymaster/KaijuVerifyingPaymaster.sol\":1887:1923  calldatacopy(add(ret, 32), ofs, len) */\n      calldatacopy\n        /* \"contracts/paymaster/KaijuVerifyingPaymaster.sol\":1681:1933  {... */\n      pop\n      pop\n      pop\n      pop\n        /* \"contracts/paymaster/KaijuVerifyingPaymaster.sol\":1520:1939  function pack(UserOperation calldata userOp) internal pure returns (bytes memory ret) {... */\n      swap2\n      swap1\n      pop\n      jump\t// out\n        /* \"@account-abstraction/contracts/interfaces/UserOperation.sol\":1662:1943  function getSender(UserOperation calldata userOp) internal pure returns (address) {... */\n    tag_131:\n        /* \"@account-abstraction/contracts/interfaces/UserOperation.sol\":1735:1742  address */\n      0x00\n        /* \"@account-abstraction/contracts/interfaces/UserOperation.sol\":1754:1766  address data */\n      dup1\n        /* \"@account-abstraction/contracts/interfaces/UserOperation.sol\":1890:1896  userOp */\n      dup3\n        /* \"@account-abstraction/contracts/interfaces/UserOperation.sol\":1877:1897  calldataload(userOp) */\n      calldataload\n        /* \"@account-abstraction/contracts/interfaces/UserOperation.sol\":1869:1897  data := calldataload(userOp) */\n      swap1\n      pop\n        /* \"@account-abstraction/contracts/interfaces/UserOperation.sol\":1930:1934  data */\n      dup1\n        /* \"@account-abstraction/contracts/interfaces/UserOperation.sol\":1907:1936  return address(uint160(data)) */\n      swap2\n      pop\n      pop\n        /* \"@account-abstraction/contracts/interfaces/UserOperation.sol\":1662:1943  function getSender(UserOperation calldata userOp) internal pure returns (address) {... */\n      swap2\n      swap1\n      pop\n      jump\t// out\n        /* \"@account-abstraction/contracts/core/BasePaymaster.sol\":4087:4222  function _requireFromEntryPoint() internal virtual {... */\n    tag_136:\n        /* \"@account-abstraction/contracts/core/BasePaymaster.sol\":4178:4188  entryPoint */\n      immutable(\"0x789bcdf275fa270780a52ae3b79bb1ce0fda7e0aaad87b57b74bb99ac290714a\")\n        /* \"@account-abstraction/contracts/core/BasePaymaster.sol\":4156:4189  msg.sender == address(entryPoint) */\n      0xffffffffffffffffffffffffffffffffffffffff\n      and\n        /* \"@account-abstraction/contracts/core/BasePaymaster.sol\":4156:4166  msg.sender */\n      caller\n        /* \"@account-abstraction/contracts/core/BasePaymaster.sol\":4156:4189  msg.sender == address(entryPoint) */\n      0xffffffffffffffffffffffffffffffffffffffff\n      and\n      eq\n        /* \"@account-abstraction/contracts/core/BasePaymaster.sol\":4148:4215  require(msg.sender == address(entryPoint), \"Sender not EntryPoint\") */\n      tag_188\n      jumpi\n      mload(0x40)\n      0x08c379a000000000000000000000000000000000000000000000000000000000\n      dup2\n      mstore\n      0x04\n      add\n      tag_189\n      swap1\n      tag_190\n      jump\t// in\n    tag_189:\n      mload(0x40)\n      dup1\n      swap2\n      sub\n      swap1\n      revert\n    tag_188:\n        /* \"@account-abstraction/contracts/core/BasePaymaster.sol\":4087:4222  function _requireFromEntryPoint() internal virtual {... */\n      jump\t// out\n        /* \"@account-abstraction/contracts/core/BasePaymaster.sol\":2089:2374  function _postOp(PostOpMode mode, bytes calldata context, uint256 actualGasCost) internal virtual {... */\n    tag_138:\n        /* \"@account-abstraction/contracts/core/BasePaymaster.sol\":2344:2367  revert(\"must override\") */\n      mload(0x40)\n      0x08c379a000000000000000000000000000000000000000000000000000000000\n      dup2\n      mstore\n      0x04\n      add\n      tag_192\n      swap1\n      tag_193\n      jump\t// in\n    tag_192:\n      mload(0x40)\n      dup1\n      swap2\n      sub\n      swap1\n      revert\n        /* \"contracts/paymaster/KaijuVerifyingPaymaster.sol\":3660:4501  function _validatePaymasterUserOp(UserOperation calldata userOp, bytes32 /*userOpHash*/, uint256 requiredPreFund)... */\n    tag_174:\n        /* \"contracts/paymaster/KaijuVerifyingPaymaster.sol\":3805:3825  bytes memory context */\n      0x60\n        /* \"contracts/paymaster/KaijuVerifyingPaymaster.sol\":3827:3849  uint256 validationData */\n      0x00\n        /* \"contracts/paymaster/KaijuVerifyingPaymaster.sol\":3890:3907  uint48 validUntil */\n      dup1\n        /* \"contracts/paymaster/KaijuVerifyingPaymaster.sol\":3909:3926  uint48 validAfter */\n      dup1\n        /* \"contracts/paymaster/KaijuVerifyingPaymaster.sol\":3928:3952  bytes calldata signature */\n      calldatasize\n      0x00\n        /* \"contracts/paymaster/KaijuVerifyingPaymaster.sol\":3956:4002  parsePaymasterAndData(userOp.paymasterAndData) */\n      tag_195\n        /* \"contracts/paymaster/KaijuVerifyingPaymaster.sol\":3978:3984  userOp */\n      dup10\n        /* \"contracts/paymaster/KaijuVerifyingPaymaster.sol\":3978:4001  userOp.paymasterAndData */\n      dup1\n      0x0120\n      add\n      swap1\n      tag_196\n      swap2\n      swap1\n      tag_185\n      jump\t// in\n    tag_196:\n        /* \"contracts/paymaster/KaijuVerifyingPaymaster.sol\":3956:3977  parsePaymasterAndData */\n      tag_46\n        /* \"contracts/paymaster/KaijuVerifyingPaymaster.sol\":3956:4002  parsePaymasterAndData(userOp.paymasterAndData) */\n      jump\t// in\n    tag_195:\n        /* \"contracts/paymaster/KaijuVerifyingPaymaster.sol\":3889:4002  (uint48 validUntil, uint48 validAfter, bytes calldata signature) = parsePaymasterAndData(userOp.paymasterAndData) */\n      swap4\n      pop\n      swap4\n      pop\n      swap4\n      pop\n      swap4\n      pop\n        /* \"contracts/paymaster/KaijuVerifyingPaymaster.sol\":4041:4043  64 */\n      0x40\n        /* \"contracts/paymaster/KaijuVerifyingPaymaster.sol\":4021:4030  signature */\n      dup3\n      dup3\n        /* \"contracts/paymaster/KaijuVerifyingPaymaster.sol\":4021:4037  signature.length */\n      swap1\n      pop\n        /* \"contracts/paymaster/KaijuVerifyingPaymaster.sol\":4021:4043  signature.length == 64 */\n      eq\n        /* \"contracts/paymaster/KaijuVerifyingPaymaster.sol\":4021:4069  signature.length == 64 || signature.length == 65 */\n      dup1\n      tag_197\n      jumpi\n      pop\n        /* \"contracts/paymaster/KaijuVerifyingPaymaster.sol\":4067:4069  65 */\n      0x41\n        /* \"contracts/paymaster/KaijuVerifyingPaymaster.sol\":4047:4056  signature */\n      dup3\n      dup3\n        /* \"contracts/paymaster/KaijuVerifyingPaymaster.sol\":4047:4063  signature.length */\n      swap1\n      pop\n        /* \"contracts/paymaster/KaijuVerifyingPaymaster.sol\":4047:4069  signature.length == 65 */\n      eq\n        /* \"contracts/paymaster/KaijuVerifyingPaymaster.sol\":4021:4069  signature.length == 64 || signature.length == 65 */\n    tag_197:\n        /* \"contracts/paymaster/KaijuVerifyingPaymaster.sol\":4013:4138  require(signature.length == 64 || signature.length == 65, \"VerifyingPaymaster: invalid signature length in paymasterAndData\") */\n      tag_198\n      jumpi\n      mload(0x40)\n      0x08c379a000000000000000000000000000000000000000000000000000000000\n      dup2\n      mstore\n      0x04\n      add\n      tag_199\n      swap1\n      tag_200\n      jump\t// in\n    tag_199:\n      mload(0x40)\n      dup1\n      swap2\n      sub\n      swap1\n      revert\n    tag_198:\n        /* \"contracts/paymaster/KaijuVerifyingPaymaster.sol\":4148:4160  bytes32 hash */\n      0x00\n        /* \"contracts/paymaster/KaijuVerifyingPaymaster.sol\":4163:4232  ECDSA.toEthSignedMessageHash(getHash(userOp, validUntil, validAfter)) */\n      tag_201\n        /* \"contracts/paymaster/KaijuVerifyingPaymaster.sol\":4192:4231  getHash(userOp, validUntil, validAfter) */\n      tag_202\n        /* \"contracts/paymaster/KaijuVerifyingPaymaster.sol\":4200:4206  userOp */\n      dup12\n        /* \"contracts/paymaster/KaijuVerifyingPaymaster.sol\":4208:4218  validUntil */\n      dup8\n        /* \"contracts/paymaster/KaijuVerifyingPaymaster.sol\":4220:4230  validAfter */\n      dup8\n        /* \"contracts/paymaster/KaijuVerifyingPaymaster.sol\":4192:4199  getHash */\n      tag_53\n        /* \"contracts/paymaster/KaijuVerifyingPaymaster.sol\":4192:4231  getHash(userOp, validUntil, validAfter) */\n      jump\t// in\n    tag_202:\n        /* \"contracts/paymaster/KaijuVerifyingPaymaster.sol\":4163:4191  ECDSA.toEthSignedMessageHash */\n      tag_203\n        /* \"contracts/paymaster/KaijuVerifyingPaymaster.sol\":4163:4232  ECDSA.toEthSignedMessageHash(getHash(userOp, validUntil, validAfter)) */\n      jump\t// in\n    tag_201:\n        /* \"contracts/paymaster/KaijuVerifyingPaymaster.sol\":4148:4232  bytes32 hash = ECDSA.toEthSignedMessageHash(getHash(userOp, validUntil, validAfter)) */\n      swap1\n      pop\n        /* \"contracts/paymaster/KaijuVerifyingPaymaster.sol\":4242:4253  senderNonce */\n      0x01\n        /* \"contracts/paymaster/KaijuVerifyingPaymaster.sol\":4242:4273  senderNonce[userOp.getSender()] */\n      0x00\n        /* \"contracts/paymaster/KaijuVerifyingPaymaster.sol\":4254:4272  userOp.getSender() */\n      tag_204\n        /* \"contracts/paymaster/KaijuVerifyingPaymaster.sol\":4254:4260  userOp */\n      dup13\n        /* \"contracts/paymaster/KaijuVerifyingPaymaster.sol\":4254:4270  userOp.getSender */\n      tag_131\n        /* \"contracts/paymaster/KaijuVerifyingPaymaster.sol\":4254:4272  userOp.getSender() */\n      jump\t// in\n    tag_204:\n        /* \"contracts/paymaster/KaijuVerifyingPaymaster.sol\":4242:4273  senderNonce[userOp.getSender()] */\n      0xffffffffffffffffffffffffffffffffffffffff\n      and\n      0xffffffffffffffffffffffffffffffffffffffff\n      and\n      dup2\n      mstore\n      0x20\n      add\n      swap1\n      dup2\n      mstore\n      0x20\n      add\n      0x00\n      keccak256\n      0x00\n        /* \"contracts/paymaster/KaijuVerifyingPaymaster.sol\":4242:4275  senderNonce[userOp.getSender()]++ */\n      dup2\n      sload\n      dup1\n      swap3\n      swap2\n      swap1\n      tag_205\n      swap1\n      tag_206\n      jump\t// in\n    tag_205:\n      swap2\n      swap1\n      pop\n      sstore\n      pop\n        /* \"contracts/paymaster/KaijuVerifyingPaymaster.sol\":4309:4339  ECDSA.recover(hash, signature) */\n      tag_207\n        /* \"contracts/paymaster/KaijuVerifyingPaymaster.sol\":4323:4327  hash */\n      dup2\n        /* \"contracts/paymaster/KaijuVerifyingPaymaster.sol\":4329:4338  signature */\n      dup5\n      dup5\n        /* \"contracts/paymaster/KaijuVerifyingPaymaster.sol\":4309:4339  ECDSA.recover(hash, signature) */\n      dup1\n      dup1\n      0x1f\n      add\n      0x20\n      dup1\n      swap2\n      div\n      mul\n      0x20\n      add\n      mload(0x40)\n      swap1\n      dup2\n      add\n      0x40\n      mstore\n      dup1\n      swap4\n      swap3\n      swap2\n      swap1\n      dup2\n      dup2\n      mstore\n      0x20\n      add\n      dup4\n      dup4\n      dup1\n      dup3\n      dup5\n      calldatacopy\n      0x00\n      dup2\n      dup5\n      add\n      mstore\n      not(0x1f)\n      0x1f\n      dup3\n      add\n      and\n      swap1\n      pop\n      dup1\n      dup4\n      add\n      swap3\n      pop\n      pop\n      pop\n      pop\n      pop\n      pop\n      pop\n        /* \"contracts/paymaster/KaijuVerifyingPaymaster.sol\":4309:4322  ECDSA.recover */\n      tag_208\n        /* \"contracts/paymaster/KaijuVerifyingPaymaster.sol\":4309:4339  ECDSA.recover(hash, signature) */\n      jump\t// in\n    tag_207:\n        /* \"contracts/paymaster/KaijuVerifyingPaymaster.sol\":4290:4339  verifyingSigner != ECDSA.recover(hash, signature) */\n      0xffffffffffffffffffffffffffffffffffffffff\n      and\n        /* \"contracts/paymaster/KaijuVerifyingPaymaster.sol\":4290:4305  verifyingSigner */\n      immutable(\"0x71c40068bd31bc09d5993cdc61ccff6d93335f0bfd330185a818ca14adae8b8a\")\n        /* \"contracts/paymaster/KaijuVerifyingPaymaster.sol\":4290:4339  verifyingSigner != ECDSA.recover(hash, signature) */\n      0xffffffffffffffffffffffffffffffffffffffff\n      and\n      eq\n        /* \"contracts/paymaster/KaijuVerifyingPaymaster.sol\":4286:4425  if (verifyingSigner != ECDSA.recover(hash, signature)) {... */\n      tag_209\n      jumpi\n        /* \"contracts/paymaster/KaijuVerifyingPaymaster.sol\":4366:4413  _packValidationData(true,validUntil,validAfter) */\n      tag_210\n        /* \"contracts/paymaster/KaijuVerifyingPaymaster.sol\":4386:4390  true */\n      0x01\n        /* \"contracts/paymaster/KaijuVerifyingPaymaster.sol\":4391:4401  validUntil */\n      dup7\n        /* \"contracts/paymaster/KaijuVerifyingPaymaster.sol\":4402:4412  validAfter */\n      dup7\n        /* \"contracts/paymaster/KaijuVerifyingPaymaster.sol\":4366:4385  _packValidationData */\n      tag_211\n        /* \"contracts/paymaster/KaijuVerifyingPaymaster.sol\":4366:4413  _packValidationData(true,validUntil,validAfter) */\n      jump\t// in\n    tag_210:\n        /* \"contracts/paymaster/KaijuVerifyingPaymaster.sol\":4355:4414  return (\"\",_packValidationData(true,validUntil,validAfter)) */\n      mload(0x40)\n      dup1\n      0x20\n      add\n      0x40\n      mstore\n      dup1\n      0x00\n      dup2\n      mstore\n      pop\n      swap1\n      swap7\n      pop\n      swap7\n      pop\n      pop\n      pop\n      pop\n      pop\n      pop\n      jump(tag_194)\n        /* \"contracts/paymaster/KaijuVerifyingPaymaster.sol\":4286:4425  if (verifyingSigner != ECDSA.recover(hash, signature)) {... */\n    tag_209:\n        /* \"contracts/paymaster/KaijuVerifyingPaymaster.sol\":4445:4493  _packValidationData(false,validUntil,validAfter) */\n      tag_212\n        /* \"contracts/paymaster/KaijuVerifyingPaymaster.sol\":4465:4470  false */\n      0x00\n        /* \"contracts/paymaster/KaijuVerifyingPaymaster.sol\":4471:4481  validUntil */\n      dup7\n        /* \"contracts/paymaster/KaijuVerifyingPaymaster.sol\":4482:4492  validAfter */\n      dup7\n        /* \"contracts/paymaster/KaijuVerifyingPaymaster.sol\":4445:4464  _packValidationData */\n      tag_211\n        /* \"contracts/paymaster/KaijuVerifyingPaymaster.sol\":4445:4493  _packValidationData(false,validUntil,validAfter) */\n      jump\t// in\n    tag_212:\n        /* \"contracts/paymaster/KaijuVerifyingPaymaster.sol\":4434:4494  return (\"\",_packValidationData(false,validUntil,validAfter)) */\n      mload(0x40)\n      dup1\n      0x20\n      add\n      0x40\n      mstore\n      dup1\n      0x00\n      dup2\n      mstore\n      pop\n      swap1\n      swap7\n      pop\n      swap7\n      pop\n      pop\n      pop\n      pop\n      pop\n      pop\n        /* \"contracts/paymaster/KaijuVerifyingPaymaster.sol\":3660:4501  function _validatePaymasterUserOp(UserOperation calldata userOp, bytes32 /*userOpHash*/, uint256 requiredPreFund)... */\n    tag_194:\n      swap4\n      pop\n      swap4\n      swap2\n      pop\n      pop\n      jump\t// out\n        /* \"@openzeppelin/contracts/utils/Context.sol\":640:736  function _msgSender() internal view virtual returns (address) {... */\n    tag_177:\n        /* \"@openzeppelin/contracts/utils/Context.sol\":693:700  address */\n      0x00\n        /* \"@openzeppelin/contracts/utils/Context.sol\":719:729  msg.sender */\n      caller\n        /* \"@openzeppelin/contracts/utils/Context.sol\":712:729  return msg.sender */\n      swap1\n      pop\n        /* \"@openzeppelin/contracts/utils/Context.sol\":640:736  function _msgSender() internal view virtual returns (address) {... */\n      swap1\n      jump\t// out\n        /* \"@openzeppelin/contracts/utils/cryptography/ECDSA.sol\":7120:7516  function toEthSignedMessageHash(bytes32 hash) internal pure returns (bytes32 message) {... */\n    tag_203:\n        /* \"@openzeppelin/contracts/utils/cryptography/ECDSA.sol\":7189:7204  bytes32 message */\n      0x00\n        /* \"@openzeppelin/contracts/utils/cryptography/ECDSA.sol\":7389:7423  \"\\x19Ethereum Signed Message:\\n32\" */\n      0x19457468657265756d205369676e6564204d6573736167653a0a333200000000\n        /* \"@openzeppelin/contracts/utils/cryptography/ECDSA.sol\":7383:7387  0x00 */\n      0x00\n        /* \"@openzeppelin/contracts/utils/cryptography/ECDSA.sol\":7376:7424  mstore(0x00, \"\\x19Ethereum Signed Message:\\n32\") */\n      mstore\n        /* \"@openzeppelin/contracts/utils/cryptography/ECDSA.sol\":7450:7454  hash */\n      dup2\n        /* \"@openzeppelin/contracts/utils/cryptography/ECDSA.sol\":7444:7448  0x1c */\n      0x1c\n        /* \"@openzeppelin/contracts/utils/cryptography/ECDSA.sol\":7437:7455  mstore(0x1c, hash) */\n      mstore\n        /* \"@openzeppelin/contracts/utils/cryptography/ECDSA.sol\":7495:7499  0x3c */\n      0x3c\n        /* \"@openzeppelin/contracts/utils/cryptography/ECDSA.sol\":7489:7493  0x00 */\n      0x00\n        /* \"@openzeppelin/contracts/utils/cryptography/ECDSA.sol\":7479:7500  keccak256(0x00, 0x3c) */\n      keccak256\n        /* \"@openzeppelin/contracts/utils/cryptography/ECDSA.sol\":7468:7500  message := keccak256(0x00, 0x3c) */\n      swap1\n      pop\n        /* \"@openzeppelin/contracts/utils/cryptography/ECDSA.sol\":7120:7516  function toEthSignedMessageHash(bytes32 hash) internal pure returns (bytes32 message) {... */\n      swap2\n      swap1\n      pop\n      jump\t// out\n        /* \"@openzeppelin/contracts/utils/cryptography/ECDSA.sol\":3661:3888  function recover(bytes32 hash, bytes memory signature) internal pure returns (address) {... */\n    tag_208:\n        /* \"@openzeppelin/contracts/utils/cryptography/ECDSA.sol\":3739:3746  address */\n      0x00\n        /* \"@openzeppelin/contracts/utils/cryptography/ECDSA.sol\":3759:3776  address recovered */\n      dup1\n        /* \"@openzeppelin/contracts/utils/cryptography/ECDSA.sol\":3778:3796  RecoverError error */\n      0x00\n        /* \"@openzeppelin/contracts/utils/cryptography/ECDSA.sol\":3800:3827  tryRecover(hash, signature) */\n      tag_216\n        /* \"@openzeppelin/contracts/utils/cryptography/ECDSA.sol\":3811:3815  hash */\n      dup6\n        /* \"@openzeppelin/contracts/utils/cryptography/ECDSA.sol\":3817:3826  signature */\n      dup6\n        /* \"@openzeppelin/contracts/utils/cryptography/ECDSA.sol\":3800:3810  tryRecover */\n      tag_217\n        /* \"@openzeppelin/contracts/utils/cryptography/ECDSA.sol\":3800:3827  tryRecover(hash, signature) */\n      jump\t// in\n    tag_216:\n        /* \"@openzeppelin/contracts/utils/cryptography/ECDSA.sol\":3758:3827  (address recovered, RecoverError error) = tryRecover(hash, signature) */\n      swap2\n      pop\n      swap2\n      pop\n        /* \"@openzeppelin/contracts/utils/cryptography/ECDSA.sol\":3837:3855  _throwError(error) */\n      tag_218\n        /* \"@openzeppelin/contracts/utils/cryptography/ECDSA.sol\":3849:3854  error */\n      dup2\n        /* \"@openzeppelin/contracts/utils/cryptography/ECDSA.sol\":3837:3848  _throwError */\n      tag_219\n        /* \"@openzeppelin/contracts/utils/cryptography/ECDSA.sol\":3837:3855  _throwError(error) */\n      jump\t// in\n    tag_218:\n        /* \"@openzeppelin/contracts/utils/cryptography/ECDSA.sol\":3872:3881  recovered */\n      dup2\n        /* \"@openzeppelin/contracts/utils/cryptography/ECDSA.sol\":3865:3881  return recovered */\n      swap3\n      pop\n      pop\n      pop\n        /* \"@openzeppelin/contracts/utils/cryptography/ECDSA.sol\":3661:3888  function recover(bytes32 hash, bytes memory signature) internal pure returns (address) {... */\n      swap3\n      swap2\n      pop\n      pop\n      jump\t// out\n        /* \"@account-abstraction/contracts/core/Helpers.sol\":2956:3174  function _packValidationData(bool sigFailed, uint48 validUntil, uint48 validAfter) pure returns (uint256) {... */\n    tag_211:\n        /* \"@account-abstraction/contracts/core/Helpers.sol\":3053:3060  uint256 */\n      0x00\n        /* \"@account-abstraction/contracts/core/Helpers.sol\":3157:3165  160 + 48 */\n      0xd0\n        /* \"@account-abstraction/contracts/core/Helpers.sol\":3141:3151  validAfter */\n      dup3\n        /* \"@account-abstraction/contracts/core/Helpers.sol\":3133:3152  uint256(validAfter) */\n      0xffffffffffff\n      and\n        /* \"@account-abstraction/contracts/core/Helpers.sol\":3133:3166  uint256(validAfter) << (160 + 48) */\n      swap1\n      shl\n        /* \"@account-abstraction/contracts/core/Helpers.sol\":3125:3128  160 */\n      0xa0\n        /* \"@account-abstraction/contracts/core/Helpers.sol\":3110:3120  validUntil */\n      dup5\n        /* \"@account-abstraction/contracts/core/Helpers.sol\":3102:3121  uint256(validUntil) */\n      0xffffffffffff\n      and\n        /* \"@account-abstraction/contracts/core/Helpers.sol\":3102:3128  uint256(validUntil) << 160 */\n      swap1\n      shl\n        /* \"@account-abstraction/contracts/core/Helpers.sol\":3080:3089  sigFailed */\n      dup6\n        /* \"@account-abstraction/contracts/core/Helpers.sol\":3080:3097  sigFailed ? 1 : 0 */\n      tag_221\n      jumpi\n        /* \"@account-abstraction/contracts/core/Helpers.sol\":3096:3097  0 */\n      0x00\n        /* \"@account-abstraction/contracts/core/Helpers.sol\":3080:3097  sigFailed ? 1 : 0 */\n      jump(tag_222)\n    tag_221:\n        /* \"@account-abstraction/contracts/core/Helpers.sol\":3092:3093  1 */\n      0x01\n        /* \"@account-abstraction/contracts/core/Helpers.sol\":3080:3097  sigFailed ? 1 : 0 */\n    tag_222:\n        /* \"@account-abstraction/contracts/core/Helpers.sol\":3079:3129  (sigFailed ? 1 : 0) | (uint256(validUntil) << 160) */\n      0xff\n      and\n      or\n        /* \"@account-abstraction/contracts/core/Helpers.sol\":3079:3167  (sigFailed ? 1 : 0) | (uint256(validUntil) << 160) | (uint256(validAfter) << (160 + 48)) */\n      or\n        /* \"@account-abstraction/contracts/core/Helpers.sol\":3072:3167  return (sigFailed ? 1 : 0) | (uint256(validUntil) << 160) | (uint256(validAfter) << (160 + 48)) */\n      swap1\n      pop\n        /* \"@account-abstraction/contracts/core/Helpers.sol\":2956:3174  function _packValidationData(bool sigFailed, uint48 validUntil, uint48 validAfter) pure returns (uint256) {... */\n      swap4\n      swap3\n      pop\n      pop\n      pop\n      jump\t// out\n        /* \"@openzeppelin/contracts/utils/cryptography/ECDSA.sol\":2145:2875  function tryRecover(bytes32 hash, bytes memory signature) internal pure returns (address, RecoverError) {... */\n    tag_217:\n        /* \"@openzeppelin/contracts/utils/cryptography/ECDSA.sol\":2226:2233  address */\n      0x00\n        /* \"@openzeppelin/contracts/utils/cryptography/ECDSA.sol\":2235:2247  RecoverError */\n      dup1\n        /* \"@openzeppelin/contracts/utils/cryptography/ECDSA.sol\":2283:2285  65 */\n      0x41\n        /* \"@openzeppelin/contracts/utils/cryptography/ECDSA.sol\":2263:2272  signature */\n      dup4\n        /* \"@openzeppelin/contracts/utils/cryptography/ECDSA.sol\":2263:2279  signature.length */\n      mload\n        /* \"@openzeppelin/contracts/utils/cryptography/ECDSA.sol\":2263:2285  signature.length == 65 */\n      sub\n        /* \"@openzeppelin/contracts/utils/cryptography/ECDSA.sol\":2259:2869  if (signature.length == 65) {... */\n      tag_224\n      jumpi\n        /* \"@openzeppelin/contracts/utils/cryptography/ECDSA.sol\":2301:2310  bytes32 r */\n      0x00\n        /* \"@openzeppelin/contracts/utils/cryptography/ECDSA.sol\":2324:2333  bytes32 s */\n      dup1\n        /* \"@openzeppelin/contracts/utils/cryptography/ECDSA.sol\":2347:2354  uint8 v */\n      0x00\n        /* \"@openzeppelin/contracts/utils/cryptography/ECDSA.sol\":2599:2603  0x20 */\n      0x20\n        /* \"@openzeppelin/contracts/utils/cryptography/ECDSA.sol\":2588:2597  signature */\n      dup7\n        /* \"@openzeppelin/contracts/utils/cryptography/ECDSA.sol\":2584:2604  add(signature, 0x20) */\n      add\n        /* \"@openzeppelin/contracts/utils/cryptography/ECDSA.sol\":2578:2605  mload(add(signature, 0x20)) */\n      mload\n        /* \"@openzeppelin/contracts/utils/cryptography/ECDSA.sol\":2573:2605  r := mload(add(signature, 0x20)) */\n      swap3\n      pop\n        /* \"@openzeppelin/contracts/utils/cryptography/ECDSA.sol\":2648:2652  0x40 */\n      0x40\n        /* \"@openzeppelin/contracts/utils/cryptography/ECDSA.sol\":2637:2646  signature */\n      dup7\n        /* \"@openzeppelin/contracts/utils/cryptography/ECDSA.sol\":2633:2653  add(signature, 0x40) */\n      add\n        /* \"@openzeppelin/contracts/utils/cryptography/ECDSA.sol\":2627:2654  mload(add(signature, 0x40)) */\n      mload\n        /* \"@openzeppelin/contracts/utils/cryptography/ECDSA.sol\":2622:2654  s := mload(add(signature, 0x40)) */\n      swap2\n      pop\n        /* \"@openzeppelin/contracts/utils/cryptography/ECDSA.sol\":2705:2709  0x60 */\n      0x60\n        /* \"@openzeppelin/contracts/utils/cryptography/ECDSA.sol\":2694:2703  signature */\n      dup7\n        /* \"@openzeppelin/contracts/utils/cryptography/ECDSA.sol\":2690:2710  add(signature, 0x60) */\n      add\n        /* \"@openzeppelin/contracts/utils/cryptography/ECDSA.sol\":2684:2711  mload(add(signature, 0x60)) */\n      mload\n        /* \"@openzeppelin/contracts/utils/cryptography/ECDSA.sol\":2681:2682  0 */\n      0x00\n        /* \"@openzeppelin/contracts/utils/cryptography/ECDSA.sol\":2676:2712  byte(0, mload(add(signature, 0x60))) */\n      byte\n        /* \"@openzeppelin/contracts/utils/cryptography/ECDSA.sol\":2671:2712  v := byte(0, mload(add(signature, 0x60))) */\n      swap1\n      pop\n        /* \"@openzeppelin/contracts/utils/cryptography/ECDSA.sol\":2746:2771  tryRecover(hash, v, r, s) */\n      tag_225\n        /* \"@openzeppelin/contracts/utils/cryptography/ECDSA.sol\":2757:2761  hash */\n      dup8\n        /* \"@openzeppelin/contracts/utils/cryptography/ECDSA.sol\":2763:2764  v */\n      dup3\n        /* \"@openzeppelin/contracts/utils/cryptography/ECDSA.sol\":2766:2767  r */\n      dup6\n        /* \"@openzeppelin/contracts/utils/cryptography/ECDSA.sol\":2769:2770  s */\n      dup6\n        /* \"@openzeppelin/contracts/utils/cryptography/ECDSA.sol\":2746:2756  tryRecover */\n      tag_226\n        /* \"@openzeppelin/contracts/utils/cryptography/ECDSA.sol\":2746:2771  tryRecover(hash, v, r, s) */\n      jump\t// in\n    tag_225:\n        /* \"@openzeppelin/contracts/utils/cryptography/ECDSA.sol\":2739:2771  return tryRecover(hash, v, r, s) */\n      swap5\n      pop\n      swap5\n      pop\n      pop\n      pop\n      pop\n      jump(tag_223)\n        /* \"@openzeppelin/contracts/utils/cryptography/ECDSA.sol\":2259:2869  if (signature.length == 65) {... */\n    tag_224:\n        /* \"@openzeppelin/contracts/utils/cryptography/ECDSA.sol\":2818:2819  0 */\n      0x00\n        /* \"@openzeppelin/contracts/utils/cryptography/ECDSA.sol\":2822:2857  RecoverError.InvalidSignatureLength */\n      0x02\n        /* \"@openzeppelin/contracts/utils/cryptography/ECDSA.sol\":2802:2858  return (address(0), RecoverError.InvalidSignatureLength) */\n      swap2\n      pop\n      swap2\n      pop\n        /* \"@openzeppelin/contracts/utils/cryptography/ECDSA.sol\":2145:2875  function tryRecover(bytes32 hash, bytes memory signature) internal pure returns (address, RecoverError) {... */\n    tag_223:\n      swap3\n      pop\n      swap3\n      swap1\n      pop\n      jump\t// out\n        /* \"@openzeppelin/contracts/utils/cryptography/ECDSA.sol\":570:1081  function _throwError(RecoverError error) private pure {... */\n    tag_219:\n        /* \"@openzeppelin/contracts/utils/cryptography/ECDSA.sol\":647:667  RecoverError.NoError */\n      0x00\n        /* \"@openzeppelin/contracts/utils/cryptography/ECDSA.sol\":638:667  error == RecoverError.NoError */\n      0x04\n      dup2\n      gt\n      iszero\n      tag_229\n      jumpi\n      tag_230\n      tag_231\n      jump\t// in\n    tag_230:\n    tag_229:\n        /* \"@openzeppelin/contracts/utils/cryptography/ECDSA.sol\":638:643  error */\n      dup2\n        /* \"@openzeppelin/contracts/utils/cryptography/ECDSA.sol\":638:667  error == RecoverError.NoError */\n      0x04\n      dup2\n      gt\n      iszero\n      tag_232\n      jumpi\n      tag_233\n      tag_231\n      jump\t// in\n    tag_233:\n    tag_232:\n      sub\n        /* \"@openzeppelin/contracts/utils/cryptography/ECDSA.sol\":634:1075  if (error == RecoverError.NoError) {... */\n      iszero\n        /* \"@openzeppelin/contracts/utils/cryptography/ECDSA.sol\":683:690  return; */\n      tag_228\n        /* \"@openzeppelin/contracts/utils/cryptography/ECDSA.sol\":634:1075  if (error == RecoverError.NoError) {... */\n      jumpi\n        /* \"@openzeppelin/contracts/utils/cryptography/ECDSA.sol\":743:772  RecoverError.InvalidSignature */\n      0x01\n        /* \"@openzeppelin/contracts/utils/cryptography/ECDSA.sol\":734:772  error == RecoverError.InvalidSignature */\n      0x04\n      dup2\n      gt\n      iszero\n      tag_236\n      jumpi\n      tag_237\n      tag_231\n      jump\t// in\n    tag_237:\n    tag_236:\n        /* \"@openzeppelin/contracts/utils/cryptography/ECDSA.sol\":734:739  error */\n      dup2\n        /* \"@openzeppelin/contracts/utils/cryptography/ECDSA.sol\":734:772  error == RecoverError.InvalidSignature */\n      0x04\n      dup2\n      gt\n      iszero\n      tag_238\n      jumpi\n      tag_239\n      tag_231\n      jump\t// in\n    tag_239:\n    tag_238:\n      sub\n        /* \"@openzeppelin/contracts/utils/cryptography/ECDSA.sol\":730:1075  if (error == RecoverError.InvalidSignature) {... */\n      tag_240\n      jumpi\n        /* \"@openzeppelin/contracts/utils/cryptography/ECDSA.sol\":788:822  revert(\"ECDSA: invalid signature\") */\n      mload(0x40)\n      0x08c379a000000000000000000000000000000000000000000000000000000000\n      dup2\n      mstore\n      0x04\n      add\n      tag_241\n      swap1\n      tag_242\n      jump\t// in\n    tag_241:\n      mload(0x40)\n      dup1\n      swap2\n      sub\n      swap1\n      revert\n        /* \"@openzeppelin/contracts/utils/cryptography/ECDSA.sol\":730:1075  if (error == RecoverError.InvalidSignature) {... */\n    tag_240:\n        /* \"@openzeppelin/contracts/utils/cryptography/ECDSA.sol\":852:887  RecoverError.InvalidSignatureLength */\n      0x02\n        /* \"@openzeppelin/contracts/utils/cryptography/ECDSA.sol\":843:887  error == RecoverError.InvalidSignatureLength */\n      0x04\n      dup2\n      gt\n      iszero\n      tag_244\n      jumpi\n      tag_245\n      tag_231\n      jump\t// in\n    tag_245:\n    tag_244:\n        /* \"@openzeppelin/contracts/utils/cryptography/ECDSA.sol\":843:848  error */\n      dup2\n        /* \"@openzeppelin/contracts/utils/cryptography/ECDSA.sol\":843:887  error == RecoverError.InvalidSignatureLength */\n      0x04\n      dup2\n      gt\n      iszero\n      tag_246\n      jumpi\n      tag_247\n      tag_231\n      jump\t// in\n    tag_247:\n    tag_246:\n      sub\n        /* \"@openzeppelin/contracts/utils/cryptography/ECDSA.sol\":839:1075  if (error == RecoverError.InvalidSignatureLength) {... */\n      tag_248\n      jumpi\n        /* \"@openzeppelin/contracts/utils/cryptography/ECDSA.sol\":903:944  revert(\"ECDSA: invalid signature length\") */\n      mload(0x40)\n      0x08c379a000000000000000000000000000000000000000000000000000000000\n      dup2\n      mstore\n      0x04\n      add\n      tag_249\n      swap1\n      tag_250\n      jump\t// in\n    tag_249:\n      mload(0x40)\n      dup1\n      swap2\n      sub\n      swap1\n      revert\n        /* \"@openzeppelin/contracts/utils/cryptography/ECDSA.sol\":839:1075  if (error == RecoverError.InvalidSignatureLength) {... */\n    tag_248:\n        /* \"@openzeppelin/contracts/utils/cryptography/ECDSA.sol\":974:1004  RecoverError.InvalidSignatureS */\n      0x03\n        /* \"@openzeppelin/contracts/utils/cryptography/ECDSA.sol\":965:1004  error == RecoverError.InvalidSignatureS */\n      0x04\n      dup2\n      gt\n      iszero\n      tag_252\n      jumpi\n      tag_253\n      tag_231\n      jump\t// in\n    tag_253:\n    tag_252:\n        /* \"@openzeppelin/contracts/utils/cryptography/ECDSA.sol\":965:970  error */\n      dup2\n        /* \"@openzeppelin/contracts/utils/cryptography/ECDSA.sol\":965:1004  error == RecoverError.InvalidSignatureS */\n      0x04\n      dup2\n      gt\n      iszero\n      tag_254\n      jumpi\n      tag_255\n      tag_231\n      jump\t// in\n    tag_255:\n    tag_254:\n      sub\n        /* \"@openzeppelin/contracts/utils/cryptography/ECDSA.sol\":961:1075  if (error == RecoverError.InvalidSignatureS) {... */\n      tag_256\n      jumpi\n        /* \"@openzeppelin/contracts/utils/cryptography/ECDSA.sol\":1020:1064  revert(\"ECDSA: invalid signature 's' value\") */\n      mload(0x40)\n      0x08c379a000000000000000000000000000000000000000000000000000000000\n      dup2\n      mstore\n      0x04\n      add\n      tag_257\n      swap1\n      tag_258\n      jump\t// in\n    tag_257:\n      mload(0x40)\n      dup1\n      swap2\n      sub\n      swap1\n      revert\n        /* \"@openzeppelin/contracts/utils/cryptography/ECDSA.sol\":961:1075  if (error == RecoverError.InvalidSignatureS) {... */\n    tag_256:\n        /* \"@openzeppelin/contracts/utils/cryptography/ECDSA.sol\":570:1081  function _throwError(RecoverError error) private pure {... */\n    tag_228:\n      pop\n      jump\t// out\n        /* \"@openzeppelin/contracts/utils/cryptography/ECDSA.sol\":5009:6465  function tryRecover(bytes32 hash, uint8 v, bytes32 r, bytes32 s) internal pure returns (address, RecoverError) {... */\n    tag_226:\n        /* \"@openzeppelin/contracts/utils/cryptography/ECDSA.sol\":5097:5104  address */\n      0x00\n        /* \"@openzeppelin/contracts/utils/cryptography/ECDSA.sol\":5106:5118  RecoverError */\n      dup1\n        /* \"@openzeppelin/contracts/utils/cryptography/ECDSA.sol\":6021:6087  0x7FFFFFFFFFFFFFFFFFFFFFFFFFFFFFFF5D576E7357A4501DDFE92F46681B20A0 */\n      0x7fffffffffffffffffffffffffffffff5d576e7357a4501ddfe92f46681b20a0\n        /* \"@openzeppelin/contracts/utils/cryptography/ECDSA.sol\":6016:6017  s */\n      dup4\n        /* \"@openzeppelin/contracts/utils/cryptography/ECDSA.sol\":6008:6018  uint256(s) */\n      0x00\n      shr\n        /* \"@openzeppelin/contracts/utils/cryptography/ECDSA.sol\":6008:6087  uint256(s) > 0x7FFFFFFFFFFFFFFFFFFFFFFFFFFFFFFF5D576E7357A4501DDFE92F46681B20A0 */\n      gt\n        /* \"@openzeppelin/contracts/utils/cryptography/ECDSA.sol\":6004:6165  if (uint256(s) > 0x7FFFFFFFFFFFFFFFFFFFFFFFFFFFFFFF5D576E7357A4501DDFE92F46681B20A0) {... */\n      iszero\n      tag_260\n      jumpi\n        /* \"@openzeppelin/contracts/utils/cryptography/ECDSA.sol\":6119:6120  0 */\n      0x00\n        /* \"@openzeppelin/contracts/utils/cryptography/ECDSA.sol\":6123:6153  RecoverError.InvalidSignatureS */\n      0x03\n        /* \"@openzeppelin/contracts/utils/cryptography/ECDSA.sol\":6103:6154  return (address(0), RecoverError.InvalidSignatureS) */\n      swap2\n      pop\n      swap2\n      pop\n      jump(tag_259)\n        /* \"@openzeppelin/contracts/utils/cryptography/ECDSA.sol\":6004:6165  if (uint256(s) > 0x7FFFFFFFFFFFFFFFFFFFFFFFFFFFFFFF5D576E7357A4501DDFE92F46681B20A0) {... */\n    tag_260:\n        /* \"@openzeppelin/contracts/utils/cryptography/ECDSA.sol\":6259:6273  address signer */\n      0x00\n        /* \"@openzeppelin/contracts/utils/cryptography/ECDSA.sol\":6276:6300  ecrecover(hash, v, r, s) */\n      0x01\n        /* \"@openzeppelin/contracts/utils/cryptography/ECDSA.sol\":6286:6290  hash */\n      dup8\n        /* \"@openzeppelin/contracts/utils/cryptography/ECDSA.sol\":6292:6293  v */\n      dup8\n        /* \"@openzeppelin/contracts/utils/cryptography/ECDSA.sol\":6295:6296  r */\n      dup8\n        /* \"@openzeppelin/contracts/utils/cryptography/ECDSA.sol\":6298:6299  s */\n      dup8\n        /* \"@openzeppelin/contracts/utils/cryptography/ECDSA.sol\":6276:6300  ecrecover(hash, v, r, s) */\n      mload(0x40)\n      0x00\n      dup2\n      mstore\n      0x20\n      add\n      0x40\n      mstore\n      mload(0x40)\n      tag_261\n      swap5\n      swap4\n      swap3\n      swap2\n      swap1\n      tag_262\n      jump\t// in\n    tag_261:\n      0x20\n      mload(0x40)\n      0x20\n      dup2\n      sub\n      swap1\n      dup1\n      dup5\n      sub\n      swap1\n      dup6\n      gas\n      staticcall\n      iszero\n      dup1\n      iszero\n      tag_264\n      jumpi\n      returndatasize\n      0x00\n      dup1\n      returndatacopy\n      revert(0x00, returndatasize)\n    tag_264:\n      pop\n      pop\n      pop\n      mload(sub(mload(0x40), 0x20))\n        /* \"@openzeppelin/contracts/utils/cryptography/ECDSA.sol\":6259:6300  address signer = ecrecover(hash, v, r, s) */\n      swap1\n      pop\n        /* \"@openzeppelin/contracts/utils/cryptography/ECDSA.sol\":6332:6333  0 */\n      0x00\n        /* \"@openzeppelin/contracts/utils/cryptography/ECDSA.sol\":6314:6334  signer == address(0) */\n      0xffffffffffffffffffffffffffffffffffffffff\n      and\n        /* \"@openzeppelin/contracts/utils/cryptography/ECDSA.sol\":6314:6320  signer */\n      dup2\n        /* \"@openzeppelin/contracts/utils/cryptography/ECDSA.sol\":6314:6334  signer == address(0) */\n      0xffffffffffffffffffffffffffffffffffffffff\n      and\n      sub\n        /* \"@openzeppelin/contracts/utils/cryptography/ECDSA.sol\":6310:6411  if (signer == address(0)) {... */\n      tag_265\n      jumpi\n        /* \"@openzeppelin/contracts/utils/cryptography/ECDSA.sol\":6366:6367  0 */\n      0x00\n        /* \"@openzeppelin/contracts/utils/cryptography/ECDSA.sol\":6370:6399  RecoverError.InvalidSignature */\n      0x01\n        /* \"@openzeppelin/contracts/utils/cryptography/ECDSA.sol\":6350:6400  return (address(0), RecoverError.InvalidSignature) */\n      swap3\n      pop\n      swap3\n      pop\n      pop\n      jump(tag_259)\n        /* \"@openzeppelin/contracts/utils/cryptography/ECDSA.sol\":6310:6411  if (signer == address(0)) {... */\n    tag_265:\n        /* \"@openzeppelin/contracts/utils/cryptography/ECDSA.sol\":6429:6435  signer */\n      dup1\n        /* \"@openzeppelin/contracts/utils/cryptography/ECDSA.sol\":6437:6457  RecoverError.NoError */\n      0x00\n        /* \"@openzeppelin/contracts/utils/cryptography/ECDSA.sol\":6421:6458  return (signer, RecoverError.NoError) */\n      swap3\n      pop\n      swap3\n      pop\n      pop\n        /* \"@openzeppelin/contracts/utils/cryptography/ECDSA.sol\":5009:6465  function tryRecover(bytes32 hash, uint8 v, bytes32 r, bytes32 s) internal pure returns (address, RecoverError) {... */\n    tag_259:\n      swap5\n      pop\n      swap5\n      swap3\n      pop\n      pop\n      pop\n      jump\t// out\n        /* \"#utility.yul\":88:205   */\n    tag_267:\n        /* \"#utility.yul\":197:198   */\n      0x00\n        /* \"#utility.yul\":194:195   */\n      dup1\n        /* \"#utility.yul\":187:199   */\n      revert\n        /* \"#utility.yul\":211:328   */\n    tag_268:\n        /* \"#utility.yul\":320:321   */\n      0x00\n        /* \"#utility.yul\":317:318   */\n      dup1\n        /* \"#utility.yul\":310:322   */\n      revert\n        /* \"#utility.yul\":334:427   */\n    tag_269:\n        /* \"#utility.yul\":370:377   */\n      0x00\n        /* \"#utility.yul\":410:420   */\n      0xffffffff\n        /* \"#utility.yul\":403:408   */\n      dup3\n        /* \"#utility.yul\":399:421   */\n      and\n        /* \"#utility.yul\":388:421   */\n      swap1\n      pop\n        /* \"#utility.yul\":334:427   */\n      swap2\n      swap1\n      pop\n      jump\t// out\n        /* \"#utility.yul\":433:553   */\n    tag_270:\n        /* \"#utility.yul\":505:528   */\n      tag_346\n        /* \"#utility.yul\":522:527   */\n      dup2\n        /* \"#utility.yul\":505:528   */\n      tag_269\n      jump\t// in\n    tag_346:\n        /* \"#utility.yul\":498:503   */\n      dup2\n        /* \"#utility.yul\":495:529   */\n      eq\n        /* \"#utility.yul\":485:547   */\n      tag_347\n      jumpi\n        /* \"#utility.yul\":543:544   */\n      0x00\n        /* \"#utility.yul\":540:541   */\n      dup1\n        /* \"#utility.yul\":533:545   */\n      revert\n        /* \"#utility.yul\":485:547   */\n    tag_347:\n        /* \"#utility.yul\":433:553   */\n      pop\n      jump\t// out\n        /* \"#utility.yul\":559:696   */\n    tag_271:\n        /* \"#utility.yul\":604:609   */\n      0x00\n        /* \"#utility.yul\":642:648   */\n      dup2\n        /* \"#utility.yul\":629:649   */\n      calldataload\n        /* \"#utility.yul\":620:649   */\n      swap1\n      pop\n        /* \"#utility.yul\":658:690   */\n      tag_349\n        /* \"#utility.yul\":684:689   */\n      dup2\n        /* \"#utility.yul\":658:690   */\n      tag_270\n      jump\t// in\n    tag_349:\n        /* \"#utility.yul\":559:696   */\n      swap3\n      swap2\n      pop\n      pop\n      jump\t// out\n        /* \"#utility.yul\":702:1029   */\n    tag_23:\n        /* \"#utility.yul\":760:766   */\n      0x00\n        /* \"#utility.yul\":809:811   */\n      0x20\n        /* \"#utility.yul\":797:806   */\n      dup3\n        /* \"#utility.yul\":788:795   */\n      dup5\n        /* \"#utility.yul\":784:807   */\n      sub\n        /* \"#utility.yul\":780:812   */\n      slt\n        /* \"#utility.yul\":777:896   */\n      iszero\n      tag_351\n      jumpi\n        /* \"#utility.yul\":815:894   */\n      tag_352\n      tag_267\n      jump\t// in\n    tag_352:\n        /* \"#utility.yul\":777:896   */\n    tag_351:\n        /* \"#utility.yul\":935:936   */\n      0x00\n        /* \"#utility.yul\":960:1012   */\n      tag_353\n        /* \"#utility.yul\":1004:1011   */\n      dup5\n        /* \"#utility.yul\":995:1001   */\n      dup3\n        /* \"#utility.yul\":984:993   */\n      dup6\n        /* \"#utility.yul\":980:1002   */\n      add\n        /* \"#utility.yul\":960:1012   */\n      tag_271\n      jump\t// in\n    tag_353:\n        /* \"#utility.yul\":950:1012   */\n      swap2\n      pop\n        /* \"#utility.yul\":906:1022   */\n      pop\n        /* \"#utility.yul\":702:1029   */\n      swap3\n      swap2\n      pop\n      pop\n      jump\t// out\n        /* \"#utility.yul\":1035:1161   */\n    tag_272:\n        /* \"#utility.yul\":1072:1079   */\n      0x00\n        /* \"#utility.yul\":1112:1154   */\n      0xffffffffffffffffffffffffffffffffffffffff\n        /* \"#utility.yul\":1105:1110   */\n      dup3\n        /* \"#utility.yul\":1101:1155   */\n      and\n        /* \"#utility.yul\":1090:1155   */\n      swap1\n      pop\n        /* \"#utility.yul\":1035:1161   */\n      swap2\n      swap1\n      pop\n      jump\t// out\n        /* \"#utility.yul\":1167:1271   */\n    tag_273:\n        /* \"#utility.yul\":1212:1219   */\n      0x00\n        /* \"#utility.yul\":1241:1265   */\n      tag_356\n        /* \"#utility.yul\":1259:1264   */\n      dup3\n        /* \"#utility.yul\":1241:1265   */\n      tag_272\n      jump\t// in\n    tag_356:\n        /* \"#utility.yul\":1230:1265   */\n      swap1\n      pop\n        /* \"#utility.yul\":1167:1271   */\n      swap2\n      swap1\n      pop\n      jump\t// out\n        /* \"#utility.yul\":1277:1415   */\n    tag_274:\n        /* \"#utility.yul\":1358:1390   */\n      tag_358\n        /* \"#utility.yul\":1384:1389   */\n      dup2\n        /* \"#utility.yul\":1358:1390   */\n      tag_273\n      jump\t// in\n    tag_358:\n        /* \"#utility.yul\":1351:1356   */\n      dup2\n        /* \"#utility.yul\":1348:1391   */\n      eq\n        /* \"#utility.yul\":1338:1409   */\n      tag_359\n      jumpi\n        /* \"#utility.yul\":1405:1406   */\n      0x00\n        /* \"#utility.yul\":1402:1403   */\n      dup1\n        /* \"#utility.yul\":1395:1407   */\n      revert\n        /* \"#utility.yul\":1338:1409   */\n    tag_359:\n        /* \"#utility.yul\":1277:1415   */\n      pop\n      jump\t// out\n        /* \"#utility.yul\":1421:1576   */\n    tag_275:\n        /* \"#utility.yul\":1475:1480   */\n      0x00\n        /* \"#utility.yul\":1513:1519   */\n      dup2\n        /* \"#utility.yul\":1500:1520   */\n      calldataload\n        /* \"#utility.yul\":1491:1520   */\n      swap1\n      pop\n        /* \"#utility.yul\":1529:1570   */\n      tag_361\n        /* \"#utility.yul\":1564:1569   */\n      dup2\n        /* \"#utility.yul\":1529:1570   */\n      tag_274\n      jump\t// in\n    tag_361:\n        /* \"#utility.yul\":1421:1576   */\n      swap3\n      swap2\n      pop\n      pop\n      jump\t// out\n        /* \"#utility.yul\":1582:1659   */\n    tag_276:\n        /* \"#utility.yul\":1619:1626   */\n      0x00\n        /* \"#utility.yul\":1648:1653   */\n      dup2\n        /* \"#utility.yul\":1637:1653   */\n      swap1\n      pop\n        /* \"#utility.yul\":1582:1659   */\n      swap2\n      swap1\n      pop\n      jump\t// out\n        /* \"#utility.yul\":1665:1787   */\n    tag_277:\n        /* \"#utility.yul\":1738:1762   */\n      tag_364\n        /* \"#utility.yul\":1756:1761   */\n      dup2\n        /* \"#utility.yul\":1738:1762   */\n      tag_276\n      jump\t// in\n    tag_364:\n        /* \"#utility.yul\":1731:1736   */\n      dup2\n        /* \"#utility.yul\":1728:1763   */\n      eq\n        /* \"#utility.yul\":1718:1781   */\n      tag_365\n      jumpi\n        /* \"#utility.yul\":1777:1778   */\n      0x00\n        /* \"#utility.yul\":1774:1775   */\n      dup1\n        /* \"#utility.yul\":1767:1779   */\n      revert\n        /* \"#utility.yul\":1718:1781   */\n    tag_365:\n        /* \"#utility.yul\":1665:1787   */\n      pop\n      jump\t// out\n        /* \"#utility.yul\":1793:1932   */\n    tag_278:\n        /* \"#utility.yul\":1839:1844   */\n      0x00\n        /* \"#utility.yul\":1877:1883   */\n      dup2\n        /* \"#utility.yul\":1864:1884   */\n      calldataload\n        /* \"#utility.yul\":1855:1884   */\n      swap1\n      pop\n        /* \"#utility.yul\":1893:1926   */\n      tag_367\n        /* \"#utility.yul\":1920:1925   */\n      dup2\n        /* \"#utility.yul\":1893:1926   */\n      tag_277\n      jump\t// in\n    tag_367:\n        /* \"#utility.yul\":1793:1932   */\n      swap3\n      swap2\n      pop\n      pop\n      jump\t// out\n        /* \"#utility.yul\":1938:2428   */\n    tag_28:\n        /* \"#utility.yul\":2014:2020   */\n      0x00\n        /* \"#utility.yul\":2022:2028   */\n      dup1\n        /* \"#utility.yul\":2071:2073   */\n      0x40\n        /* \"#utility.yul\":2059:2068   */\n      dup4\n        /* \"#utility.yul\":2050:2057   */\n      dup6\n        /* \"#utility.yul\":2046:2069   */\n      sub\n        /* \"#utility.yul\":2042:2074   */\n      slt\n        /* \"#utility.yul\":2039:2158   */\n      iszero\n      tag_369\n      jumpi\n        /* \"#utility.yul\":2077:2156   */\n      tag_370\n      tag_267\n      jump\t// in\n    tag_370:\n        /* \"#utility.yul\":2039:2158   */\n    tag_369:\n        /* \"#utility.yul\":2197:2198   */\n      0x00\n        /* \"#utility.yul\":2222:2283   */\n      tag_371\n        /* \"#utility.yul\":2275:2282   */\n      dup6\n        /* \"#utility.yul\":2266:2272   */\n      dup3\n        /* \"#utility.yul\":2255:2264   */\n      dup7\n        /* \"#utility.yul\":2251:2273   */\n      add\n        /* \"#utility.yul\":2222:2283   */\n      tag_275\n      jump\t// in\n    tag_371:\n        /* \"#utility.yul\":2212:2283   */\n      swap3\n      pop\n        /* \"#utility.yul\":2168:2293   */\n      pop\n        /* \"#utility.yul\":2332:2334   */\n      0x20\n        /* \"#utility.yul\":2358:2411   */\n      tag_372\n        /* \"#utility.yul\":2403:2410   */\n      dup6\n        /* \"#utility.yul\":2394:2400   */\n      dup3\n        /* \"#utility.yul\":2383:2392   */\n      dup7\n        /* \"#utility.yul\":2379:2401   */\n      add\n        /* \"#utility.yul\":2358:2411   */\n      tag_278\n      jump\t// in\n    tag_372:\n        /* \"#utility.yul\":2348:2411   */\n      swap2\n      pop\n        /* \"#utility.yul\":2303:2421   */\n      pop\n        /* \"#utility.yul\":1938:2428   */\n      swap3\n      pop\n      swap3\n      swap1\n      pop\n      jump\t// out\n        /* \"#utility.yul\":2434:2530   */\n    tag_279:\n        /* \"#utility.yul\":2471:2478   */\n      0x00\n        /* \"#utility.yul\":2500:2524   */\n      tag_374\n        /* \"#utility.yul\":2518:2523   */\n      dup3\n        /* \"#utility.yul\":2500:2524   */\n      tag_272\n      jump\t// in\n    tag_374:\n        /* \"#utility.yul\":2489:2524   */\n      swap1\n      pop\n        /* \"#utility.yul\":2434:2530   */\n      swap2\n      swap1\n      pop\n      jump\t// out\n        /* \"#utility.yul\":2536:2654   */\n    tag_280:\n        /* \"#utility.yul\":2623:2647   */\n      tag_376\n        /* \"#utility.yul\":2641:2646   */\n      dup2\n        /* \"#utility.yul\":2623:2647   */\n      tag_279\n      jump\t// in\n    tag_376:\n        /* \"#utility.yul\":2618:2621   */\n      dup3\n        /* \"#utility.yul\":2611:2648   */\n      mstore\n        /* \"#utility.yul\":2536:2654   */\n      pop\n      pop\n      jump\t// out\n        /* \"#utility.yul\":2660:2882   */\n    tag_34:\n        /* \"#utility.yul\":2753:2757   */\n      0x00\n        /* \"#utility.yul\":2791:2793   */\n      0x20\n        /* \"#utility.yul\":2780:2789   */\n      dup3\n        /* \"#utility.yul\":2776:2794   */\n      add\n        /* \"#utility.yul\":2768:2794   */\n      swap1\n      pop\n        /* \"#utility.yul\":2804:2875   */\n      tag_378\n        /* \"#utility.yul\":2872:2873   */\n      0x00\n        /* \"#utility.yul\":2861:2870   */\n      dup4\n        /* \"#utility.yul\":2857:2874   */\n      add\n        /* \"#utility.yul\":2848:2854   */\n      dup5\n        /* \"#utility.yul\":2804:2875   */\n      tag_280\n      jump\t// in\n    tag_378:\n        /* \"#utility.yul\":2660:2882   */\n      swap3\n      swap2\n      pop\n      pop\n      jump\t// out\n        /* \"#utility.yul\":2888:3005   */\n    tag_281:\n        /* \"#utility.yul\":2997:2998   */\n      0x00\n        /* \"#utility.yul\":2994:2995   */\n      dup1\n        /* \"#utility.yul\":2987:2999   */\n      revert\n        /* \"#utility.yul\":3011:3128   */\n    tag_282:\n        /* \"#utility.yul\":3120:3121   */\n      0x00\n        /* \"#utility.yul\":3117:3118   */\n      dup1\n        /* \"#utility.yul\":3110:3122   */\n      revert\n        /* \"#utility.yul\":3134:3251   */\n    tag_283:\n        /* \"#utility.yul\":3243:3244   */\n      0x00\n        /* \"#utility.yul\":3240:3241   */\n      dup1\n        /* \"#utility.yul\":3233:3245   */\n      revert\n        /* \"#utility.yul\":3270:3822   */\n    tag_284:\n        /* \"#utility.yul\":3327:3335   */\n      0x00\n        /* \"#utility.yul\":3337:3343   */\n      dup1\n        /* \"#utility.yul\":3387:3390   */\n      dup4\n        /* \"#utility.yul\":3380:3384   */\n      0x1f\n        /* \"#utility.yul\":3372:3378   */\n      dup5\n        /* \"#utility.yul\":3368:3385   */\n      add\n        /* \"#utility.yul\":3364:3391   */\n      slt\n        /* \"#utility.yul\":3354:3476   */\n      tag_383\n      jumpi\n        /* \"#utility.yul\":3395:3474   */\n      tag_384\n      tag_281\n      jump\t// in\n    tag_384:\n        /* \"#utility.yul\":3354:3476   */\n    tag_383:\n        /* \"#utility.yul\":3508:3514   */\n      dup3\n        /* \"#utility.yul\":3495:3515   */\n      calldataload\n        /* \"#utility.yul\":3485:3515   */\n      swap1\n      pop\n        /* \"#utility.yul\":3538:3556   */\n      0xffffffffffffffff\n        /* \"#utility.yul\":3530:3536   */\n      dup2\n        /* \"#utility.yul\":3527:3557   */\n      gt\n        /* \"#utility.yul\":3524:3641   */\n      iszero\n      tag_385\n      jumpi\n        /* \"#utility.yul\":3560:3639   */\n      tag_386\n      tag_282\n      jump\t// in\n    tag_386:\n        /* \"#utility.yul\":3524:3641   */\n    tag_385:\n        /* \"#utility.yul\":3674:3678   */\n      0x20\n        /* \"#utility.yul\":3666:3672   */\n      dup4\n        /* \"#utility.yul\":3662:3679   */\n      add\n        /* \"#utility.yul\":3650:3679   */\n      swap2\n      pop\n        /* \"#utility.yul\":3728:3731   */\n      dup4\n        /* \"#utility.yul\":3720:3724   */\n      0x01\n        /* \"#utility.yul\":3712:3718   */\n      dup3\n        /* \"#utility.yul\":3708:3725   */\n      mul\n        /* \"#utility.yul\":3698:3706   */\n      dup4\n        /* \"#utility.yul\":3694:3726   */\n      add\n        /* \"#utility.yul\":3691:3732   */\n      gt\n        /* \"#utility.yul\":3688:3816   */\n      iszero\n      tag_387\n      jumpi\n        /* \"#utility.yul\":3735:3814   */\n      tag_388\n      tag_283\n      jump\t// in\n    tag_388:\n        /* \"#utility.yul\":3688:3816   */\n    tag_387:\n        /* \"#utility.yul\":3270:3822   */\n      swap3\n      pop\n      swap3\n      swap1\n      pop\n      jump\t// out\n        /* \"#utility.yul\":3828:4355   */\n    tag_45:\n        /* \"#utility.yul\":3898:3904   */\n      0x00\n        /* \"#utility.yul\":3906:3912   */\n      dup1\n        /* \"#utility.yul\":3955:3957   */\n      0x20\n        /* \"#utility.yul\":3943:3952   */\n      dup4\n        /* \"#utility.yul\":3934:3941   */\n      dup6\n        /* \"#utility.yul\":3930:3953   */\n      sub\n        /* \"#utility.yul\":3926:3958   */\n      slt\n        /* \"#utility.yul\":3923:4042   */\n      iszero\n      tag_390\n      jumpi\n        /* \"#utility.yul\":3961:4040   */\n      tag_391\n      tag_267\n      jump\t// in\n    tag_391:\n        /* \"#utility.yul\":3923:4042   */\n    tag_390:\n        /* \"#utility.yul\":4109:4110   */\n      0x00\n        /* \"#utility.yul\":4098:4107   */\n      dup4\n        /* \"#utility.yul\":4094:4111   */\n      add\n        /* \"#utility.yul\":4081:4112   */\n      calldataload\n        /* \"#utility.yul\":4139:4157   */\n      0xffffffffffffffff\n        /* \"#utility.yul\":4131:4137   */\n      dup2\n        /* \"#utility.yul\":4128:4158   */\n      gt\n        /* \"#utility.yul\":4125:4242   */\n      iszero\n      tag_392\n      jumpi\n        /* \"#utility.yul\":4161:4240   */\n      tag_393\n      tag_268\n      jump\t// in\n    tag_393:\n        /* \"#utility.yul\":4125:4242   */\n    tag_392:\n        /* \"#utility.yul\":4274:4338   */\n      tag_394\n        /* \"#utility.yul\":4330:4337   */\n      dup6\n        /* \"#utility.yul\":4321:4327   */\n      dup3\n        /* \"#utility.yul\":4310:4319   */\n      dup7\n        /* \"#utility.yul\":4306:4328   */\n      add\n        /* \"#utility.yul\":4274:4338   */\n      tag_284\n      jump\t// in\n    tag_394:\n        /* \"#utility.yul\":4256:4338   */\n      swap3\n      pop\n      swap3\n      pop\n        /* \"#utility.yul\":4052:4348   */\n      pop\n        /* \"#utility.yul\":3828:4355   */\n      swap3\n      pop\n      swap3\n      swap1\n      pop\n      jump\t// out\n        /* \"#utility.yul\":4361:4458   */\n    tag_285:\n        /* \"#utility.yul\":4397:4404   */\n      0x00\n        /* \"#utility.yul\":4437:4451   */\n      0xffffffffffff\n        /* \"#utility.yul\":4430:4435   */\n      dup3\n        /* \"#utility.yul\":4426:4452   */\n      and\n        /* \"#utility.yul\":4415:4452   */\n      swap1\n      pop\n        /* \"#utility.yul\":4361:4458   */\n      swap2\n      swap1\n      pop\n      jump\t// out\n        /* \"#utility.yul\":4464:4579   */\n    tag_286:\n        /* \"#utility.yul\":4549:4572   */\n      tag_397\n        /* \"#utility.yul\":4566:4571   */\n      dup2\n        /* \"#utility.yul\":4549:4572   */\n      tag_285\n      jump\t// in\n    tag_397:\n        /* \"#utility.yul\":4544:4547   */\n      dup3\n        /* \"#utility.yul\":4537:4573   */\n      mstore\n        /* \"#utility.yul\":4464:4579   */\n      pop\n      pop\n      jump\t// out\n        /* \"#utility.yul\":4585:4753   */\n    tag_287:\n        /* \"#utility.yul\":4668:4679   */\n      0x00\n        /* \"#utility.yul\":4702:4708   */\n      dup3\n        /* \"#utility.yul\":4697:4700   */\n      dup3\n        /* \"#utility.yul\":4690:4709   */\n      mstore\n        /* \"#utility.yul\":4742:4746   */\n      0x20\n        /* \"#utility.yul\":4737:4740   */\n      dup3\n        /* \"#utility.yul\":4733:4747   */\n      add\n        /* \"#utility.yul\":4718:4747   */\n      swap1\n      pop\n        /* \"#utility.yul\":4585:4753   */\n      swap3\n      swap2\n      pop\n      pop\n      jump\t// out\n        /* \"#utility.yul\":4759:4905   */\n    tag_288:\n        /* \"#utility.yul\":4856:4862   */\n      dup3\n        /* \"#utility.yul\":4851:4854   */\n      dup2\n        /* \"#utility.yul\":4846:4849   */\n      dup4\n        /* \"#utility.yul\":4833:4863   */\n      calldatacopy\n        /* \"#utility.yul\":4897:4898   */\n      0x00\n        /* \"#utility.yul\":4888:4894   */\n      dup4\n        /* \"#utility.yul\":4883:4886   */\n      dup4\n        /* \"#utility.yul\":4879:4895   */\n      add\n        /* \"#utility.yul\":4872:4899   */\n      mstore\n        /* \"#utility.yul\":4759:4905   */\n      pop\n      pop\n      pop\n      jump\t// out\n        /* \"#utility.yul\":4911:5013   */\n    tag_289:\n        /* \"#utility.yul\":4952:4958   */\n      0x00\n        /* \"#utility.yul\":5003:5005   */\n      0x1f\n        /* \"#utility.yul\":4999:5006   */\n      not\n        /* \"#utility.yul\":4994:4996   */\n      0x1f\n        /* \"#utility.yul\":4987:4992   */\n      dup4\n        /* \"#utility.yul\":4983:4997   */\n      add\n        /* \"#utility.yul\":4979:5007   */\n      and\n        /* \"#utility.yul\":4969:5007   */\n      swap1\n      pop\n        /* \"#utility.yul\":4911:5013   */\n      swap2\n      swap1\n      pop\n      jump\t// out\n        /* \"#utility.yul\":5041:5355   */\n    tag_290:\n        /* \"#utility.yul\":5137:5140   */\n      0x00\n        /* \"#utility.yul\":5158:5228   */\n      tag_402\n        /* \"#utility.yul\":5221:5227   */\n      dup4\n        /* \"#utility.yul\":5216:5219   */\n      dup6\n        /* \"#utility.yul\":5158:5228   */\n      tag_287\n      jump\t// in\n    tag_402:\n        /* \"#utility.yul\":5151:5228   */\n      swap4\n      pop\n        /* \"#utility.yul\":5238:5294   */\n      tag_403\n        /* \"#utility.yul\":5287:5293   */\n      dup4\n        /* \"#utility.yul\":5282:5285   */\n      dup6\n        /* \"#utility.yul\":5275:5280   */\n      dup5\n        /* \"#utility.yul\":5238:5294   */\n      tag_288\n      jump\t// in\n    tag_403:\n        /* \"#utility.yul\":5319:5348   */\n      tag_404\n        /* \"#utility.yul\":5341:5347   */\n      dup4\n        /* \"#utility.yul\":5319:5348   */\n      tag_289\n      jump\t// in\n    tag_404:\n        /* \"#utility.yul\":5314:5317   */\n      dup5\n        /* \"#utility.yul\":5310:5349   */\n      add\n        /* \"#utility.yul\":5303:5349   */\n      swap1\n      pop\n        /* \"#utility.yul\":5041:5355   */\n      swap4\n      swap3\n      pop\n      pop\n      pop\n      jump\t// out\n        /* \"#utility.yul\":5361:5902   */\n    tag_48:\n        /* \"#utility.yul\":5534:5538   */\n      0x00\n        /* \"#utility.yul\":5572:5574   */\n      0x60\n        /* \"#utility.yul\":5561:5570   */\n      dup3\n        /* \"#utility.yul\":5557:5575   */\n      add\n        /* \"#utility.yul\":5549:5575   */\n      swap1\n      pop\n        /* \"#utility.yul\":5585:5654   */\n      tag_406\n        /* \"#utility.yul\":5651:5652   */\n      0x00\n        /* \"#utility.yul\":5640:5649   */\n      dup4\n        /* \"#utility.yul\":5636:5653   */\n      add\n        /* \"#utility.yul\":5627:5633   */\n      dup8\n        /* \"#utility.yul\":5585:5654   */\n      tag_286\n      jump\t// in\n    tag_406:\n        /* \"#utility.yul\":5664:5734   */\n      tag_407\n        /* \"#utility.yul\":5730:5732   */\n      0x20\n        /* \"#utility.yul\":5719:5728   */\n      dup4\n        /* \"#utility.yul\":5715:5733   */\n      add\n        /* \"#utility.yul\":5706:5712   */\n      dup7\n        /* \"#utility.yul\":5664:5734   */\n      tag_286\n      jump\t// in\n    tag_407:\n        /* \"#utility.yul\":5781:5790   */\n      dup2\n        /* \"#utility.yul\":5775:5779   */\n      dup2\n        /* \"#utility.yul\":5771:5791   */\n      sub\n        /* \"#utility.yul\":5766:5768   */\n      0x40\n        /* \"#utility.yul\":5755:5764   */\n      dup4\n        /* \"#utility.yul\":5751:5769   */\n      add\n        /* \"#utility.yul\":5744:5792   */\n      mstore\n        /* \"#utility.yul\":5809:5895   */\n      tag_408\n        /* \"#utility.yul\":5890:5894   */\n      dup2\n        /* \"#utility.yul\":5881:5887   */\n      dup5\n        /* \"#utility.yul\":5873:5879   */\n      dup7\n        /* \"#utility.yul\":5809:5895   */\n      tag_290\n      jump\t// in\n    tag_408:\n        /* \"#utility.yul\":5801:5895   */\n      swap1\n      pop\n        /* \"#utility.yul\":5361:5902   */\n      swap6\n      swap5\n      pop\n      pop\n      pop\n      pop\n      pop\n      jump\t// out\n        /* \"#utility.yul\":5908:6025   */\n    tag_291:\n        /* \"#utility.yul\":6017:6018   */\n      0x00\n        /* \"#utility.yul\":6014:6015   */\n      dup1\n        /* \"#utility.yul\":6007:6019   */\n      revert\n        /* \"#utility.yul\":6059:6296   */\n    tag_292:\n        /* \"#utility.yul\":6137:6142   */\n      0x00\n        /* \"#utility.yul\":6178:6181   */\n      0x0160\n        /* \"#utility.yul\":6169:6175   */\n      dup3\n        /* \"#utility.yul\":6164:6167   */\n      dup5\n        /* \"#utility.yul\":6160:6176   */\n      sub\n        /* \"#utility.yul\":6156:6182   */\n      slt\n        /* \"#utility.yul\":6153:6266   */\n      iszero\n      tag_411\n      jumpi\n        /* \"#utility.yul\":6185:6264   */\n      tag_412\n      tag_291\n      jump\t// in\n    tag_412:\n        /* \"#utility.yul\":6153:6266   */\n    tag_411:\n        /* \"#utility.yul\":6284:6290   */\n      dup2\n        /* \"#utility.yul\":6275:6290   */\n      swap1\n      pop\n        /* \"#utility.yul\":6059:6296   */\n      swap3\n      swap2\n      pop\n      pop\n      jump\t// out\n        /* \"#utility.yul\":6302:6422   */\n    tag_293:\n        /* \"#utility.yul\":6374:6397   */\n      tag_414\n        /* \"#utility.yul\":6391:6396   */\n      dup2\n        /* \"#utility.yul\":6374:6397   */\n      tag_285\n      jump\t// in\n    tag_414:\n        /* \"#utility.yul\":6367:6372   */\n      dup2\n        /* \"#utility.yul\":6364:6398   */\n      eq\n        /* \"#utility.yul\":6354:6416   */\n      tag_415\n      jumpi\n        /* \"#utility.yul\":6412:6413   */\n      0x00\n        /* \"#utility.yul\":6409:6410   */\n      dup1\n        /* \"#utility.yul\":6402:6414   */\n      revert\n        /* \"#utility.yul\":6354:6416   */\n    tag_415:\n        /* \"#utility.yul\":6302:6422   */\n      pop\n      jump\t// out\n        /* \"#utility.yul\":6428:6565   */\n    tag_294:\n        /* \"#utility.yul\":6473:6478   */\n      0x00\n        /* \"#utility.yul\":6511:6517   */\n      dup2\n        /* \"#utility.yul\":6498:6518   */\n      calldataload\n        /* \"#utility.yul\":6489:6518   */\n      swap1\n      pop\n        /* \"#utility.yul\":6527:6559   */\n      tag_417\n        /* \"#utility.yul\":6553:6558   */\n      dup2\n        /* \"#utility.yul\":6527:6559   */\n      tag_293\n      jump\t// in\n    tag_417:\n        /* \"#utility.yul\":6428:6565   */\n      swap3\n      swap2\n      pop\n      pop\n      jump\t// out\n        /* \"#utility.yul\":6571:7410   */\n    tag_52:\n        /* \"#utility.yul\":6678:6684   */\n      0x00\n        /* \"#utility.yul\":6686:6692   */\n      dup1\n        /* \"#utility.yul\":6694:6700   */\n      0x00\n        /* \"#utility.yul\":6743:6745   */\n      0x60\n        /* \"#utility.yul\":6731:6740   */\n      dup5\n        /* \"#utility.yul\":6722:6729   */\n      dup7\n        /* \"#utility.yul\":6718:6741   */\n      sub\n        /* \"#utility.yul\":6714:6746   */\n      slt\n        /* \"#utility.yul\":6711:6830   */\n      iszero\n      tag_419\n      jumpi\n        /* \"#utility.yul\":6749:6828   */\n      tag_420\n      tag_267\n      jump\t// in\n    tag_420:\n        /* \"#utility.yul\":6711:6830   */\n    tag_419:\n        /* \"#utility.yul\":6897:6898   */\n      0x00\n        /* \"#utility.yul\":6886:6895   */\n      dup5\n        /* \"#utility.yul\":6882:6899   */\n      add\n        /* \"#utility.yul\":6869:6900   */\n      calldataload\n        /* \"#utility.yul\":6927:6945   */\n      0xffffffffffffffff\n        /* \"#utility.yul\":6919:6925   */\n      dup2\n        /* \"#utility.yul\":6916:6946   */\n      gt\n        /* \"#utility.yul\":6913:7030   */\n      iszero\n      tag_421\n      jumpi\n        /* \"#utility.yul\":6949:7028   */\n      tag_422\n      tag_268\n      jump\t// in\n    tag_422:\n        /* \"#utility.yul\":6913:7030   */\n    tag_421:\n        /* \"#utility.yul\":7054:7139   */\n      tag_423\n        /* \"#utility.yul\":7131:7138   */\n      dup7\n        /* \"#utility.yul\":7122:7128   */\n      dup3\n        /* \"#utility.yul\":7111:7120   */\n      dup8\n        /* \"#utility.yul\":7107:7129   */\n      add\n        /* \"#utility.yul\":7054:7139   */\n      tag_292\n      jump\t// in\n    tag_423:\n        /* \"#utility.yul\":7044:7139   */\n      swap4\n      pop\n        /* \"#utility.yul\":6840:7149   */\n      pop\n        /* \"#utility.yul\":7188:7190   */\n      0x20\n        /* \"#utility.yul\":7214:7266   */\n      tag_424\n        /* \"#utility.yul\":7258:7265   */\n      dup7\n        /* \"#utility.yul\":7249:7255   */\n      dup3\n        /* \"#utility.yul\":7238:7247   */\n      dup8\n        /* \"#utility.yul\":7234:7256   */\n      add\n        /* \"#utility.yul\":7214:7266   */\n      tag_294\n      jump\t// in\n    tag_424:\n        /* \"#utility.yul\":7204:7266   */\n      swap3\n      pop\n        /* \"#utility.yul\":7159:7276   */\n      pop\n        /* \"#utility.yul\":7315:7317   */\n      0x40\n        /* \"#utility.yul\":7341:7393   */\n      tag_425\n        /* \"#utility.yul\":7385:7392   */\n      dup7\n        /* \"#utility.yul\":7376:7382   */\n      dup3\n        /* \"#utility.yul\":7365:7374   */\n      dup8\n        /* \"#utility.yul\":7361:7383   */\n      add\n        /* \"#utility.yul\":7341:7393   */\n      tag_294\n      jump\t// in\n    tag_425:\n        /* \"#utility.yul\":7331:7393   */\n      swap2\n      pop\n        /* \"#utility.yul\":7286:7403   */\n      pop\n        /* \"#utility.yul\":6571:7410   */\n      swap3\n      pop\n      swap3\n      pop\n      swap3\n      jump\t// out\n        /* \"#utility.yul\":7416:7493   */\n    tag_295:\n        /* \"#utility.yul\":7453:7460   */\n      0x00\n        /* \"#utility.yul\":7482:7487   */\n      dup2\n        /* \"#utility.yul\":7471:7487   */\n      swap1\n      pop\n        /* \"#utility.yul\":7416:7493   */\n      swap2\n      swap1\n      pop\n      jump\t// out\n        /* \"#utility.yul\":7499:7617   */\n    tag_296:\n        /* \"#utility.yul\":7586:7610   */\n      tag_428\n        /* \"#utility.yul\":7604:7609   */\n      dup2\n        /* \"#utility.yul\":7586:7610   */\n      tag_295\n      jump\t// in\n    tag_428:\n        /* \"#utility.yul\":7581:7584   */\n      dup3\n        /* \"#utility.yul\":7574:7611   */\n      mstore\n        /* \"#utility.yul\":7499:7617   */\n      pop\n      pop\n      jump\t// out\n        /* \"#utility.yul\":7623:7845   */\n    tag_55:\n        /* \"#utility.yul\":7716:7720   */\n      0x00\n        /* \"#utility.yul\":7754:7756   */\n      0x20\n        /* \"#utility.yul\":7743:7752   */\n      dup3\n        /* \"#utility.yul\":7739:7757   */\n      add\n        /* \"#utility.yul\":7731:7757   */\n      swap1\n      pop\n        /* \"#utility.yul\":7767:7838   */\n      tag_430\n        /* \"#utility.yul\":7835:7836   */\n      0x00\n        /* \"#utility.yul\":7824:7833   */\n      dup4\n        /* \"#utility.yul\":7820:7837   */\n      add\n        /* \"#utility.yul\":7811:7817   */\n      dup5\n        /* \"#utility.yul\":7767:7838   */\n      tag_296\n      jump\t// in\n    tag_430:\n        /* \"#utility.yul\":7623:7845   */\n      swap3\n      swap2\n      pop\n      pop\n      jump\t// out\n        /* \"#utility.yul\":7851:7973   */\n    tag_297:\n        /* \"#utility.yul\":7924:7948   */\n      tag_432\n        /* \"#utility.yul\":7942:7947   */\n      dup2\n        /* \"#utility.yul\":7924:7948   */\n      tag_279\n      jump\t// in\n    tag_432:\n        /* \"#utility.yul\":7917:7922   */\n      dup2\n        /* \"#utility.yul\":7914:7949   */\n      eq\n        /* \"#utility.yul\":7904:7967   */\n      tag_433\n      jumpi\n        /* \"#utility.yul\":7963:7964   */\n      0x00\n        /* \"#utility.yul\":7960:7961   */\n      dup1\n        /* \"#utility.yul\":7953:7965   */\n      revert\n        /* \"#utility.yul\":7904:7967   */\n    tag_433:\n        /* \"#utility.yul\":7851:7973   */\n      pop\n      jump\t// out\n        /* \"#utility.yul\":7979:8118   */\n    tag_298:\n        /* \"#utility.yul\":8025:8030   */\n      0x00\n        /* \"#utility.yul\":8063:8069   */\n      dup2\n        /* \"#utility.yul\":8050:8070   */\n      calldataload\n        /* \"#utility.yul\":8041:8070   */\n      swap1\n      pop\n        /* \"#utility.yul\":8079:8112   */\n      tag_435\n        /* \"#utility.yul\":8106:8111   */\n      dup2\n        /* \"#utility.yul\":8079:8112   */\n      tag_297\n      jump\t// in\n    tag_435:\n        /* \"#utility.yul\":7979:8118   */\n      swap3\n      swap2\n      pop\n      pop\n      jump\t// out\n        /* \"#utility.yul\":8124:8453   */\n    tag_59:\n        /* \"#utility.yul\":8183:8189   */\n      0x00\n        /* \"#utility.yul\":8232:8234   */\n      0x20\n        /* \"#utility.yul\":8220:8229   */\n      dup3\n        /* \"#utility.yul\":8211:8218   */\n      dup5\n        /* \"#utility.yul\":8207:8230   */\n      sub\n        /* \"#utility.yul\":8203:8235   */\n      slt\n        /* \"#utility.yul\":8200:8319   */\n      iszero\n      tag_437\n      jumpi\n        /* \"#utility.yul\":8238:8317   */\n      tag_438\n      tag_267\n      jump\t// in\n    tag_438:\n        /* \"#utility.yul\":8200:8319   */\n    tag_437:\n        /* \"#utility.yul\":8358:8359   */\n      0x00\n        /* \"#utility.yul\":8383:8436   */\n      tag_439\n        /* \"#utility.yul\":8428:8435   */\n      dup5\n        /* \"#utility.yul\":8419:8425   */\n      dup3\n        /* \"#utility.yul\":8408:8417   */\n      dup6\n        /* \"#utility.yul\":8404:8426   */\n      add\n        /* \"#utility.yul\":8383:8436   */\n      tag_298\n      jump\t// in\n    tag_439:\n        /* \"#utility.yul\":8373:8436   */\n      swap2\n      pop\n        /* \"#utility.yul\":8329:8446   */\n      pop\n        /* \"#utility.yul\":8124:8453   */\n      swap3\n      swap2\n      pop\n      pop\n      jump\t// out\n        /* \"#utility.yul\":8459:8577   */\n    tag_299:\n        /* \"#utility.yul\":8546:8570   */\n      tag_441\n        /* \"#utility.yul\":8564:8569   */\n      dup2\n        /* \"#utility.yul\":8546:8570   */\n      tag_276\n      jump\t// in\n    tag_441:\n        /* \"#utility.yul\":8541:8544   */\n      dup3\n        /* \"#utility.yul\":8534:8571   */\n      mstore\n        /* \"#utility.yul\":8459:8577   */\n      pop\n      pop\n      jump\t// out\n        /* \"#utility.yul\":8583:8805   */\n    tag_62:\n        /* \"#utility.yul\":8676:8680   */\n      0x00\n        /* \"#utility.yul\":8714:8716   */\n      0x20\n        /* \"#utility.yul\":8703:8712   */\n      dup3\n        /* \"#utility.yul\":8699:8717   */\n      add\n        /* \"#utility.yul\":8691:8717   */\n      swap1\n      pop\n        /* \"#utility.yul\":8727:8798   */\n      tag_443\n        /* \"#utility.yul\":8795:8796   */\n      0x00\n        /* \"#utility.yul\":8784:8793   */\n      dup4\n        /* \"#utility.yul\":8780:8797   */\n      add\n        /* \"#utility.yul\":8771:8777   */\n      dup5\n        /* \"#utility.yul\":8727:8798   */\n      tag_299\n      jump\t// in\n    tag_443:\n        /* \"#utility.yul\":8583:8805   */\n      swap3\n      swap2\n      pop\n      pop\n      jump\t// out\n        /* \"#utility.yul\":8811:8924   */\n    tag_300:\n        /* \"#utility.yul\":8898:8899   */\n      0x03\n        /* \"#utility.yul\":8891:8896   */\n      dup2\n        /* \"#utility.yul\":8888:8900   */\n      lt\n        /* \"#utility.yul\":8878:8918   */\n      tag_445\n      jumpi\n        /* \"#utility.yul\":8914:8915   */\n      0x00\n        /* \"#utility.yul\":8911:8912   */\n      dup1\n        /* \"#utility.yul\":8904:8916   */\n      revert\n        /* \"#utility.yul\":8878:8918   */\n    tag_445:\n        /* \"#utility.yul\":8811:8924   */\n      pop\n      jump\t// out\n        /* \"#utility.yul\":8930:9097   */\n    tag_301:\n        /* \"#utility.yul\":8990:8995   */\n      0x00\n        /* \"#utility.yul\":9028:9034   */\n      dup2\n        /* \"#utility.yul\":9015:9035   */\n      calldataload\n        /* \"#utility.yul\":9006:9035   */\n      swap1\n      pop\n        /* \"#utility.yul\":9044:9091   */\n      tag_447\n        /* \"#utility.yul\":9085:9090   */\n      dup2\n        /* \"#utility.yul\":9044:9091   */\n      tag_300\n      jump\t// in\n    tag_447:\n        /* \"#utility.yul\":8930:9097   */\n      swap3\n      swap2\n      pop\n      pop\n      jump\t// out\n        /* \"#utility.yul\":9103:9948   */\n    tag_66:\n        /* \"#utility.yul\":9205:9211   */\n      0x00\n        /* \"#utility.yul\":9213:9219   */\n      dup1\n        /* \"#utility.yul\":9221:9227   */\n      0x00\n        /* \"#utility.yul\":9229:9235   */\n      dup1\n        /* \"#utility.yul\":9278:9280   */\n      0x60\n        /* \"#utility.yul\":9266:9275   */\n      dup6\n        /* \"#utility.yul\":9257:9264   */\n      dup8\n        /* \"#utility.yul\":9253:9276   */\n      sub\n        /* \"#utility.yul\":9249:9281   */\n      slt\n        /* \"#utility.yul\":9246:9365   */\n      iszero\n      tag_449\n      jumpi\n        /* \"#utility.yul\":9284:9363   */\n      tag_450\n      tag_267\n      jump\t// in\n    tag_450:\n        /* \"#utility.yul\":9246:9365   */\n    tag_449:\n        /* \"#utility.yul\":9404:9405   */\n      0x00\n        /* \"#utility.yul\":9429:9496   */\n      tag_451\n        /* \"#utility.yul\":9488:9495   */\n      dup8\n        /* \"#utility.yul\":9479:9485   */\n      dup3\n        /* \"#utility.yul\":9468:9477   */\n      dup9\n        /* \"#utility.yul\":9464:9486   */\n      add\n        /* \"#utility.yul\":9429:9496   */\n      tag_301\n      jump\t// in\n    tag_451:\n        /* \"#utility.yul\":9419:9496   */\n      swap5\n      pop\n        /* \"#utility.yul\":9375:9506   */\n      pop\n        /* \"#utility.yul\":9573:9575   */\n      0x20\n        /* \"#utility.yul\":9562:9571   */\n      dup6\n        /* \"#utility.yul\":9558:9576   */\n      add\n        /* \"#utility.yul\":9545:9577   */\n      calldataload\n        /* \"#utility.yul\":9604:9622   */\n      0xffffffffffffffff\n        /* \"#utility.yul\":9596:9602   */\n      dup2\n        /* \"#utility.yul\":9593:9623   */\n      gt\n        /* \"#utility.yul\":9590:9707   */\n      iszero\n      tag_452\n      jumpi\n        /* \"#utility.yul\":9626:9705   */\n      tag_453\n      tag_268\n      jump\t// in\n    tag_453:\n        /* \"#utility.yul\":9590:9707   */\n    tag_452:\n        /* \"#utility.yul\":9739:9803   */\n      tag_454\n        /* \"#utility.yul\":9795:9802   */\n      dup8\n        /* \"#utility.yul\":9786:9792   */\n      dup3\n        /* \"#utility.yul\":9775:9784   */\n      dup9\n        /* \"#utility.yul\":9771:9793   */\n      add\n        /* \"#utility.yul\":9739:9803   */\n      tag_284\n      jump\t// in\n    tag_454:\n        /* \"#utility.yul\":9721:9803   */\n      swap4\n      pop\n      swap4\n      pop\n        /* \"#utility.yul\":9516:9813   */\n      pop\n        /* \"#utility.yul\":9852:9854   */\n      0x40\n        /* \"#utility.yul\":9878:9931   */\n      tag_455\n        /* \"#utility.yul\":9923:9930   */\n      dup8\n        /* \"#utility.yul\":9914:9920   */\n      dup3\n        /* \"#utility.yul\":9903:9912   */\n      dup9\n        /* \"#utility.yul\":9899:9921   */\n      add\n        /* \"#utility.yul\":9878:9931   */\n      tag_278\n      jump\t// in\n    tag_455:\n        /* \"#utility.yul\":9868:9931   */\n      swap2\n      pop\n        /* \"#utility.yul\":9823:9941   */\n      pop\n        /* \"#utility.yul\":9103:9948   */\n      swap3\n      swap6\n      swap2\n      swap5\n      pop\n      swap3\n      pop\n      jump\t// out\n        /* \"#utility.yul\":9954:10014   */\n    tag_302:\n        /* \"#utility.yul\":9982:9985   */\n      0x00\n        /* \"#utility.yul\":10003:10008   */\n      dup2\n        /* \"#utility.yul\":9996:10008   */\n      swap1\n      pop\n        /* \"#utility.yul\":9954:10014   */\n      swap2\n      swap1\n      pop\n      jump\t// out\n        /* \"#utility.yul\":10020:10162   */\n    tag_303:\n        /* \"#utility.yul\":10070:10079   */\n      0x00\n        /* \"#utility.yul\":10103:10156   */\n      tag_458\n        /* \"#utility.yul\":10121:10155   */\n      tag_459\n        /* \"#utility.yul\":10130:10154   */\n      tag_460\n        /* \"#utility.yul\":10148:10153   */\n      dup5\n        /* \"#utility.yul\":10130:10154   */\n      tag_272\n      jump\t// in\n    tag_460:\n        /* \"#utility.yul\":10121:10155   */\n      tag_302\n      jump\t// in\n    tag_459:\n        /* \"#utility.yul\":10103:10156   */\n      tag_272\n      jump\t// in\n    tag_458:\n        /* \"#utility.yul\":10090:10156   */\n      swap1\n      pop\n        /* \"#utility.yul\":10020:10162   */\n      swap2\n      swap1\n      pop\n      jump\t// out\n        /* \"#utility.yul\":10168:10294   */\n    tag_304:\n        /* \"#utility.yul\":10218:10227   */\n      0x00\n        /* \"#utility.yul\":10251:10288   */\n      tag_462\n        /* \"#utility.yul\":10282:10287   */\n      dup3\n        /* \"#utility.yul\":10251:10288   */\n      tag_303\n      jump\t// in\n    tag_462:\n        /* \"#utility.yul\":10238:10288   */\n      swap1\n      pop\n        /* \"#utility.yul\":10168:10294   */\n      swap2\n      swap1\n      pop\n      jump\t// out\n        /* \"#utility.yul\":10300:10445   */\n    tag_305:\n        /* \"#utility.yul\":10369:10378   */\n      0x00\n        /* \"#utility.yul\":10402:10439   */\n      tag_464\n        /* \"#utility.yul\":10433:10438   */\n      dup3\n        /* \"#utility.yul\":10402:10439   */\n      tag_304\n      jump\t// in\n    tag_464:\n        /* \"#utility.yul\":10389:10439   */\n      swap1\n      pop\n        /* \"#utility.yul\":10300:10445   */\n      swap2\n      swap1\n      pop\n      jump\t// out\n        /* \"#utility.yul\":10451:10620   */\n    tag_306:\n        /* \"#utility.yul\":10557:10613   */\n      tag_466\n        /* \"#utility.yul\":10607:10612   */\n      dup2\n        /* \"#utility.yul\":10557:10613   */\n      tag_305\n      jump\t// in\n    tag_466:\n        /* \"#utility.yul\":10552:10555   */\n      dup3\n        /* \"#utility.yul\":10545:10614   */\n      mstore\n        /* \"#utility.yul\":10451:10620   */\n      pop\n      pop\n      jump\t// out\n        /* \"#utility.yul\":10626:10886   */\n    tag_72:\n        /* \"#utility.yul\":10738:10742   */\n      0x00\n        /* \"#utility.yul\":10776:10778   */\n      0x20\n        /* \"#utility.yul\":10765:10774   */\n      dup3\n        /* \"#utility.yul\":10761:10779   */\n      add\n        /* \"#utility.yul\":10753:10779   */\n      swap1\n      pop\n        /* \"#utility.yul\":10789:10879   */\n      tag_468\n        /* \"#utility.yul\":10876:10877   */\n      0x00\n        /* \"#utility.yul\":10865:10874   */\n      dup4\n        /* \"#utility.yul\":10861:10878   */\n      add\n        /* \"#utility.yul\":10852:10858   */\n      dup5\n        /* \"#utility.yul\":10789:10879   */\n      tag_306\n      jump\t// in\n    tag_468:\n        /* \"#utility.yul\":10626:10886   */\n      swap3\n      swap2\n      pop\n      pop\n      jump\t// out\n        /* \"#utility.yul\":10892:11237   */\n    tag_79:\n        /* \"#utility.yul\":10959:10965   */\n      0x00\n        /* \"#utility.yul\":11008:11010   */\n      0x20\n        /* \"#utility.yul\":10996:11005   */\n      dup3\n        /* \"#utility.yul\":10987:10994   */\n      dup5\n        /* \"#utility.yul\":10983:11006   */\n      sub\n        /* \"#utility.yul\":10979:11011   */\n      slt\n        /* \"#utility.yul\":10976:11095   */\n      iszero\n      tag_470\n      jumpi\n        /* \"#utility.yul\":11014:11093   */\n      tag_471\n      tag_267\n      jump\t// in\n    tag_471:\n        /* \"#utility.yul\":10976:11095   */\n    tag_470:\n        /* \"#utility.yul\":11134:11135   */\n      0x00\n        /* \"#utility.yul\":11159:11220   */\n      tag_472\n        /* \"#utility.yul\":11212:11219   */\n      dup5\n        /* \"#utility.yul\":11203:11209   */\n      dup3\n        /* \"#utility.yul\":11192:11201   */\n      dup6\n        /* \"#utility.yul\":11188:11210   */\n      add\n        /* \"#utility.yul\":11159:11220   */\n      tag_275\n      jump\t// in\n    tag_472:\n        /* \"#utility.yul\":11149:11220   */\n      swap2\n      pop\n        /* \"#utility.yul\":11105:11230   */\n      pop\n        /* \"#utility.yul\":10892:11237   */\n      swap3\n      swap2\n      pop\n      pop\n      jump\t// out\n        /* \"#utility.yul\":11243:11365   */\n    tag_307:\n        /* \"#utility.yul\":11316:11340   */\n      tag_474\n        /* \"#utility.yul\":11334:11339   */\n      dup2\n        /* \"#utility.yul\":11316:11340   */\n      tag_295\n      jump\t// in\n    tag_474:\n        /* \"#utility.yul\":11309:11314   */\n      dup2\n        /* \"#utility.yul\":11306:11341   */\n      eq\n        /* \"#utility.yul\":11296:11359   */\n      tag_475\n      jumpi\n        /* \"#utility.yul\":11355:11356   */\n      0x00\n        /* \"#utility.yul\":11352:11353   */\n      dup1\n        /* \"#utility.yul\":11345:11357   */\n      revert\n        /* \"#utility.yul\":11296:11359   */\n    tag_475:\n        /* \"#utility.yul\":11243:11365   */\n      pop\n      jump\t// out\n        /* \"#utility.yul\":11371:11510   */\n    tag_308:\n        /* \"#utility.yul\":11417:11422   */\n      0x00\n        /* \"#utility.yul\":11455:11461   */\n      dup2\n        /* \"#utility.yul\":11442:11462   */\n      calldataload\n        /* \"#utility.yul\":11433:11462   */\n      swap1\n      pop\n        /* \"#utility.yul\":11471:11504   */\n      tag_477\n        /* \"#utility.yul\":11498:11503   */\n      dup2\n        /* \"#utility.yul\":11471:11504   */\n      tag_307\n      jump\t// in\n    tag_477:\n        /* \"#utility.yul\":11371:11510   */\n      swap3\n      swap2\n      pop\n      pop\n      jump\t// out\n        /* \"#utility.yul\":11516:12359   */\n    tag_94:\n        /* \"#utility.yul\":11625:11631   */\n      0x00\n        /* \"#utility.yul\":11633:11639   */\n      dup1\n        /* \"#utility.yul\":11641:11647   */\n      0x00\n        /* \"#utility.yul\":11690:11692   */\n      0x60\n        /* \"#utility.yul\":11678:11687   */\n      dup5\n        /* \"#utility.yul\":11669:11676   */\n      dup7\n        /* \"#utility.yul\":11665:11688   */\n      sub\n        /* \"#utility.yul\":11661:11693   */\n      slt\n        /* \"#utility.yul\":11658:11777   */\n      iszero\n      tag_479\n      jumpi\n        /* \"#utility.yul\":11696:11775   */\n      tag_480\n      tag_267\n      jump\t// in\n    tag_480:\n        /* \"#utility.yul\":11658:11777   */\n    tag_479:\n        /* \"#utility.yul\":11844:11845   */\n      0x00\n        /* \"#utility.yul\":11833:11842   */\n      dup5\n        /* \"#utility.yul\":11829:11846   */\n      add\n        /* \"#utility.yul\":11816:11847   */\n      calldataload\n        /* \"#utility.yul\":11874:11892   */\n      0xffffffffffffffff\n        /* \"#utility.yul\":11866:11872   */\n      dup2\n        /* \"#utility.yul\":11863:11893   */\n      gt\n        /* \"#utility.yul\":11860:11977   */\n      iszero\n      tag_481\n      jumpi\n        /* \"#utility.yul\":11896:11975   */\n      tag_482\n      tag_268\n      jump\t// in\n    tag_482:\n        /* \"#utility.yul\":11860:11977   */\n    tag_481:\n        /* \"#utility.yul\":12001:12086   */\n      tag_483\n        /* \"#utility.yul\":12078:12085   */\n      dup7\n        /* \"#utility.yul\":12069:12075   */\n      dup3\n        /* \"#utility.yul\":12058:12067   */\n      dup8\n        /* \"#utility.yul\":12054:12076   */\n      add\n        /* \"#utility.yul\":12001:12086   */\n      tag_292\n      jump\t// in\n    tag_483:\n        /* \"#utility.yul\":11991:12086   */\n      swap4\n      pop\n        /* \"#utility.yul\":11787:12096   */\n      pop\n        /* \"#utility.yul\":12135:12137   */\n      0x20\n        /* \"#utility.yul\":12161:12214   */\n      tag_484\n        /* \"#utility.yul\":12206:12213   */\n      dup7\n        /* \"#utility.yul\":12197:12203   */\n      dup3\n        /* \"#utility.yul\":12186:12195   */\n      dup8\n        /* \"#utility.yul\":12182:12204   */\n      add\n        /* \"#utility.yul\":12161:12214   */\n      tag_308\n      jump\t// in\n    tag_484:\n        /* \"#utility.yul\":12151:12214   */\n      swap3\n      pop\n        /* \"#utility.yul\":12106:12224   */\n      pop\n        /* \"#utility.yul\":12263:12265   */\n      0x40\n        /* \"#utility.yul\":12289:12342   */\n      tag_485\n        /* \"#utility.yul\":12334:12341   */\n      dup7\n        /* \"#utility.yul\":12325:12331   */\n      dup3\n        /* \"#utility.yul\":12314:12323   */\n      dup8\n        /* \"#utility.yul\":12310:12332   */\n      add\n        /* \"#utility.yul\":12289:12342   */\n      tag_278\n      jump\t// in\n    tag_485:\n        /* \"#utility.yul\":12279:12342   */\n      swap2\n      pop\n        /* \"#utility.yul\":12234:12352   */\n      pop\n        /* \"#utility.yul\":11516:12359   */\n      swap3\n      pop\n      swap3\n      pop\n      swap3\n      jump\t// out\n        /* \"#utility.yul\":12365:12463   */\n    tag_309:\n        /* \"#utility.yul\":12416:12422   */\n      0x00\n        /* \"#utility.yul\":12450:12455   */\n      dup2\n        /* \"#utility.yul\":12444:12456   */\n      mload\n        /* \"#utility.yul\":12434:12456   */\n      swap1\n      pop\n        /* \"#utility.yul\":12365:12463   */\n      swap2\n      swap1\n      pop\n      jump\t// out\n        /* \"#utility.yul\":12469:12715   */\n    tag_310:\n        /* \"#utility.yul\":12550:12551   */\n      0x00\n        /* \"#utility.yul\":12560:12673   */\n    tag_488:\n        /* \"#utility.yul\":12574:12580   */\n      dup4\n        /* \"#utility.yul\":12571:12572   */\n      dup2\n        /* \"#utility.yul\":12568:12581   */\n      lt\n        /* \"#utility.yul\":12560:12673   */\n      iszero\n      tag_490\n      jumpi\n        /* \"#utility.yul\":12659:12660   */\n      dup1\n        /* \"#utility.yul\":12654:12657   */\n      dup3\n        /* \"#utility.yul\":12650:12661   */\n      add\n        /* \"#utility.yul\":12644:12662   */\n      mload\n        /* \"#utility.yul\":12640:12641   */\n      dup2\n        /* \"#utility.yul\":12635:12638   */\n      dup5\n        /* \"#utility.yul\":12631:12642   */\n      add\n        /* \"#utility.yul\":12624:12663   */\n      mstore\n        /* \"#utility.yul\":12596:12598   */\n      0x20\n        /* \"#utility.yul\":12593:12594   */\n      dup2\n        /* \"#utility.yul\":12589:12599   */\n      add\n        /* \"#utility.yul\":12584:12599   */\n      swap1\n      pop\n        /* \"#utility.yul\":12560:12673   */\n      jump(tag_488)\n    tag_490:\n        /* \"#utility.yul\":12707:12708   */\n      0x00\n        /* \"#utility.yul\":12698:12704   */\n      dup5\n        /* \"#utility.yul\":12693:12696   */\n      dup5\n        /* \"#utility.yul\":12689:12705   */\n      add\n        /* \"#utility.yul\":12682:12709   */\n      mstore\n        /* \"#utility.yul\":12531:12715   */\n      pop\n        /* \"#utility.yul\":12469:12715   */\n      pop\n      pop\n      pop\n      jump\t// out\n        /* \"#utility.yul\":12721:13094   */\n    tag_311:\n        /* \"#utility.yul\":12807:12810   */\n      0x00\n        /* \"#utility.yul\":12835:12873   */\n      tag_492\n        /* \"#utility.yul\":12867:12872   */\n      dup3\n        /* \"#utility.yul\":12835:12873   */\n      tag_309\n      jump\t// in\n    tag_492:\n        /* \"#utility.yul\":12889:12959   */\n      tag_493\n        /* \"#utility.yul\":12952:12958   */\n      dup2\n        /* \"#utility.yul\":12947:12950   */\n      dup6\n        /* \"#utility.yul\":12889:12959   */\n      tag_287\n      jump\t// in\n    tag_493:\n        /* \"#utility.yul\":12882:12959   */\n      swap4\n      pop\n        /* \"#utility.yul\":12968:13033   */\n      tag_494\n        /* \"#utility.yul\":13026:13032   */\n      dup2\n        /* \"#utility.yul\":13021:13024   */\n      dup6\n        /* \"#utility.yul\":13014:13018   */\n      0x20\n        /* \"#utility.yul\":13007:13012   */\n      dup7\n        /* \"#utility.yul\":13003:13019   */\n      add\n        /* \"#utility.yul\":12968:13033   */\n      tag_310\n      jump\t// in\n    tag_494:\n        /* \"#utility.yul\":13058:13087   */\n      tag_495\n        /* \"#utility.yul\":13080:13086   */\n      dup2\n        /* \"#utility.yul\":13058:13087   */\n      tag_289\n      jump\t// in\n    tag_495:\n        /* \"#utility.yul\":13053:13056   */\n      dup5\n        /* \"#utility.yul\":13049:13088   */\n      add\n        /* \"#utility.yul\":13042:13088   */\n      swap2\n      pop\n        /* \"#utility.yul\":12811:13094   */\n      pop\n        /* \"#utility.yul\":12721:13094   */\n      swap3\n      swap2\n      pop\n      pop\n      jump\t// out\n        /* \"#utility.yul\":13100:13519   */\n    tag_97:\n        /* \"#utility.yul\":13239:13243   */\n      0x00\n        /* \"#utility.yul\":13277:13279   */\n      0x40\n        /* \"#utility.yul\":13266:13275   */\n      dup3\n        /* \"#utility.yul\":13262:13280   */\n      add\n        /* \"#utility.yul\":13254:13280   */\n      swap1\n      pop\n        /* \"#utility.yul\":13326:13335   */\n      dup2\n        /* \"#utility.yul\":13320:13324   */\n      dup2\n        /* \"#utility.yul\":13316:13336   */\n      sub\n        /* \"#utility.yul\":13312:13313   */\n      0x00\n        /* \"#utility.yul\":13301:13310   */\n      dup4\n        /* \"#utility.yul\":13297:13314   */\n      add\n        /* \"#utility.yul\":13290:13337   */\n      mstore\n        /* \"#utility.yul\":13354:13430   */\n      tag_497\n        /* \"#utility.yul\":13425:13429   */\n      dup2\n        /* \"#utility.yul\":13416:13422   */\n      dup6\n        /* \"#utility.yul\":13354:13430   */\n      tag_311\n      jump\t// in\n    tag_497:\n        /* \"#utility.yul\":13346:13430   */\n      swap1\n      pop\n        /* \"#utility.yul\":13440:13512   */\n      tag_498\n        /* \"#utility.yul\":13508:13510   */\n      0x20\n        /* \"#utility.yul\":13497:13506   */\n      dup4\n        /* \"#utility.yul\":13493:13511   */\n      add\n        /* \"#utility.yul\":13484:13490   */\n      dup5\n        /* \"#utility.yul\":13440:13512   */\n      tag_299\n      jump\t// in\n    tag_498:\n        /* \"#utility.yul\":13100:13519   */\n      swap4\n      swap3\n      pop\n      pop\n      pop\n      jump\t// out\n        /* \"#utility.yul\":13525:13640   */\n    tag_312:\n        /* \"#utility.yul\":13610:13633   */\n      tag_500\n        /* \"#utility.yul\":13627:13632   */\n      dup2\n        /* \"#utility.yul\":13610:13633   */\n      tag_269\n      jump\t// in\n    tag_500:\n        /* \"#utility.yul\":13605:13608   */\n      dup3\n        /* \"#utility.yul\":13598:13634   */\n      mstore\n        /* \"#utility.yul\":13525:13640   */\n      pop\n      pop\n      jump\t// out\n        /* \"#utility.yul\":13646:13864   */\n    tag_103:\n        /* \"#utility.yul\":13737:13741   */\n      0x00\n        /* \"#utility.yul\":13775:13777   */\n      0x20\n        /* \"#utility.yul\":13764:13773   */\n      dup3\n        /* \"#utility.yul\":13760:13778   */\n      add\n        /* \"#utility.yul\":13752:13778   */\n      swap1\n      pop\n        /* \"#utility.yul\":13788:13857   */\n      tag_502\n        /* \"#utility.yul\":13854:13855   */\n      0x00\n        /* \"#utility.yul\":13843:13852   */\n      dup4\n        /* \"#utility.yul\":13839:13856   */\n      add\n        /* \"#utility.yul\":13830:13836   */\n      dup5\n        /* \"#utility.yul\":13788:13857   */\n      tag_312\n      jump\t// in\n    tag_502:\n        /* \"#utility.yul\":13646:13864   */\n      swap3\n      swap2\n      pop\n      pop\n      jump\t// out\n        /* \"#utility.yul\":13870:14012   */\n    tag_313:\n        /* \"#utility.yul\":13973:14005   */\n      tag_504\n        /* \"#utility.yul\":13999:14004   */\n      dup2\n        /* \"#utility.yul\":13973:14005   */\n      tag_273\n      jump\t// in\n    tag_504:\n        /* \"#utility.yul\":13968:13971   */\n      dup3\n        /* \"#utility.yul\":13961:14006   */\n      mstore\n        /* \"#utility.yul\":13870:14012   */\n      pop\n      pop\n      jump\t// out\n        /* \"#utility.yul\":14018:14382   */\n    tag_111:\n        /* \"#utility.yul\":14155:14159   */\n      0x00\n        /* \"#utility.yul\":14193:14195   */\n      0x40\n        /* \"#utility.yul\":14182:14191   */\n      dup3\n        /* \"#utility.yul\":14178:14196   */\n      add\n        /* \"#utility.yul\":14170:14196   */\n      swap1\n      pop\n        /* \"#utility.yul\":14206:14293   */\n      tag_506\n        /* \"#utility.yul\":14290:14291   */\n      0x00\n        /* \"#utility.yul\":14279:14288   */\n      dup4\n        /* \"#utility.yul\":14275:14292   */\n      add\n        /* \"#utility.yul\":14266:14272   */\n      dup6\n        /* \"#utility.yul\":14206:14293   */\n      tag_313\n      jump\t// in\n    tag_506:\n        /* \"#utility.yul\":14303:14375   */\n      tag_507\n        /* \"#utility.yul\":14371:14373   */\n      0x20\n        /* \"#utility.yul\":14360:14369   */\n      dup4\n        /* \"#utility.yul\":14356:14374   */\n      add\n        /* \"#utility.yul\":14347:14353   */\n      dup5\n        /* \"#utility.yul\":14303:14375   */\n      tag_299\n      jump\t// in\n    tag_507:\n        /* \"#utility.yul\":14018:14382   */\n      swap4\n      swap3\n      pop\n      pop\n      pop\n      jump\t// out\n        /* \"#utility.yul\":14388:14505   */\n    tag_314:\n        /* \"#utility.yul\":14497:14498   */\n      0x00\n        /* \"#utility.yul\":14494:14495   */\n      dup1\n        /* \"#utility.yul\":14487:14499   */\n      revert\n        /* \"#utility.yul\":14511:14628   */\n    tag_315:\n        /* \"#utility.yul\":14620:14621   */\n      0x00\n        /* \"#utility.yul\":14617:14618   */\n      dup1\n        /* \"#utility.yul\":14610:14622   */\n      revert\n        /* \"#utility.yul\":14634:15103   */\n    tag_123:\n        /* \"#utility.yul\":14739:14748   */\n      0x00\n        /* \"#utility.yul\":14750:14759   */\n      dup1\n        /* \"#utility.yul\":14788:14796   */\n      dup6\n        /* \"#utility.yul\":14776:14786   */\n      dup6\n        /* \"#utility.yul\":14773:14797   */\n      gt\n        /* \"#utility.yul\":14770:14881   */\n      iszero\n      tag_511\n      jumpi\n        /* \"#utility.yul\":14800:14879   */\n      tag_512\n      tag_314\n      jump\t// in\n    tag_512:\n        /* \"#utility.yul\":14770:14881   */\n    tag_511:\n        /* \"#utility.yul\":14906:14912   */\n      dup4\n        /* \"#utility.yul\":14896:14904   */\n      dup7\n        /* \"#utility.yul\":14893:14913   */\n      gt\n        /* \"#utility.yul\":14890:14997   */\n      iszero\n      tag_513\n      jumpi\n        /* \"#utility.yul\":14916:14995   */\n      tag_514\n      tag_315\n      jump\t// in\n    tag_514:\n        /* \"#utility.yul\":14890:14997   */\n    tag_513:\n        /* \"#utility.yul\":15047:15048   */\n      0x01\n        /* \"#utility.yul\":15035:15045   */\n      dup6\n        /* \"#utility.yul\":15031:15049   */\n      mul\n        /* \"#utility.yul\":15023:15029   */\n      dup4\n        /* \"#utility.yul\":15019:15050   */\n      add\n        /* \"#utility.yul\":15006:15050   */\n      swap2\n      pop\n        /* \"#utility.yul\":15086:15096   */\n      dup5\n        /* \"#utility.yul\":15076:15084   */\n      dup7\n        /* \"#utility.yul\":15072:15097   */\n      sub\n        /* \"#utility.yul\":15059:15097   */\n      swap1\n      pop\n        /* \"#utility.yul\":14634:15103   */\n      swap5\n      pop\n      swap5\n      swap3\n      pop\n      pop\n      pop\n      jump\t// out\n        /* \"#utility.yul\":15109:15579   */\n    tag_125:\n        /* \"#utility.yul\":15175:15181   */\n      0x00\n        /* \"#utility.yul\":15183:15189   */\n      dup1\n        /* \"#utility.yul\":15232:15234   */\n      0x40\n        /* \"#utility.yul\":15220:15229   */\n      dup4\n        /* \"#utility.yul\":15211:15218   */\n      dup6\n        /* \"#utility.yul\":15207:15230   */\n      sub\n        /* \"#utility.yul\":15203:15235   */\n      slt\n        /* \"#utility.yul\":15200:15319   */\n      iszero\n      tag_516\n      jumpi\n        /* \"#utility.yul\":15238:15317   */\n      tag_517\n      tag_267\n      jump\t// in\n    tag_517:\n        /* \"#utility.yul\":15200:15319   */\n    tag_516:\n        /* \"#utility.yul\":15358:15359   */\n      0x00\n        /* \"#utility.yul\":15383:15435   */\n      tag_518\n        /* \"#utility.yul\":15427:15434   */\n      dup6\n        /* \"#utility.yul\":15418:15424   */\n      dup3\n        /* \"#utility.yul\":15407:15416   */\n      dup7\n        /* \"#utility.yul\":15403:15425   */\n      add\n        /* \"#utility.yul\":15383:15435   */\n      tag_294\n      jump\t// in\n    tag_518:\n        /* \"#utility.yul\":15373:15435   */\n      swap3\n      pop\n        /* \"#utility.yul\":15329:15445   */\n      pop\n        /* \"#utility.yul\":15484:15486   */\n      0x20\n        /* \"#utility.yul\":15510:15562   */\n      tag_519\n        /* \"#utility.yul\":15554:15561   */\n      dup6\n        /* \"#utility.yul\":15545:15551   */\n      dup3\n        /* \"#utility.yul\":15534:15543   */\n      dup7\n        /* \"#utility.yul\":15530:15552   */\n      add\n        /* \"#utility.yul\":15510:15562   */\n      tag_294\n      jump\t// in\n    tag_519:\n        /* \"#utility.yul\":15500:15562   */\n      swap2\n      pop\n        /* \"#utility.yul\":15455:15572   */\n      pop\n        /* \"#utility.yul\":15109:15579   */\n      swap3\n      pop\n      swap3\n      swap1\n      pop\n      jump\t// out\n        /* \"#utility.yul\":15585:16439   */\n    tag_133:\n        /* \"#utility.yul\":15832:15836   */\n      0x00\n        /* \"#utility.yul\":15870:15873   */\n      0xc0\n        /* \"#utility.yul\":15859:15868   */\n      dup3\n        /* \"#utility.yul\":15855:15874   */\n      add\n        /* \"#utility.yul\":15847:15874   */\n      swap1\n      pop\n        /* \"#utility.yul\":15920:15929   */\n      dup2\n        /* \"#utility.yul\":15914:15918   */\n      dup2\n        /* \"#utility.yul\":15910:15930   */\n      sub\n        /* \"#utility.yul\":15906:15907   */\n      0x00\n        /* \"#utility.yul\":15895:15904   */\n      dup4\n        /* \"#utility.yul\":15891:15908   */\n      add\n        /* \"#utility.yul\":15884:15931   */\n      mstore\n        /* \"#utility.yul\":15948:16024   */\n      tag_521\n        /* \"#utility.yul\":16019:16023   */\n      dup2\n        /* \"#utility.yul\":16010:16016   */\n      dup10\n        /* \"#utility.yul\":15948:16024   */\n      tag_311\n      jump\t// in\n    tag_521:\n        /* \"#utility.yul\":15940:16024   */\n      swap1\n      pop\n        /* \"#utility.yul\":16034:16106   */\n      tag_522\n        /* \"#utility.yul\":16102:16104   */\n      0x20\n        /* \"#utility.yul\":16091:16100   */\n      dup4\n        /* \"#utility.yul\":16087:16105   */\n      add\n        /* \"#utility.yul\":16078:16084   */\n      dup9\n        /* \"#utility.yul\":16034:16106   */\n      tag_299\n      jump\t// in\n    tag_522:\n        /* \"#utility.yul\":16116:16188   */\n      tag_523\n        /* \"#utility.yul\":16184:16186   */\n      0x40\n        /* \"#utility.yul\":16173:16182   */\n      dup4\n        /* \"#utility.yul\":16169:16187   */\n      add\n        /* \"#utility.yul\":16160:16166   */\n      dup8\n        /* \"#utility.yul\":16116:16188   */\n      tag_280\n      jump\t// in\n    tag_523:\n        /* \"#utility.yul\":16198:16270   */\n      tag_524\n        /* \"#utility.yul\":16266:16268   */\n      0x60\n        /* \"#utility.yul\":16255:16264   */\n      dup4\n        /* \"#utility.yul\":16251:16269   */\n      add\n        /* \"#utility.yul\":16242:16248   */\n      dup7\n        /* \"#utility.yul\":16198:16270   */\n      tag_299\n      jump\t// in\n    tag_524:\n        /* \"#utility.yul\":16280:16351   */\n      tag_525\n        /* \"#utility.yul\":16346:16349   */\n      0x80\n        /* \"#utility.yul\":16335:16344   */\n      dup4\n        /* \"#utility.yul\":16331:16350   */\n      add\n        /* \"#utility.yul\":16322:16328   */\n      dup6\n        /* \"#utility.yul\":16280:16351   */\n      tag_286\n      jump\t// in\n    tag_525:\n        /* \"#utility.yul\":16361:16432   */\n      tag_526\n        /* \"#utility.yul\":16427:16430   */\n      0xa0\n        /* \"#utility.yul\":16416:16425   */\n      dup4\n        /* \"#utility.yul\":16412:16431   */\n      add\n        /* \"#utility.yul\":16403:16409   */\n      dup5\n        /* \"#utility.yul\":16361:16432   */\n      tag_286\n      jump\t// in\n    tag_526:\n        /* \"#utility.yul\":15585:16439   */\n      swap8\n      swap7\n      pop\n      pop\n      pop\n      pop\n      pop\n      pop\n      pop\n      jump\t// out\n        /* \"#utility.yul\":16445:16699   */\n    tag_149:\n        /* \"#utility.yul\":16554:16558   */\n      0x00\n        /* \"#utility.yul\":16592:16594   */\n      0x20\n        /* \"#utility.yul\":16581:16590   */\n      dup3\n        /* \"#utility.yul\":16577:16595   */\n      add\n        /* \"#utility.yul\":16569:16595   */\n      swap1\n      pop\n        /* \"#utility.yul\":16605:16692   */\n      tag_528\n        /* \"#utility.yul\":16689:16690   */\n      0x00\n        /* \"#utility.yul\":16678:16687   */\n      dup4\n        /* \"#utility.yul\":16674:16691   */\n      add\n        /* \"#utility.yul\":16665:16671   */\n      dup5\n        /* \"#utility.yul\":16605:16692   */\n      tag_313\n      jump\t// in\n    tag_528:\n        /* \"#utility.yul\":16445:16699   */\n      swap3\n      swap2\n      pop\n      pop\n      jump\t// out\n        /* \"#utility.yul\":16705:16848   */\n    tag_316:\n        /* \"#utility.yul\":16762:16767   */\n      0x00\n        /* \"#utility.yul\":16793:16799   */\n      dup2\n        /* \"#utility.yul\":16787:16800   */\n      mload\n        /* \"#utility.yul\":16778:16800   */\n      swap1\n      pop\n        /* \"#utility.yul\":16809:16842   */\n      tag_530\n        /* \"#utility.yul\":16836:16841   */\n      dup2\n        /* \"#utility.yul\":16809:16842   */\n      tag_277\n      jump\t// in\n    tag_530:\n        /* \"#utility.yul\":16705:16848   */\n      swap3\n      swap2\n      pop\n      pop\n      jump\t// out\n        /* \"#utility.yul\":16854:17205   */\n    tag_158:\n        /* \"#utility.yul\":16924:16930   */\n      0x00\n        /* \"#utility.yul\":16973:16975   */\n      0x20\n        /* \"#utility.yul\":16961:16970   */\n      dup3\n        /* \"#utility.yul\":16952:16959   */\n      dup5\n        /* \"#utility.yul\":16948:16971   */\n      sub\n        /* \"#utility.yul\":16944:16976   */\n      slt\n        /* \"#utility.yul\":16941:17060   */\n      iszero\n      tag_532\n      jumpi\n        /* \"#utility.yul\":16979:17058   */\n      tag_533\n      tag_267\n      jump\t// in\n    tag_533:\n        /* \"#utility.yul\":16941:17060   */\n    tag_532:\n        /* \"#utility.yul\":17099:17100   */\n      0x00\n        /* \"#utility.yul\":17124:17188   */\n      tag_534\n        /* \"#utility.yul\":17180:17187   */\n      dup5\n        /* \"#utility.yul\":17171:17177   */\n      dup3\n        /* \"#utility.yul\":17160:17169   */\n      dup6\n        /* \"#utility.yul\":17156:17178   */\n      add\n        /* \"#utility.yul\":17124:17188   */\n      tag_316\n      jump\t// in\n    tag_534:\n        /* \"#utility.yul\":17114:17188   */\n      swap2\n      pop\n        /* \"#utility.yul\":17070:17198   */\n      pop\n        /* \"#utility.yul\":16854:17205   */\n      swap3\n      swap2\n      pop\n      pop\n      jump\t// out\n        /* \"#utility.yul\":17211:17380   */\n    tag_317:\n        /* \"#utility.yul\":17295:17306   */\n      0x00\n        /* \"#utility.yul\":17329:17335   */\n      dup3\n        /* \"#utility.yul\":17324:17327   */\n      dup3\n        /* \"#utility.yul\":17317:17336   */\n      mstore\n        /* \"#utility.yul\":17369:17373   */\n      0x20\n        /* \"#utility.yul\":17364:17367   */\n      dup3\n        /* \"#utility.yul\":17360:17374   */\n      add\n        /* \"#utility.yul\":17345:17374   */\n      swap1\n      pop\n        /* \"#utility.yul\":17211:17380   */\n      swap3\n      swap2\n      pop\n      pop\n      jump\t// out\n        /* \"#utility.yul\":17386:17611   */\n    tag_318:\n        /* \"#utility.yul\":17526:17560   */\n      0x4f776e61626c653a206e6577206f776e657220697320746865207a65726f2061\n        /* \"#utility.yul\":17522:17523   */\n      0x00\n        /* \"#utility.yul\":17514:17520   */\n      dup3\n        /* \"#utility.yul\":17510:17524   */\n      add\n        /* \"#utility.yul\":17503:17561   */\n      mstore\n        /* \"#utility.yul\":17595:17603   */\n      0x6464726573730000000000000000000000000000000000000000000000000000\n        /* \"#utility.yul\":17590:17592   */\n      0x20\n        /* \"#utility.yul\":17582:17588   */\n      dup3\n        /* \"#utility.yul\":17578:17593   */\n      add\n        /* \"#utility.yul\":17571:17604   */\n      mstore\n        /* \"#utility.yul\":17386:17611   */\n      pop\n      jump\t// out\n        /* \"#utility.yul\":17617:17983   */\n    tag_319:\n        /* \"#utility.yul\":17759:17762   */\n      0x00\n        /* \"#utility.yul\":17780:17847   */\n      tag_538\n        /* \"#utility.yul\":17844:17846   */\n      0x26\n        /* \"#utility.yul\":17839:17842   */\n      dup4\n        /* \"#utility.yul\":17780:17847   */\n      tag_317\n      jump\t// in\n    tag_538:\n        /* \"#utility.yul\":17773:17847   */\n      swap2\n      pop\n        /* \"#utility.yul\":17856:17949   */\n      tag_539\n        /* \"#utility.yul\":17945:17948   */\n      dup3\n        /* \"#utility.yul\":17856:17949   */\n      tag_318\n      jump\t// in\n    tag_539:\n        /* \"#utility.yul\":17974:17976   */\n      0x40\n        /* \"#utility.yul\":17969:17972   */\n      dup3\n        /* \"#utility.yul\":17965:17977   */\n      add\n        /* \"#utility.yul\":17958:17977   */\n      swap1\n      pop\n        /* \"#utility.yul\":17617:17983   */\n      swap2\n      swap1\n      pop\n      jump\t// out\n        /* \"#utility.yul\":17989:18408   */\n    tag_169:\n        /* \"#utility.yul\":18155:18159   */\n      0x00\n        /* \"#utility.yul\":18193:18195   */\n      0x20\n        /* \"#utility.yul\":18182:18191   */\n      dup3\n        /* \"#utility.yul\":18178:18196   */\n      add\n        /* \"#utility.yul\":18170:18196   */\n      swap1\n      pop\n        /* \"#utility.yul\":18242:18251   */\n      dup2\n        /* \"#utility.yul\":18236:18240   */\n      dup2\n        /* \"#utility.yul\":18232:18252   */\n      sub\n        /* \"#utility.yul\":18228:18229   */\n      0x00\n        /* \"#utility.yul\":18217:18226   */\n      dup4\n        /* \"#utility.yul\":18213:18230   */\n      add\n        /* \"#utility.yul\":18206:18253   */\n      mstore\n        /* \"#utility.yul\":18270:18401   */\n      tag_541\n        /* \"#utility.yul\":18396:18400   */\n      dup2\n        /* \"#utility.yul\":18270:18401   */\n      tag_319\n      jump\t// in\n    tag_541:\n        /* \"#utility.yul\":18262:18401   */\n      swap1\n      pop\n        /* \"#utility.yul\":17989:18408   */\n      swap2\n      swap1\n      pop\n      jump\t// out\n        /* \"#utility.yul\":18414:18596   */\n    tag_320:\n        /* \"#utility.yul\":18554:18588   */\n      0x4f776e61626c653a2063616c6c6572206973206e6f7420746865206f776e6572\n        /* \"#utility.yul\":18550:18551   */\n      0x00\n        /* \"#utility.yul\":18542:18548   */\n      dup3\n        /* \"#utility.yul\":18538:18552   */\n      add\n        /* \"#utility.yul\":18531:18589   */\n      mstore\n        /* \"#utility.yul\":18414:18596   */\n      pop\n      jump\t// out\n        /* \"#utility.yul\":18602:18968   */\n    tag_321:\n        /* \"#utility.yul\":18744:18747   */\n      0x00\n        /* \"#utility.yul\":18765:18832   */\n      tag_544\n        /* \"#utility.yul\":18829:18831   */\n      0x20\n        /* \"#utility.yul\":18824:18827   */\n      dup4\n        /* \"#utility.yul\":18765:18832   */\n      tag_317\n      jump\t// in\n    tag_544:\n        /* \"#utility.yul\":18758:18832   */\n      swap2\n      pop\n        /* \"#utility.yul\":18841:18934   */\n      tag_545\n        /* \"#utility.yul\":18930:18933   */\n      dup3\n        /* \"#utility.yul\":18841:18934   */\n      tag_320\n      jump\t// in\n    tag_545:\n        /* \"#utility.yul\":18959:18961   */\n      0x20\n        /* \"#utility.yul\":18954:18957   */\n      dup3\n        /* \"#utility.yul\":18950:18962   */\n      add\n        /* \"#utility.yul\":18943:18962   */\n      swap1\n      pop\n        /* \"#utility.yul\":18602:18968   */\n      swap2\n      swap1\n      pop\n      jump\t// out\n        /* \"#utility.yul\":18974:19393   */\n    tag_181:\n        /* \"#utility.yul\":19140:19144   */\n      0x00\n        /* \"#utility.yul\":19178:19180   */\n      0x20\n        /* \"#utility.yul\":19167:19176   */\n      dup3\n        /* \"#utility.yul\":19163:19181   */\n      add\n        /* \"#utility.yul\":19155:19181   */\n      swap1\n      pop\n        /* \"#utility.yul\":19227:19236   */\n      dup2\n        /* \"#utility.yul\":19221:19225   */\n      dup2\n        /* \"#utility.yul\":19217:19237   */\n      sub\n        /* \"#utility.yul\":19213:19214   */\n      0x00\n        /* \"#utility.yul\":19202:19211   */\n      dup4\n        /* \"#utility.yul\":19198:19215   */\n      add\n        /* \"#utility.yul\":19191:19238   */\n      mstore\n        /* \"#utility.yul\":19255:19386   */\n      tag_547\n        /* \"#utility.yul\":19381:19385   */\n      dup2\n        /* \"#utility.yul\":19255:19386   */\n      tag_321\n      jump\t// in\n    tag_547:\n        /* \"#utility.yul\":19247:19386   */\n      swap1\n      pop\n        /* \"#utility.yul\":18974:19393   */\n      swap2\n      swap1\n      pop\n      jump\t// out\n        /* \"#utility.yul\":19399:19516   */\n    tag_322:\n        /* \"#utility.yul\":19508:19509   */\n      0x00\n        /* \"#utility.yul\":19505:19506   */\n      dup1\n        /* \"#utility.yul\":19498:19510   */\n      revert\n        /* \"#utility.yul\":19522:19639   */\n    tag_323:\n        /* \"#utility.yul\":19631:19632   */\n      0x00\n        /* \"#utility.yul\":19628:19629   */\n      dup1\n        /* \"#utility.yul\":19621:19633   */\n      revert\n        /* \"#utility.yul\":19645:19762   */\n    tag_324:\n        /* \"#utility.yul\":19754:19755   */\n      0x00\n        /* \"#utility.yul\":19751:19752   */\n      dup1\n        /* \"#utility.yul\":19744:19756   */\n      revert\n        /* \"#utility.yul\":19768:20492   */\n    tag_185:\n        /* \"#utility.yul\":19845:19849   */\n      0x00\n        /* \"#utility.yul\":19851:19857   */\n      dup1\n        /* \"#utility.yul\":19907:19918   */\n      dup4\n        /* \"#utility.yul\":19894:19919   */\n      calldataload\n        /* \"#utility.yul\":20007:20008   */\n      0x01\n        /* \"#utility.yul\":20001:20005   */\n      0x20\n        /* \"#utility.yul\":19997:20009   */\n      sub\n        /* \"#utility.yul\":19986:19994   */\n      dup5\n        /* \"#utility.yul\":19970:19984   */\n      calldatasize\n        /* \"#utility.yul\":19966:19995   */\n      sub\n        /* \"#utility.yul\":19962:20010   */\n      sub\n        /* \"#utility.yul\":19942:19960   */\n      dup2\n        /* \"#utility.yul\":19938:20011   */\n      slt\n        /* \"#utility.yul\":19928:20096   */\n      tag_552\n      jumpi\n        /* \"#utility.yul\":20015:20094   */\n      tag_553\n      tag_322\n      jump\t// in\n    tag_553:\n        /* \"#utility.yul\":19928:20096   */\n    tag_552:\n        /* \"#utility.yul\":20127:20145   */\n      dup1\n        /* \"#utility.yul\":20117:20125   */\n      dup5\n        /* \"#utility.yul\":20113:20146   */\n      add\n        /* \"#utility.yul\":20105:20146   */\n      swap3\n      pop\n        /* \"#utility.yul\":20179:20183   */\n      dup3\n        /* \"#utility.yul\":20166:20184   */\n      calldataload\n        /* \"#utility.yul\":20156:20184   */\n      swap2\n      pop\n        /* \"#utility.yul\":20207:20225   */\n      0xffffffffffffffff\n        /* \"#utility.yul\":20199:20205   */\n      dup3\n        /* \"#utility.yul\":20196:20226   */\n      gt\n        /* \"#utility.yul\":20193:20310   */\n      iszero\n      tag_554\n      jumpi\n        /* \"#utility.yul\":20229:20308   */\n      tag_555\n      tag_323\n      jump\t// in\n    tag_555:\n        /* \"#utility.yul\":20193:20310   */\n    tag_554:\n        /* \"#utility.yul\":20337:20339   */\n      0x20\n        /* \"#utility.yul\":20331:20335   */\n      dup4\n        /* \"#utility.yul\":20327:20340   */\n      add\n        /* \"#utility.yul\":20319:20340   */\n      swap3\n      pop\n        /* \"#utility.yul\":20394:20398   */\n      0x01\n        /* \"#utility.yul\":20386:20392   */\n      dup3\n        /* \"#utility.yul\":20382:20399   */\n      mul\n        /* \"#utility.yul\":20366:20380   */\n      calldatasize\n        /* \"#utility.yul\":20362:20400   */\n      sub\n        /* \"#utility.yul\":20356:20360   */\n      dup4\n        /* \"#utility.yul\":20352:20401   */\n      sgt\n        /* \"#utility.yul\":20349:20485   */\n      iszero\n      tag_556\n      jumpi\n        /* \"#utility.yul\":20404:20483   */\n      tag_557\n      tag_324\n      jump\t// in\n    tag_557:\n        /* \"#utility.yul\":20349:20485   */\n    tag_556:\n        /* \"#utility.yul\":19858:20492   */\n      pop\n        /* \"#utility.yul\":19768:20492   */\n      swap3\n      pop\n      swap3\n      swap1\n      pop\n      jump\t// out\n        /* \"#utility.yul\":20498:20669   */\n    tag_325:\n        /* \"#utility.yul\":20638:20661   */\n      0x53656e646572206e6f7420456e747279506f696e740000000000000000000000\n        /* \"#utility.yul\":20634:20635   */\n      0x00\n        /* \"#utility.yul\":20626:20632   */\n      dup3\n        /* \"#utility.yul\":20622:20636   */\n      add\n        /* \"#utility.yul\":20615:20662   */\n      mstore\n        /* \"#utility.yul\":20498:20669   */\n      pop\n      jump\t// out\n        /* \"#utility.yul\":20675:21041   */\n    tag_326:\n        /* \"#utility.yul\":20817:20820   */\n      0x00\n        /* \"#utility.yul\":20838:20905   */\n      tag_560\n        /* \"#utility.yul\":20902:20904   */\n      0x15\n        /* \"#utility.yul\":20897:20900   */\n      dup4\n        /* \"#utility.yul\":20838:20905   */\n      tag_317\n      jump\t// in\n    tag_560:\n        /* \"#utility.yul\":20831:20905   */\n      swap2\n      pop\n        /* \"#utility.yul\":20914:21007   */\n      tag_561\n        /* \"#utility.yul\":21003:21006   */\n      dup3\n        /* \"#utility.yul\":20914:21007   */\n      tag_325\n      jump\t// in\n    tag_561:\n        /* \"#utility.yul\":21032:21034   */\n      0x20\n        /* \"#utility.yul\":21027:21030   */\n      dup3\n        /* \"#utility.yul\":21023:21035   */\n      add\n        /* \"#utility.yul\":21016:21035   */\n      swap1\n      pop\n        /* \"#utility.yul\":20675:21041   */\n      swap2\n      swap1\n      pop\n      jump\t// out\n        /* \"#utility.yul\":21047:21466   */\n    tag_190:\n        /* \"#utility.yul\":21213:21217   */\n      0x00\n        /* \"#utility.yul\":21251:21253   */\n      0x20\n        /* \"#utility.yul\":21240:21249   */\n      dup3\n        /* \"#utility.yul\":21236:21254   */\n      add\n        /* \"#utility.yul\":21228:21254   */\n      swap1\n      pop\n        /* \"#utility.yul\":21300:21309   */\n      dup2\n        /* \"#utility.yul\":21294:21298   */\n      dup2\n        /* \"#utility.yul\":21290:21310   */\n      sub\n        /* \"#utility.yul\":21286:21287   */\n      0x00\n        /* \"#utility.yul\":21275:21284   */\n      dup4\n        /* \"#utility.yul\":21271:21288   */\n      add\n        /* \"#utility.yul\":21264:21311   */\n      mstore\n        /* \"#utility.yul\":21328:21459   */\n      tag_563\n        /* \"#utility.yul\":21454:21458   */\n      dup2\n        /* \"#utility.yul\":21328:21459   */\n      tag_326\n      jump\t// in\n    tag_563:\n        /* \"#utility.yul\":21320:21459   */\n      swap1\n      pop\n        /* \"#utility.yul\":21047:21466   */\n      swap2\n      swap1\n      pop\n      jump\t// out\n        /* \"#utility.yul\":21472:21635   */\n    tag_327:\n        /* \"#utility.yul\":21612:21627   */\n      0x6d757374206f7665727269646500000000000000000000000000000000000000\n        /* \"#utility.yul\":21608:21609   */\n      0x00\n        /* \"#utility.yul\":21600:21606   */\n      dup3\n        /* \"#utility.yul\":21596:21610   */\n      add\n        /* \"#utility.yul\":21589:21628   */\n      mstore\n        /* \"#utility.yul\":21472:21635   */\n      pop\n      jump\t// out\n        /* \"#utility.yul\":21641:22007   */\n    tag_328:\n        /* \"#utility.yul\":21783:21786   */\n      0x00\n        /* \"#utility.yul\":21804:21871   */\n      tag_566\n        /* \"#utility.yul\":21868:21870   */\n      0x0d\n        /* \"#utility.yul\":21863:21866   */\n      dup4\n        /* \"#utility.yul\":21804:21871   */\n      tag_317\n      jump\t// in\n    tag_566:\n        /* \"#utility.yul\":21797:21871   */\n      swap2\n      pop\n        /* \"#utility.yul\":21880:21973   */\n      tag_567\n        /* \"#utility.yul\":21969:21972   */\n      dup3\n        /* \"#utility.yul\":21880:21973   */\n      tag_327\n      jump\t// in\n    tag_567:\n        /* \"#utility.yul\":21998:22000   */\n      0x20\n        /* \"#utility.yul\":21993:21996   */\n      dup3\n        /* \"#utility.yul\":21989:22001   */\n      add\n        /* \"#utility.yul\":21982:22001   */\n      swap1\n      pop\n        /* \"#utility.yul\":21641:22007   */\n      swap2\n      swap1\n      pop\n      jump\t// out\n        /* \"#utility.yul\":22013:22432   */\n    tag_193:\n        /* \"#utility.yul\":22179:22183   */\n      0x00\n        /* \"#utility.yul\":22217:22219   */\n      0x20\n        /* \"#utility.yul\":22206:22215   */\n      dup3\n        /* \"#utility.yul\":22202:22220   */\n      add\n        /* \"#utility.yul\":22194:22220   */\n      swap1\n      pop\n        /* \"#utility.yul\":22266:22275   */\n      dup2\n        /* \"#utility.yul\":22260:22264   */\n      dup2\n        /* \"#utility.yul\":22256:22276   */\n      sub\n        /* \"#utility.yul\":22252:22253   */\n      0x00\n        /* \"#utility.yul\":22241:22250   */\n      dup4\n        /* \"#utility.yul\":22237:22254   */\n      add\n        /* \"#utility.yul\":22230:22277   */\n      mstore\n        /* \"#utility.yul\":22294:22425   */\n      tag_569\n        /* \"#utility.yul\":22420:22424   */\n      dup2\n        /* \"#utility.yul\":22294:22425   */\n      tag_328\n      jump\t// in\n    tag_569:\n        /* \"#utility.yul\":22286:22425   */\n      swap1\n      pop\n        /* \"#utility.yul\":22013:22432   */\n      swap2\n      swap1\n      pop\n      jump\t// out\n        /* \"#utility.yul\":22438:22689   */\n    tag_329:\n        /* \"#utility.yul\":22578:22612   */\n      0x566572696679696e675061796d61737465723a20696e76616c6964207369676e\n        /* \"#utility.yul\":22574:22575   */\n      0x00\n        /* \"#utility.yul\":22566:22572   */\n      dup3\n        /* \"#utility.yul\":22562:22576   */\n      add\n        /* \"#utility.yul\":22555:22613   */\n      mstore\n        /* \"#utility.yul\":22647:22681   */\n      0x6174757265206c656e67746820696e207061796d6173746572416e6444617461\n        /* \"#utility.yul\":22642:22644   */\n      0x20\n        /* \"#utility.yul\":22634:22640   */\n      dup3\n        /* \"#utility.yul\":22630:22645   */\n      add\n        /* \"#utility.yul\":22623:22682   */\n      mstore\n        /* \"#utility.yul\":22438:22689   */\n      pop\n      jump\t// out\n        /* \"#utility.yul\":22695:23061   */\n    tag_330:\n        /* \"#utility.yul\":22837:22840   */\n      0x00\n        /* \"#utility.yul\":22858:22925   */\n      tag_572\n        /* \"#utility.yul\":22922:22924   */\n      0x40\n        /* \"#utility.yul\":22917:22920   */\n      dup4\n        /* \"#utility.yul\":22858:22925   */\n      tag_317\n      jump\t// in\n    tag_572:\n        /* \"#utility.yul\":22851:22925   */\n      swap2\n      pop\n        /* \"#utility.yul\":22934:23027   */\n      tag_573\n        /* \"#utility.yul\":23023:23026   */\n      dup3\n        /* \"#utility.yul\":22934:23027   */\n      tag_329\n      jump\t// in\n    tag_573:\n        /* \"#utility.yul\":23052:23054   */\n      0x40\n        /* \"#utility.yul\":23047:23050   */\n      dup3\n        /* \"#utility.yul\":23043:23055   */\n      add\n        /* \"#utility.yul\":23036:23055   */\n      swap1\n      pop\n        /* \"#utility.yul\":22695:23061   */\n      swap2\n      swap1\n      pop\n      jump\t// out\n        /* \"#utility.yul\":23067:23486   */\n    tag_200:\n        /* \"#utility.yul\":23233:23237   */\n      0x00\n        /* \"#utility.yul\":23271:23273   */\n      0x20\n        /* \"#utility.yul\":23260:23269   */\n      dup3\n        /* \"#utility.yul\":23256:23274   */\n      add\n        /* \"#utility.yul\":23248:23274   */\n      swap1\n      pop\n        /* \"#utility.yul\":23320:23329   */\n      dup2\n        /* \"#utility.yul\":23314:23318   */\n      dup2\n        /* \"#utility.yul\":23310:23330   */\n      sub\n        /* \"#utility.yul\":23306:23307   */\n      0x00\n        /* \"#utility.yul\":23295:23304   */\n      dup4\n        /* \"#utility.yul\":23291:23308   */\n      add\n        /* \"#utility.yul\":23284:23331   */\n      mstore\n        /* \"#utility.yul\":23348:23479   */\n      tag_575\n        /* \"#utility.yul\":23474:23478   */\n      dup2\n        /* \"#utility.yul\":23348:23479   */\n      tag_330\n      jump\t// in\n    tag_575:\n        /* \"#utility.yul\":23340:23479   */\n      swap1\n      pop\n        /* \"#utility.yul\":23067:23486   */\n      swap2\n      swap1\n      pop\n      jump\t// out\n        /* \"#utility.yul\":23492:23672   */\n    tag_331:\n        /* \"#utility.yul\":23540:23617   */\n      0x4e487b7100000000000000000000000000000000000000000000000000000000\n        /* \"#utility.yul\":23537:23538   */\n      0x00\n        /* \"#utility.yul\":23530:23618   */\n      mstore\n        /* \"#utility.yul\":23637:23641   */\n      0x11\n        /* \"#utility.yul\":23634:23635   */\n      0x04\n        /* \"#utility.yul\":23627:23642   */\n      mstore\n        /* \"#utility.yul\":23661:23665   */\n      0x24\n        /* \"#utility.yul\":23658:23659   */\n      0x00\n        /* \"#utility.yul\":23651:23666   */\n      revert\n        /* \"#utility.yul\":23678:23911   */\n    tag_206:\n        /* \"#utility.yul\":23717:23720   */\n      0x00\n        /* \"#utility.yul\":23740:23764   */\n      tag_578\n        /* \"#utility.yul\":23758:23763   */\n      dup3\n        /* \"#utility.yul\":23740:23764   */\n      tag_276\n      jump\t// in\n    tag_578:\n        /* \"#utility.yul\":23731:23764   */\n      swap2\n      pop\n        /* \"#utility.yul\":23786:23852   */\n      0xffffffffffffffffffffffffffffffffffffffffffffffffffffffffffffffff\n        /* \"#utility.yul\":23779:23784   */\n      dup3\n        /* \"#utility.yul\":23776:23853   */\n      sub\n        /* \"#utility.yul\":23773:23876   */\n      tag_579\n      jumpi\n        /* \"#utility.yul\":23856:23874   */\n      tag_580\n      tag_331\n      jump\t// in\n    tag_580:\n        /* \"#utility.yul\":23773:23876   */\n    tag_579:\n        /* \"#utility.yul\":23903:23904   */\n      0x01\n        /* \"#utility.yul\":23896:23901   */\n      dup3\n        /* \"#utility.yul\":23892:23905   */\n      add\n        /* \"#utility.yul\":23885:23905   */\n      swap1\n      pop\n        /* \"#utility.yul\":23678:23911   */\n      swap2\n      swap1\n      pop\n      jump\t// out\n        /* \"#utility.yul\":23917:24097   */\n    tag_231:\n        /* \"#utility.yul\":23965:24042   */\n      0x4e487b7100000000000000000000000000000000000000000000000000000000\n        /* \"#utility.yul\":23962:23963   */\n      0x00\n        /* \"#utility.yul\":23955:24043   */\n      mstore\n        /* \"#utility.yul\":24062:24066   */\n      0x21\n        /* \"#utility.yul\":24059:24060   */\n      0x04\n        /* \"#utility.yul\":24052:24067   */\n      mstore\n        /* \"#utility.yul\":24086:24090   */\n      0x24\n        /* \"#utility.yul\":24083:24084   */\n      0x00\n        /* \"#utility.yul\":24076:24091   */\n      revert\n        /* \"#utility.yul\":24103:24277   */\n    tag_332:\n        /* \"#utility.yul\":24243:24269   */\n      0x45434453413a20696e76616c6964207369676e61747572650000000000000000\n        /* \"#utility.yul\":24239:24240   */\n      0x00\n        /* \"#utility.yul\":24231:24237   */\n      dup3\n        /* \"#utility.yul\":24227:24241   */\n      add\n        /* \"#utility.yul\":24220:24270   */\n      mstore\n        /* \"#utility.yul\":24103:24277   */\n      pop\n      jump\t// out\n        /* \"#utility.yul\":24283:24649   */\n    tag_333:\n        /* \"#utility.yul\":24425:24428   */\n      0x00\n        /* \"#utility.yul\":24446:24513   */\n      tag_584\n        /* \"#utility.yul\":24510:24512   */\n      0x18\n        /* \"#utility.yul\":24505:24508   */\n      dup4\n        /* \"#utility.yul\":24446:24513   */\n      tag_317\n      jump\t// in\n    tag_584:\n        /* \"#utility.yul\":24439:24513   */\n      swap2\n      pop\n        /* \"#utility.yul\":24522:24615   */\n      tag_585\n        /* \"#utility.yul\":24611:24614   */\n      dup3\n        /* \"#utility.yul\":24522:24615   */\n      tag_332\n      jump\t// in\n    tag_585:\n        /* \"#utility.yul\":24640:24642   */\n      0x20\n        /* \"#utility.yul\":24635:24638   */\n      dup3\n        /* \"#utility.yul\":24631:24643   */\n      add\n        /* \"#utility.yul\":24624:24643   */\n      swap1\n      pop\n        /* \"#utility.yul\":24283:24649   */\n      swap2\n      swap1\n      pop\n      jump\t// out\n        /* \"#utility.yul\":24655:25074   */\n    tag_242:\n        /* \"#utility.yul\":24821:24825   */\n      0x00\n        /* \"#utility.yul\":24859:24861   */\n      0x20\n        /* \"#utility.yul\":24848:24857   */\n      dup3\n        /* \"#utility.yul\":24844:24862   */\n      add\n        /* \"#utility.yul\":24836:24862   */\n      swap1\n      pop\n        /* \"#utility.yul\":24908:24917   */\n      dup2\n        /* \"#utility.yul\":24902:24906   */\n      dup2\n        /* \"#utility.yul\":24898:24918   */\n      sub\n        /* \"#utility.yul\":24894:24895   */\n      0x00\n        /* \"#utility.yul\":24883:24892   */\n      dup4\n        /* \"#utility.yul\":24879:24896   */\n      add\n        /* \"#utility.yul\":24872:24919   */\n      mstore\n        /* \"#utility.yul\":24936:25067   */\n      tag_587\n        /* \"#utility.yul\":25062:25066   */\n      dup2\n        /* \"#utility.yul\":24936:25067   */\n      tag_333\n      jump\t// in\n    tag_587:\n        /* \"#utility.yul\":24928:25067   */\n      swap1\n      pop\n        /* \"#utility.yul\":24655:25074   */\n      swap2\n      swap1\n      pop\n      jump\t// out\n        /* \"#utility.yul\":25080:25261   */\n    tag_334:\n        /* \"#utility.yul\":25220:25253   */\n      0x45434453413a20696e76616c6964207369676e6174757265206c656e67746800\n        /* \"#utility.yul\":25216:25217   */\n      0x00\n        /* \"#utility.yul\":25208:25214   */\n      dup3\n        /* \"#utility.yul\":25204:25218   */\n      add\n        /* \"#utility.yul\":25197:25254   */\n      mstore\n        /* \"#utility.yul\":25080:25261   */\n      pop\n      jump\t// out\n        /* \"#utility.yul\":25267:25633   */\n    tag_335:\n        /* \"#utility.yul\":25409:25412   */\n      0x00\n        /* \"#utility.yul\":25430:25497   */\n      tag_590\n        /* \"#utility.yul\":25494:25496   */\n      0x1f\n        /* \"#utility.yul\":25489:25492   */\n      dup4\n        /* \"#utility.yul\":25430:25497   */\n      tag_317\n      jump\t// in\n    tag_590:\n        /* \"#utility.yul\":25423:25497   */\n      swap2\n      pop\n        /* \"#utility.yul\":25506:25599   */\n      tag_591\n        /* \"#utility.yul\":25595:25598   */\n      dup3\n        /* \"#utility.yul\":25506:25599   */\n      tag_334\n      jump\t// in\n    tag_591:\n        /* \"#utility.yul\":25624:25626   */\n      0x20\n        /* \"#utility.yul\":25619:25622   */\n      dup3\n        /* \"#utility.yul\":25615:25627   */\n      add\n        /* \"#utility.yul\":25608:25627   */\n      swap1\n      pop\n        /* \"#utility.yul\":25267:25633   */\n      swap2\n      swap1\n      pop\n      jump\t// out\n        /* \"#utility.yul\":25639:26058   */\n    tag_250:\n        /* \"#utility.yul\":25805:25809   */\n      0x00\n        /* \"#utility.yul\":25843:25845   */\n      0x20\n        /* \"#utility.yul\":25832:25841   */\n      dup3\n        /* \"#utility.yul\":25828:25846   */\n      add\n        /* \"#utility.yul\":25820:25846   */\n      swap1\n      pop\n        /* \"#utility.yul\":25892:25901   */\n      dup2\n        /* \"#utility.yul\":25886:25890   */\n      dup2\n        /* \"#utility.yul\":25882:25902   */\n      sub\n        /* \"#utility.yul\":25878:25879   */\n      0x00\n        /* \"#utility.yul\":25867:25876   */\n      dup4\n        /* \"#utility.yul\":25863:25880   */\n      add\n        /* \"#utility.yul\":25856:25903   */\n      mstore\n        /* \"#utility.yul\":25920:26051   */\n      tag_593\n        /* \"#utility.yul\":26046:26050   */\n      dup2\n        /* \"#utility.yul\":25920:26051   */\n      tag_335\n      jump\t// in\n    tag_593:\n        /* \"#utility.yul\":25912:26051   */\n      swap1\n      pop\n        /* \"#utility.yul\":25639:26058   */\n      swap2\n      swap1\n      pop\n      jump\t// out\n        /* \"#utility.yul\":26064:26285   */\n    tag_336:\n        /* \"#utility.yul\":26204:26238   */\n      0x45434453413a20696e76616c6964207369676e6174757265202773272076616c\n        /* \"#utility.yul\":26200:26201   */\n      0x00\n        /* \"#utility.yul\":26192:26198   */\n      dup3\n        /* \"#utility.yul\":26188:26202   */\n      add\n        /* \"#utility.yul\":26181:26239   */\n      mstore\n        /* \"#utility.yul\":26273:26277   */\n      0x7565000000000000000000000000000000000000000000000000000000000000\n        /* \"#utility.yul\":26268:26270   */\n      0x20\n        /* \"#utility.yul\":26260:26266   */\n      dup3\n        /* \"#utility.yul\":26256:26271   */\n      add\n        /* \"#utility.yul\":26249:26278   */\n      mstore\n        /* \"#utility.yul\":26064:26285   */\n      pop\n      jump\t// out\n        /* \"#utility.yul\":26291:26657   */\n    tag_337:\n        /* \"#utility.yul\":26433:26436   */\n      0x00\n        /* \"#utility.yul\":26454:26521   */\n      tag_596\n        /* \"#utility.yul\":26518:26520   */\n      0x22\n        /* \"#utility.yul\":26513:26516   */\n      dup4\n        /* \"#utility.yul\":26454:26521   */\n      tag_317\n      jump\t// in\n    tag_596:\n        /* \"#utility.yul\":26447:26521   */\n      swap2\n      pop\n        /* \"#utility.yul\":26530:26623   */\n      tag_597\n        /* \"#utility.yul\":26619:26622   */\n      dup3\n        /* \"#utility.yul\":26530:26623   */\n      tag_336\n      jump\t// in\n    tag_597:\n        /* \"#utility.yul\":26648:26650   */\n      0x40\n        /* \"#utility.yul\":26643:26646   */\n      dup3\n        /* \"#utility.yul\":26639:26651   */\n      add\n        /* \"#utility.yul\":26632:26651   */\n      swap1\n      pop\n        /* \"#utility.yul\":26291:26657   */\n      swap2\n      swap1\n      pop\n      jump\t// out\n        /* \"#utility.yul\":26663:27082   */\n    tag_258:\n        /* \"#utility.yul\":26829:26833   */\n      0x00\n        /* \"#utility.yul\":26867:26869   */\n      0x20\n        /* \"#utility.yul\":26856:26865   */\n      dup3\n        /* \"#utility.yul\":26852:26870   */\n      add\n        /* \"#utility.yul\":26844:26870   */\n      swap1\n      pop\n        /* \"#utility.yul\":26916:26925   */\n      dup2\n        /* \"#utility.yul\":26910:26914   */\n      dup2\n        /* \"#utility.yul\":26906:26926   */\n      sub\n        /* \"#utility.yul\":26902:26903   */\n      0x00\n        /* \"#utility.yul\":26891:26900   */\n      dup4\n        /* \"#utility.yul\":26887:26904   */\n      add\n        /* \"#utility.yul\":26880:26927   */\n      mstore\n        /* \"#utility.yul\":26944:27075   */\n      tag_599\n        /* \"#utility.yul\":27070:27074   */\n      dup2\n        /* \"#utility.yul\":26944:27075   */\n      tag_337\n      jump\t// in\n    tag_599:\n        /* \"#utility.yul\":26936:27075   */\n      swap1\n      pop\n        /* \"#utility.yul\":26663:27082   */\n      swap2\n      swap1\n      pop\n      jump\t// out\n        /* \"#utility.yul\":27088:27174   */\n    tag_338:\n        /* \"#utility.yul\":27123:27130   */\n      0x00\n        /* \"#utility.yul\":27163:27167   */\n      0xff\n        /* \"#utility.yul\":27156:27161   */\n      dup3\n        /* \"#utility.yul\":27152:27168   */\n      and\n        /* \"#utility.yul\":27141:27168   */\n      swap1\n      pop\n        /* \"#utility.yul\":27088:27174   */\n      swap2\n      swap1\n      pop\n      jump\t// out\n        /* \"#utility.yul\":27180:27292   */\n    tag_339:\n        /* \"#utility.yul\":27263:27285   */\n      tag_602\n        /* \"#utility.yul\":27279:27284   */\n      dup2\n        /* \"#utility.yul\":27263:27285   */\n      tag_338\n      jump\t// in\n    tag_602:\n        /* \"#utility.yul\":27258:27261   */\n      dup3\n        /* \"#utility.yul\":27251:27286   */\n      mstore\n        /* \"#utility.yul\":27180:27292   */\n      pop\n      pop\n      jump\t// out\n        /* \"#utility.yul\":27298:27843   */\n    tag_262:\n        /* \"#utility.yul\":27471:27475   */\n      0x00\n        /* \"#utility.yul\":27509:27512   */\n      0x80\n        /* \"#utility.yul\":27498:27507   */\n      dup3\n        /* \"#utility.yul\":27494:27513   */\n      add\n        /* \"#utility.yul\":27486:27513   */\n      swap1\n      pop\n        /* \"#utility.yul\":27523:27594   */\n      tag_604\n        /* \"#utility.yul\":27591:27592   */\n      0x00\n        /* \"#utility.yul\":27580:27589   */\n      dup4\n        /* \"#utility.yul\":27576:27593   */\n      add\n        /* \"#utility.yul\":27567:27573   */\n      dup8\n        /* \"#utility.yul\":27523:27594   */\n      tag_296\n      jump\t// in\n    tag_604:\n        /* \"#utility.yul\":27604:27672   */\n      tag_605\n        /* \"#utility.yul\":27668:27670   */\n      0x20\n        /* \"#utility.yul\":27657:27666   */\n      dup4\n        /* \"#utility.yul\":27653:27671   */\n      add\n        /* \"#utility.yul\":27644:27650   */\n      dup7\n        /* \"#utility.yul\":27604:27672   */\n      tag_339\n      jump\t// in\n    tag_605:\n        /* \"#utility.yul\":27682:27754   */\n      tag_606\n        /* \"#utility.yul\":27750:27752   */\n      0x40\n        /* \"#utility.yul\":27739:27748   */\n      dup4\n        /* \"#utility.yul\":27735:27753   */\n      add\n        /* \"#utility.yul\":27726:27732   */\n      dup6\n        /* \"#utility.yul\":27682:27754   */\n      tag_296\n      jump\t// in\n    tag_606:\n        /* \"#utility.yul\":27764:27836   */\n      tag_607\n        /* \"#utility.yul\":27832:27834   */\n      0x60\n        /* \"#utility.yul\":27821:27830   */\n      dup4\n        /* \"#utility.yul\":27817:27835   */\n      add\n        /* \"#utility.yul\":27808:27814   */\n      dup5\n        /* \"#utility.yul\":27764:27836   */\n      tag_296\n      jump\t// in\n    tag_607:\n        /* \"#utility.yul\":27298:27843   */\n      swap6\n      swap5\n      pop\n      pop\n      pop\n      pop\n      pop\n      jump\t// out\n\n    auxdata: 0xa2646970667358221220119ea8ec0d636f8697246c1dfd6f969f6623f1c34e05158d6c4fd6ef0d4063ab64736f6c63430008120033\n}\n",
				"bytecode": {
					"linkReferences": {},
					"object": "60c06040523480156200001157600080fd5b50604051620021d7380380620021d7833981810160405281019062000037919062000244565b81620000586200004c620000c960201b60201c565b620000d160201b60201c565b8073ffffffffffffffffffffffffffffffffffffffff1660808173ffffffffffffffffffffffffffffffffffffffff1681525050508073ffffffffffffffffffffffffffffffffffffffff1660a08173ffffffffffffffffffffffffffffffffffffffff168152505050506200028b565b600033905090565b60008060009054906101000a900473ffffffffffffffffffffffffffffffffffffffff169050816000806101000a81548173ffffffffffffffffffffffffffffffffffffffff021916908373ffffffffffffffffffffffffffffffffffffffff1602179055508173ffffffffffffffffffffffffffffffffffffffff168173ffffffffffffffffffffffffffffffffffffffff167f8be0079c531659141344cd1fd0a4f28419497f9722a3daafe3b4186f6b6457e060405160405180910390a35050565b600080fd5b600073ffffffffffffffffffffffffffffffffffffffff82169050919050565b6000620001c7826200019a565b9050919050565b6000620001db82620001ba565b9050919050565b620001ed81620001ce565b8114620001f957600080fd5b50565b6000815190506200020d81620001e2565b92915050565b6200021e81620001ba565b81146200022a57600080fd5b50565b6000815190506200023e8162000213565b92915050565b600080604083850312156200025e576200025d62000195565b5b60006200026e85828601620001fc565b925050602062000281858286016200022d565b9150509250929050565b60805160a051611eee620002e9600039600081816104c60152610d0101526000818161039e01528181610435015281816106330152818161065f015281816106e901528181610779015281816108180152610ae00152611eee6000f3fe6080604052600436106100f35760003560e01c8063a9a234091161008a578063c399ec8811610059578063c399ec88146102f8578063d0e30db014610323578063f2fde38b1461032d578063f465c77e14610356576100f3565b8063a9a2340914610264578063b0d691fe1461028d578063bb9fe6bf146102b8578063c23a5cea146102cf576100f3565b80638da5cb5b116100c65780638da5cb5b1461017f57806394d4ad60146101aa57806394e1fc19146101ea5780639c90b44314610227576100f3565b80630396cb60146100f8578063205c28781461011457806323d9ac9b1461013d578063715018a614610168575b600080fd5b610112600480360381019061010d9190611112565b610394565b005b34801561012057600080fd5b5061013b600480360381019061013691906111d3565b61042b565b005b34801561014957600080fd5b506101526104c4565b60405161015f9190611234565b60405180910390f35b34801561017457600080fd5b5061017d6104e8565b005b34801561018b57600080fd5b506101946104fc565b6040516101a19190611234565b60405180910390f35b3480156101b657600080fd5b506101d160048036038101906101cc91906112b4565b610525565b6040516101e19493929190611380565b60405180910390f35b3480156101f657600080fd5b50610211600480360381019061020c9190611411565b610574565b60405161021e9190611499565b60405180910390f35b34801561023357600080fd5b5061024e600480360381019061024991906114e0565b6105ff565b60405161025b919061151c565b60405180910390f35b34801561027057600080fd5b5061028b6004803603810190610286919061155c565b610617565b005b34801561029957600080fd5b506102a2610631565b6040516102af919061162f565b60405180910390f35b3480156102c457600080fd5b506102cd610655565b005b3480156102db57600080fd5b506102f660048036038101906102f1919061164a565b6106df565b005b34801561030457600080fd5b5061030d610775565b60405161031a919061151c565b60405180910390f35b61032b610816565b005b34801561033957600080fd5b50610354600480360381019061034f91906114e0565b6108a4565b005b34801561036257600080fd5b5061037d600480360381019061037891906116a3565b610927565b60405161038b929190611780565b60405180910390f35b61039c61094a565b7f000000000000000000000000000000000000000000000000000000000000000073ffffffffffffffffffffffffffffffffffffffff16630396cb6034836040518363ffffffff1660e01b81526004016103f691906117bf565b6000604051808303818588803b15801561040f57600080fd5b505af1158015610423573d6000803e3d6000fd5b505050505050565b61043361094a565b7f000000000000000000000000000000000000000000000000000000000000000073ffffffffffffffffffffffffffffffffffffffff1663205c287883836040518363ffffffff1660e01b815260040161048e9291906117e9565b600060405180830381600087803b1580156104a857600080fd5b505af11580156104bc573d6000803e3d6000fd5b505050505050565b7f000000000000000000000000000000000000000000000000000000000000000081565b6104f061094a565b6104fa60006109c8565b565b60008060009054906101000a900473ffffffffffffffffffffffffffffffffffffffff16905090565b600080366000858560149060549261053f9392919061181c565b81019061054c9190611857565b8094508195505050858560549080926105679392919061181c565b9150915092959194509250565b600061057f84610a8c565b46306001600061058e89610ace565b73ffffffffffffffffffffffffffffffffffffffff1673ffffffffffffffffffffffffffffffffffffffff1681526020019081526020016000205486866040516020016105e096959493929190611897565b6040516020818303038152906040528051906020012090509392505050565b60016020528060005260406000206000915090505481565b61061f610ade565b61062b84848484610b6e565b50505050565b7f000000000000000000000000000000000000000000000000000000000000000081565b61065d61094a565b7f000000000000000000000000000000000000000000000000000000000000000073ffffffffffffffffffffffffffffffffffffffff1663bb9fe6bf6040518163ffffffff1660e01b8152600401600060405180830381600087803b1580156106c557600080fd5b505af11580156106d9573d6000803e3d6000fd5b50505050565b6106e761094a565b7f000000000000000000000000000000000000000000000000000000000000000073ffffffffffffffffffffffffffffffffffffffff1663c23a5cea826040518263ffffffff1660e01b815260040161074091906118ff565b600060405180830381600087803b15801561075a57600080fd5b505af115801561076e573d6000803e3d6000fd5b5050505050565b60007f000000000000000000000000000000000000000000000000000000000000000073ffffffffffffffffffffffffffffffffffffffff166370a08231306040518263ffffffff1660e01b81526004016107d09190611234565b602060405180830381865afa1580156107ed573d6000803e3d6000fd5b505050506040513d601f19601f82011682018060405250810190610811919061192f565b905090565b7f000000000000000000000000000000000000000000000000000000000000000073ffffffffffffffffffffffffffffffffffffffff1663b760faf934306040518363ffffffff1660e01b81526004016108709190611234565b6000604051808303818588803b15801561088957600080fd5b505af115801561089d573d6000803e3d6000fd5b5050505050565b6108ac61094a565b600073ffffffffffffffffffffffffffffffffffffffff168173ffffffffffffffffffffffffffffffffffffffff160361091b576040517f08c379a0000000000000000000000000000000000000000000000000000000008152600401610912906119df565b60405180910390fd5b610924816109c8565b50565b60606000610933610ade565b61093e858585610ba9565b91509150935093915050565b610952610d95565b73ffffffffffffffffffffffffffffffffffffffff166109706104fc565b73ffffffffffffffffffffffffffffffffffffffff16146109c6576040517f08c379a00000000000000000000000000000000000000000000000000000000081526004016109bd90611a4b565b60405180910390fd5b565b60008060009054906101000a900473ffffffffffffffffffffffffffffffffffffffff169050816000806101000a81548173ffffffffffffffffffffffffffffffffffffffff021916908373ffffffffffffffffffffffffffffffffffffffff1602179055508173ffffffffffffffffffffffffffffffffffffffff168173ffffffffffffffffffffffffffffffffffffffff167f8be0079c531659141344cd1fd0a4f28419497f9722a3daafe3b4186f6b6457e060405160405180910390a35050565b606036600083806101200190610aa29190611a7a565b915091508360208184030360405194506020810185016040528085528082602087013750505050919050565b6000808235905080915050919050565b7f000000000000000000000000000000000000000000000000000000000000000073ffffffffffffffffffffffffffffffffffffffff163373ffffffffffffffffffffffffffffffffffffffff1614610b6c576040517f08c379a0000000000000000000000000000000000000000000000000000000008152600401610b6390611b29565b60405180910390fd5b565b6040517f08c379a0000000000000000000000000000000000000000000000000000000008152600401610ba090611b95565b60405180910390fd5b606060008080366000610bcb89806101200190610bc69190611a7a565b610525565b93509350935093506040828290501480610be85750604182829050145b610c27576040517f08c379a0000000000000000000000000000000000000000000000000000000008152600401610c1e90611c27565b60405180910390fd5b6000610c3c610c378b8787610574565b610d9d565b905060016000610c4b8c610ace565b73ffffffffffffffffffffffffffffffffffffffff1673ffffffffffffffffffffffffffffffffffffffff1681526020019081526020016000206000815480929190610c9690611c76565b9190505550610ce98184848080601f016020809104026020016040519081016040528093929190818152602001838380828437600081840152601f19601f82011690508083019250505050505050610dd3565b73ffffffffffffffffffffffffffffffffffffffff167f000000000000000000000000000000000000000000000000000000000000000073ffffffffffffffffffffffffffffffffffffffff1614610d6657610d4760018686610dfa565b6040518060200160405280600081525090965096505050505050610d8d565b610d7260008686610dfa565b60405180602001604052806000815250909650965050505050505b935093915050565b600033905090565b60007f19457468657265756d205369676e6564204d6573736167653a0a33320000000060005281601c52603c6000209050919050565b6000806000610de28585610e33565b91509150610def81610e84565b819250505092915050565b600060d08265ffffffffffff16901b60a08465ffffffffffff16901b85610e22576000610e25565b60015b60ff16171790509392505050565b6000806041835103610e745760008060006020860151925060408601519150606086015160001a9050610e6887828585610fea565b94509450505050610e7d565b60006002915091505b9250929050565b60006004811115610e9857610e97611cbe565b5b816004811115610eab57610eaa611cbe565b5b0315610fe75760016004811115610ec557610ec4611cbe565b5b816004811115610ed857610ed7611cbe565b5b03610f18576040517f08c379a0000000000000000000000000000000000000000000000000000000008152600401610f0f90611d39565b60405180910390fd5b60026004811115610f2c57610f2b611cbe565b5b816004811115610f3f57610f3e611cbe565b5b03610f7f576040517f08c379a0000000000000000000000000000000000000000000000000000000008152600401610f7690611da5565b60405180910390fd5b60036004811115610f9357610f92611cbe565b5b816004811115610fa657610fa5611cbe565b5b03610fe6576040517f08c379a0000000000000000000000000000000000000000000000000000000008152600401610fdd90611e37565b60405180910390fd5b5b50565b6000807f7fffffffffffffffffffffffffffffff5d576e7357a4501ddfe92f46681b20a08360001c11156110255760006003915091506110c3565b60006001878787876040516000815260200160405260405161104a9493929190611e73565b6020604051602081039080840390855afa15801561106c573d6000803e3d6000fd5b505050602060405103519050600073ffffffffffffffffffffffffffffffffffffffff168173ffffffffffffffffffffffffffffffffffffffff16036110ba576000600192509250506110c3565b80600092509250505b94509492505050565b600080fd5b600080fd5b600063ffffffff82169050919050565b6110ef816110d6565b81146110fa57600080fd5b50565b60008135905061110c816110e6565b92915050565b600060208284031215611128576111276110cc565b5b6000611136848285016110fd565b91505092915050565b600073ffffffffffffffffffffffffffffffffffffffff82169050919050565b600061116a8261113f565b9050919050565b61117a8161115f565b811461118557600080fd5b50565b60008135905061119781611171565b92915050565b6000819050919050565b6111b08161119d565b81146111bb57600080fd5b50565b6000813590506111cd816111a7565b92915050565b600080604083850312156111ea576111e96110cc565b5b60006111f885828601611188565b9250506020611209858286016111be565b9150509250929050565b600061121e8261113f565b9050919050565b61122e81611213565b82525050565b60006020820190506112496000830184611225565b92915050565b600080fd5b600080fd5b600080fd5b60008083601f8401126112745761127361124f565b5b8235905067ffffffffffffffff81111561129157611290611254565b5b6020830191508360018202830111156112ad576112ac611259565b5b9250929050565b600080602083850312156112cb576112ca6110cc565b5b600083013567ffffffffffffffff8111156112e9576112e86110d1565b5b6112f58582860161125e565b92509250509250929050565b600065ffffffffffff82169050919050565b61131c81611301565b82525050565b600082825260208201905092915050565b82818337600083830152505050565b6000601f19601f8301169050919050565b600061135f8385611322565b935061136c838584611333565b61137583611342565b840190509392505050565b60006060820190506113956000830187611313565b6113a26020830186611313565b81810360408301526113b5818486611353565b905095945050505050565b600080fd5b600061016082840312156113dc576113db6113c0565b5b81905092915050565b6113ee81611301565b81146113f957600080fd5b50565b60008135905061140b816113e5565b92915050565b60008060006060848603121561142a576114296110cc565b5b600084013567ffffffffffffffff811115611448576114476110d1565b5b611454868287016113c5565b9350506020611465868287016113fc565b9250506040611476868287016113fc565b9150509250925092565b6000819050919050565b61149381611480565b82525050565b60006020820190506114ae600083018461148a565b92915050565b6114bd81611213565b81146114c857600080fd5b50565b6000813590506114da816114b4565b92915050565b6000602082840312156114f6576114f56110cc565b5b6000611504848285016114cb565b91505092915050565b6115168161119d565b82525050565b6000602082019050611531600083018461150d565b92915050565b6003811061154457600080fd5b50565b60008135905061155681611537565b92915050565b60008060008060608587031215611576576115756110cc565b5b600061158487828801611547565b945050602085013567ffffffffffffffff8111156115a5576115a46110d1565b5b6115b18782880161125e565b935093505060406115c4878288016111be565b91505092959194509250565b6000819050919050565b60006115f56115f06115eb8461113f565b6115d0565b61113f565b9050919050565b6000611607826115da565b9050919050565b6000611619826115fc565b9050919050565b6116298161160e565b82525050565b60006020820190506116446000830184611620565b92915050565b6000602082840312156116605761165f6110cc565b5b600061166e84828501611188565b91505092915050565b61168081611480565b811461168b57600080fd5b50565b60008135905061169d81611677565b92915050565b6000806000606084860312156116bc576116bb6110cc565b5b600084013567ffffffffffffffff8111156116da576116d96110d1565b5b6116e6868287016113c5565b93505060206116f78682870161168e565b9250506040611708868287016111be565b9150509250925092565b600081519050919050565b60005b8381101561173b578082015181840152602081019050611720565b60008484015250505050565b600061175282611712565b61175c8185611322565b935061176c81856020860161171d565b61177581611342565b840191505092915050565b6000604082019050818103600083015261179a8185611747565b90506117a9602083018461150d565b9392505050565b6117b9816110d6565b82525050565b60006020820190506117d460008301846117b0565b92915050565b6117e38161115f565b82525050565b60006040820190506117fe60008301856117da565b61180b602083018461150d565b9392505050565b600080fd5b600080fd5b600080858511156118305761182f611812565b5b8386111561184157611840611817565b5b6001850283019150848603905094509492505050565b6000806040838503121561186e5761186d6110cc565b5b600061187c858286016113fc565b925050602061188d858286016113fc565b9150509250929050565b600060c08201905081810360008301526118b18189611747565b90506118c0602083018861150d565b6118cd6040830187611225565b6118da606083018661150d565b6118e76080830185611313565b6118f460a0830184611313565b979650505050505050565b600060208201905061191460008301846117da565b92915050565b600081519050611929816111a7565b92915050565b600060208284031215611945576119446110cc565b5b60006119538482850161191a565b91505092915050565b600082825260208201905092915050565b7f4f776e61626c653a206e6577206f776e657220697320746865207a65726f206160008201527f6464726573730000000000000000000000000000000000000000000000000000602082015250565b60006119c960268361195c565b91506119d48261196d565b604082019050919050565b600060208201905081810360008301526119f8816119bc565b9050919050565b7f4f776e61626c653a2063616c6c6572206973206e6f7420746865206f776e6572600082015250565b6000611a3560208361195c565b9150611a40826119ff565b602082019050919050565b60006020820190508181036000830152611a6481611a28565b9050919050565b600080fd5b600080fd5b600080fd5b60008083356001602003843603038112611a9757611a96611a6b565b5b80840192508235915067ffffffffffffffff821115611ab957611ab8611a70565b5b602083019250600182023603831315611ad557611ad4611a75565b5b509250929050565b7f53656e646572206e6f7420456e747279506f696e740000000000000000000000600082015250565b6000611b1360158361195c565b9150611b1e82611add565b602082019050919050565b60006020820190508181036000830152611b4281611b06565b9050919050565b7f6d757374206f7665727269646500000000000000000000000000000000000000600082015250565b6000611b7f600d8361195c565b9150611b8a82611b49565b602082019050919050565b60006020820190508181036000830152611bae81611b72565b9050919050565b7f566572696679696e675061796d61737465723a20696e76616c6964207369676e60008201527f6174757265206c656e67746820696e207061796d6173746572416e6444617461602082015250565b6000611c1160408361195c565b9150611c1c82611bb5565b604082019050919050565b60006020820190508181036000830152611c4081611c04565b9050919050565b7f4e487b7100000000000000000000000000000000000000000000000000000000600052601160045260246000fd5b6000611c818261119d565b91507fffffffffffffffffffffffffffffffffffffffffffffffffffffffffffffffff8203611cb357611cb2611c47565b5b600182019050919050565b7f4e487b7100000000000000000000000000000000000000000000000000000000600052602160045260246000fd5b7f45434453413a20696e76616c6964207369676e61747572650000000000000000600082015250565b6000611d2360188361195c565b9150611d2e82611ced565b602082019050919050565b60006020820190508181036000830152611d5281611d16565b9050919050565b7f45434453413a20696e76616c6964207369676e6174757265206c656e67746800600082015250565b6000611d8f601f8361195c565b9150611d9a82611d59565b602082019050919050565b60006020820190508181036000830152611dbe81611d82565b9050919050565b7f45434453413a20696e76616c6964207369676e6174757265202773272076616c60008201527f7565000000000000000000000000000000000000000000000000000000000000602082015250565b6000611e2160228361195c565b9150611e2c82611dc5565b604082019050919050565b60006020820190508181036000830152611e5081611e14565b9050919050565b600060ff82169050919050565b611e6d81611e57565b82525050565b6000608082019050611e88600083018761148a565b611e956020830186611e64565b611ea2604083018561148a565b611eaf606083018461148a565b9594505050505056fea2646970667358221220119ea8ec0d636f8697246c1dfd6f969f6623f1c34e05158d6c4fd6ef0d4063ab64736f6c63430008120033",
					"opcodes": "PUSH1 0xC0 PUSH1 0x40 MSTORE CALLVALUE DUP1 ISZERO PUSH3 0x11 JUMPI PUSH1 0x0 DUP1 REVERT JUMPDEST POP PUSH1 0x40 MLOAD PUSH3 0x21D7 CODESIZE SUB DUP1 PUSH3 0x21D7 DUP4 CODECOPY DUP2 DUP2 ADD PUSH1 0x40 MSTORE DUP2 ADD SWAP1 PUSH3 0x37 SWAP2 SWAP1 PUSH3 0x244 JUMP JUMPDEST DUP2 PUSH3 0x58 PUSH3 0x4C PUSH3 0xC9 PUSH1 0x20 SHL PUSH1 0x20 SHR JUMP JUMPDEST PUSH3 0xD1 PUSH1 0x20 SHL PUSH1 0x20 SHR JUMP JUMPDEST DUP1 PUSH20 0xFFFFFFFFFFFFFFFFFFFFFFFFFFFFFFFFFFFFFFFF AND PUSH1 0x80 DUP2 PUSH20 0xFFFFFFFFFFFFFFFFFFFFFFFFFFFFFFFFFFFFFFFF AND DUP2 MSTORE POP POP POP DUP1 PUSH20 0xFFFFFFFFFFFFFFFFFFFFFFFFFFFFFFFFFFFFFFFF AND PUSH1 0xA0 DUP2 PUSH20 0xFFFFFFFFFFFFFFFFFFFFFFFFFFFFFFFFFFFFFFFF AND DUP2 MSTORE POP POP POP POP PUSH3 0x28B JUMP JUMPDEST PUSH1 0x0 CALLER SWAP1 POP SWAP1 JUMP JUMPDEST PUSH1 0x0 DUP1 PUSH1 0x0 SWAP1 SLOAD SWAP1 PUSH2 0x100 EXP SWAP1 DIV PUSH20 0xFFFFFFFFFFFFFFFFFFFFFFFFFFFFFFFFFFFFFFFF AND SWAP1 POP DUP2 PUSH1 0x0 DUP1 PUSH2 0x100 EXP DUP2 SLOAD DUP2 PUSH20 0xFFFFFFFFFFFFFFFFFFFFFFFFFFFFFFFFFFFFFFFF MUL NOT AND SWAP1 DUP4 PUSH20 0xFFFFFFFFFFFFFFFFFFFFFFFFFFFFFFFFFFFFFFFF AND MUL OR SWAP1 SSTORE POP DUP2 PUSH20 0xFFFFFFFFFFFFFFFFFFFFFFFFFFFFFFFFFFFFFFFF AND DUP2 PUSH20 0xFFFFFFFFFFFFFFFFFFFFFFFFFFFFFFFFFFFFFFFF AND PUSH32 0x8BE0079C531659141344CD1FD0A4F28419497F9722A3DAAFE3B4186F6B6457E0 PUSH1 0x40 MLOAD PUSH1 0x40 MLOAD DUP1 SWAP2 SUB SWAP1 LOG3 POP POP JUMP JUMPDEST PUSH1 0x0 DUP1 REVERT JUMPDEST PUSH1 0x0 PUSH20 0xFFFFFFFFFFFFFFFFFFFFFFFFFFFFFFFFFFFFFFFF DUP3 AND SWAP1 POP SWAP2 SWAP1 POP JUMP JUMPDEST PUSH1 0x0 PUSH3 0x1C7 DUP3 PUSH3 0x19A JUMP JUMPDEST SWAP1 POP SWAP2 SWAP1 POP JUMP JUMPDEST PUSH1 0x0 PUSH3 0x1DB DUP3 PUSH3 0x1BA JUMP JUMPDEST SWAP1 POP SWAP2 SWAP1 POP JUMP JUMPDEST PUSH3 0x1ED DUP2 PUSH3 0x1CE JUMP JUMPDEST DUP2 EQ PUSH3 0x1F9 JUMPI PUSH1 0x0 DUP1 REVERT JUMPDEST POP JUMP JUMPDEST PUSH1 0x0 DUP2 MLOAD SWAP1 POP PUSH3 0x20D DUP2 PUSH3 0x1E2 JUMP JUMPDEST SWAP3 SWAP2 POP POP JUMP JUMPDEST PUSH3 0x21E DUP2 PUSH3 0x1BA JUMP JUMPDEST DUP2 EQ PUSH3 0x22A JUMPI PUSH1 0x0 DUP1 REVERT JUMPDEST POP JUMP JUMPDEST PUSH1 0x0 DUP2 MLOAD SWAP1 POP PUSH3 0x23E DUP2 PUSH3 0x213 JUMP JUMPDEST SWAP3 SWAP2 POP POP JUMP JUMPDEST PUSH1 0x0 DUP1 PUSH1 0x40 DUP4 DUP6 SUB SLT ISZERO PUSH3 0x25E JUMPI PUSH3 0x25D PUSH3 0x195 JUMP JUMPDEST JUMPDEST PUSH1 0x0 PUSH3 0x26E DUP6 DUP3 DUP7 ADD PUSH3 0x1FC JUMP JUMPDEST SWAP3 POP POP PUSH1 0x20 PUSH3 0x281 DUP6 DUP3 DUP7 ADD PUSH3 0x22D JUMP JUMPDEST SWAP2 POP POP SWAP3 POP SWAP3 SWAP1 POP JUMP JUMPDEST PUSH1 0x80 MLOAD PUSH1 0xA0 MLOAD PUSH2 0x1EEE PUSH3 0x2E9 PUSH1 0x0 CODECOPY PUSH1 0x0 DUP2 DUP2 PUSH2 0x4C6 ADD MSTORE PUSH2 0xD01 ADD MSTORE PUSH1 0x0 DUP2 DUP2 PUSH2 0x39E ADD MSTORE DUP2 DUP2 PUSH2 0x435 ADD MSTORE DUP2 DUP2 PUSH2 0x633 ADD MSTORE DUP2 DUP2 PUSH2 0x65F ADD MSTORE DUP2 DUP2 PUSH2 0x6E9 ADD MSTORE DUP2 DUP2 PUSH2 0x779 ADD MSTORE DUP2 DUP2 PUSH2 0x818 ADD MSTORE PUSH2 0xAE0 ADD MSTORE PUSH2 0x1EEE PUSH1 0x0 RETURN INVALID PUSH1 0x80 PUSH1 0x40 MSTORE PUSH1 0x4 CALLDATASIZE LT PUSH2 0xF3 JUMPI PUSH1 0x0 CALLDATALOAD PUSH1 0xE0 SHR DUP1 PUSH4 0xA9A23409 GT PUSH2 0x8A JUMPI DUP1 PUSH4 0xC399EC88 GT PUSH2 0x59 JUMPI DUP1 PUSH4 0xC399EC88 EQ PUSH2 0x2F8 JUMPI DUP1 PUSH4 0xD0E30DB0 EQ PUSH2 0x323 JUMPI DUP1 PUSH4 0xF2FDE38B EQ PUSH2 0x32D JUMPI DUP1 PUSH4 0xF465C77E EQ PUSH2 0x356 JUMPI PUSH2 0xF3 JUMP JUMPDEST DUP1 PUSH4 0xA9A23409 EQ PUSH2 0x264 JUMPI DUP1 PUSH4 0xB0D691FE EQ PUSH2 0x28D JUMPI DUP1 PUSH4 0xBB9FE6BF EQ PUSH2 0x2B8 JUMPI DUP1 PUSH4 0xC23A5CEA EQ PUSH2 0x2CF JUMPI PUSH2 0xF3 JUMP JUMPDEST DUP1 PUSH4 0x8DA5CB5B GT PUSH2 0xC6 JUMPI DUP1 PUSH4 0x8DA5CB5B EQ PUSH2 0x17F JUMPI DUP1 PUSH4 0x94D4AD60 EQ PUSH2 0x1AA JUMPI DUP1 PUSH4 0x94E1FC19 EQ PUSH2 0x1EA JUMPI DUP1 PUSH4 0x9C90B443 EQ PUSH2 0x227 JUMPI PUSH2 0xF3 JUMP JUMPDEST DUP1 PUSH4 0x396CB60 EQ PUSH2 0xF8 JUMPI DUP1 PUSH4 0x205C2878 EQ PUSH2 0x114 JUMPI DUP1 PUSH4 0x23D9AC9B EQ PUSH2 0x13D JUMPI DUP1 PUSH4 0x715018A6 EQ PUSH2 0x168 JUMPI JUMPDEST PUSH1 0x0 DUP1 REVERT JUMPDEST PUSH2 0x112 PUSH1 0x4 DUP1 CALLDATASIZE SUB DUP2 ADD SWAP1 PUSH2 0x10D SWAP2 SWAP1 PUSH2 0x1112 JUMP JUMPDEST PUSH2 0x394 JUMP JUMPDEST STOP JUMPDEST CALLVALUE DUP1 ISZERO PUSH2 0x120 JUMPI PUSH1 0x0 DUP1 REVERT JUMPDEST POP PUSH2 0x13B PUSH1 0x4 DUP1 CALLDATASIZE SUB DUP2 ADD SWAP1 PUSH2 0x136 SWAP2 SWAP1 PUSH2 0x11D3 JUMP JUMPDEST PUSH2 0x42B JUMP JUMPDEST STOP JUMPDEST CALLVALUE DUP1 ISZERO PUSH2 0x149 JUMPI PUSH1 0x0 DUP1 REVERT JUMPDEST POP PUSH2 0x152 PUSH2 0x4C4 JUMP JUMPDEST PUSH1 0x40 MLOAD PUSH2 0x15F SWAP2 SWAP1 PUSH2 0x1234 JUMP JUMPDEST PUSH1 0x40 MLOAD DUP1 SWAP2 SUB SWAP1 RETURN JUMPDEST CALLVALUE DUP1 ISZERO PUSH2 0x174 JUMPI PUSH1 0x0 DUP1 REVERT JUMPDEST POP PUSH2 0x17D PUSH2 0x4E8 JUMP JUMPDEST STOP JUMPDEST CALLVALUE DUP1 ISZERO PUSH2 0x18B JUMPI PUSH1 0x0 DUP1 REVERT JUMPDEST POP PUSH2 0x194 PUSH2 0x4FC JUMP JUMPDEST PUSH1 0x40 MLOAD PUSH2 0x1A1 SWAP2 SWAP1 PUSH2 0x1234 JUMP JUMPDEST PUSH1 0x40 MLOAD DUP1 SWAP2 SUB SWAP1 RETURN JUMPDEST CALLVALUE DUP1 ISZERO PUSH2 0x1B6 JUMPI PUSH1 0x0 DUP1 REVERT JUMPDEST POP PUSH2 0x1D1 PUSH1 0x4 DUP1 CALLDATASIZE SUB DUP2 ADD SWAP1 PUSH2 0x1CC SWAP2 SWAP1 PUSH2 0x12B4 JUMP JUMPDEST PUSH2 0x525 JUMP JUMPDEST PUSH1 0x40 MLOAD PUSH2 0x1E1 SWAP5 SWAP4 SWAP3 SWAP2 SWAP1 PUSH2 0x1380 JUMP JUMPDEST PUSH1 0x40 MLOAD DUP1 SWAP2 SUB SWAP1 RETURN JUMPDEST CALLVALUE DUP1 ISZERO PUSH2 0x1F6 JUMPI PUSH1 0x0 DUP1 REVERT JUMPDEST POP PUSH2 0x211 PUSH1 0x4 DUP1 CALLDATASIZE SUB DUP2 ADD SWAP1 PUSH2 0x20C SWAP2 SWAP1 PUSH2 0x1411 JUMP JUMPDEST PUSH2 0x574 JUMP JUMPDEST PUSH1 0x40 MLOAD PUSH2 0x21E SWAP2 SWAP1 PUSH2 0x1499 JUMP JUMPDEST PUSH1 0x40 MLOAD DUP1 SWAP2 SUB SWAP1 RETURN JUMPDEST CALLVALUE DUP1 ISZERO PUSH2 0x233 JUMPI PUSH1 0x0 DUP1 REVERT JUMPDEST POP PUSH2 0x24E PUSH1 0x4 DUP1 CALLDATASIZE SUB DUP2 ADD SWAP1 PUSH2 0x249 SWAP2 SWAP1 PUSH2 0x14E0 JUMP JUMPDEST PUSH2 0x5FF JUMP JUMPDEST PUSH1 0x40 MLOAD PUSH2 0x25B SWAP2 SWAP1 PUSH2 0x151C JUMP JUMPDEST PUSH1 0x40 MLOAD DUP1 SWAP2 SUB SWAP1 RETURN JUMPDEST CALLVALUE DUP1 ISZERO PUSH2 0x270 JUMPI PUSH1 0x0 DUP1 REVERT JUMPDEST POP PUSH2 0x28B PUSH1 0x4 DUP1 CALLDATASIZE SUB DUP2 ADD SWAP1 PUSH2 0x286 SWAP2 SWAP1 PUSH2 0x155C JUMP JUMPDEST PUSH2 0x617 JUMP JUMPDEST STOP JUMPDEST CALLVALUE DUP1 ISZERO PUSH2 0x299 JUMPI PUSH1 0x0 DUP1 REVERT JUMPDEST POP PUSH2 0x2A2 PUSH2 0x631 JUMP JUMPDEST PUSH1 0x40 MLOAD PUSH2 0x2AF SWAP2 SWAP1 PUSH2 0x162F JUMP JUMPDEST PUSH1 0x40 MLOAD DUP1 SWAP2 SUB SWAP1 RETURN JUMPDEST CALLVALUE DUP1 ISZERO PUSH2 0x2C4 JUMPI PUSH1 0x0 DUP1 REVERT JUMPDEST POP PUSH2 0x2CD PUSH2 0x655 JUMP JUMPDEST STOP JUMPDEST CALLVALUE DUP1 ISZERO PUSH2 0x2DB JUMPI PUSH1 0x0 DUP1 REVERT JUMPDEST POP PUSH2 0x2F6 PUSH1 0x4 DUP1 CALLDATASIZE SUB DUP2 ADD SWAP1 PUSH2 0x2F1 SWAP2 SWAP1 PUSH2 0x164A JUMP JUMPDEST PUSH2 0x6DF JUMP JUMPDEST STOP JUMPDEST CALLVALUE DUP1 ISZERO PUSH2 0x304 JUMPI PUSH1 0x0 DUP1 REVERT JUMPDEST POP PUSH2 0x30D PUSH2 0x775 JUMP JUMPDEST PUSH1 0x40 MLOAD PUSH2 0x31A SWAP2 SWAP1 PUSH2 0x151C JUMP JUMPDEST PUSH1 0x40 MLOAD DUP1 SWAP2 SUB SWAP1 RETURN JUMPDEST PUSH2 0x32B PUSH2 0x816 JUMP JUMPDEST STOP JUMPDEST CALLVALUE DUP1 ISZERO PUSH2 0x339 JUMPI PUSH1 0x0 DUP1 REVERT JUMPDEST POP PUSH2 0x354 PUSH1 0x4 DUP1 CALLDATASIZE SUB DUP2 ADD SWAP1 PUSH2 0x34F SWAP2 SWAP1 PUSH2 0x14E0 JUMP JUMPDEST PUSH2 0x8A4 JUMP JUMPDEST STOP JUMPDEST CALLVALUE DUP1 ISZERO PUSH2 0x362 JUMPI PUSH1 0x0 DUP1 REVERT JUMPDEST POP PUSH2 0x37D PUSH1 0x4 DUP1 CALLDATASIZE SUB DUP2 ADD SWAP1 PUSH2 0x378 SWAP2 SWAP1 PUSH2 0x16A3 JUMP JUMPDEST PUSH2 0x927 JUMP JUMPDEST PUSH1 0x40 MLOAD PUSH2 0x38B SWAP3 SWAP2 SWAP1 PUSH2 0x1780 JUMP JUMPDEST PUSH1 0x40 MLOAD DUP1 SWAP2 SUB SWAP1 RETURN JUMPDEST PUSH2 0x39C PUSH2 0x94A JUMP JUMPDEST PUSH32 0x0 PUSH20 0xFFFFFFFFFFFFFFFFFFFFFFFFFFFFFFFFFFFFFFFF AND PUSH4 0x396CB60 CALLVALUE DUP4 PUSH1 0x40 MLOAD DUP4 PUSH4 0xFFFFFFFF AND PUSH1 0xE0 SHL DUP2 MSTORE PUSH1 0x4 ADD PUSH2 0x3F6 SWAP2 SWAP1 PUSH2 0x17BF JUMP JUMPDEST PUSH1 0x0 PUSH1 0x40 MLOAD DUP1 DUP4 SUB DUP2 DUP6 DUP9 DUP1 EXTCODESIZE ISZERO DUP1 ISZERO PUSH2 0x40F JUMPI PUSH1 0x0 DUP1 REVERT JUMPDEST POP GAS CALL ISZERO DUP1 ISZERO PUSH2 0x423 JUMPI RETURNDATASIZE PUSH1 0x0 DUP1 RETURNDATACOPY RETURNDATASIZE PUSH1 0x0 REVERT JUMPDEST POP POP POP POP POP POP JUMP JUMPDEST PUSH2 0x433 PUSH2 0x94A JUMP JUMPDEST PUSH32 0x0 PUSH20 0xFFFFFFFFFFFFFFFFFFFFFFFFFFFFFFFFFFFFFFFF AND PUSH4 0x205C2878 DUP4 DUP4 PUSH1 0x40 MLOAD DUP4 PUSH4 0xFFFFFFFF AND PUSH1 0xE0 SHL DUP2 MSTORE PUSH1 0x4 ADD PUSH2 0x48E SWAP3 SWAP2 SWAP1 PUSH2 0x17E9 JUMP JUMPDEST PUSH1 0x0 PUSH1 0x40 MLOAD DUP1 DUP4 SUB DUP2 PUSH1 0x0 DUP8 DUP1 EXTCODESIZE ISZERO DUP1 ISZERO PUSH2 0x4A8 JUMPI PUSH1 0x0 DUP1 REVERT JUMPDEST POP GAS CALL ISZERO DUP1 ISZERO PUSH2 0x4BC JUMPI RETURNDATASIZE PUSH1 0x0 DUP1 RETURNDATACOPY RETURNDATASIZE PUSH1 0x0 REVERT JUMPDEST POP POP POP POP POP POP JUMP JUMPDEST PUSH32 0x0 DUP2 JUMP JUMPDEST PUSH2 0x4F0 PUSH2 0x94A JUMP JUMPDEST PUSH2 0x4FA PUSH1 0x0 PUSH2 0x9C8 JUMP JUMPDEST JUMP JUMPDEST PUSH1 0x0 DUP1 PUSH1 0x0 SWAP1 SLOAD SWAP1 PUSH2 0x100 EXP SWAP1 DIV PUSH20 0xFFFFFFFFFFFFFFFFFFFFFFFFFFFFFFFFFFFFFFFF AND SWAP1 POP SWAP1 JUMP JUMPDEST PUSH1 0x0 DUP1 CALLDATASIZE PUSH1 0x0 DUP6 DUP6 PUSH1 0x14 SWAP1 PUSH1 0x54 SWAP3 PUSH2 0x53F SWAP4 SWAP3 SWAP2 SWAP1 PUSH2 0x181C JUMP JUMPDEST DUP2 ADD SWAP1 PUSH2 0x54C SWAP2 SWAP1 PUSH2 0x1857 JUMP JUMPDEST DUP1 SWAP5 POP DUP2 SWAP6 POP POP POP DUP6 DUP6 PUSH1 0x54 SWAP1 DUP1 SWAP3 PUSH2 0x567 SWAP4 SWAP3 SWAP2 SWAP1 PUSH2 0x181C JUMP JUMPDEST SWAP2 POP SWAP2 POP SWAP3 SWAP6 SWAP2 SWAP5 POP SWAP3 POP JUMP JUMPDEST PUSH1 0x0 PUSH2 0x57F DUP5 PUSH2 0xA8C JUMP JUMPDEST CHAINID ADDRESS PUSH1 0x1 PUSH1 0x0 PUSH2 0x58E DUP10 PUSH2 0xACE JUMP JUMPDEST PUSH20 0xFFFFFFFFFFFFFFFFFFFFFFFFFFFFFFFFFFFFFFFF AND PUSH20 0xFFFFFFFFFFFFFFFFFFFFFFFFFFFFFFFFFFFFFFFF AND DUP2 MSTORE PUSH1 0x20 ADD SWAP1 DUP2 MSTORE PUSH1 0x20 ADD PUSH1 0x0 KECCAK256 SLOAD DUP7 DUP7 PUSH1 0x40 MLOAD PUSH1 0x20 ADD PUSH2 0x5E0 SWAP7 SWAP6 SWAP5 SWAP4 SWAP3 SWAP2 SWAP1 PUSH2 0x1897 JUMP JUMPDEST PUSH1 0x40 MLOAD PUSH1 0x20 DUP2 DUP4 SUB SUB DUP2 MSTORE SWAP1 PUSH1 0x40 MSTORE DUP1 MLOAD SWAP1 PUSH1 0x20 ADD KECCAK256 SWAP1 POP SWAP4 SWAP3 POP POP POP JUMP JUMPDEST PUSH1 0x1 PUSH1 0x20 MSTORE DUP1 PUSH1 0x0 MSTORE PUSH1 0x40 PUSH1 0x0 KECCAK256 PUSH1 0x0 SWAP2 POP SWAP1 POP SLOAD DUP2 JUMP JUMPDEST PUSH2 0x61F PUSH2 0xADE JUMP JUMPDEST PUSH2 0x62B DUP5 DUP5 DUP5 DUP5 PUSH2 0xB6E JUMP JUMPDEST POP POP POP POP JUMP JUMPDEST PUSH32 0x0 DUP2 JUMP JUMPDEST PUSH2 0x65D PUSH2 0x94A JUMP JUMPDEST PUSH32 0x0 PUSH20 0xFFFFFFFFFFFFFFFFFFFFFFFFFFFFFFFFFFFFFFFF AND PUSH4 0xBB9FE6BF PUSH1 0x40 MLOAD DUP2 PUSH4 0xFFFFFFFF AND PUSH1 0xE0 SHL DUP2 MSTORE PUSH1 0x4 ADD PUSH1 0x0 PUSH1 0x40 MLOAD DUP1 DUP4 SUB DUP2 PUSH1 0x0 DUP8 DUP1 EXTCODESIZE ISZERO DUP1 ISZERO PUSH2 0x6C5 JUMPI PUSH1 0x0 DUP1 REVERT JUMPDEST POP GAS CALL ISZERO DUP1 ISZERO PUSH2 0x6D9 JUMPI RETURNDATASIZE PUSH1 0x0 DUP1 RETURNDATACOPY RETURNDATASIZE PUSH1 0x0 REVERT JUMPDEST POP POP POP POP JUMP JUMPDEST PUSH2 0x6E7 PUSH2 0x94A JUMP JUMPDEST PUSH32 0x0 PUSH20 0xFFFFFFFFFFFFFFFFFFFFFFFFFFFFFFFFFFFFFFFF AND PUSH4 0xC23A5CEA DUP3 PUSH1 0x40 MLOAD DUP3 PUSH4 0xFFFFFFFF AND PUSH1 0xE0 SHL DUP2 MSTORE PUSH1 0x4 ADD PUSH2 0x740 SWAP2 SWAP1 PUSH2 0x18FF JUMP JUMPDEST PUSH1 0x0 PUSH1 0x40 MLOAD DUP1 DUP4 SUB DUP2 PUSH1 0x0 DUP8 DUP1 EXTCODESIZE ISZERO DUP1 ISZERO PUSH2 0x75A JUMPI PUSH1 0x0 DUP1 REVERT JUMPDEST POP GAS CALL ISZERO DUP1 ISZERO PUSH2 0x76E JUMPI RETURNDATASIZE PUSH1 0x0 DUP1 RETURNDATACOPY RETURNDATASIZE PUSH1 0x0 REVERT JUMPDEST POP POP POP POP POP JUMP JUMPDEST PUSH1 0x0 PUSH32 0x0 PUSH20 0xFFFFFFFFFFFFFFFFFFFFFFFFFFFFFFFFFFFFFFFF AND PUSH4 0x70A08231 ADDRESS PUSH1 0x40 MLOAD DUP3 PUSH4 0xFFFFFFFF AND PUSH1 0xE0 SHL DUP2 MSTORE PUSH1 0x4 ADD PUSH2 0x7D0 SWAP2 SWAP1 PUSH2 0x1234 JUMP JUMPDEST PUSH1 0x20 PUSH1 0x40 MLOAD DUP1 DUP4 SUB DUP2 DUP7 GAS STATICCALL ISZERO DUP1 ISZERO PUSH2 0x7ED JUMPI RETURNDATASIZE PUSH1 0x0 DUP1 RETURNDATACOPY RETURNDATASIZE PUSH1 0x0 REVERT JUMPDEST POP POP POP POP PUSH1 0x40 MLOAD RETURNDATASIZE PUSH1 0x1F NOT PUSH1 0x1F DUP3 ADD AND DUP3 ADD DUP1 PUSH1 0x40 MSTORE POP DUP2 ADD SWAP1 PUSH2 0x811 SWAP2 SWAP1 PUSH2 0x192F JUMP JUMPDEST SWAP1 POP SWAP1 JUMP JUMPDEST PUSH32 0x0 PUSH20 0xFFFFFFFFFFFFFFFFFFFFFFFFFFFFFFFFFFFFFFFF AND PUSH4 0xB760FAF9 CALLVALUE ADDRESS PUSH1 0x40 MLOAD DUP4 PUSH4 0xFFFFFFFF AND PUSH1 0xE0 SHL DUP2 MSTORE PUSH1 0x4 ADD PUSH2 0x870 SWAP2 SWAP1 PUSH2 0x1234 JUMP JUMPDEST PUSH1 0x0 PUSH1 0x40 MLOAD DUP1 DUP4 SUB DUP2 DUP6 DUP9 DUP1 EXTCODESIZE ISZERO DUP1 ISZERO PUSH2 0x889 JUMPI PUSH1 0x0 DUP1 REVERT JUMPDEST POP GAS CALL ISZERO DUP1 ISZERO PUSH2 0x89D JUMPI RETURNDATASIZE PUSH1 0x0 DUP1 RETURNDATACOPY RETURNDATASIZE PUSH1 0x0 REVERT JUMPDEST POP POP POP POP POP JUMP JUMPDEST PUSH2 0x8AC PUSH2 0x94A JUMP JUMPDEST PUSH1 0x0 PUSH20 0xFFFFFFFFFFFFFFFFFFFFFFFFFFFFFFFFFFFFFFFF AND DUP2 PUSH20 0xFFFFFFFFFFFFFFFFFFFFFFFFFFFFFFFFFFFFFFFF AND SUB PUSH2 0x91B JUMPI PUSH1 0x40 MLOAD PUSH32 0x8C379A000000000000000000000000000000000000000000000000000000000 DUP2 MSTORE PUSH1 0x4 ADD PUSH2 0x912 SWAP1 PUSH2 0x19DF JUMP JUMPDEST PUSH1 0x40 MLOAD DUP1 SWAP2 SUB SWAP1 REVERT JUMPDEST PUSH2 0x924 DUP2 PUSH2 0x9C8 JUMP JUMPDEST POP JUMP JUMPDEST PUSH1 0x60 PUSH1 0x0 PUSH2 0x933 PUSH2 0xADE JUMP JUMPDEST PUSH2 0x93E DUP6 DUP6 DUP6 PUSH2 0xBA9 JUMP JUMPDEST SWAP2 POP SWAP2 POP SWAP4 POP SWAP4 SWAP2 POP POP JUMP JUMPDEST PUSH2 0x952 PUSH2 0xD95 JUMP JUMPDEST PUSH20 0xFFFFFFFFFFFFFFFFFFFFFFFFFFFFFFFFFFFFFFFF AND PUSH2 0x970 PUSH2 0x4FC JUMP JUMPDEST PUSH20 0xFFFFFFFFFFFFFFFFFFFFFFFFFFFFFFFFFFFFFFFF AND EQ PUSH2 0x9C6 JUMPI PUSH1 0x40 MLOAD PUSH32 0x8C379A000000000000000000000000000000000000000000000000000000000 DUP2 MSTORE PUSH1 0x4 ADD PUSH2 0x9BD SWAP1 PUSH2 0x1A4B JUMP JUMPDEST PUSH1 0x40 MLOAD DUP1 SWAP2 SUB SWAP1 REVERT JUMPDEST JUMP JUMPDEST PUSH1 0x0 DUP1 PUSH1 0x0 SWAP1 SLOAD SWAP1 PUSH2 0x100 EXP SWAP1 DIV PUSH20 0xFFFFFFFFFFFFFFFFFFFFFFFFFFFFFFFFFFFFFFFF AND SWAP1 POP DUP2 PUSH1 0x0 DUP1 PUSH2 0x100 EXP DUP2 SLOAD DUP2 PUSH20 0xFFFFFFFFFFFFFFFFFFFFFFFFFFFFFFFFFFFFFFFF MUL NOT AND SWAP1 DUP4 PUSH20 0xFFFFFFFFFFFFFFFFFFFFFFFFFFFFFFFFFFFFFFFF AND MUL OR SWAP1 SSTORE POP DUP2 PUSH20 0xFFFFFFFFFFFFFFFFFFFFFFFFFFFFFFFFFFFFFFFF AND DUP2 PUSH20 0xFFFFFFFFFFFFFFFFFFFFFFFFFFFFFFFFFFFFFFFF AND PUSH32 0x8BE0079C531659141344CD1FD0A4F28419497F9722A3DAAFE3B4186F6B6457E0 PUSH1 0x40 MLOAD PUSH1 0x40 MLOAD DUP1 SWAP2 SUB SWAP1 LOG3 POP POP JUMP JUMPDEST PUSH1 0x60 CALLDATASIZE PUSH1 0x0 DUP4 DUP1 PUSH2 0x120 ADD SWAP1 PUSH2 0xAA2 SWAP2 SWAP1 PUSH2 0x1A7A JUMP JUMPDEST SWAP2 POP SWAP2 POP DUP4 PUSH1 0x20 DUP2 DUP5 SUB SUB PUSH1 0x40 MLOAD SWAP5 POP PUSH1 0x20 DUP2 ADD DUP6 ADD PUSH1 0x40 MSTORE DUP1 DUP6 MSTORE DUP1 DUP3 PUSH1 0x20 DUP8 ADD CALLDATACOPY POP POP POP POP SWAP2 SWAP1 POP JUMP JUMPDEST PUSH1 0x0 DUP1 DUP3 CALLDATALOAD SWAP1 POP DUP1 SWAP2 POP POP SWAP2 SWAP1 POP JUMP JUMPDEST PUSH32 0x0 PUSH20 0xFFFFFFFFFFFFFFFFFFFFFFFFFFFFFFFFFFFFFFFF AND CALLER PUSH20 0xFFFFFFFFFFFFFFFFFFFFFFFFFFFFFFFFFFFFFFFF AND EQ PUSH2 0xB6C JUMPI PUSH1 0x40 MLOAD PUSH32 0x8C379A000000000000000000000000000000000000000000000000000000000 DUP2 MSTORE PUSH1 0x4 ADD PUSH2 0xB63 SWAP1 PUSH2 0x1B29 JUMP JUMPDEST PUSH1 0x40 MLOAD DUP1 SWAP2 SUB SWAP1 REVERT JUMPDEST JUMP JUMPDEST PUSH1 0x40 MLOAD PUSH32 0x8C379A000000000000000000000000000000000000000000000000000000000 DUP2 MSTORE PUSH1 0x4 ADD PUSH2 0xBA0 SWAP1 PUSH2 0x1B95 JUMP JUMPDEST PUSH1 0x40 MLOAD DUP1 SWAP2 SUB SWAP1 REVERT JUMPDEST PUSH1 0x60 PUSH1 0x0 DUP1 DUP1 CALLDATASIZE PUSH1 0x0 PUSH2 0xBCB DUP10 DUP1 PUSH2 0x120 ADD SWAP1 PUSH2 0xBC6 SWAP2 SWAP1 PUSH2 0x1A7A JUMP JUMPDEST PUSH2 0x525 JUMP JUMPDEST SWAP4 POP SWAP4 POP SWAP4 POP SWAP4 POP PUSH1 0x40 DUP3 DUP3 SWAP1 POP EQ DUP1 PUSH2 0xBE8 JUMPI POP PUSH1 0x41 DUP3 DUP3 SWAP1 POP EQ JUMPDEST PUSH2 0xC27 JUMPI PUSH1 0x40 MLOAD PUSH32 0x8C379A000000000000000000000000000000000000000000000000000000000 DUP2 MSTORE PUSH1 0x4 ADD PUSH2 0xC1E SWAP1 PUSH2 0x1C27 JUMP JUMPDEST PUSH1 0x40 MLOAD DUP1 SWAP2 SUB SWAP1 REVERT JUMPDEST PUSH1 0x0 PUSH2 0xC3C PUSH2 0xC37 DUP12 DUP8 DUP8 PUSH2 0x574 JUMP JUMPDEST PUSH2 0xD9D JUMP JUMPDEST SWAP1 POP PUSH1 0x1 PUSH1 0x0 PUSH2 0xC4B DUP13 PUSH2 0xACE JUMP JUMPDEST PUSH20 0xFFFFFFFFFFFFFFFFFFFFFFFFFFFFFFFFFFFFFFFF AND PUSH20 0xFFFFFFFFFFFFFFFFFFFFFFFFFFFFFFFFFFFFFFFF AND DUP2 MSTORE PUSH1 0x20 ADD SWAP1 DUP2 MSTORE PUSH1 0x20 ADD PUSH1 0x0 KECCAK256 PUSH1 0x0 DUP2 SLOAD DUP1 SWAP3 SWAP2 SWAP1 PUSH2 0xC96 SWAP1 PUSH2 0x1C76 JUMP JUMPDEST SWAP2 SWAP1 POP SSTORE POP PUSH2 0xCE9 DUP2 DUP5 DUP5 DUP1 DUP1 PUSH1 0x1F ADD PUSH1 0x20 DUP1 SWAP2 DIV MUL PUSH1 0x20 ADD PUSH1 0x40 MLOAD SWAP1 DUP2 ADD PUSH1 0x40 MSTORE DUP1 SWAP4 SWAP3 SWAP2 SWAP1 DUP2 DUP2 MSTORE PUSH1 0x20 ADD DUP4 DUP4 DUP1 DUP3 DUP5 CALLDATACOPY PUSH1 0x0 DUP2 DUP5 ADD MSTORE PUSH1 0x1F NOT PUSH1 0x1F DUP3 ADD AND SWAP1 POP DUP1 DUP4 ADD SWAP3 POP POP POP POP POP POP POP PUSH2 0xDD3 JUMP JUMPDEST PUSH20 0xFFFFFFFFFFFFFFFFFFFFFFFFFFFFFFFFFFFFFFFF AND PUSH32 0x0 PUSH20 0xFFFFFFFFFFFFFFFFFFFFFFFFFFFFFFFFFFFFFFFF AND EQ PUSH2 0xD66 JUMPI PUSH2 0xD47 PUSH1 0x1 DUP7 DUP7 PUSH2 0xDFA JUMP JUMPDEST PUSH1 0x40 MLOAD DUP1 PUSH1 0x20 ADD PUSH1 0x40 MSTORE DUP1 PUSH1 0x0 DUP2 MSTORE POP SWAP1 SWAP7 POP SWAP7 POP POP POP POP POP POP PUSH2 0xD8D JUMP JUMPDEST PUSH2 0xD72 PUSH1 0x0 DUP7 DUP7 PUSH2 0xDFA JUMP JUMPDEST PUSH1 0x40 MLOAD DUP1 PUSH1 0x20 ADD PUSH1 0x40 MSTORE DUP1 PUSH1 0x0 DUP2 MSTORE POP SWAP1 SWAP7 POP SWAP7 POP POP POP POP POP POP JUMPDEST SWAP4 POP SWAP4 SWAP2 POP POP JUMP JUMPDEST PUSH1 0x0 CALLER SWAP1 POP SWAP1 JUMP JUMPDEST PUSH1 0x0 PUSH32 0x19457468657265756D205369676E6564204D6573736167653A0A333200000000 PUSH1 0x0 MSTORE DUP2 PUSH1 0x1C MSTORE PUSH1 0x3C PUSH1 0x0 KECCAK256 SWAP1 POP SWAP2 SWAP1 POP JUMP JUMPDEST PUSH1 0x0 DUP1 PUSH1 0x0 PUSH2 0xDE2 DUP6 DUP6 PUSH2 0xE33 JUMP JUMPDEST SWAP2 POP SWAP2 POP PUSH2 0xDEF DUP2 PUSH2 0xE84 JUMP JUMPDEST DUP2 SWAP3 POP POP POP SWAP3 SWAP2 POP POP JUMP JUMPDEST PUSH1 0x0 PUSH1 0xD0 DUP3 PUSH6 0xFFFFFFFFFFFF AND SWAP1 SHL PUSH1 0xA0 DUP5 PUSH6 0xFFFFFFFFFFFF AND SWAP1 SHL DUP6 PUSH2 0xE22 JUMPI PUSH1 0x0 PUSH2 0xE25 JUMP JUMPDEST PUSH1 0x1 JUMPDEST PUSH1 0xFF AND OR OR SWAP1 POP SWAP4 SWAP3 POP POP POP JUMP JUMPDEST PUSH1 0x0 DUP1 PUSH1 0x41 DUP4 MLOAD SUB PUSH2 0xE74 JUMPI PUSH1 0x0 DUP1 PUSH1 0x0 PUSH1 0x20 DUP7 ADD MLOAD SWAP3 POP PUSH1 0x40 DUP7 ADD MLOAD SWAP2 POP PUSH1 0x60 DUP7 ADD MLOAD PUSH1 0x0 BYTE SWAP1 POP PUSH2 0xE68 DUP8 DUP3 DUP6 DUP6 PUSH2 0xFEA JUMP JUMPDEST SWAP5 POP SWAP5 POP POP POP POP PUSH2 0xE7D JUMP JUMPDEST PUSH1 0x0 PUSH1 0x2 SWAP2 POP SWAP2 POP JUMPDEST SWAP3 POP SWAP3 SWAP1 POP JUMP JUMPDEST PUSH1 0x0 PUSH1 0x4 DUP2 GT ISZERO PUSH2 0xE98 JUMPI PUSH2 0xE97 PUSH2 0x1CBE JUMP JUMPDEST JUMPDEST DUP2 PUSH1 0x4 DUP2 GT ISZERO PUSH2 0xEAB JUMPI PUSH2 0xEAA PUSH2 0x1CBE JUMP JUMPDEST JUMPDEST SUB ISZERO PUSH2 0xFE7 JUMPI PUSH1 0x1 PUSH1 0x4 DUP2 GT ISZERO PUSH2 0xEC5 JUMPI PUSH2 0xEC4 PUSH2 0x1CBE JUMP JUMPDEST JUMPDEST DUP2 PUSH1 0x4 DUP2 GT ISZERO PUSH2 0xED8 JUMPI PUSH2 0xED7 PUSH2 0x1CBE JUMP JUMPDEST JUMPDEST SUB PUSH2 0xF18 JUMPI PUSH1 0x40 MLOAD PUSH32 0x8C379A000000000000000000000000000000000000000000000000000000000 DUP2 MSTORE PUSH1 0x4 ADD PUSH2 0xF0F SWAP1 PUSH2 0x1D39 JUMP JUMPDEST PUSH1 0x40 MLOAD DUP1 SWAP2 SUB SWAP1 REVERT JUMPDEST PUSH1 0x2 PUSH1 0x4 DUP2 GT ISZERO PUSH2 0xF2C JUMPI PUSH2 0xF2B PUSH2 0x1CBE JUMP JUMPDEST JUMPDEST DUP2 PUSH1 0x4 DUP2 GT ISZERO PUSH2 0xF3F JUMPI PUSH2 0xF3E PUSH2 0x1CBE JUMP JUMPDEST JUMPDEST SUB PUSH2 0xF7F JUMPI PUSH1 0x40 MLOAD PUSH32 0x8C379A000000000000000000000000000000000000000000000000000000000 DUP2 MSTORE PUSH1 0x4 ADD PUSH2 0xF76 SWAP1 PUSH2 0x1DA5 JUMP JUMPDEST PUSH1 0x40 MLOAD DUP1 SWAP2 SUB SWAP1 REVERT JUMPDEST PUSH1 0x3 PUSH1 0x4 DUP2 GT ISZERO PUSH2 0xF93 JUMPI PUSH2 0xF92 PUSH2 0x1CBE JUMP JUMPDEST JUMPDEST DUP2 PUSH1 0x4 DUP2 GT ISZERO PUSH2 0xFA6 JUMPI PUSH2 0xFA5 PUSH2 0x1CBE JUMP JUMPDEST JUMPDEST SUB PUSH2 0xFE6 JUMPI PUSH1 0x40 MLOAD PUSH32 0x8C379A000000000000000000000000000000000000000000000000000000000 DUP2 MSTORE PUSH1 0x4 ADD PUSH2 0xFDD SWAP1 PUSH2 0x1E37 JUMP JUMPDEST PUSH1 0x40 MLOAD DUP1 SWAP2 SUB SWAP1 REVERT JUMPDEST JUMPDEST POP JUMP JUMPDEST PUSH1 0x0 DUP1 PUSH32 0x7FFFFFFFFFFFFFFFFFFFFFFFFFFFFFFF5D576E7357A4501DDFE92F46681B20A0 DUP4 PUSH1 0x0 SHR GT ISZERO PUSH2 0x1025 JUMPI PUSH1 0x0 PUSH1 0x3 SWAP2 POP SWAP2 POP PUSH2 0x10C3 JUMP JUMPDEST PUSH1 0x0 PUSH1 0x1 DUP8 DUP8 DUP8 DUP8 PUSH1 0x40 MLOAD PUSH1 0x0 DUP2 MSTORE PUSH1 0x20 ADD PUSH1 0x40 MSTORE PUSH1 0x40 MLOAD PUSH2 0x104A SWAP5 SWAP4 SWAP3 SWAP2 SWAP1 PUSH2 0x1E73 JUMP JUMPDEST PUSH1 0x20 PUSH1 0x40 MLOAD PUSH1 0x20 DUP2 SUB SWAP1 DUP1 DUP5 SUB SWAP1 DUP6 GAS STATICCALL ISZERO DUP1 ISZERO PUSH2 0x106C JUMPI RETURNDATASIZE PUSH1 0x0 DUP1 RETURNDATACOPY RETURNDATASIZE PUSH1 0x0 REVERT JUMPDEST POP POP POP PUSH1 0x20 PUSH1 0x40 MLOAD SUB MLOAD SWAP1 POP PUSH1 0x0 PUSH20 0xFFFFFFFFFFFFFFFFFFFFFFFFFFFFFFFFFFFFFFFF AND DUP2 PUSH20 0xFFFFFFFFFFFFFFFFFFFFFFFFFFFFFFFFFFFFFFFF AND SUB PUSH2 0x10BA JUMPI PUSH1 0x0 PUSH1 0x1 SWAP3 POP SWAP3 POP POP PUSH2 0x10C3 JUMP JUMPDEST DUP1 PUSH1 0x0 SWAP3 POP SWAP3 POP POP JUMPDEST SWAP5 POP SWAP5 SWAP3 POP POP POP JUMP JUMPDEST PUSH1 0x0 DUP1 REVERT JUMPDEST PUSH1 0x0 DUP1 REVERT JUMPDEST PUSH1 0x0 PUSH4 0xFFFFFFFF DUP3 AND SWAP1 POP SWAP2 SWAP1 POP JUMP JUMPDEST PUSH2 0x10EF DUP2 PUSH2 0x10D6 JUMP JUMPDEST DUP2 EQ PUSH2 0x10FA JUMPI PUSH1 0x0 DUP1 REVERT JUMPDEST POP JUMP JUMPDEST PUSH1 0x0 DUP2 CALLDATALOAD SWAP1 POP PUSH2 0x110C DUP2 PUSH2 0x10E6 JUMP JUMPDEST SWAP3 SWAP2 POP POP JUMP JUMPDEST PUSH1 0x0 PUSH1 0x20 DUP3 DUP5 SUB SLT ISZERO PUSH2 0x1128 JUMPI PUSH2 0x1127 PUSH2 0x10CC JUMP JUMPDEST JUMPDEST PUSH1 0x0 PUSH2 0x1136 DUP5 DUP3 DUP6 ADD PUSH2 0x10FD JUMP JUMPDEST SWAP2 POP POP SWAP3 SWAP2 POP POP JUMP JUMPDEST PUSH1 0x0 PUSH20 0xFFFFFFFFFFFFFFFFFFFFFFFFFFFFFFFFFFFFFFFF DUP3 AND SWAP1 POP SWAP2 SWAP1 POP JUMP JUMPDEST PUSH1 0x0 PUSH2 0x116A DUP3 PUSH2 0x113F JUMP JUMPDEST SWAP1 POP SWAP2 SWAP1 POP JUMP JUMPDEST PUSH2 0x117A DUP2 PUSH2 0x115F JUMP JUMPDEST DUP2 EQ PUSH2 0x1185 JUMPI PUSH1 0x0 DUP1 REVERT JUMPDEST POP JUMP JUMPDEST PUSH1 0x0 DUP2 CALLDATALOAD SWAP1 POP PUSH2 0x1197 DUP2 PUSH2 0x1171 JUMP JUMPDEST SWAP3 SWAP2 POP POP JUMP JUMPDEST PUSH1 0x0 DUP2 SWAP1 POP SWAP2 SWAP1 POP JUMP JUMPDEST PUSH2 0x11B0 DUP2 PUSH2 0x119D JUMP JUMPDEST DUP2 EQ PUSH2 0x11BB JUMPI PUSH1 0x0 DUP1 REVERT JUMPDEST POP JUMP JUMPDEST PUSH1 0x0 DUP2 CALLDATALOAD SWAP1 POP PUSH2 0x11CD DUP2 PUSH2 0x11A7 JUMP JUMPDEST SWAP3 SWAP2 POP POP JUMP JUMPDEST PUSH1 0x0 DUP1 PUSH1 0x40 DUP4 DUP6 SUB SLT ISZERO PUSH2 0x11EA JUMPI PUSH2 0x11E9 PUSH2 0x10CC JUMP JUMPDEST JUMPDEST PUSH1 0x0 PUSH2 0x11F8 DUP6 DUP3 DUP7 ADD PUSH2 0x1188 JUMP JUMPDEST SWAP3 POP POP PUSH1 0x20 PUSH2 0x1209 DUP6 DUP3 DUP7 ADD PUSH2 0x11BE JUMP JUMPDEST SWAP2 POP POP SWAP3 POP SWAP3 SWAP1 POP JUMP JUMPDEST PUSH1 0x0 PUSH2 0x121E DUP3 PUSH2 0x113F JUMP JUMPDEST SWAP1 POP SWAP2 SWAP1 POP JUMP JUMPDEST PUSH2 0x122E DUP2 PUSH2 0x1213 JUMP JUMPDEST DUP3 MSTORE POP POP JUMP JUMPDEST PUSH1 0x0 PUSH1 0x20 DUP3 ADD SWAP1 POP PUSH2 0x1249 PUSH1 0x0 DUP4 ADD DUP5 PUSH2 0x1225 JUMP JUMPDEST SWAP3 SWAP2 POP POP JUMP JUMPDEST PUSH1 0x0 DUP1 REVERT JUMPDEST PUSH1 0x0 DUP1 REVERT JUMPDEST PUSH1 0x0 DUP1 REVERT JUMPDEST PUSH1 0x0 DUP1 DUP4 PUSH1 0x1F DUP5 ADD SLT PUSH2 0x1274 JUMPI PUSH2 0x1273 PUSH2 0x124F JUMP JUMPDEST JUMPDEST DUP3 CALLDATALOAD SWAP1 POP PUSH8 0xFFFFFFFFFFFFFFFF DUP2 GT ISZERO PUSH2 0x1291 JUMPI PUSH2 0x1290 PUSH2 0x1254 JUMP JUMPDEST JUMPDEST PUSH1 0x20 DUP4 ADD SWAP2 POP DUP4 PUSH1 0x1 DUP3 MUL DUP4 ADD GT ISZERO PUSH2 0x12AD JUMPI PUSH2 0x12AC PUSH2 0x1259 JUMP JUMPDEST JUMPDEST SWAP3 POP SWAP3 SWAP1 POP JUMP JUMPDEST PUSH1 0x0 DUP1 PUSH1 0x20 DUP4 DUP6 SUB SLT ISZERO PUSH2 0x12CB JUMPI PUSH2 0x12CA PUSH2 0x10CC JUMP JUMPDEST JUMPDEST PUSH1 0x0 DUP4 ADD CALLDATALOAD PUSH8 0xFFFFFFFFFFFFFFFF DUP2 GT ISZERO PUSH2 0x12E9 JUMPI PUSH2 0x12E8 PUSH2 0x10D1 JUMP JUMPDEST JUMPDEST PUSH2 0x12F5 DUP6 DUP3 DUP7 ADD PUSH2 0x125E JUMP JUMPDEST SWAP3 POP SWAP3 POP POP SWAP3 POP SWAP3 SWAP1 POP JUMP JUMPDEST PUSH1 0x0 PUSH6 0xFFFFFFFFFFFF DUP3 AND SWAP1 POP SWAP2 SWAP1 POP JUMP JUMPDEST PUSH2 0x131C DUP2 PUSH2 0x1301 JUMP JUMPDEST DUP3 MSTORE POP POP JUMP JUMPDEST PUSH1 0x0 DUP3 DUP3 MSTORE PUSH1 0x20 DUP3 ADD SWAP1 POP SWAP3 SWAP2 POP POP JUMP JUMPDEST DUP3 DUP2 DUP4 CALLDATACOPY PUSH1 0x0 DUP4 DUP4 ADD MSTORE POP POP POP JUMP JUMPDEST PUSH1 0x0 PUSH1 0x1F NOT PUSH1 0x1F DUP4 ADD AND SWAP1 POP SWAP2 SWAP1 POP JUMP JUMPDEST PUSH1 0x0 PUSH2 0x135F DUP4 DUP6 PUSH2 0x1322 JUMP JUMPDEST SWAP4 POP PUSH2 0x136C DUP4 DUP6 DUP5 PUSH2 0x1333 JUMP JUMPDEST PUSH2 0x1375 DUP4 PUSH2 0x1342 JUMP JUMPDEST DUP5 ADD SWAP1 POP SWAP4 SWAP3 POP POP POP JUMP JUMPDEST PUSH1 0x0 PUSH1 0x60 DUP3 ADD SWAP1 POP PUSH2 0x1395 PUSH1 0x0 DUP4 ADD DUP8 PUSH2 0x1313 JUMP JUMPDEST PUSH2 0x13A2 PUSH1 0x20 DUP4 ADD DUP7 PUSH2 0x1313 JUMP JUMPDEST DUP2 DUP2 SUB PUSH1 0x40 DUP4 ADD MSTORE PUSH2 0x13B5 DUP2 DUP5 DUP7 PUSH2 0x1353 JUMP JUMPDEST SWAP1 POP SWAP6 SWAP5 POP POP POP POP POP JUMP JUMPDEST PUSH1 0x0 DUP1 REVERT JUMPDEST PUSH1 0x0 PUSH2 0x160 DUP3 DUP5 SUB SLT ISZERO PUSH2 0x13DC JUMPI PUSH2 0x13DB PUSH2 0x13C0 JUMP JUMPDEST JUMPDEST DUP2 SWAP1 POP SWAP3 SWAP2 POP POP JUMP JUMPDEST PUSH2 0x13EE DUP2 PUSH2 0x1301 JUMP JUMPDEST DUP2 EQ PUSH2 0x13F9 JUMPI PUSH1 0x0 DUP1 REVERT JUMPDEST POP JUMP JUMPDEST PUSH1 0x0 DUP2 CALLDATALOAD SWAP1 POP PUSH2 0x140B DUP2 PUSH2 0x13E5 JUMP JUMPDEST SWAP3 SWAP2 POP POP JUMP JUMPDEST PUSH1 0x0 DUP1 PUSH1 0x0 PUSH1 0x60 DUP5 DUP7 SUB SLT ISZERO PUSH2 0x142A JUMPI PUSH2 0x1429 PUSH2 0x10CC JUMP JUMPDEST JUMPDEST PUSH1 0x0 DUP5 ADD CALLDATALOAD PUSH8 0xFFFFFFFFFFFFFFFF DUP2 GT ISZERO PUSH2 0x1448 JUMPI PUSH2 0x1447 PUSH2 0x10D1 JUMP JUMPDEST JUMPDEST PUSH2 0x1454 DUP7 DUP3 DUP8 ADD PUSH2 0x13C5 JUMP JUMPDEST SWAP4 POP POP PUSH1 0x20 PUSH2 0x1465 DUP7 DUP3 DUP8 ADD PUSH2 0x13FC JUMP JUMPDEST SWAP3 POP POP PUSH1 0x40 PUSH2 0x1476 DUP7 DUP3 DUP8 ADD PUSH2 0x13FC JUMP JUMPDEST SWAP2 POP POP SWAP3 POP SWAP3 POP SWAP3 JUMP JUMPDEST PUSH1 0x0 DUP2 SWAP1 POP SWAP2 SWAP1 POP JUMP JUMPDEST PUSH2 0x1493 DUP2 PUSH2 0x1480 JUMP JUMPDEST DUP3 MSTORE POP POP JUMP JUMPDEST PUSH1 0x0 PUSH1 0x20 DUP3 ADD SWAP1 POP PUSH2 0x14AE PUSH1 0x0 DUP4 ADD DUP5 PUSH2 0x148A JUMP JUMPDEST SWAP3 SWAP2 POP POP JUMP JUMPDEST PUSH2 0x14BD DUP2 PUSH2 0x1213 JUMP JUMPDEST DUP2 EQ PUSH2 0x14C8 JUMPI PUSH1 0x0 DUP1 REVERT JUMPDEST POP JUMP JUMPDEST PUSH1 0x0 DUP2 CALLDATALOAD SWAP1 POP PUSH2 0x14DA DUP2 PUSH2 0x14B4 JUMP JUMPDEST SWAP3 SWAP2 POP POP JUMP JUMPDEST PUSH1 0x0 PUSH1 0x20 DUP3 DUP5 SUB SLT ISZERO PUSH2 0x14F6 JUMPI PUSH2 0x14F5 PUSH2 0x10CC JUMP JUMPDEST JUMPDEST PUSH1 0x0 PUSH2 0x1504 DUP5 DUP3 DUP6 ADD PUSH2 0x14CB JUMP JUMPDEST SWAP2 POP POP SWAP3 SWAP2 POP POP JUMP JUMPDEST PUSH2 0x1516 DUP2 PUSH2 0x119D JUMP JUMPDEST DUP3 MSTORE POP POP JUMP JUMPDEST PUSH1 0x0 PUSH1 0x20 DUP3 ADD SWAP1 POP PUSH2 0x1531 PUSH1 0x0 DUP4 ADD DUP5 PUSH2 0x150D JUMP JUMPDEST SWAP3 SWAP2 POP POP JUMP JUMPDEST PUSH1 0x3 DUP2 LT PUSH2 0x1544 JUMPI PUSH1 0x0 DUP1 REVERT JUMPDEST POP JUMP JUMPDEST PUSH1 0x0 DUP2 CALLDATALOAD SWAP1 POP PUSH2 0x1556 DUP2 PUSH2 0x1537 JUMP JUMPDEST SWAP3 SWAP2 POP POP JUMP JUMPDEST PUSH1 0x0 DUP1 PUSH1 0x0 DUP1 PUSH1 0x60 DUP6 DUP8 SUB SLT ISZERO PUSH2 0x1576 JUMPI PUSH2 0x1575 PUSH2 0x10CC JUMP JUMPDEST JUMPDEST PUSH1 0x0 PUSH2 0x1584 DUP8 DUP3 DUP9 ADD PUSH2 0x1547 JUMP JUMPDEST SWAP5 POP POP PUSH1 0x20 DUP6 ADD CALLDATALOAD PUSH8 0xFFFFFFFFFFFFFFFF DUP2 GT ISZERO PUSH2 0x15A5 JUMPI PUSH2 0x15A4 PUSH2 0x10D1 JUMP JUMPDEST JUMPDEST PUSH2 0x15B1 DUP8 DUP3 DUP9 ADD PUSH2 0x125E JUMP JUMPDEST SWAP4 POP SWAP4 POP POP PUSH1 0x40 PUSH2 0x15C4 DUP8 DUP3 DUP9 ADD PUSH2 0x11BE JUMP JUMPDEST SWAP2 POP POP SWAP3 SWAP6 SWAP2 SWAP5 POP SWAP3 POP JUMP JUMPDEST PUSH1 0x0 DUP2 SWAP1 POP SWAP2 SWAP1 POP JUMP JUMPDEST PUSH1 0x0 PUSH2 0x15F5 PUSH2 0x15F0 PUSH2 0x15EB DUP5 PUSH2 0x113F JUMP JUMPDEST PUSH2 0x15D0 JUMP JUMPDEST PUSH2 0x113F JUMP JUMPDEST SWAP1 POP SWAP2 SWAP1 POP JUMP JUMPDEST PUSH1 0x0 PUSH2 0x1607 DUP3 PUSH2 0x15DA JUMP JUMPDEST SWAP1 POP SWAP2 SWAP1 POP JUMP JUMPDEST PUSH1 0x0 PUSH2 0x1619 DUP3 PUSH2 0x15FC JUMP JUMPDEST SWAP1 POP SWAP2 SWAP1 POP JUMP JUMPDEST PUSH2 0x1629 DUP2 PUSH2 0x160E JUMP JUMPDEST DUP3 MSTORE POP POP JUMP JUMPDEST PUSH1 0x0 PUSH1 0x20 DUP3 ADD SWAP1 POP PUSH2 0x1644 PUSH1 0x0 DUP4 ADD DUP5 PUSH2 0x1620 JUMP JUMPDEST SWAP3 SWAP2 POP POP JUMP JUMPDEST PUSH1 0x0 PUSH1 0x20 DUP3 DUP5 SUB SLT ISZERO PUSH2 0x1660 JUMPI PUSH2 0x165F PUSH2 0x10CC JUMP JUMPDEST JUMPDEST PUSH1 0x0 PUSH2 0x166E DUP5 DUP3 DUP6 ADD PUSH2 0x1188 JUMP JUMPDEST SWAP2 POP POP SWAP3 SWAP2 POP POP JUMP JUMPDEST PUSH2 0x1680 DUP2 PUSH2 0x1480 JUMP JUMPDEST DUP2 EQ PUSH2 0x168B JUMPI PUSH1 0x0 DUP1 REVERT JUMPDEST POP JUMP JUMPDEST PUSH1 0x0 DUP2 CALLDATALOAD SWAP1 POP PUSH2 0x169D DUP2 PUSH2 0x1677 JUMP JUMPDEST SWAP3 SWAP2 POP POP JUMP JUMPDEST PUSH1 0x0 DUP1 PUSH1 0x0 PUSH1 0x60 DUP5 DUP7 SUB SLT ISZERO PUSH2 0x16BC JUMPI PUSH2 0x16BB PUSH2 0x10CC JUMP JUMPDEST JUMPDEST PUSH1 0x0 DUP5 ADD CALLDATALOAD PUSH8 0xFFFFFFFFFFFFFFFF DUP2 GT ISZERO PUSH2 0x16DA JUMPI PUSH2 0x16D9 PUSH2 0x10D1 JUMP JUMPDEST JUMPDEST PUSH2 0x16E6 DUP7 DUP3 DUP8 ADD PUSH2 0x13C5 JUMP JUMPDEST SWAP4 POP POP PUSH1 0x20 PUSH2 0x16F7 DUP7 DUP3 DUP8 ADD PUSH2 0x168E JUMP JUMPDEST SWAP3 POP POP PUSH1 0x40 PUSH2 0x1708 DUP7 DUP3 DUP8 ADD PUSH2 0x11BE JUMP JUMPDEST SWAP2 POP POP SWAP3 POP SWAP3 POP SWAP3 JUMP JUMPDEST PUSH1 0x0 DUP2 MLOAD SWAP1 POP SWAP2 SWAP1 POP JUMP JUMPDEST PUSH1 0x0 JUMPDEST DUP4 DUP2 LT ISZERO PUSH2 0x173B JUMPI DUP1 DUP3 ADD MLOAD DUP2 DUP5 ADD MSTORE PUSH1 0x20 DUP2 ADD SWAP1 POP PUSH2 0x1720 JUMP JUMPDEST PUSH1 0x0 DUP5 DUP5 ADD MSTORE POP POP POP POP JUMP JUMPDEST PUSH1 0x0 PUSH2 0x1752 DUP3 PUSH2 0x1712 JUMP JUMPDEST PUSH2 0x175C DUP2 DUP6 PUSH2 0x1322 JUMP JUMPDEST SWAP4 POP PUSH2 0x176C DUP2 DUP6 PUSH1 0x20 DUP7 ADD PUSH2 0x171D JUMP JUMPDEST PUSH2 0x1775 DUP2 PUSH2 0x1342 JUMP JUMPDEST DUP5 ADD SWAP2 POP POP SWAP3 SWAP2 POP POP JUMP JUMPDEST PUSH1 0x0 PUSH1 0x40 DUP3 ADD SWAP1 POP DUP2 DUP2 SUB PUSH1 0x0 DUP4 ADD MSTORE PUSH2 0x179A DUP2 DUP6 PUSH2 0x1747 JUMP JUMPDEST SWAP1 POP PUSH2 0x17A9 PUSH1 0x20 DUP4 ADD DUP5 PUSH2 0x150D JUMP JUMPDEST SWAP4 SWAP3 POP POP POP JUMP JUMPDEST PUSH2 0x17B9 DUP2 PUSH2 0x10D6 JUMP JUMPDEST DUP3 MSTORE POP POP JUMP JUMPDEST PUSH1 0x0 PUSH1 0x20 DUP3 ADD SWAP1 POP PUSH2 0x17D4 PUSH1 0x0 DUP4 ADD DUP5 PUSH2 0x17B0 JUMP JUMPDEST SWAP3 SWAP2 POP POP JUMP JUMPDEST PUSH2 0x17E3 DUP2 PUSH2 0x115F JUMP JUMPDEST DUP3 MSTORE POP POP JUMP JUMPDEST PUSH1 0x0 PUSH1 0x40 DUP3 ADD SWAP1 POP PUSH2 0x17FE PUSH1 0x0 DUP4 ADD DUP6 PUSH2 0x17DA JUMP JUMPDEST PUSH2 0x180B PUSH1 0x20 DUP4 ADD DUP5 PUSH2 0x150D JUMP JUMPDEST SWAP4 SWAP3 POP POP POP JUMP JUMPDEST PUSH1 0x0 DUP1 REVERT JUMPDEST PUSH1 0x0 DUP1 REVERT JUMPDEST PUSH1 0x0 DUP1 DUP6 DUP6 GT ISZERO PUSH2 0x1830 JUMPI PUSH2 0x182F PUSH2 0x1812 JUMP JUMPDEST JUMPDEST DUP4 DUP7 GT ISZERO PUSH2 0x1841 JUMPI PUSH2 0x1840 PUSH2 0x1817 JUMP JUMPDEST JUMPDEST PUSH1 0x1 DUP6 MUL DUP4 ADD SWAP2 POP DUP5 DUP7 SUB SWAP1 POP SWAP5 POP SWAP5 SWAP3 POP POP POP JUMP JUMPDEST PUSH1 0x0 DUP1 PUSH1 0x40 DUP4 DUP6 SUB SLT ISZERO PUSH2 0x186E JUMPI PUSH2 0x186D PUSH2 0x10CC JUMP JUMPDEST JUMPDEST PUSH1 0x0 PUSH2 0x187C DUP6 DUP3 DUP7 ADD PUSH2 0x13FC JUMP JUMPDEST SWAP3 POP POP PUSH1 0x20 PUSH2 0x188D DUP6 DUP3 DUP7 ADD PUSH2 0x13FC JUMP JUMPDEST SWAP2 POP POP SWAP3 POP SWAP3 SWAP1 POP JUMP JUMPDEST PUSH1 0x0 PUSH1 0xC0 DUP3 ADD SWAP1 POP DUP2 DUP2 SUB PUSH1 0x0 DUP4 ADD MSTORE PUSH2 0x18B1 DUP2 DUP10 PUSH2 0x1747 JUMP JUMPDEST SWAP1 POP PUSH2 0x18C0 PUSH1 0x20 DUP4 ADD DUP9 PUSH2 0x150D JUMP JUMPDEST PUSH2 0x18CD PUSH1 0x40 DUP4 ADD DUP8 PUSH2 0x1225 JUMP JUMPDEST PUSH2 0x18DA PUSH1 0x60 DUP4 ADD DUP7 PUSH2 0x150D JUMP JUMPDEST PUSH2 0x18E7 PUSH1 0x80 DUP4 ADD DUP6 PUSH2 0x1313 JUMP JUMPDEST PUSH2 0x18F4 PUSH1 0xA0 DUP4 ADD DUP5 PUSH2 0x1313 JUMP JUMPDEST SWAP8 SWAP7 POP POP POP POP POP POP POP JUMP JUMPDEST PUSH1 0x0 PUSH1 0x20 DUP3 ADD SWAP1 POP PUSH2 0x1914 PUSH1 0x0 DUP4 ADD DUP5 PUSH2 0x17DA JUMP JUMPDEST SWAP3 SWAP2 POP POP JUMP JUMPDEST PUSH1 0x0 DUP2 MLOAD SWAP1 POP PUSH2 0x1929 DUP2 PUSH2 0x11A7 JUMP JUMPDEST SWAP3 SWAP2 POP POP JUMP JUMPDEST PUSH1 0x0 PUSH1 0x20 DUP3 DUP5 SUB SLT ISZERO PUSH2 0x1945 JUMPI PUSH2 0x1944 PUSH2 0x10CC JUMP JUMPDEST JUMPDEST PUSH1 0x0 PUSH2 0x1953 DUP5 DUP3 DUP6 ADD PUSH2 0x191A JUMP JUMPDEST SWAP2 POP POP SWAP3 SWAP2 POP POP JUMP JUMPDEST PUSH1 0x0 DUP3 DUP3 MSTORE PUSH1 0x20 DUP3 ADD SWAP1 POP SWAP3 SWAP2 POP POP JUMP JUMPDEST PUSH32 0x4F776E61626C653A206E6577206F776E657220697320746865207A65726F2061 PUSH1 0x0 DUP3 ADD MSTORE PUSH32 0x6464726573730000000000000000000000000000000000000000000000000000 PUSH1 0x20 DUP3 ADD MSTORE POP JUMP JUMPDEST PUSH1 0x0 PUSH2 0x19C9 PUSH1 0x26 DUP4 PUSH2 0x195C JUMP JUMPDEST SWAP2 POP PUSH2 0x19D4 DUP3 PUSH2 0x196D JUMP JUMPDEST PUSH1 0x40 DUP3 ADD SWAP1 POP SWAP2 SWAP1 POP JUMP JUMPDEST PUSH1 0x0 PUSH1 0x20 DUP3 ADD SWAP1 POP DUP2 DUP2 SUB PUSH1 0x0 DUP4 ADD MSTORE PUSH2 0x19F8 DUP2 PUSH2 0x19BC JUMP JUMPDEST SWAP1 POP SWAP2 SWAP1 POP JUMP JUMPDEST PUSH32 0x4F776E61626C653A2063616C6C6572206973206E6F7420746865206F776E6572 PUSH1 0x0 DUP3 ADD MSTORE POP JUMP JUMPDEST PUSH1 0x0 PUSH2 0x1A35 PUSH1 0x20 DUP4 PUSH2 0x195C JUMP JUMPDEST SWAP2 POP PUSH2 0x1A40 DUP3 PUSH2 0x19FF JUMP JUMPDEST PUSH1 0x20 DUP3 ADD SWAP1 POP SWAP2 SWAP1 POP JUMP JUMPDEST PUSH1 0x0 PUSH1 0x20 DUP3 ADD SWAP1 POP DUP2 DUP2 SUB PUSH1 0x0 DUP4 ADD MSTORE PUSH2 0x1A64 DUP2 PUSH2 0x1A28 JUMP JUMPDEST SWAP1 POP SWAP2 SWAP1 POP JUMP JUMPDEST PUSH1 0x0 DUP1 REVERT JUMPDEST PUSH1 0x0 DUP1 REVERT JUMPDEST PUSH1 0x0 DUP1 REVERT JUMPDEST PUSH1 0x0 DUP1 DUP4 CALLDATALOAD PUSH1 0x1 PUSH1 0x20 SUB DUP5 CALLDATASIZE SUB SUB DUP2 SLT PUSH2 0x1A97 JUMPI PUSH2 0x1A96 PUSH2 0x1A6B JUMP JUMPDEST JUMPDEST DUP1 DUP5 ADD SWAP3 POP DUP3 CALLDATALOAD SWAP2 POP PUSH8 0xFFFFFFFFFFFFFFFF DUP3 GT ISZERO PUSH2 0x1AB9 JUMPI PUSH2 0x1AB8 PUSH2 0x1A70 JUMP JUMPDEST JUMPDEST PUSH1 0x20 DUP4 ADD SWAP3 POP PUSH1 0x1 DUP3 MUL CALLDATASIZE SUB DUP4 SGT ISZERO PUSH2 0x1AD5 JUMPI PUSH2 0x1AD4 PUSH2 0x1A75 JUMP JUMPDEST JUMPDEST POP SWAP3 POP SWAP3 SWAP1 POP JUMP JUMPDEST PUSH32 0x53656E646572206E6F7420456E747279506F696E740000000000000000000000 PUSH1 0x0 DUP3 ADD MSTORE POP JUMP JUMPDEST PUSH1 0x0 PUSH2 0x1B13 PUSH1 0x15 DUP4 PUSH2 0x195C JUMP JUMPDEST SWAP2 POP PUSH2 0x1B1E DUP3 PUSH2 0x1ADD JUMP JUMPDEST PUSH1 0x20 DUP3 ADD SWAP1 POP SWAP2 SWAP1 POP JUMP JUMPDEST PUSH1 0x0 PUSH1 0x20 DUP3 ADD SWAP1 POP DUP2 DUP2 SUB PUSH1 0x0 DUP4 ADD MSTORE PUSH2 0x1B42 DUP2 PUSH2 0x1B06 JUMP JUMPDEST SWAP1 POP SWAP2 SWAP1 POP JUMP JUMPDEST PUSH32 0x6D757374206F7665727269646500000000000000000000000000000000000000 PUSH1 0x0 DUP3 ADD MSTORE POP JUMP JUMPDEST PUSH1 0x0 PUSH2 0x1B7F PUSH1 0xD DUP4 PUSH2 0x195C JUMP JUMPDEST SWAP2 POP PUSH2 0x1B8A DUP3 PUSH2 0x1B49 JUMP JUMPDEST PUSH1 0x20 DUP3 ADD SWAP1 POP SWAP2 SWAP1 POP JUMP JUMPDEST PUSH1 0x0 PUSH1 0x20 DUP3 ADD SWAP1 POP DUP2 DUP2 SUB PUSH1 0x0 DUP4 ADD MSTORE PUSH2 0x1BAE DUP2 PUSH2 0x1B72 JUMP JUMPDEST SWAP1 POP SWAP2 SWAP1 POP JUMP JUMPDEST PUSH32 0x566572696679696E675061796D61737465723A20696E76616C6964207369676E PUSH1 0x0 DUP3 ADD MSTORE PUSH32 0x6174757265206C656E67746820696E207061796D6173746572416E6444617461 PUSH1 0x20 DUP3 ADD MSTORE POP JUMP JUMPDEST PUSH1 0x0 PUSH2 0x1C11 PUSH1 0x40 DUP4 PUSH2 0x195C JUMP JUMPDEST SWAP2 POP PUSH2 0x1C1C DUP3 PUSH2 0x1BB5 JUMP JUMPDEST PUSH1 0x40 DUP3 ADD SWAP1 POP SWAP2 SWAP1 POP JUMP JUMPDEST PUSH1 0x0 PUSH1 0x20 DUP3 ADD SWAP1 POP DUP2 DUP2 SUB PUSH1 0x0 DUP4 ADD MSTORE PUSH2 0x1C40 DUP2 PUSH2 0x1C04 JUMP JUMPDEST SWAP1 POP SWAP2 SWAP1 POP JUMP JUMPDEST PUSH32 0x4E487B7100000000000000000000000000000000000000000000000000000000 PUSH1 0x0 MSTORE PUSH1 0x11 PUSH1 0x4 MSTORE PUSH1 0x24 PUSH1 0x0 REVERT JUMPDEST PUSH1 0x0 PUSH2 0x1C81 DUP3 PUSH2 0x119D JUMP JUMPDEST SWAP2 POP PUSH32 0xFFFFFFFFFFFFFFFFFFFFFFFFFFFFFFFFFFFFFFFFFFFFFFFFFFFFFFFFFFFFFFFF DUP3 SUB PUSH2 0x1CB3 JUMPI PUSH2 0x1CB2 PUSH2 0x1C47 JUMP JUMPDEST JUMPDEST PUSH1 0x1 DUP3 ADD SWAP1 POP SWAP2 SWAP1 POP JUMP JUMPDEST PUSH32 0x4E487B7100000000000000000000000000000000000000000000000000000000 PUSH1 0x0 MSTORE PUSH1 0x21 PUSH1 0x4 MSTORE PUSH1 0x24 PUSH1 0x0 REVERT JUMPDEST PUSH32 0x45434453413A20696E76616C6964207369676E61747572650000000000000000 PUSH1 0x0 DUP3 ADD MSTORE POP JUMP JUMPDEST PUSH1 0x0 PUSH2 0x1D23 PUSH1 0x18 DUP4 PUSH2 0x195C JUMP JUMPDEST SWAP2 POP PUSH2 0x1D2E DUP3 PUSH2 0x1CED JUMP JUMPDEST PUSH1 0x20 DUP3 ADD SWAP1 POP SWAP2 SWAP1 POP JUMP JUMPDEST PUSH1 0x0 PUSH1 0x20 DUP3 ADD SWAP1 POP DUP2 DUP2 SUB PUSH1 0x0 DUP4 ADD MSTORE PUSH2 0x1D52 DUP2 PUSH2 0x1D16 JUMP JUMPDEST SWAP1 POP SWAP2 SWAP1 POP JUMP JUMPDEST PUSH32 0x45434453413A20696E76616C6964207369676E6174757265206C656E67746800 PUSH1 0x0 DUP3 ADD MSTORE POP JUMP JUMPDEST PUSH1 0x0 PUSH2 0x1D8F PUSH1 0x1F DUP4 PUSH2 0x195C JUMP JUMPDEST SWAP2 POP PUSH2 0x1D9A DUP3 PUSH2 0x1D59 JUMP JUMPDEST PUSH1 0x20 DUP3 ADD SWAP1 POP SWAP2 SWAP1 POP JUMP JUMPDEST PUSH1 0x0 PUSH1 0x20 DUP3 ADD SWAP1 POP DUP2 DUP2 SUB PUSH1 0x0 DUP4 ADD MSTORE PUSH2 0x1DBE DUP2 PUSH2 0x1D82 JUMP JUMPDEST SWAP1 POP SWAP2 SWAP1 POP JUMP JUMPDEST PUSH32 0x45434453413A20696E76616C6964207369676E6174757265202773272076616C PUSH1 0x0 DUP3 ADD MSTORE PUSH32 0x7565000000000000000000000000000000000000000000000000000000000000 PUSH1 0x20 DUP3 ADD MSTORE POP JUMP JUMPDEST PUSH1 0x0 PUSH2 0x1E21 PUSH1 0x22 DUP4 PUSH2 0x195C JUMP JUMPDEST SWAP2 POP PUSH2 0x1E2C DUP3 PUSH2 0x1DC5 JUMP JUMPDEST PUSH1 0x40 DUP3 ADD SWAP1 POP SWAP2 SWAP1 POP JUMP JUMPDEST PUSH1 0x0 PUSH1 0x20 DUP3 ADD SWAP1 POP DUP2 DUP2 SUB PUSH1 0x0 DUP4 ADD MSTORE PUSH2 0x1E50 DUP2 PUSH2 0x1E14 JUMP JUMPDEST SWAP1 POP SWAP2 SWAP1 POP JUMP JUMPDEST PUSH1 0x0 PUSH1 0xFF DUP3 AND SWAP1 POP SWAP2 SWAP1 POP JUMP JUMPDEST PUSH2 0x1E6D DUP2 PUSH2 0x1E57 JUMP JUMPDEST DUP3 MSTORE POP POP JUMP JUMPDEST PUSH1 0x0 PUSH1 0x80 DUP3 ADD SWAP1 POP PUSH2 0x1E88 PUSH1 0x0 DUP4 ADD DUP8 PUSH2 0x148A JUMP JUMPDEST PUSH2 0x1E95 PUSH1 0x20 DUP4 ADD DUP7 PUSH2 0x1E64 JUMP JUMPDEST PUSH2 0x1EA2 PUSH1 0x40 DUP4 ADD DUP6 PUSH2 0x148A JUMP JUMPDEST PUSH2 0x1EAF PUSH1 0x60 DUP4 ADD DUP5 PUSH2 0x148A JUMP JUMPDEST SWAP6 SWAP5 POP POP POP POP POP JUMP INVALID LOG2 PUSH5 0x6970667358 0x22 SLT KECCAK256 GT SWAP15 0xA8 0xEC 0xD PUSH4 0x6F869724 PUSH13 0x1DFD6F969F6623F1C34E05158D PUSH13 0x4FD6EF0D4063AB64736F6C6343 STOP ADDMOD SLT STOP CALLER "
				},
				"gasEstimates": {
					"creation": {
						"codeDepositCost": "1583600",
						"executionCost": "infinite",
						"totalCost": "infinite"
					},
					"external": {
						"addStake(uint32)": "infinite",
						"deposit()": "infinite",
						"entryPoint()": "infinite",
						"getDeposit()": "infinite",
						"getHash((address,uint256,bytes,bytes,uint256,uint256,uint256,uint256,uint256,bytes,bytes),uint48,uint48)": "infinite",
						"owner()": "2545",
						"parsePaymasterAndData(bytes)": "infinite",
						"postOp(uint8,bytes,uint256)": "infinite",
						"renounceOwnership()": "30488",
						"senderNonce(address)": "2903",
						"transferOwnership(address)": "30810",
						"unlockStake()": "infinite",
						"validatePaymasterUserOp((address,uint256,bytes,bytes,uint256,uint256,uint256,uint256,uint256,bytes,bytes),bytes32,uint256)": "infinite",
						"verifyingSigner()": "infinite",
						"withdrawStake(address)": "infinite",
						"withdrawTo(address,uint256)": "infinite"
					},
					"internal": {
						"_validatePaymasterUserOp(struct UserOperation calldata,bytes32,uint256)": "infinite",
						"pack(struct UserOperation calldata)": "infinite"
					}
				},
				"methodIdentifiers": {
					"addStake(uint32)": "0396cb60",
					"deposit()": "d0e30db0",
					"entryPoint()": "b0d691fe",
					"getDeposit()": "c399ec88",
					"getHash((address,uint256,bytes,bytes,uint256,uint256,uint256,uint256,uint256,bytes,bytes),uint48,uint48)": "94e1fc19",
					"owner()": "8da5cb5b",
					"parsePaymasterAndData(bytes)": "94d4ad60",
					"postOp(uint8,bytes,uint256)": "a9a23409",
					"renounceOwnership()": "715018a6",
					"senderNonce(address)": "9c90b443",
					"transferOwnership(address)": "f2fde38b",
					"unlockStake()": "bb9fe6bf",
					"validatePaymasterUserOp((address,uint256,bytes,bytes,uint256,uint256,uint256,uint256,uint256,bytes,bytes),bytes32,uint256)": "f465c77e",
					"verifyingSigner()": "23d9ac9b",
					"withdrawStake(address)": "c23a5cea",
					"withdrawTo(address,uint256)": "205c2878"
				}
			},
			"storageLayout": {
				"storage": [
					{
						"astId": 1059,
						"contract": "contracts/paymaster/KaijuVerifyingPaymaster.sol:KaijuVerifyingPaymaster",
						"label": "_owner",
						"offset": 0,
						"slot": "0",
						"type": "t_address"
					},
					{
						"astId": 2794,
						"contract": "contracts/paymaster/KaijuVerifyingPaymaster.sol:KaijuVerifyingPaymaster",
						"label": "senderNonce",
						"offset": 0,
						"slot": "1",
						"type": "t_mapping(t_address,t_uint256)"
					}
				],
				"types": {
					"t_address": {
						"encoding": "inplace",
						"label": "address",
						"numberOfBytes": "20"
					},
					"t_mapping(t_address,t_uint256)": {
						"encoding": "mapping",
						"key": "t_address",
						"label": "mapping(address => uint256)",
						"numberOfBytes": "32",
						"value": "t_uint256"
					},
					"t_uint256": {
						"encoding": "inplace",
						"label": "uint256",
						"numberOfBytes": "32"
					}
				}
			},
			"userdoc": {
				"kind": "user",
				"methods": {
					"addStake(uint32)": {
						"notice": "add stake for this paymaster. This method can also carry eth value to add to the current stake."
					},
					"deposit()": {
						"notice": "add a deposit for this paymaster, used for paying for transaction fees"
					},
					"getDeposit()": {
						"notice": "return current paymaster's deposit on the entryPoint."
					},
					"postOp(uint8,bytes,uint256)": {
						"notice": "post-operation handler. Must verify sender is the entryPoint"
					},
					"unlockStake()": {
						"notice": "unlock the stake, in order to withdraw it. The paymaster can't serve requests once unlocked, until it calls addStake again"
					},
					"validatePaymasterUserOp((address,uint256,bytes,bytes,uint256,uint256,uint256,uint256,uint256,bytes,bytes),bytes32,uint256)": {
						"notice": "payment validation: check if paymaster agrees to pay. Must verify sender is the entryPoint. Revert to reject this request. Note that bundlers will reject this method if it changes the state, unless the paymaster is trusted (whitelisted) The paymaster pre-pays using its deposit, and receive back a refund after the postOp method returns."
					},
					"withdrawStake(address)": {
						"notice": "withdraw the entire paymaster's stake. stake must be unlocked first (and then wait for the unstakeDelay to be over)"
					},
					"withdrawTo(address,uint256)": {
						"notice": "withdraw value from the deposit"
					}
				},
				"notice": "A paymaster that uses external service to decide whether to pay for the UserOp. The paymaster trusts an external signer to sign the transaction. The calling user must pass the UserOp to that external signer first, which performs whatever off-chain verification before signing the UserOp. Note that this signature is NOT a replacement for the account-specific signature: - the paymaster checks a signature to agree to PAY for GAS. - the account checks a signature to prove identity and account ownership.",
				"version": 1
			}
		}
	}
}